{
  "address": "0xe8fFc80a8D5c07Eb9Cd52AbF1a081b588d663414",
  "abi": [
    {
      "inputs": [
        {
          "internalType": "string",
          "name": "name",
          "type": "string"
        },
        {
          "internalType": "string",
          "name": "symbol",
          "type": "string"
        },
        {
          "internalType": "string",
          "name": "baseURI",
          "type": "string"
        },
        {
          "internalType": "contract IERC20",
          "name": "mareBitsToken_",
          "type": "address"
        }
      ],
      "stateMutability": "nonpayable",
      "type": "constructor"
    },
    {
      "inputs": [
        {
          "internalType": "address",
          "name": "caller",
          "type": "address"
        },
        {
          "internalType": "address",
          "name": "owner",
          "type": "address"
        }
      ],
      "name": "CallerIsNotOwner",
      "type": "error"
    },
    {
      "inputs": [],
      "name": "FailedSend",
      "type": "error"
    },
    {
      "inputs": [
        {
          "internalType": "uint256",
          "name": "required",
          "type": "uint256"
        },
        {
          "internalType": "uint256",
          "name": "available",
          "type": "uint256"
        }
      ],
      "name": "InsufficientBalance",
      "type": "error"
    },
    {
      "inputs": [
        {
          "internalType": "string",
          "name": "reason",
          "type": "string"
        }
      ],
      "name": "InvalidAmount",
      "type": "error"
    },
    {
      "inputs": [],
      "name": "InvalidCaller",
      "type": "error"
    },
    {
      "inputs": [
        {
          "internalType": "enum Token.Type",
          "name": "tokenType",
          "type": "uint8"
        }
      ],
      "name": "InvalidTokenType",
      "type": "error"
    },
    {
      "inputs": [
        {
          "internalType": "uint64",
          "name": "expiresAt",
          "type": "uint64"
        },
        {
          "internalType": "uint64",
          "name": "currentTime",
          "type": "uint64"
        }
      ],
      "name": "LockedAccount",
      "type": "error"
    },
    {
      "inputs": [
        {
          "internalType": "address",
          "name": "wallet",
          "type": "address"
        }
      ],
      "name": "NeedsMoreMARE",
      "type": "error"
    },
    {
      "inputs": [
        {
          "internalType": "uint256",
          "name": "accountId",
          "type": "uint256"
        }
      ],
      "name": "NonexistentAccount",
      "type": "error"
    },
    {
      "inputs": [
        {
          "internalType": "uint256",
          "name": "tokenId",
          "type": "uint256"
        },
        {
          "internalType": "address",
          "name": "claimedOwner",
          "type": "address"
        },
        {
          "internalType": "address",
          "name": "actualOwner",
          "type": "address"
        }
      ],
      "name": "NotTokenOwner",
      "type": "error"
    },
    {
      "inputs": [
        {
          "internalType": "uint64",
          "name": "given",
          "type": "uint64"
        },
        {
          "internalType": "uint64",
          "name": "minimum",
          "type": "uint64"
        },
        {
          "internalType": "uint64",
          "name": "maximum",
          "type": "uint64"
        }
      ],
      "name": "TimeOutOfBounds",
      "type": "error"
    },
    {
      "inputs": [
        {
          "internalType": "address",
          "name": "tokenAddress",
          "type": "address"
        },
        {
          "internalType": "string",
          "name": "approvalFunction",
          "type": "string"
        }
      ],
      "name": "UnapprovedTokenTransfer",
      "type": "error"
    },
    {
      "inputs": [],
      "name": "ZeroAmountGiven",
      "type": "error"
    },
    {
      "anonymous": false,
      "inputs": [
        {
          "indexed": true,
          "internalType": "address",
          "name": "previousOwner",
          "type": "address"
        },
        {
          "indexed": true,
          "internalType": "address",
          "name": "newOwner",
          "type": "address"
        }
      ],
      "name": "OwnershipTransferred",
      "type": "event"
    },
    {
      "anonymous": false,
      "inputs": [
        {
          "indexed": true,
          "internalType": "uint256",
          "name": "accountId",
          "type": "uint256"
        },
        {
          "indexed": true,
          "internalType": "address",
          "name": "owner",
          "type": "address"
        },
        {
          "indexed": false,
          "internalType": "uint256",
          "name": "amount",
          "type": "uint256"
        },
        {
          "indexed": false,
          "internalType": "address",
          "name": "tokenContract",
          "type": "address"
        },
        {
          "indexed": false,
          "internalType": "uint256",
          "name": "tokenId",
          "type": "uint256"
        },
        {
          "indexed": false,
          "internalType": "enum Token.Type",
          "name": "tokenType",
          "type": "uint8"
        }
      ],
      "name": "TokenRedeemed",
      "type": "event"
    },
    {
      "anonymous": false,
      "inputs": [
        {
          "indexed": true,
          "internalType": "uint256",
          "name": "accountId",
          "type": "uint256"
        },
        {
          "indexed": true,
          "internalType": "address",
          "name": "owner",
          "type": "address"
        },
        {
          "indexed": false,
          "internalType": "uint256",
          "name": "amount",
          "type": "uint256"
        },
        {
          "indexed": false,
          "internalType": "address",
          "name": "tokenContract",
          "type": "address"
        },
        {
          "indexed": false,
          "internalType": "uint256",
          "name": "tokenId",
          "type": "uint256"
        },
        {
          "indexed": false,
          "internalType": "enum Token.Type",
          "name": "tokenType",
          "type": "uint8"
        },
        {
          "indexed": false,
          "internalType": "uint64",
          "name": "unlockTime",
          "type": "uint64"
        }
      ],
      "name": "TokensLocked",
      "type": "event"
    },
    {
      "inputs": [
        {
          "internalType": "uint256",
          "name": "accountId",
          "type": "uint256"
        }
      ],
      "name": "__burn",
      "outputs": [],
      "stateMutability": "nonpayable",
      "type": "function"
    },
    {
      "inputs": [],
      "name": "__recoverEther",
      "outputs": [],
      "stateMutability": "payable",
      "type": "function"
    },
    {
      "inputs": [
        {
          "internalType": "enum Token.Type",
          "name": "tokenType",
          "type": "uint8"
        },
        {
          "internalType": "address",
          "name": "tokenContract",
          "type": "address"
        },
        {
          "internalType": "uint256",
          "name": "tokenId",
          "type": "uint256"
        }
      ],
      "name": "__recoverTokens",
      "outputs": [],
      "stateMutability": "nonpayable",
      "type": "function"
    },
    {
      "inputs": [],
      "name": "accounts",
      "outputs": [
        {
          "internalType": "contract IMarebitsLockerAccount",
          "name": "",
          "type": "address"
        }
      ],
      "stateMutability": "view",
      "type": "function"
    },
    {
      "inputs": [],
      "name": "bestPony",
      "outputs": [
        {
          "internalType": "string",
          "name": "",
          "type": "string"
        }
      ],
      "stateMutability": "pure",
      "type": "function"
    },
    {
      "inputs": [
        {
          "internalType": "uint256",
          "name": "accountId",
          "type": "uint256"
        },
        {
          "internalType": "uint64",
          "name": "unlockTime",
          "type": "uint64"
        }
      ],
      "name": "extendLock",
      "outputs": [
        {
          "internalType": "uint256",
          "name": "",
          "type": "uint256"
        }
      ],
      "stateMutability": "nonpayable",
      "type": "function"
    },
    {
      "inputs": [
        {
          "internalType": "uint256",
          "name": "accountId",
          "type": "uint256"
        }
      ],
      "name": "getAccount",
      "outputs": [
        {
          "components": [
            {
              "internalType": "uint256",
              "name": "accountId",
              "type": "uint256"
            },
            {
              "internalType": "uint256",
              "name": "amount",
              "type": "uint256"
            },
            {
              "internalType": "uint256",
              "name": "tokenId",
              "type": "uint256"
            },
            {
              "internalType": "address",
              "name": "tokenContract",
              "type": "address"
            },
            {
              "internalType": "enum Token.Type",
              "name": "tokenType",
              "type": "uint8"
            },
            {
              "internalType": "uint64",
              "name": "unlockTime",
              "type": "uint64"
            },
            {
              "internalType": "bool",
              "name": "isBurned",
              "type": "bool"
            },
            {
              "internalType": "bool",
              "name": "isRedeemed",
              "type": "bool"
            }
          ],
          "internalType": "struct Account.Info",
          "name": "",
          "type": "tuple"
        }
      ],
      "stateMutability": "view",
      "type": "function"
    },
    {
      "inputs": [
        {
          "internalType": "enum Token.Type",
          "name": "tokenType",
          "type": "uint8"
        },
        {
          "internalType": "address",
          "name": "tokenContract",
          "type": "address"
        },
        {
          "internalType": "uint256",
          "name": "tokenId",
          "type": "uint256"
        },
        {
          "internalType": "uint256",
          "name": "amount",
          "type": "uint256"
        },
        {
          "internalType": "uint64",
          "name": "unlockTime",
          "type": "uint64"
        }
      ],
      "name": "lockTokens",
      "outputs": [
        {
          "internalType": "uint256",
          "name": "",
          "type": "uint256"
        }
      ],
      "stateMutability": "nonpayable",
      "type": "function"
    },
    {
      "inputs": [],
      "name": "lockerToken",
      "outputs": [
        {
          "internalType": "contract IMarebitsLockerToken",
          "name": "",
          "type": "address"
        }
      ],
      "stateMutability": "view",
      "type": "function"
    },
    {
      "inputs": [],
      "name": "mareBitsToken",
      "outputs": [
        {
          "internalType": "contract IERC20",
          "name": "",
          "type": "address"
        }
      ],
      "stateMutability": "view",
      "type": "function"
    },
    {
      "inputs": [],
      "name": "owner",
      "outputs": [
        {
          "internalType": "address",
          "name": "",
          "type": "address"
        }
      ],
      "stateMutability": "view",
      "type": "function"
    },
    {
      "inputs": [
        {
          "internalType": "uint256",
          "name": "accountId",
          "type": "uint256"
        }
      ],
      "name": "redeemToken",
      "outputs": [],
      "stateMutability": "nonpayable",
      "type": "function"
    },
    {
      "inputs": [
        {
          "internalType": "bytes4",
          "name": "interfaceId",
          "type": "bytes4"
        }
      ],
      "name": "supportsInterface",
      "outputs": [
        {
          "internalType": "bool",
          "name": "",
          "type": "bool"
        }
      ],
      "stateMutability": "view",
      "type": "function"
    },
    {
      "inputs": [
        {
          "internalType": "address",
          "name": "newOwner",
          "type": "address"
        }
      ],
      "name": "transferOwnership",
      "outputs": [],
      "stateMutability": "nonpayable",
      "type": "function"
    },
    {
      "inputs": [],
      "name": "vault",
      "outputs": [
        {
          "internalType": "contract IMarebitsVault",
          "name": "",
          "type": "address"
        }
      ],
      "stateMutability": "view",
      "type": "function"
    },
    {
      "stateMutability": "payable",
      "type": "receive"
    }
  ],
  "transactionHash": "0xb406991f193d6ad66db45c39cc7b03c626ab1b29b489ff72e2478a6ae37f54be",
  "args": [
    "Mare Bits Locker Token",
    "🐎‍♀️🔒🪙",
    "ipns://locker.mare.biz/token/3/",
    "0x35c94a5a563d7dc00b7edaa455e0a931691deb27"
  ],
  "solcInputHash": "0c1399b14608fdef1d22a9acc5d5fcc9",
  "bytecode": "0x6101006040523480156200001257600080fd5b5060405162008b1e38038062008b1e83398101604081905262000035916200037b565b62000049620000436200011b565b6200011f565b600180556040516200005b90620001a4565b604051809103906000f08015801562000078573d6000803e3d6000fd5b506001600160a01b03166080526040518490849084906200009990620001b2565b620000a7939291906200048d565b604051809103906000f080158015620000c4573d6000803e3d6000fd5b506001600160a01b0390811660a052811660c052604051620000e690620001c0565b604051809103906000f08015801562000103573d6000803e3d6000fd5b506001600160a01b031660e05250620004d592505050565b3390565b60006200012b62000195565b600080546001600160a01b0319166001600160a01b03851617905590506200015262000195565b6001600160a01b0316816001600160a01b03167f8be0079c531659141344cd1fd0a4f28419497f9722a3daafe3b4186f6b6457e060405160405180910390a35050565b6000546001600160a01b031690565b6115db806200343e83390190565b6130788062004a1983390190565b61108d8062007a9183390190565b60405190565b600080fd5b601f01601f191690565b634e487b7160e01b600052604160045260246000fd5b6200020482620001d9565b81018181106001600160401b0382111715620002245762000224620001e3565b6040525050565b600062000237620001ce565b9050620002458282620001f9565b919050565b60006001600160401b03821115620002665762000266620001e3565b6200027182620001d9565b60200192915050565b60005b83811015620002975781810151838201526020016200027d565b83811115620002a7576000848401525b50505050565b6000620002c4620002be846200024a565b6200022b565b905082815260208101848484011115620002e257620002e2620001d4565b620002ef8482856200027a565b509392505050565b600082601f8301126200030e576200030e620001d4565b815162000320848260208601620002ad565b949350505050565b6001600160a01b031690565b6000620003418262000328565b92915050565b6000620003418262000334565b6200035f8162000347565b81146200036b57600080fd5b50565b8051620003418162000354565b60008060008060808587031215620003975762000397620001d4565b84516001600160401b03811115620003b357620003b3620001d4565b620003c187828801620002f7565b94505060208501516001600160401b03811115620003e357620003e3620001d4565b620003f187828801620002f7565b93505060408501516001600160401b03811115620004135762000413620001d4565b6200042187828801620002f7565b925050606062000434878288016200036e565b91505092959194509250565b5190565b90815260200190565b60006200045a8262000440565b62000466818562000444565b9350620004788185602086016200027a565b6200048381620001d9565b9093019392505050565b60608082528101620004a081866200044d565b90508181036020830152620004b681856200044d565b90508181036040830152620004cc81846200044d565b95945050505050565b60805160a05160c05160e051612e64620005da600039600081816106a501528181610c970152818161122d015281816116430152818161182c01526119ac0152600081816103370152818161036c01528181610a0301528181610a3801528181610d8f01528181610dc4015261105e01526000818161051d0152818161063a015281816108020152818161092d01528181610c2401528181610e91015281816111180152818161126a01528181611e970152611faf015260008181610441015281816105be015281816108ad01528181610bb101528181610d1401528181610ee001528181610f870152818161109f015281816111860152611f330152612e646000f3fe6080604052600436106100ec5760003560e01c806368cd03f61161008a578063ce88b14511610059578063ce88b14514610255578063d1a0152014610282578063f2fde38b146102a2578063fbfa77cf146102c2576100f3565b806368cd03f6146101e95780637ab6489d146101fe5780638da5cb5b1461021e578063be31e0ac14610240576100f3565b806319511a7a116100c657806319511a7a146101725780631c3eeaac1461019457806326ec824f146101b457806364e71924146101e1576100f3565b8063013054c2146100f857806301ffc9a71461011a578063048a6a5c14610150576100f3565b366100f357005b600080fd5b34801561010457600080fd5b506101186101133660046122ce565b6102d7565b005b34801561012657600080fd5b5061013a610135366004612310565b6107a9565b6040516101479190612345565b60405180910390f35b34801561015c57600080fd5b50610165610800565b6040516101479190612399565b34801561017e57600080fd5b50610187610824565b6040516101479190612422565b3480156101a057600080fd5b506101186101af36600461246a565b610844565b3480156101c057600080fd5b506101d46101cf3660046124db565b6109aa565b604051610147919061255c565b610118610b80565b3480156101f557600080fd5b50610165610d12565b34801561020a57600080fd5b506101d461021936600461256a565b610d36565b34801561022a57600080fd5b5061023361104d565b60405161014791906125b0565b34801561024c57600080fd5b5061016561105c565b34801561026157600080fd5b506102756102703660046122ce565b611080565b60405161014791906126a2565b34801561028e57600080fd5b5061011861029d3660046122ce565b611116565b3480156102ae57600080fd5b506101186102bd3660046126b1565b6111f0565b3480156102ce57600080fd5b5061016561122b565b600260015414156103035760405162461bcd60e51b81526004016102fa90612716565b60405180910390fd5b6002600155600061031261124f565b9050803b8015610335576040516348f5c3ed60e01b815260040160405180910390fd5b7f00000000000000000000000000000000000000000000000000000000000000006001600160a01b031615801590610400575060007f00000000000000000000000000000000000000000000000000000000000000006001600160a01b03166370a082316103a161124f565b6040518263ffffffff1660e01b81526004016103bd91906125b0565b602060405180830381865afa1580156103da573d6000803e3d6000fd5b505050506040513d601f19601f820116820180604052508101906103fe9190612731565b145b156104275761040d61124f565b604051639759f9f360e01b81526004016102fa91906125b0565b60405163ce88b14560e01b81526000906001600160a01b037f0000000000000000000000000000000000000000000000000000000000000000169063ce88b1459061047690879060040161255c565b61010060405180830381865afa158015610494573d6000803e3d6000fd5b505050506040513d601f19601f820116820180604052508101906104b891906128a5565b9050428160a0015167ffffffffffffffff1611156104f1578060a00151426040516377fc659160e11b81526004016102fa9291906128c7565b6104fa84611253565b6105988461050661124f565b6040516331a9108f60e11b81526001600160a01b037f00000000000000000000000000000000000000000000000000000000000000001690636352211e90610552908a9060040161255c565b602060405180830381865afa15801561056f573d6000803e3d6000fd5b505050506040513d601f19601f8201168201806040525081019061059391906128e2565b6112ff565b6105a760018260200151611337565b604051631207e32f60e11b81526001600160a01b037f0000000000000000000000000000000000000000000000000000000000000000169063240fc65e906105f390879060040161255c565b600060405180830381600087803b15801561060d57600080fd5b505af1158015610621573d6000803e3d6000fd5b505060405163068d00a960e51b81526001600160a01b037f000000000000000000000000000000000000000000000000000000000000000016925063d1a01520915061067190879060040161255c565b600060405180830381600087803b15801561068b57600080fd5b505af115801561069f573d6000803e3d6000fd5b505050507f00000000000000000000000000000000000000000000000000000000000000006001600160a01b031663a6e943ff826080015183606001516106e461124f565b856040015186602001516040518663ffffffff1660e01b815260040161070e959493929190612903565b600060405180830381600087803b15801561072857600080fd5b505af115801561073c573d6000803e3d6000fd5b5050505061074861124f565b6001600160a01b0316847fb67e1bd475654eb760816bf9fa43c395b5b451e28b3ef394e74196e94adf740d8360200151846060015185604001518660800151604051610797949392919061294f565b60405180910390a35050600180555050565b60006001600160e01b031982166342423a7560e01b14806107da57506001600160e01b03198216630ca88d3d60e11b145b806107e957506107e982611360565b806107f857506107f882611385565b90505b919050565b7f000000000000000000000000000000000000000000000000000000000000000081565b60606040518060600160405280603f8152602001612df0603f9139905090565b61084c61124f565b6001600160a01b031661085d61104d565b6001600160a01b0316146108965761087361124f565b61087b61104d565b60405163fbaeeec160e01b81526004016102fa92919061298d565b60405163070fbaab60e21b81526001600160a01b037f00000000000000000000000000000000000000000000000000000000000000001690631c3eeaac906108e6908690869086906004016129a8565b600060405180830381600087803b15801561090057600080fd5b505af1158015610914573d6000803e3d6000fd5b505060405163070fbaab60e21b81526001600160a01b037f0000000000000000000000000000000000000000000000000000000000000000169250631c3eeaac9150610968908690869086906004016129a8565b600060405180830381600087803b15801561098257600080fd5b505af1158015610996573d6000803e3d6000fd5b505050506109a583838361139f565b505050565b6000600260015414156109cf5760405162461bcd60e51b81526004016102fa90612716565b600260015560006109de61124f565b9050803b8015610a01576040516348f5c3ed60e01b815260040160405180910390fd5b7f00000000000000000000000000000000000000000000000000000000000000006001600160a01b031615801590610acc575060007f00000000000000000000000000000000000000000000000000000000000000006001600160a01b03166370a08231610a6d61124f565b6040518263ffffffff1660e01b8152600401610a8991906125b0565b602060405180830381865afa158015610aa6573d6000803e3d6000fd5b505050506040513d601f19601f82011682018060405250810190610aca9190612731565b145b15610ad95761040d61124f565b610ae28861143e565b610af5844267ffffffffffffffff611477565b6001886003811115610b0957610b096125be565b1415610b2257610b1b878787876114d0565b9250610b71565b6002886003811115610b3657610b366125be565b1415610b4757610b1b878686611707565b6003886003811115610b5b57610b5b6125be565b1415610b6c57610b1b8787866118a3565b600092505b50506001805595945050505050565b610b8861124f565b6001600160a01b0316610b9961104d565b6001600160a01b031614610baf5761087361124f565b7f00000000000000000000000000000000000000000000000000000000000000006001600160a01b03166364e719246040518163ffffffff1660e01b8152600401600060405180830381600087803b158015610c0a57600080fd5b505af1158015610c1e573d6000803e3d6000fd5b505050507f00000000000000000000000000000000000000000000000000000000000000006001600160a01b03166364e719246040518163ffffffff1660e01b8152600401600060405180830381600087803b158015610c7d57600080fd5b505af1158015610c91573d6000803e3d6000fd5b505050507f00000000000000000000000000000000000000000000000000000000000000006001600160a01b03166364e719246040518163ffffffff1660e01b8152600401600060405180830381600087803b158015610cf057600080fd5b505af1158015610d04573d6000803e3d6000fd5b50505050610d10611a6d565b565b7f000000000000000000000000000000000000000000000000000000000000000081565b600060026001541415610d5b5760405162461bcd60e51b81526004016102fa90612716565b60026001556000610d6a61124f565b9050803b8015610d8d576040516348f5c3ed60e01b815260040160405180910390fd5b7f00000000000000000000000000000000000000000000000000000000000000006001600160a01b031615801590610e58575060007f00000000000000000000000000000000000000000000000000000000000000006001600160a01b03166370a08231610df961124f565b6040518263ffffffff1660e01b8152600401610e1591906125b0565b602060405180830381865afa158015610e32573d6000803e3d6000fd5b505050506040513d601f19601f82011682018060405250810190610e569190612731565b145b15610e655761040d61124f565b610e6e85611253565b610ec685610e7a61124f565b6040516331a9108f60e11b81526001600160a01b037f00000000000000000000000000000000000000000000000000000000000000001690636352211e90610552908b9060040161255c565b60405163ce88b14560e01b81526000906001600160a01b037f0000000000000000000000000000000000000000000000000000000000000000169063ce88b14590610f1590899060040161255c565b61010060405180830381865afa158015610f33573d6000803e3d6000fd5b505050506040513d601f19601f82011682018060405250810190610f5791906128a5565b9050610f70858260a0015167ffffffffffffffff611477565b604051632009c7f560e01b81526001600160a01b037f00000000000000000000000000000000000000000000000000000000000000001690632009c7f590610fbe90899089906004016129d0565b600060405180830381600087803b158015610fd857600080fd5b505af1158015610fec573d6000803e3d6000fd5b50505050610ff861124f565b6001600160a01b031686600080516020612dd083398151915283602001518460600151856040015186608001518b6040516110379594939291906129de565b60405180910390a3505060018055509192915050565b6000546001600160a01b031690565b7f000000000000000000000000000000000000000000000000000000000000000081565b611088612241565b60405163ce88b14560e01b81526001600160a01b037f0000000000000000000000000000000000000000000000000000000000000000169063ce88b145906110d490859060040161255c565b61010060405180830381865afa1580156110f2573d6000803e3d6000fd5b505050506040513d601f19601f820116820180604052508101906107f891906128a5565b7f00000000000000000000000000000000000000000000000000000000000000006001600160a01b031661114861124f565b6001600160a01b03161461116f576040516348f5c3ed60e01b815260040160405180910390fd5b60405163068d00a960e51b81526001600160a01b037f0000000000000000000000000000000000000000000000000000000000000000169063d1a01520906111bb90849060040161255c565b600060405180830381600087803b1580156111d557600080fd5b505af11580156111e9573d6000803e3d6000fd5b5050505050565b6111f861124f565b6001600160a01b031661120961104d565b6001600160a01b03161461121f5761087361124f565b61122881611b20565b50565b7f000000000000000000000000000000000000000000000000000000000000000081565b3390565b604051638553c3e960e01b81526001600160a01b037f00000000000000000000000000000000000000000000000000000000000000001690638553c3e99061129f90849060040161255c565b602060405180830381865afa1580156112bc573d6000803e3d6000fd5b505050506040513d601f19601f820116820180604052508101906112e09190612a20565b61122857806040516357466b6760e01b81526004016102fa919061255c565b806001600160a01b0316826001600160a01b0316146109a55782828260405163d1344c4560e01b81526004016102fa93929190612a41565b8082111561135c57818160405163cf47918160e01b81526004016102fa929190612a69565b5050565b60006001600160e01b0319821663f2fde38b60e01b14806107f857506107f882611b92565b600061139082611bb7565b806107f857506107f882611bdc565b6113a761124f565b6001600160a01b03166113b861104d565b6001600160a01b0316146113ce5761087361124f565b60018360038111156113e2576113e26125be565b14156113f7576113f28282611c01565b6109a5565b600283600381111561140b5761140b6125be565b141561141a576113f282611ce3565b600383600381111561142e5761142e6125be565b14156109a5576109a58282611d71565b611458816003811115611453576114536125be565b611dde565b6112285780604051630270056f60e51b81526004016102fa9190612a84565b8167ffffffffffffffff168367ffffffffffffffff1610806114ac57508067ffffffffffffffff168367ffffffffffffffff16115b156109a55782828260405163c236b16b60e01b81526004016102fa93929190612a92565b600082806114f15760405163f13610b360e01b815260040160405180910390fd5b61156f84876001600160a01b031662fdd58e61150b61124f565b896040518363ffffffff1660e01b8152600401611529929190612aba565b602060405180830381865afa158015611546573d6000803e3d6000fd5b505050506040513d601f19601f8201168201806040525081019061156a9190612731565b611337565b61161a866001600160a01b031663e985e9c561158961124f565b306040518363ffffffff1660e01b81526004016115a792919061298d565b602060405180830381865afa1580156115c4573d6000803e3d6000fd5b505050506040513d601f19601f820116820180604052508101906115e89190612a20565b8760405180604001604052806013815260200172736574417070726f76616c466f72416c6c282960681b815250611e32565b611628848787600187611e54565b9150856001600160a01b031663f242432a61164161124f565b7f000000000000000000000000000000000000000000000000000000000000000088886040518563ffffffff1660e01b81526004016116839493929190612ae4565b600060405180830381600087803b15801561169d57600080fd5b505af11580156116b1573d6000803e3d6000fd5b505050506116be82611fad565b6116c661124f565b6001600160a01b031682600080516020612dd08339815191528689896001896040516116f69594939291906129de565b60405180910390a350949350505050565b600082806117285760405163f13610b360e01b815260040160405180910390fd5b61175f84866001600160a01b03166370a0823161174361124f565b6040518263ffffffff1660e01b815260040161152991906125b0565b61180384866001600160a01b031663dd62ed3e61177a61124f565b306040518363ffffffff1660e01b815260040161179892919061298d565b602060405180830381865afa1580156117b5573d6000803e3d6000fd5b505050506040513d601f19601f820116820180604052508101906117d99190612731565b10158660405180604001604052806009815260200168617070726f7665282960b81b815250611e32565b61181284866000600287611e54565b915061185161181f61124f565b6001600160a01b038716907f000000000000000000000000000000000000000000000000000000000000000087612002565b61185a82611fad565b61186261124f565b6001600160a01b031682600080516020612dd083398151915286886000600289604051611893959493929190612b44565b60405180910390a3509392505050565b60006118dd836118b161124f565b6040516331a9108f60e11b81526001600160a01b03881690636352211e9061055290899060040161255c565b60405163020604bf60e21b81526119829030906001600160a01b0387169063081812fc9061190f90889060040161255c565b602060405180830381865afa15801561192c573d6000803e3d6000fd5b505050506040513d601f19601f8201168201806040525081019061195091906128e2565b6001600160a01b0316148560405180604001604052806009815260200168617070726f7665282960b81b815250611e32565b61199160018585600386611e54565b9050836001600160a01b03166342842e0e6119aa61124f565b7f0000000000000000000000000000000000000000000000000000000000000000866040518463ffffffff1660e01b81526004016119ea93929190612b6c565b600060405180830381600087803b158015611a0457600080fd5b505af1158015611a18573d6000803e3d6000fd5b50505050611a2581611fad565b611a2d61124f565b6001600160a01b031681600080516020612dd083398151915260018787600388604051611a5e959493929190612b87565b60405180910390a39392505050565b611a7561124f565b6001600160a01b0316611a8661104d565b6001600160a01b031614611a9c5761087361124f565b6000611aa661104d565b6001600160a01b031647604051611abc90612ba2565b60006040518083038185875af1925050503d8060008114611af9576040519150601f19603f3d011682016040523d82523d6000602084013e611afe565b606091505b5050905080611228576040516310d27f5760e11b815260040160405180910390fd5b6000611b2a61104d565b600080546001600160a01b0319166001600160a01b0385161790559050611b4f61104d565b6001600160a01b0316816001600160a01b03167f8be0079c531659141344cd1fd0a4f28419497f9722a3daafe3b4186f6b6457e060405160405180910390a35050565b60006001600160e01b03198216638da5cb5b60e01b14806107f857506107f882612060565b60006001600160e01b03198216631939c64960e21b14806107f857506107f882611360565b60006001600160e01b0319821663070fbaab60e21b14806107f857506107f882611bb7565b604051627eeac760e11b81526000906001600160a01b0384169062fdd58e90611c309030908690600401612aba565b602060405180830381865afa158015611c4d573d6000803e3d6000fd5b505050506040513d601f19601f82011682018060405250810190611c719190612731565b9050826001600160a01b031663f242432a30611c8b61104d565b85856040518563ffffffff1660e01b8152600401611cac9493929190612ae4565b600060405180830381600087803b158015611cc657600080fd5b505af1158015611cda573d6000803e3d6000fd5b50505050505050565b6040516370a0823160e01b81526000906001600160a01b038316906370a0823190611d129030906004016125b0565b602060405180830381865afa158015611d2f573d6000803e3d6000fd5b505050506040513d601f19601f82011682018060405250810190611d539190612731565b905061135c611d6061104d565b6001600160a01b0384169083612079565b816001600160a01b03166342842e0e30611d8961104d565b846040518463ffffffff1660e01b8152600401611da893929190612b6c565b600060405180830381600087803b158015611dc257600080fd5b505af1158015611dd6573d6000803e3d6000fd5b505050505050565b60006001826003811115611df457611df46125be565b1480611e1157506002826003811115611e0f57611e0f6125be565b145b806107f857506003826003811115611e2b57611e2b6125be565b1492915050565b826109a557818160405163be36d0d960e01b81526004016102fa929190612bad565b60006003836003811115611e6a57611e6a6125be565b148015611e775750600186115b15611e955760405163589956a560e11b81526004016102fa90612c0a565b7f00000000000000000000000000000000000000000000000000000000000000006001600160a01b031663453830996040518163ffffffff1660e01b81526004016020604051808303816000875af1158015611ef5573d6000803e3d6000fd5b505050506040513d601f19601f82011682018060405250810190611f199190612731565b60405163149369ed60e31b81529091506001600160a01b037f0000000000000000000000000000000000000000000000000000000000000000169063a49b4f6890611f729084908a908a908a908a908a90600401612c1a565b600060405180830381600087803b158015611f8c57600080fd5b505af1158015611fa0573d6000803e3d6000fd5b5050505095945050505050565b7f00000000000000000000000000000000000000000000000000000000000000006001600160a01b031663550e9855611fe461124f565b836040518363ffffffff1660e01b81526004016111bb929190612aba565b61205a846323b872dd60e01b85858560405160240161202393929190612c74565b60408051601f198184030181529190526020810180516001600160e01b03166001600160e01b031990931692909217909152612098565b50505050565b6001600160e01b031981166301ffc9a760e01b14919050565b6109a58363a9059cbb60e01b8484604051602401612023929190612aba565b60006120ed826040518060400160405280602081526020017f5361666545524332303a206c6f772d6c6576656c2063616c6c206661696c6564815250856001600160a01b03166121279092919063ffffffff16565b8051909150156109a5578080602001905181019061210b9190612a20565b6109a55760405162461bcd60e51b81526004016102fa90612cda565b60606121368484600085612140565b90505b9392505050565b6060824710156121625760405162461bcd60e51b81526004016102fa90612d37565b61216b85612202565b6121875760405162461bcd60e51b81526004016102fa90612d84565b600080866001600160a01b031685876040516121a39190612dc3565b60006040518083038185875af1925050503d80600081146121e0576040519150601f19603f3d011682016040523d82523d6000602084013e6121e5565b606091505b50915091506121f5828286612208565b925050505b949350505050565b3b151590565b60608315612217575081612139565b8251156122275782518084602001fd5b8160405162461bcd60e51b81526004016102fa9190612422565b60405180610100016040528060008152602001600081526020016000815260200160006001600160a01b0316815260200160006003811115612285576122856125be565b81526000602082018190526040820181905260609091015290565b60405190565b90565b6122b2816122a6565b811461122857600080fd5b80356122c8816122a9565b92915050565b6000602082840312156122e3576122e36100f3565b60006121fa84846122bd565b6001600160e01b03191690565b6122b2816122ef565b80356122c8816122fc565b600060208284031215612325576123256100f3565b60006121fa8484612305565b151590565b61233f81612331565b82525050565b602081016122c88284612336565b6001600160a01b031690565b60006107f861237561237084612353565b6122a6565b612353565b60006107f88261235f565b60006107f88261237a565b61233f81612385565b602081016122c88284612390565b5190565b90815260200190565b60005b838110156123cf5781810151838201526020016123b7565b8381111561205a5750506000910152565b601f01601f191690565b60006123f5826123a7565b6123ff81856123ab565b935061240f8185602086016123b4565b612418816123e0565b9093019392505050565b6020808252810161213981846123ea565b6004811061122857600080fd5b80356122c881612433565b60006107f882612353565b6122b28161244b565b80356122c881612456565b600080600060608486031215612482576124826100f3565b600061248e8686612440565b935050602061249f8682870161245f565b92505060406124b0868287016122bd565b9150509250925092565b67ffffffffffffffff1690565b6122b2816124ba565b80356122c8816124c7565b600080600080600060a086880312156124f6576124f66100f3565b60006125028888612440565b95505060206125138882890161245f565b9450506040612524888289016122bd565b9350506060612535888289016122bd565b9250506080612546888289016124d0565b9150509295509295909350565b61233f816122a6565b602081016122c88284612553565b60008060408385031215612580576125806100f3565b600061258c85856122bd565b925050602061259d858286016124d0565b9150509250929050565b61233f8161244b565b602081016122c882846125a7565b634e487b7160e01b600052602160045260246000fd5b60048110611228576112286125be565b806107fb816125d4565b60006107f8826125e4565b61233f816125ee565b61233f816124ba565b805161010083019061261d8482612553565b5060208201516126306020850182612553565b5060408201516126436040850182612553565b50606082015161265660608501826125a7565b50608082015161266960808501826125f9565b5060a082015161267c60a0850182612602565b5060c082015161268f60c0850182612336565b5060e082015161205a60e0850182612336565b61010081016122c8828461260b565b6000602082840312156126c6576126c66100f3565b60006121fa848461245f565b7f5265656e7472616e637947756172643a207265656e7472616e742063616c6c009052565b6000612704601f836123ab565b915061270f826126d2565b5060200190565b602080825281016107f8816126f7565b80516122c8816122a9565b600060208284031215612746576127466100f3565b60006121fa8484612726565b634e487b7160e01b600052604160045260246000fd5b612771826123e0565b810181811067ffffffffffffffff8211171561278f5761278f612752565b6040525050565b60006127a06122a0565b90506107fb8282612768565b80516122c881612456565b80516122c881612433565b80516122c8816124c7565b6122b281612331565b80516122c8816127cd565b600061010082840312156127f7576127f76100f3565b612802610100612796565b905060006128108484612726565b825250602061282184848301612726565b602083015250604061283584828501612726565b6040830152506060612849848285016127ac565b606083015250608061285d848285016127b7565b60808301525060a0612871848285016127c2565b60a08301525060c0612885848285016127d6565b60c08301525060e0612899848285016127d6565b60e08301525092915050565b600061010082840312156128bb576128bb6100f3565b60006121fa84846127e1565b604081016128d58285612602565b6121396020830184612602565b6000602082840312156128f7576128f76100f3565b60006121fa84846127ac565b60a0810161291182886125f9565b61291e60208301876125a7565b61292b60408301866125a7565b6129386060830185612553565b6129456080830184612553565b9695505050505050565b6080810161295d8287612553565b61296a60208301866125a7565b6129776040830185612553565b61298460608301846125f9565b95945050505050565b6040810161299b82856125a7565b61213960208301846125a7565b606081016129b682866125f9565b6129c360208301856125a7565b6121fa6040830184612553565b604081016128d58285612553565b60a081016129ec8288612553565b6129f960208301876125a7565b612a066040830186612553565b612a1360608301856125f9565b6129456080830184612602565b600060208284031215612a3557612a356100f3565b60006121fa84846127d6565b60608101612a4f8286612553565b612a5c60208301856125a7565b6121fa60408301846125a7565b60408101612a778285612553565b6121396020830184612553565b602081016122c882846125f9565b60608101612aa08286612602565b612aad6020830185612602565b6121fa6040830184612602565b60408101612a7782856125a7565b6000612ad56000836123ab565b9150612ae082611228565b5090565b60a08101612af282876125a7565b612aff6020830186612390565b612b0c6040830185612553565b612b196060830184612553565b818103608083015261294581612ac8565b60006107f8612370612370846122a6565b61233f81612b2a565b60a08101612b528288612553565b612b5f60208301876125a7565b612a066040830186612b3b565b60608101612b7a82866125a7565b6129c36020830185612390565b60a081016129ec8288612b3b565b6000612ad56000836107fb565b60006122c882612b95565b60408101612bbb82856125a7565b818103602083015261213681846123ea565b7f60616d6f756e7460206d757374206265203120666f72204552433732310000009052565b6000612bff601d836123ab565b915061270f82612bcd565b602080825281016107f881612bf2565b60c08101612c288289612553565b612c356020830188612553565b612c4260408301876125a7565b612c4f6060830186612553565b612c5c60808301856125f9565b612c6960a0830184612602565b979650505050505050565b606081016129b682866125a7565b7f5361666545524332303a204552433230206f7065726174696f6e20646964206e8152691bdd081cdd58d8d9595960b21b602090910152565b6000612cc8602a836123ab565b9150612cd382612c82565b5060400190565b602080825281016107f881612cbb565b7f416464726573733a20696e73756666696369656e742062616c616e636520666f8152651c8818d85b1b60d21b602090910152565b6000612d2c6026836123ab565b9150612cd382612cea565b602080825281016107f881612d1f565b7f416464726573733a2063616c6c20746f206e6f6e2d636f6e74726163740000009052565b6000612d79601d836123ab565b915061270f82612d47565b602080825281016107f881612d6c565b6000612d9f826123a7565b612da981856107fb565b9350612db98185602086016123b4565b9290920192915050565b60006121398284612d9456fe05c1fa752491c1b6f33be6ec2caf1b2034f4679c700dee2a8aabfb0979334c4a5477696c6967687420537061726b6c6520697320746865206375746573742c20736d6172746573742c20616c6c2061726f756e64206265737420706f6e7921a2646970667358221220edb89cca0569dd66770b2c78f3f223579f9202eda579c89c26ca087a55b0338864736f6c634300080a0033608060405234801561001057600080fd5b5061002161001c610026565b61002a565b6100ab565b3390565b600061003461009c565b600080546001600160a01b0319166001600160a01b038516179055905061005961009c565b6001600160a01b0316816001600160a01b03167f8be0079c531659141344cd1fd0a4f28419497f9722a3daafe3b4186f6b6457e060405160405180910390a35050565b6000546001600160a01b031690565b611521806100ba6000396000f3fe6080604052600436106100915760003560e01c806364e719241161005957806364e71924146101505780638da5cb5b14610158578063a49b4f681461017a578063ce88b1451461019a578063d1a01520146101c757610091565b806301ffc9a71461009657806319511a7a146100cc5780631c3eeaac146100ee5780632009c7f514610110578063240fc65e14610130575b600080fd5b3480156100a257600080fd5b506100b66100b1366004610e34565b6101e7565b6040516100c39190610e69565b60405180910390f35b3480156100d857600080fd5b506100e161024a565b6040516100c39190610ef6565b3480156100fa57600080fd5b5061010e610109366004610f61565b61026a565b005b34801561011c57600080fd5b5061010e61012b366004610fd2565b61033a565b34801561013c57600080fd5b5061010e61014b36600461100f565b6103b9565b61010e61043b565b34801561016457600080fd5b5061016d6104f1565b6040516100c39190611039565b34801561018657600080fd5b5061010e610195366004611047565b610500565b3480156101a657600080fd5b506101ba6101b536600461100f565b610547565b6040516100c391906111be565b3480156101d357600080fd5b5061010e6101e236600461100f565b610650565b60006001600160e01b03198216635fdaf55360e11b148061021857506001600160e01b03198216630ca88d3d60e11b145b8061023357506001600160e01b031982166301ffc9a760e01b145b806102425750610242826106ce565b90505b919050565b60606040518060600160405280603f81526020016114ad603f9139905090565b6102726106e8565b6001600160a01b03166102836104f1565b6001600160a01b0316146102c5576102996106e8565b6102a16104f1565b60405163fbaeeec160e01b81526004016102bc9291906111cd565b60405180910390fd5b60018360038111156102d9576102d96110da565b14156102ee576102e982826106ec565b610335565b6002836003811115610302576103026110da565b1415610311576102e9826107ce565b6003836003811115610325576103256110da565b141561033557610335828261085c565b505050565b6103426106e8565b6001600160a01b03166103536104f1565b6001600160a01b031614610369576102996106e8565b60008281526001602052604090208290610382906108c1565b6103a157806040516357466b6760e01b81526004016102bc91906111e8565b600083815260016020526040902061033590836108ee565b6103c16106e8565b6001600160a01b03166103d26104f1565b6001600160a01b0316146103e8576102996106e8565b60008181526001602052604090208190610401906108c1565b61042057806040516357466b6760e01b81526004016102bc91906111e8565b60008281526001602052604090206104379061091f565b5050565b6104436106e8565b6001600160a01b03166104546104f1565b6001600160a01b03161461046a576102996106e8565b60006104746104f1565b6001600160a01b03164760405161048a90611212565b60006040518083038185875af1925050503d80600081146104c7576040519150601f19603f3d011682016040523d82523d6000602084013e6104cc565b606091505b50509050806104ee576040516310d27f5760e11b815260040160405180910390fd5b50565b6000546001600160a01b031690565b6105086106e8565b6001600160a01b03166105196104f1565b6001600160a01b03161461052f576102996106e8565b61053f6001878787878787610962565b505050505050565b61054f610da3565b60008281526001602052604090208290610568906108c1565b61058757806040516357466b6760e01b81526004016102bc91906111e8565b6000838152600160208181526040928390208351610100810185528154815292810154918301919091526002810154928201929092526003808301546001600160a01b03811660608401529192916080840191600160a01b90910460ff16908111156105f5576105f56110da565b6003811115610606576106066110da565b81526003919091015467ffffffffffffffff600160a81b820416602083015260ff600160e81b8204811615156040840152600160f01b909104161515606090910152915050919050565b6106586106e8565b6001600160a01b03166106696104f1565b6001600160a01b03161461067f576102996106e8565b60008181526001602052604090208190610698906108c1565b6106b757806040516357466b6760e01b81526004016102bc91906111e8565b600082815260016020526040902061043790610ab2565b60006106d982610ac8565b80610242575061024282610aed565b3390565b604051627eeac760e11b81526000906001600160a01b0384169062fdd58e9061071b903090869060040161121d565b602060405180830381865afa158015610738573d6000803e3d6000fd5b505050506040513d601f19601f8201168201806040525081019061075c9190611243565b9050826001600160a01b031663f242432a306107766104f1565b85856040518563ffffffff1660e01b815260040161079794939291906112ab565b600060405180830381600087803b1580156107b157600080fd5b505af11580156107c5573d6000803e3d6000fd5b50505050505050565b6040516370a0823160e01b81526000906001600160a01b038316906370a08231906107fd903090600401611039565b602060405180830381865afa15801561081a573d6000803e3d6000fd5b505050506040513d601f19601f8201168201806040525081019061083e9190611243565b905061043761084b6104f1565b6001600160a01b0384169083610b12565b816001600160a01b03166342842e0e306108746104f1565b846040518463ffffffff1660e01b8152600401610893939291906112fb565b600060405180830381600087803b1580156108ad57600080fd5b505af115801561053f573d6000803e3d6000fd5b60006102428260030160149054906101000a900460ff1660038111156108e9576108e96110da565b610b68565b6003909101805467ffffffffffffffff909216600160a81b0267ffffffffffffffff60a81b19909216919091179055565b600381018054600160f01b69ff00ffffffffffffffff60a81b19909116600160a81b4267ffffffffffffffff160260ff60f01b1916171790556000600190910155565b604051806101000160405280878152602001868152602001848152602001856001600160a01b031681526020018360038111156109a1576109a16110da565b815267ffffffffffffffff83166020808301919091526000604080840182905260609384018290528a82528b83529081902084518155918401516001830155830151600282015590820151600380830180546001600160a01b039093166001600160a01b031984168117825560808601519391926001600160a81b03199092161790600160a01b908490811115610a3a57610a3a6110da565b021790555060a08201516003909101805460c084015160e0909401511515600160f01b0260ff60f01b19941515600160e81b0260ff60e81b1967ffffffffffffffff909516600160a81b029490941668ffffffffffffffffff60a81b1990921691909117929092179290921617905550505050505050565b600301805460ff60e81b1916600160e81b179055565b60006001600160e01b03198216631939c64960e21b1480610242575061024282610bbc565b60006001600160e01b0319821663070fbaab60e21b1480610242575061024282610ac8565b6103358363a9059cbb60e01b8484604051602401610b3192919061121d565b60408051601f198184030181529190526020810180516001600160e01b03166001600160e01b031990931692909217909152610be1565b60006001826003811115610b7e57610b7e6110da565b1480610b9b57506002826003811115610b9957610b996110da565b145b8061024257506003826003811115610bb557610bb56110da565b1492915050565b60006001600160e01b03198216638da5cb5b60e01b1480610242575061024282610c70565b6000610c36826040518060400160405280602081526020017f5361666545524332303a206c6f772d6c6576656c2063616c6c206661696c6564815250856001600160a01b0316610c899092919063ffffffff16565b8051909150156103355780806020019051810190610c549190611337565b6103355760405162461bcd60e51b81526004016102bc906113b0565b6001600160e01b031981166301ffc9a760e01b14919050565b6060610c988484600085610ca2565b90505b9392505050565b606082471015610cc45760405162461bcd60e51b81526004016102bc9061140d565b610ccd85610d64565b610ce95760405162461bcd60e51b81526004016102bc90611461565b600080866001600160a01b03168587604051610d0591906114a0565b60006040518083038185875af1925050503d8060008114610d42576040519150601f19603f3d011682016040523d82523d6000602084013e610d47565b606091505b5091509150610d57828286610d6a565b925050505b949350505050565b3b151590565b60608315610d79575081610c9b565b825115610d895782518084602001fd5b8160405162461bcd60e51b81526004016102bc9190610ef6565b60405180610100016040528060008152602001600081526020016000815260200160006001600160a01b0316815260200160006003811115610de757610de76110da565b81526000602082018190526040820181905260609091015290565b6001600160e01b03191690565b610e1881610e02565b81146104ee57600080fd5b8035610e2e81610e0f565b92915050565b600060208284031215610e4957610e49610091565b6000610d5c8484610e23565b151590565b610e6381610e55565b82525050565b60208101610e2e8284610e5a565b5190565b90815260200190565b60005b83811015610e9f578181015183820152602001610e87565b83811115610eae576000848401525b50505050565b601f01601f191690565b6000610ec982610e77565b610ed38185610e7b565b9350610ee3818560208601610e84565b610eec81610eb4565b9093019392505050565b60208082528101610c9b8184610ebe565b600481106104ee57600080fd5b8035610e2e81610f07565b6001600160a01b031690565b600061024282610f1f565b610e1881610f2b565b8035610e2e81610f36565b90565b610e1881610f4a565b8035610e2e81610f4d565b600080600060608486031215610f7957610f79610091565b6000610f858686610f14565b9350506020610f9686828701610f3f565b9250506040610fa786828701610f56565b9150509250925092565b67ffffffffffffffff1690565b610e1881610fb1565b8035610e2e81610fbe565b60008060408385031215610fe857610fe8610091565b6000610ff48585610f56565b925050602061100585828601610fc7565b9150509250929050565b60006020828403121561102457611024610091565b6000610d5c8484610f56565b610e6381610f2b565b60208101610e2e8284611030565b60008060008060008060c0878903121561106357611063610091565b600061106f8989610f56565b965050602061108089828a01610f56565b955050604061109189828a01610f3f565b94505060606110a289828a01610f56565b93505060806110b389828a01610f14565b92505060a06110c489828a01610fc7565b9150509295509295509295565b610e6381610f4a565b634e487b7160e01b600052602160045260246000fd5b600481106104ee576104ee6110da565b80610245816110f0565b600061024282611100565b610e638161110a565b610e6381610fb1565b805161010083019061113984826110d1565b50602082015161114c60208501826110d1565b50604082015161115f60408501826110d1565b5060608201516111726060850182611030565b5060808201516111856080850182611115565b5060a082015161119860a085018261111e565b5060c08201516111ab60c0850182610e5a565b5060e0820151610eae60e0850182610e5a565b6101008101610e2e8284611127565b604081016111db8285611030565b610c9b6020830184611030565b60208101610e2e82846110d1565b6000611203600083610245565b915061120e826104ee565b5090565b6000610e2e826111f6565b6040810161122b8285611030565b610c9b60208301846110d1565b8051610e2e81610f4d565b60006020828403121561125857611258610091565b6000610d5c8484611238565b600061024261127a61127584610f1f565b610f4a565b610f1f565b600061024282611264565b60006102428261127f565b610e638161128a565b6000611203600083610e7b565b60a081016112b98287611030565b6112c66020830186611295565b6112d360408301856110d1565b6112e060608301846110d1565b81810360808301526112f18161129e565b9695505050505050565b606081016113098286611030565b6113166020830185611295565b610d5c60408301846110d1565b610e1881610e55565b8051610e2e81611323565b60006020828403121561134c5761134c610091565b6000610d5c848461132c565b7f5361666545524332303a204552433230206f7065726174696f6e20646964206e8152691bdd081cdd58d8d9595960b21b602090910152565b600061139e602a83610e7b565b91506113a982611358565b5060400190565b6020808252810161024281611391565b7f416464726573733a20696e73756666696369656e742062616c616e636520666f8152651c8818d85b1b60d21b602090910152565b6000611402602683610e7b565b91506113a9826113c0565b60208082528101610242816113f5565b7f416464726573733a2063616c6c20746f206e6f6e2d636f6e74726163740000009052565b600061144f601d83610e7b565b915061145a8261141d565b5060200190565b6020808252810161024281611442565b600061147c82610e77565b6114868185610245565b9350611496818560208601610e84565b9290920192915050565b6000610c9b828461147156fe5477696c6967687420537061726b6c6520697320746865206375746573742c20736d6172746573742c20616c6c2061726f756e64206265737420706f6e7921a26469706673582212205c93322ae92259ba5a992ca5ceed22c9ca48622e77a44b6e149db9c014ae8ecb64736f6c634300080a003360806040523480156200001157600080fd5b506040516200307838038062003078833981016040819052620000349162000320565b82826200004a6200004462000097565b6200009b565b81516200005f90600190602085019062000120565b5080516200007590600290602084019062000120565b505081516200008d9150600b90602084019062000120565b5050505062000416565b3390565b6000620000a762000111565b600080546001600160a01b0319166001600160a01b0385161790559050620000ce62000111565b6001600160a01b0316816001600160a01b03167f8be0079c531659141344cd1fd0a4f28419497f9722a3daafe3b4186f6b6457e060405160405180910390a35050565b6000546001600160a01b031690565b8280546200012e90620003e5565b90600052602060002090601f0160209004810192826200015257600085556200019d565b82601f106200016d57805160ff19168380011785556200019d565b828001600101855582156200019d579182015b828111156200019d57825182559160200191906001019062000180565b50620001ab929150620001af565b5090565b5b80821115620001ab5760008155600101620001b0565b60405190565b600080fd5b601f01601f191690565b634e487b7160e01b600052604160045260246000fd5b620001fc82620001d1565b81018181106001600160401b03821117156200021c576200021c620001db565b6040525050565b60006200022f620001c6565b90506200023d8282620001f1565b919050565b60006001600160401b038211156200025e576200025e620001db565b6200026982620001d1565b60200192915050565b60005b838110156200028f57818101518382015260200162000275565b838111156200029f576000848401525b50505050565b6000620002bc620002b68462000242565b62000223565b905082815260208101848484011115620002da57620002da620001cc565b620002e784828562000272565b509392505050565b600082601f830112620003065762000306620001cc565b815162000318848260208601620002a5565b949350505050565b6000806000606084860312156200033b576200033b620001cc565b83516001600160401b03811115620003575762000357620001cc565b6200036586828701620002ef565b93505060208401516001600160401b03811115620003875762000387620001cc565b6200039586828701620002ef565b92505060408401516001600160401b03811115620003b757620003b7620001cc565b620003c586828701620002ef565b9150509250925092565b634e487b7160e01b600052602260045260246000fd5b600281046001821680620003fa57607f821691505b60208210811415620004105762000410620003cf565b50919050565b612c5280620004266000396000f3fe6080604052600436106101815760003560e01c80634f6ccce7116100d15780638da5cb5b1161008a578063b88d4fde11610064578063b88d4fde1461042b578063c87b56dd1461044b578063d1a015201461046b578063e985e9c51461048b57610181565b80638da5cb5b146103e157806395d89b41146103f6578063a22cb4651461040b57610181565b80634f6ccce714610339578063550e9855146103595780636352211e1461037957806364e719241461039957806370a08231146103a15780638553c3e9146103c157610181565b80631c3eeaac1161013e57806342842e0e1161011857806342842e0e146102c457806342966c68146102e457806345383099146103045780634a3b889a1461031957610181565b80631c3eeaac1461026457806323b872dd146102845780632f745c59146102a457610181565b806301ffc9a71461018657806306fdde03146101bc578063081812fc146101de578063095ea7b31461020b57806318160ddd1461022d57806319511a7a1461024f575b600080fd5b34801561019257600080fd5b506101a66101a1366004611c75565b6104ab565b6040516101b39190611caa565b60405180910390f35b3480156101c857600080fd5b506101d1610538565b6040516101b39190611d33565b3480156101ea57600080fd5b506101fe6101f9366004611d5b565b6105ca565b6040516101b39190611d9c565b34801561021757600080fd5b5061022b610226366004611dbe565b610616565b005b34801561023957600080fd5b506102426106ae565b6040516101b39190611e04565b34801561025b57600080fd5b506101d16106b4565b34801561027057600080fd5b5061022b61027f366004611e2a565b6106d4565b34801561029057600080fd5b5061022b61029f366004611e7a565b610796565b3480156102b057600080fd5b506102426102bf366004611dbe565b6107ce565b3480156102d057600080fd5b5061022b6102df366004611e7a565b610823565b3480156102f057600080fd5b5061022b6102ff366004611d5b565b61083e565b34801561031057600080fd5b50610242610874565b34801561032557600080fd5b5061022b610334366004611ef0565b6108be565b34801561034557600080fd5b50610242610354366004611d5b565b610981565b34801561036557600080fd5b5061022b610374366004611dbe565b6109ce565b34801561038557600080fd5b506101fe610394366004611d5b565b610a0b565b61022b610a40565b3480156103ad57600080fd5b506102426103bc366004611f38565b610af3565b3480156103cd57600080fd5b506101a66103dc366004611d5b565b610b37565b3480156103ed57600080fd5b506101fe610b71565b34801561040257600080fd5b506101d1610b80565b34801561041757600080fd5b5061022b610426366004611f6d565b610b8f565b34801561043757600080fd5b5061022b610446366004612097565b610c5d565b34801561045757600080fd5b506101d1610466366004611d5b565b610c96565b34801561047757600080fd5b5061022b610486366004611d5b565b610cc7565b34801561049757600080fd5b506101a66104a6366004612116565b610cf6565b60006001600160e01b03198216634c689af760e01b14806104dc57506001600160e01b03198216630ca88d3d60e11b145b806104f757506001600160e01b031982166301ffc9a760e01b145b8061051257506001600160e01b03198216635b5e139f60e01b145b80610521575061052182610d24565b80610530575061053082610d49565b90505b919050565b6060600180546105479061215f565b80601f01602080910402602001604051908101604052809291908181526020018280546105739061215f565b80156105c05780601f10610595576101008083540402835291602001916105c0565b820191906000526020600020905b8154815290600101906020018083116105a357829003601f168201915b5050505050905090565b60006105d582610d63565b6105fa5760405162461bcd60e51b81526004016105f1906121e6565b60405180910390fd5b506000908152600560205260409020546001600160a01b031690565b600061062182610a0b565b9050806001600160a01b0316836001600160a01b031614156106555760405162461bcd60e51b81526004016105f19061223e565b806001600160a01b0316610667610d80565b6001600160a01b031614806106835750610683816104a6610d80565b61069f5760405162461bcd60e51b81526004016105f1906122b2565b6106a98383610d84565b505050565b60095490565b60606040518060600160405280603f8152602001612bde603f9139905090565b6106dc610d80565b6001600160a01b03166106ed610b71565b6001600160a01b03161461072657610703610d80565b61070b610b71565b60405163fbaeeec160e01b81526004016105f19291906122c2565b600183600381111561073a5761073a6122dd565b141561074f5761074a8282610df2565b6106a9565b6002836003811115610763576107636122dd565b14156107725761074a82610ed4565b6003836003811115610786576107866122dd565b14156106a9576106a98282610f62565b6107a76107a1610d80565b82610fcf565b6107c35760405162461bcd60e51b81526004016105f19061234b565b6106a9838383611054565b60006107d983610af3565b82106107f75760405162461bcd60e51b81526004016105f1906123ad565b506001600160a01b03821660009081526007602090815260408083208484529091529020545b92915050565b6106a983838360405180602001604052806000815250610c5d565b6108496107a1610d80565b6108685780604051633addfae160e21b81526004016105f19190611e04565b61087181611181565b50565b600061087e610d80565b6001600160a01b031661088f610b71565b6001600160a01b0316146108a557610703610d80565b600c80549060006108b5836123d3565b91905055905090565b60006108c8610b71565b6001600160a01b0316638da5cb5b6040518163ffffffff1660e01b8152600401602060405180830381865afa158015610905573d6000803e3d6000fd5b505050506040513d601f19601f820116820180604052508101906109299190612404565b9050610933610d80565b6001600160a01b0316816001600160a01b03161461096f57610953610d80565b816040516334823d2360e21b81526004016105f19291906122c2565b61097b600b8484611baa565b50505050565b600061098b6106ae565b82106109a95760405162461bcd60e51b81526004016105f190612478565b600982815481106109bc576109bc612488565b90600052602060002001549050919050565b6109d6610d80565b6001600160a01b03166109e7610b71565b6001600160a01b0316146109fd57610703610d80565b610a0782826111ef565b5050565b6000818152600360205260408120546001600160a01b0316806105305760405162461bcd60e51b81526004016105f1906124ee565b610a48610d80565b6001600160a01b0316610a59610b71565b6001600160a01b031614610a6f57610703610d80565b6000610a79610b71565b6001600160a01b031647604051610a8f90612516565b60006040518083038185875af1925050503d8060008114610acc576040519150601f19603f3d011682016040523d82523d6000602084013e610ad1565b606091505b5050905080610871576040516310d27f5760e11b815260040160405180910390fd5b60006001600160a01b038216610b1b5760405162461bcd60e51b81526004016105f190612572565b506001600160a01b031660009081526004602052604090205490565b6000610b41610d80565b6001600160a01b0316610b52610b71565b6001600160a01b031614610b6857610703610d80565b61053082610d63565b6000546001600160a01b031690565b6060600280546105479061215f565b610b97610d80565b6001600160a01b0316826001600160a01b03161415610bc85760405162461bcd60e51b81526004016105f1906125c6565b8060066000610bd5610d80565b6001600160a01b03908116825260208083019390935260409182016000908120918716808252919093529120805460ff191692151592909217909155610c19610d80565b6001600160a01b03167f17307eab39ab6107e8899845ad3d59bd9653f200f220920489ca2b5937696c3183604051610c519190611caa565b60405180910390a35050565b610c6e610c68610d80565b83610fcf565b610c8a5760405162461bcd60e51b81526004016105f19061234b565b61097b84848484611209565b6060610530610ca48361123c565b60405180604001604052806005815260200164173539b7b760d91b81525061133b565b610ccf610d80565b6001600160a01b0316610ce0610b71565b6001600160a01b03161461086857610703610d80565b6001600160a01b03918216600090815260066020908152604080832093909416825291909152205460ff1690565b60006001600160e01b0319821663780e9d6360e01b1480610530575061053082611370565b6000610d54826113af565b806105305750610530826113d4565b6000908152600360205260409020546001600160a01b0316151590565b3390565b600081815260056020526040902080546001600160a01b0319166001600160a01b0384169081179091558190610db982610a0b565b6001600160a01b03167f8c5be1e5ebec7d5bd14f71427d1e84f3dd0314c0f7b2291e5b200ac8c7c3b92560405160405180910390a45050565b604051627eeac760e11b81526000906001600160a01b0384169062fdd58e90610e2190309086906004016125d6565b602060405180830381865afa158015610e3e573d6000803e3d6000fd5b505050506040513d601f19601f82011682018060405250810190610e6291906125fc565b9050826001600160a01b031663f242432a30610e7c610b71565b85856040518563ffffffff1660e01b8152600401610e9d9493929190612664565b600060405180830381600087803b158015610eb757600080fd5b505af1158015610ecb573d6000803e3d6000fd5b50505050505050565b6040516370a0823160e01b81526000906001600160a01b038316906370a0823190610f03903090600401611d9c565b602060405180830381865afa158015610f20573d6000803e3d6000fd5b505050506040513d601f19601f82011682018060405250810190610f4491906125fc565b9050610a07610f51610b71565b6001600160a01b03841690836113f9565b816001600160a01b03166342842e0e30610f7a610b71565b846040518463ffffffff1660e01b8152600401610f99939291906126b4565b600060405180830381600087803b158015610fb357600080fd5b505af1158015610fc7573d6000803e3d6000fd5b505050505050565b6000610fda82610d63565b610ff65760405162461bcd60e51b81526004016105f19061272f565b600061100183610a0b565b9050806001600160a01b0316846001600160a01b0316148061103c5750836001600160a01b0316611031846105ca565b6001600160a01b0316145b8061104c575061104c8185610cf6565b949350505050565b826001600160a01b031661106782610a0b565b6001600160a01b03161461108d5760405162461bcd60e51b81526004016105f19061278f565b6001600160a01b0382166110b35760405162461bcd60e51b81526004016105f1906127ea565b6110be83838361144f565b6110c9600082610d84565b6001600160a01b03831660009081526004602052604081208054600192906110f29084906127fa565b90915550506001600160a01b0382166000908152600460205260408120805460019290611120908490612827565b909155505060008181526003602052604080822080546001600160a01b0319166001600160a01b0386811691821790925591518493918716917fddf252ad1be2c89b69c2b068fc378daa952ba7f163c4a11628f55a4df523b3ef91a4505050565b611189610b71565b6001600160a01b031663d1a01520826040518263ffffffff1660e01b81526004016111b49190611e04565b600060405180830381600087803b1580156111ce57600080fd5b505af11580156111e2573d6000803e3d6000fd5b50505050610871816114d3565b610a0782826040518060200160405280600081525061157a565b611214848484611054565b611220848484846115ad565b61097b5760405162461bcd60e51b81526004016105f1906128ae565b60608161126157506040805180820190915260018152600360fc1b6020820152610533565b8160005b811561128b5780611275816123d3565b91506112849050600a836128d4565b9150611265565b60008167ffffffffffffffff8111156112a6576112a6611fa0565b6040519080825280601f01601f1916602001820160405280156112d0576020820181803683370190505b5090505b841561104c576112e56001836127fa565b91506112f2600a866128fe565b6112fd906030612827565b60f81b81838151811061131257611312612488565b60200101906001600160f81b031916908160001a905350611334600a866128d4565b94506112d4565b60606113456116b9565b838360405160200161135993929190612957565b604051602081830303815290604052905092915050565b60006001600160e01b031982166380ac58cd60e01b148061052157506001600160e01b03198216635b5e139f60e01b1480610530575061053082610d49565b60006001600160e01b03198216631939c64960e21b14806105305750610530826116c8565b60006001600160e01b0319821663070fbaab60e21b14806105305750610530826113af565b6106a98363a9059cbb60e01b84846040516024016114189291906125d6565b60408051601f198184030181529190526020810180516001600160e01b03166001600160e01b0319909316929092179091526116ed565b61145a8383836106a9565b6001600160a01b038316611476576114718161177c565b611499565b816001600160a01b0316836001600160a01b0316146114995761149983826117c0565b6001600160a01b0382166114b05761074a8161185d565b826001600160a01b0316826001600160a01b0316146106a9576106a9828261190c565b60006114de82610a0b565b90506114ec8160008461144f565b6114f7600083610d84565b6001600160a01b03811660009081526004602052604081208054600192906115209084906127fa565b909155505060008281526003602052604080822080546001600160a01b0319169055518391906001600160a01b038416907fddf252ad1be2c89b69c2b068fc378daa952ba7f163c4a11628f55a4df523b3ef908390a45050565b6115848383611950565b61159160008484846115ad565b6106a95760405162461bcd60e51b81526004016105f1906128ae565b60006115c1846001600160a01b031661199a565b156116ae57836001600160a01b031663150b7a026115dd610d80565b8786866040518563ffffffff1660e01b81526004016115ff9493929190612984565b6020604051808303816000875af192505050801561163a575060408051601f3d908101601f19168201909252611637918101906129c9565b60015b611694573d808015611668576040519150601f19603f3d011682016040523d82523d6000602084013e61166d565b606091505b50805161168c5760405162461bcd60e51b81526004016105f1906128ae565b805181602001fd5b6001600160e01b031916630a85bd0160e11b14905061104c565b506001949350505050565b6060600b80546105479061215f565b60006001600160e01b03198216638da5cb5b60e01b14806105305750610530826119a0565b6000611742826040518060400160405280602081526020017f5361666545524332303a206c6f772d6c6576656c2063616c6c206661696c6564815250856001600160a01b03166119b99092919063ffffffff16565b8051909150156106a9578080602001905181019061176091906129f5565b6106a95760405162461bcd60e51b81526004016105f190612a67565b600980546000838152600a60205260408120829055600182018355919091527f6e1540171b6c0c960b71a7020d9f60077f6af931a8bbf590da0223dacf75c7af0155565b600060016117cd84610af3565b6117d791906127fa565b60008381526008602052604090205490915080821461182a576001600160a01b03841660009081526007602090815260408083208584528252808320548484528184208190558352600890915290208190555b5060009182526008602090815260408084208490556001600160a01b039094168352600781528383209183525290812055565b60095460009061186f906001906127fa565b6000838152600a60205260408120546009805493945090928490811061189757611897612488565b9060005260206000200154905080600983815481106118b8576118b8612488565b6000918252602080832090910192909255828152600a909152604080822084905585825281205560098054806118f0576118f0612a77565b6001900381819060005260206000200160009055905550505050565b600061191783610af3565b6001600160a01b039093166000908152600760209081526040808320868452825280832085905593825260089052919091209190915550565b807f6bb7ff708619ba0610cba295a58592e0451dee2622938c8755667688daf3529b61197b83610c96565b6040516119889190611d33565b60405180910390a2610a0782826119d2565b3b151590565b6001600160e01b031981166301ffc9a760e01b14919050565b60606119c88484600085611ab1565b90505b9392505050565b6001600160a01b0382166119f85760405162461bcd60e51b81526004016105f190612aca565b611a0181610d63565b15611a1e5760405162461bcd60e51b81526004016105f190612b17565b611a2a6000838361144f565b6001600160a01b0382166000908152600460205260408120805460019290611a53908490612827565b909155505060008181526003602052604080822080546001600160a01b0319166001600160a01b03861690811790915590518392907fddf252ad1be2c89b69c2b068fc378daa952ba7f163c4a11628f55a4df523b3ef908290a45050565b606082471015611ad35760405162461bcd60e51b81526004016105f190612b74565b611adc8561199a565b611af85760405162461bcd60e51b81526004016105f190612bc1565b600080866001600160a01b03168587604051611b149190612bd1565b60006040518083038185875af1925050503d8060008114611b51576040519150601f19603f3d011682016040523d82523d6000602084013e611b56565b606091505b5091509150611b66828286611b71565b979650505050505050565b60608315611b805750816119cb565b825115611b905782518084602001fd5b8160405162461bcd60e51b81526004016105f19190611d33565b828054611bb69061215f565b90600052602060002090601f016020900481019282611bd85760008555611c1e565b82601f10611bf15782800160ff19823516178555611c1e565b82800160010185558215611c1e579182015b82811115611c1e578235825591602001919060010190611c03565b50611c2a929150611c2e565b5090565b5b80821115611c2a5760008155600101611c2f565b60405190565b6001600160e01b03191690565b611c5f81611c49565b811461087157600080fd5b803561081d81611c56565b600060208284031215611c8a57611c8a610181565b600061104c8484611c6a565b151590565b611ca481611c96565b82525050565b6020810161081d8284611c9b565b5190565b90815260200190565b60005b83811015611ce0578181015183820152602001611cc8565b8381111561097b5750506000910152565b601f01601f191690565b6000611d0682611cb8565b611d108185611cbc565b9350611d20818560208601611cc5565b611d2981611cf1565b9093019392505050565b602080825281016119cb8184611cfb565b90565b611c5f81611d44565b803561081d81611d47565b600060208284031215611d7057611d70610181565b600061104c8484611d50565b6001600160a01b031690565b600061053082611d7c565b611ca481611d88565b6020810161081d8284611d93565b611c5f81611d88565b803561081d81611daa565b60008060408385031215611dd457611dd4610181565b6000611de08585611db3565b9250506020611df185828601611d50565b9150509250929050565b611ca481611d44565b6020810161081d8284611dfb565b6004811061087157600080fd5b803561081d81611e12565b600080600060608486031215611e4257611e42610181565b6000611e4e8686611e1f565b9350506020611e5f86828701611db3565b9250506040611e7086828701611d50565b9150509250925092565b600080600060608486031215611e9257611e92610181565b6000611e4e8686611db3565b60008083601f840112611eb357611eb3610181565b50813567ffffffffffffffff811115611ece57611ece610181565b602083019150836001820283011115611ee957611ee9610181565b9250929050565b60008060208385031215611f0657611f06610181565b823567ffffffffffffffff811115611f2057611f20610181565b611f2c85828601611e9e565b92509250509250929050565b600060208284031215611f4d57611f4d610181565b600061104c8484611db3565b611c5f81611c96565b803561081d81611f59565b60008060408385031215611f8357611f83610181565b6000611f8f8585611db3565b9250506020611df185828601611f62565b634e487b7160e01b600052604160045260246000fd5b611fbf82611cf1565b810181811067ffffffffffffffff82111715611fdd57611fdd611fa0565b6040525050565b6000611fee611c43565b90506105338282611fb6565b600067ffffffffffffffff82111561201457612014611fa0565b61201d82611cf1565b60200192915050565b82818337506000910152565b600061204561204084611ffa565b611fe4565b90508281526020810184848401111561206057612060610181565b61206b848285612026565b509392505050565b600082601f83011261208757612087610181565b813561104c848260208601612032565b600080600080608085870312156120b0576120b0610181565b60006120bc8787611db3565b94505060206120cd87828801611db3565b93505060406120de87828801611d50565b925050606085013567ffffffffffffffff8111156120fe576120fe610181565b61210a87828801612073565b91505092959194509250565b6000806040838503121561212c5761212c610181565b60006121388585611db3565b9250506020611df185828601611db3565b634e487b7160e01b600052602260045260246000fd5b60028104600182168061217357607f821691505b6020821081141561218657612186612149565b50919050565b7f4552433732313a20617070726f76656420717565727920666f72206e6f6e657881526b34b9ba32b73a103a37b5b2b760a11b602090910152565b60006121d4602c83611cbc565b91506121df8261218c565b5060400190565b60208082528101610530816121c7565b7f4552433732313a20617070726f76616c20746f2063757272656e74206f776e658152603960f91b602090910152565b6000612233602183611cbc565b91506121df826121f6565b6020808252810161053081612226565b7f4552433732313a20617070726f76652063616c6c6572206973206e6f74206f7781527f6e6572206e6f7220617070726f76656420666f7220616c6c0000000000000000602090910152565b60006122a7603883611cbc565b91506121df8261224e565b602080825281016105308161229a565b604081016122d08285611d93565b6119cb6020830184611d93565b634e487b7160e01b600052602160045260246000fd5b7f4552433732313a207472616e736665722063616c6c6572206973206e6f74206f8152701ddb995c881b9bdc88185c1c1c9bdd9959607a1b602090910152565b6000612340603183611cbc565b91506121df826122f3565b6020808252810161053081612333565b7f455243373231456e756d657261626c653a206f776e657220696e646578206f7581526a74206f6620626f756e647360a81b602090910152565b60006123a2602b83611cbc565b91506121df8261235b565b6020808252810161053081612395565b634e487b7160e01b600052601160045260246000fd5b60006123de82611d44565b91506000198214156123f2576123f26123bd565b5060010190565b805161081d81611daa565b60006020828403121561241957612419610181565b600061104c84846123f9565b7f455243373231456e756d657261626c653a20676c6f62616c20696e646578206f81526b7574206f6620626f756e647360a01b602090910152565b600061246d602c83611cbc565b91506121df82612425565b6020808252810161053081612460565b634e487b7160e01b600052603260045260246000fd5b7f4552433732313a206f776e657220717565727920666f72206e6f6e657869737481526832b73a103a37b5b2b760b91b602090910152565b60006124e3602983611cbc565b91506121df8261249e565b60208082528101610530816124d6565b600061250b600083610533565b9150611c2a82610871565b600061081d826124fe565b7f4552433732313a2062616c616e636520717565727920666f7220746865207a65815269726f206164647265737360b01b602090910152565b6000612567602a83611cbc565b91506121df82612521565b602080825281016105308161255a565b7f4552433732313a20617070726f766520746f2063616c6c6572000000000000009052565b60006125b4601983611cbc565b91506125bf82612582565b5060200190565b60208082528101610530816125a7565b604081016125e48285611d93565b6119cb6020830184611dfb565b805161081d81611d47565b60006020828403121561261157612611610181565b600061104c84846125f1565b600061053061263361262e84611d7c565b611d44565b611d7c565b60006105308261261d565b600061053082612638565b611ca481612643565b600061250b600083611cbc565b60a081016126728287611d93565b61267f602083018661264e565b61268c6040830185611dfb565b6126996060830184611dfb565b81810360808301526126aa81612657565b9695505050505050565b606081016126c28286611d93565b6126cf602083018561264e565b61104c6040830184611dfb565b7f4552433732313a206f70657261746f7220717565727920666f72206e6f6e657881526b34b9ba32b73a103a37b5b2b760a11b602090910152565b6000612724602c83611cbc565b91506121df826126dc565b6020808252810161053081612717565b7f4552433732313a207472616e73666572206f6620746f6b656e2074686174206981526839903737ba1037bbb760b91b602090910152565b6000612784602983611cbc565b91506121df8261273f565b6020808252810161053081612777565b7f4552433732313a207472616e7366657220746f20746865207a65726f206164648152637265737360e01b602090910152565b60006127df602483611cbc565b91506121df8261279f565b60208082528101610530816127d2565b600061280582611d44565b915061281083611d44565b925082821015612822576128226123bd565b500390565b600061283282611d44565b915061283d83611d44565b92508219821115612850576128506123bd565b500190565b7f4552433732313a207472616e7366657220746f206e6f6e20455243373231526581527131b2b4bb32b91034b6b83632b6b2b73a32b960711b602090910152565b60006128a3603283611cbc565b91506121df82612855565b6020808252810161053081612896565b634e487b7160e01b600052601260045260246000fd5b60006128df82611d44565b91506128ea83611d44565b9250826128f9576128f96128be565b500490565b600061290982611d44565b915061291483611d44565b925082612923576129236128be565b500690565b600061293382611cb8565b61293d8185610533565b935061294d818560208601611cc5565b9290920192915050565b60006129638286612928565b915061296f8285612928565b915061297b8284612928565b95945050505050565b608081016129928287611d93565b61299f6020830186611d93565b6129ac6040830185611dfb565b81810360608301526126aa8184611cfb565b805161081d81611c56565b6000602082840312156129de576129de610181565b600061104c84846129be565b805161081d81611f59565b600060208284031215612a0a57612a0a610181565b600061104c84846129ea565b7f5361666545524332303a204552433230206f7065726174696f6e20646964206e8152691bdd081cdd58d8d9595960b21b602090910152565b6000612a5c602a83611cbc565b91506121df82612a16565b6020808252810161053081612a4f565b634e487b7160e01b600052603160045260246000fd5b7f4552433732313a206d696e7420746f20746865207a65726f20616464726573739052565b6000612abf602083611cbc565b91506125bf82612a8d565b6020808252810161053081612ab2565b7f4552433732313a20746f6b656e20616c7265616479206d696e746564000000009052565b6000612b0c601c83611cbc565b91506125bf82612ada565b6020808252810161053081612aff565b7f416464726573733a20696e73756666696369656e742062616c616e636520666f8152651c8818d85b1b60d21b602090910152565b6000612b69602683611cbc565b91506121df82612b27565b6020808252810161053081612b5c565b7f416464726573733a2063616c6c20746f206e6f6e2d636f6e74726163740000009052565b6000612bb6601d83611cbc565b91506125bf82612b84565b6020808252810161053081612ba9565b60006119cb828461292856fe5477696c6967687420537061726b6c6520697320746865206375746573742c20736d6172746573742c20616c6c2061726f756e64206265737420706f6e7921a2646970667358221220a8c8923dded9a3891e941fe21637071ba82301ea167cc7aa1d6d3c5b59d4709364736f6c634300080a0033608060405234801561001057600080fd5b5061002161001c610026565b61002a565b6100ab565b3390565b600061003461009c565b600080546001600160a01b0319166001600160a01b038516179055905061005961009c565b6001600160a01b0316816001600160a01b03167f8be0079c531659141344cd1fd0a4f28419497f9722a3daafe3b4186f6b6457e060405160405180910390a35050565b6000546001600160a01b031690565b610fd3806100ba6000396000f3fe60806040526004361061007b5760003560e01c80638da5cb5b1161004e5780638da5cb5b1461010f578063a6e943ff14610131578063bc197c8114610151578063f23a6e61146101715761007b565b806301ffc9a714610080578063150b7a02146100b657806319511a7a146100e357806364e7192414610105575b600080fd5b34801561008c57600080fd5b506100a061009b366004610798565b610191565b6040516100ad91906107cd565b60405180910390f35b3480156100c257600080fd5b506100d66100d136600461091e565b610203565b6040516100ad91906109a6565b3480156100ef57600080fd5b506100f8610214565b6040516100ad9190610a29565b61010d610234565b005b34801561011b57600080fd5b50610124610316565b6040516100ad9190610a43565b34801561013d57600080fd5b5061010d61014c366004610a69565b610325565b34801561015d57600080fd5b506100d661016c366004610b84565b6103d0565b34801561017d57600080fd5b506100d661018c366004610c40565b6103e1565b60006001600160e01b03198216630a85bd0160e11b14806101c257506001600160e01b03198216630ca88d3d60e11b145b806101dd57506001600160e01b03198216636518d08360e01b145b806101ec57506101ec826103f2565b806101fb57506101fb82610417565b90505b919050565b630a85bd0160e11b5b949350505050565b60606040518060600160405280603f8152602001610f5f603f9139905090565b61023c61043c565b6001600160a01b031661024d610316565b6001600160a01b03161461028f5761026361043c565b61026b610316565b60405163fbaeeec160e01b8152600401610286929190610c9a565b60405180910390fd5b6000610299610316565b6001600160a01b0316476040516102af90610cd1565b60006040518083038185875af1925050503d80600081146102ec576040519150601f19603f3d011682016040523d82523d6000602084013e6102f1565b606091505b5050905080610313576040516310d27f5760e11b815260040160405180910390fd5b50565b6000546001600160a01b031690565b61032d61043c565b6001600160a01b031661033e610316565b6001600160a01b0316146103545761026361043c565b600185600381111561036857610368610cdc565b141561037f5761037a84848484610440565b6103c9565b600285600381111561039357610393610cdc565b14156103a45761037a8484836104aa565b60038560038111156103b8576103b8610cdc565b14156103c9576103c98484846104c3565b5050505050565b63bc197c8160e01b95945050505050565b63f23a6e6160e01b95945050505050565b60006001600160e01b03198216630271189760e51b14806101fb57506101fb8261052a565b60006001600160e01b03198216631939c64960e21b14806101fb57506101fb82610543565b3390565b604051637921219560e11b81526001600160a01b0385169063f242432a90610472903090879087908790600401610d42565b600060405180830381600087803b15801561048c57600080fd5b505af11580156104a0573d6000803e3d6000fd5b5050505050505050565b6104be6001600160a01b0384168383610568565b505050565b604051632142170760e11b81526001600160a01b038416906342842e0e906104f390309086908690600401610d92565b600060405180830381600087803b15801561050d57600080fd5b505af1158015610521573d6000803e3d6000fd5b50505050505050565b6001600160e01b031981166301ffc9a760e01b14919050565b60006001600160e01b03198216638da5cb5b60e01b14806101fb57506101fb826103f2565b6104be8363a9059cbb60e01b8484604051602401610587929190610dba565b60408051601f198184030181529190526020810180516001600160e01b03166001600160e01b031990931692909217909152600061060e826040518060400160405280602081526020017f5361666545524332303a206c6f772d6c6576656c2063616c6c206661696c6564815250856001600160a01b03166106489092919063ffffffff16565b8051909150156104be578080602001905181019061062c9190610de9565b6104be5760405162461bcd60e51b815260040161028690610e62565b60606106578484600085610661565b90505b9392505050565b6060824710156106835760405162461bcd60e51b815260040161028690610ebf565b61068c85610721565b6106a85760405162461bcd60e51b815260040161028690610f13565b600080866001600160a01b031685876040516106c49190610f52565b60006040518083038185875af1925050503d8060008114610701576040519150601f19603f3d011682016040523d82523d6000602084013e610706565b606091505b5091509150610716828286610727565b979650505050505050565b3b151590565b6060831561073657508161065a565b8251156107465782518084602001fd5b8160405162461bcd60e51b81526004016102869190610a29565b60405190565b6001600160e01b03191690565b61077c81610766565b811461031357600080fd5b803561079281610773565b92915050565b6000602082840312156107ad576107ad61007b565b600061020c8484610787565b151590565b6107c7816107b9565b82525050565b6020810161079282846107be565b6001600160a01b031690565b60006101fb826107db565b61077c816107e7565b8035610792816107f2565b90565b61077c81610806565b803561079281610809565b601f01601f191690565b634e487b7160e01b600052604160045260246000fd5b6108468261081d565b810181811067ffffffffffffffff8211171561086457610864610827565b6040525050565b6000610875610760565b90506101fe828261083d565b600067ffffffffffffffff82111561089b5761089b610827565b6108a48261081d565b60200192915050565b82818337506000910152565b60006108cc6108c784610881565b61086b565b9050828152602081018484840111156108e7576108e761007b565b6108f28482856108ad565b509392505050565b600082601f83011261090e5761090e61007b565b813561020c8482602086016108b9565b600080600080608085870312156109375761093761007b565b600061094387876107fb565b9450506020610954878288016107fb565b935050604061096587828801610812565b925050606085013567ffffffffffffffff8111156109855761098561007b565b610991878288016108fa565b91505092959194509250565b6107c781610766565b60208101610792828461099d565b5190565b90815260200190565b60005b838110156109dc5781810151838201526020016109c4565b838111156109eb576000848401525b50505050565b60006109fc826109b4565b610a0681856109b8565b9350610a168185602086016109c1565b610a1f8161081d565b9093019392505050565b6020808252810161065a81846109f1565b6107c7816107e7565b602081016107928284610a3a565b6004811061031357600080fd5b803561079281610a51565b600080600080600060a08688031215610a8457610a8461007b565b6000610a908888610a5e565b9550506020610aa1888289016107fb565b9450506040610ab2888289016107fb565b9350506060610ac388828901610812565b9250506080610ad488828901610812565b9150509295509295909350565b600067ffffffffffffffff821115610afb57610afb610827565b5060209081020190565b6000610b136108c784610ae1565b83815290506020808201908402830185811115610b3257610b3261007b565b835b81811015610b565780610b478882610812565b84525060209283019201610b34565b5050509392505050565b600082601f830112610b7457610b7461007b565b813561020c848260208601610b05565b600080600080600060a08688031215610b9f57610b9f61007b565b6000610bab88886107fb565b9550506020610bbc888289016107fb565b945050604086013567ffffffffffffffff811115610bdc57610bdc61007b565b610be888828901610b60565b935050606086013567ffffffffffffffff811115610c0857610c0861007b565b610c1488828901610b60565b925050608086013567ffffffffffffffff811115610c3457610c3461007b565b610ad4888289016108fa565b600080600080600060a08688031215610c5b57610c5b61007b565b6000610c6788886107fb565b9550506020610c78888289016107fb565b9450506040610c8988828901610812565b9350506060610c1488828901610812565b60408101610ca88285610a3a565b61065a6020830184610a3a565b6000610cc26000836101fe565b9150610ccd82610313565b5090565b600061079282610cb5565b634e487b7160e01b600052602160045260246000fd5b60006101fb610d08610d03846107db565b610806565b6107db565b60006101fb82610cf2565b60006101fb82610d0d565b6107c781610d18565b6107c781610806565b6000610cc26000836109b8565b60a08101610d508287610a3a565b610d5d6020830186610d23565b610d6a6040830185610d2c565b610d776060830184610d2c565b8181036080830152610d8881610d35565b9695505050505050565b60608101610da08286610a3a565b610dad6020830185610d23565b61020c6040830184610d2c565b60408101610dc88285610a3a565b61065a6020830184610d2c565b61077c816107b9565b805161079281610dd5565b600060208284031215610dfe57610dfe61007b565b600061020c8484610dde565b7f5361666545524332303a204552433230206f7065726174696f6e20646964206e8152691bdd081cdd58d8d9595960b21b602090910152565b6000610e50602a836109b8565b9150610e5b82610e0a565b5060400190565b602080825281016101fb81610e43565b7f416464726573733a20696e73756666696369656e742062616c616e636520666f8152651c8818d85b1b60d21b602090910152565b6000610eb46026836109b8565b9150610e5b82610e72565b602080825281016101fb81610ea7565b7f416464726573733a2063616c6c20746f206e6f6e2d636f6e74726163740000009052565b6000610f01601d836109b8565b9150610f0c82610ecf565b5060200190565b602080825281016101fb81610ef4565b6000610f2e826109b4565b610f3881856101fe565b9350610f488185602086016109c1565b9290920192915050565b600061065a8284610f2356fe5477696c6967687420537061726b6c6520697320746865206375746573742c20736d6172746573742c20616c6c2061726f756e64206265737420706f6e7921a2646970667358221220ce9ba1183735b167b378586b34b6b9d3981d0534725d372240b5702dc29ed4f264736f6c634300080a0033",
  "devdoc": {
    "author": "Twifag",
    "errors": {
      "InsufficientBalance(uint256,uint256)": [
        {
          "params": {
            "available": "balance",
            "required": "balance"
          }
        }
      ],
      "InvalidAmount(string)": [
        {
          "params": {
            "reason": "amount is invalid"
          }
        }
      ],
      "InvalidTokenType(uint8)": [
        {
          "params": {
            "tokenType": "of the token to check"
          }
        }
      ],
      "LockedAccount(uint64,uint64)": [
        {
          "params": {
            "currentTime": "(in seconds since UNIX epoch)",
            "expiresAt": "time when the lock expires (in seconds since UNIX epoch)"
          }
        }
      ],
      "NeedsMoreMARE(address)": [
        {
          "params": {
            "wallet": "the address with no $MARE"
          }
        }
      ],
      "NonexistentAccount(uint256)": [
        {
          "params": {
            "accountId": "of the account that does not exists"
          }
        }
      ],
      "NotTokenOwner(uint256,address,address)": [
        {
          "params": {
            "actualOwner": "of the token",
            "claimedOwner": "of the token",
            "tokenId": "for the token that is attempting to be transferred"
          }
        }
      ],
      "TimeOutOfBounds(uint64,uint64,uint64)": [
        {
          "params": {
            "given": "time (in seconds since UNIX epoch)",
            "maximum": "time bound (in seconds since UNIX epoch)",
            "minimum": "time bound (in seconds since UNIX epoch)"
          }
        }
      ],
      "UnapprovedTokenTransfer(address,string)": [
        {
          "params": {
            "approvalFunction": "that needs to be called to grant approval",
            "tokenAddress": "that was attempted to be transferred, the function `approvalFunction` should be called on this address"
          }
        }
      ]
    },
    "kind": "dev",
    "methods": {
      "__burn(uint256)": {
        "details": "Only callable by the {Ownable.owner} of this contract",
        "params": {
          "accountId": "representing the account being burned"
        }
      },
      "__recoverEther()": {
        "details": "Only callable by the {Ownable.owner} of this contract"
      },
      "__recoverTokens(uint8,address,uint256)": {
        "details": "Only callable by the {Ownable.owner} of this contract",
        "params": {
          "tokenContract": "address of the token to recover",
          "tokenId": "of the token to recover; should always be 0 for ERC20 tokens",
          "tokenType": "of token to recover; see {Token.Type}"
        }
      },
      "bestPony()": {
        "returns": {
          "_0": "string the absolute best pony (hint: it's Twilight Sparkle) "
        }
      },
      "constructor": {
        "params": {
          "baseURI": "initially set for the {MarebitsLockerToken}",
          "name": "of the {MarebitsLockerToken}",
          "symbol": "of the {MarebitsLockerToken}"
        }
      },
      "extendLock(uint256,uint64)": {
        "details": "Emits a {TokensLocked} event",
        "params": {
          "accountId": "(also `tokenId`) representing the locked account",
          "unlockTime": "after which locked tokens can be withdrawn (in seconds after UNIX epoch, must be greater than existing `unlockTime` value)"
        },
        "returns": {
          "_0": "accountId for the locked tokens"
        }
      },
      "getAccount(uint256)": {
        "params": {
          "accountId": "(also `tokenId`) representing the locked account"
        },
        "returns": {
          "_0": "Account.Info representing `accountId`; see {Account.Info}"
        }
      },
      "lockTokens(uint8,address,uint256,uint256,uint64)": {
        "details": "Emits a {TokensLocked} event",
        "params": {
          "amount": "of tokens to lock in locker",
          "tokenContract": "for the token to be locked",
          "tokenId": "of the token to be locked; should always be 0 for locked ERC20 tokens",
          "tokenType": "of token to be locked; see {Token.Type}",
          "unlockTime": "after which locked tokens can be withdrawn (in seconds after UNIX epoch)"
        },
        "returns": {
          "_0": "accountId for the locked tokens"
        }
      },
      "owner()": {
        "returns": {
          "_0": "The address of the owner."
        }
      },
      "redeemToken(uint256)": {
        "details": "Emits a {TokenRedeemed} event",
        "params": {
          "accountId": "(also `tokenId`) representing the locked account"
        }
      },
      "supportsInterface(bytes4)": {
        "details": "Implementation of the {IERC165} interface."
      },
      "transferOwnership(address)": {
        "details": "Can only be called by the current owner.",
        "params": {
          "newOwner": "address of the new owner"
        }
      }
    },
    "stateVariables": {
      "MAXIMUM_TIME": {
        "details": "the maximum value for time "
      },
      "accounts": {
        "details": "{IMarebitsLockerAccount} associated with this {IMarebitsLocker}"
      },
      "lockerToken": {
        "details": "{IMarebitsLockerToken} associated with this {IMarebitsLocker}"
      },
      "mareBitsToken": {
        "details": "Address of the Mare Bits Token contract "
      },
      "vault": {
        "details": "{IMarebitsVault} associated with this {IMarebitsLocker}"
      }
    },
    "title": "The implementation for the Mare Bits Locker",
    "version": 1
  },
  "userdoc": {
    "errors": {
      "CallerIsNotOwner(address,address)": [
        {
          "notice": "Thrown when called by any account other than the owner."
        }
      ],
      "FailedSend()": [
        {
          "notice": "Thrown when the send fails "
        }
      ],
      "InsufficientBalance(uint256,uint256)": [
        {
          "notice": "Thrown when the required balance is less than the available balance"
        }
      ],
      "InvalidAmount(string)": [
        {
          "notice": "Thrown when an invalid amount is entered"
        }
      ],
      "InvalidCaller()": [
        {
          "notice": "Thrown when called by an invalid caller (such as a contract) "
        }
      ],
      "InvalidTokenType(uint8)": [
        {
          "notice": "Thrown when the given token type `tokenType` is not valid.  Must be 1 for ERC1155, 2 for ERC20, or 3 for ERC721"
        }
      ],
      "LockedAccount(uint64,uint64)": [
        {
          "notice": "Thrown when attempting to redeem a token for an account that is still locked"
        }
      ],
      "NeedsMoreMARE(address)": [
        {
          "notice": "Thrown when someone attempts to interact with this contract who does not hodl $MARE."
        }
      ],
      "NonexistentAccount(uint256)": [
        {
          "notice": "Thrown when the account does not exist"
        }
      ],
      "NotTokenOwner(uint256,address,address)": [
        {
          "notice": "Thrown when attempting to transfer a token the caller does not own"
        }
      ],
      "TimeOutOfBounds(uint64,uint64,uint64)": [
        {
          "notice": "Thrown when a passed time value is out of the stated bounds"
        }
      ],
      "UnapprovedTokenTransfer(address,string)": [
        {
          "notice": "Thrown when the caller has not approved the token transfer"
        }
      ],
      "ZeroAmountGiven()": [
        {
          "notice": "Thrown when a zero amount is passed "
        }
      ]
    },
    "events": {
      "OwnershipTransferred(address,address)": {
        "notice": "This emits when ownership of a contract changes."
      },
      "TokenRedeemed(uint256,address,uint256,address,uint256,uint8)": {
        "notice": "Emitted after a Mare Bits Locker Token is redeemed for its locked tokens"
      },
      "TokensLocked(uint256,address,uint256,address,uint256,uint8,uint64)": {
        "notice": "Emitted when a token is locked or the lock on a token is extended"
      }
    },
    "kind": "user",
    "methods": {
      "__burn(uint256)": {
        "notice": "Internally marks a token as having been burnt"
      },
      "__recoverEther()": {
        "notice": "Recovers ether accidentally sent to this contract or the contracts owned by this one ({MarebitsLockerAccount}, {MarebitsLockerToken}, and {MarebitsVault})"
      },
      "__recoverTokens(uint8,address,uint256)": {
        "notice": "Recovers ERC20, ERC721, or ERC1155 tokens accidentally sent to this contract or the non-vault contracts owned by this one ({MarebitsLockerAccount} and {MarebitsLockerToken})"
      },
      "extendLock(uint256,uint64)": {
        "notice": "Extends the `unlockTime` for a given `accountId`"
      },
      "getAccount(uint256)": {
        "notice": "Gets the account details for the account `accountId`"
      },
      "lockTokens(uint8,address,uint256,uint256,uint64)": {
        "notice": "Locks tokens in a Mare Bits Locker and issues a redeemable Mare Bits Locker Token that can be used to unlock the tokens after the time `unlockTime` has passed"
      },
      "owner()": {
        "notice": "Get the address of the owner"
      },
      "redeemToken(uint256)": {
        "notice": "Redeems (burns) a Mare Bits Locker Token and transfers all locked tokens back to the caller"
      },
      "transferOwnership(address)": {
        "notice": "Transfers ownership of the contract to a new account (`newAccount`)."
      }
    },
    "version": 1
  },
  "storageLayout": {
    "storage": [
      {
        "astId": 6279,
        "contract": "contracts/MarebitsLocker.sol:MarebitsLocker",
        "label": "_owner",
        "offset": 0,
        "slot": "0",
        "type": "t_address"
      },
      {
        "astId": 114,
        "contract": "contracts/MarebitsLocker.sol:MarebitsLocker",
        "label": "_status",
        "offset": 0,
        "slot": "1",
        "type": "t_uint256"
      }
    ],
    "types": {
      "t_address": {
        "encoding": "inplace",
        "label": "address",
        "numberOfBytes": "20"
      },
      "t_uint256": {
        "encoding": "inplace",
        "label": "uint256",
        "numberOfBytes": "32"
      }
    }
  }
}