{
  "_format": "hh-sol-artifact-1",
  "contractName": "MarebitsLockerToken",
  "sourceName": "contracts/MarebitsLockerToken.sol",
  "abi": [
    {
      "inputs": [
        {
          "internalType": "string",
          "name": "name",
          "type": "string"
        },
        {
          "internalType": "string",
          "name": "symbol",
          "type": "string"
        },
        {
          "internalType": "string",
          "name": "baseURI",
          "type": "string"
        }
      ],
      "stateMutability": "nonpayable",
      "type": "constructor"
    },
    {
      "anonymous": false,
      "inputs": [
        {
          "indexed": true,
          "internalType": "address",
          "name": "owner",
          "type": "address"
        },
        {
          "indexed": true,
          "internalType": "address",
          "name": "approved",
          "type": "address"
        },
        {
          "indexed": true,
          "internalType": "uint256",
          "name": "tokenId",
          "type": "uint256"
        }
      ],
      "name": "Approval",
      "type": "event"
    },
    {
      "anonymous": false,
      "inputs": [
        {
          "indexed": true,
          "internalType": "address",
          "name": "owner",
          "type": "address"
        },
        {
          "indexed": true,
          "internalType": "address",
          "name": "operator",
          "type": "address"
        },
        {
          "indexed": false,
          "internalType": "bool",
          "name": "approved",
          "type": "bool"
        }
      ],
      "name": "ApprovalForAll",
      "type": "event"
    },
    {
      "anonymous": false,
      "inputs": [
        {
          "indexed": true,
          "internalType": "address",
          "name": "previousOwner",
          "type": "address"
        },
        {
          "indexed": true,
          "internalType": "address",
          "name": "newOwner",
          "type": "address"
        }
      ],
      "name": "OwnershipTransferred",
      "type": "event"
    },
    {
      "anonymous": false,
      "inputs": [
        {
          "indexed": true,
          "internalType": "address",
          "name": "from",
          "type": "address"
        },
        {
          "indexed": true,
          "internalType": "address",
          "name": "to",
          "type": "address"
        },
        {
          "indexed": true,
          "internalType": "uint256",
          "name": "tokenId",
          "type": "uint256"
        }
      ],
      "name": "Transfer",
      "type": "event"
    },
    {
      "inputs": [
        {
          "internalType": "uint256",
          "name": "tokenId",
          "type": "uint256"
        }
      ],
      "name": "__burn",
      "outputs": [],
      "stateMutability": "nonpayable",
      "type": "function"
    },
    {
      "inputs": [
        {
          "internalType": "uint256",
          "name": "tokenId",
          "type": "uint256"
        }
      ],
      "name": "__exists",
      "outputs": [
        {
          "internalType": "bool",
          "name": "",
          "type": "bool"
        }
      ],
      "stateMutability": "view",
      "type": "function"
    },
    {
      "inputs": [],
      "name": "__getNextTokenId",
      "outputs": [
        {
          "internalType": "uint256",
          "name": "tokenId",
          "type": "uint256"
        }
      ],
      "stateMutability": "nonpayable",
      "type": "function"
    },
    {
      "inputs": [
        {
          "internalType": "address payable",
          "name": "owner",
          "type": "address"
        },
        {
          "internalType": "uint256",
          "name": "tokenId",
          "type": "uint256"
        },
        {
          "internalType": "string",
          "name": "tokenUri",
          "type": "string"
        }
      ],
      "name": "__issueToken",
      "outputs": [],
      "stateMutability": "nonpayable",
      "type": "function"
    },
    {
      "inputs": [
        {
          "internalType": "contract IERC1155",
          "name": "token",
          "type": "address"
        },
        {
          "internalType": "uint256",
          "name": "tokenId",
          "type": "uint256"
        }
      ],
      "name": "__recoverERC1155",
      "outputs": [],
      "stateMutability": "nonpayable",
      "type": "function"
    },
    {
      "inputs": [
        {
          "internalType": "contract IERC20",
          "name": "token",
          "type": "address"
        }
      ],
      "name": "__recoverERC20",
      "outputs": [],
      "stateMutability": "nonpayable",
      "type": "function"
    },
    {
      "inputs": [
        {
          "internalType": "contract IERC721",
          "name": "token",
          "type": "address"
        },
        {
          "internalType": "uint256",
          "name": "tokenId",
          "type": "uint256"
        }
      ],
      "name": "__recoverERC721",
      "outputs": [],
      "stateMutability": "nonpayable",
      "type": "function"
    },
    {
      "inputs": [],
      "name": "__recoverEther",
      "outputs": [],
      "stateMutability": "payable",
      "type": "function"
    },
    {
      "inputs": [
        {
          "internalType": "string",
          "name": "baseURI",
          "type": "string"
        }
      ],
      "name": "__setBaseURI",
      "outputs": [],
      "stateMutability": "nonpayable",
      "type": "function"
    },
    {
      "inputs": [
        {
          "internalType": "uint256",
          "name": "tokenId",
          "type": "uint256"
        },
        {
          "internalType": "string",
          "name": "tokenUri",
          "type": "string"
        }
      ],
      "name": "__setTokenURI",
      "outputs": [],
      "stateMutability": "nonpayable",
      "type": "function"
    },
    {
      "inputs": [
        {
          "internalType": "address",
          "name": "to",
          "type": "address"
        },
        {
          "internalType": "uint256",
          "name": "tokenId",
          "type": "uint256"
        }
      ],
      "name": "approve",
      "outputs": [],
      "stateMutability": "nonpayable",
      "type": "function"
    },
    {
      "inputs": [
        {
          "internalType": "address",
          "name": "owner",
          "type": "address"
        }
      ],
      "name": "balanceOf",
      "outputs": [
        {
          "internalType": "uint256",
          "name": "",
          "type": "uint256"
        }
      ],
      "stateMutability": "view",
      "type": "function"
    },
    {
      "inputs": [],
      "name": "bestPony",
      "outputs": [
        {
          "internalType": "string",
          "name": "",
          "type": "string"
        }
      ],
      "stateMutability": "pure",
      "type": "function"
    },
    {
      "inputs": [
        {
          "internalType": "uint256",
          "name": "tokenId",
          "type": "uint256"
        }
      ],
      "name": "burn",
      "outputs": [],
      "stateMutability": "nonpayable",
      "type": "function"
    },
    {
      "inputs": [
        {
          "internalType": "uint256",
          "name": "tokenId",
          "type": "uint256"
        }
      ],
      "name": "getApproved",
      "outputs": [
        {
          "internalType": "address",
          "name": "",
          "type": "address"
        }
      ],
      "stateMutability": "view",
      "type": "function"
    },
    {
      "inputs": [
        {
          "internalType": "address",
          "name": "owner",
          "type": "address"
        },
        {
          "internalType": "address",
          "name": "operator",
          "type": "address"
        }
      ],
      "name": "isApprovedForAll",
      "outputs": [
        {
          "internalType": "bool",
          "name": "",
          "type": "bool"
        }
      ],
      "stateMutability": "view",
      "type": "function"
    },
    {
      "inputs": [],
      "name": "name",
      "outputs": [
        {
          "internalType": "string",
          "name": "",
          "type": "string"
        }
      ],
      "stateMutability": "view",
      "type": "function"
    },
    {
      "inputs": [],
      "name": "owner",
      "outputs": [
        {
          "internalType": "address",
          "name": "",
          "type": "address"
        }
      ],
      "stateMutability": "view",
      "type": "function"
    },
    {
      "inputs": [
        {
          "internalType": "uint256",
          "name": "tokenId",
          "type": "uint256"
        }
      ],
      "name": "ownerOf",
      "outputs": [
        {
          "internalType": "address",
          "name": "",
          "type": "address"
        }
      ],
      "stateMutability": "view",
      "type": "function"
    },
    {
      "inputs": [],
      "name": "renounceOwnership",
      "outputs": [],
      "stateMutability": "nonpayable",
      "type": "function"
    },
    {
      "inputs": [
        {
          "internalType": "address",
          "name": "from",
          "type": "address"
        },
        {
          "internalType": "address",
          "name": "to",
          "type": "address"
        },
        {
          "internalType": "uint256",
          "name": "tokenId",
          "type": "uint256"
        }
      ],
      "name": "safeTransferFrom",
      "outputs": [],
      "stateMutability": "nonpayable",
      "type": "function"
    },
    {
      "inputs": [
        {
          "internalType": "address",
          "name": "from",
          "type": "address"
        },
        {
          "internalType": "address",
          "name": "to",
          "type": "address"
        },
        {
          "internalType": "uint256",
          "name": "tokenId",
          "type": "uint256"
        },
        {
          "internalType": "bytes",
          "name": "_data",
          "type": "bytes"
        }
      ],
      "name": "safeTransferFrom",
      "outputs": [],
      "stateMutability": "nonpayable",
      "type": "function"
    },
    {
      "inputs": [
        {
          "internalType": "address",
          "name": "operator",
          "type": "address"
        },
        {
          "internalType": "bool",
          "name": "approved",
          "type": "bool"
        }
      ],
      "name": "setApprovalForAll",
      "outputs": [],
      "stateMutability": "nonpayable",
      "type": "function"
    },
    {
      "inputs": [
        {
          "internalType": "bytes4",
          "name": "interfaceId",
          "type": "bytes4"
        }
      ],
      "name": "supportsInterface",
      "outputs": [
        {
          "internalType": "bool",
          "name": "",
          "type": "bool"
        }
      ],
      "stateMutability": "view",
      "type": "function"
    },
    {
      "inputs": [],
      "name": "symbol",
      "outputs": [
        {
          "internalType": "string",
          "name": "",
          "type": "string"
        }
      ],
      "stateMutability": "view",
      "type": "function"
    },
    {
      "inputs": [
        {
          "internalType": "uint256",
          "name": "tokenId",
          "type": "uint256"
        }
      ],
      "name": "tokenURI",
      "outputs": [
        {
          "internalType": "string",
          "name": "",
          "type": "string"
        }
      ],
      "stateMutability": "view",
      "type": "function"
    },
    {
      "inputs": [
        {
          "internalType": "address",
          "name": "from",
          "type": "address"
        },
        {
          "internalType": "address",
          "name": "to",
          "type": "address"
        },
        {
          "internalType": "uint256",
          "name": "tokenId",
          "type": "uint256"
        }
      ],
      "name": "transferFrom",
      "outputs": [],
      "stateMutability": "nonpayable",
      "type": "function"
    },
    {
      "inputs": [
        {
          "internalType": "address",
          "name": "newOwner",
          "type": "address"
        }
      ],
      "name": "transferOwnership",
      "outputs": [],
      "stateMutability": "nonpayable",
      "type": "function"
    }
  ],
  "bytecode": "0x60806040523480156200001157600080fd5b5060405162004f6438038062004f648339818101604052810190620000379190620003c8565b8282620000596200004d620000af60201b60201c565b620000b760201b60201c565b8160019080519060200190620000719291906200017b565b5080600290805190602001906200008a9291906200017b565b5050508060089080519060200190620000a59291906200017b565b50505050620004e6565b600033905090565b60008060009054906101000a900473ffffffffffffffffffffffffffffffffffffffff169050816000806101000a81548173ffffffffffffffffffffffffffffffffffffffff021916908373ffffffffffffffffffffffffffffffffffffffff1602179055508173ffffffffffffffffffffffffffffffffffffffff168173ffffffffffffffffffffffffffffffffffffffff167f8be0079c531659141344cd1fd0a4f28419497f9722a3daafe3b4186f6b6457e060405160405180910390a35050565b8280546200018990620004b0565b90600052602060002090601f016020900481019282620001ad5760008555620001f9565b82601f10620001c857805160ff1916838001178555620001f9565b82800160010185558215620001f9579182015b82811115620001f8578251825591602001919060010190620001db565b5b5090506200020891906200020c565b5090565b5b80821115620002275760008160009055506001016200020d565b5090565b6000604051905090565b600080fd5b600080fd5b600080fd5b600080fd5b6000601f19601f8301169050919050565b7f4e487b7100000000000000000000000000000000000000000000000000000000600052604160045260246000fd5b620002948262000249565b810181811067ffffffffffffffff82111715620002b657620002b56200025a565b5b80604052505050565b6000620002cb6200022b565b9050620002d9828262000289565b919050565b600067ffffffffffffffff821115620002fc57620002fb6200025a565b5b620003078262000249565b9050602081019050919050565b60005b838110156200033457808201518184015260208101905062000317565b8381111562000344576000848401525b50505050565b6000620003616200035b84620002de565b620002bf565b90508281526020810184848401111562000380576200037f62000244565b5b6200038d84828562000314565b509392505050565b600082601f830112620003ad57620003ac6200023f565b5b8151620003bf8482602086016200034a565b91505092915050565b600080600060608486031215620003e457620003e362000235565b5b600084015167ffffffffffffffff8111156200040557620004046200023a565b5b620004138682870162000395565b935050602084015167ffffffffffffffff8111156200043757620004366200023a565b5b620004458682870162000395565b925050604084015167ffffffffffffffff8111156200046957620004686200023a565b5b620004778682870162000395565b9150509250925092565b7f4e487b7100000000000000000000000000000000000000000000000000000000600052602260045260246000fd5b60006002820490506001821680620004c957607f821691505b60208210811415620004e057620004df62000481565b5b50919050565b614a6e80620004f66000396000f3fe6080604052600436106101b75760003560e01c806358ee7173116100ec57806395d89b411161008a578063c87b56dd11610064578063c87b56dd146105d1578063d1a015201461060e578063e985e9c514610637578063f2fde38b14610674576101b7565b806395d89b4114610554578063a22cb4651461057f578063b88d4fde146105a8576101b7565b806370a08231116100c657806370a0823114610498578063715018a6146104d55780638553c3e9146104ec5780638da5cb5b14610529576101b7565b806358ee7173146104285780636352211e1461045157806364e719241461048e576101b7565b806342842e0e11610159578063460e7da711610133578063460e7da714610384578063478d8d60146103ad5780634a3b889a146103d6578063540b6ab1146103ff576101b7565b806342842e0e1461030757806342966c68146103305780634538309914610359576101b7565b8063095ea7b311610195578063095ea7b31461026157806319511a7a1461028a5780632099de41146102b557806323b872dd146102de576101b7565b806301ffc9a7146101bc57806306fdde03146101f9578063081812fc14610224575b600080fd5b3480156101c857600080fd5b506101e360048036038101906101de9190612fbe565b61069d565b6040516101f09190613006565b60405180910390f35b34801561020557600080fd5b5061020e61091f565b60405161021b91906130ba565b60405180910390f35b34801561023057600080fd5b5061024b60048036038101906102469190613112565b6109b1565b6040516102589190613180565b60405180910390f35b34801561026d57600080fd5b50610288600480360381019061028391906131c7565b610a36565b005b34801561029657600080fd5b5061029f610b4e565b6040516102ac91906130ba565b60405180910390f35b3480156102c157600080fd5b506102dc60048036038101906102d79190613245565b610b6e565b005b3480156102ea57600080fd5b5061030560048036038101906103009190613285565b610ce0565b005b34801561031357600080fd5b5061032e60048036038101906103299190613285565b610d40565b005b34801561033c57600080fd5b5061035760048036038101906103529190613112565b610d60565b005b34801561036557600080fd5b5061036e610dbc565b60405161037b91906132e7565b60405180910390f35b34801561039057600080fd5b506103ab60048036038101906103a69190613340565b610e53565b005b3480156103b957600080fd5b506103d460048036038101906103cf91906134f3565b610f49565b005b3480156103e257600080fd5b506103fd60048036038101906103f891906135c2565b610fde565b005b34801561040b57600080fd5b506104266004803603810190610421919061364d565b611070565b005b34801561043457600080fd5b5061044f600480360381019061044a919061367a565b61119a565b005b34801561045d57600080fd5b5061047860048036038101906104739190613112565b611269565b6040516104859190613180565b60405180910390f35b61049661131b565b005b3480156104a457600080fd5b506104bf60048036038101906104ba91906136da565b6113e7565b6040516104cc91906132e7565b60405180910390f35b3480156104e157600080fd5b506104ea61149f565b005b3480156104f857600080fd5b50610513600480360381019061050e9190613112565b611527565b6040516105209190613006565b60405180910390f35b34801561053557600080fd5b5061053e6115b5565b60405161054b9190613180565b60405180910390f35b34801561056057600080fd5b506105696115de565b60405161057691906130ba565b60405180910390f35b34801561058b57600080fd5b506105a660048036038101906105a19190613733565b611670565b005b3480156105b457600080fd5b506105cf60048036038101906105ca9190613814565b6117f1565b005b3480156105dd57600080fd5b506105f860048036038101906105f39190613112565b611853565b60405161060591906130ba565b60405180910390f35b34801561061a57600080fd5b5061063560048036038101906106309190613112565b6119a5565b005b34801561064357600080fd5b5061065e60048036038101906106599190613897565b611a2d565b60405161066b9190613006565b60405180910390f35b34801561068057600080fd5b5061069b600480360381019061069691906136da565b611ac1565b005b60007f42966c68000000000000000000000000000000000000000000000000000000007bffffffffffffffffffffffffffffffffffffffffffffffffffffffff1916827bffffffffffffffffffffffffffffffffffffffffffffffffffffffff1916148061076857507f19511a7a000000000000000000000000000000000000000000000000000000007bffffffffffffffffffffffffffffffffffffffffffffffffffffffff1916827bffffffffffffffffffffffffffffffffffffffffffffffffffffffff1916145b806107d057507f0e083076000000000000000000000000000000000000000000000000000000007bffffffffffffffffffffffffffffffffffffffffffffffffffffffff1916827bffffffffffffffffffffffffffffffffffffffffffffffffffffffff1916145b8061083857507f64e71924000000000000000000000000000000000000000000000000000000007bffffffffffffffffffffffffffffffffffffffffffffffffffffffff1916827bffffffffffffffffffffffffffffffffffffffffffffffffffffffff1916145b806108a057507f329cc957000000000000000000000000000000000000000000000000000000007bffffffffffffffffffffffffffffffffffffffffffffffffffffffff1916827bffffffffffffffffffffffffffffffffffffffffffffffffffffffff1916145b8061090857507fc87b56dd000000000000000000000000000000000000000000000000000000007bffffffffffffffffffffffffffffffffffffffffffffffffffffffff1916827bffffffffffffffffffffffffffffffffffffffffffffffffffffffff1916145b80610918575061091782611bb9565b5b9050919050565b60606001805461092e90613906565b80601f016020809104026020016040519081016040528092919081815260200182805461095a90613906565b80156109a75780601f1061097c576101008083540402835291602001916109a7565b820191906000526020600020905b81548152906001019060200180831161098a57829003601f168201915b5050505050905090565b60006109bc82611c9b565b6109fb576040517f08c379a00000000000000000000000000000000000000000000000000000000081526004016109f2906139aa565b60405180910390fd5b6005600083815260200190815260200160002060009054906101000a900473ffffffffffffffffffffffffffffffffffffffff169050919050565b6000610a4182611269565b90508073ffffffffffffffffffffffffffffffffffffffff168373ffffffffffffffffffffffffffffffffffffffff161415610ab2576040517f08c379a0000000000000000000000000000000000000000000000000000000008152600401610aa990613a3c565b60405180910390fd5b8073ffffffffffffffffffffffffffffffffffffffff16610ad1611d07565b73ffffffffffffffffffffffffffffffffffffffff161480610b005750610aff81610afa611d07565b611a2d565b5b610b3f576040517f08c379a0000000000000000000000000000000000000000000000000000000008152600401610b3690613ace565b60405180910390fd5b610b498383611d0f565b505050565b60606040518060600160405280603f81526020016149fa603f9139905090565b610b76611d07565b73ffffffffffffffffffffffffffffffffffffffff16610b946115b5565b73ffffffffffffffffffffffffffffffffffffffff1614610bea576040517f08c379a0000000000000000000000000000000000000000000000000000000008152600401610be190613b3a565b60405180910390fd5b8173ffffffffffffffffffffffffffffffffffffffff1663f242432a30610c0f6115b5565b848673ffffffffffffffffffffffffffffffffffffffff1662fdd58e30886040518363ffffffff1660e01b8152600401610c4a929190613b5a565b602060405180830381865afa158015610c67573d6000803e3d6000fd5b505050506040513d601f19601f82011682018060405250810190610c8b9190613b98565b6040518563ffffffff1660e01b8152600401610caa9493929190613c5b565b600060405180830381600087803b158015610cc457600080fd5b505af1158015610cd8573d6000803e3d6000fd5b505050505050565b610cf1610ceb611d07565b82611dc8565b610d30576040517f08c379a0000000000000000000000000000000000000000000000000000000008152600401610d2790613d25565b60405180910390fd5b610d3b838383611ea6565b505050565b610d5b838383604051806020016040528060008152506117f1565b505050565b610d71610d6b611d07565b82611dc8565b610db0576040517f08c379a0000000000000000000000000000000000000000000000000000000008152600401610da790613d91565b60405180910390fd5b610db981612102565b50565b6000610dc6611d07565b73ffffffffffffffffffffffffffffffffffffffff16610de46115b5565b73ffffffffffffffffffffffffffffffffffffffff1614610e3a576040517f08c379a0000000000000000000000000000000000000000000000000000000008152600401610e3190613b3a565b60405180910390fd5b610e446009612155565b9050610e506009612163565b90565b610e5b611d07565b73ffffffffffffffffffffffffffffffffffffffff16610e796115b5565b73ffffffffffffffffffffffffffffffffffffffff1614610ecf576040517f08c379a0000000000000000000000000000000000000000000000000000000008152600401610ec690613b3a565b60405180910390fd5b8173ffffffffffffffffffffffffffffffffffffffff166342842e0e30610ef46115b5565b846040518463ffffffff1660e01b8152600401610f1393929190613db1565b600060405180830381600087803b158015610f2d57600080fd5b505af1158015610f41573d6000803e3d6000fd5b505050505050565b610f51611d07565b73ffffffffffffffffffffffffffffffffffffffff16610f6f6115b5565b73ffffffffffffffffffffffffffffffffffffffff1614610fc5576040517f08c379a0000000000000000000000000000000000000000000000000000000008152600401610fbc90613b3a565b60405180910390fd5b610fcf8383612179565b610fd98282612197565b505050565b610fe6611d07565b73ffffffffffffffffffffffffffffffffffffffff166110046115b5565b73ffffffffffffffffffffffffffffffffffffffff161461105a576040517f08c379a000000000000000000000000000000000000000000000000000000000815260040161105190613b3a565b60405180910390fd5b81816008919061106b929190612de9565b505050565b611078611d07565b73ffffffffffffffffffffffffffffffffffffffff166110966115b5565b73ffffffffffffffffffffffffffffffffffffffff16146110ec576040517f08c379a00000000000000000000000000000000000000000000000000000000081526004016110e390613b3a565b60405180910390fd5b6111976110f76115b5565b8273ffffffffffffffffffffffffffffffffffffffff166370a08231306040518263ffffffff1660e01b81526004016111309190613180565b602060405180830381865afa15801561114d573d6000803e3d6000fd5b505050506040513d601f19601f820116820180604052508101906111719190613b98565b8373ffffffffffffffffffffffffffffffffffffffff1661220b9092919063ffffffff16565b50565b6111a2611d07565b73ffffffffffffffffffffffffffffffffffffffff166111c06115b5565b73ffffffffffffffffffffffffffffffffffffffff1614611216576040517f08c379a000000000000000000000000000000000000000000000000000000000815260040161120d90613b3a565b60405180910390fd5b6112648383838080601f016020809104026020016040519081016040528093929190818152602001838380828437600081840152601f19601f82011690508083019250505050505050612197565b505050565b6000806003600084815260200190815260200160002060009054906101000a900473ffffffffffffffffffffffffffffffffffffffff169050600073ffffffffffffffffffffffffffffffffffffffff168173ffffffffffffffffffffffffffffffffffffffff161415611312576040517f08c379a000000000000000000000000000000000000000000000000000000000815260040161130990613e5a565b60405180910390fd5b80915050919050565b611323611d07565b73ffffffffffffffffffffffffffffffffffffffff166113416115b5565b73ffffffffffffffffffffffffffffffffffffffff1614611397576040517f08c379a000000000000000000000000000000000000000000000000000000000815260040161138e90613b3a565b60405180910390fd5b61139f6115b5565b73ffffffffffffffffffffffffffffffffffffffff166108fc479081150290604051600060405180830381858888f193505050501580156113e4573d6000803e3d6000fd5b50565b60008073ffffffffffffffffffffffffffffffffffffffff168273ffffffffffffffffffffffffffffffffffffffff161415611458576040517f08c379a000000000000000000000000000000000000000000000000000000000815260040161144f90613eec565b60405180910390fd5b600460008373ffffffffffffffffffffffffffffffffffffffff1673ffffffffffffffffffffffffffffffffffffffff168152602001908152602001600020549050919050565b6114a7611d07565b73ffffffffffffffffffffffffffffffffffffffff166114c56115b5565b73ffffffffffffffffffffffffffffffffffffffff161461151b576040517f08c379a000000000000000000000000000000000000000000000000000000000815260040161151290613b3a565b60405180910390fd5b6115256000612291565b565b6000611531611d07565b73ffffffffffffffffffffffffffffffffffffffff1661154f6115b5565b73ffffffffffffffffffffffffffffffffffffffff16146115a5576040517f08c379a000000000000000000000000000000000000000000000000000000000815260040161159c90613b3a565b60405180910390fd5b6115ae82611c9b565b9050919050565b60008060009054906101000a900473ffffffffffffffffffffffffffffffffffffffff16905090565b6060600280546115ed90613906565b80601f016020809104026020016040519081016040528092919081815260200182805461161990613906565b80156116665780601f1061163b57610100808354040283529160200191611666565b820191906000526020600020905b81548152906001019060200180831161164957829003601f168201915b5050505050905090565b611678611d07565b73ffffffffffffffffffffffffffffffffffffffff168273ffffffffffffffffffffffffffffffffffffffff1614156116e6576040517f08c379a00000000000000000000000000000000000000000000000000000000081526004016116dd90613f58565b60405180910390fd5b80600660006116f3611d07565b73ffffffffffffffffffffffffffffffffffffffff1673ffffffffffffffffffffffffffffffffffffffff16815260200190815260200160002060008473ffffffffffffffffffffffffffffffffffffffff1673ffffffffffffffffffffffffffffffffffffffff16815260200190815260200160002060006101000a81548160ff0219169083151502179055508173ffffffffffffffffffffffffffffffffffffffff166117a0611d07565b73ffffffffffffffffffffffffffffffffffffffff167f17307eab39ab6107e8899845ad3d59bd9653f200f220920489ca2b5937696c31836040516117e59190613006565b60405180910390a35050565b6118026117fc611d07565b83611dc8565b611841576040517f08c379a000000000000000000000000000000000000000000000000000000000815260040161183890613d25565b60405180910390fd5b61184d84848484612355565b50505050565b606061185e82611c9b565b61189d576040517f08c379a000000000000000000000000000000000000000000000000000000000815260040161189490613fea565b60405180910390fd5b60006007600084815260200190815260200160002080546118bd90613906565b80601f01602080910402602001604051908101604052809291908181526020018280546118e990613906565b80156119365780601f1061190b57610100808354040283529160200191611936565b820191906000526020600020905b81548152906001019060200180831161191957829003601f168201915b5050505050905060006119476123b1565b905060008151141561195d5781925050506119a0565b60008251111561199257808260405160200161197a929190614046565b604051602081830303815290604052925050506119a0565b61199b84612443565b925050505b919050565b6119ad611d07565b73ffffffffffffffffffffffffffffffffffffffff166119cb6115b5565b73ffffffffffffffffffffffffffffffffffffffff1614611a21576040517f08c379a0000000000000000000000000000000000000000000000000000000008152600401611a1890613b3a565b60405180910390fd5b611a2a81612102565b50565b6000600660008473ffffffffffffffffffffffffffffffffffffffff1673ffffffffffffffffffffffffffffffffffffffff16815260200190815260200160002060008373ffffffffffffffffffffffffffffffffffffffff1673ffffffffffffffffffffffffffffffffffffffff16815260200190815260200160002060009054906101000a900460ff16905092915050565b611ac9611d07565b73ffffffffffffffffffffffffffffffffffffffff16611ae76115b5565b73ffffffffffffffffffffffffffffffffffffffff1614611b3d576040517f08c379a0000000000000000000000000000000000000000000000000000000008152600401611b3490613b3a565b60405180910390fd5b600073ffffffffffffffffffffffffffffffffffffffff168173ffffffffffffffffffffffffffffffffffffffff161415611bad576040517f08c379a0000000000000000000000000000000000000000000000000000000008152600401611ba4906140dc565b60405180910390fd5b611bb681612291565b50565b60007f80ac58cd000000000000000000000000000000000000000000000000000000007bffffffffffffffffffffffffffffffffffffffffffffffffffffffff1916827bffffffffffffffffffffffffffffffffffffffffffffffffffffffff19161480611c8457507f5b5e139f000000000000000000000000000000000000000000000000000000007bffffffffffffffffffffffffffffffffffffffffffffffffffffffff1916827bffffffffffffffffffffffffffffffffffffffffffffffffffffffff1916145b80611c945750611c93826124ea565b5b9050919050565b60008073ffffffffffffffffffffffffffffffffffffffff166003600084815260200190815260200160002060009054906101000a900473ffffffffffffffffffffffffffffffffffffffff1673ffffffffffffffffffffffffffffffffffffffff1614159050919050565b600033905090565b816005600083815260200190815260200160002060006101000a81548173ffffffffffffffffffffffffffffffffffffffff021916908373ffffffffffffffffffffffffffffffffffffffff160217905550808273ffffffffffffffffffffffffffffffffffffffff16611d8283611269565b73ffffffffffffffffffffffffffffffffffffffff167f8c5be1e5ebec7d5bd14f71427d1e84f3dd0314c0f7b2291e5b200ac8c7c3b92560405160405180910390a45050565b6000611dd382611c9b565b611e12576040517f08c379a0000000000000000000000000000000000000000000000000000000008152600401611e099061416e565b60405180910390fd5b6000611e1d83611269565b90508073ffffffffffffffffffffffffffffffffffffffff168473ffffffffffffffffffffffffffffffffffffffff161480611e8c57508373ffffffffffffffffffffffffffffffffffffffff16611e74846109b1565b73ffffffffffffffffffffffffffffffffffffffff16145b80611e9d5750611e9c8185611a2d565b5b91505092915050565b8273ffffffffffffffffffffffffffffffffffffffff16611ec682611269565b73ffffffffffffffffffffffffffffffffffffffff1614611f1c576040517f08c379a0000000000000000000000000000000000000000000000000000000008152600401611f1390614200565b60405180910390fd5b600073ffffffffffffffffffffffffffffffffffffffff168273ffffffffffffffffffffffffffffffffffffffff161415611f8c576040517f08c379a0000000000000000000000000000000000000000000000000000000008152600401611f8390614292565b60405180910390fd5b611f97838383612554565b611fa2600082611d0f565b6001600460008573ffffffffffffffffffffffffffffffffffffffff1673ffffffffffffffffffffffffffffffffffffffff1681526020019081526020016000206000828254611ff291906142e1565b925050819055506001600460008473ffffffffffffffffffffffffffffffffffffffff1673ffffffffffffffffffffffffffffffffffffffff16815260200190815260200160002060008282546120499190614315565b92505081905550816003600083815260200190815260200160002060006101000a81548173ffffffffffffffffffffffffffffffffffffffff021916908373ffffffffffffffffffffffffffffffffffffffff160217905550808273ffffffffffffffffffffffffffffffffffffffff168473ffffffffffffffffffffffffffffffffffffffff167fddf252ad1be2c89b69c2b068fc378daa952ba7f163c4a11628f55a4df523b3ef60405160405180910390a4505050565b61210b81612559565b600060076000838152602001908152602001600020805461212b90613906565b905014612152576007600082815260200190815260200160002060006121519190612e6f565b5b50565b600081600001549050919050565b6001816000016000828254019250508190555050565b61219382826040518060200160405280600081525061266a565b5050565b6121a082611c9b565b6121df576040517f08c379a00000000000000000000000000000000000000000000000000000000081526004016121d6906143dd565b60405180910390fd5b80600760008481526020019081526020016000209080519060200190612206929190612eaf565b505050565b61228c8363a9059cbb60e01b848460405160240161222a929190613b5a565b604051602081830303815290604052907bffffffffffffffffffffffffffffffffffffffffffffffffffffffff19166020820180517bffffffffffffffffffffffffffffffffffffffffffffffffffffffff83818316178352505050506126c5565b505050565b60008060009054906101000a900473ffffffffffffffffffffffffffffffffffffffff169050816000806101000a81548173ffffffffffffffffffffffffffffffffffffffff021916908373ffffffffffffffffffffffffffffffffffffffff1602179055508173ffffffffffffffffffffffffffffffffffffffff168173ffffffffffffffffffffffffffffffffffffffff167f8be0079c531659141344cd1fd0a4f28419497f9722a3daafe3b4186f6b6457e060405160405180910390a35050565b612360848484611ea6565b61236c8484848461278c565b6123ab576040517f08c379a00000000000000000000000000000000000000000000000000000000081526004016123a29061446f565b60405180910390fd5b50505050565b6060600880546123c090613906565b80601f01602080910402602001604051908101604052809291908181526020018280546123ec90613906565b80156124395780601f1061240e57610100808354040283529160200191612439565b820191906000526020600020905b81548152906001019060200180831161241c57829003601f168201915b5050505050905090565b606061244e82611c9b565b61248d576040517f08c379a000000000000000000000000000000000000000000000000000000000815260040161248490614501565b60405180910390fd5b60006124976123b1565b905060008151116124b757604051806020016040528060008152506124e2565b806124c184612914565b6040516020016124d2929190614046565b6040516020818303038152906040525b915050919050565b60007f01ffc9a7000000000000000000000000000000000000000000000000000000007bffffffffffffffffffffffffffffffffffffffffffffffffffffffff1916827bffffffffffffffffffffffffffffffffffffffffffffffffffffffff1916149050919050565b505050565b600061256482611269565b905061257281600084612554565b61257d600083611d0f565b6001600460008373ffffffffffffffffffffffffffffffffffffffff1673ffffffffffffffffffffffffffffffffffffffff16815260200190815260200160002060008282546125cd91906142e1565b925050819055506003600083815260200190815260200160002060006101000a81549073ffffffffffffffffffffffffffffffffffffffff021916905581600073ffffffffffffffffffffffffffffffffffffffff168273ffffffffffffffffffffffffffffffffffffffff167fddf252ad1be2c89b69c2b068fc378daa952ba7f163c4a11628f55a4df523b3ef60405160405180910390a45050565b6126748383612a75565b612681600084848461278c565b6126c0576040517f08c379a00000000000000000000000000000000000000000000000000000000081526004016126b79061446f565b60405180910390fd5b505050565b6000612727826040518060400160405280602081526020017f5361666545524332303a206c6f772d6c6576656c2063616c6c206661696c65648152508573ffffffffffffffffffffffffffffffffffffffff16612c439092919063ffffffff16565b905060008151111561278757808060200190518101906127479190614536565b612786576040517f08c379a000000000000000000000000000000000000000000000000000000000815260040161277d906145d5565b60405180910390fd5b5b505050565b60006127ad8473ffffffffffffffffffffffffffffffffffffffff16612c5b565b15612907578373ffffffffffffffffffffffffffffffffffffffff1663150b7a026127d6611d07565b8786866040518563ffffffff1660e01b81526004016127f89493929190614639565b6020604051808303816000875af192505050801561283457506040513d601f19601f82011682018060405250810190612831919061469a565b60015b6128b7573d8060008114612864576040519150601f19603f3d011682016040523d82523d6000602084013e612869565b606091505b506000815114156128af576040517f08c379a00000000000000000000000000000000000000000000000000000000081526004016128a69061446f565b60405180910390fd5b805181602001fd5b63150b7a0260e01b7bffffffffffffffffffffffffffffffffffffffffffffffffffffffff1916817bffffffffffffffffffffffffffffffffffffffffffffffffffffffff19161491505061290c565b600190505b949350505050565b6060600082141561295c576040518060400160405280600181526020017f30000000000000000000000000000000000000000000000000000000000000008152509050612a70565b600082905060005b6000821461298e578080612977906146c7565b915050600a82612987919061473f565b9150612964565b60008167ffffffffffffffff8111156129aa576129a96133c8565b5b6040519080825280601f01601f1916602001820160405280156129dc5781602001600182028036833780820191505090505b5090505b60008514612a69576001826129f591906142e1565b9150600a85612a049190614770565b6030612a109190614315565b60f81b818381518110612a2657612a256147a1565b5b60200101907effffffffffffffffffffffffffffffffffffffffffffffffffffffffffffff1916908160001a905350600a85612a62919061473f565b94506129e0565b8093505050505b919050565b600073ffffffffffffffffffffffffffffffffffffffff168273ffffffffffffffffffffffffffffffffffffffff161415612ae5576040517f08c379a0000000000000000000000000000000000000000000000000000000008152600401612adc9061481c565b60405180910390fd5b612aee81611c9b565b15612b2e576040517f08c379a0000000000000000000000000000000000000000000000000000000008152600401612b2590614888565b60405180910390fd5b612b3a60008383612554565b6001600460008473ffffffffffffffffffffffffffffffffffffffff1673ffffffffffffffffffffffffffffffffffffffff1681526020019081526020016000206000828254612b8a9190614315565b92505081905550816003600083815260200190815260200160002060006101000a81548173ffffffffffffffffffffffffffffffffffffffff021916908373ffffffffffffffffffffffffffffffffffffffff160217905550808273ffffffffffffffffffffffffffffffffffffffff16600073ffffffffffffffffffffffffffffffffffffffff167fddf252ad1be2c89b69c2b068fc378daa952ba7f163c4a11628f55a4df523b3ef60405160405180910390a45050565b6060612c528484600085612c6e565b90509392505050565b600080823b905060008111915050919050565b606082471015612cb3576040517f08c379a0000000000000000000000000000000000000000000000000000000008152600401612caa9061491a565b60405180910390fd5b612cbc85612c5b565b612cfb576040517f08c379a0000000000000000000000000000000000000000000000000000000008152600401612cf290614986565b60405180910390fd5b6000808673ffffffffffffffffffffffffffffffffffffffff168587604051612d2491906149e2565b60006040518083038185875af1925050503d8060008114612d61576040519150601f19603f3d011682016040523d82523d6000602084013e612d66565b606091505b5091509150612d76828286612d82565b92505050949350505050565b60608315612d9257829050612de2565b600083511115612da55782518084602001fd5b816040517f08c379a0000000000000000000000000000000000000000000000000000000008152600401612dd991906130ba565b60405180910390fd5b9392505050565b828054612df590613906565b90600052602060002090601f016020900481019282612e175760008555612e5e565b82601f10612e3057803560ff1916838001178555612e5e565b82800160010185558215612e5e579182015b82811115612e5d578235825591602001919060010190612e42565b5b509050612e6b9190612f35565b5090565b508054612e7b90613906565b6000825580601f10612e8d5750612eac565b601f016020900490600052602060002090810190612eab9190612f35565b5b50565b828054612ebb90613906565b90600052602060002090601f016020900481019282612edd5760008555612f24565b82601f10612ef657805160ff1916838001178555612f24565b82800160010185558215612f24579182015b82811115612f23578251825591602001919060010190612f08565b5b509050612f319190612f35565b5090565b5b80821115612f4e576000816000905550600101612f36565b5090565b6000604051905090565b600080fd5b600080fd5b60007fffffffff0000000000000000000000000000000000000000000000000000000082169050919050565b612f9b81612f66565b8114612fa657600080fd5b50565b600081359050612fb881612f92565b92915050565b600060208284031215612fd457612fd3612f5c565b5b6000612fe284828501612fa9565b91505092915050565b60008115159050919050565b61300081612feb565b82525050565b600060208201905061301b6000830184612ff7565b92915050565b600081519050919050565b600082825260208201905092915050565b60005b8381101561305b578082015181840152602081019050613040565b8381111561306a576000848401525b50505050565b6000601f19601f8301169050919050565b600061308c82613021565b613096818561302c565b93506130a681856020860161303d565b6130af81613070565b840191505092915050565b600060208201905081810360008301526130d48184613081565b905092915050565b6000819050919050565b6130ef816130dc565b81146130fa57600080fd5b50565b60008135905061310c816130e6565b92915050565b60006020828403121561312857613127612f5c565b5b6000613136848285016130fd565b91505092915050565b600073ffffffffffffffffffffffffffffffffffffffff82169050919050565b600061316a8261313f565b9050919050565b61317a8161315f565b82525050565b60006020820190506131956000830184613171565b92915050565b6131a48161315f565b81146131af57600080fd5b50565b6000813590506131c18161319b565b92915050565b600080604083850312156131de576131dd612f5c565b5b60006131ec858286016131b2565b92505060206131fd858286016130fd565b9150509250929050565b60006132128261315f565b9050919050565b61322281613207565b811461322d57600080fd5b50565b60008135905061323f81613219565b92915050565b6000806040838503121561325c5761325b612f5c565b5b600061326a85828601613230565b925050602061327b858286016130fd565b9150509250929050565b60008060006060848603121561329e5761329d612f5c565b5b60006132ac868287016131b2565b93505060206132bd868287016131b2565b92505060406132ce868287016130fd565b9150509250925092565b6132e1816130dc565b82525050565b60006020820190506132fc60008301846132d8565b92915050565b600061330d8261315f565b9050919050565b61331d81613302565b811461332857600080fd5b50565b60008135905061333a81613314565b92915050565b6000806040838503121561335757613356612f5c565b5b60006133658582860161332b565b9250506020613376858286016130fd565b9150509250929050565b600061338b8261313f565b9050919050565b61339b81613380565b81146133a657600080fd5b50565b6000813590506133b881613392565b92915050565b600080fd5b600080fd5b7f4e487b7100000000000000000000000000000000000000000000000000000000600052604160045260246000fd5b61340082613070565b810181811067ffffffffffffffff8211171561341f5761341e6133c8565b5b80604052505050565b6000613432612f52565b905061343e82826133f7565b919050565b600067ffffffffffffffff82111561345e5761345d6133c8565b5b61346782613070565b9050602081019050919050565b82818337600083830152505050565b600061349661349184613443565b613428565b9050828152602081018484840111156134b2576134b16133c3565b5b6134bd848285613474565b509392505050565b600082601f8301126134da576134d96133be565b5b81356134ea848260208601613483565b91505092915050565b60008060006060848603121561350c5761350b612f5c565b5b600061351a868287016133a9565b935050602061352b868287016130fd565b925050604084013567ffffffffffffffff81111561354c5761354b612f61565b5b613558868287016134c5565b9150509250925092565b600080fd5b600080fd5b60008083601f840112613582576135816133be565b5b8235905067ffffffffffffffff81111561359f5761359e613562565b5b6020830191508360018202830111156135bb576135ba613567565b5b9250929050565b600080602083850312156135d9576135d8612f5c565b5b600083013567ffffffffffffffff8111156135f7576135f6612f61565b5b6136038582860161356c565b92509250509250929050565b600061361a8261315f565b9050919050565b61362a8161360f565b811461363557600080fd5b50565b60008135905061364781613621565b92915050565b60006020828403121561366357613662612f5c565b5b600061367184828501613638565b91505092915050565b60008060006040848603121561369357613692612f5c565b5b60006136a1868287016130fd565b935050602084013567ffffffffffffffff8111156136c2576136c1612f61565b5b6136ce8682870161356c565b92509250509250925092565b6000602082840312156136f0576136ef612f5c565b5b60006136fe848285016131b2565b91505092915050565b61371081612feb565b811461371b57600080fd5b50565b60008135905061372d81613707565b92915050565b6000806040838503121561374a57613749612f5c565b5b6000613758858286016131b2565b92505060206137698582860161371e565b9150509250929050565b600067ffffffffffffffff82111561378e5761378d6133c8565b5b61379782613070565b9050602081019050919050565b60006137b76137b284613773565b613428565b9050828152602081018484840111156137d3576137d26133c3565b5b6137de848285613474565b509392505050565b600082601f8301126137fb576137fa6133be565b5b813561380b8482602086016137a4565b91505092915050565b6000806000806080858703121561382e5761382d612f5c565b5b600061383c878288016131b2565b945050602061384d878288016131b2565b935050604061385e878288016130fd565b925050606085013567ffffffffffffffff81111561387f5761387e612f61565b5b61388b878288016137e6565b91505092959194509250565b600080604083850312156138ae576138ad612f5c565b5b60006138bc858286016131b2565b92505060206138cd858286016131b2565b9150509250929050565b7f4e487b7100000000000000000000000000000000000000000000000000000000600052602260045260246000fd5b6000600282049050600182168061391e57607f821691505b60208210811415613932576139316138d7565b5b50919050565b7f4552433732313a20617070726f76656420717565727920666f72206e6f6e657860008201527f697374656e7420746f6b656e0000000000000000000000000000000000000000602082015250565b6000613994602c8361302c565b915061399f82613938565b604082019050919050565b600060208201905081810360008301526139c381613987565b9050919050565b7f4552433732313a20617070726f76616c20746f2063757272656e74206f776e6560008201527f7200000000000000000000000000000000000000000000000000000000000000602082015250565b6000613a2660218361302c565b9150613a31826139ca565b604082019050919050565b60006020820190508181036000830152613a5581613a19565b9050919050565b7f4552433732313a20617070726f76652063616c6c6572206973206e6f74206f7760008201527f6e6572206e6f7220617070726f76656420666f7220616c6c0000000000000000602082015250565b6000613ab860388361302c565b9150613ac382613a5c565b604082019050919050565b60006020820190508181036000830152613ae781613aab565b9050919050565b7f4f776e61626c653a2063616c6c6572206973206e6f7420746865206f776e6572600082015250565b6000613b2460208361302c565b9150613b2f82613aee565b602082019050919050565b60006020820190508181036000830152613b5381613b17565b9050919050565b6000604082019050613b6f6000830185613171565b613b7c60208301846132d8565b9392505050565b600081519050613b92816130e6565b92915050565b600060208284031215613bae57613bad612f5c565b5b6000613bbc84828501613b83565b91505092915050565b6000819050919050565b6000613bea613be5613be08461313f565b613bc5565b61313f565b9050919050565b6000613bfc82613bcf565b9050919050565b6000613c0e82613bf1565b9050919050565b613c1e81613c03565b82525050565b600082825260208201905092915050565b50565b6000613c45600083613c24565b9150613c5082613c35565b600082019050919050565b600060a082019050613c706000830187613171565b613c7d6020830186613c15565b613c8a60408301856132d8565b613c9760608301846132d8565b8181036080830152613ca881613c38565b905095945050505050565b7f4552433732313a207472616e736665722063616c6c6572206973206e6f74206f60008201527f776e6572206e6f7220617070726f766564000000000000000000000000000000602082015250565b6000613d0f60318361302c565b9150613d1a82613cb3565b604082019050919050565b60006020820190508181036000830152613d3e81613d02565b9050919050565b7f4e6f7420617070726f766564206f72206f776e65720000000000000000000000600082015250565b6000613d7b60158361302c565b9150613d8682613d45565b602082019050919050565b60006020820190508181036000830152613daa81613d6e565b9050919050565b6000606082019050613dc66000830186613171565b613dd36020830185613c15565b613de060408301846132d8565b949350505050565b7f4552433732313a206f776e657220717565727920666f72206e6f6e657869737460008201527f656e7420746f6b656e0000000000000000000000000000000000000000000000602082015250565b6000613e4460298361302c565b9150613e4f82613de8565b604082019050919050565b60006020820190508181036000830152613e7381613e37565b9050919050565b7f4552433732313a2062616c616e636520717565727920666f7220746865207a6560008201527f726f206164647265737300000000000000000000000000000000000000000000602082015250565b6000613ed6602a8361302c565b9150613ee182613e7a565b604082019050919050565b60006020820190508181036000830152613f0581613ec9565b9050919050565b7f4552433732313a20617070726f766520746f2063616c6c657200000000000000600082015250565b6000613f4260198361302c565b9150613f4d82613f0c565b602082019050919050565b60006020820190508181036000830152613f7181613f35565b9050919050565b7f45524337323155524953746f726167653a2055524920717565727920666f722060008201527f6e6f6e6578697374656e7420746f6b656e000000000000000000000000000000602082015250565b6000613fd460318361302c565b9150613fdf82613f78565b604082019050919050565b6000602082019050818103600083015261400381613fc7565b9050919050565b600081905092915050565b600061402082613021565b61402a818561400a565b935061403a81856020860161303d565b80840191505092915050565b60006140528285614015565b915061405e8284614015565b91508190509392505050565b7f4f776e61626c653a206e6577206f776e657220697320746865207a65726f206160008201527f6464726573730000000000000000000000000000000000000000000000000000602082015250565b60006140c660268361302c565b91506140d18261406a565b604082019050919050565b600060208201905081810360008301526140f5816140b9565b9050919050565b7f4552433732313a206f70657261746f7220717565727920666f72206e6f6e657860008201527f697374656e7420746f6b656e0000000000000000000000000000000000000000602082015250565b6000614158602c8361302c565b9150614163826140fc565b604082019050919050565b600060208201905081810360008301526141878161414b565b9050919050565b7f4552433732313a207472616e73666572206f6620746f6b656e2074686174206960008201527f73206e6f74206f776e0000000000000000000000000000000000000000000000602082015250565b60006141ea60298361302c565b91506141f58261418e565b604082019050919050565b60006020820190508181036000830152614219816141dd565b9050919050565b7f4552433732313a207472616e7366657220746f20746865207a65726f2061646460008201527f7265737300000000000000000000000000000000000000000000000000000000602082015250565b600061427c60248361302c565b915061428782614220565b604082019050919050565b600060208201905081810360008301526142ab8161426f565b9050919050565b7f4e487b7100000000000000000000000000000000000000000000000000000000600052601160045260246000fd5b60006142ec826130dc565b91506142f7836130dc565b92508282101561430a576143096142b2565b5b828203905092915050565b6000614320826130dc565b915061432b836130dc565b9250827fffffffffffffffffffffffffffffffffffffffffffffffffffffffffffffffff038211156143605761435f6142b2565b5b828201905092915050565b7f45524337323155524953746f726167653a2055524920736574206f66206e6f6e60008201527f6578697374656e7420746f6b656e000000000000000000000000000000000000602082015250565b60006143c7602e8361302c565b91506143d28261436b565b604082019050919050565b600060208201905081810360008301526143f6816143ba565b9050919050565b7f4552433732313a207472616e7366657220746f206e6f6e20455243373231526560008201527f63656976657220696d706c656d656e7465720000000000000000000000000000602082015250565b600061445960328361302c565b9150614464826143fd565b604082019050919050565b600060208201905081810360008301526144888161444c565b9050919050565b7f4552433732314d657461646174613a2055524920717565727920666f72206e6f60008201527f6e6578697374656e7420746f6b656e0000000000000000000000000000000000602082015250565b60006144eb602f8361302c565b91506144f68261448f565b604082019050919050565b6000602082019050818103600083015261451a816144de565b9050919050565b60008151905061453081613707565b92915050565b60006020828403121561454c5761454b612f5c565b5b600061455a84828501614521565b91505092915050565b7f5361666545524332303a204552433230206f7065726174696f6e20646964206e60008201527f6f74207375636365656400000000000000000000000000000000000000000000602082015250565b60006145bf602a8361302c565b91506145ca82614563565b604082019050919050565b600060208201905081810360008301526145ee816145b2565b9050919050565b600081519050919050565b600061460b826145f5565b6146158185613c24565b935061462581856020860161303d565b61462e81613070565b840191505092915050565b600060808201905061464e6000830187613171565b61465b6020830186613171565b61466860408301856132d8565b818103606083015261467a8184614600565b905095945050505050565b60008151905061469481612f92565b92915050565b6000602082840312156146b0576146af612f5c565b5b60006146be84828501614685565b91505092915050565b60006146d2826130dc565b91507fffffffffffffffffffffffffffffffffffffffffffffffffffffffffffffffff821415614705576147046142b2565b5b600182019050919050565b7f4e487b7100000000000000000000000000000000000000000000000000000000600052601260045260246000fd5b600061474a826130dc565b9150614755836130dc565b92508261476557614764614710565b5b828204905092915050565b600061477b826130dc565b9150614786836130dc565b92508261479657614795614710565b5b828206905092915050565b7f4e487b7100000000000000000000000000000000000000000000000000000000600052603260045260246000fd5b7f4552433732313a206d696e7420746f20746865207a65726f2061646472657373600082015250565b600061480660208361302c565b9150614811826147d0565b602082019050919050565b60006020820190508181036000830152614835816147f9565b9050919050565b7f4552433732313a20746f6b656e20616c7265616479206d696e74656400000000600082015250565b6000614872601c8361302c565b915061487d8261483c565b602082019050919050565b600060208201905081810360008301526148a181614865565b9050919050565b7f416464726573733a20696e73756666696369656e742062616c616e636520666f60008201527f722063616c6c0000000000000000000000000000000000000000000000000000602082015250565b600061490460268361302c565b915061490f826148a8565b604082019050919050565b60006020820190508181036000830152614933816148f7565b9050919050565b7f416464726573733a2063616c6c20746f206e6f6e2d636f6e7472616374000000600082015250565b6000614970601d8361302c565b915061497b8261493a565b602082019050919050565b6000602082019050818103600083015261499f81614963565b9050919050565b600081905092915050565b60006149bc826145f5565b6149c681856149a6565b93506149d681856020860161303d565b80840191505092915050565b60006149ee82846149b1565b91508190509291505056fe5477696c6967687420537061726b6c6520697320746865206375746573742c20736d6172746573742c20616c6c2061726f756e64206265737420706f6e7921a2646970667358221220b87bf18125a46c1a6ff3af35274f6d226fb1eecdfb64f72bcce17aa8e9f19f0464736f6c634300080a0033",
  "linkReferences": {},
  "deployedLinkReferences": {}
}