{
  "_format": "hh-sol-artifact-1",
  "contractName": "MarebitsLockerToken",
  "sourceName": "contracts/MarebitsLockerToken.sol",
  "abi": [
    {
      "inputs": [
        {
          "internalType": "string",
          "name": "name",
          "type": "string"
        },
        {
          "internalType": "string",
          "name": "symbol",
          "type": "string"
        },
        {
          "internalType": "string",
          "name": "baseURI",
          "type": "string"
        }
      ],
      "stateMutability": "nonpayable",
      "type": "constructor"
    },
    {
      "anonymous": false,
      "inputs": [
        {
          "indexed": true,
          "internalType": "address",
          "name": "owner",
          "type": "address"
        },
        {
          "indexed": true,
          "internalType": "address",
          "name": "approved",
          "type": "address"
        },
        {
          "indexed": true,
          "internalType": "uint256",
          "name": "tokenId",
          "type": "uint256"
        }
      ],
      "name": "Approval",
      "type": "event"
    },
    {
      "anonymous": false,
      "inputs": [
        {
          "indexed": true,
          "internalType": "address",
          "name": "owner",
          "type": "address"
        },
        {
          "indexed": true,
          "internalType": "address",
          "name": "operator",
          "type": "address"
        },
        {
          "indexed": false,
          "internalType": "bool",
          "name": "approved",
          "type": "bool"
        }
      ],
      "name": "ApprovalForAll",
      "type": "event"
    },
    {
      "anonymous": false,
      "inputs": [
        {
          "indexed": true,
          "internalType": "address",
          "name": "previousOwner",
          "type": "address"
        },
        {
          "indexed": true,
          "internalType": "address",
          "name": "newOwner",
          "type": "address"
        }
      ],
      "name": "OwnershipTransferred",
      "type": "event"
    },
    {
      "anonymous": false,
      "inputs": [
        {
          "indexed": true,
          "internalType": "address",
          "name": "from",
          "type": "address"
        },
        {
          "indexed": true,
          "internalType": "address",
          "name": "to",
          "type": "address"
        },
        {
          "indexed": true,
          "internalType": "uint256",
          "name": "tokenId",
          "type": "uint256"
        }
      ],
      "name": "Transfer",
      "type": "event"
    },
    {
      "inputs": [
        {
          "internalType": "uint256",
          "name": "tokenId",
          "type": "uint256"
        }
      ],
      "name": "__burn",
      "outputs": [],
      "stateMutability": "nonpayable",
      "type": "function"
    },
    {
      "inputs": [
        {
          "internalType": "uint256",
          "name": "tokenId",
          "type": "uint256"
        }
      ],
      "name": "__exists",
      "outputs": [
        {
          "internalType": "bool",
          "name": "",
          "type": "bool"
        }
      ],
      "stateMutability": "view",
      "type": "function"
    },
    {
      "inputs": [],
      "name": "__getNextTokenId",
      "outputs": [
        {
          "internalType": "uint256",
          "name": "tokenId",
          "type": "uint256"
        }
      ],
      "stateMutability": "nonpayable",
      "type": "function"
    },
    {
      "inputs": [
        {
          "internalType": "address payable",
          "name": "owner",
          "type": "address"
        },
        {
          "internalType": "uint256",
          "name": "tokenId",
          "type": "uint256"
        },
        {
          "internalType": "string",
          "name": "tokenUri",
          "type": "string"
        }
      ],
      "name": "__issueToken",
      "outputs": [],
      "stateMutability": "nonpayable",
      "type": "function"
    },
    {
      "inputs": [],
      "name": "__recoverEther",
      "outputs": [],
      "stateMutability": "payable",
      "type": "function"
    },
    {
      "inputs": [
        {
          "internalType": "enum ITokenTypeable.TokenType",
          "name": "tokenType",
          "type": "uint8"
        },
        {
          "internalType": "address",
          "name": "tokenContract",
          "type": "address"
        },
        {
          "internalType": "uint256",
          "name": "tokenId",
          "type": "uint256"
        }
      ],
      "name": "__recoverTokens",
      "outputs": [],
      "stateMutability": "nonpayable",
      "type": "function"
    },
    {
      "inputs": [
        {
          "internalType": "string",
          "name": "baseURI",
          "type": "string"
        }
      ],
      "name": "__setBaseURI",
      "outputs": [],
      "stateMutability": "nonpayable",
      "type": "function"
    },
    {
      "inputs": [
        {
          "internalType": "uint256",
          "name": "tokenId",
          "type": "uint256"
        },
        {
          "internalType": "string",
          "name": "tokenUri",
          "type": "string"
        }
      ],
      "name": "__setTokenURI",
      "outputs": [],
      "stateMutability": "nonpayable",
      "type": "function"
    },
    {
      "inputs": [
        {
          "internalType": "address",
          "name": "to",
          "type": "address"
        },
        {
          "internalType": "uint256",
          "name": "tokenId",
          "type": "uint256"
        }
      ],
      "name": "approve",
      "outputs": [],
      "stateMutability": "nonpayable",
      "type": "function"
    },
    {
      "inputs": [
        {
          "internalType": "address",
          "name": "owner",
          "type": "address"
        }
      ],
      "name": "balanceOf",
      "outputs": [
        {
          "internalType": "uint256",
          "name": "",
          "type": "uint256"
        }
      ],
      "stateMutability": "view",
      "type": "function"
    },
    {
      "inputs": [],
      "name": "bestPony",
      "outputs": [
        {
          "internalType": "string",
          "name": "",
          "type": "string"
        }
      ],
      "stateMutability": "pure",
      "type": "function"
    },
    {
      "inputs": [
        {
          "internalType": "uint256",
          "name": "tokenId",
          "type": "uint256"
        }
      ],
      "name": "burn",
      "outputs": [],
      "stateMutability": "nonpayable",
      "type": "function"
    },
    {
      "inputs": [
        {
          "internalType": "uint256",
          "name": "tokenId",
          "type": "uint256"
        }
      ],
      "name": "getApproved",
      "outputs": [
        {
          "internalType": "address",
          "name": "",
          "type": "address"
        }
      ],
      "stateMutability": "view",
      "type": "function"
    },
    {
      "inputs": [
        {
          "internalType": "address",
          "name": "owner",
          "type": "address"
        },
        {
          "internalType": "address",
          "name": "operator",
          "type": "address"
        }
      ],
      "name": "isApprovedForAll",
      "outputs": [
        {
          "internalType": "bool",
          "name": "",
          "type": "bool"
        }
      ],
      "stateMutability": "view",
      "type": "function"
    },
    {
      "inputs": [],
      "name": "name",
      "outputs": [
        {
          "internalType": "string",
          "name": "",
          "type": "string"
        }
      ],
      "stateMutability": "view",
      "type": "function"
    },
    {
      "inputs": [],
      "name": "owner",
      "outputs": [
        {
          "internalType": "address",
          "name": "",
          "type": "address"
        }
      ],
      "stateMutability": "view",
      "type": "function"
    },
    {
      "inputs": [
        {
          "internalType": "uint256",
          "name": "tokenId",
          "type": "uint256"
        }
      ],
      "name": "ownerOf",
      "outputs": [
        {
          "internalType": "address",
          "name": "",
          "type": "address"
        }
      ],
      "stateMutability": "view",
      "type": "function"
    },
    {
      "inputs": [],
      "name": "renounceOwnership",
      "outputs": [],
      "stateMutability": "nonpayable",
      "type": "function"
    },
    {
      "inputs": [
        {
          "internalType": "address",
          "name": "from",
          "type": "address"
        },
        {
          "internalType": "address",
          "name": "to",
          "type": "address"
        },
        {
          "internalType": "uint256",
          "name": "tokenId",
          "type": "uint256"
        }
      ],
      "name": "safeTransferFrom",
      "outputs": [],
      "stateMutability": "nonpayable",
      "type": "function"
    },
    {
      "inputs": [
        {
          "internalType": "address",
          "name": "from",
          "type": "address"
        },
        {
          "internalType": "address",
          "name": "to",
          "type": "address"
        },
        {
          "internalType": "uint256",
          "name": "tokenId",
          "type": "uint256"
        },
        {
          "internalType": "bytes",
          "name": "_data",
          "type": "bytes"
        }
      ],
      "name": "safeTransferFrom",
      "outputs": [],
      "stateMutability": "nonpayable",
      "type": "function"
    },
    {
      "inputs": [
        {
          "internalType": "address",
          "name": "operator",
          "type": "address"
        },
        {
          "internalType": "bool",
          "name": "approved",
          "type": "bool"
        }
      ],
      "name": "setApprovalForAll",
      "outputs": [],
      "stateMutability": "nonpayable",
      "type": "function"
    },
    {
      "inputs": [
        {
          "internalType": "bytes4",
          "name": "interfaceId",
          "type": "bytes4"
        }
      ],
      "name": "supportsInterface",
      "outputs": [
        {
          "internalType": "bool",
          "name": "",
          "type": "bool"
        }
      ],
      "stateMutability": "view",
      "type": "function"
    },
    {
      "inputs": [],
      "name": "symbol",
      "outputs": [
        {
          "internalType": "string",
          "name": "",
          "type": "string"
        }
      ],
      "stateMutability": "view",
      "type": "function"
    },
    {
      "inputs": [
        {
          "internalType": "uint256",
          "name": "tokenId",
          "type": "uint256"
        }
      ],
      "name": "tokenURI",
      "outputs": [
        {
          "internalType": "string",
          "name": "",
          "type": "string"
        }
      ],
      "stateMutability": "view",
      "type": "function"
    },
    {
      "inputs": [
        {
          "internalType": "address",
          "name": "from",
          "type": "address"
        },
        {
          "internalType": "address",
          "name": "to",
          "type": "address"
        },
        {
          "internalType": "uint256",
          "name": "tokenId",
          "type": "uint256"
        }
      ],
      "name": "transferFrom",
      "outputs": [],
      "stateMutability": "nonpayable",
      "type": "function"
    },
    {
      "inputs": [
        {
          "internalType": "address",
          "name": "newOwner",
          "type": "address"
        }
      ],
      "name": "transferOwnership",
      "outputs": [],
      "stateMutability": "nonpayable",
      "type": "function"
    }
  ],
  "bytecode": "0x60806040523480156200001157600080fd5b5060405162004dd938038062004dd98339818101604052810190620000379190620003c8565b8282620000596200004d620000af60201b60201c565b620000b760201b60201c565b8160019080519060200190620000719291906200017b565b5080600290805190602001906200008a9291906200017b565b5050508060089080519060200190620000a59291906200017b565b50505050620004e6565b600033905090565b60008060009054906101000a900473ffffffffffffffffffffffffffffffffffffffff169050816000806101000a81548173ffffffffffffffffffffffffffffffffffffffff021916908373ffffffffffffffffffffffffffffffffffffffff1602179055508173ffffffffffffffffffffffffffffffffffffffff168173ffffffffffffffffffffffffffffffffffffffff167f8be0079c531659141344cd1fd0a4f28419497f9722a3daafe3b4186f6b6457e060405160405180910390a35050565b8280546200018990620004b0565b90600052602060002090601f016020900481019282620001ad5760008555620001f9565b82601f10620001c857805160ff1916838001178555620001f9565b82800160010185558215620001f9579182015b82811115620001f8578251825591602001919060010190620001db565b5b5090506200020891906200020c565b5090565b5b80821115620002275760008160009055506001016200020d565b5090565b6000604051905090565b600080fd5b600080fd5b600080fd5b600080fd5b6000601f19601f8301169050919050565b7f4e487b7100000000000000000000000000000000000000000000000000000000600052604160045260246000fd5b620002948262000249565b810181811067ffffffffffffffff82111715620002b657620002b56200025a565b5b80604052505050565b6000620002cb6200022b565b9050620002d9828262000289565b919050565b600067ffffffffffffffff821115620002fc57620002fb6200025a565b5b620003078262000249565b9050602081019050919050565b60005b838110156200033457808201518184015260208101905062000317565b8381111562000344576000848401525b50505050565b6000620003616200035b84620002de565b620002bf565b90508281526020810184848401111562000380576200037f62000244565b5b6200038d84828562000314565b509392505050565b600082601f830112620003ad57620003ac6200023f565b5b8151620003bf8482602086016200034a565b91505092915050565b600080600060608486031215620003e457620003e362000235565b5b600084015167ffffffffffffffff8111156200040557620004046200023a565b5b620004138682870162000395565b935050602084015167ffffffffffffffff8111156200043757620004366200023a565b5b620004458682870162000395565b925050604084015167ffffffffffffffff8111156200046957620004686200023a565b5b620004778682870162000395565b9150509250925092565b7f4e487b7100000000000000000000000000000000000000000000000000000000600052602260045260246000fd5b60006002820490506001821680620004c957607f821691505b60208210811415620004e057620004df62000481565b5b50919050565b6148e380620004f66000396000f3fe6080604052600436106101815760003560e01c80636352211e116100d157806395d89b411161008a578063c87b56dd11610064578063c87b56dd14610549578063d1a0152014610586578063e985e9c5146105af578063f2fde38b146105ec57610181565b806395d89b41146104cc578063a22cb465146104f7578063b88d4fde1461052057610181565b80636352211e146103c957806364e719241461040657806370a0823114610410578063715018a61461044d5780638553c3e9146104645780638da5cb5b146104a157610181565b806323b872dd1161013e57806345383099116101185780634538309914610323578063478d8d601461034e5780634a3b889a1461037757806358ee7173146103a057610181565b806323b872dd146102a857806342842e0e146102d157806342966c68146102fa57610181565b806301ffc9a71461018657806306fdde03146101c3578063081812fc146101ee578063095ea7b31461022b57806319511a7a146102545780631c3eeaac1461027f575b600080fd5b34801561019257600080fd5b506101ad60048036038101906101a89190612ef3565b610615565b6040516101ba9190612f3b565b60405180910390f35b3480156101cf57600080fd5b506101d8610897565b6040516101e59190612fef565b60405180910390f35b3480156101fa57600080fd5b5061021560048036038101906102109190613047565b610929565b60405161022291906130b5565b60405180910390f35b34801561023757600080fd5b50610252600480360381019061024d91906130fc565b6109ae565b005b34801561026057600080fd5b50610269610ac6565b6040516102769190612fef565b60405180910390f35b34801561028b57600080fd5b506102a660048036038101906102a19190613161565b610ae6565b005b3480156102b457600080fd5b506102cf60048036038101906102ca91906131b4565b610c17565b005b3480156102dd57600080fd5b506102f860048036038101906102f391906131b4565b610c77565b005b34801561030657600080fd5b50610321600480360381019061031c9190613047565b610c97565b005b34801561032f57600080fd5b50610338610cf3565b6040516103459190613216565b60405180910390f35b34801561035a57600080fd5b50610375600480360381019061037091906133a4565b610d8a565b005b34801561038357600080fd5b5061039e60048036038101906103999190613473565b610e1f565b005b3480156103ac57600080fd5b506103c760048036038101906103c291906134c0565b610eb1565b005b3480156103d557600080fd5b506103f060048036038101906103eb9190613047565b610f80565b6040516103fd91906130b5565b60405180910390f35b61040e611032565b005b34801561041c57600080fd5b5061043760048036038101906104329190613520565b6110fe565b6040516104449190613216565b60405180910390f35b34801561045957600080fd5b506104626111b6565b005b34801561047057600080fd5b5061048b60048036038101906104869190613047565b61123e565b6040516104989190612f3b565b60405180910390f35b3480156104ad57600080fd5b506104b66112cc565b6040516104c391906130b5565b60405180910390f35b3480156104d857600080fd5b506104e16112f5565b6040516104ee9190612fef565b60405180910390f35b34801561050357600080fd5b5061051e60048036038101906105199190613579565b611387565b005b34801561052c57600080fd5b506105476004803603810190610542919061365a565b611508565b005b34801561055557600080fd5b50610570600480360381019061056b9190613047565b61156a565b60405161057d9190612fef565b60405180910390f35b34801561059257600080fd5b506105ad60048036038101906105a89190613047565b6116bc565b005b3480156105bb57600080fd5b506105d660048036038101906105d191906136dd565b611744565b6040516105e39190612f3b565b60405180910390f35b3480156105f857600080fd5b50610613600480360381019061060e9190613520565b6117d8565b005b60007f19511a7a000000000000000000000000000000000000000000000000000000007bffffffffffffffffffffffffffffffffffffffffffffffffffffffff1916827bffffffffffffffffffffffffffffffffffffffffffffffffffffffff191614806106e057507f0e083076000000000000000000000000000000000000000000000000000000007bffffffffffffffffffffffffffffffffffffffffffffffffffffffff1916827bffffffffffffffffffffffffffffffffffffffffffffffffffffffff1916145b8061074857507f64e71924000000000000000000000000000000000000000000000000000000007bffffffffffffffffffffffffffffffffffffffffffffffffffffffff1916827bffffffffffffffffffffffffffffffffffffffffffffffffffffffff1916145b806107b057507f1c3eeaac000000000000000000000000000000000000000000000000000000007bffffffffffffffffffffffffffffffffffffffffffffffffffffffff1916827bffffffffffffffffffffffffffffffffffffffffffffffffffffffff1916145b8061081857507fc87b56dd000000000000000000000000000000000000000000000000000000007bffffffffffffffffffffffffffffffffffffffffffffffffffffffff1916827bffffffffffffffffffffffffffffffffffffffffffffffffffffffff1916145b8061088057507f42966c68000000000000000000000000000000000000000000000000000000007bffffffffffffffffffffffffffffffffffffffffffffffffffffffff1916827bffffffffffffffffffffffffffffffffffffffffffffffffffffffff1916145b80610890575061088f826118d0565b5b9050919050565b6060600180546108a69061374c565b80601f01602080910402602001604051908101604052809291908181526020018280546108d29061374c565b801561091f5780601f106108f45761010080835404028352916020019161091f565b820191906000526020600020905b81548152906001019060200180831161090257829003601f168201915b5050505050905090565b6000610934826119b2565b610973576040517f08c379a000000000000000000000000000000000000000000000000000000000815260040161096a906137f0565b60405180910390fd5b6005600083815260200190815260200160002060009054906101000a900473ffffffffffffffffffffffffffffffffffffffff169050919050565b60006109b982610f80565b90508073ffffffffffffffffffffffffffffffffffffffff168373ffffffffffffffffffffffffffffffffffffffff161415610a2a576040517f08c379a0000000000000000000000000000000000000000000000000000000008152600401610a2190613882565b60405180910390fd5b8073ffffffffffffffffffffffffffffffffffffffff16610a49611a1e565b73ffffffffffffffffffffffffffffffffffffffff161480610a785750610a7781610a72611a1e565b611744565b5b610ab7576040517f08c379a0000000000000000000000000000000000000000000000000000000008152600401610aae90613914565b60405180910390fd5b610ac18383611a26565b505050565b60606040518060600160405280603f815260200161486f603f9139905090565b610aee611a1e565b73ffffffffffffffffffffffffffffffffffffffff16610b0c6112cc565b73ffffffffffffffffffffffffffffffffffffffff1614610b62576040517f08c379a0000000000000000000000000000000000000000000000000000000008152600401610b5990613980565b60405180910390fd5b60016003811115610b7657610b756139a0565b5b836003811115610b8957610b886139a0565b5b1415610b9e57610b998282611adf565b610c12565b60026003811115610bb257610bb16139a0565b5b836003811115610bc557610bc46139a0565b5b1415610bd957610bd482611bd5565b610c11565b600380811115610bec57610beb6139a0565b5b836003811115610bff57610bfe6139a0565b5b1415610c1057610c0f8282611c83565b5b5b5b505050565b610c28610c22611a1e565b82611cfd565b610c67576040517f08c379a0000000000000000000000000000000000000000000000000000000008152600401610c5e90613a41565b60405180910390fd5b610c72838383611ddb565b505050565b610c9283838360405180602001604052806000815250611508565b505050565b610ca8610ca2611a1e565b82611cfd565b610ce7576040517f08c379a0000000000000000000000000000000000000000000000000000000008152600401610cde90613aad565b60405180910390fd5b610cf081612037565b50565b6000610cfd611a1e565b73ffffffffffffffffffffffffffffffffffffffff16610d1b6112cc565b73ffffffffffffffffffffffffffffffffffffffff1614610d71576040517f08c379a0000000000000000000000000000000000000000000000000000000008152600401610d6890613980565b60405180910390fd5b610d7b600961208a565b9050610d876009612098565b90565b610d92611a1e565b73ffffffffffffffffffffffffffffffffffffffff16610db06112cc565b73ffffffffffffffffffffffffffffffffffffffff1614610e06576040517f08c379a0000000000000000000000000000000000000000000000000000000008152600401610dfd90613980565b60405180910390fd5b610e1083836120ae565b610e1a82826120cc565b505050565b610e27611a1e565b73ffffffffffffffffffffffffffffffffffffffff16610e456112cc565b73ffffffffffffffffffffffffffffffffffffffff1614610e9b576040517f08c379a0000000000000000000000000000000000000000000000000000000008152600401610e9290613980565b60405180910390fd5b818160089190610eac929190612d1e565b505050565b610eb9611a1e565b73ffffffffffffffffffffffffffffffffffffffff16610ed76112cc565b73ffffffffffffffffffffffffffffffffffffffff1614610f2d576040517f08c379a0000000000000000000000000000000000000000000000000000000008152600401610f2490613980565b60405180910390fd5b610f7b8383838080601f016020809104026020016040519081016040528093929190818152602001838380828437600081840152601f19601f820116905080830192505050505050506120cc565b505050565b6000806003600084815260200190815260200160002060009054906101000a900473ffffffffffffffffffffffffffffffffffffffff169050600073ffffffffffffffffffffffffffffffffffffffff168173ffffffffffffffffffffffffffffffffffffffff161415611029576040517f08c379a000000000000000000000000000000000000000000000000000000000815260040161102090613b3f565b60405180910390fd5b80915050919050565b61103a611a1e565b73ffffffffffffffffffffffffffffffffffffffff166110586112cc565b73ffffffffffffffffffffffffffffffffffffffff16146110ae576040517f08c379a00000000000000000000000000000000000000000000000000000000081526004016110a590613980565b60405180910390fd5b6110b66112cc565b73ffffffffffffffffffffffffffffffffffffffff166108fc479081150290604051600060405180830381858888f193505050501580156110fb573d6000803e3d6000fd5b50565b60008073ffffffffffffffffffffffffffffffffffffffff168273ffffffffffffffffffffffffffffffffffffffff16141561116f576040517f08c379a000000000000000000000000000000000000000000000000000000000815260040161116690613bd1565b60405180910390fd5b600460008373ffffffffffffffffffffffffffffffffffffffff1673ffffffffffffffffffffffffffffffffffffffff168152602001908152602001600020549050919050565b6111be611a1e565b73ffffffffffffffffffffffffffffffffffffffff166111dc6112cc565b73ffffffffffffffffffffffffffffffffffffffff1614611232576040517f08c379a000000000000000000000000000000000000000000000000000000000815260040161122990613980565b60405180910390fd5b61123c6000612140565b565b6000611248611a1e565b73ffffffffffffffffffffffffffffffffffffffff166112666112cc565b73ffffffffffffffffffffffffffffffffffffffff16146112bc576040517f08c379a00000000000000000000000000000000000000000000000000000000081526004016112b390613980565b60405180910390fd5b6112c5826119b2565b9050919050565b60008060009054906101000a900473ffffffffffffffffffffffffffffffffffffffff16905090565b6060600280546113049061374c565b80601f01602080910402602001604051908101604052809291908181526020018280546113309061374c565b801561137d5780601f106113525761010080835404028352916020019161137d565b820191906000526020600020905b81548152906001019060200180831161136057829003601f168201915b5050505050905090565b61138f611a1e565b73ffffffffffffffffffffffffffffffffffffffff168273ffffffffffffffffffffffffffffffffffffffff1614156113fd576040517f08c379a00000000000000000000000000000000000000000000000000000000081526004016113f490613c3d565b60405180910390fd5b806006600061140a611a1e565b73ffffffffffffffffffffffffffffffffffffffff1673ffffffffffffffffffffffffffffffffffffffff16815260200190815260200160002060008473ffffffffffffffffffffffffffffffffffffffff1673ffffffffffffffffffffffffffffffffffffffff16815260200190815260200160002060006101000a81548160ff0219169083151502179055508173ffffffffffffffffffffffffffffffffffffffff166114b7611a1e565b73ffffffffffffffffffffffffffffffffffffffff167f17307eab39ab6107e8899845ad3d59bd9653f200f220920489ca2b5937696c31836040516114fc9190612f3b565b60405180910390a35050565b611519611513611a1e565b83611cfd565b611558576040517f08c379a000000000000000000000000000000000000000000000000000000000815260040161154f90613a41565b60405180910390fd5b61156484848484612204565b50505050565b6060611575826119b2565b6115b4576040517f08c379a00000000000000000000000000000000000000000000000000000000081526004016115ab90613ccf565b60405180910390fd5b60006007600084815260200190815260200160002080546115d49061374c565b80601f01602080910402602001604051908101604052809291908181526020018280546116009061374c565b801561164d5780601f106116225761010080835404028352916020019161164d565b820191906000526020600020905b81548152906001019060200180831161163057829003601f168201915b50505050509050600061165e612260565b90506000815114156116745781925050506116b7565b6000825111156116a9578082604051602001611691929190613d2b565b604051602081830303815290604052925050506116b7565b6116b2846122f2565b925050505b919050565b6116c4611a1e565b73ffffffffffffffffffffffffffffffffffffffff166116e26112cc565b73ffffffffffffffffffffffffffffffffffffffff1614611738576040517f08c379a000000000000000000000000000000000000000000000000000000000815260040161172f90613980565b60405180910390fd5b61174181612037565b50565b6000600660008473ffffffffffffffffffffffffffffffffffffffff1673ffffffffffffffffffffffffffffffffffffffff16815260200190815260200160002060008373ffffffffffffffffffffffffffffffffffffffff1673ffffffffffffffffffffffffffffffffffffffff16815260200190815260200160002060009054906101000a900460ff16905092915050565b6117e0611a1e565b73ffffffffffffffffffffffffffffffffffffffff166117fe6112cc565b73ffffffffffffffffffffffffffffffffffffffff1614611854576040517f08c379a000000000000000000000000000000000000000000000000000000000815260040161184b90613980565b60405180910390fd5b600073ffffffffffffffffffffffffffffffffffffffff168173ffffffffffffffffffffffffffffffffffffffff1614156118c4576040517f08c379a00000000000000000000000000000000000000000000000000000000081526004016118bb90613dc1565b60405180910390fd5b6118cd81612140565b50565b60007f80ac58cd000000000000000000000000000000000000000000000000000000007bffffffffffffffffffffffffffffffffffffffffffffffffffffffff1916827bffffffffffffffffffffffffffffffffffffffffffffffffffffffff1916148061199b57507f5b5e139f000000000000000000000000000000000000000000000000000000007bffffffffffffffffffffffffffffffffffffffffffffffffffffffff1916827bffffffffffffffffffffffffffffffffffffffffffffffffffffffff1916145b806119ab57506119aa82612399565b5b9050919050565b60008073ffffffffffffffffffffffffffffffffffffffff166003600084815260200190815260200160002060009054906101000a900473ffffffffffffffffffffffffffffffffffffffff1673ffffffffffffffffffffffffffffffffffffffff1614159050919050565b600033905090565b816005600083815260200190815260200160002060006101000a81548173ffffffffffffffffffffffffffffffffffffffff021916908373ffffffffffffffffffffffffffffffffffffffff160217905550808273ffffffffffffffffffffffffffffffffffffffff16611a9983610f80565b73ffffffffffffffffffffffffffffffffffffffff167f8c5be1e5ebec7d5bd14f71427d1e84f3dd0314c0f7b2291e5b200ac8c7c3b92560405160405180910390a45050565b8173ffffffffffffffffffffffffffffffffffffffff1663f242432a30611b046112cc565b848673ffffffffffffffffffffffffffffffffffffffff1662fdd58e30886040518363ffffffff1660e01b8152600401611b3f929190613de1565b602060405180830381865afa158015611b5c573d6000803e3d6000fd5b505050506040513d601f19601f82011682018060405250810190611b809190613e1f565b6040518563ffffffff1660e01b8152600401611b9f9493929190613ee2565b600060405180830381600087803b158015611bb957600080fd5b505af1158015611bcd573d6000803e3d6000fd5b505050505050565b611c80611be06112cc565b8273ffffffffffffffffffffffffffffffffffffffff166370a08231306040518263ffffffff1660e01b8152600401611c1991906130b5565b602060405180830381865afa158015611c36573d6000803e3d6000fd5b505050506040513d601f19601f82011682018060405250810190611c5a9190613e1f565b8373ffffffffffffffffffffffffffffffffffffffff166124039092919063ffffffff16565b50565b8173ffffffffffffffffffffffffffffffffffffffff166342842e0e30611ca86112cc565b846040518463ffffffff1660e01b8152600401611cc793929190613f3a565b600060405180830381600087803b158015611ce157600080fd5b505af1158015611cf5573d6000803e3d6000fd5b505050505050565b6000611d08826119b2565b611d47576040517f08c379a0000000000000000000000000000000000000000000000000000000008152600401611d3e90613fe3565b60405180910390fd5b6000611d5283610f80565b90508073ffffffffffffffffffffffffffffffffffffffff168473ffffffffffffffffffffffffffffffffffffffff161480611dc157508373ffffffffffffffffffffffffffffffffffffffff16611da984610929565b73ffffffffffffffffffffffffffffffffffffffff16145b80611dd25750611dd18185611744565b5b91505092915050565b8273ffffffffffffffffffffffffffffffffffffffff16611dfb82610f80565b73ffffffffffffffffffffffffffffffffffffffff1614611e51576040517f08c379a0000000000000000000000000000000000000000000000000000000008152600401611e4890614075565b60405180910390fd5b600073ffffffffffffffffffffffffffffffffffffffff168273ffffffffffffffffffffffffffffffffffffffff161415611ec1576040517f08c379a0000000000000000000000000000000000000000000000000000000008152600401611eb890614107565b60405180910390fd5b611ecc838383612489565b611ed7600082611a26565b6001600460008573ffffffffffffffffffffffffffffffffffffffff1673ffffffffffffffffffffffffffffffffffffffff1681526020019081526020016000206000828254611f279190614156565b925050819055506001600460008473ffffffffffffffffffffffffffffffffffffffff1673ffffffffffffffffffffffffffffffffffffffff1681526020019081526020016000206000828254611f7e919061418a565b92505081905550816003600083815260200190815260200160002060006101000a81548173ffffffffffffffffffffffffffffffffffffffff021916908373ffffffffffffffffffffffffffffffffffffffff160217905550808273ffffffffffffffffffffffffffffffffffffffff168473ffffffffffffffffffffffffffffffffffffffff167fddf252ad1be2c89b69c2b068fc378daa952ba7f163c4a11628f55a4df523b3ef60405160405180910390a4505050565b6120408161248e565b60006007600083815260200190815260200160002080546120609061374c565b905014612087576007600082815260200190815260200160002060006120869190612da4565b5b50565b600081600001549050919050565b6001816000016000828254019250508190555050565b6120c882826040518060200160405280600081525061259f565b5050565b6120d5826119b2565b612114576040517f08c379a000000000000000000000000000000000000000000000000000000000815260040161210b90614252565b60405180910390fd5b8060076000848152602001908152602001600020908051906020019061213b929190612de4565b505050565b60008060009054906101000a900473ffffffffffffffffffffffffffffffffffffffff169050816000806101000a81548173ffffffffffffffffffffffffffffffffffffffff021916908373ffffffffffffffffffffffffffffffffffffffff1602179055508173ffffffffffffffffffffffffffffffffffffffff168173ffffffffffffffffffffffffffffffffffffffff167f8be0079c531659141344cd1fd0a4f28419497f9722a3daafe3b4186f6b6457e060405160405180910390a35050565b61220f848484611ddb565b61221b848484846125fa565b61225a576040517f08c379a0000000000000000000000000000000000000000000000000000000008152600401612251906142e4565b60405180910390fd5b50505050565b60606008805461226f9061374c565b80601f016020809104026020016040519081016040528092919081815260200182805461229b9061374c565b80156122e85780601f106122bd576101008083540402835291602001916122e8565b820191906000526020600020905b8154815290600101906020018083116122cb57829003601f168201915b5050505050905090565b60606122fd826119b2565b61233c576040517f08c379a000000000000000000000000000000000000000000000000000000000815260040161233390614376565b60405180910390fd5b6000612346612260565b905060008151116123665760405180602001604052806000815250612391565b8061237084612782565b604051602001612381929190613d2b565b6040516020818303038152906040525b915050919050565b60007f01ffc9a7000000000000000000000000000000000000000000000000000000007bffffffffffffffffffffffffffffffffffffffffffffffffffffffff1916827bffffffffffffffffffffffffffffffffffffffffffffffffffffffff1916149050919050565b6124848363a9059cbb60e01b8484604051602401612422929190613de1565b604051602081830303815290604052907bffffffffffffffffffffffffffffffffffffffffffffffffffffffff19166020820180517bffffffffffffffffffffffffffffffffffffffffffffffffffffffff83818316178352505050506128e3565b505050565b505050565b600061249982610f80565b90506124a781600084612489565b6124b2600083611a26565b6001600460008373ffffffffffffffffffffffffffffffffffffffff1673ffffffffffffffffffffffffffffffffffffffff16815260200190815260200160002060008282546125029190614156565b925050819055506003600083815260200190815260200160002060006101000a81549073ffffffffffffffffffffffffffffffffffffffff021916905581600073ffffffffffffffffffffffffffffffffffffffff168273ffffffffffffffffffffffffffffffffffffffff167fddf252ad1be2c89b69c2b068fc378daa952ba7f163c4a11628f55a4df523b3ef60405160405180910390a45050565b6125a983836129aa565b6125b660008484846125fa565b6125f5576040517f08c379a00000000000000000000000000000000000000000000000000000000081526004016125ec906142e4565b60405180910390fd5b505050565b600061261b8473ffffffffffffffffffffffffffffffffffffffff16612b78565b15612775578373ffffffffffffffffffffffffffffffffffffffff1663150b7a02612644611a1e565b8786866040518563ffffffff1660e01b815260040161266694939291906143da565b6020604051808303816000875af19250505080156126a257506040513d601f19601f8201168201806040525081019061269f919061443b565b60015b612725573d80600081146126d2576040519150601f19603f3d011682016040523d82523d6000602084013e6126d7565b606091505b5060008151141561271d576040517f08c379a0000000000000000000000000000000000000000000000000000000008152600401612714906142e4565b60405180910390fd5b805181602001fd5b63150b7a0260e01b7bffffffffffffffffffffffffffffffffffffffffffffffffffffffff1916817bffffffffffffffffffffffffffffffffffffffffffffffffffffffff19161491505061277a565b600190505b949350505050565b606060008214156127ca576040518060400160405280600181526020017f300000000000000000000000000000000000000000000000000000000000000081525090506128de565b600082905060005b600082146127fc5780806127e590614468565b915050600a826127f591906144e0565b91506127d2565b60008167ffffffffffffffff81111561281857612817613279565b5b6040519080825280601f01601f19166020018201604052801561284a5781602001600182028036833780820191505090505b5090505b600085146128d7576001826128639190614156565b9150600a856128729190614511565b603061287e919061418a565b60f81b81838151811061289457612893614542565b5b60200101907effffffffffffffffffffffffffffffffffffffffffffffffffffffffffffff1916908160001a905350600a856128d091906144e0565b945061284e565b8093505050505b919050565b6000612945826040518060400160405280602081526020017f5361666545524332303a206c6f772d6c6576656c2063616c6c206661696c65648152508573ffffffffffffffffffffffffffffffffffffffff16612b8b9092919063ffffffff16565b90506000815111156129a557808060200190518101906129659190614586565b6129a4576040517f08c379a000000000000000000000000000000000000000000000000000000000815260040161299b90614625565b60405180910390fd5b5b505050565b600073ffffffffffffffffffffffffffffffffffffffff168273ffffffffffffffffffffffffffffffffffffffff161415612a1a576040517f08c379a0000000000000000000000000000000000000000000000000000000008152600401612a1190614691565b60405180910390fd5b612a23816119b2565b15612a63576040517f08c379a0000000000000000000000000000000000000000000000000000000008152600401612a5a906146fd565b60405180910390fd5b612a6f60008383612489565b6001600460008473ffffffffffffffffffffffffffffffffffffffff1673ffffffffffffffffffffffffffffffffffffffff1681526020019081526020016000206000828254612abf919061418a565b92505081905550816003600083815260200190815260200160002060006101000a81548173ffffffffffffffffffffffffffffffffffffffff021916908373ffffffffffffffffffffffffffffffffffffffff160217905550808273ffffffffffffffffffffffffffffffffffffffff16600073ffffffffffffffffffffffffffffffffffffffff167fddf252ad1be2c89b69c2b068fc378daa952ba7f163c4a11628f55a4df523b3ef60405160405180910390a45050565b600080823b905060008111915050919050565b6060612b9a8484600085612ba3565b90509392505050565b606082471015612be8576040517f08c379a0000000000000000000000000000000000000000000000000000000008152600401612bdf9061478f565b60405180910390fd5b612bf185612b78565b612c30576040517f08c379a0000000000000000000000000000000000000000000000000000000008152600401612c27906147fb565b60405180910390fd5b6000808673ffffffffffffffffffffffffffffffffffffffff168587604051612c599190614857565b60006040518083038185875af1925050503d8060008114612c96576040519150601f19603f3d011682016040523d82523d6000602084013e612c9b565b606091505b5091509150612cab828286612cb7565b92505050949350505050565b60608315612cc757829050612d17565b600083511115612cda5782518084602001fd5b816040517f08c379a0000000000000000000000000000000000000000000000000000000008152600401612d0e9190612fef565b60405180910390fd5b9392505050565b828054612d2a9061374c565b90600052602060002090601f016020900481019282612d4c5760008555612d93565b82601f10612d6557803560ff1916838001178555612d93565b82800160010185558215612d93579182015b82811115612d92578235825591602001919060010190612d77565b5b509050612da09190612e6a565b5090565b508054612db09061374c565b6000825580601f10612dc25750612de1565b601f016020900490600052602060002090810190612de09190612e6a565b5b50565b828054612df09061374c565b90600052602060002090601f016020900481019282612e125760008555612e59565b82601f10612e2b57805160ff1916838001178555612e59565b82800160010185558215612e59579182015b82811115612e58578251825591602001919060010190612e3d565b5b509050612e669190612e6a565b5090565b5b80821115612e83576000816000905550600101612e6b565b5090565b6000604051905090565b600080fd5b600080fd5b60007fffffffff0000000000000000000000000000000000000000000000000000000082169050919050565b612ed081612e9b565b8114612edb57600080fd5b50565b600081359050612eed81612ec7565b92915050565b600060208284031215612f0957612f08612e91565b5b6000612f1784828501612ede565b91505092915050565b60008115159050919050565b612f3581612f20565b82525050565b6000602082019050612f506000830184612f2c565b92915050565b600081519050919050565b600082825260208201905092915050565b60005b83811015612f90578082015181840152602081019050612f75565b83811115612f9f576000848401525b50505050565b6000601f19601f8301169050919050565b6000612fc182612f56565b612fcb8185612f61565b9350612fdb818560208601612f72565b612fe481612fa5565b840191505092915050565b600060208201905081810360008301526130098184612fb6565b905092915050565b6000819050919050565b61302481613011565b811461302f57600080fd5b50565b6000813590506130418161301b565b92915050565b60006020828403121561305d5761305c612e91565b5b600061306b84828501613032565b91505092915050565b600073ffffffffffffffffffffffffffffffffffffffff82169050919050565b600061309f82613074565b9050919050565b6130af81613094565b82525050565b60006020820190506130ca60008301846130a6565b92915050565b6130d981613094565b81146130e457600080fd5b50565b6000813590506130f6816130d0565b92915050565b6000806040838503121561311357613112612e91565b5b6000613121858286016130e7565b925050602061313285828601613032565b9150509250929050565b6004811061314957600080fd5b50565b60008135905061315b8161313c565b92915050565b60008060006060848603121561317a57613179612e91565b5b60006131888682870161314c565b9350506020613199868287016130e7565b92505060406131aa86828701613032565b9150509250925092565b6000806000606084860312156131cd576131cc612e91565b5b60006131db868287016130e7565b93505060206131ec868287016130e7565b92505060406131fd86828701613032565b9150509250925092565b61321081613011565b82525050565b600060208201905061322b6000830184613207565b92915050565b600061323c82613074565b9050919050565b61324c81613231565b811461325757600080fd5b50565b60008135905061326981613243565b92915050565b600080fd5b600080fd5b7f4e487b7100000000000000000000000000000000000000000000000000000000600052604160045260246000fd5b6132b182612fa5565b810181811067ffffffffffffffff821117156132d0576132cf613279565b5b80604052505050565b60006132e3612e87565b90506132ef82826132a8565b919050565b600067ffffffffffffffff82111561330f5761330e613279565b5b61331882612fa5565b9050602081019050919050565b82818337600083830152505050565b6000613347613342846132f4565b6132d9565b90508281526020810184848401111561336357613362613274565b5b61336e848285613325565b509392505050565b600082601f83011261338b5761338a61326f565b5b813561339b848260208601613334565b91505092915050565b6000806000606084860312156133bd576133bc612e91565b5b60006133cb8682870161325a565b93505060206133dc86828701613032565b925050604084013567ffffffffffffffff8111156133fd576133fc612e96565b5b61340986828701613376565b9150509250925092565b600080fd5b600080fd5b60008083601f8401126134335761343261326f565b5b8235905067ffffffffffffffff8111156134505761344f613413565b5b60208301915083600182028301111561346c5761346b613418565b5b9250929050565b6000806020838503121561348a57613489612e91565b5b600083013567ffffffffffffffff8111156134a8576134a7612e96565b5b6134b48582860161341d565b92509250509250929050565b6000806000604084860312156134d9576134d8612e91565b5b60006134e786828701613032565b935050602084013567ffffffffffffffff81111561350857613507612e96565b5b6135148682870161341d565b92509250509250925092565b60006020828403121561353657613535612e91565b5b6000613544848285016130e7565b91505092915050565b61355681612f20565b811461356157600080fd5b50565b6000813590506135738161354d565b92915050565b600080604083850312156135905761358f612e91565b5b600061359e858286016130e7565b92505060206135af85828601613564565b9150509250929050565b600067ffffffffffffffff8211156135d4576135d3613279565b5b6135dd82612fa5565b9050602081019050919050565b60006135fd6135f8846135b9565b6132d9565b90508281526020810184848401111561361957613618613274565b5b613624848285613325565b509392505050565b600082601f8301126136415761364061326f565b5b81356136518482602086016135ea565b91505092915050565b6000806000806080858703121561367457613673612e91565b5b6000613682878288016130e7565b9450506020613693878288016130e7565b93505060406136a487828801613032565b925050606085013567ffffffffffffffff8111156136c5576136c4612e96565b5b6136d18782880161362c565b91505092959194509250565b600080604083850312156136f4576136f3612e91565b5b6000613702858286016130e7565b9250506020613713858286016130e7565b9150509250929050565b7f4e487b7100000000000000000000000000000000000000000000000000000000600052602260045260246000fd5b6000600282049050600182168061376457607f821691505b602082108114156137785761377761371d565b5b50919050565b7f4552433732313a20617070726f76656420717565727920666f72206e6f6e657860008201527f697374656e7420746f6b656e0000000000000000000000000000000000000000602082015250565b60006137da602c83612f61565b91506137e58261377e565b604082019050919050565b60006020820190508181036000830152613809816137cd565b9050919050565b7f4552433732313a20617070726f76616c20746f2063757272656e74206f776e6560008201527f7200000000000000000000000000000000000000000000000000000000000000602082015250565b600061386c602183612f61565b915061387782613810565b604082019050919050565b6000602082019050818103600083015261389b8161385f565b9050919050565b7f4552433732313a20617070726f76652063616c6c6572206973206e6f74206f7760008201527f6e6572206e6f7220617070726f76656420666f7220616c6c0000000000000000602082015250565b60006138fe603883612f61565b9150613909826138a2565b604082019050919050565b6000602082019050818103600083015261392d816138f1565b9050919050565b7f4f776e61626c653a2063616c6c6572206973206e6f7420746865206f776e6572600082015250565b600061396a602083612f61565b915061397582613934565b602082019050919050565b600060208201905081810360008301526139998161395d565b9050919050565b7f4e487b7100000000000000000000000000000000000000000000000000000000600052602160045260246000fd5b7f4552433732313a207472616e736665722063616c6c6572206973206e6f74206f60008201527f776e6572206e6f7220617070726f766564000000000000000000000000000000602082015250565b6000613a2b603183612f61565b9150613a36826139cf565b604082019050919050565b60006020820190508181036000830152613a5a81613a1e565b9050919050565b7f4e6f7420617070726f766564206f72206f776e65720000000000000000000000600082015250565b6000613a97601583612f61565b9150613aa282613a61565b602082019050919050565b60006020820190508181036000830152613ac681613a8a565b9050919050565b7f4552433732313a206f776e657220717565727920666f72206e6f6e657869737460008201527f656e7420746f6b656e0000000000000000000000000000000000000000000000602082015250565b6000613b29602983612f61565b9150613b3482613acd565b604082019050919050565b60006020820190508181036000830152613b5881613b1c565b9050919050565b7f4552433732313a2062616c616e636520717565727920666f7220746865207a6560008201527f726f206164647265737300000000000000000000000000000000000000000000602082015250565b6000613bbb602a83612f61565b9150613bc682613b5f565b604082019050919050565b60006020820190508181036000830152613bea81613bae565b9050919050565b7f4552433732313a20617070726f766520746f2063616c6c657200000000000000600082015250565b6000613c27601983612f61565b9150613c3282613bf1565b602082019050919050565b60006020820190508181036000830152613c5681613c1a565b9050919050565b7f45524337323155524953746f726167653a2055524920717565727920666f722060008201527f6e6f6e6578697374656e7420746f6b656e000000000000000000000000000000602082015250565b6000613cb9603183612f61565b9150613cc482613c5d565b604082019050919050565b60006020820190508181036000830152613ce881613cac565b9050919050565b600081905092915050565b6000613d0582612f56565b613d0f8185613cef565b9350613d1f818560208601612f72565b80840191505092915050565b6000613d378285613cfa565b9150613d438284613cfa565b91508190509392505050565b7f4f776e61626c653a206e6577206f776e657220697320746865207a65726f206160008201527f6464726573730000000000000000000000000000000000000000000000000000602082015250565b6000613dab602683612f61565b9150613db682613d4f565b604082019050919050565b60006020820190508181036000830152613dda81613d9e565b9050919050565b6000604082019050613df660008301856130a6565b613e036020830184613207565b9392505050565b600081519050613e198161301b565b92915050565b600060208284031215613e3557613e34612e91565b5b6000613e4384828501613e0a565b91505092915050565b6000819050919050565b6000613e71613e6c613e6784613074565b613e4c565b613074565b9050919050565b6000613e8382613e56565b9050919050565b6000613e9582613e78565b9050919050565b613ea581613e8a565b82525050565b600082825260208201905092915050565b50565b6000613ecc600083613eab565b9150613ed782613ebc565b600082019050919050565b600060a082019050613ef760008301876130a6565b613f046020830186613e9c565b613f116040830185613207565b613f1e6060830184613207565b8181036080830152613f2f81613ebf565b905095945050505050565b6000606082019050613f4f60008301866130a6565b613f5c6020830185613e9c565b613f696040830184613207565b949350505050565b7f4552433732313a206f70657261746f7220717565727920666f72206e6f6e657860008201527f697374656e7420746f6b656e0000000000000000000000000000000000000000602082015250565b6000613fcd602c83612f61565b9150613fd882613f71565b604082019050919050565b60006020820190508181036000830152613ffc81613fc0565b9050919050565b7f4552433732313a207472616e73666572206f6620746f6b656e2074686174206960008201527f73206e6f74206f776e0000000000000000000000000000000000000000000000602082015250565b600061405f602983612f61565b915061406a82614003565b604082019050919050565b6000602082019050818103600083015261408e81614052565b9050919050565b7f4552433732313a207472616e7366657220746f20746865207a65726f2061646460008201527f7265737300000000000000000000000000000000000000000000000000000000602082015250565b60006140f1602483612f61565b91506140fc82614095565b604082019050919050565b60006020820190508181036000830152614120816140e4565b9050919050565b7f4e487b7100000000000000000000000000000000000000000000000000000000600052601160045260246000fd5b600061416182613011565b915061416c83613011565b92508282101561417f5761417e614127565b5b828203905092915050565b600061419582613011565b91506141a083613011565b9250827fffffffffffffffffffffffffffffffffffffffffffffffffffffffffffffffff038211156141d5576141d4614127565b5b828201905092915050565b7f45524337323155524953746f726167653a2055524920736574206f66206e6f6e60008201527f6578697374656e7420746f6b656e000000000000000000000000000000000000602082015250565b600061423c602e83612f61565b9150614247826141e0565b604082019050919050565b6000602082019050818103600083015261426b8161422f565b9050919050565b7f4552433732313a207472616e7366657220746f206e6f6e20455243373231526560008201527f63656976657220696d706c656d656e7465720000000000000000000000000000602082015250565b60006142ce603283612f61565b91506142d982614272565b604082019050919050565b600060208201905081810360008301526142fd816142c1565b9050919050565b7f4552433732314d657461646174613a2055524920717565727920666f72206e6f60008201527f6e6578697374656e7420746f6b656e0000000000000000000000000000000000602082015250565b6000614360602f83612f61565b915061436b82614304565b604082019050919050565b6000602082019050818103600083015261438f81614353565b9050919050565b600081519050919050565b60006143ac82614396565b6143b68185613eab565b93506143c6818560208601612f72565b6143cf81612fa5565b840191505092915050565b60006080820190506143ef60008301876130a6565b6143fc60208301866130a6565b6144096040830185613207565b818103606083015261441b81846143a1565b905095945050505050565b60008151905061443581612ec7565b92915050565b60006020828403121561445157614450612e91565b5b600061445f84828501614426565b91505092915050565b600061447382613011565b91507fffffffffffffffffffffffffffffffffffffffffffffffffffffffffffffffff8214156144a6576144a5614127565b5b600182019050919050565b7f4e487b7100000000000000000000000000000000000000000000000000000000600052601260045260246000fd5b60006144eb82613011565b91506144f683613011565b925082614506576145056144b1565b5b828204905092915050565b600061451c82613011565b915061452783613011565b925082614537576145366144b1565b5b828206905092915050565b7f4e487b7100000000000000000000000000000000000000000000000000000000600052603260045260246000fd5b6000815190506145808161354d565b92915050565b60006020828403121561459c5761459b612e91565b5b60006145aa84828501614571565b91505092915050565b7f5361666545524332303a204552433230206f7065726174696f6e20646964206e60008201527f6f74207375636365656400000000000000000000000000000000000000000000602082015250565b600061460f602a83612f61565b915061461a826145b3565b604082019050919050565b6000602082019050818103600083015261463e81614602565b9050919050565b7f4552433732313a206d696e7420746f20746865207a65726f2061646472657373600082015250565b600061467b602083612f61565b915061468682614645565b602082019050919050565b600060208201905081810360008301526146aa8161466e565b9050919050565b7f4552433732313a20746f6b656e20616c7265616479206d696e74656400000000600082015250565b60006146e7601c83612f61565b91506146f2826146b1565b602082019050919050565b60006020820190508181036000830152614716816146da565b9050919050565b7f416464726573733a20696e73756666696369656e742062616c616e636520666f60008201527f722063616c6c0000000000000000000000000000000000000000000000000000602082015250565b6000614779602683612f61565b91506147848261471d565b604082019050919050565b600060208201905081810360008301526147a88161476c565b9050919050565b7f416464726573733a2063616c6c20746f206e6f6e2d636f6e7472616374000000600082015250565b60006147e5601d83612f61565b91506147f0826147af565b602082019050919050565b60006020820190508181036000830152614814816147d8565b9050919050565b600081905092915050565b600061483182614396565b61483b818561481b565b935061484b818560208601612f72565b80840191505092915050565b60006148638284614826565b91508190509291505056fe5477696c6967687420537061726b6c6520697320746865206375746573742c20736d6172746573742c20616c6c2061726f756e64206265737420706f6e7921a264697066735822122039c3994a56d3e0fb560ad4b4c366f90b6c6e7ef6b230c87c5ad15ff690b4194764736f6c634300080a0033",
  "linkReferences": {},
  "deployedLinkReferences": {}
}