{
  "address": "0xEa9984D980E9353aCfc82A01E21D5FD58646c1a5",
  "abi": [
    {
      "inputs": [],
      "stateMutability": "nonpayable",
      "type": "constructor"
    },
    {
      "anonymous": false,
      "inputs": [
        {
          "indexed": true,
          "internalType": "address",
          "name": "owner",
          "type": "address"
        },
        {
          "indexed": true,
          "internalType": "address",
          "name": "approved",
          "type": "address"
        },
        {
          "indexed": true,
          "internalType": "uint256",
          "name": "tokenId",
          "type": "uint256"
        }
      ],
      "name": "Approval",
      "type": "event"
    },
    {
      "anonymous": false,
      "inputs": [
        {
          "indexed": true,
          "internalType": "address",
          "name": "owner",
          "type": "address"
        },
        {
          "indexed": true,
          "internalType": "address",
          "name": "operator",
          "type": "address"
        },
        {
          "indexed": false,
          "internalType": "bool",
          "name": "approved",
          "type": "bool"
        }
      ],
      "name": "ApprovalForAll",
      "type": "event"
    },
    {
      "anonymous": false,
      "inputs": [
        {
          "indexed": true,
          "internalType": "address",
          "name": "previousOwner",
          "type": "address"
        },
        {
          "indexed": true,
          "internalType": "address",
          "name": "newOwner",
          "type": "address"
        }
      ],
      "name": "OwnershipTransferred",
      "type": "event"
    },
    {
      "anonymous": false,
      "inputs": [
        {
          "indexed": true,
          "internalType": "address",
          "name": "from",
          "type": "address"
        },
        {
          "indexed": true,
          "internalType": "address",
          "name": "to",
          "type": "address"
        },
        {
          "indexed": true,
          "internalType": "uint256",
          "name": "tokenId",
          "type": "uint256"
        }
      ],
      "name": "Transfer",
      "type": "event"
    },
    {
      "inputs": [
        {
          "internalType": "address",
          "name": "to",
          "type": "address"
        },
        {
          "internalType": "uint256",
          "name": "tokenId",
          "type": "uint256"
        }
      ],
      "name": "approve",
      "outputs": [],
      "stateMutability": "nonpayable",
      "type": "function"
    },
    {
      "inputs": [
        {
          "internalType": "address",
          "name": "owner",
          "type": "address"
        }
      ],
      "name": "balanceOf",
      "outputs": [
        {
          "internalType": "uint256",
          "name": "",
          "type": "uint256"
        }
      ],
      "stateMutability": "view",
      "type": "function"
    },
    {
      "inputs": [
        {
          "internalType": "uint256",
          "name": "tokenId",
          "type": "uint256"
        }
      ],
      "name": "getApproved",
      "outputs": [
        {
          "internalType": "address",
          "name": "",
          "type": "address"
        }
      ],
      "stateMutability": "view",
      "type": "function"
    },
    {
      "inputs": [
        {
          "internalType": "address",
          "name": "owner",
          "type": "address"
        },
        {
          "internalType": "address",
          "name": "operator",
          "type": "address"
        }
      ],
      "name": "isApprovedForAll",
      "outputs": [
        {
          "internalType": "bool",
          "name": "",
          "type": "bool"
        }
      ],
      "stateMutability": "view",
      "type": "function"
    },
    {
      "inputs": [],
      "name": "name",
      "outputs": [
        {
          "internalType": "string",
          "name": "",
          "type": "string"
        }
      ],
      "stateMutability": "view",
      "type": "function"
    },
    {
      "inputs": [],
      "name": "owner",
      "outputs": [
        {
          "internalType": "address",
          "name": "",
          "type": "address"
        }
      ],
      "stateMutability": "view",
      "type": "function"
    },
    {
      "inputs": [
        {
          "internalType": "uint256",
          "name": "tokenId",
          "type": "uint256"
        }
      ],
      "name": "ownerOf",
      "outputs": [
        {
          "internalType": "address",
          "name": "",
          "type": "address"
        }
      ],
      "stateMutability": "view",
      "type": "function"
    },
    {
      "inputs": [],
      "name": "renounceOwnership",
      "outputs": [],
      "stateMutability": "nonpayable",
      "type": "function"
    },
    {
      "inputs": [
        {
          "internalType": "address",
          "name": "from",
          "type": "address"
        },
        {
          "internalType": "address",
          "name": "to",
          "type": "address"
        },
        {
          "internalType": "uint256",
          "name": "tokenId",
          "type": "uint256"
        }
      ],
      "name": "safeTransferFrom",
      "outputs": [],
      "stateMutability": "nonpayable",
      "type": "function"
    },
    {
      "inputs": [
        {
          "internalType": "address",
          "name": "from",
          "type": "address"
        },
        {
          "internalType": "address",
          "name": "to",
          "type": "address"
        },
        {
          "internalType": "uint256",
          "name": "tokenId",
          "type": "uint256"
        },
        {
          "internalType": "bytes",
          "name": "_data",
          "type": "bytes"
        }
      ],
      "name": "safeTransferFrom",
      "outputs": [],
      "stateMutability": "nonpayable",
      "type": "function"
    },
    {
      "inputs": [
        {
          "internalType": "address",
          "name": "operator",
          "type": "address"
        },
        {
          "internalType": "bool",
          "name": "approved",
          "type": "bool"
        }
      ],
      "name": "setApprovalForAll",
      "outputs": [],
      "stateMutability": "nonpayable",
      "type": "function"
    },
    {
      "inputs": [
        {
          "internalType": "bytes4",
          "name": "interfaceId",
          "type": "bytes4"
        }
      ],
      "name": "supportsInterface",
      "outputs": [
        {
          "internalType": "bool",
          "name": "",
          "type": "bool"
        }
      ],
      "stateMutability": "view",
      "type": "function"
    },
    {
      "inputs": [],
      "name": "symbol",
      "outputs": [
        {
          "internalType": "string",
          "name": "",
          "type": "string"
        }
      ],
      "stateMutability": "view",
      "type": "function"
    },
    {
      "inputs": [
        {
          "internalType": "uint256",
          "name": "tokenId",
          "type": "uint256"
        }
      ],
      "name": "tokenURI",
      "outputs": [
        {
          "internalType": "string",
          "name": "",
          "type": "string"
        }
      ],
      "stateMutability": "view",
      "type": "function"
    },
    {
      "inputs": [
        {
          "internalType": "address",
          "name": "from",
          "type": "address"
        },
        {
          "internalType": "address",
          "name": "to",
          "type": "address"
        },
        {
          "internalType": "uint256",
          "name": "tokenId",
          "type": "uint256"
        }
      ],
      "name": "transferFrom",
      "outputs": [],
      "stateMutability": "nonpayable",
      "type": "function"
    },
    {
      "inputs": [
        {
          "internalType": "address",
          "name": "newOwner",
          "type": "address"
        }
      ],
      "name": "transferOwnership",
      "outputs": [],
      "stateMutability": "nonpayable",
      "type": "function"
    }
  ],
  "transactionHash": "0x1a327ef88b14c5819389549a77a618f38e7aa33898f962d47bfcf8391542e210",
  "args": [],
  "solcInputHash": "204b232b302544132ad208368cbc8054",
  "bytecode": "0x60806040523480156200001157600080fd5b50604051806040016040528060118152602001702a32b9ba1022a9219b9918902a37b5b2b760791b8152506040518060400160405280600a8152602001695465737445524337323160b01b8152506200007962000073620000e560201b60201c565b620000e9565b81516200008e906001906020850190620003ed565b508051620000a4906002906020840190620003ed565b50505060005b600a811015620000de57620000c9620000c262000139565b8262000148565b80620000d581620004ac565b915050620000aa565b50620007e6565b3390565b600080546001600160a01b038381166001600160a01b0319831681178455604051919092169283917f8be0079c531659141344cd1fd0a4f28419497f9722a3daafe3b4186f6b6457e09190a35050565b6000546001600160a01b031690565b6200016a8282604051806020016040528060008152506200016e60201b60201c565b5050565b6200017a8383620001b6565b620001896000848484620002a1565b620001b15760405162461bcd60e51b8152600401620001a89062000544565b60405180910390fd5b505050565b6001600160a01b038216620001df5760405162461bcd60e51b8152600401620001a890620005a4565b620001ea81620003ca565b156200020a5760405162461bcd60e51b8152600401620001a890620005f7565b6200021860008383620001b1565b6001600160a01b03821660009081526004602052604081208054600192906200024390849062000609565b909155505060008181526003602052604080822080546001600160a01b0319166001600160a01b03861690811790915590518392907fddf252ad1be2c89b69c2b068fc378daa952ba7f163c4a11628f55a4df523b3ef908290a45050565b6000620002c2846001600160a01b0316620003e760201b6200076c1760201c565b15620003be576001600160a01b03841663150b7a02620002e1620000e5565b8786866040518563ffffffff1660e01b8152600401620003059493929190620006f4565b6020604051808303816000875af192505050801562000343575060408051601f3d908101601f19168201909252620003409181019062000779565b60015b620003a3573d80801562000374576040519150601f19603f3d011682016040523d82523d6000602084013e62000379565b606091505b5080516200039b5760405162461bcd60e51b8152600401620001a89062000544565b805181602001fd5b6001600160e01b031916630a85bd0160e11b149050620003c2565b5060015b949350505050565b6000908152600360205260409020546001600160a01b0316151590565b3b151590565b828054620003fb90620007b5565b90600052602060002090601f0160209004810192826200041f57600085556200046a565b82601f106200043a57805160ff19168380011785556200046a565b828001600101855582156200046a579182015b828111156200046a5782518255916020019190600101906200044d565b50620004789291506200047c565b5090565b5b808211156200047857600081556001016200047d565b634e487b7160e01b600052601160045260246000fd5b90565b6000620004b982620004a9565b9150600019821415620004d057620004d062000493565b5060010190565b90815260200190565b7f4552433732313a207472616e7366657220746f206e6f6e20455243373231526581527131b2b4bb32b91034b6b83632b6b2b73a32b960711b602090910152565b600062000530603283620004d7565b91506200053d82620004e0565b5060400190565b60208082528101620005568162000521565b92915050565b7f4552433732313a206d696e7420746f20746865207a65726f20616464726573739052565b600062000590602083620004d7565b91506200059d826200055c565b5060200190565b60208082528101620005568162000581565b7f4552433732313a20746f6b656e20616c7265616479206d696e746564000000009052565b6000620005ea601c83620004d7565b91506200059d82620005b6565b602080825281016200055681620005db565b60006200061682620004a9565b91506200062383620004a9565b9250821982111562000639576200063962000493565b500190565b6001600160a01b031690565b600062000556826200063e565b62000662816200064a565b82525050565b6200066281620004a9565b5190565b60005b83811015620006945781810151838201526020016200067a565b83811115620006a4576000848401525b50505050565b601f01601f191690565b6000620006c18262000673565b620006cd8185620004d7565b9350620006df81856020860162000677565b620006ea81620006aa565b9093019392505050565b6080810162000704828762000657565b62000713602083018662000657565b62000722604083018562000668565b8181036060830152620007368184620006b4565b9695505050505050565b600080fd5b6001600160e01b03191690565b6200075d8162000745565b81146200076957600080fd5b50565b8051620005568162000752565b60006020828403121562000791576200079162000740565b6000620003c284846200076c565b634e487b7160e01b600052602260045260246000fd5b600281046001821680620007ca57607f821691505b60208210811415620007e057620007e06200079f565b50919050565b61182d80620007f66000396000f3fe608060405234801561001057600080fd5b50600436106101005760003560e01c8063715018a611610097578063b88d4fde11610066578063b88d4fde146101fc578063c87b56dd1461020f578063e985e9c514610222578063f2fde38b1461023557610100565b8063715018a6146101d15780638da5cb5b146101d957806395d89b41146101e1578063a22cb465146101e957610100565b806323b872dd116100d357806323b872dd1461017857806342842e0e1461018b5780636352211e1461019e57806370a08231146101b157610100565b806301ffc9a71461010557806306fdde031461012e578063081812fc14610143578063095ea7b314610163575b600080fd5b610118610113366004610c9e565b610248565b6040516101259190610cd3565b60405180910390f35b610136610290565b6040516101259190610d5c565b610156610151366004610d84565b610322565b6040516101259190610dc5565b610176610171366004610de7565b61036e565b005b610176610186366004610e24565b610406565b610176610199366004610e24565b61043e565b6101566101ac366004610d84565b610459565b6101c46101bf366004610e74565b61048e565b6040516101259190610e9e565b6101766104d2565b61015661051d565b61013661052c565b6101766101f7366004610ec0565b61053b565b61017661020a366004610fea565b610609565b61013661021d366004610d84565b610648565b610118610230366004611069565b6106cb565b610176610243366004610e74565b6106fb565b60006001600160e01b031982166380ac58cd60e01b148061027957506001600160e01b03198216635b5e139f60e01b145b80610288575061028882610772565b90505b919050565b60606001805461029f906110b2565b80601f01602080910402602001604051908101604052809291908181526020018280546102cb906110b2565b80156103185780601f106102ed57610100808354040283529160200191610318565b820191906000526020600020905b8154815290600101906020018083116102fb57829003601f168201915b5050505050905090565b600061032d8261078b565b6103525760405162461bcd60e51b815260040161034990611139565b60405180910390fd5b506000908152600560205260409020546001600160a01b031690565b600061037982610459565b9050806001600160a01b0316836001600160a01b031614156103ad5760405162461bcd60e51b815260040161034990611191565b806001600160a01b03166103bf6107a8565b6001600160a01b031614806103db57506103db816102306107a8565b6103f75760405162461bcd60e51b815260040161034990611205565b61040183836107ac565b505050565b6104176104116107a8565b8261081a565b6104335760405162461bcd60e51b81526004016103499061126d565b61040183838361089f565b61040183838360405180602001604052806000815250610609565b6000818152600360205260408120546001600160a01b0316806102885760405162461bcd60e51b8152600401610349906112cd565b60006001600160a01b0382166104b65760405162461bcd60e51b81526004016103499061132e565b506001600160a01b031660009081526004602052604090205490565b6104da6107a8565b6001600160a01b03166104eb61051d565b6001600160a01b0316146105115760405162461bcd60e51b815260040161034990611382565b61051b60006109cc565b565b6000546001600160a01b031690565b60606002805461029f906110b2565b6105436107a8565b6001600160a01b0316826001600160a01b031614156105745760405162461bcd60e51b8152600401610349906113cf565b80600660006105816107a8565b6001600160a01b03908116825260208083019390935260409182016000908120918716808252919093529120805460ff1916921515929092179091556105c56107a8565b6001600160a01b03167f17307eab39ab6107e8899845ad3d59bd9653f200f220920489ca2b5937696c31836040516105fd9190610cd3565b60405180910390a35050565b61061a6106146107a8565b8361081a565b6106365760405162461bcd60e51b81526004016103499061126d565b61064284848484610a1c565b50505050565b60606106538261078b565b61066f5760405162461bcd60e51b815260040161034990611435565b6000610679610a4f565b9050600081511161069957604051806020016040528060008152506106c4565b806106a384610a61565b6040516020016106b4929190611474565b6040516020818303038152906040525b9392505050565b6001600160a01b0380831660009081526006602090815260408083209385168352929052205460ff165b92915050565b6107036107a8565b6001600160a01b031661071461051d565b6001600160a01b03161461073a5760405162461bcd60e51b815260040161034990611382565b6001600160a01b0381166107605760405162461bcd60e51b8152600401610349906114d9565b610769816109cc565b50565b3b151590565b6001600160e01b031981166301ffc9a760e01b14919050565b6000908152600360205260409020546001600160a01b0316151590565b3390565b600081815260056020526040902080546001600160a01b0319166001600160a01b03841690811790915581906107e182610459565b6001600160a01b03167f8c5be1e5ebec7d5bd14f71427d1e84f3dd0314c0f7b2291e5b200ac8c7c3b92560405160405180910390a45050565b60006108258261078b565b6108415760405162461bcd60e51b81526004016103499061153c565b600061084c83610459565b9050806001600160a01b0316846001600160a01b031614806108875750836001600160a01b031661087c84610322565b6001600160a01b0316145b80610897575061089781856106cb565b949350505050565b826001600160a01b03166108b282610459565b6001600160a01b0316146108d85760405162461bcd60e51b81526004016103499061159c565b6001600160a01b0382166108fe5760405162461bcd60e51b8152600401610349906115f7565b610909838383610401565b6109146000826107ac565b6001600160a01b038316600090815260046020526040812080546001929061093d90849061161d565b90915550506001600160a01b038216600090815260046020526040812080546001929061096b90849061164a565b909155505060008181526003602052604080822080546001600160a01b0319166001600160a01b0386811691821790925591518493918716917fddf252ad1be2c89b69c2b068fc378daa952ba7f163c4a11628f55a4df523b3ef91a4505050565b600080546001600160a01b038381166001600160a01b0319831681178455604051919092169283917f8be0079c531659141344cd1fd0a4f28419497f9722a3daafe3b4186f6b6457e09190a35050565b610a2784848461089f565b610a3384848484610b60565b6106425760405162461bcd60e51b8152600401610349906116d1565b60408051602081019091526000815290565b606081610a8657506040805180820190915260018152600360fc1b602082015261028b565b8160005b8115610ab05780610a9a816116e1565b9150610aa99050600a8361171d565b9150610a8a565b60008167ffffffffffffffff811115610acb57610acb610ef3565b6040519080825280601f01601f191660200182016040528015610af5576020820181803683370190505b5090505b841561089757610b0a60018361161d565b9150610b17600a86611747565b610b2290603061164a565b60f81b818381518110610b3757610b37611771565b60200101906001600160f81b031916908160001a905350610b59600a8661171d565b9450610af9565b6000610b74846001600160a01b031661076c565b15610c6157836001600160a01b031663150b7a02610b906107a8565b8786866040518563ffffffff1660e01b8152600401610bb29493929190611787565b6020604051808303816000875af1925050508015610bed575060408051601f3d908101601f19168201909252610bea918101906117d6565b60015b610c47573d808015610c1b576040519150601f19603f3d011682016040523d82523d6000602084013e610c20565b606091505b508051610c3f5760405162461bcd60e51b8152600401610349906116d1565b805181602001fd5b6001600160e01b031916630a85bd0160e11b149050610897565b506001949350505050565b60405190565b6001600160e01b03191690565b610c8881610c72565b811461076957600080fd5b80356106f581610c7f565b600060208284031215610cb357610cb3610100565b60006108978484610c93565b151590565b610ccd81610cbf565b82525050565b602081016106f58284610cc4565b5190565b90815260200190565b60005b83811015610d09578181015183820152602001610cf1565b838111156106425750506000910152565b601f01601f191690565b6000610d2f82610ce1565b610d398185610ce5565b9350610d49818560208601610cee565b610d5281610d1a565b9093019392505050565b602080825281016106c48184610d24565b90565b610c8881610d6d565b80356106f581610d70565b600060208284031215610d9957610d99610100565b60006108978484610d79565b6001600160a01b031690565b600061028882610da5565b610ccd81610db1565b602081016106f58284610dbc565b610c8881610db1565b80356106f581610dd3565b60008060408385031215610dfd57610dfd610100565b6000610e098585610ddc565b9250506020610e1a85828601610d79565b9150509250929050565b600080600060608486031215610e3c57610e3c610100565b6000610e488686610ddc565b9350506020610e5986828701610ddc565b9250506040610e6a86828701610d79565b9150509250925092565b600060208284031215610e8957610e89610100565b60006108978484610ddc565b610ccd81610d6d565b602081016106f58284610e95565b610c8881610cbf565b80356106f581610eac565b60008060408385031215610ed657610ed6610100565b6000610ee28585610ddc565b9250506020610e1a85828601610eb5565b634e487b7160e01b600052604160045260246000fd5b610f1282610d1a565b810181811067ffffffffffffffff82111715610f3057610f30610ef3565b6040525050565b6000610f41610c6c565b905061028b8282610f09565b600067ffffffffffffffff821115610f6757610f67610ef3565b610f7082610d1a565b60200192915050565b82818337506000910152565b6000610f98610f9384610f4d565b610f37565b905082815260208101848484011115610fb357610fb3610100565b610fbe848285610f79565b509392505050565b600082601f830112610fda57610fda610100565b8135610897848260208601610f85565b6000806000806080858703121561100357611003610100565b600061100f8787610ddc565b945050602061102087828801610ddc565b935050604061103187828801610d79565b925050606085013567ffffffffffffffff81111561105157611051610100565b61105d87828801610fc6565b91505092959194509250565b6000806040838503121561107f5761107f610100565b600061108b8585610ddc565b9250506020610e1a85828601610ddc565b634e487b7160e01b600052602260045260246000fd5b6002810460018216806110c657607f821691505b602082108114156110d9576110d961109c565b50919050565b7f4552433732313a20617070726f76656420717565727920666f72206e6f6e657881526b34b9ba32b73a103a37b5b2b760a11b602090910152565b6000611127602c83610ce5565b9150611132826110df565b5060400190565b602080825281016102888161111a565b7f4552433732313a20617070726f76616c20746f2063757272656e74206f776e658152603960f91b602090910152565b6000611186602183610ce5565b915061113282611149565b6020808252810161028881611179565b7f4552433732313a20617070726f76652063616c6c6572206973206e6f74206f7781527f6e6572206e6f7220617070726f76656420666f7220616c6c0000000000000000602090910152565b60006111fa603883610ce5565b9150611132826111a1565b60208082528101610288816111ed565b7f4552433732313a207472616e736665722063616c6c6572206973206e6f74206f8152701ddb995c881b9bdc88185c1c1c9bdd9959607a1b602090910152565b6000611262603183610ce5565b915061113282611215565b6020808252810161028881611255565b7f4552433732313a206f776e657220717565727920666f72206e6f6e657869737481526832b73a103a37b5b2b760b91b602090910152565b60006112c2602983610ce5565b91506111328261127d565b60208082528101610288816112b5565b7f4552433732313a2062616c616e636520717565727920666f7220746865207a65815269726f206164647265737360b01b602090910152565b6000611323602a83610ce5565b9150611132826112dd565b6020808252810161028881611316565b7f4f776e61626c653a2063616c6c6572206973206e6f7420746865206f776e65729052565b6000611370602083610ce5565b915061137b8261133e565b5060200190565b6020808252810161028881611363565b7f4552433732313a20617070726f766520746f2063616c6c6572000000000000009052565b60006113c4601983610ce5565b915061137b82611392565b60208082528101610288816113b7565b7f4552433732314d657461646174613a2055524920717565727920666f72206e6f81526e3732bc34b9ba32b73a103a37b5b2b760891b602090910152565b600061142a602f83610ce5565b9150611132826113df565b602080825281016102888161141d565b600061145082610ce1565b61145a818561028b565b935061146a818560208601610cee565b9290920192915050565b60006114808285611445565b91506108978284611445565b7f4f776e61626c653a206e6577206f776e657220697320746865207a65726f206181526564647265737360d01b602090910152565b60006114ce602683610ce5565b91506111328261148c565b60208082528101610288816114c1565b7f4552433732313a206f70657261746f7220717565727920666f72206e6f6e657881526b34b9ba32b73a103a37b5b2b760a11b602090910152565b6000611531602c83610ce5565b9150611132826114e9565b6020808252810161028881611524565b7f4552433732313a207472616e73666572206f6620746f6b656e2074686174206981526839903737ba1037bbb760b91b602090910152565b6000611591602983610ce5565b91506111328261154c565b6020808252810161028881611584565b7f4552433732313a207472616e7366657220746f20746865207a65726f206164648152637265737360e01b602090910152565b60006115ec602483610ce5565b9150611132826115ac565b60208082528101610288816115df565b634e487b7160e01b600052601160045260246000fd5b600061162882610d6d565b915061163383610d6d565b92508282101561164557611645611607565b500390565b600061165582610d6d565b915061166083610d6d565b9250821982111561167357611673611607565b500190565b7f4552433732313a207472616e7366657220746f206e6f6e20455243373231526581527131b2b4bb32b91034b6b83632b6b2b73a32b960711b602090910152565b60006116c6603283610ce5565b915061113282611678565b60208082528101610288816116b9565b60006116ec82610d6d565b915060001982141561170057611700611607565b5060010190565b634e487b7160e01b600052601260045260246000fd5b600061172882610d6d565b915061173383610d6d565b92508261174257611742611707565b500490565b600061175282610d6d565b915061175d83610d6d565b92508261176c5761176c611707565b500690565b634e487b7160e01b600052603260045260246000fd5b608081016117958287610dbc565b6117a26020830186610dbc565b6117af6040830185610e95565b81810360608301526117c18184610d24565b9695505050505050565b80516106f581610c7f565b6000602082840312156117eb576117eb610100565b600061089784846117cb56fea2646970667358221220f59dd3336bcfb5cd729a08d644627ff332038b3b4bfadf3d924c66993bf9f5a464736f6c634300080a0033",
  "devdoc": {
    "kind": "dev",
    "methods": {
      "approve(address,uint256)": {
        "details": "See {IERC721-approve}."
      },
      "balanceOf(address)": {
        "details": "See {IERC721-balanceOf}."
      },
      "getApproved(uint256)": {
        "details": "See {IERC721-getApproved}."
      },
      "isApprovedForAll(address,address)": {
        "details": "See {IERC721-isApprovedForAll}."
      },
      "name()": {
        "details": "See {IERC721Metadata-name}."
      },
      "owner()": {
        "details": "Returns the address of the current owner."
      },
      "ownerOf(uint256)": {
        "details": "See {IERC721-ownerOf}."
      },
      "renounceOwnership()": {
        "details": "Leaves the contract without owner. It will not be possible to call `onlyOwner` functions anymore. Can only be called by the current owner. NOTE: Renouncing ownership will leave the contract without an owner, thereby removing any functionality that is only available to the owner."
      },
      "safeTransferFrom(address,address,uint256)": {
        "details": "See {IERC721-safeTransferFrom}."
      },
      "safeTransferFrom(address,address,uint256,bytes)": {
        "details": "See {IERC721-safeTransferFrom}."
      },
      "setApprovalForAll(address,bool)": {
        "details": "See {IERC721-setApprovalForAll}."
      },
      "supportsInterface(bytes4)": {
        "details": "See {IERC165-supportsInterface}."
      },
      "symbol()": {
        "details": "See {IERC721Metadata-symbol}."
      },
      "tokenURI(uint256)": {
        "details": "See {IERC721Metadata-tokenURI}."
      },
      "transferFrom(address,address,uint256)": {
        "details": "See {IERC721-transferFrom}."
      },
      "transferOwnership(address)": {
        "details": "Transfers ownership of the contract to a new account (`newOwner`). Can only be called by the current owner."
      }
    },
    "version": 1
  },
  "userdoc": {
    "kind": "user",
    "methods": {},
    "version": 1
  },
  "storageLayout": {
    "storage": [
      {
        "astId": 899,
        "contract": "contracts/TestERC721.sol:TestERC721",
        "label": "_owner",
        "offset": 0,
        "slot": "0",
        "type": "t_address"
      },
      {
        "astId": 3278,
        "contract": "contracts/TestERC721.sol:TestERC721",
        "label": "_name",
        "offset": 0,
        "slot": "1",
        "type": "t_string_storage"
      },
      {
        "astId": 3280,
        "contract": "contracts/TestERC721.sol:TestERC721",
        "label": "_symbol",
        "offset": 0,
        "slot": "2",
        "type": "t_string_storage"
      },
      {
        "astId": 3284,
        "contract": "contracts/TestERC721.sol:TestERC721",
        "label": "_owners",
        "offset": 0,
        "slot": "3",
        "type": "t_mapping(t_uint256,t_address)"
      },
      {
        "astId": 3288,
        "contract": "contracts/TestERC721.sol:TestERC721",
        "label": "_balances",
        "offset": 0,
        "slot": "4",
        "type": "t_mapping(t_address,t_uint256)"
      },
      {
        "astId": 3292,
        "contract": "contracts/TestERC721.sol:TestERC721",
        "label": "_tokenApprovals",
        "offset": 0,
        "slot": "5",
        "type": "t_mapping(t_uint256,t_address)"
      },
      {
        "astId": 3298,
        "contract": "contracts/TestERC721.sol:TestERC721",
        "label": "_operatorApprovals",
        "offset": 0,
        "slot": "6",
        "type": "t_mapping(t_address,t_mapping(t_address,t_bool))"
      }
    ],
    "types": {
      "t_address": {
        "encoding": "inplace",
        "label": "address",
        "numberOfBytes": "20"
      },
      "t_bool": {
        "encoding": "inplace",
        "label": "bool",
        "numberOfBytes": "1"
      },
      "t_mapping(t_address,t_bool)": {
        "encoding": "mapping",
        "key": "t_address",
        "label": "mapping(address => bool)",
        "numberOfBytes": "32",
        "value": "t_bool"
      },
      "t_mapping(t_address,t_mapping(t_address,t_bool))": {
        "encoding": "mapping",
        "key": "t_address",
        "label": "mapping(address => mapping(address => bool))",
        "numberOfBytes": "32",
        "value": "t_mapping(t_address,t_bool)"
      },
      "t_mapping(t_address,t_uint256)": {
        "encoding": "mapping",
        "key": "t_address",
        "label": "mapping(address => uint256)",
        "numberOfBytes": "32",
        "value": "t_uint256"
      },
      "t_mapping(t_uint256,t_address)": {
        "encoding": "mapping",
        "key": "t_uint256",
        "label": "mapping(uint256 => address)",
        "numberOfBytes": "32",
        "value": "t_address"
      },
      "t_string_storage": {
        "encoding": "bytes",
        "label": "string",
        "numberOfBytes": "32"
      },
      "t_uint256": {
        "encoding": "inplace",
        "label": "uint256",
        "numberOfBytes": "32"
      }
    }
  }
}