{
  "address": "0x1e1655108b6A422C7699c515f3Da33e7d07A11dc",
  "abi": [
    {
      "inputs": [],
      "stateMutability": "nonpayable",
      "type": "constructor"
    },
    {
      "anonymous": false,
      "inputs": [
        {
          "indexed": true,
          "internalType": "address",
          "name": "account",
          "type": "address"
        },
        {
          "indexed": true,
          "internalType": "address",
          "name": "operator",
          "type": "address"
        },
        {
          "indexed": false,
          "internalType": "bool",
          "name": "approved",
          "type": "bool"
        }
      ],
      "name": "ApprovalForAll",
      "type": "event"
    },
    {
      "anonymous": false,
      "inputs": [
        {
          "indexed": true,
          "internalType": "address",
          "name": "previousOwner",
          "type": "address"
        },
        {
          "indexed": true,
          "internalType": "address",
          "name": "newOwner",
          "type": "address"
        }
      ],
      "name": "OwnershipTransferred",
      "type": "event"
    },
    {
      "anonymous": false,
      "inputs": [
        {
          "indexed": true,
          "internalType": "address",
          "name": "operator",
          "type": "address"
        },
        {
          "indexed": true,
          "internalType": "address",
          "name": "from",
          "type": "address"
        },
        {
          "indexed": true,
          "internalType": "address",
          "name": "to",
          "type": "address"
        },
        {
          "indexed": false,
          "internalType": "uint256[]",
          "name": "ids",
          "type": "uint256[]"
        },
        {
          "indexed": false,
          "internalType": "uint256[]",
          "name": "values",
          "type": "uint256[]"
        }
      ],
      "name": "TransferBatch",
      "type": "event"
    },
    {
      "anonymous": false,
      "inputs": [
        {
          "indexed": true,
          "internalType": "address",
          "name": "operator",
          "type": "address"
        },
        {
          "indexed": true,
          "internalType": "address",
          "name": "from",
          "type": "address"
        },
        {
          "indexed": true,
          "internalType": "address",
          "name": "to",
          "type": "address"
        },
        {
          "indexed": false,
          "internalType": "uint256",
          "name": "id",
          "type": "uint256"
        },
        {
          "indexed": false,
          "internalType": "uint256",
          "name": "value",
          "type": "uint256"
        }
      ],
      "name": "TransferSingle",
      "type": "event"
    },
    {
      "anonymous": false,
      "inputs": [
        {
          "indexed": false,
          "internalType": "string",
          "name": "value",
          "type": "string"
        },
        {
          "indexed": true,
          "internalType": "uint256",
          "name": "id",
          "type": "uint256"
        }
      ],
      "name": "URI",
      "type": "event"
    },
    {
      "inputs": [
        {
          "internalType": "address",
          "name": "account",
          "type": "address"
        },
        {
          "internalType": "uint256",
          "name": "id",
          "type": "uint256"
        }
      ],
      "name": "balanceOf",
      "outputs": [
        {
          "internalType": "uint256",
          "name": "",
          "type": "uint256"
        }
      ],
      "stateMutability": "view",
      "type": "function"
    },
    {
      "inputs": [
        {
          "internalType": "address[]",
          "name": "accounts",
          "type": "address[]"
        },
        {
          "internalType": "uint256[]",
          "name": "ids",
          "type": "uint256[]"
        }
      ],
      "name": "balanceOfBatch",
      "outputs": [
        {
          "internalType": "uint256[]",
          "name": "",
          "type": "uint256[]"
        }
      ],
      "stateMutability": "view",
      "type": "function"
    },
    {
      "inputs": [
        {
          "internalType": "address",
          "name": "account",
          "type": "address"
        },
        {
          "internalType": "address",
          "name": "operator",
          "type": "address"
        }
      ],
      "name": "isApprovedForAll",
      "outputs": [
        {
          "internalType": "bool",
          "name": "",
          "type": "bool"
        }
      ],
      "stateMutability": "view",
      "type": "function"
    },
    {
      "inputs": [],
      "name": "owner",
      "outputs": [
        {
          "internalType": "address",
          "name": "",
          "type": "address"
        }
      ],
      "stateMutability": "view",
      "type": "function"
    },
    {
      "inputs": [],
      "name": "renounceOwnership",
      "outputs": [],
      "stateMutability": "nonpayable",
      "type": "function"
    },
    {
      "inputs": [
        {
          "internalType": "address",
          "name": "from",
          "type": "address"
        },
        {
          "internalType": "address",
          "name": "to",
          "type": "address"
        },
        {
          "internalType": "uint256[]",
          "name": "ids",
          "type": "uint256[]"
        },
        {
          "internalType": "uint256[]",
          "name": "amounts",
          "type": "uint256[]"
        },
        {
          "internalType": "bytes",
          "name": "data",
          "type": "bytes"
        }
      ],
      "name": "safeBatchTransferFrom",
      "outputs": [],
      "stateMutability": "nonpayable",
      "type": "function"
    },
    {
      "inputs": [
        {
          "internalType": "address",
          "name": "from",
          "type": "address"
        },
        {
          "internalType": "address",
          "name": "to",
          "type": "address"
        },
        {
          "internalType": "uint256",
          "name": "id",
          "type": "uint256"
        },
        {
          "internalType": "uint256",
          "name": "amount",
          "type": "uint256"
        },
        {
          "internalType": "bytes",
          "name": "data",
          "type": "bytes"
        }
      ],
      "name": "safeTransferFrom",
      "outputs": [],
      "stateMutability": "nonpayable",
      "type": "function"
    },
    {
      "inputs": [
        {
          "internalType": "address",
          "name": "operator",
          "type": "address"
        },
        {
          "internalType": "bool",
          "name": "approved",
          "type": "bool"
        }
      ],
      "name": "setApprovalForAll",
      "outputs": [],
      "stateMutability": "nonpayable",
      "type": "function"
    },
    {
      "inputs": [
        {
          "internalType": "bytes4",
          "name": "interfaceId",
          "type": "bytes4"
        }
      ],
      "name": "supportsInterface",
      "outputs": [
        {
          "internalType": "bool",
          "name": "",
          "type": "bool"
        }
      ],
      "stateMutability": "view",
      "type": "function"
    },
    {
      "inputs": [
        {
          "internalType": "address",
          "name": "newOwner",
          "type": "address"
        }
      ],
      "name": "transferOwnership",
      "outputs": [],
      "stateMutability": "nonpayable",
      "type": "function"
    },
    {
      "inputs": [
        {
          "internalType": "uint256",
          "name": "",
          "type": "uint256"
        }
      ],
      "name": "uri",
      "outputs": [
        {
          "internalType": "string",
          "name": "",
          "type": "string"
        }
      ],
      "stateMutability": "view",
      "type": "function"
    }
  ],
  "transactionHash": "0x9ddd4418441a10a0cd712ff8a650ff30ea7ceaa3e0240f39618e04fc867d2298",
  "args": [],
  "solcInputHash": "204b232b302544132ad208368cbc8054",
  "bytecode": "0x60806040523480156200001157600080fd5b5060408051808201909152601681527f68747470733a2f2f6d6172652e62697a2f746573742f0000000000000000000060208201526200005a62000054620000f8565b620000fd565b62000065816200014d565b5060005b600a811015620000bb57620000a66200008162000166565b6200008e600184620004e0565b60408051602081019091526000815260019062000175565b80620000b28162000515565b91505062000069565b50620000f2620000ca62000166565b6000683635c9adc5dea00000604051806020016040528060008152506200017560201b60201c565b620009b8565b335b90565b600080546001600160a01b038381166001600160a01b0319831681178455604051919092169283917f8be0079c531659141344cd1fd0a4f28419497f9722a3daafe3b4186f6b6457e09190a35050565b80516200016290600390602084019062000424565b5050565b6000546001600160a01b031690565b6001600160a01b038416620001a75760405162461bcd60e51b81526004016200019e906200059c565b60405180910390fd5b6000620001b3620000f8565b9050620001da81600087620001c88862000287565b620001d38862000287565b87620002d5565b60008481526001602090815260408083206001600160a01b0389168452909152812080548592906200020e908490620004e0565b92505081905550846001600160a01b031660006001600160a01b0316826001600160a01b03167fc3d58168c5ae7397731d063d5bbf3d657854427343f4c083240f7aacaa2d0f62878760405162000267929190620005c5565b60405180910390a46200028081600087878787620002dd565b5050505050565b60408051600180825281830190925260609160009190602080830190803683370190505090508281600081518110620002c457620002c462000601565b602090810291909101015292915050565b505050505050565b620002fc846001600160a01b03166200041e60201b620006511760201c565b15620002d55760405163f23a6e6160e01b81526001600160a01b0385169063f23a6e6190620003389089908990889088908890600401620006bc565b6020604051808303816000875af192505050801562000376575060408051601f3d908101601f19168201909252620003739181019062000757565b60015b620003e257620003856200078b565b806308c379a01415620003c657506200039d620007e1565b80620003aa5750620003c8565b8060405162461bcd60e51b81526004016200019e91906200087f565b505b60405162461bcd60e51b81526004016200019e90620008fa565b6001600160e01b0319811663f23a6e6160e01b14620004155760405162461bcd60e51b81526004016200019e906200095f565b50505050505050565b3b151590565b828054620004329062000987565b90600052602060002090601f016020900481019282620004565760008555620004a1565b82601f106200047157805160ff1916838001178555620004a1565b82800160010185558215620004a1579182015b82811115620004a157825182559160200191906001019062000484565b50620004af929150620004b3565b5090565b5b80821115620004af5760008155600101620004b4565b634e487b7160e01b600052601160045260246000fd5b6000620004ed82620000fa565b9150620004fa83620000fa565b92508219821115620005105762000510620004ca565b500190565b60006200052282620000fa565b9150600019821415620005395762000539620004ca565b5060010190565b90815260200190565b7f455243313135353a206d696e7420746f20746865207a65726f206164647265738152607360f81b602090910152565b60006200058860218362000540565b9150620005958262000549565b5060400190565b60208082528101620005ae8162000579565b92915050565b620005bf81620000fa565b82525050565b60408101620005d58285620005b4565b620005e46020830184620005b4565b9392505050565b634e487b7160e01b600052604160045260246000fd5b634e487b7160e01b600052603260045260246000fd5b6001600160a01b031690565b6000620005ae8262000617565b620005bf8162000623565b5190565b60005b838110156200065c57818101518382015260200162000642565b838111156200066c576000848401525b50505050565b601f01601f191690565b600062000689826200063b565b62000695818562000540565b9350620006a78185602086016200063f565b620006b28162000672565b9093019392505050565b60a08101620006cc828862000630565b620006db602083018762000630565b620006ea6040830186620005b4565b620006f96060830185620005b4565b81810360808301526200070d81846200067c565b979650505050505050565b60405190565b600080fd5b6001600160e01b03191690565b6200073b8162000723565b81146200074757600080fd5b50565b8051620005ae8162000730565b6000602082840312156200076f576200076f6200071e565b60006200077d84846200074a565b949350505050565b60e01c90565b600060033d1115620000fa5760046000803e620007aa60005162000785565b905090565b620007ba8262000672565b81018181106001600160401b0382111715620007da57620007da620005eb565b6040525050565b600060443d1015620007f357620000fa565b620007fd62000718565b60043d036004823e80513d60248201116001600160401b038211171562000826575050620000fa565b80820180516001600160401b03811115620008455750505050620000fa565b80602083010160043d03850181111562000864575050505050620000fa565b6200087582602001850186620007af565b5090935050505090565b60208082528101620005e481846200067c565b7f455243313135353a207472616e7366657220746f206e6f6e204552433131353581527f526563656976657220696d706c656d656e746572000000000000000000000000602090910152565b6000620008ed60348362000540565b9150620005958262000892565b60208082528101620005ae81620008de565b7f455243313135353a204552433131353552656365697665722072656a656374658152676420746f6b656e7360c01b602090910152565b60006200095260288362000540565b915062000595826200090c565b60208082528101620005ae8162000943565b634e487b7160e01b600052602260045260246000fd5b6002810460018216806200099c57607f821691505b60208210811415620009b257620009b262000971565b50919050565b6119c680620009c86000396000f3fe608060405234801561001057600080fd5b50600436106100a85760003560e01c8063715018a611610071578063715018a61461014b5780638da5cb5b14610153578063a22cb46514610168578063e985e9c51461017b578063f242432a1461018e578063f2fde38b146101a1576100a8565b8062fdd58e146100ad57806301ffc9a7146100d65780630e89341c146100f65780632eb2c2d6146101165780634e1273f41461012b575b600080fd5b6100c06100bb366004610c36565b6101b4565b6040516100cd9190610c82565b60405180910390f35b6100e96100e4366004610cb1565b610210565b6040516100cd9190610ce8565b610109610104366004610cf6565b610258565b6040516100cd9190610d96565b610129610124366004610f40565b6102ec565b005b61013e61013936600461107e565b61034a565b6040516100cd9190611159565b610129610432565b61015b61047d565b6040516100cd9190611173565b610129610176366004611195565b61048d565b6100e96101893660046111c8565b61055b565b61012961019c3660046111fb565b610589565b6101296101af366004611255565b6105e0565b60006001600160a01b0383166101e55760405162461bcd60e51b81526004016101dc906112cf565b60405180910390fd5b5060008181526001602090815260408083206001600160a01b03861684529091529020545b92915050565b60006001600160e01b03198216636cdb3d1360e11b148061024157506001600160e01b031982166303a24d0760e21b145b80610250575061025082610657565b90505b919050565b606060038054610267906112f5565b80601f0160208091040260200160405190810160405280929190818152602001828054610293906112f5565b80156102e05780601f106102b5576101008083540402835291602001916102e0565b820191906000526020600020905b8154815290600101906020018083116102c357829003601f168201915b50505050509050919050565b6102f4610670565b6001600160a01b0316856001600160a01b0316148061031a575061031a85610189610670565b6103365760405162461bcd60e51b81526004016101dc9061137b565b6103438585858585610674565b5050505050565b6060815183511461036d5760405162461bcd60e51b81526004016101dc906113db565b6000835167ffffffffffffffff81111561038957610389610dae565b6040519080825280602002602001820160405280156103b2578160200160208202803683370190505b50905060005b845181101561042a576103fd8582815181106103d6576103d66113eb565b60200260200101518583815181106103f0576103f06113eb565b60200260200101516101b4565b82828151811061040f5761040f6113eb565b602090810291909101015261042381611417565b90506103b8565b509392505050565b61043a610670565b6001600160a01b031661044b61047d565b6001600160a01b0316146104715760405162461bcd60e51b81526004016101dc90611481565b61047b600061082c565b565b6000546001600160a01b03165b90565b816001600160a01b031661049f610670565b6001600160a01b031614156104c65760405162461bcd60e51b81526004016101dc906114e1565b80600260006104d3610670565b6001600160a01b03908116825260208083019390935260409182016000908120918716808252919093529120805460ff191692151592909217909155610517610670565b6001600160a01b03167f17307eab39ab6107e8899845ad3d59bd9653f200f220920489ca2b5937696c318360405161054f9190610ce8565b60405180910390a35050565b6001600160a01b03918216600090815260026020908152604080832093909416825291909152205460ff1690565b610591610670565b6001600160a01b0316856001600160a01b031614806105b757506105b785610189610670565b6105d35760405162461bcd60e51b81526004016101dc90611541565b610343858585858561087c565b6105e8610670565b6001600160a01b03166105f961047d565b6001600160a01b03161461061f5760405162461bcd60e51b81526004016101dc90611481565b6001600160a01b0381166106455760405162461bcd60e51b81526004016101dc9061159e565b61064e8161082c565b50565b3b151590565b6001600160e01b031981166301ffc9a760e01b14919050565b3390565b81518351146106955760405162461bcd60e51b81526004016101dc906115fd565b6001600160a01b0384166106bb5760405162461bcd60e51b81526004016101dc90611659565b60006106c5610670565b90506106d5818787878787610824565b60005b84518110156107be5760008582815181106106f5576106f56113eb565b602002602001015190506000858381518110610713576107136113eb565b60209081029190910181015160008481526001835260408082206001600160a01b038e1683529093529190912054909150818110156107645760405162461bcd60e51b81526004016101dc906116ba565b60008381526001602090815260408083206001600160a01b038e8116855292528083208585039055908b168252812080548492906107a39084906116ca565b92505081905550505050806107b790611417565b90506106d8565b50846001600160a01b0316866001600160a01b0316826001600160a01b03167f4a39dc06d4c0dbc64b70af90fd698a233a518aa5d07e595d983b8c0526c8f7fb878760405161080e9291906116f8565b60405180910390a46108248187878787876109c3565b505050505050565b600080546001600160a01b038381166001600160a01b0319831681178455604051919092169283917f8be0079c531659141344cd1fd0a4f28419497f9722a3daafe3b4186f6b6457e09190a35050565b6001600160a01b0384166108a25760405162461bcd60e51b81526004016101dc90611659565b60006108ac610670565b90506108cc8187876108bd88610ad9565b6108c688610ad9565b87610824565b60008481526001602090815260408083206001600160a01b038a1684529091529020548381101561090f5760405162461bcd60e51b81526004016101dc906116ba565b60008581526001602090815260408083206001600160a01b038b811685529252808320878503905590881682528120805486929061094e9084906116ca565b92505081905550856001600160a01b0316876001600160a01b0316836001600160a01b03167fc3d58168c5ae7397731d063d5bbf3d657854427343f4c083240f7aacaa2d0f6288886040516109a492919061171d565b60405180910390a46109ba828888888888610b24565b50505050505050565b6109d5846001600160a01b0316610651565b156108245760405163bc197c8160e01b81526001600160a01b0385169063bc197c8190610a0e9089908990889088908890600401611738565b6020604051808303816000875af1925050508015610a49575060408051601f3d908101601f19168201909252610a46918101906117a3565b60015b610aa957610a556117ca565b806308c379a01415610a8f5750610a6a6117eb565b80610a755750610a91565b8060405162461bcd60e51b81526004016101dc9190610d96565b505b60405162461bcd60e51b81526004016101dc906118da565b6001600160e01b0319811663bc197c8160e01b146109ba5760405162461bcd60e51b81526004016101dc90611939565b60408051600180825281830190925260609160009190602080830190803683370190505090508281600081518110610b1357610b136113eb565b602090810291909101015292915050565b610b36846001600160a01b0316610651565b156108245760405163f23a6e6160e01b81526001600160a01b0385169063f23a6e6190610b6f9089908990889088908890600401611949565b6020604051808303816000875af1925050508015610baa575060408051601f3d908101601f19168201909252610ba7918101906117a3565b60015b610bb657610a556117ca565b6001600160e01b0319811663f23a6e6160e01b146109ba5760405162461bcd60e51b81526004016101dc90611939565b60405190565b6001600160a01b031690565b600061025082610bec565b610c0c81610bf8565b811461064e57600080fd5b803561020a81610c03565b610c0c8161048a565b803561020a81610c22565b60008060408385031215610c4c57610c4c6100a8565b6000610c588585610c17565b9250506020610c6985828601610c2b565b9150509250929050565b610c7c8161048a565b82525050565b6020810161020a8284610c73565b6001600160e01b03191690565b610c0c81610c90565b803561020a81610c9d565b600060208284031215610cc657610cc66100a8565b6000610cd28484610ca6565b949350505050565b151590565b610c7c81610cda565b6020810161020a8284610cdf565b600060208284031215610d0b57610d0b6100a8565b6000610cd28484610c2b565b5190565b90815260200190565b60005b83811015610d3f578181015183820152602001610d27565b83811115610d4e576000848401525b50505050565b601f01601f191690565b6000610d6982610d17565b610d738185610d1b565b9350610d83818560208601610d24565b610d8c81610d54565b9093019392505050565b60208082528101610da78184610d5e565b9392505050565b634e487b7160e01b600052604160045260246000fd5b610dcd82610d54565b810181811067ffffffffffffffff82111715610deb57610deb610dae565b6040525050565b6000610dfc610be6565b90506102538282610dc4565b600067ffffffffffffffff821115610e2257610e22610dae565b5060209081020190565b6000610e3f610e3a84610e08565b610df2565b83815290506020808201908402830185811115610e5e57610e5e6100a8565b835b81811015610e825780610e738882610c2b565b84525060209283019201610e60565b5050509392505050565b600082601f830112610ea057610ea06100a8565b8135610cd2848260208601610e2c565b600067ffffffffffffffff821115610eca57610eca610dae565b610ed382610d54565b60200192915050565b82818337506000910152565b6000610ef6610e3a84610eb0565b905082815260208101848484011115610f1157610f116100a8565b61042a848285610edc565b600082601f830112610f3057610f306100a8565b8135610cd2848260208601610ee8565b600080600080600060a08688031215610f5b57610f5b6100a8565b6000610f678888610c17565b9550506020610f7888828901610c17565b945050604086013567ffffffffffffffff811115610f9857610f986100a8565b610fa488828901610e8c565b935050606086013567ffffffffffffffff811115610fc457610fc46100a8565b610fd088828901610e8c565b925050608086013567ffffffffffffffff811115610ff057610ff06100a8565b610ffc88828901610f1c565b9150509295509295909350565b6000611017610e3a84610e08565b83815290506020808201908402830185811115611036576110366100a8565b835b81811015610e82578061104b8882610c17565b84525060209283019201611038565b600082601f83011261106e5761106e6100a8565b8135610cd2848260208601611009565b60008060408385031215611094576110946100a8565b823567ffffffffffffffff8111156110ae576110ae6100a8565b6110ba8582860161105a565b925050602083013567ffffffffffffffff8111156110da576110da6100a8565b610c6985828601610e8c565b60200190565b60006110f88383610c73565b505060200190565b600061110b82610d17565b6111158185610d1b565b9350611120836110e6565b8060005b8381101561114e57815161113888826110ec565b9750611143836110e6565b925050600101611124565b509495945050505050565b60208082528101610da78184611100565b610c7c81610bf8565b6020810161020a828461116a565b610c0c81610cda565b803561020a81611181565b600080604083850312156111ab576111ab6100a8565b60006111b78585610c17565b9250506020610c698582860161118a565b600080604083850312156111de576111de6100a8565b60006111ea8585610c17565b9250506020610c6985828601610c17565b600080600080600060a08688031215611216576112166100a8565b60006112228888610c17565b955050602061123388828901610c17565b945050604061124488828901610c2b565b9350506060610fd088828901610c2b565b60006020828403121561126a5761126a6100a8565b6000610cd28484610c17565b7f455243313135353a2062616c616e636520717565727920666f7220746865207a81526a65726f206164647265737360a81b602090910152565b60006112bd602b83610d1b565b91506112c882611276565b5060400190565b60208082528101610250816112b0565b634e487b7160e01b600052602260045260246000fd5b60028104600182168061130957607f821691505b6020821081141561131c5761131c6112df565b50919050565b7f455243313135353a207472616e736665722063616c6c6572206973206e6f74208152711bdddb995c881b9bdc88185c1c1c9bdd995960721b602090910152565b6000611370603283610d1b565b91506112c882611322565b6020808252810161025081611363565b7f455243313135353a206163636f756e747320616e6420696473206c656e677468815268040dad2e6dac2e8c6d60bb1b602090910152565b60006113d0602983610d1b565b91506112c88261138b565b60208082528101610250816113c3565b634e487b7160e01b600052603260045260246000fd5b634e487b7160e01b600052601160045260246000fd5b60006114228261048a565b915060001982141561143657611436611401565b5060010190565b7f4f776e61626c653a2063616c6c6572206973206e6f7420746865206f776e65729052565b600061146f602083610d1b565b915061147a8261143d565b5060200190565b6020808252810161025081611462565b7f455243313135353a2073657474696e6720617070726f76616c20737461747573815268103337b91039b2b63360b91b602090910152565b60006114d6602983610d1b565b91506112c882611491565b60208082528101610250816114c9565b7f455243313135353a2063616c6c6572206973206e6f74206f776e6572206e6f7281526808185c1c1c9bdd995960ba1b602090910152565b6000611536602983610d1b565b91506112c8826114f1565b6020808252810161025081611529565b7f4f776e61626c653a206e6577206f776e657220697320746865207a65726f206181526564647265737360d01b602090910152565b6000611593602683610d1b565b91506112c882611551565b6020808252810161025081611586565b7f455243313135353a2069647320616e6420616d6f756e7473206c656e677468208152670dad2e6dac2e8c6d60c31b602090910152565b60006115f2602883610d1b565b91506112c8826115ae565b60208082528101610250816115e5565b7f455243313135353a207472616e7366657220746f20746865207a65726f206164815264647265737360d81b602090910152565b600061164e602583610d1b565b91506112c88261160d565b6020808252810161025081611641565b7f455243313135353a20696e73756666696369656e742062616c616e636520666f81526939103a3930b739b332b960b11b602090910152565b60006116af602a83610d1b565b91506112c882611669565b60208082528101610250816116a2565b60006116d58261048a565b91506116e08361048a565b925082198211156116f3576116f3611401565b500190565b604080825281016117098185611100565b90508181036020830152610cd28184611100565b6040810161172b8285610c73565b610da76020830184610c73565b60a08101611746828861116a565b611753602083018761116a565b81810360408301526117658186611100565b905081810360608301526117798185611100565b9050818103608083015261178d8184610d5e565b979650505050505050565b805161020a81610c9d565b6000602082840312156117b8576117b86100a8565b6000610cd28484611798565b60e01c90565b600060033d111561048a5760046000803e6117e66000516117c4565b905090565b600060443d10156117fb5761048a565b611803610be6565b60043d036004823e80513d602482011167ffffffffffffffff8211171561182b57505061048a565b808201805167ffffffffffffffff811115611849575050505061048a565b80602083010160043d03850181111561186657505050505061048a565b61187582602001850186610dc4565b5090935050505090565b7f455243313135353a207472616e7366657220746f206e6f6e20455243313135358152732932b1b2b4bb32b91034b6b83632b6b2b73a32b960611b602090910152565b60006118cf603483610d1b565b91506112c88261187f565b60208082528101610250816118c2565b7f455243313135353a204552433131353552656365697665722072656a656374658152676420746f6b656e7360c01b602090910152565b600061192e602883610d1b565b91506112c8826118ea565b6020808252810161025081611921565b60a08101611957828861116a565b611964602083018761116a565b6119716040830186610c73565b61197e6060830185610c73565b818103608083015261178d8184610d5e56fea26469706673582212203e353dbc7b157d28605900d08bc7872ee1f6d00bbc79b03378f55a438a2c4f3764736f6c634300080a0033",
  "devdoc": {
    "kind": "dev",
    "methods": {
      "balanceOf(address,uint256)": {
        "details": "See {IERC1155-balanceOf}. Requirements: - `account` cannot be the zero address."
      },
      "balanceOfBatch(address[],uint256[])": {
        "details": "See {IERC1155-balanceOfBatch}. Requirements: - `accounts` and `ids` must have the same length."
      },
      "isApprovedForAll(address,address)": {
        "details": "See {IERC1155-isApprovedForAll}."
      },
      "owner()": {
        "details": "Returns the address of the current owner."
      },
      "renounceOwnership()": {
        "details": "Leaves the contract without owner. It will not be possible to call `onlyOwner` functions anymore. Can only be called by the current owner. NOTE: Renouncing ownership will leave the contract without an owner, thereby removing any functionality that is only available to the owner."
      },
      "safeBatchTransferFrom(address,address,uint256[],uint256[],bytes)": {
        "details": "See {IERC1155-safeBatchTransferFrom}."
      },
      "safeTransferFrom(address,address,uint256,uint256,bytes)": {
        "details": "See {IERC1155-safeTransferFrom}."
      },
      "setApprovalForAll(address,bool)": {
        "details": "See {IERC1155-setApprovalForAll}."
      },
      "supportsInterface(bytes4)": {
        "details": "See {IERC165-supportsInterface}."
      },
      "transferOwnership(address)": {
        "details": "Transfers ownership of the contract to a new account (`newOwner`). Can only be called by the current owner."
      },
      "uri(uint256)": {
        "details": "See {IERC1155MetadataURI-uri}. This implementation returns the same URI for *all* token types. It relies on the token type ID substitution mechanism https://eips.ethereum.org/EIPS/eip-1155#metadata[defined in the EIP]. Clients calling this function must replace the `\\{id\\}` substring with the actual token type ID."
      }
    },
    "version": 1
  },
  "userdoc": {
    "kind": "user",
    "methods": {},
    "version": 1
  },
  "storageLayout": {
    "storage": [
      {
        "astId": 899,
        "contract": "contracts/TestERC1155.sol:TestERC1155",
        "label": "_owner",
        "offset": 0,
        "slot": "0",
        "type": "t_address"
      },
      {
        "astId": 1061,
        "contract": "contracts/TestERC1155.sol:TestERC1155",
        "label": "_balances",
        "offset": 0,
        "slot": "1",
        "type": "t_mapping(t_uint256,t_mapping(t_address,t_uint256))"
      },
      {
        "astId": 1067,
        "contract": "contracts/TestERC1155.sol:TestERC1155",
        "label": "_operatorApprovals",
        "offset": 0,
        "slot": "2",
        "type": "t_mapping(t_address,t_mapping(t_address,t_bool))"
      },
      {
        "astId": 1069,
        "contract": "contracts/TestERC1155.sol:TestERC1155",
        "label": "_uri",
        "offset": 0,
        "slot": "3",
        "type": "t_string_storage"
      }
    ],
    "types": {
      "t_address": {
        "encoding": "inplace",
        "label": "address",
        "numberOfBytes": "20"
      },
      "t_bool": {
        "encoding": "inplace",
        "label": "bool",
        "numberOfBytes": "1"
      },
      "t_mapping(t_address,t_bool)": {
        "encoding": "mapping",
        "key": "t_address",
        "label": "mapping(address => bool)",
        "numberOfBytes": "32",
        "value": "t_bool"
      },
      "t_mapping(t_address,t_mapping(t_address,t_bool))": {
        "encoding": "mapping",
        "key": "t_address",
        "label": "mapping(address => mapping(address => bool))",
        "numberOfBytes": "32",
        "value": "t_mapping(t_address,t_bool)"
      },
      "t_mapping(t_address,t_uint256)": {
        "encoding": "mapping",
        "key": "t_address",
        "label": "mapping(address => uint256)",
        "numberOfBytes": "32",
        "value": "t_uint256"
      },
      "t_mapping(t_uint256,t_mapping(t_address,t_uint256))": {
        "encoding": "mapping",
        "key": "t_uint256",
        "label": "mapping(uint256 => mapping(address => uint256))",
        "numberOfBytes": "32",
        "value": "t_mapping(t_address,t_uint256)"
      },
      "t_string_storage": {
        "encoding": "bytes",
        "label": "string",
        "numberOfBytes": "32"
      },
      "t_uint256": {
        "encoding": "inplace",
        "label": "uint256",
        "numberOfBytes": "32"
      }
    }
  }
}