{
  "_format": "hh-sol-artifact-1",
  "contractName": "MarebitsLocker",
  "sourceName": "contracts/MarebitsLocker.sol",
  "abi": [
    {
      "inputs": [
        {
          "internalType": "string",
          "name": "name",
          "type": "string"
        },
        {
          "internalType": "string",
          "name": "symbol",
          "type": "string"
        },
        {
          "internalType": "string",
          "name": "baseURI",
          "type": "string"
        }
      ],
      "stateMutability": "nonpayable",
      "type": "constructor"
    },
    {
      "anonymous": false,
      "inputs": [
        {
          "indexed": true,
          "internalType": "address",
          "name": "previousOwner",
          "type": "address"
        },
        {
          "indexed": true,
          "internalType": "address",
          "name": "newOwner",
          "type": "address"
        }
      ],
      "name": "OwnershipTransferred",
      "type": "event"
    },
    {
      "anonymous": false,
      "inputs": [
        {
          "indexed": true,
          "internalType": "uint256",
          "name": "accountId",
          "type": "uint256"
        },
        {
          "indexed": true,
          "internalType": "address",
          "name": "owner",
          "type": "address"
        },
        {
          "indexed": false,
          "internalType": "uint256",
          "name": "amount",
          "type": "uint256"
        },
        {
          "indexed": false,
          "internalType": "address",
          "name": "tokenContract",
          "type": "address"
        },
        {
          "indexed": false,
          "internalType": "uint256",
          "name": "tokenId",
          "type": "uint256"
        },
        {
          "indexed": false,
          "internalType": "enum ITokenTypeable.TokenType",
          "name": "tokenType",
          "type": "uint8"
        },
        {
          "indexed": false,
          "internalType": "uint256",
          "name": "unlockTime",
          "type": "uint256"
        }
      ],
      "name": "TokensLocked",
      "type": "event"
    },
    {
      "anonymous": false,
      "inputs": [
        {
          "indexed": true,
          "internalType": "uint256",
          "name": "accountId",
          "type": "uint256"
        },
        {
          "indexed": true,
          "internalType": "address",
          "name": "owner",
          "type": "address"
        },
        {
          "indexed": false,
          "internalType": "uint256",
          "name": "amount",
          "type": "uint256"
        },
        {
          "indexed": false,
          "internalType": "address",
          "name": "tokenContract",
          "type": "address"
        },
        {
          "indexed": false,
          "internalType": "uint256",
          "name": "tokenId",
          "type": "uint256"
        },
        {
          "indexed": false,
          "internalType": "enum ITokenTypeable.TokenType",
          "name": "tokenType",
          "type": "uint8"
        }
      ],
      "name": "TokensRedeemed",
      "type": "event"
    },
    {
      "inputs": [],
      "name": "__recoverEther",
      "outputs": [],
      "stateMutability": "payable",
      "type": "function"
    },
    {
      "inputs": [
        {
          "internalType": "enum ITokenTypeable.TokenType",
          "name": "tokenType",
          "type": "uint8"
        },
        {
          "internalType": "address",
          "name": "tokenContract",
          "type": "address"
        },
        {
          "internalType": "uint256",
          "name": "tokenId",
          "type": "uint256"
        }
      ],
      "name": "__recoverTokens",
      "outputs": [],
      "stateMutability": "nonpayable",
      "type": "function"
    },
    {
      "inputs": [
        {
          "internalType": "string",
          "name": "baseURI",
          "type": "string"
        }
      ],
      "name": "__setBaseURI",
      "outputs": [],
      "stateMutability": "nonpayable",
      "type": "function"
    },
    {
      "inputs": [
        {
          "internalType": "uint256",
          "name": "tokenId",
          "type": "uint256"
        },
        {
          "internalType": "string",
          "name": "tokenUri",
          "type": "string"
        }
      ],
      "name": "__setTokenURI",
      "outputs": [],
      "stateMutability": "nonpayable",
      "type": "function"
    },
    {
      "inputs": [],
      "name": "bestPony",
      "outputs": [
        {
          "internalType": "string",
          "name": "",
          "type": "string"
        }
      ],
      "stateMutability": "pure",
      "type": "function"
    },
    {
      "inputs": [
        {
          "internalType": "uint256",
          "name": "accountId",
          "type": "uint256"
        },
        {
          "internalType": "uint256",
          "name": "unlockTime",
          "type": "uint256"
        }
      ],
      "name": "extendLock",
      "outputs": [],
      "stateMutability": "nonpayable",
      "type": "function"
    },
    {
      "inputs": [
        {
          "internalType": "uint256",
          "name": "accountId",
          "type": "uint256"
        }
      ],
      "name": "getAccount",
      "outputs": [
        {
          "components": [
            {
              "internalType": "uint256",
              "name": "amount",
              "type": "uint256"
            },
            {
              "internalType": "string",
              "name": "metadata",
              "type": "string"
            },
            {
              "internalType": "address",
              "name": "tokenContract",
              "type": "address"
            },
            {
              "internalType": "uint256",
              "name": "tokenId",
              "type": "uint256"
            },
            {
              "internalType": "enum ITokenTypeable.TokenType",
              "name": "tokenType",
              "type": "uint8"
            },
            {
              "internalType": "string",
              "name": "tokenUri",
              "type": "string"
            },
            {
              "internalType": "uint256",
              "name": "unlockTime",
              "type": "uint256"
            }
          ],
          "internalType": "struct IMarebitsLockerAccount.Account",
          "name": "",
          "type": "tuple"
        }
      ],
      "stateMutability": "view",
      "type": "function"
    },
    {
      "inputs": [
        {
          "internalType": "enum ITokenTypeable.TokenType",
          "name": "tokenType",
          "type": "uint8"
        },
        {
          "internalType": "address",
          "name": "tokenContract",
          "type": "address"
        },
        {
          "internalType": "uint256",
          "name": "tokenId",
          "type": "uint256"
        },
        {
          "internalType": "uint256",
          "name": "amount",
          "type": "uint256"
        },
        {
          "internalType": "uint256",
          "name": "unlockTime",
          "type": "uint256"
        }
      ],
      "name": "lockTokens",
      "outputs": [
        {
          "internalType": "uint256",
          "name": "",
          "type": "uint256"
        }
      ],
      "stateMutability": "nonpayable",
      "type": "function"
    },
    {
      "inputs": [],
      "name": "owner",
      "outputs": [
        {
          "internalType": "address",
          "name": "",
          "type": "address"
        }
      ],
      "stateMutability": "view",
      "type": "function"
    },
    {
      "inputs": [
        {
          "internalType": "uint256",
          "name": "accountId",
          "type": "uint256"
        }
      ],
      "name": "redeemToken",
      "outputs": [],
      "stateMutability": "nonpayable",
      "type": "function"
    },
    {
      "inputs": [],
      "name": "renounceOwnership",
      "outputs": [],
      "stateMutability": "nonpayable",
      "type": "function"
    },
    {
      "inputs": [
        {
          "internalType": "bytes4",
          "name": "interfaceId",
          "type": "bytes4"
        }
      ],
      "name": "supportsInterface",
      "outputs": [
        {
          "internalType": "bool",
          "name": "",
          "type": "bool"
        }
      ],
      "stateMutability": "view",
      "type": "function"
    },
    {
      "inputs": [
        {
          "internalType": "address",
          "name": "newOwner",
          "type": "address"
        }
      ],
      "name": "transferOwnership",
      "outputs": [],
      "stateMutability": "nonpayable",
      "type": "function"
    }
  ],
  "bytecode": "0x60806040523480156200001157600080fd5b506040516201034c3803806201034c83398181016040528101906200003791906200044f565b620000576200004b620001bc60201b60201c565b620001c460201b60201c565b600180819055506040516200006c9062000288565b604051809103906000f08015801562000089573d6000803e3d6000fd5b50600260006101000a81548173ffffffffffffffffffffffffffffffffffffffff021916908373ffffffffffffffffffffffffffffffffffffffff160217905550828282604051620000db9062000296565b620000e99392919062000565565b604051809103906000f08015801562000106573d6000803e3d6000fd5b50600360006101000a81548173ffffffffffffffffffffffffffffffffffffffff021916908373ffffffffffffffffffffffffffffffffffffffff1602179055506040516200015590620002a4565b604051809103906000f08015801562000172573d6000803e3d6000fd5b50600460006101000a81548173ffffffffffffffffffffffffffffffffffffffff021916908373ffffffffffffffffffffffffffffffffffffffff160217905550505050620005b7565b600033905090565b60008060009054906101000a900473ffffffffffffffffffffffffffffffffffffffff169050816000806101000a81548173ffffffffffffffffffffffffffffffffffffffff021916908373ffffffffffffffffffffffffffffffffffffffff1602179055508173ffffffffffffffffffffffffffffffffffffffff168173ffffffffffffffffffffffffffffffffffffffff167f8be0079c531659141344cd1fd0a4f28419497f9722a3daafe3b4186f6b6457e060405160405180910390a35050565b61400e80620059e183390190565b614dd980620099ef83390190565b611b84806200e7c883390190565b6000604051905090565b600080fd5b600080fd5b600080fd5b600080fd5b6000601f19601f8301169050919050565b7f4e487b7100000000000000000000000000000000000000000000000000000000600052604160045260246000fd5b6200031b82620002d0565b810181811067ffffffffffffffff821117156200033d576200033c620002e1565b5b80604052505050565b600062000352620002b2565b905062000360828262000310565b919050565b600067ffffffffffffffff821115620003835762000382620002e1565b5b6200038e82620002d0565b9050602081019050919050565b60005b83811015620003bb5780820151818401526020810190506200039e565b83811115620003cb576000848401525b50505050565b6000620003e8620003e28462000365565b62000346565b905082815260208101848484011115620004075762000406620002cb565b5b620004148482856200039b565b509392505050565b600082601f830112620004345762000433620002c6565b5b815162000446848260208601620003d1565b91505092915050565b6000806000606084860312156200046b576200046a620002bc565b5b600084015167ffffffffffffffff8111156200048c576200048b620002c1565b5b6200049a868287016200041c565b935050602084015167ffffffffffffffff811115620004be57620004bd620002c1565b5b620004cc868287016200041c565b925050604084015167ffffffffffffffff811115620004f057620004ef620002c1565b5b620004fe868287016200041c565b9150509250925092565b600081519050919050565b600082825260208201905092915050565b6000620005318262000508565b6200053d818562000513565b93506200054f8185602086016200039b565b6200055a81620002d0565b840191505092915050565b6000606082019050818103600083015262000581818662000524565b9050818103602083015262000597818562000524565b90508181036040830152620005ad818462000524565b9050949350505050565b61541a80620005c76000396000f3fe6080604052600436106100c25760003560e01c806358ee71731161007f5780638da5cb5b116100595780638da5cb5b1461021d578063a7688b5c14610248578063ce88b14514610285578063f2fde38b146102c2576100c2565b806358ee7173146101d357806364e71924146101fc578063715018a614610206576100c2565b8063013054c2146100c757806301ffc9a7146100f0578063070d66bf1461012d57806319511a7a146101565780631c3eeaac146101815780634a3b889a146101aa575b600080fd5b3480156100d357600080fd5b506100ee60048036038101906100e99190613983565b6102eb565b005b3480156100fc57600080fd5b5061011760048036038101906101129190613a08565b610f43565b6040516101249190613a50565b60405180910390f35b34801561013957600080fd5b50610154600480360381019061014f9190613a6b565b61115d565b005b34801561016257600080fd5b5061016b6117e8565b6040516101789190613b44565b60405180910390f35b34801561018d57600080fd5b506101a860048036038101906101a39190613be9565b611808565b005b3480156101b657600080fd5b506101d160048036038101906101cc9190613ca1565b6119b6565b005b3480156101df57600080fd5b506101fa60048036038101906101f59190613cee565b611ac5565b005b610204611bd7565b005b34801561021257600080fd5b5061021b611de3565b005b34801561022957600080fd5b50610232611e6b565b60405161023f9190613d5d565b60405180910390f35b34801561025457600080fd5b5061026f600480360381019061026a9190613d78565b611e94565b60405161027c9190613e02565b60405180910390f35b34801561029157600080fd5b506102ac60048036038101906102a79190613983565b612124565b6040516102b99190613f9f565b60405180910390f35b3480156102ce57600080fd5b506102e960048036038101906102e49190613fc1565b6121d4565b005b60026001541415610331576040517f08c379a00000000000000000000000000000000000000000000000000000000081526004016103289061403a565b60405180910390fd5b600260018190555061035f6103446122cc565b73ffffffffffffffffffffffffffffffffffffffff166122d4565b1561039f576040517f08c379a0000000000000000000000000000000000000000000000000000000008152600401610396906140cc565b60405180910390fd5b600360009054906101000a900473ffffffffffffffffffffffffffffffffffffffff1673ffffffffffffffffffffffffffffffffffffffff16638553c3e9826040518263ffffffff1660e01b81526004016103fa9190613e02565b602060405180830381865afa158015610417573d6000803e3d6000fd5b505050506040513d601f19601f8201168201806040525081019061043b9190614118565b61047a576040517f08c379a0000000000000000000000000000000000000000000000000000000008152600401610471906141b7565b60405180910390fd5b6104826122cc565b73ffffffffffffffffffffffffffffffffffffffff16600360009054906101000a900473ffffffffffffffffffffffffffffffffffffffff1673ffffffffffffffffffffffffffffffffffffffff16636352211e836040518263ffffffff1660e01b81526004016104f39190613e02565b602060405180830381865afa158015610510573d6000803e3d6000fd5b505050506040513d601f19601f8201168201806040525081019061053491906141ec565b73ffffffffffffffffffffffffffffffffffffffff161461058a576040517f08c379a00000000000000000000000000000000000000000000000000000000081526004016105819061428b565b60405180910390fd5b3073ffffffffffffffffffffffffffffffffffffffff16600360009054906101000a900473ffffffffffffffffffffffffffffffffffffffff1673ffffffffffffffffffffffffffffffffffffffff1663081812fc836040518263ffffffff1660e01b81526004016105fc9190613e02565b602060405180830381865afa158015610619573d6000803e3d6000fd5b505050506040513d601f19601f8201168201806040525081019061063d91906141ec565b73ffffffffffffffffffffffffffffffffffffffff1614610693576040517f08c379a000000000000000000000000000000000000000000000000000000000815260040161068a9061431d565b60405180910390fd5b600260009054906101000a900473ffffffffffffffffffffffffffffffffffffffff1673ffffffffffffffffffffffffffffffffffffffff166372abc8b7826040518263ffffffff1660e01b81526004016106ee9190613e02565b602060405180830381865afa15801561070b573d6000803e3d6000fd5b505050506040513d601f19601f8201168201806040525081019061072f9190614118565b61076e576040517f08c379a000000000000000000000000000000000000000000000000000000000815260040161076590614389565b60405180910390fd5b6000600260009054906101000a900473ffffffffffffffffffffffffffffffffffffffff1673ffffffffffffffffffffffffffffffffffffffff16639980ec86836040518263ffffffff1660e01b81526004016107cb9190613e02565b602060405180830381865afa1580156107e8573d6000803e3d6000fd5b505050506040513d601f19601f8201168201806040525081019061080c91906143be565b1161084c576040517f08c379a000000000000000000000000000000000000000000000000000000000815260040161084390614437565b60405180910390fd5b600260009054906101000a900473ffffffffffffffffffffffffffffffffffffffff1673ffffffffffffffffffffffffffffffffffffffff166317e4c78c8260006040518363ffffffff1660e01b81526004016108aa92919061449c565b600060405180830381600087803b1580156108c457600080fd5b505af11580156108d8573d6000803e3d6000fd5b50505050600360009054906101000a900473ffffffffffffffffffffffffffffffffffffffff1673ffffffffffffffffffffffffffffffffffffffff1663d1a01520826040518263ffffffff1660e01b81526004016109379190613e02565b600060405180830381600087803b15801561095157600080fd5b505af1158015610965573d6000803e3d6000fd5b50505050600460009054906101000a900473ffffffffffffffffffffffffffffffffffffffff1673ffffffffffffffffffffffffffffffffffffffff1663a6e943ff600260009054906101000a900473ffffffffffffffffffffffffffffffffffffffff1673ffffffffffffffffffffffffffffffffffffffff166376aed2e1846040518263ffffffff1660e01b8152600401610a029190613e02565b602060405180830381865afa158015610a1f573d6000803e3d6000fd5b505050506040513d601f19601f82011682018060405250810190610a4391906144da565b600260009054906101000a900473ffffffffffffffffffffffffffffffffffffffff1673ffffffffffffffffffffffffffffffffffffffff1663a07e5199856040518263ffffffff1660e01b8152600401610a9e9190613e02565b602060405180830381865afa158015610abb573d6000803e3d6000fd5b505050506040513d601f19601f82011682018060405250810190610adf91906141ec565b610ae76122cc565b600260009054906101000a900473ffffffffffffffffffffffffffffffffffffffff1673ffffffffffffffffffffffffffffffffffffffff166314ff5ea3876040518263ffffffff1660e01b8152600401610b429190613e02565b602060405180830381865afa158015610b5f573d6000803e3d6000fd5b505050506040513d601f19601f82011682018060405250810190610b8391906143be565b600260009054906101000a900473ffffffffffffffffffffffffffffffffffffffff1673ffffffffffffffffffffffffffffffffffffffff16639980ec86886040518263ffffffff1660e01b8152600401610bde9190613e02565b602060405180830381865afa158015610bfb573d6000803e3d6000fd5b505050506040513d601f19601f82011682018060405250810190610c1f91906143be565b6040518663ffffffff1660e01b8152600401610c3f959493929190614537565b600060405180830381600087803b158015610c5957600080fd5b505af1158015610c6d573d6000803e3d6000fd5b50505050610c796122cc565b73ffffffffffffffffffffffffffffffffffffffff16817f362ee327523b324da9696eece77c1716bbd5677a2839b1148716bdfd4a8b8176600260009054906101000a900473ffffffffffffffffffffffffffffffffffffffff1673ffffffffffffffffffffffffffffffffffffffff16639980ec86856040518263ffffffff1660e01b8152600401610d0c9190613e02565b602060405180830381865afa158015610d29573d6000803e3d6000fd5b505050506040513d601f19601f82011682018060405250810190610d4d91906143be565b600260009054906101000a900473ffffffffffffffffffffffffffffffffffffffff1673ffffffffffffffffffffffffffffffffffffffff1663a07e5199866040518263ffffffff1660e01b8152600401610da89190613e02565b602060405180830381865afa158015610dc5573d6000803e3d6000fd5b505050506040513d601f19601f82011682018060405250810190610de991906141ec565b600260009054906101000a900473ffffffffffffffffffffffffffffffffffffffff1673ffffffffffffffffffffffffffffffffffffffff166314ff5ea3876040518263ffffffff1660e01b8152600401610e449190613e02565b602060405180830381865afa158015610e61573d6000803e3d6000fd5b505050506040513d601f19601f82011682018060405250810190610e8591906143be565b600260009054906101000a900473ffffffffffffffffffffffffffffffffffffffff1673ffffffffffffffffffffffffffffffffffffffff166376aed2e1886040518263ffffffff1660e01b8152600401610ee09190613e02565b602060405180830381865afa158015610efd573d6000803e3d6000fd5b505050506040513d601f19601f82011682018060405250810190610f2191906144da565b604051610f31949392919061458a565b60405180910390a36001808190555050565b60007f19511a7a000000000000000000000000000000000000000000000000000000007bffffffffffffffffffffffffffffffffffffffffffffffffffffffff1916827bffffffffffffffffffffffffffffffffffffffffffffffffffffffff1916148061100e57507f0e083076000000000000000000000000000000000000000000000000000000007bffffffffffffffffffffffffffffffffffffffffffffffffffffffff1916827bffffffffffffffffffffffffffffffffffffffffffffffffffffffff1916145b8061107657507f64e71924000000000000000000000000000000000000000000000000000000007bffffffffffffffffffffffffffffffffffffffffffffffffffffffff1916827bffffffffffffffffffffffffffffffffffffffffffffffffffffffff1916145b806110de57507f1c3eeaac000000000000000000000000000000000000000000000000000000007bffffffffffffffffffffffffffffffffffffffffffffffffffffffff1916827bffffffffffffffffffffffffffffffffffffffffffffffffffffffff1916145b8061114657507f6fdd0864000000000000000000000000000000000000000000000000000000007bffffffffffffffffffffffffffffffffffffffffffffffffffffffff1916827bffffffffffffffffffffffffffffffffffffffffffffffffffffffff1916145b806111565750611155826122e7565b5b9050919050565b6111836111686122cc565b73ffffffffffffffffffffffffffffffffffffffff166122d4565b156111c3576040517f08c379a00000000000000000000000000000000000000000000000000000000081526004016111ba906140cc565b60405180910390fd5b600360009054906101000a900473ffffffffffffffffffffffffffffffffffffffff1673ffffffffffffffffffffffffffffffffffffffff16638553c3e9836040518263ffffffff1660e01b815260040161121e9190613e02565b602060405180830381865afa15801561123b573d6000803e3d6000fd5b505050506040513d601f19601f8201168201806040525081019061125f9190614118565b61129e576040517f08c379a0000000000000000000000000000000000000000000000000000000008152600401611295906141b7565b60405180910390fd5b6112a66122cc565b73ffffffffffffffffffffffffffffffffffffffff16600360009054906101000a900473ffffffffffffffffffffffffffffffffffffffff1673ffffffffffffffffffffffffffffffffffffffff16636352211e846040518263ffffffff1660e01b81526004016113179190613e02565b602060405180830381865afa158015611334573d6000803e3d6000fd5b505050506040513d601f19601f8201168201806040525081019061135891906141ec565b73ffffffffffffffffffffffffffffffffffffffff16146113ae576040517f08c379a00000000000000000000000000000000000000000000000000000000081526004016113a59061428b565b60405180910390fd5b600260009054906101000a900473ffffffffffffffffffffffffffffffffffffffff1673ffffffffffffffffffffffffffffffffffffffff1663b21536e6836040518263ffffffff1660e01b81526004016114099190613e02565b602060405180830381865afa158015611426573d6000803e3d6000fd5b505050506040513d601f19601f8201168201806040525081019061144a91906143be565b811161148b576040517f08c379a000000000000000000000000000000000000000000000000000000000815260040161148290614641565b60405180910390fd5b600260009054906101000a900473ffffffffffffffffffffffffffffffffffffffff1673ffffffffffffffffffffffffffffffffffffffff1663eafcfb9983836040518363ffffffff1660e01b81526004016114e8929190614661565b600060405180830381600087803b15801561150257600080fd5b505af1158015611516573d6000803e3d6000fd5b505050506115226122cc565b73ffffffffffffffffffffffffffffffffffffffff16827f7b2dffcb79001644d1437f723fadb7a701393cae02c2501b25423fc37bb424be600260009054906101000a900473ffffffffffffffffffffffffffffffffffffffff1673ffffffffffffffffffffffffffffffffffffffff16639980ec86866040518263ffffffff1660e01b81526004016115b59190613e02565b602060405180830381865afa1580156115d2573d6000803e3d6000fd5b505050506040513d601f19601f820116820180604052508101906115f691906143be565b600260009054906101000a900473ffffffffffffffffffffffffffffffffffffffff1673ffffffffffffffffffffffffffffffffffffffff1663a07e5199876040518263ffffffff1660e01b81526004016116519190613e02565b602060405180830381865afa15801561166e573d6000803e3d6000fd5b505050506040513d601f19601f8201168201806040525081019061169291906141ec565b600260009054906101000a900473ffffffffffffffffffffffffffffffffffffffff1673ffffffffffffffffffffffffffffffffffffffff166314ff5ea3886040518263ffffffff1660e01b81526004016116ed9190613e02565b602060405180830381865afa15801561170a573d6000803e3d6000fd5b505050506040513d601f19601f8201168201806040525081019061172e91906143be565b600260009054906101000a900473ffffffffffffffffffffffffffffffffffffffff1673ffffffffffffffffffffffffffffffffffffffff166376aed2e1896040518263ffffffff1660e01b81526004016117899190613e02565b602060405180830381865afa1580156117a6573d6000803e3d6000fd5b505050506040513d601f19601f820116820180604052508101906117ca91906144da565b876040516117dc95949392919061468a565b60405180910390a35050565b60606040518060600160405280603f81526020016153a6603f9139905090565b6118106122cc565b73ffffffffffffffffffffffffffffffffffffffff1661182e611e6b565b73ffffffffffffffffffffffffffffffffffffffff1614611884576040517f08c379a000000000000000000000000000000000000000000000000000000000815260040161187b90614729565b60405180910390fd5b600260009054906101000a900473ffffffffffffffffffffffffffffffffffffffff1673ffffffffffffffffffffffffffffffffffffffff16631c3eeaac8484846040518463ffffffff1660e01b81526004016118e393929190614749565b600060405180830381600087803b1580156118fd57600080fd5b505af1158015611911573d6000803e3d6000fd5b50505050600360009054906101000a900473ffffffffffffffffffffffffffffffffffffffff1673ffffffffffffffffffffffffffffffffffffffff16631c3eeaac8484846040518463ffffffff1660e01b815260040161197493929190614749565b600060405180830381600087803b15801561198e57600080fd5b505af11580156119a2573d6000803e3d6000fd5b505050506119b1838383612351565b505050565b6119be6122cc565b73ffffffffffffffffffffffffffffffffffffffff166119dc611e6b565b73ffffffffffffffffffffffffffffffffffffffff1614611a32576040517f08c379a0000000000000000000000000000000000000000000000000000000008152600401611a2990614729565b60405180910390fd5b600360009054906101000a900473ffffffffffffffffffffffffffffffffffffffff1673ffffffffffffffffffffffffffffffffffffffff16634a3b889a83836040518363ffffffff1660e01b8152600401611a8f9291906147bc565b600060405180830381600087803b158015611aa957600080fd5b505af1158015611abd573d6000803e3d6000fd5b505050505050565b611acd6122cc565b73ffffffffffffffffffffffffffffffffffffffff16611aeb611e6b565b73ffffffffffffffffffffffffffffffffffffffff1614611b41576040517f08c379a0000000000000000000000000000000000000000000000000000000008152600401611b3890614729565b60405180910390fd5b600360009054906101000a900473ffffffffffffffffffffffffffffffffffffffff1673ffffffffffffffffffffffffffffffffffffffff166358ee71738484846040518463ffffffff1660e01b8152600401611ba0939291906147e0565b600060405180830381600087803b158015611bba57600080fd5b505af1158015611bce573d6000803e3d6000fd5b50505050505050565b611bdf6122cc565b73ffffffffffffffffffffffffffffffffffffffff16611bfd611e6b565b73ffffffffffffffffffffffffffffffffffffffff1614611c53576040517f08c379a0000000000000000000000000000000000000000000000000000000008152600401611c4a90614729565b60405180910390fd5b600260009054906101000a900473ffffffffffffffffffffffffffffffffffffffff1673ffffffffffffffffffffffffffffffffffffffff166364e719246040518163ffffffff1660e01b8152600401600060405180830381600087803b158015611cbd57600080fd5b505af1158015611cd1573d6000803e3d6000fd5b50505050600360009054906101000a900473ffffffffffffffffffffffffffffffffffffffff1673ffffffffffffffffffffffffffffffffffffffff166364e719246040518163ffffffff1660e01b8152600401600060405180830381600087803b158015611d3f57600080fd5b505af1158015611d53573d6000803e3d6000fd5b50505050600460009054906101000a900473ffffffffffffffffffffffffffffffffffffffff1673ffffffffffffffffffffffffffffffffffffffff166364e719246040518163ffffffff1660e01b8152600401600060405180830381600087803b158015611dc157600080fd5b505af1158015611dd5573d6000803e3d6000fd5b50505050611de1612482565b565b611deb6122cc565b73ffffffffffffffffffffffffffffffffffffffff16611e09611e6b565b73ffffffffffffffffffffffffffffffffffffffff1614611e5f576040517f08c379a0000000000000000000000000000000000000000000000000000000008152600401611e5690614729565b60405180910390fd5b611e69600061254e565b565b60008060009054906101000a900473ffffffffffffffffffffffffffffffffffffffff16905090565b600060026001541415611edc576040517f08c379a0000000000000000000000000000000000000000000000000000000008152600401611ed39061403a565b60405180910390fd5b6002600181905550611f0a611eef6122cc565b73ffffffffffffffffffffffffffffffffffffffff166122d4565b15611f4a576040517f08c379a0000000000000000000000000000000000000000000000000000000008152600401611f41906140cc565b60405180910390fd5b8560016003811115611f5f57611f5e613e85565b5b816003811115611f7257611f71613e85565b5b1480611fa2575060026003811115611f8d57611f8c613e85565b5b816003811115611fa057611f9f613e85565b5b145b80611fd05750600380811115611fbb57611fba613e85565b5b816003811115611fce57611fcd613e85565b5b145b61200f576040517f08c379a0000000000000000000000000000000000000000000000000000000008152600401612006906148aa565b60405180910390fd5b428311612051576040517f08c379a00000000000000000000000000000000000000000000000000000000081526004016120489061493c565b60405180910390fd5b6001600381111561206557612064613e85565b5b87600381111561207857612077613e85565b5b14156120915761208a86868686612612565b9150612113565b600260038111156120a5576120a4613e85565b5b8760038111156120b8576120b7613e85565b5b14156120d0576120c9868585612a25565b9150612113565b6003808111156120e3576120e2613e85565b5b8760038111156120f6576120f5613e85565b5b141561210e57612107868685612df7565b9150612113565b600091505b506001808190555095945050505050565b61212c6138d4565b600260009054906101000a900473ffffffffffffffffffffffffffffffffffffffff1673ffffffffffffffffffffffffffffffffffffffff1663ce88b145836040518263ffffffff1660e01b81526004016121879190613e02565b600060405180830381865afa1580156121a4573d6000803e3d6000fd5b505050506040513d6000823e3d601f19601f820116820180604052508101906121cd9190614b73565b9050919050565b6121dc6122cc565b73ffffffffffffffffffffffffffffffffffffffff166121fa611e6b565b73ffffffffffffffffffffffffffffffffffffffff1614612250576040517f08c379a000000000000000000000000000000000000000000000000000000000815260040161224790614729565b60405180910390fd5b600073ffffffffffffffffffffffffffffffffffffffff168173ffffffffffffffffffffffffffffffffffffffff1614156122c0576040517f08c379a00000000000000000000000000000000000000000000000000000000081526004016122b790614c2e565b60405180910390fd5b6122c98161254e565b50565b600033905090565b600080823b905060008111915050919050565b60007f01ffc9a7000000000000000000000000000000000000000000000000000000007bffffffffffffffffffffffffffffffffffffffffffffffffffffffff1916827bffffffffffffffffffffffffffffffffffffffffffffffffffffffff1916149050919050565b6123596122cc565b73ffffffffffffffffffffffffffffffffffffffff16612377611e6b565b73ffffffffffffffffffffffffffffffffffffffff16146123cd576040517f08c379a00000000000000000000000000000000000000000000000000000000081526004016123c490614729565b60405180910390fd5b600160038111156123e1576123e0613e85565b5b8360038111156123f4576123f3613e85565b5b1415612409576124048282613216565b61247d565b6002600381111561241d5761241c613e85565b5b8360038111156124305761242f613e85565b5b14156124445761243f8261330c565b61247c565b60038081111561245757612456613e85565b5b83600381111561246a57612469613e85565b5b141561247b5761247a82826133ba565b5b5b5b505050565b61248a6122cc565b73ffffffffffffffffffffffffffffffffffffffff166124a8611e6b565b73ffffffffffffffffffffffffffffffffffffffff16146124fe576040517f08c379a00000000000000000000000000000000000000000000000000000000081526004016124f590614729565b60405180910390fd5b612506611e6b565b73ffffffffffffffffffffffffffffffffffffffff166108fc479081150290604051600060405180830381858888f1935050505015801561254b573d6000803e3d6000fd5b50565b60008060009054906101000a900473ffffffffffffffffffffffffffffffffffffffff169050816000806101000a81548173ffffffffffffffffffffffffffffffffffffffff021916908373ffffffffffffffffffffffffffffffffffffffff1602179055508173ffffffffffffffffffffffffffffffffffffffff168173ffffffffffffffffffffffffffffffffffffffff167f8be0079c531659141344cd1fd0a4f28419497f9722a3daafe3b4186f6b6457e060405160405180910390a35050565b6000808311612656576040517f08c379a000000000000000000000000000000000000000000000000000000000815260040161264d90614c9a565b60405180910390fd5b828573ffffffffffffffffffffffffffffffffffffffff1662fdd58e61267a6122cc565b876040518363ffffffff1660e01b8152600401612698929190614cba565b602060405180830381865afa1580156126b5573d6000803e3d6000fd5b505050506040513d601f19601f820116820180604052508101906126d991906143be565b101561271a576040517f08c379a000000000000000000000000000000000000000000000000000000000815260040161271190614d55565b60405180910390fd5b8473ffffffffffffffffffffffffffffffffffffffff1663e985e9c561273e6122cc565b306040518363ffffffff1660e01b815260040161275c929190614d75565b602060405180830381865afa158015612779573d6000803e3d6000fd5b505050506040513d601f19601f8201168201806040525081019061279d9190614118565b6127dc576040517f08c379a00000000000000000000000000000000000000000000000000000000081526004016127d390614e10565b60405180910390fd5b6127ea838686600186613434565b90508473ffffffffffffffffffffffffffffffffffffffff1663f242432a6128106122cc565b600460009054906101000a900473ffffffffffffffffffffffffffffffffffffffff1687876040518563ffffffff1660e01b81526004016128549493929190614ebc565b600060405180830381600087803b15801561286e57600080fd5b505af1158015612882573d6000803e3d6000fd5b50505050600360009054906101000a900473ffffffffffffffffffffffffffffffffffffffff1673ffffffffffffffffffffffffffffffffffffffff1663478d8d606128cc6122cc565b83600260009054906101000a900473ffffffffffffffffffffffffffffffffffffffff1673ffffffffffffffffffffffffffffffffffffffff16638ad91345866040518263ffffffff1660e01b81526004016129289190613e02565b600060405180830381865afa158015612945573d6000803e3d6000fd5b505050506040513d6000823e3d601f19601f8201168201806040525081019061296e9190614f14565b6040518463ffffffff1660e01b815260040161298c93929190614f5d565b600060405180830381600087803b1580156129a657600080fd5b505af11580156129ba573d6000803e3d6000fd5b505050506129c66122cc565b73ffffffffffffffffffffffffffffffffffffffff16817f7b2dffcb79001644d1437f723fadb7a701393cae02c2501b25423fc37bb424be858888600188604051612a1595949392919061468a565b60405180910390a3949350505050565b6000808311612a69576040517f08c379a0000000000000000000000000000000000000000000000000000000008152600401612a6090614c9a565b60405180910390fd5b828473ffffffffffffffffffffffffffffffffffffffff166370a08231612a8e6122cc565b6040518263ffffffff1660e01b8152600401612aaa9190613d5d565b602060405180830381865afa158015612ac7573d6000803e3d6000fd5b505050506040513d601f19601f82011682018060405250810190612aeb91906143be565b1015612b2c576040517f08c379a0000000000000000000000000000000000000000000000000000000008152600401612b2390614d55565b60405180910390fd5b828473ffffffffffffffffffffffffffffffffffffffff1663dd62ed3e612b516122cc565b306040518363ffffffff1660e01b8152600401612b6f929190614d75565b602060405180830381865afa158015612b8c573d6000803e3d6000fd5b505050506040513d601f19601f82011682018060405250810190612bb091906143be565b1015612bf1576040517f08c379a0000000000000000000000000000000000000000000000000000000008152600401612be89061431d565b60405180910390fd5b612c0083856000600286613434565b9050612c58612c0d6122cc565b600460009054906101000a900473ffffffffffffffffffffffffffffffffffffffff16858773ffffffffffffffffffffffffffffffffffffffff1661356b909392919063ffffffff16565b600360009054906101000a900473ffffffffffffffffffffffffffffffffffffffff1673ffffffffffffffffffffffffffffffffffffffff1663478d8d60612c9e6122cc565b83600260009054906101000a900473ffffffffffffffffffffffffffffffffffffffff1673ffffffffffffffffffffffffffffffffffffffff16638ad91345866040518263ffffffff1660e01b8152600401612cfa9190613e02565b600060405180830381865afa158015612d17573d6000803e3d6000fd5b505050506040513d6000823e3d601f19601f82011682018060405250810190612d409190614f14565b6040518463ffffffff1660e01b8152600401612d5e93929190614f5d565b600060405180830381600087803b158015612d7857600080fd5b505af1158015612d8c573d6000803e3d6000fd5b50505050612d986122cc565b73ffffffffffffffffffffffffffffffffffffffff16817f7b2dffcb79001644d1437f723fadb7a701393cae02c2501b25423fc37bb424be85876000600288604051612de8959493929190614f9b565b60405180910390a39392505050565b6000612e016122cc565b73ffffffffffffffffffffffffffffffffffffffff168473ffffffffffffffffffffffffffffffffffffffff16636352211e856040518263ffffffff1660e01b8152600401612e509190613e02565b602060405180830381865afa158015612e6d573d6000803e3d6000fd5b505050506040513d601f19601f82011682018060405250810190612e9191906141ec565b73ffffffffffffffffffffffffffffffffffffffff1614612ee7576040517f08c379a0000000000000000000000000000000000000000000000000000000008152600401612ede9061503a565b60405180910390fd5b3073ffffffffffffffffffffffffffffffffffffffff168473ffffffffffffffffffffffffffffffffffffffff1663081812fc856040518263ffffffff1660e01b8152600401612f379190613e02565b602060405180830381865afa158015612f54573d6000803e3d6000fd5b505050506040513d601f19601f82011682018060405250810190612f7891906141ec565b73ffffffffffffffffffffffffffffffffffffffff1614612fce576040517f08c379a0000000000000000000000000000000000000000000000000000000008152600401612fc59061431d565b60405180910390fd5b612fdd60018585600386613434565b90508373ffffffffffffffffffffffffffffffffffffffff166342842e0e6130036122cc565b600460009054906101000a900473ffffffffffffffffffffffffffffffffffffffff16866040518463ffffffff1660e01b81526004016130459392919061505a565b600060405180830381600087803b15801561305f57600080fd5b505af1158015613073573d6000803e3d6000fd5b50505050600360009054906101000a900473ffffffffffffffffffffffffffffffffffffffff1673ffffffffffffffffffffffffffffffffffffffff1663478d8d606130bd6122cc565b83600260009054906101000a900473ffffffffffffffffffffffffffffffffffffffff1673ffffffffffffffffffffffffffffffffffffffff16638ad91345866040518263ffffffff1660e01b81526004016131199190613e02565b600060405180830381865afa158015613136573d6000803e3d6000fd5b505050506040513d6000823e3d601f19601f8201168201806040525081019061315f9190614f14565b6040518463ffffffff1660e01b815260040161317d93929190614f5d565b600060405180830381600087803b15801561319757600080fd5b505af11580156131ab573d6000803e3d6000fd5b505050506131b76122cc565b73ffffffffffffffffffffffffffffffffffffffff16817f7b2dffcb79001644d1437f723fadb7a701393cae02c2501b25423fc37bb424be600187876003886040516132079594939291906150cc565b60405180910390a39392505050565b8173ffffffffffffffffffffffffffffffffffffffff1663f242432a3061323b611e6b565b848673ffffffffffffffffffffffffffffffffffffffff1662fdd58e30886040518363ffffffff1660e01b8152600401613276929190614cba565b602060405180830381865afa158015613293573d6000803e3d6000fd5b505050506040513d601f19601f820116820180604052508101906132b791906143be565b6040518563ffffffff1660e01b81526004016132d69493929190614ebc565b600060405180830381600087803b1580156132f057600080fd5b505af1158015613304573d6000803e3d6000fd5b505050505050565b6133b7613317611e6b565b8273ffffffffffffffffffffffffffffffffffffffff166370a08231306040518263ffffffff1660e01b81526004016133509190613d5d565b602060405180830381865afa15801561336d573d6000803e3d6000fd5b505050506040513d601f19601f8201168201806040525081019061339191906143be565b8373ffffffffffffffffffffffffffffffffffffffff166135f49092919063ffffffff16565b50565b8173ffffffffffffffffffffffffffffffffffffffff166342842e0e306133df611e6b565b846040518463ffffffff1660e01b81526004016133fe9392919061505a565b600060405180830381600087803b15801561341857600080fd5b505af115801561342c573d6000803e3d6000fd5b505050505050565b6000600360009054906101000a900473ffffffffffffffffffffffffffffffffffffffff1673ffffffffffffffffffffffffffffffffffffffff1663453830996040518163ffffffff1660e01b81526004016020604051808303816000875af11580156134a5573d6000803e3d6000fd5b505050506040513d601f19601f820116820180604052508101906134c991906143be565b9050600260009054906101000a900473ffffffffffffffffffffffffffffffffffffffff1673ffffffffffffffffffffffffffffffffffffffff1663404ff5cd8288888888886040518763ffffffff1660e01b81526004016135309695949392919061511f565b600060405180830381600087803b15801561354a57600080fd5b505af115801561355e573d6000803e3d6000fd5b5050505095945050505050565b6135ee846323b872dd60e01b85858560405160240161358c93929190615180565b604051602081830303815290604052907bffffffffffffffffffffffffffffffffffffffffffffffffffffffff19166020820180517bffffffffffffffffffffffffffffffffffffffffffffffffffffffff838183161783525050505061367a565b50505050565b6136758363a9059cbb60e01b8484604051602401613613929190614cba565b604051602081830303815290604052907bffffffffffffffffffffffffffffffffffffffffffffffffffffffff19166020820180517bffffffffffffffffffffffffffffffffffffffffffffffffffffffff838183161783525050505061367a565b505050565b60006136dc826040518060400160405280602081526020017f5361666545524332303a206c6f772d6c6576656c2063616c6c206661696c65648152508573ffffffffffffffffffffffffffffffffffffffff166137419092919063ffffffff16565b905060008151111561373c57808060200190518101906136fc9190614118565b61373b576040517f08c379a000000000000000000000000000000000000000000000000000000000815260040161373290615229565b60405180910390fd5b5b505050565b60606137508484600085613759565b90509392505050565b60608247101561379e576040517f08c379a0000000000000000000000000000000000000000000000000000000008152600401613795906152bb565b60405180910390fd5b6137a7856122d4565b6137e6576040517f08c379a00000000000000000000000000000000000000000000000000000000081526004016137dd90615327565b60405180910390fd5b6000808673ffffffffffffffffffffffffffffffffffffffff16858760405161380f919061538e565b60006040518083038185875af1925050503d806000811461384c576040519150601f19603f3d011682016040523d82523d6000602084013e613851565b606091505b509150915061386182828661386d565b92505050949350505050565b6060831561387d578290506138cd565b6000835111156138905782518084602001fd5b816040517f08c379a00000000000000000000000000000000000000000000000000000000081526004016138c49190613b44565b60405180910390fd5b9392505050565b6040518060e001604052806000815260200160608152602001600073ffffffffffffffffffffffffffffffffffffffff168152602001600081526020016000600381111561392557613924613e85565b5b815260200160608152602001600081525090565b6000604051905090565b600080fd5b600080fd5b6000819050919050565b6139608161394d565b811461396b57600080fd5b50565b60008135905061397d81613957565b92915050565b60006020828403121561399957613998613943565b5b60006139a78482850161396e565b91505092915050565b60007fffffffff0000000000000000000000000000000000000000000000000000000082169050919050565b6139e5816139b0565b81146139f057600080fd5b50565b600081359050613a02816139dc565b92915050565b600060208284031215613a1e57613a1d613943565b5b6000613a2c848285016139f3565b91505092915050565b60008115159050919050565b613a4a81613a35565b82525050565b6000602082019050613a656000830184613a41565b92915050565b60008060408385031215613a8257613a81613943565b5b6000613a908582860161396e565b9250506020613aa18582860161396e565b9150509250929050565b600081519050919050565b600082825260208201905092915050565b60005b83811015613ae5578082015181840152602081019050613aca565b83811115613af4576000848401525b50505050565b6000601f19601f8301169050919050565b6000613b1682613aab565b613b208185613ab6565b9350613b30818560208601613ac7565b613b3981613afa565b840191505092915050565b60006020820190508181036000830152613b5e8184613b0b565b905092915050565b60048110613b7357600080fd5b50565b600081359050613b8581613b66565b92915050565b600073ffffffffffffffffffffffffffffffffffffffff82169050919050565b6000613bb682613b8b565b9050919050565b613bc681613bab565b8114613bd157600080fd5b50565b600081359050613be381613bbd565b92915050565b600080600060608486031215613c0257613c01613943565b5b6000613c1086828701613b76565b9350506020613c2186828701613bd4565b9250506040613c328682870161396e565b9150509250925092565b600080fd5b600080fd5b600080fd5b60008083601f840112613c6157613c60613c3c565b5b8235905067ffffffffffffffff811115613c7e57613c7d613c41565b5b602083019150836001820283011115613c9a57613c99613c46565b5b9250929050565b60008060208385031215613cb857613cb7613943565b5b600083013567ffffffffffffffff811115613cd657613cd5613948565b5b613ce285828601613c4b565b92509250509250929050565b600080600060408486031215613d0757613d06613943565b5b6000613d158682870161396e565b935050602084013567ffffffffffffffff811115613d3657613d35613948565b5b613d4286828701613c4b565b92509250509250925092565b613d5781613bab565b82525050565b6000602082019050613d726000830184613d4e565b92915050565b600080600080600060a08688031215613d9457613d93613943565b5b6000613da288828901613b76565b9550506020613db388828901613bd4565b9450506040613dc48882890161396e565b9350506060613dd58882890161396e565b9250506080613de68882890161396e565b9150509295509295909350565b613dfc8161394d565b82525050565b6000602082019050613e176000830184613df3565b92915050565b613e268161394d565b82525050565b600082825260208201905092915050565b6000613e4882613aab565b613e528185613e2c565b9350613e62818560208601613ac7565b613e6b81613afa565b840191505092915050565b613e7f81613bab565b82525050565b7f4e487b7100000000000000000000000000000000000000000000000000000000600052602160045260246000fd5b60048110613ec557613ec4613e85565b5b50565b6000819050613ed682613eb4565b919050565b6000613ee682613ec8565b9050919050565b613ef681613edb565b82525050565b600060e083016000830151613f146000860182613e1d565b5060208301518482036020860152613f2c8282613e3d565b9150506040830151613f416040860182613e76565b506060830151613f546060860182613e1d565b506080830151613f676080860182613eed565b5060a083015184820360a0860152613f7f8282613e3d565b91505060c0830151613f9460c0860182613e1d565b508091505092915050565b60006020820190508181036000830152613fb98184613efc565b905092915050565b600060208284031215613fd757613fd6613943565b5b6000613fe584828501613bd4565b91505092915050565b7f5265656e7472616e637947756172643a207265656e7472616e742063616c6c00600082015250565b6000614024601f83613ab6565b915061402f82613fee565b602082019050919050565b6000602082019050818103600083015261405381614017565b9050919050565b7f43616c6c65722063616e6e6f74206265206120736d61727420636f6e7472616360008201527f7400000000000000000000000000000000000000000000000000000000000000602082015250565b60006140b6602183613ab6565b91506140c18261405a565b604082019050919050565b600060208201905081810360008301526140e5816140a9565b9050919050565b6140f581613a35565b811461410057600080fd5b50565b600081519050614112816140ec565b92915050565b60006020828403121561412e5761412d613943565b5b600061413c84828501614103565b91505092915050565b7f546f6b656e20666f7220606163636f756e7449646020646f6573206e6f74206560008201527f7869737400000000000000000000000000000000000000000000000000000000602082015250565b60006141a1602483613ab6565b91506141ac82614145565b604082019050919050565b600060208201905081810360008301526141d081614194565b9050919050565b6000815190506141e681613bbd565b92915050565b60006020828403121561420257614201613943565b5b6000614210848285016141d7565b91505092915050565b7f4e6f7420746865206f776e6572206f66207468697320606163636f756e74496460008201527f6000000000000000000000000000000000000000000000000000000000000000602082015250565b6000614275602183613ab6565b915061428082614219565b604082019050919050565b600060208201905081810360008301526142a481614268565b9050919050565b7f4e6f7420617070726f7665642c20796f75206d7573742063616c6c2060746f6b60008201527f656e2e617070726f766528296000000000000000000000000000000000000000602082015250565b6000614307602d83613ab6565b9150614312826142ab565b604082019050919050565b60006020820190508181036000830152614336816142fa565b9050919050565b7f60756e6c6f636b54696d6560206e6f7420657870697265640000000000000000600082015250565b6000614373601883613ab6565b915061437e8261433d565b602082019050919050565b600060208201905081810360008301526143a281614366565b9050919050565b6000815190506143b881613957565b92915050565b6000602082840312156143d4576143d3613943565b5b60006143e2848285016143a9565b91505092915050565b7f4163636f756e7420686173206e6f2062616c616e636500000000000000000000600082015250565b6000614421601683613ab6565b915061442c826143eb565b602082019050919050565b6000602082019050818103600083015261445081614414565b9050919050565b6000819050919050565b6000819050919050565b600061448661448161447c84614457565b614461565b61394d565b9050919050565b6144968161446b565b82525050565b60006040820190506144b16000830185613df3565b6144be602083018461448d565b9392505050565b6000815190506144d481613b66565b92915050565b6000602082840312156144f0576144ef613943565b5b60006144fe848285016144c5565b91505092915050565b61451081613edb565b82525050565b600061452182613b8b565b9050919050565b61453181614516565b82525050565b600060a08201905061454c6000830188614507565b6145596020830187613d4e565b6145666040830186614528565b6145736060830185613df3565b6145806080830184613df3565b9695505050505050565b600060808201905061459f6000830187613df3565b6145ac6020830186613d4e565b6145b96040830185613df3565b6145c66060830184614507565b95945050505050565b7f4e65772060756e6c6f636b54696d6560206d757374206265203e20746865206560008201527f78697374696e672060756e6c6f636b54696d6560000000000000000000000000602082015250565b600061462b603483613ab6565b9150614636826145cf565b604082019050919050565b6000602082019050818103600083015261465a8161461e565b9050919050565b60006040820190506146766000830185613df3565b6146836020830184613df3565b9392505050565b600060a08201905061469f6000830188613df3565b6146ac6020830187613d4e565b6146b96040830186613df3565b6146c66060830185614507565b6146d36080830184613df3565b9695505050505050565b7f4f776e61626c653a2063616c6c6572206973206e6f7420746865206f776e6572600082015250565b6000614713602083613ab6565b915061471e826146dd565b602082019050919050565b6000602082019050818103600083015261474281614706565b9050919050565b600060608201905061475e6000830186614507565b61476b6020830185613d4e565b6147786040830184613df3565b949350505050565b82818337600083830152505050565b600061479b8385613ab6565b93506147a8838584614780565b6147b183613afa565b840190509392505050565b600060208201905081810360008301526147d781848661478f565b90509392505050565b60006040820190506147f56000830186613df3565b818103602083015261480881848661478f565b9050949350505050565b7f60746f6b656e5479706560206d75737420726570726573656e7420612073757060008201527f706f7274656420746f6b656e3a203120666f7220455243313135352c2032206660208201527f6f722045524332302c206f72203320666f722045524337323100000000000000604082015250565b6000614894605983613ab6565b915061489f82614812565b606082019050919050565b600060208201905081810360008301526148c381614887565b9050919050565b7f60756e6c6f636b54696d6560206d75737420626520696e20746865206675747560008201527f7265000000000000000000000000000000000000000000000000000000000000602082015250565b6000614926602283613ab6565b9150614931826148ca565b604082019050919050565b6000602082019050818103600083015261495581614919565b9050919050565b600080fd5b7f4e487b7100000000000000000000000000000000000000000000000000000000600052604160045260246000fd5b61499982613afa565b810181811067ffffffffffffffff821117156149b8576149b7614961565b5b80604052505050565b60006149cb613939565b90506149d78282614990565b919050565b600080fd5b600080fd5b600067ffffffffffffffff821115614a0157614a00614961565b5b614a0a82613afa565b9050602081019050919050565b6000614a2a614a25846149e6565b6149c1565b905082815260208101848484011115614a4657614a456149e1565b5b614a51848285613ac7565b509392505050565b600082601f830112614a6e57614a6d613c3c565b5b8151614a7e848260208601614a17565b91505092915050565b600060e08284031215614a9d57614a9c61495c565b5b614aa760e06149c1565b90506000614ab7848285016143a9565b600083015250602082015167ffffffffffffffff811115614adb57614ada6149dc565b5b614ae784828501614a59565b6020830152506040614afb848285016141d7565b6040830152506060614b0f848285016143a9565b6060830152506080614b23848285016144c5565b60808301525060a082015167ffffffffffffffff811115614b4757614b466149dc565b5b614b5384828501614a59565b60a08301525060c0614b67848285016143a9565b60c08301525092915050565b600060208284031215614b8957614b88613943565b5b600082015167ffffffffffffffff811115614ba757614ba6613948565b5b614bb384828501614a87565b91505092915050565b7f4f776e61626c653a206e6577206f776e657220697320746865207a65726f206160008201527f6464726573730000000000000000000000000000000000000000000000000000602082015250565b6000614c18602683613ab6565b9150614c2382614bbc565b604082019050919050565b60006020820190508181036000830152614c4781614c0b565b9050919050565b7f60616d6f756e7460206d757374206265203e2030000000000000000000000000600082015250565b6000614c84601483613ab6565b9150614c8f82614c4e565b602082019050919050565b60006020820190508181036000830152614cb381614c77565b9050919050565b6000604082019050614ccf6000830185613d4e565b614cdc6020830184613df3565b9392505050565b7f60616d6f756e7460206d757374206265203c3d20746f74616c20746f6b656e2060008201527f62616c616e636500000000000000000000000000000000000000000000000000602082015250565b6000614d3f602783613ab6565b9150614d4a82614ce3565b604082019050919050565b60006020820190508181036000830152614d6e81614d32565b9050919050565b6000604082019050614d8a6000830185613d4e565b614d976020830184613d4e565b9392505050565b7f4e6f7420617070726f7665642c20796f75206d7573742063616c6c2060746f6b60008201527f656e2e736574417070726f76616c466f72416c6c282960000000000000000000602082015250565b6000614dfa603783613ab6565b9150614e0582614d9e565b604082019050919050565b60006020820190508181036000830152614e2981614ded565b9050919050565b6000614e4b614e46614e4184613b8b565b614461565b613b8b565b9050919050565b6000614e5d82614e30565b9050919050565b6000614e6f82614e52565b9050919050565b614e7f81614e64565b82525050565b600082825260208201905092915050565b50565b6000614ea6600083614e85565b9150614eb182614e96565b600082019050919050565b600060a082019050614ed16000830187613d4e565b614ede6020830186614e76565b614eeb6040830185613df3565b614ef86060830184613df3565b8181036080830152614f0981614e99565b905095945050505050565b600060208284031215614f2a57614f29613943565b5b600082015167ffffffffffffffff811115614f4857614f47613948565b5b614f5484828501614a59565b91505092915050565b6000606082019050614f726000830186614528565b614f7f6020830185613df3565b8181036040830152614f918184613b0b565b9050949350505050565b600060a082019050614fb06000830188613df3565b614fbd6020830187613d4e565b614fca604083018661448d565b614fd76060830185614507565b614fe46080830184613df3565b9695505050505050565b7f60746f6b656e496460206e6f74206f776e65642062792063616c6c6572000000600082015250565b6000615024601d83613ab6565b915061502f82614fee565b602082019050919050565b6000602082019050818103600083015261505381615017565b9050919050565b600060608201905061506f6000830186613d4e565b61507c6020830185614e76565b6150896040830184613df3565b949350505050565b6000819050919050565b60006150b66150b16150ac84615091565b614461565b61394d565b9050919050565b6150c68161509b565b82525050565b600060a0820190506150e160008301886150bd565b6150ee6020830187613d4e565b6150fb6040830186613df3565b6151086060830185614507565b6151156080830184613df3565b9695505050505050565b600060c0820190506151346000830189613df3565b6151416020830188613df3565b61514e6040830187613d4e565b61515b6060830186613df3565b6151686080830185614507565b61517560a0830184613df3565b979650505050505050565b60006060820190506151956000830186613d4e565b6151a26020830185613d4e565b6151af6040830184613df3565b949350505050565b7f5361666545524332303a204552433230206f7065726174696f6e20646964206e60008201527f6f74207375636365656400000000000000000000000000000000000000000000602082015250565b6000615213602a83613ab6565b915061521e826151b7565b604082019050919050565b6000602082019050818103600083015261524281615206565b9050919050565b7f416464726573733a20696e73756666696369656e742062616c616e636520666f60008201527f722063616c6c0000000000000000000000000000000000000000000000000000602082015250565b60006152a5602683613ab6565b91506152b082615249565b604082019050919050565b600060208201905081810360008301526152d481615298565b9050919050565b7f416464726573733a2063616c6c20746f206e6f6e2d636f6e7472616374000000600082015250565b6000615311601d83613ab6565b915061531c826152db565b602082019050919050565b6000602082019050818103600083015261534081615304565b9050919050565b600081519050919050565b600081905092915050565b600061536882615347565b6153728185615352565b9350615382818560208601613ac7565b80840191505092915050565b600061539a828461535d565b91508190509291505056fe5477696c6967687420537061726b6c6520697320746865206375746573742c20736d6172746573742c20616c6c2061726f756e64206265737420706f6e7921a264697066735822122068defa038d358d345ba0bde1ff134c515828fddf0e6b1fac1604cd66e92ea37a64736f6c634300080a003360806040523480156200001157600080fd5b5062000032620000266200003860201b60201c565b6200004060201b60201c565b62000104565b600033905090565b60008060009054906101000a900473ffffffffffffffffffffffffffffffffffffffff169050816000806101000a81548173ffffffffffffffffffffffffffffffffffffffff021916908373ffffffffffffffffffffffffffffffffffffffff1602179055508173ffffffffffffffffffffffffffffffffffffffff168173ffffffffffffffffffffffffffffffffffffffff167f8be0079c531659141344cd1fd0a4f28419497f9722a3daafe3b4186f6b6457e060405160405180910390a35050565b613efa80620001146000396000f3fe6080604052600436106101145760003560e01c806376aed2e1116100a0578063a574cea411610064578063a574cea4146103b6578063b21536e6146103f3578063ce88b14514610430578063eafcfb991461046d578063f2fde38b1461049657610114565b806376aed2e1146102975780638ad91345146102d45780638da5cb5b146103115780639980ec861461033c578063a07e51991461037957610114565b80631c3eeaac116100e75780631c3eeaac146101e7578063404ff5cd1461021057806364e7192414610239578063715018a61461024357806372abc8b71461025a57610114565b806301ffc9a71461011957806314ff5ea31461015657806317e4c78c1461019357806319511a7a146101bc575b600080fd5b34801561012557600080fd5b50610140600480360381019061013b91906129d2565b6104bf565b60405161014d9190612a1a565b60405180910390f35b34801561016257600080fd5b5061017d60048036038101906101789190612a6b565b6106d9565b60405161018a9190612aa7565b60405180910390f35b34801561019f57600080fd5b506101ba60048036038101906101b59190612ac2565b6106f9565b005b3480156101c857600080fd5b506101d16107af565b6040516101de9190612b9b565b60405180910390f35b3480156101f357600080fd5b5061020e60048036038101906102099190612c40565b6107cf565b005b34801561021c57600080fd5b5061023760048036038101906102329190612c93565b610900565b005b610241610bac565b005b34801561024f57600080fd5b50610258610c78565b005b34801561026657600080fd5b50610281600480360381019061027c9190612a6b565b610d00565b60405161028e9190612a1a565b60405180910390f35b3480156102a357600080fd5b506102be60048036038101906102b99190612a6b565b610d23565b6040516102cb9190612d97565b60405180910390f35b3480156102e057600080fd5b506102fb60048036038101906102f69190612a6b565b610d50565b6040516103089190612b9b565b60405180910390f35b34801561031d57600080fd5b50610326610df8565b6040516103339190612dc1565b60405180910390f35b34801561034857600080fd5b50610363600480360381019061035e9190612a6b565b610e21565b6040516103709190612aa7565b60405180910390f35b34801561038557600080fd5b506103a0600480360381019061039b9190612a6b565b610e41565b6040516103ad9190612dc1565b60405180910390f35b3480156103c257600080fd5b506103dd60048036038101906103d89190612a6b565b610e81565b6040516103ea9190612b9b565b60405180910390f35b3480156103ff57600080fd5b5061041a60048036038101906104159190612a6b565b610f29565b6040516104279190612aa7565b60405180910390f35b34801561043c57600080fd5b5061045760048036038101906104529190612a6b565b610f49565b6040516104649190612ef6565b60405180910390f35b34801561047957600080fd5b50610494600480360381019061048f9190612ac2565b611149565b005b3480156104a257600080fd5b506104bd60048036038101906104b89190612f18565b6111ff565b005b60007f19511a7a000000000000000000000000000000000000000000000000000000007bffffffffffffffffffffffffffffffffffffffffffffffffffffffff1916827bffffffffffffffffffffffffffffffffffffffffffffffffffffffff1916148061058a57507f0e083076000000000000000000000000000000000000000000000000000000007bffffffffffffffffffffffffffffffffffffffffffffffffffffffff1916827bffffffffffffffffffffffffffffffffffffffffffffffffffffffff1916145b806105f257507f64e71924000000000000000000000000000000000000000000000000000000007bffffffffffffffffffffffffffffffffffffffffffffffffffffffff1916827bffffffffffffffffffffffffffffffffffffffffffffffffffffffff1916145b8061065a57507f1c3eeaac000000000000000000000000000000000000000000000000000000007bffffffffffffffffffffffffffffffffffffffffffffffffffffffff1916827bffffffffffffffffffffffffffffffffffffffffffffffffffffffff1916145b806106c257507f7a34a3a8000000000000000000000000000000000000000000000000000000007bffffffffffffffffffffffffffffffffffffffffffffffffffffffff1916827bffffffffffffffffffffffffffffffffffffffffffffffffffffffff1916145b806106d257506106d1826112f7565b5b9050919050565b600060016000838152602001908152602001600020600301549050919050565b610701611361565b73ffffffffffffffffffffffffffffffffffffffff1661071f610df8565b73ffffffffffffffffffffffffffffffffffffffff1614610775576040517f08c379a000000000000000000000000000000000000000000000000000000000815260040161076c90612f91565b60405180910390fd5b8060016000848152602001908152602001600020600001819055506107ab60016000848152602001908152602001600020611369565b5050565b60606040518060600160405280603f8152602001613e4c603f9139905090565b6107d7611361565b73ffffffffffffffffffffffffffffffffffffffff166107f5610df8565b73ffffffffffffffffffffffffffffffffffffffff161461084b576040517f08c379a000000000000000000000000000000000000000000000000000000000815260040161084290612f91565b60405180910390fd5b6001600381111561085f5761085e612d20565b5b83600381111561087257610871612d20565b5b141561088757610882828261169f565b6108fb565b6002600381111561089b5761089a612d20565b5b8360038111156108ae576108ad612d20565b5b14156108c2576108bd82611795565b6108fa565b6003808111156108d5576108d4612d20565b5b8360038111156108e8576108e7612d20565b5b14156108f9576108f88282611843565b5b5b5b505050565b610908611361565b73ffffffffffffffffffffffffffffffffffffffff16610926610df8565b73ffffffffffffffffffffffffffffffffffffffff161461097c576040517f08c379a000000000000000000000000000000000000000000000000000000000815260040161097390612f91565b60405180910390fd5b600085116109bf576040517f08c379a00000000000000000000000000000000000000000000000000000000081526004016109b690612ffd565b60405180910390fd5b6003808111156109d2576109d1612d20565b5b8260038111156109e5576109e4612d20565b5b1415806109f25750600185145b610a31576040517f08c379a0000000000000000000000000000000000000000000000000000000008152600401610a289061308f565b60405180910390fd5b60026003811115610a4557610a44612d20565b5b826003811115610a5857610a57612d20565b5b1480610a645750600083115b610aa3576040517f08c379a0000000000000000000000000000000000000000000000000000000008152600401610a9a90613121565b60405180910390fd5b428111610ae5576040517f08c379a0000000000000000000000000000000000000000000000000000000008152600401610adc906131b3565b60405180910390fd5b600060016000888152602001908152602001600020905085858585858560000160008760020160008960030160008b60040160008d60060160008a919050558991906101000a81548160ff02191690836003811115610b4757610b46612d20565b5b021790555088919050558791906101000a81548173ffffffffffffffffffffffffffffffffffffffff021916908373ffffffffffffffffffffffffffffffffffffffff16021790555086919050555050505050610ba381611369565b50505050505050565b610bb4611361565b73ffffffffffffffffffffffffffffffffffffffff16610bd2610df8565b73ffffffffffffffffffffffffffffffffffffffff1614610c28576040517f08c379a0000000000000000000000000000000000000000000000000000000008152600401610c1f90612f91565b60405180910390fd5b610c30610df8565b73ffffffffffffffffffffffffffffffffffffffff166108fc479081150290604051600060405180830381858888f19350505050158015610c75573d6000803e3d6000fd5b50565b610c80611361565b73ffffffffffffffffffffffffffffffffffffffff16610c9e610df8565b73ffffffffffffffffffffffffffffffffffffffff1614610cf4576040517f08c379a0000000000000000000000000000000000000000000000000000000008152600401610ceb90612f91565b60405180910390fd5b610cfe60006118bd565b565b600042600160008481526020019081526020016000206006015411159050919050565b60006001600083815260200190815260200160002060040160009054906101000a900460ff169050919050565b6060600160008381526020019081526020016000206005018054610d7390613202565b80601f0160208091040260200160405190810160405280929190818152602001828054610d9f90613202565b8015610dec5780601f10610dc157610100808354040283529160200191610dec565b820191906000526020600020905b815481529060010190602001808311610dcf57829003601f168201915b50505050509050919050565b60008060009054906101000a900473ffffffffffffffffffffffffffffffffffffffff16905090565b600060016000838152602001908152602001600020600001549050919050565b60006001600083815260200190815260200160002060020160009054906101000a900473ffffffffffffffffffffffffffffffffffffffff169050919050565b6060600160008381526020019081526020016000206001018054610ea490613202565b80601f0160208091040260200160405190810160405280929190818152602001828054610ed090613202565b8015610f1d5780601f10610ef257610100808354040283529160200191610f1d565b820191906000526020600020905b815481529060010190602001808311610f0057829003601f168201915b50505050509050919050565b600060016000838152602001908152602001600020600601549050919050565b610f5161286d565b600160008381526020019081526020016000206040518060e001604052908160008201548152602001600182018054610f8990613202565b80601f0160208091040260200160405190810160405280929190818152602001828054610fb590613202565b80156110025780601f10610fd757610100808354040283529160200191611002565b820191906000526020600020905b815481529060010190602001808311610fe557829003601f168201915b505050505081526020016002820160009054906101000a900473ffffffffffffffffffffffffffffffffffffffff1673ffffffffffffffffffffffffffffffffffffffff1673ffffffffffffffffffffffffffffffffffffffff168152602001600382015481526020016004820160009054906101000a900460ff1660038111156110905761108f612d20565b5b60038111156110a2576110a1612d20565b5b81526020016005820180546110b690613202565b80601f01602080910402602001604051908101604052809291908181526020018280546110e290613202565b801561112f5780601f106111045761010080835404028352916020019161112f565b820191906000526020600020905b81548152906001019060200180831161111257829003601f168201915b505050505081526020016006820154815250509050919050565b611151611361565b73ffffffffffffffffffffffffffffffffffffffff1661116f610df8565b73ffffffffffffffffffffffffffffffffffffffff16146111c5576040517f08c379a00000000000000000000000000000000000000000000000000000000081526004016111bc90612f91565b60405180910390fd5b8060016000848152602001908152602001600020600601819055506111fb60016000848152602001908152602001600020611369565b5050565b611207611361565b73ffffffffffffffffffffffffffffffffffffffff16611225610df8565b73ffffffffffffffffffffffffffffffffffffffff161461127b576040517f08c379a000000000000000000000000000000000000000000000000000000000815260040161127290612f91565b60405180910390fd5b600073ffffffffffffffffffffffffffffffffffffffff168173ffffffffffffffffffffffffffffffffffffffff1614156112eb576040517f08c379a00000000000000000000000000000000000000000000000000000000081526004016112e2906132a6565b60405180910390fd5b6112f4816118bd565b50565b60007f01ffc9a7000000000000000000000000000000000000000000000000000000007bffffffffffffffffffffffffffffffffffffffffffffffffffffffff1916827bffffffffffffffffffffffffffffffffffffffffffffffffffffffff1916149050919050565b600033905090565b6113768160000154611981565b6113b98260020160009054906101000a900473ffffffffffffffffffffffffffffffffffffffff1673ffffffffffffffffffffffffffffffffffffffff16611981565b600160038111156113cd576113cc612d20565b5b8360040160009054906101000a900460ff1660038111156113f1576113f0612d20565b5b14611522576002600381111561140a57611409612d20565b5b8360040160009054906101000a900460ff16600381111561142e5761142d612d20565b5b146114e65760038081111561144657611445612d20565b5b8360040160009054906101000a900460ff16600381111561146a57611469612d20565b5b146114aa576040518060400160405280600781526020017f554e4b4e4f574e000000000000000000000000000000000000000000000000008152506114e1565b6040518060400160405280600681526020017f45524337323100000000000000000000000000000000000000000000000000008152505b61151d565b6040518060400160405280600581526020017f45524332300000000000000000000000000000000000000000000000000000008152505b611559565b6040518060400160405280600781526020017f45524331313535000000000000000000000000000000000000000000000000008152505b600084600301541161157a57604051806020016040528060008152506115a7565b6115878460030154611981565b604051602001611597919061339a565b6040516020818303038152906040525b6115b48560060154611981565b6040516020016115c895949392919061369d565b6040516020818303038152906040528160010190805190602001906115ee9291906128d2565b5061168481600101805461160190613202565b80601f016020809104026020016040519081016040528092919081815260200182805461162d90613202565b801561167a5780601f1061164f5761010080835404028352916020019161167a565b820191906000526020600020905b81548152906001019060200180831161165d57829003601f168201915b5050505050611ae2565b81600501908051906020019061169b9291906128d2565b5050565b8173ffffffffffffffffffffffffffffffffffffffff1663f242432a306116c4610df8565b848673ffffffffffffffffffffffffffffffffffffffff1662fdd58e30886040518363ffffffff1660e01b81526004016116ff92919061372a565b602060405180830381865afa15801561171c573d6000803e3d6000fd5b505050506040513d601f19601f820116820180604052508101906117409190613768565b6040518563ffffffff1660e01b815260040161175f949392919061382b565b600060405180830381600087803b15801561177957600080fd5b505af115801561178d573d6000803e3d6000fd5b505050505050565b6118406117a0610df8565b8273ffffffffffffffffffffffffffffffffffffffff166370a08231306040518263ffffffff1660e01b81526004016117d99190612dc1565b602060405180830381865afa1580156117f6573d6000803e3d6000fd5b505050506040513d601f19601f8201168201806040525081019061181a9190613768565b8373ffffffffffffffffffffffffffffffffffffffff16611c9b9092919063ffffffff16565b50565b8173ffffffffffffffffffffffffffffffffffffffff166342842e0e30611868610df8565b846040518463ffffffff1660e01b815260040161188793929190613883565b600060405180830381600087803b1580156118a157600080fd5b505af11580156118b5573d6000803e3d6000fd5b505050505050565b60008060009054906101000a900473ffffffffffffffffffffffffffffffffffffffff169050816000806101000a81548173ffffffffffffffffffffffffffffffffffffffff021916908373ffffffffffffffffffffffffffffffffffffffff1602179055508173ffffffffffffffffffffffffffffffffffffffff168173ffffffffffffffffffffffffffffffffffffffff167f8be0079c531659141344cd1fd0a4f28419497f9722a3daafe3b4186f6b6457e060405160405180910390a35050565b606060008214156119c9576040518060400160405280600181526020017f30000000000000000000000000000000000000000000000000000000000000008152509050611add565b600082905060005b600082146119fb5780806119e4906138e9565b915050600a826119f49190613961565b91506119d1565b60008167ffffffffffffffff811115611a1757611a16613992565b5b6040519080825280601f01601f191660200182016040528015611a495781602001600182028036833780820191505090505b5090505b60008514611ad657600182611a6291906139c1565b9150600a85611a7191906139f5565b6030611a7d9190613a26565b60f81b818381518110611a9357611a92613a7c565b5b60200101907effffffffffffffffffffffffffffffffffffffffffffffffffffffffffffff1916908160001a905350600a85611acf9190613961565b9450611a4d565b8093505050505b919050565b606060008290506000611af58251611d21565b90506000611b2782516002611b0a9190613aab565b60048551611b189190613a26565b611b229190613a26565b611d21565b9050611c91611c8c6040518060400160405280600281526020017f1220000000000000000000000000000000000000000000000000000000000000815250611c8760026040518060400160405280600181526020017f0a00000000000000000000000000000000000000000000000000000000000000815250866040518060400160405280600381526020017f0802120000000000000000000000000000000000000000000000000000000000815250898b6040518060400160405280600181526020017f18000000000000000000000000000000000000000000000000000000000000008152508c604051602001611c269796959493929190613b4c565b604051602081830303815290604052604051611c429190613bb1565b602060405180830381855afa158015611c5f573d6000803e3d6000fd5b5050506040513d601f19601f82011682018060405250810190611c829190613bfe565b611d81565b611e60565b611fdf565b9350505050919050565b611d1c8363a9059cbb60e01b8484604051602401611cba92919061372a565b604051602081830303815290604052907bffffffffffffffffffffffffffffffffffffffffffffffffffffffff19166020820180517bffffffffffffffffffffffffffffffffffffffffffffffffffffffff8381831617835250505050612227565b505050565b60606080821015611d3c57611d35826122ee565b9050611d7c565b611d79611d5f60808085611d5091906139f5565b611d5a9190613a26565b6122ee565b611d74608085611d6f9190613961565b6122ee565b611e60565b90505b919050565b60606000602067ffffffffffffffff811115611da057611d9f613992565b5b6040519080825280601f01601f191660200182016040528015611dd25781602001600182028036833780820191505090505b50905060005b60208160ff161015611e5657838160ff1660208110611dfa57611df9613a7c565b5b1a60f81b828260ff1681518110611e1457611e13613a7c565b5b60200101907effffffffffffffffffffffffffffffffffffffffffffffffffffffffffffff1916908160001a9053508080611e4e90613c38565b915050611dd8565b5080915050919050565b6060600082518451611e729190613a26565b67ffffffffffffffff811115611e8b57611e8a613992565b5b6040519080825280601f01601f191660200182016040528015611ebd5781602001600182028036833780820191505090505b50905060005b8451811015611f3f57848181518110611edf57611ede613a7c565b5b602001015160f81c60f81b828281518110611efd57611efc613a7c565b5b60200101907effffffffffffffffffffffffffffffffffffffffffffffffffffffffffffff1916908160001a9053508080611f37906138e9565b915050611ec3565b5b83518551611f4e9190613a26565b811015611fd45783855182611f6391906139c1565b81518110611f7457611f73613a7c565b5b602001015160f81c60f81b828281518110611f9257611f91613a7c565b5b60200101907effffffffffffffffffffffffffffffffffffffffffffffffffffffffffffff1916908160001a9053508080611fcc906138e9565b915050611f40565b819250505092915050565b606060008251141561204057600067ffffffffffffffff81111561200657612005613992565b5b6040519080825280601f01601f1916602001820160405280156120385781602001600182028036833780820191505090505b509050612222565b6000604067ffffffffffffffff81111561205d5761205c613992565b5b60405190808252806020026020018201604052801561208b5781602001602082028036833780820191505090505b5090506000816000815181106120a4576120a3613a7c565b5b602002602001019060ff16908160ff168152505060006001905060005b84518110156122025760008582815181106120df576120de613a7c565b5b602001015160f81c60f81b60f81c60ff16905060005b8360ff1681101561218c5761010085828151811061211657612115613a7c565b5b602002602001015160ff1661212b9190613aab565b826121369190613a26565b9150603a8261214591906139f5565b85828151811061215857612157613a7c565b5b602002602001019060ff16908160ff1681525050603a826121799190613961565b915080612185906138e9565b90506120f5565b505b60008111156121f057603a816121a491906139f5565b848460ff16815181106121ba576121b9613a7c565b5b602002602001019060ff16908160ff168152505082806121d990613c38565b935050603a816121e99190613961565b905061218e565b50806121fb906138e9565b90506120c1565b5061221d6122186122138484612422565b6124e2565b6125b5565b925050505b919050565b6000612289826040518060400160405280602081526020017f5361666545524332303a206c6f772d6c6576656c2063616c6c206661696c65648152508573ffffffffffffffffffffffffffffffffffffffff166126c79092919063ffffffff16565b90506000815111156122e957808060200190518101906122a99190613c8e565b6122e8576040517f08c379a00000000000000000000000000000000000000000000000000000000081526004016122df90613d2d565b60405180910390fd5b5b505050565b6060600082141561234e57600067ffffffffffffffff81111561231457612313613992565b5b6040519080825280601f01601f1916602001820160405280156123465781602001600182028036833780820191505090505b50905061241d565b60006101008361235e91906139f5565b60f81b90506000600167ffffffffffffffff8111156123805761237f613992565b5b6040519080825280601f01601f1916602001820160405280156123b25781602001600182028036833780820191505090505b50905081816000815181106123ca576123c9613a7c565b5b60200101907effffffffffffffffffffffffffffffffffffffffffffffffffffffffffffff1916908160001a9053506124186124126101008661240d9190613961565b6122ee565b82611e60565b925050505b919050565b606060008260ff1667ffffffffffffffff81111561244357612442613992565b5b6040519080825280602002602001820160405280156124715781602001602082028036833780820191505090505b50905060005b8360ff168110156124d75784818151811061249557612494613a7c565b5b60200260200101518282815181106124b0576124af613a7c565b5b602002602001019060ff16908160ff168152505080806124cf906138e9565b915050612477565b508091505092915050565b60606000825167ffffffffffffffff81111561250157612500613992565b5b60405190808252806020026020018201604052801561252f5781602001602082028036833780820191505090505b50905060005b83518110156125ab5783816001865161254e91906139c1565b61255891906139c1565b8151811061256957612568613a7c565b5b602002602001015182828151811061258457612583613a7c565b5b602002602001019060ff16908160ff168152505080806125a3906138e9565b915050612535565b5080915050919050565b60606000825167ffffffffffffffff8111156125d4576125d3613992565b5b6040519080825280601f01601f1916602001820160405280156126065781602001600182028036833780820191505090505b50905060005b83518110156126bd576040518060600160405280603a8152602001613e8b603a913984828151811061264157612640613a7c565b5b602002602001015160ff168151811061265d5761265c613a7c565b5b602001015160f81c60f81b82828151811061267b5761267a613a7c565b5b60200101907effffffffffffffffffffffffffffffffffffffffffffffffffffffffffffff1916908160001a90535080806126b5906138e9565b91505061260c565b5080915050919050565b60606126d684846000856126df565b90509392505050565b606082471015612724576040517f08c379a000000000000000000000000000000000000000000000000000000000815260040161271b90613dbf565b60405180910390fd5b61272d856127f3565b61276c576040517f08c379a000000000000000000000000000000000000000000000000000000000815260040161276390613e2b565b60405180910390fd5b6000808673ffffffffffffffffffffffffffffffffffffffff1685876040516127959190613bb1565b60006040518083038185875af1925050503d80600081146127d2576040519150601f19603f3d011682016040523d82523d6000602084013e6127d7565b606091505b50915091506127e7828286612806565b92505050949350505050565b600080823b905060008111915050919050565b6060831561281657829050612866565b6000835111156128295782518084602001fd5b816040517f08c379a000000000000000000000000000000000000000000000000000000000815260040161285d9190612b9b565b60405180910390fd5b9392505050565b6040518060e001604052806000815260200160608152602001600073ffffffffffffffffffffffffffffffffffffffff16815260200160008152602001600060038111156128be576128bd612d20565b5b815260200160608152602001600081525090565b8280546128de90613202565b90600052602060002090601f0160209004810192826129005760008555612947565b82601f1061291957805160ff1916838001178555612947565b82800160010185558215612947579182015b8281111561294657825182559160200191906001019061292b565b5b5090506129549190612958565b5090565b5b80821115612971576000816000905550600101612959565b5090565b600080fd5b60007fffffffff0000000000000000000000000000000000000000000000000000000082169050919050565b6129af8161297a565b81146129ba57600080fd5b50565b6000813590506129cc816129a6565b92915050565b6000602082840312156129e8576129e7612975565b5b60006129f6848285016129bd565b91505092915050565b60008115159050919050565b612a14816129ff565b82525050565b6000602082019050612a2f6000830184612a0b565b92915050565b6000819050919050565b612a4881612a35565b8114612a5357600080fd5b50565b600081359050612a6581612a3f565b92915050565b600060208284031215612a8157612a80612975565b5b6000612a8f84828501612a56565b91505092915050565b612aa181612a35565b82525050565b6000602082019050612abc6000830184612a98565b92915050565b60008060408385031215612ad957612ad8612975565b5b6000612ae785828601612a56565b9250506020612af885828601612a56565b9150509250929050565b600081519050919050565b600082825260208201905092915050565b60005b83811015612b3c578082015181840152602081019050612b21565b83811115612b4b576000848401525b50505050565b6000601f19601f8301169050919050565b6000612b6d82612b02565b612b778185612b0d565b9350612b87818560208601612b1e565b612b9081612b51565b840191505092915050565b60006020820190508181036000830152612bb58184612b62565b905092915050565b60048110612bca57600080fd5b50565b600081359050612bdc81612bbd565b92915050565b600073ffffffffffffffffffffffffffffffffffffffff82169050919050565b6000612c0d82612be2565b9050919050565b612c1d81612c02565b8114612c2857600080fd5b50565b600081359050612c3a81612c14565b92915050565b600080600060608486031215612c5957612c58612975565b5b6000612c6786828701612bcd565b9350506020612c7886828701612c2b565b9250506040612c8986828701612a56565b9150509250925092565b60008060008060008060c08789031215612cb057612caf612975565b5b6000612cbe89828a01612a56565b9650506020612ccf89828a01612a56565b9550506040612ce089828a01612c2b565b9450506060612cf189828a01612a56565b9350506080612d0289828a01612bcd565b92505060a0612d1389828a01612a56565b9150509295509295509295565b7f4e487b7100000000000000000000000000000000000000000000000000000000600052602160045260246000fd5b60048110612d6057612d5f612d20565b5b50565b6000819050612d7182612d4f565b919050565b6000612d8182612d63565b9050919050565b612d9181612d76565b82525050565b6000602082019050612dac6000830184612d88565b92915050565b612dbb81612c02565b82525050565b6000602082019050612dd66000830184612db2565b92915050565b612de581612a35565b82525050565b600082825260208201905092915050565b6000612e0782612b02565b612e118185612deb565b9350612e21818560208601612b1e565b612e2a81612b51565b840191505092915050565b612e3e81612c02565b82525050565b612e4d81612d76565b82525050565b600060e083016000830151612e6b6000860182612ddc565b5060208301518482036020860152612e838282612dfc565b9150506040830151612e986040860182612e35565b506060830151612eab6060860182612ddc565b506080830151612ebe6080860182612e44565b5060a083015184820360a0860152612ed68282612dfc565b91505060c0830151612eeb60c0860182612ddc565b508091505092915050565b60006020820190508181036000830152612f108184612e53565b905092915050565b600060208284031215612f2e57612f2d612975565b5b6000612f3c84828501612c2b565b91505092915050565b7f4f776e61626c653a2063616c6c6572206973206e6f7420746865206f776e6572600082015250565b6000612f7b602083612b0d565b9150612f8682612f45565b602082019050919050565b60006020820190508181036000830152612faa81612f6e565b9050919050565b7f60616d6f756e7460206d7573742062652067726561746572207468616e203000600082015250565b6000612fe7601f83612b0d565b9150612ff282612fb1565b602082019050919050565b6000602082019050818103600083015261301681612fda565b9050919050565b7f60616d6f756e7460206d757374206265203120666f722045524337323120746f60008201527f6b656e7300000000000000000000000000000000000000000000000000000000602082015250565b6000613079602483612b0d565b91506130848261301d565b604082019050919050565b600060208201905081810360008301526130a88161306c565b9050919050565b7f60746f6b656e496460206d7573742062652073706563696669656420666f722060008201527f455243373231206f72204552433131353520746f6b656e730000000000000000602082015250565b600061310b603883612b0d565b9150613116826130af565b604082019050919050565b6000602082019050818103600083015261313a816130fe565b9050919050565b7f60756e6c6f636b54696d6560206d75737420626520696e20746865206675747560008201527f7265000000000000000000000000000000000000000000000000000000000000602082015250565b600061319d602283612b0d565b91506131a882613141565b604082019050919050565b600060208201905081810360008301526131cc81613190565b9050919050565b7f4e487b7100000000000000000000000000000000000000000000000000000000600052602260045260246000fd5b6000600282049050600182168061321a57607f821691505b6020821081141561322e5761322d6131d3565b5b50919050565b7f4f776e61626c653a206e6577206f776e657220697320746865207a65726f206160008201527f6464726573730000000000000000000000000000000000000000000000000000602082015250565b6000613290602683612b0d565b915061329b82613234565b604082019050919050565b600060208201905081810360008301526132bf81613283565b9050919050565b600081905092915050565b7f22746f6b656e4964223a22000000000000000000000000000000000000000000600082015250565b6000613307600b836132c6565b9150613312826132d1565b600b82019050919050565b600061332882612b02565b61333281856132c6565b9350613342818560208601612b1e565b80840191505092915050565b7f222c000000000000000000000000000000000000000000000000000000000000600082015250565b60006133846002836132c6565b915061338f8261334e565b600282019050919050565b60006133a5826132fa565b91506133b1828461331d565b91506133bc82613377565b915081905092915050565b7f7b226465736372697074696f6e223a225468697320746f6b656e20656e74697460008201527f6c65732074686520686f6c64657220746f20776974686472617720746865697260208201527f206c6f636b656420746f6b656e287329206166746572207468656972206c6f6360408201527f6b20706572696f6420657870697265732066726f6d20746865204d617265204260608201527f697473204c6f636b65722e222c2265787465726e616c5f75726c223a2268747460808201527f70733a2f2f6d6172652e62697a2f222c22696d616765223a2268747470733a2f60a08201527f2f6d6172652e62697a2f6d617265626974732f69636f6e2d3936302e706e672260c08201527f2c226e616d65223a225c75443833445c75444330455c75323030445c7532363460e08201527f305c75464530465c75443833445c75444431325c75443833455c7544453939226101008201527f2c2270726f70657274696573223a207b22616d6f756e74223a2200000000000061012082015250565b600061355661013a836132c6565b9150613561826133c7565b61013a82019050919050565b7f222c22746f6b656e436f6e7472616374223a2200000000000000000000000000600082015250565b60006135a36013836132c6565b91506135ae8261356d565b601382019050919050565b7f222c22746f6b656e54797065223a220000000000000000000000000000000000600082015250565b60006135ef600f836132c6565b91506135fa826135b9565b600f82019050919050565b7f22756e6c6f636b54696d65223a22000000000000000000000000000000000000600082015250565b600061363b600e836132c6565b915061364682613605565b600e82019050919050565b7f227d7d0000000000000000000000000000000000000000000000000000000000600082015250565b60006136876003836132c6565b915061369282613651565b600382019050919050565b60006136a882613548565b91506136b4828861331d565b91506136bf82613596565b91506136cb828761331d565b91506136d6826135e2565b91506136e2828661331d565b91506136ed82613377565b91506136f9828561331d565b91506137048261362e565b9150613710828461331d565b915061371b8261367a565b91508190509695505050505050565b600060408201905061373f6000830185612db2565b61374c6020830184612a98565b9392505050565b60008151905061376281612a3f565b92915050565b60006020828403121561377e5761377d612975565b5b600061378c84828501613753565b91505092915050565b6000819050919050565b60006137ba6137b56137b084612be2565b613795565b612be2565b9050919050565b60006137cc8261379f565b9050919050565b60006137de826137c1565b9050919050565b6137ee816137d3565b82525050565b600082825260208201905092915050565b50565b60006138156000836137f4565b915061382082613805565b600082019050919050565b600060a0820190506138406000830187612db2565b61384d60208301866137e5565b61385a6040830185612a98565b6138676060830184612a98565b818103608083015261387881613808565b905095945050505050565b60006060820190506138986000830186612db2565b6138a560208301856137e5565b6138b26040830184612a98565b949350505050565b7f4e487b7100000000000000000000000000000000000000000000000000000000600052601160045260246000fd5b60006138f482612a35565b91507fffffffffffffffffffffffffffffffffffffffffffffffffffffffffffffffff821415613927576139266138ba565b5b600182019050919050565b7f4e487b7100000000000000000000000000000000000000000000000000000000600052601260045260246000fd5b600061396c82612a35565b915061397783612a35565b92508261398757613986613932565b5b828204905092915050565b7f4e487b7100000000000000000000000000000000000000000000000000000000600052604160045260246000fd5b60006139cc82612a35565b91506139d783612a35565b9250828210156139ea576139e96138ba565b5b828203905092915050565b6000613a0082612a35565b9150613a0b83612a35565b925082613a1b57613a1a613932565b5b828206905092915050565b6000613a3182612a35565b9150613a3c83612a35565b9250827fffffffffffffffffffffffffffffffffffffffffffffffffffffffffffffffff03821115613a7157613a706138ba565b5b828201905092915050565b7f4e487b7100000000000000000000000000000000000000000000000000000000600052603260045260246000fd5b6000613ab682612a35565b9150613ac183612a35565b9250817fffffffffffffffffffffffffffffffffffffffffffffffffffffffffffffffff0483118215151615613afa57613af96138ba565b5b828202905092915050565b600081519050919050565b600081905092915050565b6000613b2682613b05565b613b308185613b10565b9350613b40818560208601612b1e565b80840191505092915050565b6000613b58828a613b1b565b9150613b648289613b1b565b9150613b708288613b1b565b9150613b7c8287613b1b565b9150613b888286613b1b565b9150613b948285613b1b565b9150613ba08284613b1b565b915081905098975050505050505050565b6000613bbd8284613b1b565b915081905092915050565b6000819050919050565b613bdb81613bc8565b8114613be657600080fd5b50565b600081519050613bf881613bd2565b92915050565b600060208284031215613c1457613c13612975565b5b6000613c2284828501613be9565b91505092915050565b600060ff82169050919050565b6000613c4382613c2b565b915060ff821415613c5757613c566138ba565b5b600182019050919050565b613c6b816129ff565b8114613c7657600080fd5b50565b600081519050613c8881613c62565b92915050565b600060208284031215613ca457613ca3612975565b5b6000613cb284828501613c79565b91505092915050565b7f5361666545524332303a204552433230206f7065726174696f6e20646964206e60008201527f6f74207375636365656400000000000000000000000000000000000000000000602082015250565b6000613d17602a83612b0d565b9150613d2282613cbb565b604082019050919050565b60006020820190508181036000830152613d4681613d0a565b9050919050565b7f416464726573733a20696e73756666696369656e742062616c616e636520666f60008201527f722063616c6c0000000000000000000000000000000000000000000000000000602082015250565b6000613da9602683612b0d565b9150613db482613d4d565b604082019050919050565b60006020820190508181036000830152613dd881613d9c565b9050919050565b7f416464726573733a2063616c6c20746f206e6f6e2d636f6e7472616374000000600082015250565b6000613e15601d83612b0d565b9150613e2082613ddf565b602082019050919050565b60006020820190508181036000830152613e4481613e08565b905091905056fe5477696c6967687420537061726b6c6520697320746865206375746573742c20736d6172746573742c20616c6c2061726f756e64206265737420706f6e792131323334353637383941424344454647484a4b4c4d4e505152535455565758595a6162636465666768696a6b6d6e6f707172737475767778797aa2646970667358221220eb4184c212b88bd7a398c7da5db27347098872da1ad0cf296b9c3c20738a693064736f6c634300080a003360806040523480156200001157600080fd5b5060405162004dd938038062004dd98339818101604052810190620000379190620003c8565b8282620000596200004d620000af60201b60201c565b620000b760201b60201c565b8160019080519060200190620000719291906200017b565b5080600290805190602001906200008a9291906200017b565b5050508060089080519060200190620000a59291906200017b565b50505050620004e6565b600033905090565b60008060009054906101000a900473ffffffffffffffffffffffffffffffffffffffff169050816000806101000a81548173ffffffffffffffffffffffffffffffffffffffff021916908373ffffffffffffffffffffffffffffffffffffffff1602179055508173ffffffffffffffffffffffffffffffffffffffff168173ffffffffffffffffffffffffffffffffffffffff167f8be0079c531659141344cd1fd0a4f28419497f9722a3daafe3b4186f6b6457e060405160405180910390a35050565b8280546200018990620004b0565b90600052602060002090601f016020900481019282620001ad5760008555620001f9565b82601f10620001c857805160ff1916838001178555620001f9565b82800160010185558215620001f9579182015b82811115620001f8578251825591602001919060010190620001db565b5b5090506200020891906200020c565b5090565b5b80821115620002275760008160009055506001016200020d565b5090565b6000604051905090565b600080fd5b600080fd5b600080fd5b600080fd5b6000601f19601f8301169050919050565b7f4e487b7100000000000000000000000000000000000000000000000000000000600052604160045260246000fd5b620002948262000249565b810181811067ffffffffffffffff82111715620002b657620002b56200025a565b5b80604052505050565b6000620002cb6200022b565b9050620002d9828262000289565b919050565b600067ffffffffffffffff821115620002fc57620002fb6200025a565b5b620003078262000249565b9050602081019050919050565b60005b838110156200033457808201518184015260208101905062000317565b8381111562000344576000848401525b50505050565b6000620003616200035b84620002de565b620002bf565b90508281526020810184848401111562000380576200037f62000244565b5b6200038d84828562000314565b509392505050565b600082601f830112620003ad57620003ac6200023f565b5b8151620003bf8482602086016200034a565b91505092915050565b600080600060608486031215620003e457620003e362000235565b5b600084015167ffffffffffffffff8111156200040557620004046200023a565b5b620004138682870162000395565b935050602084015167ffffffffffffffff8111156200043757620004366200023a565b5b620004458682870162000395565b925050604084015167ffffffffffffffff8111156200046957620004686200023a565b5b620004778682870162000395565b9150509250925092565b7f4e487b7100000000000000000000000000000000000000000000000000000000600052602260045260246000fd5b60006002820490506001821680620004c957607f821691505b60208210811415620004e057620004df62000481565b5b50919050565b6148e380620004f66000396000f3fe6080604052600436106101815760003560e01c80636352211e116100d157806395d89b411161008a578063c87b56dd11610064578063c87b56dd14610549578063d1a0152014610586578063e985e9c5146105af578063f2fde38b146105ec57610181565b806395d89b41146104cc578063a22cb465146104f7578063b88d4fde1461052057610181565b80636352211e146103c957806364e719241461040657806370a0823114610410578063715018a61461044d5780638553c3e9146104645780638da5cb5b146104a157610181565b806323b872dd1161013e57806345383099116101185780634538309914610323578063478d8d601461034e5780634a3b889a1461037757806358ee7173146103a057610181565b806323b872dd146102a857806342842e0e146102d157806342966c68146102fa57610181565b806301ffc9a71461018657806306fdde03146101c3578063081812fc146101ee578063095ea7b31461022b57806319511a7a146102545780631c3eeaac1461027f575b600080fd5b34801561019257600080fd5b506101ad60048036038101906101a89190612ef3565b610615565b6040516101ba9190612f3b565b60405180910390f35b3480156101cf57600080fd5b506101d8610897565b6040516101e59190612fef565b60405180910390f35b3480156101fa57600080fd5b5061021560048036038101906102109190613047565b610929565b60405161022291906130b5565b60405180910390f35b34801561023757600080fd5b50610252600480360381019061024d91906130fc565b6109ae565b005b34801561026057600080fd5b50610269610ac6565b6040516102769190612fef565b60405180910390f35b34801561028b57600080fd5b506102a660048036038101906102a19190613161565b610ae6565b005b3480156102b457600080fd5b506102cf60048036038101906102ca91906131b4565b610c17565b005b3480156102dd57600080fd5b506102f860048036038101906102f391906131b4565b610c77565b005b34801561030657600080fd5b50610321600480360381019061031c9190613047565b610c97565b005b34801561032f57600080fd5b50610338610cf3565b6040516103459190613216565b60405180910390f35b34801561035a57600080fd5b50610375600480360381019061037091906133a4565b610d8a565b005b34801561038357600080fd5b5061039e60048036038101906103999190613473565b610e1f565b005b3480156103ac57600080fd5b506103c760048036038101906103c291906134c0565b610eb1565b005b3480156103d557600080fd5b506103f060048036038101906103eb9190613047565b610f80565b6040516103fd91906130b5565b60405180910390f35b61040e611032565b005b34801561041c57600080fd5b5061043760048036038101906104329190613520565b6110fe565b6040516104449190613216565b60405180910390f35b34801561045957600080fd5b506104626111b6565b005b34801561047057600080fd5b5061048b60048036038101906104869190613047565b61123e565b6040516104989190612f3b565b60405180910390f35b3480156104ad57600080fd5b506104b66112cc565b6040516104c391906130b5565b60405180910390f35b3480156104d857600080fd5b506104e16112f5565b6040516104ee9190612fef565b60405180910390f35b34801561050357600080fd5b5061051e60048036038101906105199190613579565b611387565b005b34801561052c57600080fd5b506105476004803603810190610542919061365a565b611508565b005b34801561055557600080fd5b50610570600480360381019061056b9190613047565b61156a565b60405161057d9190612fef565b60405180910390f35b34801561059257600080fd5b506105ad60048036038101906105a89190613047565b6116bc565b005b3480156105bb57600080fd5b506105d660048036038101906105d191906136dd565b611744565b6040516105e39190612f3b565b60405180910390f35b3480156105f857600080fd5b50610613600480360381019061060e9190613520565b6117d8565b005b60007f19511a7a000000000000000000000000000000000000000000000000000000007bffffffffffffffffffffffffffffffffffffffffffffffffffffffff1916827bffffffffffffffffffffffffffffffffffffffffffffffffffffffff191614806106e057507f0e083076000000000000000000000000000000000000000000000000000000007bffffffffffffffffffffffffffffffffffffffffffffffffffffffff1916827bffffffffffffffffffffffffffffffffffffffffffffffffffffffff1916145b8061074857507f64e71924000000000000000000000000000000000000000000000000000000007bffffffffffffffffffffffffffffffffffffffffffffffffffffffff1916827bffffffffffffffffffffffffffffffffffffffffffffffffffffffff1916145b806107b057507f1c3eeaac000000000000000000000000000000000000000000000000000000007bffffffffffffffffffffffffffffffffffffffffffffffffffffffff1916827bffffffffffffffffffffffffffffffffffffffffffffffffffffffff1916145b8061081857507fc87b56dd000000000000000000000000000000000000000000000000000000007bffffffffffffffffffffffffffffffffffffffffffffffffffffffff1916827bffffffffffffffffffffffffffffffffffffffffffffffffffffffff1916145b8061088057507f42966c68000000000000000000000000000000000000000000000000000000007bffffffffffffffffffffffffffffffffffffffffffffffffffffffff1916827bffffffffffffffffffffffffffffffffffffffffffffffffffffffff1916145b80610890575061088f826118d0565b5b9050919050565b6060600180546108a69061374c565b80601f01602080910402602001604051908101604052809291908181526020018280546108d29061374c565b801561091f5780601f106108f45761010080835404028352916020019161091f565b820191906000526020600020905b81548152906001019060200180831161090257829003601f168201915b5050505050905090565b6000610934826119b2565b610973576040517f08c379a000000000000000000000000000000000000000000000000000000000815260040161096a906137f0565b60405180910390fd5b6005600083815260200190815260200160002060009054906101000a900473ffffffffffffffffffffffffffffffffffffffff169050919050565b60006109b982610f80565b90508073ffffffffffffffffffffffffffffffffffffffff168373ffffffffffffffffffffffffffffffffffffffff161415610a2a576040517f08c379a0000000000000000000000000000000000000000000000000000000008152600401610a2190613882565b60405180910390fd5b8073ffffffffffffffffffffffffffffffffffffffff16610a49611a1e565b73ffffffffffffffffffffffffffffffffffffffff161480610a785750610a7781610a72611a1e565b611744565b5b610ab7576040517f08c379a0000000000000000000000000000000000000000000000000000000008152600401610aae90613914565b60405180910390fd5b610ac18383611a26565b505050565b60606040518060600160405280603f815260200161486f603f9139905090565b610aee611a1e565b73ffffffffffffffffffffffffffffffffffffffff16610b0c6112cc565b73ffffffffffffffffffffffffffffffffffffffff1614610b62576040517f08c379a0000000000000000000000000000000000000000000000000000000008152600401610b5990613980565b60405180910390fd5b60016003811115610b7657610b756139a0565b5b836003811115610b8957610b886139a0565b5b1415610b9e57610b998282611adf565b610c12565b60026003811115610bb257610bb16139a0565b5b836003811115610bc557610bc46139a0565b5b1415610bd957610bd482611bd5565b610c11565b600380811115610bec57610beb6139a0565b5b836003811115610bff57610bfe6139a0565b5b1415610c1057610c0f8282611c83565b5b5b5b505050565b610c28610c22611a1e565b82611cfd565b610c67576040517f08c379a0000000000000000000000000000000000000000000000000000000008152600401610c5e90613a41565b60405180910390fd5b610c72838383611ddb565b505050565b610c9283838360405180602001604052806000815250611508565b505050565b610ca8610ca2611a1e565b82611cfd565b610ce7576040517f08c379a0000000000000000000000000000000000000000000000000000000008152600401610cde90613aad565b60405180910390fd5b610cf081612037565b50565b6000610cfd611a1e565b73ffffffffffffffffffffffffffffffffffffffff16610d1b6112cc565b73ffffffffffffffffffffffffffffffffffffffff1614610d71576040517f08c379a0000000000000000000000000000000000000000000000000000000008152600401610d6890613980565b60405180910390fd5b610d7b600961208a565b9050610d876009612098565b90565b610d92611a1e565b73ffffffffffffffffffffffffffffffffffffffff16610db06112cc565b73ffffffffffffffffffffffffffffffffffffffff1614610e06576040517f08c379a0000000000000000000000000000000000000000000000000000000008152600401610dfd90613980565b60405180910390fd5b610e1083836120ae565b610e1a82826120cc565b505050565b610e27611a1e565b73ffffffffffffffffffffffffffffffffffffffff16610e456112cc565b73ffffffffffffffffffffffffffffffffffffffff1614610e9b576040517f08c379a0000000000000000000000000000000000000000000000000000000008152600401610e9290613980565b60405180910390fd5b818160089190610eac929190612d1e565b505050565b610eb9611a1e565b73ffffffffffffffffffffffffffffffffffffffff16610ed76112cc565b73ffffffffffffffffffffffffffffffffffffffff1614610f2d576040517f08c379a0000000000000000000000000000000000000000000000000000000008152600401610f2490613980565b60405180910390fd5b610f7b8383838080601f016020809104026020016040519081016040528093929190818152602001838380828437600081840152601f19601f820116905080830192505050505050506120cc565b505050565b6000806003600084815260200190815260200160002060009054906101000a900473ffffffffffffffffffffffffffffffffffffffff169050600073ffffffffffffffffffffffffffffffffffffffff168173ffffffffffffffffffffffffffffffffffffffff161415611029576040517f08c379a000000000000000000000000000000000000000000000000000000000815260040161102090613b3f565b60405180910390fd5b80915050919050565b61103a611a1e565b73ffffffffffffffffffffffffffffffffffffffff166110586112cc565b73ffffffffffffffffffffffffffffffffffffffff16146110ae576040517f08c379a00000000000000000000000000000000000000000000000000000000081526004016110a590613980565b60405180910390fd5b6110b66112cc565b73ffffffffffffffffffffffffffffffffffffffff166108fc479081150290604051600060405180830381858888f193505050501580156110fb573d6000803e3d6000fd5b50565b60008073ffffffffffffffffffffffffffffffffffffffff168273ffffffffffffffffffffffffffffffffffffffff16141561116f576040517f08c379a000000000000000000000000000000000000000000000000000000000815260040161116690613bd1565b60405180910390fd5b600460008373ffffffffffffffffffffffffffffffffffffffff1673ffffffffffffffffffffffffffffffffffffffff168152602001908152602001600020549050919050565b6111be611a1e565b73ffffffffffffffffffffffffffffffffffffffff166111dc6112cc565b73ffffffffffffffffffffffffffffffffffffffff1614611232576040517f08c379a000000000000000000000000000000000000000000000000000000000815260040161122990613980565b60405180910390fd5b61123c6000612140565b565b6000611248611a1e565b73ffffffffffffffffffffffffffffffffffffffff166112666112cc565b73ffffffffffffffffffffffffffffffffffffffff16146112bc576040517f08c379a00000000000000000000000000000000000000000000000000000000081526004016112b390613980565b60405180910390fd5b6112c5826119b2565b9050919050565b60008060009054906101000a900473ffffffffffffffffffffffffffffffffffffffff16905090565b6060600280546113049061374c565b80601f01602080910402602001604051908101604052809291908181526020018280546113309061374c565b801561137d5780601f106113525761010080835404028352916020019161137d565b820191906000526020600020905b81548152906001019060200180831161136057829003601f168201915b5050505050905090565b61138f611a1e565b73ffffffffffffffffffffffffffffffffffffffff168273ffffffffffffffffffffffffffffffffffffffff1614156113fd576040517f08c379a00000000000000000000000000000000000000000000000000000000081526004016113f490613c3d565b60405180910390fd5b806006600061140a611a1e565b73ffffffffffffffffffffffffffffffffffffffff1673ffffffffffffffffffffffffffffffffffffffff16815260200190815260200160002060008473ffffffffffffffffffffffffffffffffffffffff1673ffffffffffffffffffffffffffffffffffffffff16815260200190815260200160002060006101000a81548160ff0219169083151502179055508173ffffffffffffffffffffffffffffffffffffffff166114b7611a1e565b73ffffffffffffffffffffffffffffffffffffffff167f17307eab39ab6107e8899845ad3d59bd9653f200f220920489ca2b5937696c31836040516114fc9190612f3b565b60405180910390a35050565b611519611513611a1e565b83611cfd565b611558576040517f08c379a000000000000000000000000000000000000000000000000000000000815260040161154f90613a41565b60405180910390fd5b61156484848484612204565b50505050565b6060611575826119b2565b6115b4576040517f08c379a00000000000000000000000000000000000000000000000000000000081526004016115ab90613ccf565b60405180910390fd5b60006007600084815260200190815260200160002080546115d49061374c565b80601f01602080910402602001604051908101604052809291908181526020018280546116009061374c565b801561164d5780601f106116225761010080835404028352916020019161164d565b820191906000526020600020905b81548152906001019060200180831161163057829003601f168201915b50505050509050600061165e612260565b90506000815114156116745781925050506116b7565b6000825111156116a9578082604051602001611691929190613d2b565b604051602081830303815290604052925050506116b7565b6116b2846122f2565b925050505b919050565b6116c4611a1e565b73ffffffffffffffffffffffffffffffffffffffff166116e26112cc565b73ffffffffffffffffffffffffffffffffffffffff1614611738576040517f08c379a000000000000000000000000000000000000000000000000000000000815260040161172f90613980565b60405180910390fd5b61174181612037565b50565b6000600660008473ffffffffffffffffffffffffffffffffffffffff1673ffffffffffffffffffffffffffffffffffffffff16815260200190815260200160002060008373ffffffffffffffffffffffffffffffffffffffff1673ffffffffffffffffffffffffffffffffffffffff16815260200190815260200160002060009054906101000a900460ff16905092915050565b6117e0611a1e565b73ffffffffffffffffffffffffffffffffffffffff166117fe6112cc565b73ffffffffffffffffffffffffffffffffffffffff1614611854576040517f08c379a000000000000000000000000000000000000000000000000000000000815260040161184b90613980565b60405180910390fd5b600073ffffffffffffffffffffffffffffffffffffffff168173ffffffffffffffffffffffffffffffffffffffff1614156118c4576040517f08c379a00000000000000000000000000000000000000000000000000000000081526004016118bb90613dc1565b60405180910390fd5b6118cd81612140565b50565b60007f80ac58cd000000000000000000000000000000000000000000000000000000007bffffffffffffffffffffffffffffffffffffffffffffffffffffffff1916827bffffffffffffffffffffffffffffffffffffffffffffffffffffffff1916148061199b57507f5b5e139f000000000000000000000000000000000000000000000000000000007bffffffffffffffffffffffffffffffffffffffffffffffffffffffff1916827bffffffffffffffffffffffffffffffffffffffffffffffffffffffff1916145b806119ab57506119aa82612399565b5b9050919050565b60008073ffffffffffffffffffffffffffffffffffffffff166003600084815260200190815260200160002060009054906101000a900473ffffffffffffffffffffffffffffffffffffffff1673ffffffffffffffffffffffffffffffffffffffff1614159050919050565b600033905090565b816005600083815260200190815260200160002060006101000a81548173ffffffffffffffffffffffffffffffffffffffff021916908373ffffffffffffffffffffffffffffffffffffffff160217905550808273ffffffffffffffffffffffffffffffffffffffff16611a9983610f80565b73ffffffffffffffffffffffffffffffffffffffff167f8c5be1e5ebec7d5bd14f71427d1e84f3dd0314c0f7b2291e5b200ac8c7c3b92560405160405180910390a45050565b8173ffffffffffffffffffffffffffffffffffffffff1663f242432a30611b046112cc565b848673ffffffffffffffffffffffffffffffffffffffff1662fdd58e30886040518363ffffffff1660e01b8152600401611b3f929190613de1565b602060405180830381865afa158015611b5c573d6000803e3d6000fd5b505050506040513d601f19601f82011682018060405250810190611b809190613e1f565b6040518563ffffffff1660e01b8152600401611b9f9493929190613ee2565b600060405180830381600087803b158015611bb957600080fd5b505af1158015611bcd573d6000803e3d6000fd5b505050505050565b611c80611be06112cc565b8273ffffffffffffffffffffffffffffffffffffffff166370a08231306040518263ffffffff1660e01b8152600401611c1991906130b5565b602060405180830381865afa158015611c36573d6000803e3d6000fd5b505050506040513d601f19601f82011682018060405250810190611c5a9190613e1f565b8373ffffffffffffffffffffffffffffffffffffffff166124039092919063ffffffff16565b50565b8173ffffffffffffffffffffffffffffffffffffffff166342842e0e30611ca86112cc565b846040518463ffffffff1660e01b8152600401611cc793929190613f3a565b600060405180830381600087803b158015611ce157600080fd5b505af1158015611cf5573d6000803e3d6000fd5b505050505050565b6000611d08826119b2565b611d47576040517f08c379a0000000000000000000000000000000000000000000000000000000008152600401611d3e90613fe3565b60405180910390fd5b6000611d5283610f80565b90508073ffffffffffffffffffffffffffffffffffffffff168473ffffffffffffffffffffffffffffffffffffffff161480611dc157508373ffffffffffffffffffffffffffffffffffffffff16611da984610929565b73ffffffffffffffffffffffffffffffffffffffff16145b80611dd25750611dd18185611744565b5b91505092915050565b8273ffffffffffffffffffffffffffffffffffffffff16611dfb82610f80565b73ffffffffffffffffffffffffffffffffffffffff1614611e51576040517f08c379a0000000000000000000000000000000000000000000000000000000008152600401611e4890614075565b60405180910390fd5b600073ffffffffffffffffffffffffffffffffffffffff168273ffffffffffffffffffffffffffffffffffffffff161415611ec1576040517f08c379a0000000000000000000000000000000000000000000000000000000008152600401611eb890614107565b60405180910390fd5b611ecc838383612489565b611ed7600082611a26565b6001600460008573ffffffffffffffffffffffffffffffffffffffff1673ffffffffffffffffffffffffffffffffffffffff1681526020019081526020016000206000828254611f279190614156565b925050819055506001600460008473ffffffffffffffffffffffffffffffffffffffff1673ffffffffffffffffffffffffffffffffffffffff1681526020019081526020016000206000828254611f7e919061418a565b92505081905550816003600083815260200190815260200160002060006101000a81548173ffffffffffffffffffffffffffffffffffffffff021916908373ffffffffffffffffffffffffffffffffffffffff160217905550808273ffffffffffffffffffffffffffffffffffffffff168473ffffffffffffffffffffffffffffffffffffffff167fddf252ad1be2c89b69c2b068fc378daa952ba7f163c4a11628f55a4df523b3ef60405160405180910390a4505050565b6120408161248e565b60006007600083815260200190815260200160002080546120609061374c565b905014612087576007600082815260200190815260200160002060006120869190612da4565b5b50565b600081600001549050919050565b6001816000016000828254019250508190555050565b6120c882826040518060200160405280600081525061259f565b5050565b6120d5826119b2565b612114576040517f08c379a000000000000000000000000000000000000000000000000000000000815260040161210b90614252565b60405180910390fd5b8060076000848152602001908152602001600020908051906020019061213b929190612de4565b505050565b60008060009054906101000a900473ffffffffffffffffffffffffffffffffffffffff169050816000806101000a81548173ffffffffffffffffffffffffffffffffffffffff021916908373ffffffffffffffffffffffffffffffffffffffff1602179055508173ffffffffffffffffffffffffffffffffffffffff168173ffffffffffffffffffffffffffffffffffffffff167f8be0079c531659141344cd1fd0a4f28419497f9722a3daafe3b4186f6b6457e060405160405180910390a35050565b61220f848484611ddb565b61221b848484846125fa565b61225a576040517f08c379a0000000000000000000000000000000000000000000000000000000008152600401612251906142e4565b60405180910390fd5b50505050565b60606008805461226f9061374c565b80601f016020809104026020016040519081016040528092919081815260200182805461229b9061374c565b80156122e85780601f106122bd576101008083540402835291602001916122e8565b820191906000526020600020905b8154815290600101906020018083116122cb57829003601f168201915b5050505050905090565b60606122fd826119b2565b61233c576040517f08c379a000000000000000000000000000000000000000000000000000000000815260040161233390614376565b60405180910390fd5b6000612346612260565b905060008151116123665760405180602001604052806000815250612391565b8061237084612782565b604051602001612381929190613d2b565b6040516020818303038152906040525b915050919050565b60007f01ffc9a7000000000000000000000000000000000000000000000000000000007bffffffffffffffffffffffffffffffffffffffffffffffffffffffff1916827bffffffffffffffffffffffffffffffffffffffffffffffffffffffff1916149050919050565b6124848363a9059cbb60e01b8484604051602401612422929190613de1565b604051602081830303815290604052907bffffffffffffffffffffffffffffffffffffffffffffffffffffffff19166020820180517bffffffffffffffffffffffffffffffffffffffffffffffffffffffff83818316178352505050506128e3565b505050565b505050565b600061249982610f80565b90506124a781600084612489565b6124b2600083611a26565b6001600460008373ffffffffffffffffffffffffffffffffffffffff1673ffffffffffffffffffffffffffffffffffffffff16815260200190815260200160002060008282546125029190614156565b925050819055506003600083815260200190815260200160002060006101000a81549073ffffffffffffffffffffffffffffffffffffffff021916905581600073ffffffffffffffffffffffffffffffffffffffff168273ffffffffffffffffffffffffffffffffffffffff167fddf252ad1be2c89b69c2b068fc378daa952ba7f163c4a11628f55a4df523b3ef60405160405180910390a45050565b6125a983836129aa565b6125b660008484846125fa565b6125f5576040517f08c379a00000000000000000000000000000000000000000000000000000000081526004016125ec906142e4565b60405180910390fd5b505050565b600061261b8473ffffffffffffffffffffffffffffffffffffffff16612b78565b15612775578373ffffffffffffffffffffffffffffffffffffffff1663150b7a02612644611a1e565b8786866040518563ffffffff1660e01b815260040161266694939291906143da565b6020604051808303816000875af19250505080156126a257506040513d601f19601f8201168201806040525081019061269f919061443b565b60015b612725573d80600081146126d2576040519150601f19603f3d011682016040523d82523d6000602084013e6126d7565b606091505b5060008151141561271d576040517f08c379a0000000000000000000000000000000000000000000000000000000008152600401612714906142e4565b60405180910390fd5b805181602001fd5b63150b7a0260e01b7bffffffffffffffffffffffffffffffffffffffffffffffffffffffff1916817bffffffffffffffffffffffffffffffffffffffffffffffffffffffff19161491505061277a565b600190505b949350505050565b606060008214156127ca576040518060400160405280600181526020017f300000000000000000000000000000000000000000000000000000000000000081525090506128de565b600082905060005b600082146127fc5780806127e590614468565b915050600a826127f591906144e0565b91506127d2565b60008167ffffffffffffffff81111561281857612817613279565b5b6040519080825280601f01601f19166020018201604052801561284a5781602001600182028036833780820191505090505b5090505b600085146128d7576001826128639190614156565b9150600a856128729190614511565b603061287e919061418a565b60f81b81838151811061289457612893614542565b5b60200101907effffffffffffffffffffffffffffffffffffffffffffffffffffffffffffff1916908160001a905350600a856128d091906144e0565b945061284e565b8093505050505b919050565b6000612945826040518060400160405280602081526020017f5361666545524332303a206c6f772d6c6576656c2063616c6c206661696c65648152508573ffffffffffffffffffffffffffffffffffffffff16612b8b9092919063ffffffff16565b90506000815111156129a557808060200190518101906129659190614586565b6129a4576040517f08c379a000000000000000000000000000000000000000000000000000000000815260040161299b90614625565b60405180910390fd5b5b505050565b600073ffffffffffffffffffffffffffffffffffffffff168273ffffffffffffffffffffffffffffffffffffffff161415612a1a576040517f08c379a0000000000000000000000000000000000000000000000000000000008152600401612a1190614691565b60405180910390fd5b612a23816119b2565b15612a63576040517f08c379a0000000000000000000000000000000000000000000000000000000008152600401612a5a906146fd565b60405180910390fd5b612a6f60008383612489565b6001600460008473ffffffffffffffffffffffffffffffffffffffff1673ffffffffffffffffffffffffffffffffffffffff1681526020019081526020016000206000828254612abf919061418a565b92505081905550816003600083815260200190815260200160002060006101000a81548173ffffffffffffffffffffffffffffffffffffffff021916908373ffffffffffffffffffffffffffffffffffffffff160217905550808273ffffffffffffffffffffffffffffffffffffffff16600073ffffffffffffffffffffffffffffffffffffffff167fddf252ad1be2c89b69c2b068fc378daa952ba7f163c4a11628f55a4df523b3ef60405160405180910390a45050565b600080823b905060008111915050919050565b6060612b9a8484600085612ba3565b90509392505050565b606082471015612be8576040517f08c379a0000000000000000000000000000000000000000000000000000000008152600401612bdf9061478f565b60405180910390fd5b612bf185612b78565b612c30576040517f08c379a0000000000000000000000000000000000000000000000000000000008152600401612c27906147fb565b60405180910390fd5b6000808673ffffffffffffffffffffffffffffffffffffffff168587604051612c599190614857565b60006040518083038185875af1925050503d8060008114612c96576040519150601f19603f3d011682016040523d82523d6000602084013e612c9b565b606091505b5091509150612cab828286612cb7565b92505050949350505050565b60608315612cc757829050612d17565b600083511115612cda5782518084602001fd5b816040517f08c379a0000000000000000000000000000000000000000000000000000000008152600401612d0e9190612fef565b60405180910390fd5b9392505050565b828054612d2a9061374c565b90600052602060002090601f016020900481019282612d4c5760008555612d93565b82601f10612d6557803560ff1916838001178555612d93565b82800160010185558215612d93579182015b82811115612d92578235825591602001919060010190612d77565b5b509050612da09190612e6a565b5090565b508054612db09061374c565b6000825580601f10612dc25750612de1565b601f016020900490600052602060002090810190612de09190612e6a565b5b50565b828054612df09061374c565b90600052602060002090601f016020900481019282612e125760008555612e59565b82601f10612e2b57805160ff1916838001178555612e59565b82800160010185558215612e59579182015b82811115612e58578251825591602001919060010190612e3d565b5b509050612e669190612e6a565b5090565b5b80821115612e83576000816000905550600101612e6b565b5090565b6000604051905090565b600080fd5b600080fd5b60007fffffffff0000000000000000000000000000000000000000000000000000000082169050919050565b612ed081612e9b565b8114612edb57600080fd5b50565b600081359050612eed81612ec7565b92915050565b600060208284031215612f0957612f08612e91565b5b6000612f1784828501612ede565b91505092915050565b60008115159050919050565b612f3581612f20565b82525050565b6000602082019050612f506000830184612f2c565b92915050565b600081519050919050565b600082825260208201905092915050565b60005b83811015612f90578082015181840152602081019050612f75565b83811115612f9f576000848401525b50505050565b6000601f19601f8301169050919050565b6000612fc182612f56565b612fcb8185612f61565b9350612fdb818560208601612f72565b612fe481612fa5565b840191505092915050565b600060208201905081810360008301526130098184612fb6565b905092915050565b6000819050919050565b61302481613011565b811461302f57600080fd5b50565b6000813590506130418161301b565b92915050565b60006020828403121561305d5761305c612e91565b5b600061306b84828501613032565b91505092915050565b600073ffffffffffffffffffffffffffffffffffffffff82169050919050565b600061309f82613074565b9050919050565b6130af81613094565b82525050565b60006020820190506130ca60008301846130a6565b92915050565b6130d981613094565b81146130e457600080fd5b50565b6000813590506130f6816130d0565b92915050565b6000806040838503121561311357613112612e91565b5b6000613121858286016130e7565b925050602061313285828601613032565b9150509250929050565b6004811061314957600080fd5b50565b60008135905061315b8161313c565b92915050565b60008060006060848603121561317a57613179612e91565b5b60006131888682870161314c565b9350506020613199868287016130e7565b92505060406131aa86828701613032565b9150509250925092565b6000806000606084860312156131cd576131cc612e91565b5b60006131db868287016130e7565b93505060206131ec868287016130e7565b92505060406131fd86828701613032565b9150509250925092565b61321081613011565b82525050565b600060208201905061322b6000830184613207565b92915050565b600061323c82613074565b9050919050565b61324c81613231565b811461325757600080fd5b50565b60008135905061326981613243565b92915050565b600080fd5b600080fd5b7f4e487b7100000000000000000000000000000000000000000000000000000000600052604160045260246000fd5b6132b182612fa5565b810181811067ffffffffffffffff821117156132d0576132cf613279565b5b80604052505050565b60006132e3612e87565b90506132ef82826132a8565b919050565b600067ffffffffffffffff82111561330f5761330e613279565b5b61331882612fa5565b9050602081019050919050565b82818337600083830152505050565b6000613347613342846132f4565b6132d9565b90508281526020810184848401111561336357613362613274565b5b61336e848285613325565b509392505050565b600082601f83011261338b5761338a61326f565b5b813561339b848260208601613334565b91505092915050565b6000806000606084860312156133bd576133bc612e91565b5b60006133cb8682870161325a565b93505060206133dc86828701613032565b925050604084013567ffffffffffffffff8111156133fd576133fc612e96565b5b61340986828701613376565b9150509250925092565b600080fd5b600080fd5b60008083601f8401126134335761343261326f565b5b8235905067ffffffffffffffff8111156134505761344f613413565b5b60208301915083600182028301111561346c5761346b613418565b5b9250929050565b6000806020838503121561348a57613489612e91565b5b600083013567ffffffffffffffff8111156134a8576134a7612e96565b5b6134b48582860161341d565b92509250509250929050565b6000806000604084860312156134d9576134d8612e91565b5b60006134e786828701613032565b935050602084013567ffffffffffffffff81111561350857613507612e96565b5b6135148682870161341d565b92509250509250925092565b60006020828403121561353657613535612e91565b5b6000613544848285016130e7565b91505092915050565b61355681612f20565b811461356157600080fd5b50565b6000813590506135738161354d565b92915050565b600080604083850312156135905761358f612e91565b5b600061359e858286016130e7565b92505060206135af85828601613564565b9150509250929050565b600067ffffffffffffffff8211156135d4576135d3613279565b5b6135dd82612fa5565b9050602081019050919050565b60006135fd6135f8846135b9565b6132d9565b90508281526020810184848401111561361957613618613274565b5b613624848285613325565b509392505050565b600082601f8301126136415761364061326f565b5b81356136518482602086016135ea565b91505092915050565b6000806000806080858703121561367457613673612e91565b5b6000613682878288016130e7565b9450506020613693878288016130e7565b93505060406136a487828801613032565b925050606085013567ffffffffffffffff8111156136c5576136c4612e96565b5b6136d18782880161362c565b91505092959194509250565b600080604083850312156136f4576136f3612e91565b5b6000613702858286016130e7565b9250506020613713858286016130e7565b9150509250929050565b7f4e487b7100000000000000000000000000000000000000000000000000000000600052602260045260246000fd5b6000600282049050600182168061376457607f821691505b602082108114156137785761377761371d565b5b50919050565b7f4552433732313a20617070726f76656420717565727920666f72206e6f6e657860008201527f697374656e7420746f6b656e0000000000000000000000000000000000000000602082015250565b60006137da602c83612f61565b91506137e58261377e565b604082019050919050565b60006020820190508181036000830152613809816137cd565b9050919050565b7f4552433732313a20617070726f76616c20746f2063757272656e74206f776e6560008201527f7200000000000000000000000000000000000000000000000000000000000000602082015250565b600061386c602183612f61565b915061387782613810565b604082019050919050565b6000602082019050818103600083015261389b8161385f565b9050919050565b7f4552433732313a20617070726f76652063616c6c6572206973206e6f74206f7760008201527f6e6572206e6f7220617070726f76656420666f7220616c6c0000000000000000602082015250565b60006138fe603883612f61565b9150613909826138a2565b604082019050919050565b6000602082019050818103600083015261392d816138f1565b9050919050565b7f4f776e61626c653a2063616c6c6572206973206e6f7420746865206f776e6572600082015250565b600061396a602083612f61565b915061397582613934565b602082019050919050565b600060208201905081810360008301526139998161395d565b9050919050565b7f4e487b7100000000000000000000000000000000000000000000000000000000600052602160045260246000fd5b7f4552433732313a207472616e736665722063616c6c6572206973206e6f74206f60008201527f776e6572206e6f7220617070726f766564000000000000000000000000000000602082015250565b6000613a2b603183612f61565b9150613a36826139cf565b604082019050919050565b60006020820190508181036000830152613a5a81613a1e565b9050919050565b7f4e6f7420617070726f766564206f72206f776e65720000000000000000000000600082015250565b6000613a97601583612f61565b9150613aa282613a61565b602082019050919050565b60006020820190508181036000830152613ac681613a8a565b9050919050565b7f4552433732313a206f776e657220717565727920666f72206e6f6e657869737460008201527f656e7420746f6b656e0000000000000000000000000000000000000000000000602082015250565b6000613b29602983612f61565b9150613b3482613acd565b604082019050919050565b60006020820190508181036000830152613b5881613b1c565b9050919050565b7f4552433732313a2062616c616e636520717565727920666f7220746865207a6560008201527f726f206164647265737300000000000000000000000000000000000000000000602082015250565b6000613bbb602a83612f61565b9150613bc682613b5f565b604082019050919050565b60006020820190508181036000830152613bea81613bae565b9050919050565b7f4552433732313a20617070726f766520746f2063616c6c657200000000000000600082015250565b6000613c27601983612f61565b9150613c3282613bf1565b602082019050919050565b60006020820190508181036000830152613c5681613c1a565b9050919050565b7f45524337323155524953746f726167653a2055524920717565727920666f722060008201527f6e6f6e6578697374656e7420746f6b656e000000000000000000000000000000602082015250565b6000613cb9603183612f61565b9150613cc482613c5d565b604082019050919050565b60006020820190508181036000830152613ce881613cac565b9050919050565b600081905092915050565b6000613d0582612f56565b613d0f8185613cef565b9350613d1f818560208601612f72565b80840191505092915050565b6000613d378285613cfa565b9150613d438284613cfa565b91508190509392505050565b7f4f776e61626c653a206e6577206f776e657220697320746865207a65726f206160008201527f6464726573730000000000000000000000000000000000000000000000000000602082015250565b6000613dab602683612f61565b9150613db682613d4f565b604082019050919050565b60006020820190508181036000830152613dda81613d9e565b9050919050565b6000604082019050613df660008301856130a6565b613e036020830184613207565b9392505050565b600081519050613e198161301b565b92915050565b600060208284031215613e3557613e34612e91565b5b6000613e4384828501613e0a565b91505092915050565b6000819050919050565b6000613e71613e6c613e6784613074565b613e4c565b613074565b9050919050565b6000613e8382613e56565b9050919050565b6000613e9582613e78565b9050919050565b613ea581613e8a565b82525050565b600082825260208201905092915050565b50565b6000613ecc600083613eab565b9150613ed782613ebc565b600082019050919050565b600060a082019050613ef760008301876130a6565b613f046020830186613e9c565b613f116040830185613207565b613f1e6060830184613207565b8181036080830152613f2f81613ebf565b905095945050505050565b6000606082019050613f4f60008301866130a6565b613f5c6020830185613e9c565b613f696040830184613207565b949350505050565b7f4552433732313a206f70657261746f7220717565727920666f72206e6f6e657860008201527f697374656e7420746f6b656e0000000000000000000000000000000000000000602082015250565b6000613fcd602c83612f61565b9150613fd882613f71565b604082019050919050565b60006020820190508181036000830152613ffc81613fc0565b9050919050565b7f4552433732313a207472616e73666572206f6620746f6b656e2074686174206960008201527f73206e6f74206f776e0000000000000000000000000000000000000000000000602082015250565b600061405f602983612f61565b915061406a82614003565b604082019050919050565b6000602082019050818103600083015261408e81614052565b9050919050565b7f4552433732313a207472616e7366657220746f20746865207a65726f2061646460008201527f7265737300000000000000000000000000000000000000000000000000000000602082015250565b60006140f1602483612f61565b91506140fc82614095565b604082019050919050565b60006020820190508181036000830152614120816140e4565b9050919050565b7f4e487b7100000000000000000000000000000000000000000000000000000000600052601160045260246000fd5b600061416182613011565b915061416c83613011565b92508282101561417f5761417e614127565b5b828203905092915050565b600061419582613011565b91506141a083613011565b9250827fffffffffffffffffffffffffffffffffffffffffffffffffffffffffffffffff038211156141d5576141d4614127565b5b828201905092915050565b7f45524337323155524953746f726167653a2055524920736574206f66206e6f6e60008201527f6578697374656e7420746f6b656e000000000000000000000000000000000000602082015250565b600061423c602e83612f61565b9150614247826141e0565b604082019050919050565b6000602082019050818103600083015261426b8161422f565b9050919050565b7f4552433732313a207472616e7366657220746f206e6f6e20455243373231526560008201527f63656976657220696d706c656d656e7465720000000000000000000000000000602082015250565b60006142ce603283612f61565b91506142d982614272565b604082019050919050565b600060208201905081810360008301526142fd816142c1565b9050919050565b7f4552433732314d657461646174613a2055524920717565727920666f72206e6f60008201527f6e6578697374656e7420746f6b656e0000000000000000000000000000000000602082015250565b6000614360602f83612f61565b915061436b82614304565b604082019050919050565b6000602082019050818103600083015261438f81614353565b9050919050565b600081519050919050565b60006143ac82614396565b6143b68185613eab565b93506143c6818560208601612f72565b6143cf81612fa5565b840191505092915050565b60006080820190506143ef60008301876130a6565b6143fc60208301866130a6565b6144096040830185613207565b818103606083015261441b81846143a1565b905095945050505050565b60008151905061443581612ec7565b92915050565b60006020828403121561445157614450612e91565b5b600061445f84828501614426565b91505092915050565b600061447382613011565b91507fffffffffffffffffffffffffffffffffffffffffffffffffffffffffffffffff8214156144a6576144a5614127565b5b600182019050919050565b7f4e487b7100000000000000000000000000000000000000000000000000000000600052601260045260246000fd5b60006144eb82613011565b91506144f683613011565b925082614506576145056144b1565b5b828204905092915050565b600061451c82613011565b915061452783613011565b925082614537576145366144b1565b5b828206905092915050565b7f4e487b7100000000000000000000000000000000000000000000000000000000600052603260045260246000fd5b6000815190506145808161354d565b92915050565b60006020828403121561459c5761459b612e91565b5b60006145aa84828501614571565b91505092915050565b7f5361666545524332303a204552433230206f7065726174696f6e20646964206e60008201527f6f74207375636365656400000000000000000000000000000000000000000000602082015250565b600061460f602a83612f61565b915061461a826145b3565b604082019050919050565b6000602082019050818103600083015261463e81614602565b9050919050565b7f4552433732313a206d696e7420746f20746865207a65726f2061646472657373600082015250565b600061467b602083612f61565b915061468682614645565b602082019050919050565b600060208201905081810360008301526146aa8161466e565b9050919050565b7f4552433732313a20746f6b656e20616c7265616479206d696e74656400000000600082015250565b60006146e7601c83612f61565b91506146f2826146b1565b602082019050919050565b60006020820190508181036000830152614716816146da565b9050919050565b7f416464726573733a20696e73756666696369656e742062616c616e636520666f60008201527f722063616c6c0000000000000000000000000000000000000000000000000000602082015250565b6000614779602683612f61565b91506147848261471d565b604082019050919050565b600060208201905081810360008301526147a88161476c565b9050919050565b7f416464726573733a2063616c6c20746f206e6f6e2d636f6e7472616374000000600082015250565b60006147e5601d83612f61565b91506147f0826147af565b602082019050919050565b60006020820190508181036000830152614814816147d8565b9050919050565b600081905092915050565b600061483182614396565b61483b818561481b565b935061484b818560208601612f72565b80840191505092915050565b60006148638284614826565b91508190509291505056fe5477696c6967687420537061726b6c6520697320746865206375746573742c20736d6172746573742c20616c6c2061726f756e64206265737420706f6e7921a26469706673582212200bee46c2b004f5274749bfde69704676672e31748a21fc579944a26c5e295bf864736f6c634300080a0033608060405234801561001057600080fd5b5061002d61002261003260201b60201c565b61003a60201b60201c565b6100fe565b600033905090565b60008060009054906101000a900473ffffffffffffffffffffffffffffffffffffffff169050816000806101000a81548173ffffffffffffffffffffffffffffffffffffffff021916908373ffffffffffffffffffffffffffffffffffffffff1602179055508173ffffffffffffffffffffffffffffffffffffffff168173ffffffffffffffffffffffffffffffffffffffff167f8be0079c531659141344cd1fd0a4f28419497f9722a3daafe3b4186f6b6457e060405160405180910390a35050565b611a778061010d6000396000f3fe6080604052600436106100915760003560e01c80638da5cb5b116100595780638da5cb5b1461015c578063a6e943ff14610187578063bc197c81146101b0578063f23a6e61146101ed578063f2fde38b1461022a57610091565b806301ffc9a714610096578063150b7a02146100d357806319511a7a1461011057806364e719241461013b578063715018a614610145575b600080fd5b3480156100a257600080fd5b506100bd60048036038101906100b89190610e3a565b610253565b6040516100ca9190610e82565b60405180910390f35b3480156100df57600080fd5b506100fa60048036038101906100f59190611077565b610405565b6040516101079190611109565b60405180910390f35b34801561011c57600080fd5b50610125610419565b60405161013291906111ac565b60405180910390f35b610143610439565b005b34801561015157600080fd5b5061015a610505565b005b34801561016857600080fd5b5061017161058d565b60405161017e91906111dd565b60405180910390f35b34801561019357600080fd5b506101ae60048036038101906101a9919061125b565b6105b6565b005b3480156101bc57600080fd5b506101d760048036038101906101d2919061139e565b6106ee565b6040516101e49190611109565b60405180910390f35b3480156101f957600080fd5b50610214600480360381019061020f919061146d565b610703565b6040516102219190611109565b60405180910390f35b34801561023657600080fd5b50610251600480360381019061024c9190611504565b610718565b005b60007f150b7a02000000000000000000000000000000000000000000000000000000007bffffffffffffffffffffffffffffffffffffffffffffffffffffffff1916827bffffffffffffffffffffffffffffffffffffffffffffffffffffffff1916148061031e57507f19511a7a000000000000000000000000000000000000000000000000000000007bffffffffffffffffffffffffffffffffffffffffffffffffffffffff1916827bffffffffffffffffffffffffffffffffffffffffffffffffffffffff1916145b8061038657507f0e083076000000000000000000000000000000000000000000000000000000007bffffffffffffffffffffffffffffffffffffffffffffffffffffffff1916827bffffffffffffffffffffffffffffffffffffffffffffffffffffffff1916145b806103ee57507f64e71924000000000000000000000000000000000000000000000000000000007bffffffffffffffffffffffffffffffffffffffffffffffffffffffff1916827bffffffffffffffffffffffffffffffffffffffffffffffffffffffff1916145b806103fe57506103fd82610810565b5b9050919050565b600063150b7a0260e01b9050949350505050565b60606040518060600160405280603f8152602001611a03603f9139905090565b61044161088a565b73ffffffffffffffffffffffffffffffffffffffff1661045f61058d565b73ffffffffffffffffffffffffffffffffffffffff16146104b5576040517f08c379a00000000000000000000000000000000000000000000000000000000081526004016104ac9061157d565b60405180910390fd5b6104bd61058d565b73ffffffffffffffffffffffffffffffffffffffff166108fc479081150290604051600060405180830381858888f19350505050158015610502573d6000803e3d6000fd5b50565b61050d61088a565b73ffffffffffffffffffffffffffffffffffffffff1661052b61058d565b73ffffffffffffffffffffffffffffffffffffffff1614610581576040517f08c379a00000000000000000000000000000000000000000000000000000000081526004016105789061157d565b60405180910390fd5b61058b6000610892565b565b60008060009054906101000a900473ffffffffffffffffffffffffffffffffffffffff16905090565b6105be61088a565b73ffffffffffffffffffffffffffffffffffffffff166105dc61058d565b73ffffffffffffffffffffffffffffffffffffffff1614610632576040517f08c379a00000000000000000000000000000000000000000000000000000000081526004016106299061157d565b60405180910390fd5b600160038111156106465761064561159d565b5b8560038111156106595761065861159d565b5b14156106705761066b84848484610956565b6106e7565b600260038111156106845761068361159d565b5b8560038111156106975761069661159d565b5b14156106ad576106a88484836109cd565b6106e6565b6003808111156106c0576106bf61159d565b5b8560038111156106d3576106d261159d565b5b14156106e5576106e48484846109fd565b5b5b5b5050505050565b600063bc197c8160e01b905095945050505050565b600063f23a6e6160e01b905095945050505050565b61072061088a565b73ffffffffffffffffffffffffffffffffffffffff1661073e61058d565b73ffffffffffffffffffffffffffffffffffffffff1614610794576040517f08c379a000000000000000000000000000000000000000000000000000000000815260040161078b9061157d565b60405180910390fd5b600073ffffffffffffffffffffffffffffffffffffffff168173ffffffffffffffffffffffffffffffffffffffff161415610804576040517f08c379a00000000000000000000000000000000000000000000000000000000081526004016107fb9061163e565b60405180910390fd5b61080d81610892565b50565b60007f4e2312e0000000000000000000000000000000000000000000000000000000007bffffffffffffffffffffffffffffffffffffffffffffffffffffffff1916827bffffffffffffffffffffffffffffffffffffffffffffffffffffffff19161480610883575061088282610a71565b5b9050919050565b600033905090565b60008060009054906101000a900473ffffffffffffffffffffffffffffffffffffffff169050816000806101000a81548173ffffffffffffffffffffffffffffffffffffffff021916908373ffffffffffffffffffffffffffffffffffffffff1602179055508173ffffffffffffffffffffffffffffffffffffffff168173ffffffffffffffffffffffffffffffffffffffff167f8be0079c531659141344cd1fd0a4f28419497f9722a3daafe3b4186f6b6457e060405160405180910390a35050565b8373ffffffffffffffffffffffffffffffffffffffff1663f242432a308585856040518563ffffffff1660e01b81526004016109959493929190611703565b600060405180830381600087803b1580156109af57600080fd5b505af11580156109c3573d6000803e3d6000fd5b5050505050505050565b6109f882828573ffffffffffffffffffffffffffffffffffffffff16610adb9092919063ffffffff16565b505050565b8273ffffffffffffffffffffffffffffffffffffffff166342842e0e3084846040518463ffffffff1660e01b8152600401610a3a9392919061175b565b600060405180830381600087803b158015610a5457600080fd5b505af1158015610a68573d6000803e3d6000fd5b50505050505050565b60007f01ffc9a7000000000000000000000000000000000000000000000000000000007bffffffffffffffffffffffffffffffffffffffffffffffffffffffff1916827bffffffffffffffffffffffffffffffffffffffffffffffffffffffff1916149050919050565b610b5c8363a9059cbb60e01b8484604051602401610afa929190611792565b604051602081830303815290604052907bffffffffffffffffffffffffffffffffffffffffffffffffffffffff19166020820180517bffffffffffffffffffffffffffffffffffffffffffffffffffffffff8381831617835250505050610b61565b505050565b6000610bc3826040518060400160405280602081526020017f5361666545524332303a206c6f772d6c6576656c2063616c6c206661696c65648152508573ffffffffffffffffffffffffffffffffffffffff16610c289092919063ffffffff16565b9050600081511115610c235780806020019051810190610be391906117e7565b610c22576040517f08c379a0000000000000000000000000000000000000000000000000000000008152600401610c1990611886565b60405180910390fd5b5b505050565b6060610c378484600085610c40565b90509392505050565b606082471015610c85576040517f08c379a0000000000000000000000000000000000000000000000000000000008152600401610c7c90611918565b60405180910390fd5b610c8e85610d54565b610ccd576040517f08c379a0000000000000000000000000000000000000000000000000000000008152600401610cc490611984565b60405180910390fd5b6000808673ffffffffffffffffffffffffffffffffffffffff168587604051610cf691906119eb565b60006040518083038185875af1925050503d8060008114610d33576040519150601f19603f3d011682016040523d82523d6000602084013e610d38565b606091505b5091509150610d48828286610d67565b92505050949350505050565b600080823b905060008111915050919050565b60608315610d7757829050610dc7565b600083511115610d8a5782518084602001fd5b816040517f08c379a0000000000000000000000000000000000000000000000000000000008152600401610dbe91906111ac565b60405180910390fd5b9392505050565b6000604051905090565b600080fd5b600080fd5b60007fffffffff0000000000000000000000000000000000000000000000000000000082169050919050565b610e1781610de2565b8114610e2257600080fd5b50565b600081359050610e3481610e0e565b92915050565b600060208284031215610e5057610e4f610dd8565b5b6000610e5e84828501610e25565b91505092915050565b60008115159050919050565b610e7c81610e67565b82525050565b6000602082019050610e976000830184610e73565b92915050565b600073ffffffffffffffffffffffffffffffffffffffff82169050919050565b6000610ec882610e9d565b9050919050565b610ed881610ebd565b8114610ee357600080fd5b50565b600081359050610ef581610ecf565b92915050565b6000819050919050565b610f0e81610efb565b8114610f1957600080fd5b50565b600081359050610f2b81610f05565b92915050565b600080fd5b600080fd5b6000601f19601f8301169050919050565b7f4e487b7100000000000000000000000000000000000000000000000000000000600052604160045260246000fd5b610f8482610f3b565b810181811067ffffffffffffffff82111715610fa357610fa2610f4c565b5b80604052505050565b6000610fb6610dce565b9050610fc28282610f7b565b919050565b600067ffffffffffffffff821115610fe257610fe1610f4c565b5b610feb82610f3b565b9050602081019050919050565b82818337600083830152505050565b600061101a61101584610fc7565b610fac565b90508281526020810184848401111561103657611035610f36565b5b611041848285610ff8565b509392505050565b600082601f83011261105e5761105d610f31565b5b813561106e848260208601611007565b91505092915050565b6000806000806080858703121561109157611090610dd8565b5b600061109f87828801610ee6565b94505060206110b087828801610ee6565b93505060406110c187828801610f1c565b925050606085013567ffffffffffffffff8111156110e2576110e1610ddd565b5b6110ee87828801611049565b91505092959194509250565b61110381610de2565b82525050565b600060208201905061111e60008301846110fa565b92915050565b600081519050919050565b600082825260208201905092915050565b60005b8381101561115e578082015181840152602081019050611143565b8381111561116d576000848401525b50505050565b600061117e82611124565b611188818561112f565b9350611198818560208601611140565b6111a181610f3b565b840191505092915050565b600060208201905081810360008301526111c68184611173565b905092915050565b6111d781610ebd565b82525050565b60006020820190506111f260008301846111ce565b92915050565b6004811061120557600080fd5b50565b600081359050611217816111f8565b92915050565b600061122882610e9d565b9050919050565b6112388161121d565b811461124357600080fd5b50565b6000813590506112558161122f565b92915050565b600080600080600060a0868803121561127757611276610dd8565b5b600061128588828901611208565b955050602061129688828901610ee6565b94505060406112a788828901611246565b93505060606112b888828901610f1c565b92505060806112c988828901610f1c565b9150509295509295909350565b600067ffffffffffffffff8211156112f1576112f0610f4c565b5b602082029050602081019050919050565b600080fd5b600061131a611315846112d6565b610fac565b9050808382526020820190506020840283018581111561133d5761133c611302565b5b835b8181101561136657806113528882610f1c565b84526020840193505060208101905061133f565b5050509392505050565b600082601f83011261138557611384610f31565b5b8135611395848260208601611307565b91505092915050565b600080600080600060a086880312156113ba576113b9610dd8565b5b60006113c888828901610ee6565b95505060206113d988828901610ee6565b945050604086013567ffffffffffffffff8111156113fa576113f9610ddd565b5b61140688828901611370565b935050606086013567ffffffffffffffff81111561142757611426610ddd565b5b61143388828901611370565b925050608086013567ffffffffffffffff81111561145457611453610ddd565b5b61146088828901611049565b9150509295509295909350565b600080600080600060a0868803121561148957611488610dd8565b5b600061149788828901610ee6565b95505060206114a888828901610ee6565b94505060406114b988828901610f1c565b93505060606114ca88828901610f1c565b925050608086013567ffffffffffffffff8111156114eb576114ea610ddd565b5b6114f788828901611049565b9150509295509295909350565b60006020828403121561151a57611519610dd8565b5b600061152884828501610ee6565b91505092915050565b7f4f776e61626c653a2063616c6c6572206973206e6f7420746865206f776e6572600082015250565b600061156760208361112f565b915061157282611531565b602082019050919050565b600060208201905081810360008301526115968161155a565b9050919050565b7f4e487b7100000000000000000000000000000000000000000000000000000000600052602160045260246000fd5b7f4f776e61626c653a206e6577206f776e657220697320746865207a65726f206160008201527f6464726573730000000000000000000000000000000000000000000000000000602082015250565b600061162860268361112f565b9150611633826115cc565b604082019050919050565b600060208201905081810360008301526116578161161b565b9050919050565b6000819050919050565b600061168361167e61167984610e9d565b61165e565b610e9d565b9050919050565b600061169582611668565b9050919050565b60006116a78261168a565b9050919050565b6116b78161169c565b82525050565b6116c681610efb565b82525050565b600082825260208201905092915050565b50565b60006116ed6000836116cc565b91506116f8826116dd565b600082019050919050565b600060a08201905061171860008301876111ce565b61172560208301866116ae565b61173260408301856116bd565b61173f60608301846116bd565b8181036080830152611750816116e0565b905095945050505050565b600060608201905061177060008301866111ce565b61177d60208301856116ae565b61178a60408301846116bd565b949350505050565b60006040820190506117a760008301856111ce565b6117b460208301846116bd565b9392505050565b6117c481610e67565b81146117cf57600080fd5b50565b6000815190506117e1816117bb565b92915050565b6000602082840312156117fd576117fc610dd8565b5b600061180b848285016117d2565b91505092915050565b7f5361666545524332303a204552433230206f7065726174696f6e20646964206e60008201527f6f74207375636365656400000000000000000000000000000000000000000000602082015250565b6000611870602a8361112f565b915061187b82611814565b604082019050919050565b6000602082019050818103600083015261189f81611863565b9050919050565b7f416464726573733a20696e73756666696369656e742062616c616e636520666f60008201527f722063616c6c0000000000000000000000000000000000000000000000000000602082015250565b600061190260268361112f565b915061190d826118a6565b604082019050919050565b60006020820190508181036000830152611931816118f5565b9050919050565b7f416464726573733a2063616c6c20746f206e6f6e2d636f6e7472616374000000600082015250565b600061196e601d8361112f565b915061197982611938565b602082019050919050565b6000602082019050818103600083015261199d81611961565b9050919050565b600081519050919050565b600081905092915050565b60006119c5826119a4565b6119cf81856119af565b93506119df818560208601611140565b80840191505092915050565b60006119f782846119ba565b91508190509291505056fe5477696c6967687420537061726b6c6520697320746865206375746573742c20736d6172746573742c20616c6c2061726f756e64206265737420706f6e7921a2646970667358221220c15f0ddb6b5bf65424abe1abfa74c70b2a1c5caae388f85938a85301ef81001164736f6c634300080a0033",
  "linkReferences": {},
  "deployedLinkReferences": {}
}