{
  "_format": "hh-sol-artifact-1",
  "contractName": "MarebitsLocker",
  "sourceName": "contracts/MarebitsLocker.sol",
  "abi": [
    {
      "inputs": [
        {
          "internalType": "string",
          "name": "name",
          "type": "string"
        },
        {
          "internalType": "string",
          "name": "symbol",
          "type": "string"
        },
        {
          "internalType": "string",
          "name": "baseURI",
          "type": "string"
        }
      ],
      "stateMutability": "nonpayable",
      "type": "constructor"
    },
    {
      "anonymous": false,
      "inputs": [
        {
          "indexed": true,
          "internalType": "address",
          "name": "previousOwner",
          "type": "address"
        },
        {
          "indexed": true,
          "internalType": "address",
          "name": "newOwner",
          "type": "address"
        }
      ],
      "name": "OwnershipTransferred",
      "type": "event"
    },
    {
      "anonymous": false,
      "inputs": [
        {
          "indexed": true,
          "internalType": "uint256",
          "name": "lockerTokenId",
          "type": "uint256"
        },
        {
          "indexed": true,
          "internalType": "address",
          "name": "owner",
          "type": "address"
        },
        {
          "indexed": false,
          "internalType": "uint256",
          "name": "amount",
          "type": "uint256"
        },
        {
          "indexed": false,
          "internalType": "address",
          "name": "tokenContract",
          "type": "address"
        },
        {
          "indexed": false,
          "internalType": "uint256",
          "name": "tokenId",
          "type": "uint256"
        },
        {
          "indexed": false,
          "internalType": "enum TokenTypeable.TokenType",
          "name": "tokenType",
          "type": "uint8"
        },
        {
          "indexed": false,
          "internalType": "uint256",
          "name": "unlockTime",
          "type": "uint256"
        }
      ],
      "name": "TokensLocked",
      "type": "event"
    },
    {
      "anonymous": false,
      "inputs": [
        {
          "indexed": true,
          "internalType": "uint256",
          "name": "lockerTokenId",
          "type": "uint256"
        },
        {
          "indexed": true,
          "internalType": "address",
          "name": "owner",
          "type": "address"
        },
        {
          "indexed": false,
          "internalType": "uint256",
          "name": "amount",
          "type": "uint256"
        },
        {
          "indexed": false,
          "internalType": "address",
          "name": "tokenContract",
          "type": "address"
        },
        {
          "indexed": false,
          "internalType": "uint256",
          "name": "tokenId",
          "type": "uint256"
        },
        {
          "indexed": false,
          "internalType": "enum TokenTypeable.TokenType",
          "name": "tokenType",
          "type": "uint8"
        }
      ],
      "name": "TokensRedeemed",
      "type": "event"
    },
    {
      "inputs": [
        {
          "internalType": "contract IERC1155",
          "name": "token",
          "type": "address"
        },
        {
          "internalType": "uint256",
          "name": "tokenId",
          "type": "uint256"
        }
      ],
      "name": "__recoverERC1155",
      "outputs": [],
      "stateMutability": "nonpayable",
      "type": "function"
    },
    {
      "inputs": [
        {
          "internalType": "contract IERC20",
          "name": "token",
          "type": "address"
        }
      ],
      "name": "__recoverERC20",
      "outputs": [],
      "stateMutability": "nonpayable",
      "type": "function"
    },
    {
      "inputs": [
        {
          "internalType": "contract IERC721",
          "name": "token",
          "type": "address"
        },
        {
          "internalType": "uint256",
          "name": "tokenId",
          "type": "uint256"
        }
      ],
      "name": "__recoverERC721",
      "outputs": [],
      "stateMutability": "nonpayable",
      "type": "function"
    },
    {
      "inputs": [],
      "name": "__recoverEther",
      "outputs": [],
      "stateMutability": "payable",
      "type": "function"
    },
    {
      "inputs": [
        {
          "internalType": "string",
          "name": "baseURI",
          "type": "string"
        }
      ],
      "name": "__setBaseURI",
      "outputs": [],
      "stateMutability": "nonpayable",
      "type": "function"
    },
    {
      "inputs": [
        {
          "internalType": "uint256",
          "name": "tokenId",
          "type": "uint256"
        },
        {
          "internalType": "string",
          "name": "tokenUri",
          "type": "string"
        }
      ],
      "name": "__setTokenURI",
      "outputs": [],
      "stateMutability": "nonpayable",
      "type": "function"
    },
    {
      "inputs": [],
      "name": "bestPony",
      "outputs": [
        {
          "internalType": "string",
          "name": "",
          "type": "string"
        }
      ],
      "stateMutability": "pure",
      "type": "function"
    },
    {
      "inputs": [
        {
          "internalType": "uint256",
          "name": "tokenId",
          "type": "uint256"
        },
        {
          "internalType": "uint256",
          "name": "unlockTime",
          "type": "uint256"
        }
      ],
      "name": "extendLock",
      "outputs": [],
      "stateMutability": "nonpayable",
      "type": "function"
    },
    {
      "inputs": [
        {
          "internalType": "uint256",
          "name": "tokenId",
          "type": "uint256"
        }
      ],
      "name": "getAccount",
      "outputs": [
        {
          "internalType": "uint256",
          "name": "",
          "type": "uint256"
        },
        {
          "internalType": "string",
          "name": "",
          "type": "string"
        },
        {
          "internalType": "address",
          "name": "",
          "type": "address"
        },
        {
          "internalType": "uint256",
          "name": "",
          "type": "uint256"
        },
        {
          "internalType": "enum TokenTypeable.TokenType",
          "name": "",
          "type": "uint8"
        },
        {
          "internalType": "string",
          "name": "",
          "type": "string"
        },
        {
          "internalType": "uint256",
          "name": "",
          "type": "uint256"
        }
      ],
      "stateMutability": "view",
      "type": "function"
    },
    {
      "inputs": [
        {
          "internalType": "enum TokenTypeable.TokenType",
          "name": "tokenType",
          "type": "uint8"
        },
        {
          "internalType": "address",
          "name": "tokenContract",
          "type": "address"
        },
        {
          "internalType": "uint256",
          "name": "tokenId",
          "type": "uint256"
        },
        {
          "internalType": "uint256",
          "name": "amount",
          "type": "uint256"
        },
        {
          "internalType": "uint256",
          "name": "unlockTime",
          "type": "uint256"
        }
      ],
      "name": "lockTokens",
      "outputs": [],
      "stateMutability": "nonpayable",
      "type": "function"
    },
    {
      "inputs": [],
      "name": "owner",
      "outputs": [
        {
          "internalType": "address",
          "name": "",
          "type": "address"
        }
      ],
      "stateMutability": "view",
      "type": "function"
    },
    {
      "inputs": [
        {
          "internalType": "uint256",
          "name": "tokenId",
          "type": "uint256"
        }
      ],
      "name": "redeemToken",
      "outputs": [],
      "stateMutability": "nonpayable",
      "type": "function"
    },
    {
      "inputs": [],
      "name": "renounceOwnership",
      "outputs": [],
      "stateMutability": "nonpayable",
      "type": "function"
    },
    {
      "inputs": [
        {
          "internalType": "bytes4",
          "name": "interfaceId",
          "type": "bytes4"
        }
      ],
      "name": "supportsInterface",
      "outputs": [
        {
          "internalType": "bool",
          "name": "",
          "type": "bool"
        }
      ],
      "stateMutability": "view",
      "type": "function"
    },
    {
      "inputs": [
        {
          "internalType": "address",
          "name": "newOwner",
          "type": "address"
        }
      ],
      "name": "transferOwnership",
      "outputs": [],
      "stateMutability": "nonpayable",
      "type": "function"
    }
  ],
  "bytecode": "0x60806040523480156200001157600080fd5b50604051620103773803806201037783398181016040528101906200003791906200044f565b620000576200004b620001bc60201b60201c565b620001c460201b60201c565b600180819055506040516200006c9062000288565b604051809103906000f08015801562000089573d6000803e3d6000fd5b50600260006101000a81548173ffffffffffffffffffffffffffffffffffffffff021916908373ffffffffffffffffffffffffffffffffffffffff160217905550828282604051620000db9062000296565b620000e99392919062000565565b604051809103906000f08015801562000106573d6000803e3d6000fd5b50600360006101000a81548173ffffffffffffffffffffffffffffffffffffffff021916908373ffffffffffffffffffffffffffffffffffffffff1602179055506040516200015590620002a4565b604051809103906000f08015801562000172573d6000803e3d6000fd5b50600460006101000a81548173ffffffffffffffffffffffffffffffffffffffff021916908373ffffffffffffffffffffffffffffffffffffffff160217905550505050620005b7565b600033905090565b60008060009054906101000a900473ffffffffffffffffffffffffffffffffffffffff169050816000806101000a81548173ffffffffffffffffffffffffffffffffffffffff021916908373ffffffffffffffffffffffffffffffffffffffff1602179055508173ffffffffffffffffffffffffffffffffffffffff168173ffffffffffffffffffffffffffffffffffffffff167f8be0079c531659141344cd1fd0a4f28419497f9722a3daafe3b4186f6b6457e060405160405180910390a35050565b613f8c806200578583390190565b614f64806200971183390190565b611d02806200e67583390190565b6000604051905090565b600080fd5b600080fd5b600080fd5b600080fd5b6000601f19601f8301169050919050565b7f4e487b7100000000000000000000000000000000000000000000000000000000600052604160045260246000fd5b6200031b82620002d0565b810181811067ffffffffffffffff821117156200033d576200033c620002e1565b5b80604052505050565b600062000352620002b2565b905062000360828262000310565b919050565b600067ffffffffffffffff821115620003835762000382620002e1565b5b6200038e82620002d0565b9050602081019050919050565b60005b83811015620003bb5780820151818401526020810190506200039e565b83811115620003cb576000848401525b50505050565b6000620003e8620003e28462000365565b62000346565b905082815260208101848484011115620004075762000406620002cb565b5b620004148482856200039b565b509392505050565b600082601f830112620004345762000433620002c6565b5b815162000446848260208601620003d1565b91505092915050565b6000806000606084860312156200046b576200046a620002bc565b5b600084015167ffffffffffffffff8111156200048c576200048b620002c1565b5b6200049a868287016200041c565b935050602084015167ffffffffffffffff811115620004be57620004bd620002c1565b5b620004cc868287016200041c565b925050604084015167ffffffffffffffff811115620004f057620004ef620002c1565b5b620004fe868287016200041c565b9150509250925092565b600081519050919050565b600082825260208201905092915050565b6000620005318262000508565b6200053d818562000513565b93506200054f8185602086016200039b565b6200055a81620002d0565b840191505092915050565b6000606082019050818103600083015262000581818662000524565b9050818103602083015262000597818562000524565b90508181036040830152620005ad818462000524565b9050949350505050565b6151be80620005c76000396000f3fe6080604052600436106100e85760003560e01c8063540b6ab11161008a5780638da5cb5b116100595780638da5cb5b14610295578063a7688b5c146102c0578063ce88b145146102e9578063f2fde38b1461032c576100e8565b8063540b6ab11461022257806358ee71731461024b57806364e7192414610274578063715018a61461027e576100e8565b806319511a7a116100c657806319511a7a1461017c5780632099de41146101a7578063460e7da7146101d05780634a3b889a146101f9576100e8565b8063013054c2146100ed57806301ffc9a714610116578063070d66bf14610153575b600080fd5b3480156100f957600080fd5b50610114600480360381019061010f91906137ba565b610355565b005b34801561012257600080fd5b5061013d6004803603810190610138919061383f565b610fad565b60405161014a9190613887565b60405180910390f35b34801561015f57600080fd5b5061017a600480360381019061017591906138a2565b61115f565b005b34801561018857600080fd5b506101916117ea565b60405161019e919061397b565b60405180910390f35b3480156101b357600080fd5b506101ce60048036038101906101c99190613a0d565b61180a565b005b3480156101dc57600080fd5b506101f760048036038101906101f29190613a8b565b61197c565b005b34801561020557600080fd5b50610220600480360381019061021b9190613b30565b611a72565b005b34801561022e57600080fd5b5061024960048036038101906102449190613bbb565b611b81565b005b34801561025757600080fd5b50610272600480360381019061026d9190613be8565b611cab565b005b61027c611dbd565b005b34801561028a57600080fd5b50610293611fc9565b005b3480156102a157600080fd5b506102aa612051565b6040516102b79190613c57565b60405180910390f35b3480156102cc57600080fd5b506102e760048036038101906102e29190613cc3565b61207a565b005b3480156102f557600080fd5b50610310600480360381019061030b91906137ba565b6122f9565b6040516103239796959493929190613dc4565b60405180910390f35b34801561033857600080fd5b50610353600480360381019061034e9190613e41565b6123c0565b005b6002600154141561039b576040517f08c379a000000000000000000000000000000000000000000000000000000000815260040161039290613eba565b60405180910390fd5b60026001819055506103c96103ae6124b8565b73ffffffffffffffffffffffffffffffffffffffff166124c0565b15610409576040517f08c379a000000000000000000000000000000000000000000000000000000000815260040161040090613f4c565b60405180910390fd5b600360009054906101000a900473ffffffffffffffffffffffffffffffffffffffff1673ffffffffffffffffffffffffffffffffffffffff16638553c3e9826040518263ffffffff1660e01b81526004016104649190613f6c565b602060405180830381865afa158015610481573d6000803e3d6000fd5b505050506040513d601f19601f820116820180604052508101906104a59190613fb3565b6104e4576040517f08c379a00000000000000000000000000000000000000000000000000000000081526004016104db9061402c565b60405180910390fd5b6104ec6124b8565b73ffffffffffffffffffffffffffffffffffffffff16600360009054906101000a900473ffffffffffffffffffffffffffffffffffffffff1673ffffffffffffffffffffffffffffffffffffffff16636352211e836040518263ffffffff1660e01b815260040161055d9190613f6c565b602060405180830381865afa15801561057a573d6000803e3d6000fd5b505050506040513d601f19601f8201168201806040525081019061059e9190614061565b73ffffffffffffffffffffffffffffffffffffffff16146105f4576040517f08c379a00000000000000000000000000000000000000000000000000000000081526004016105eb906140da565b60405180910390fd5b3073ffffffffffffffffffffffffffffffffffffffff16600360009054906101000a900473ffffffffffffffffffffffffffffffffffffffff1673ffffffffffffffffffffffffffffffffffffffff1663081812fc836040518263ffffffff1660e01b81526004016106669190613f6c565b602060405180830381865afa158015610683573d6000803e3d6000fd5b505050506040513d601f19601f820116820180604052508101906106a79190614061565b73ffffffffffffffffffffffffffffffffffffffff16146106fd576040517f08c379a00000000000000000000000000000000000000000000000000000000081526004016106f49061416c565b60405180910390fd5b600260009054906101000a900473ffffffffffffffffffffffffffffffffffffffff1673ffffffffffffffffffffffffffffffffffffffff166372abc8b7826040518263ffffffff1660e01b81526004016107589190613f6c565b602060405180830381865afa158015610775573d6000803e3d6000fd5b505050506040513d601f19601f820116820180604052508101906107999190613fb3565b6107d8576040517f08c379a00000000000000000000000000000000000000000000000000000000081526004016107cf906141d8565b60405180910390fd5b6000600260009054906101000a900473ffffffffffffffffffffffffffffffffffffffff1673ffffffffffffffffffffffffffffffffffffffff16639980ec86836040518263ffffffff1660e01b81526004016108359190613f6c565b602060405180830381865afa158015610852573d6000803e3d6000fd5b505050506040513d601f19601f82011682018060405250810190610876919061420d565b116108b6576040517f08c379a00000000000000000000000000000000000000000000000000000000081526004016108ad90614286565b60405180910390fd5b600260009054906101000a900473ffffffffffffffffffffffffffffffffffffffff1673ffffffffffffffffffffffffffffffffffffffff166317e4c78c8260006040518363ffffffff1660e01b81526004016109149291906142eb565b600060405180830381600087803b15801561092e57600080fd5b505af1158015610942573d6000803e3d6000fd5b50505050600360009054906101000a900473ffffffffffffffffffffffffffffffffffffffff1673ffffffffffffffffffffffffffffffffffffffff1663d1a01520826040518263ffffffff1660e01b81526004016109a19190613f6c565b600060405180830381600087803b1580156109bb57600080fd5b505af11580156109cf573d6000803e3d6000fd5b50505050600460009054906101000a900473ffffffffffffffffffffffffffffffffffffffff1673ffffffffffffffffffffffffffffffffffffffff166383dcd184600260009054906101000a900473ffffffffffffffffffffffffffffffffffffffff1673ffffffffffffffffffffffffffffffffffffffff166376aed2e1846040518263ffffffff1660e01b8152600401610a6c9190613f6c565b602060405180830381865afa158015610a89573d6000803e3d6000fd5b505050506040513d601f19601f82011682018060405250810190610aad9190614329565b600260009054906101000a900473ffffffffffffffffffffffffffffffffffffffff1673ffffffffffffffffffffffffffffffffffffffff1663a07e5199856040518263ffffffff1660e01b8152600401610b089190613f6c565b602060405180830381865afa158015610b25573d6000803e3d6000fd5b505050506040513d601f19601f82011682018060405250810190610b499190614061565b610b516124b8565b600260009054906101000a900473ffffffffffffffffffffffffffffffffffffffff1673ffffffffffffffffffffffffffffffffffffffff166314ff5ea3876040518263ffffffff1660e01b8152600401610bac9190613f6c565b602060405180830381865afa158015610bc9573d6000803e3d6000fd5b505050506040513d601f19601f82011682018060405250810190610bed919061420d565b600260009054906101000a900473ffffffffffffffffffffffffffffffffffffffff1673ffffffffffffffffffffffffffffffffffffffff16639980ec86886040518263ffffffff1660e01b8152600401610c489190613f6c565b602060405180830381865afa158015610c65573d6000803e3d6000fd5b505050506040513d601f19601f82011682018060405250810190610c89919061420d565b6040518663ffffffff1660e01b8152600401610ca9959493929190614377565b600060405180830381600087803b158015610cc357600080fd5b505af1158015610cd7573d6000803e3d6000fd5b50505050610ce36124b8565b73ffffffffffffffffffffffffffffffffffffffff16817f362ee327523b324da9696eece77c1716bbd5677a2839b1148716bdfd4a8b8176600260009054906101000a900473ffffffffffffffffffffffffffffffffffffffff1673ffffffffffffffffffffffffffffffffffffffff16639980ec86856040518263ffffffff1660e01b8152600401610d769190613f6c565b602060405180830381865afa158015610d93573d6000803e3d6000fd5b505050506040513d601f19601f82011682018060405250810190610db7919061420d565b600260009054906101000a900473ffffffffffffffffffffffffffffffffffffffff1673ffffffffffffffffffffffffffffffffffffffff1663a07e5199866040518263ffffffff1660e01b8152600401610e129190613f6c565b602060405180830381865afa158015610e2f573d6000803e3d6000fd5b505050506040513d601f19601f82011682018060405250810190610e539190614061565b600260009054906101000a900473ffffffffffffffffffffffffffffffffffffffff1673ffffffffffffffffffffffffffffffffffffffff166314ff5ea3876040518263ffffffff1660e01b8152600401610eae9190613f6c565b602060405180830381865afa158015610ecb573d6000803e3d6000fd5b505050506040513d601f19601f82011682018060405250810190610eef919061420d565b600260009054906101000a900473ffffffffffffffffffffffffffffffffffffffff1673ffffffffffffffffffffffffffffffffffffffff166376aed2e1886040518263ffffffff1660e01b8152600401610f4a9190613f6c565b602060405180830381865afa158015610f67573d6000803e3d6000fd5b505050506040513d601f19601f82011682018060405250810190610f8b9190614329565b604051610f9b94939291906143ca565b60405180910390a36001808190555050565b60007f19511a7a000000000000000000000000000000000000000000000000000000007bffffffffffffffffffffffffffffffffffffffffffffffffffffffff1916827bffffffffffffffffffffffffffffffffffffffffffffffffffffffff1916148061107857507f0e083076000000000000000000000000000000000000000000000000000000007bffffffffffffffffffffffffffffffffffffffffffffffffffffffff1916827bffffffffffffffffffffffffffffffffffffffffffffffffffffffff1916145b806110e057507f64e71924000000000000000000000000000000000000000000000000000000007bffffffffffffffffffffffffffffffffffffffffffffffffffffffff1916827bffffffffffffffffffffffffffffffffffffffffffffffffffffffff1916145b8061114857507f329cc957000000000000000000000000000000000000000000000000000000007bffffffffffffffffffffffffffffffffffffffffffffffffffffffff1916827bffffffffffffffffffffffffffffffffffffffffffffffffffffffff1916145b806111585750611157826124d3565b5b9050919050565b61118561116a6124b8565b73ffffffffffffffffffffffffffffffffffffffff166124c0565b156111c5576040517f08c379a00000000000000000000000000000000000000000000000000000000081526004016111bc90613f4c565b60405180910390fd5b600360009054906101000a900473ffffffffffffffffffffffffffffffffffffffff1673ffffffffffffffffffffffffffffffffffffffff16638553c3e9836040518263ffffffff1660e01b81526004016112209190613f6c565b602060405180830381865afa15801561123d573d6000803e3d6000fd5b505050506040513d601f19601f820116820180604052508101906112619190613fb3565b6112a0576040517f08c379a00000000000000000000000000000000000000000000000000000000081526004016112979061402c565b60405180910390fd5b6112a86124b8565b73ffffffffffffffffffffffffffffffffffffffff16600360009054906101000a900473ffffffffffffffffffffffffffffffffffffffff1673ffffffffffffffffffffffffffffffffffffffff16636352211e846040518263ffffffff1660e01b81526004016113199190613f6c565b602060405180830381865afa158015611336573d6000803e3d6000fd5b505050506040513d601f19601f8201168201806040525081019061135a9190614061565b73ffffffffffffffffffffffffffffffffffffffff16146113b0576040517f08c379a00000000000000000000000000000000000000000000000000000000081526004016113a7906140da565b60405180910390fd5b600260009054906101000a900473ffffffffffffffffffffffffffffffffffffffff1673ffffffffffffffffffffffffffffffffffffffff1663b21536e6836040518263ffffffff1660e01b815260040161140b9190613f6c565b602060405180830381865afa158015611428573d6000803e3d6000fd5b505050506040513d601f19601f8201168201806040525081019061144c919061420d565b811161148d576040517f08c379a000000000000000000000000000000000000000000000000000000000815260040161148490614481565b60405180910390fd5b600260009054906101000a900473ffffffffffffffffffffffffffffffffffffffff1673ffffffffffffffffffffffffffffffffffffffff1663eafcfb9983836040518363ffffffff1660e01b81526004016114ea9291906144a1565b600060405180830381600087803b15801561150457600080fd5b505af1158015611518573d6000803e3d6000fd5b505050506115246124b8565b73ffffffffffffffffffffffffffffffffffffffff16827f7b2dffcb79001644d1437f723fadb7a701393cae02c2501b25423fc37bb424be600260009054906101000a900473ffffffffffffffffffffffffffffffffffffffff1673ffffffffffffffffffffffffffffffffffffffff16639980ec86866040518263ffffffff1660e01b81526004016115b79190613f6c565b602060405180830381865afa1580156115d4573d6000803e3d6000fd5b505050506040513d601f19601f820116820180604052508101906115f8919061420d565b600260009054906101000a900473ffffffffffffffffffffffffffffffffffffffff1673ffffffffffffffffffffffffffffffffffffffff1663a07e5199876040518263ffffffff1660e01b81526004016116539190613f6c565b602060405180830381865afa158015611670573d6000803e3d6000fd5b505050506040513d601f19601f820116820180604052508101906116949190614061565b600260009054906101000a900473ffffffffffffffffffffffffffffffffffffffff1673ffffffffffffffffffffffffffffffffffffffff166314ff5ea3886040518263ffffffff1660e01b81526004016116ef9190613f6c565b602060405180830381865afa15801561170c573d6000803e3d6000fd5b505050506040513d601f19601f82011682018060405250810190611730919061420d565b600260009054906101000a900473ffffffffffffffffffffffffffffffffffffffff1673ffffffffffffffffffffffffffffffffffffffff166376aed2e1896040518263ffffffff1660e01b815260040161178b9190613f6c565b602060405180830381865afa1580156117a8573d6000803e3d6000fd5b505050506040513d601f19601f820116820180604052508101906117cc9190614329565b876040516117de9594939291906144ca565b60405180910390a35050565b60606040518060600160405280603f815260200161514a603f9139905090565b6118126124b8565b73ffffffffffffffffffffffffffffffffffffffff16611830612051565b73ffffffffffffffffffffffffffffffffffffffff1614611886576040517f08c379a000000000000000000000000000000000000000000000000000000000815260040161187d90614569565b60405180910390fd5b8173ffffffffffffffffffffffffffffffffffffffff1663f242432a306118ab612051565b848673ffffffffffffffffffffffffffffffffffffffff1662fdd58e30886040518363ffffffff1660e01b81526004016118e6929190614589565b602060405180830381865afa158015611903573d6000803e3d6000fd5b505050506040513d601f19601f82011682018060405250810190611927919061420d565b6040518563ffffffff1660e01b8152600401611946949392919061463e565b600060405180830381600087803b15801561196057600080fd5b505af1158015611974573d6000803e3d6000fd5b505050505050565b6119846124b8565b73ffffffffffffffffffffffffffffffffffffffff166119a2612051565b73ffffffffffffffffffffffffffffffffffffffff16146119f8576040517f08c379a00000000000000000000000000000000000000000000000000000000081526004016119ef90614569565b60405180910390fd5b8173ffffffffffffffffffffffffffffffffffffffff166342842e0e30611a1d612051565b846040518463ffffffff1660e01b8152600401611a3c93929190614696565b600060405180830381600087803b158015611a5657600080fd5b505af1158015611a6a573d6000803e3d6000fd5b505050505050565b611a7a6124b8565b73ffffffffffffffffffffffffffffffffffffffff16611a98612051565b73ffffffffffffffffffffffffffffffffffffffff1614611aee576040517f08c379a0000000000000000000000000000000000000000000000000000000008152600401611ae590614569565b60405180910390fd5b600360009054906101000a900473ffffffffffffffffffffffffffffffffffffffff1673ffffffffffffffffffffffffffffffffffffffff16634a3b889a83836040518363ffffffff1660e01b8152600401611b4b929190614709565b600060405180830381600087803b158015611b6557600080fd5b505af1158015611b79573d6000803e3d6000fd5b505050505050565b611b896124b8565b73ffffffffffffffffffffffffffffffffffffffff16611ba7612051565b73ffffffffffffffffffffffffffffffffffffffff1614611bfd576040517f08c379a0000000000000000000000000000000000000000000000000000000008152600401611bf490614569565b60405180910390fd5b611ca8611c08612051565b8273ffffffffffffffffffffffffffffffffffffffff166370a08231306040518263ffffffff1660e01b8152600401611c419190613c57565b602060405180830381865afa158015611c5e573d6000803e3d6000fd5b505050506040513d601f19601f82011682018060405250810190611c82919061420d565b8373ffffffffffffffffffffffffffffffffffffffff1661253d9092919063ffffffff16565b50565b611cb36124b8565b73ffffffffffffffffffffffffffffffffffffffff16611cd1612051565b73ffffffffffffffffffffffffffffffffffffffff1614611d27576040517f08c379a0000000000000000000000000000000000000000000000000000000008152600401611d1e90614569565b60405180910390fd5b600360009054906101000a900473ffffffffffffffffffffffffffffffffffffffff1673ffffffffffffffffffffffffffffffffffffffff166358ee71738484846040518463ffffffff1660e01b8152600401611d869392919061472d565b600060405180830381600087803b158015611da057600080fd5b505af1158015611db4573d6000803e3d6000fd5b50505050505050565b611dc56124b8565b73ffffffffffffffffffffffffffffffffffffffff16611de3612051565b73ffffffffffffffffffffffffffffffffffffffff1614611e39576040517f08c379a0000000000000000000000000000000000000000000000000000000008152600401611e3090614569565b60405180910390fd5b600260009054906101000a900473ffffffffffffffffffffffffffffffffffffffff1673ffffffffffffffffffffffffffffffffffffffff166364e719246040518163ffffffff1660e01b8152600401600060405180830381600087803b158015611ea357600080fd5b505af1158015611eb7573d6000803e3d6000fd5b50505050600360009054906101000a900473ffffffffffffffffffffffffffffffffffffffff1673ffffffffffffffffffffffffffffffffffffffff166364e719246040518163ffffffff1660e01b8152600401600060405180830381600087803b158015611f2557600080fd5b505af1158015611f39573d6000803e3d6000fd5b50505050600460009054906101000a900473ffffffffffffffffffffffffffffffffffffffff1673ffffffffffffffffffffffffffffffffffffffff166364e719246040518163ffffffff1660e01b8152600401600060405180830381600087803b158015611fa757600080fd5b505af1158015611fbb573d6000803e3d6000fd5b50505050611fc76125c3565b565b611fd16124b8565b73ffffffffffffffffffffffffffffffffffffffff16611fef612051565b73ffffffffffffffffffffffffffffffffffffffff1614612045576040517f08c379a000000000000000000000000000000000000000000000000000000000815260040161203c90614569565b60405180910390fd5b61204f600061268f565b565b60008060009054906101000a900473ffffffffffffffffffffffffffffffffffffffff16905090565b600260015414156120c0576040517f08c379a00000000000000000000000000000000000000000000000000000000081526004016120b790613eba565b60405180910390fd5b60026001819055506120ee6120d36124b8565b73ffffffffffffffffffffffffffffffffffffffff166124c0565b1561212e576040517f08c379a000000000000000000000000000000000000000000000000000000000815260040161212590613f4c565b60405180910390fd5b846001600381111561214357612142613d4d565b5b81600381111561215657612155613d4d565b5b148061218657506002600381111561217157612170613d4d565b5b81600381111561218457612183613d4d565b5b145b806121b4575060038081111561219f5761219e613d4d565b5b8160038111156121b2576121b1613d4d565b5b145b6121f3576040517f08c379a00000000000000000000000000000000000000000000000000000000081526004016121ea906147f7565b60405180910390fd5b428211612235576040517f08c379a000000000000000000000000000000000000000000000000000000000815260040161222c90614889565b60405180910390fd5b6001600381111561224957612248613d4d565b5b86600381111561225c5761225b613d4d565b5b14156122735761226e85858585612753565b6122ea565b6002600381111561228757612286613d4d565b5b86600381111561229a57612299613d4d565b5b14156122b0576122ab858484612b66565b6122e9565b6003808111156122c3576122c2613d4d565b5b8660038111156122d6576122d5613d4d565b5b14156122e8576122e7858584612f38565b5b5b5b50600180819055505050505050565b60006060600080600060606000600260009054906101000a900473ffffffffffffffffffffffffffffffffffffffff1673ffffffffffffffffffffffffffffffffffffffff1663ce88b145896040518263ffffffff1660e01b81526004016123619190613f6c565b600060405180830381865afa15801561237e573d6000803e3d6000fd5b505050506040513d6000823e3d601f19601f820116820180604052508101906123a791906149ca565b9650965096509650965096509650919395979092949650565b6123c86124b8565b73ffffffffffffffffffffffffffffffffffffffff166123e6612051565b73ffffffffffffffffffffffffffffffffffffffff161461243c576040517f08c379a000000000000000000000000000000000000000000000000000000000815260040161243390614569565b60405180910390fd5b600073ffffffffffffffffffffffffffffffffffffffff168173ffffffffffffffffffffffffffffffffffffffff1614156124ac576040517f08c379a00000000000000000000000000000000000000000000000000000000081526004016124a390614b16565b60405180910390fd5b6124b58161268f565b50565b600033905090565b600080823b905060008111915050919050565b60007f01ffc9a7000000000000000000000000000000000000000000000000000000007bffffffffffffffffffffffffffffffffffffffffffffffffffffffff1916827bffffffffffffffffffffffffffffffffffffffffffffffffffffffff1916149050919050565b6125be8363a9059cbb60e01b848460405160240161255c929190614589565b604051602081830303815290604052907bffffffffffffffffffffffffffffffffffffffffffffffffffffffff19166020820180517bffffffffffffffffffffffffffffffffffffffffffffffffffffffff8381831617835250505050613356565b505050565b6125cb6124b8565b73ffffffffffffffffffffffffffffffffffffffff166125e9612051565b73ffffffffffffffffffffffffffffffffffffffff161461263f576040517f08c379a000000000000000000000000000000000000000000000000000000000815260040161263690614569565b60405180910390fd5b612647612051565b73ffffffffffffffffffffffffffffffffffffffff166108fc479081150290604051600060405180830381858888f1935050505015801561268c573d6000803e3d6000fd5b50565b60008060009054906101000a900473ffffffffffffffffffffffffffffffffffffffff169050816000806101000a81548173ffffffffffffffffffffffffffffffffffffffff021916908373ffffffffffffffffffffffffffffffffffffffff1602179055508173ffffffffffffffffffffffffffffffffffffffff168173ffffffffffffffffffffffffffffffffffffffff167f8be0079c531659141344cd1fd0a4f28419497f9722a3daafe3b4186f6b6457e060405160405180910390a35050565b60008211612796576040517f08c379a000000000000000000000000000000000000000000000000000000000815260040161278d90614b82565b60405180910390fd5b818473ffffffffffffffffffffffffffffffffffffffff1662fdd58e6127ba6124b8565b866040518363ffffffff1660e01b81526004016127d8929190614589565b602060405180830381865afa1580156127f5573d6000803e3d6000fd5b505050506040513d601f19601f82011682018060405250810190612819919061420d565b101561285a576040517f08c379a000000000000000000000000000000000000000000000000000000000815260040161285190614c14565b60405180910390fd5b8373ffffffffffffffffffffffffffffffffffffffff1663e985e9c561287e6124b8565b306040518363ffffffff1660e01b815260040161289c929190614c34565b602060405180830381865afa1580156128b9573d6000803e3d6000fd5b505050506040513d601f19601f820116820180604052508101906128dd9190613fb3565b61291c576040517f08c379a000000000000000000000000000000000000000000000000000000000815260040161291390614ccf565b60405180910390fd5b600061292c83868660018661341d565b90508473ffffffffffffffffffffffffffffffffffffffff1663f242432a6129526124b8565b600460009054906101000a900473ffffffffffffffffffffffffffffffffffffffff1687876040518563ffffffff1660e01b8152600401612996949392919061463e565b600060405180830381600087803b1580156129b057600080fd5b505af11580156129c4573d6000803e3d6000fd5b50505050600360009054906101000a900473ffffffffffffffffffffffffffffffffffffffff1673ffffffffffffffffffffffffffffffffffffffff1663478d8d60612a0e6124b8565b83600260009054906101000a900473ffffffffffffffffffffffffffffffffffffffff1673ffffffffffffffffffffffffffffffffffffffff16638ad91345866040518263ffffffff1660e01b8152600401612a6a9190613f6c565b600060405180830381865afa158015612a87573d6000803e3d6000fd5b505050506040513d6000823e3d601f19601f82011682018060405250810190612ab09190614cef565b6040518463ffffffff1660e01b8152600401612ace93929190614d38565b600060405180830381600087803b158015612ae857600080fd5b505af1158015612afc573d6000803e3d6000fd5b50505050612b086124b8565b73ffffffffffffffffffffffffffffffffffffffff16817f7b2dffcb79001644d1437f723fadb7a701393cae02c2501b25423fc37bb424be858888600188604051612b579594939291906144ca565b60405180910390a35050505050565b60008211612ba9576040517f08c379a0000000000000000000000000000000000000000000000000000000008152600401612ba090614b82565b60405180910390fd5b818373ffffffffffffffffffffffffffffffffffffffff166370a08231612bce6124b8565b6040518263ffffffff1660e01b8152600401612bea9190613c57565b602060405180830381865afa158015612c07573d6000803e3d6000fd5b505050506040513d601f19601f82011682018060405250810190612c2b919061420d565b1015612c6c576040517f08c379a0000000000000000000000000000000000000000000000000000000008152600401612c6390614c14565b60405180910390fd5b818373ffffffffffffffffffffffffffffffffffffffff1663dd62ed3e612c916124b8565b306040518363ffffffff1660e01b8152600401612caf929190614c34565b602060405180830381865afa158015612ccc573d6000803e3d6000fd5b505050506040513d601f19601f82011682018060405250810190612cf0919061420d565b1015612d31576040517f08c379a0000000000000000000000000000000000000000000000000000000008152600401612d289061416c565b60405180910390fd5b6000612d428385600060028661341d565b9050612d9a612d4f6124b8565b600460009054906101000a900473ffffffffffffffffffffffffffffffffffffffff16858773ffffffffffffffffffffffffffffffffffffffff16613554909392919063ffffffff16565b600360009054906101000a900473ffffffffffffffffffffffffffffffffffffffff1673ffffffffffffffffffffffffffffffffffffffff1663478d8d60612de06124b8565b83600260009054906101000a900473ffffffffffffffffffffffffffffffffffffffff1673ffffffffffffffffffffffffffffffffffffffff16638ad91345866040518263ffffffff1660e01b8152600401612e3c9190613f6c565b600060405180830381865afa158015612e59573d6000803e3d6000fd5b505050506040513d6000823e3d601f19601f82011682018060405250810190612e829190614cef565b6040518463ffffffff1660e01b8152600401612ea093929190614d38565b600060405180830381600087803b158015612eba57600080fd5b505af1158015612ece573d6000803e3d6000fd5b50505050612eda6124b8565b73ffffffffffffffffffffffffffffffffffffffff16817f7b2dffcb79001644d1437f723fadb7a701393cae02c2501b25423fc37bb424be85876000600288604051612f2a959493929190614d76565b60405180910390a350505050565b612f406124b8565b73ffffffffffffffffffffffffffffffffffffffff168373ffffffffffffffffffffffffffffffffffffffff16636352211e846040518263ffffffff1660e01b8152600401612f8f9190613f6c565b602060405180830381865afa158015612fac573d6000803e3d6000fd5b505050506040513d601f19601f82011682018060405250810190612fd09190614061565b73ffffffffffffffffffffffffffffffffffffffff1614613026576040517f08c379a000000000000000000000000000000000000000000000000000000000815260040161301d90614e15565b60405180910390fd5b3073ffffffffffffffffffffffffffffffffffffffff168373ffffffffffffffffffffffffffffffffffffffff1663081812fc846040518263ffffffff1660e01b81526004016130769190613f6c565b602060405180830381865afa158015613093573d6000803e3d6000fd5b505050506040513d601f19601f820116820180604052508101906130b79190614061565b73ffffffffffffffffffffffffffffffffffffffff161461310d576040517f08c379a00000000000000000000000000000000000000000000000000000000081526004016131049061416c565b60405180910390fd5b600061311e6001858560038661341d565b90508373ffffffffffffffffffffffffffffffffffffffff166342842e0e6131446124b8565b600460009054906101000a900473ffffffffffffffffffffffffffffffffffffffff16866040518463ffffffff1660e01b815260040161318693929190614696565b600060405180830381600087803b1580156131a057600080fd5b505af11580156131b4573d6000803e3d6000fd5b50505050600360009054906101000a900473ffffffffffffffffffffffffffffffffffffffff1673ffffffffffffffffffffffffffffffffffffffff1663478d8d606131fe6124b8565b83600260009054906101000a900473ffffffffffffffffffffffffffffffffffffffff1673ffffffffffffffffffffffffffffffffffffffff16638ad91345866040518263ffffffff1660e01b815260040161325a9190613f6c565b600060405180830381865afa158015613277573d6000803e3d6000fd5b505050506040513d6000823e3d601f19601f820116820180604052508101906132a09190614cef565b6040518463ffffffff1660e01b81526004016132be93929190614d38565b600060405180830381600087803b1580156132d857600080fd5b505af11580156132ec573d6000803e3d6000fd5b505050506132f86124b8565b73ffffffffffffffffffffffffffffffffffffffff16817f7b2dffcb79001644d1437f723fadb7a701393cae02c2501b25423fc37bb424be60018787600388604051613348959493929190614e70565b60405180910390a350505050565b60006133b8826040518060400160405280602081526020017f5361666545524332303a206c6f772d6c6576656c2063616c6c206661696c65648152508573ffffffffffffffffffffffffffffffffffffffff166135dd9092919063ffffffff16565b905060008151111561341857808060200190518101906133d89190613fb3565b613417576040517f08c379a000000000000000000000000000000000000000000000000000000000815260040161340e90614f35565b60405180910390fd5b5b505050565b6000600360009054906101000a900473ffffffffffffffffffffffffffffffffffffffff1673ffffffffffffffffffffffffffffffffffffffff1663453830996040518163ffffffff1660e01b81526004016020604051808303816000875af115801561348e573d6000803e3d6000fd5b505050506040513d601f19601f820116820180604052508101906134b2919061420d565b9050600260009054906101000a900473ffffffffffffffffffffffffffffffffffffffff1673ffffffffffffffffffffffffffffffffffffffff1663404ff5cd8288888888886040518763ffffffff1660e01b815260040161351996959493929190614f55565b600060405180830381600087803b15801561353357600080fd5b505af1158015613547573d6000803e3d6000fd5b5050505095945050505050565b6135d7846323b872dd60e01b85858560405160240161357593929190614fb6565b604051602081830303815290604052907bffffffffffffffffffffffffffffffffffffffffffffffffffffffff19166020820180517bffffffffffffffffffffffffffffffffffffffffffffffffffffffff8381831617835250505050613356565b50505050565b60606135ec84846000856135f5565b90509392505050565b60608247101561363a576040517f08c379a00000000000000000000000000000000000000000000000000000000081526004016136319061505f565b60405180910390fd5b613643856124c0565b613682576040517f08c379a0000000000000000000000000000000000000000000000000000000008152600401613679906150cb565b60405180910390fd5b6000808673ffffffffffffffffffffffffffffffffffffffff1685876040516136ab9190615132565b60006040518083038185875af1925050503d80600081146136e8576040519150601f19603f3d011682016040523d82523d6000602084013e6136ed565b606091505b50915091506136fd828286613709565b92505050949350505050565b6060831561371957829050613769565b60008351111561372c5782518084602001fd5b816040517f08c379a0000000000000000000000000000000000000000000000000000000008152600401613760919061397b565b60405180910390fd5b9392505050565b6000604051905090565b600080fd5b600080fd5b6000819050919050565b61379781613784565b81146137a257600080fd5b50565b6000813590506137b48161378e565b92915050565b6000602082840312156137d0576137cf61377a565b5b60006137de848285016137a5565b91505092915050565b60007fffffffff0000000000000000000000000000000000000000000000000000000082169050919050565b61381c816137e7565b811461382757600080fd5b50565b60008135905061383981613813565b92915050565b6000602082840312156138555761385461377a565b5b60006138638482850161382a565b91505092915050565b60008115159050919050565b6138818161386c565b82525050565b600060208201905061389c6000830184613878565b92915050565b600080604083850312156138b9576138b861377a565b5b60006138c7858286016137a5565b92505060206138d8858286016137a5565b9150509250929050565b600081519050919050565b600082825260208201905092915050565b60005b8381101561391c578082015181840152602081019050613901565b8381111561392b576000848401525b50505050565b6000601f19601f8301169050919050565b600061394d826138e2565b61395781856138ed565b93506139678185602086016138fe565b61397081613931565b840191505092915050565b600060208201905081810360008301526139958184613942565b905092915050565b600073ffffffffffffffffffffffffffffffffffffffff82169050919050565b60006139c88261399d565b9050919050565b60006139da826139bd565b9050919050565b6139ea816139cf565b81146139f557600080fd5b50565b600081359050613a07816139e1565b92915050565b60008060408385031215613a2457613a2361377a565b5b6000613a32858286016139f8565b9250506020613a43858286016137a5565b9150509250929050565b6000613a58826139bd565b9050919050565b613a6881613a4d565b8114613a7357600080fd5b50565b600081359050613a8581613a5f565b92915050565b60008060408385031215613aa257613aa161377a565b5b6000613ab085828601613a76565b9250506020613ac1858286016137a5565b9150509250929050565b600080fd5b600080fd5b600080fd5b60008083601f840112613af057613aef613acb565b5b8235905067ffffffffffffffff811115613b0d57613b0c613ad0565b5b602083019150836001820283011115613b2957613b28613ad5565b5b9250929050565b60008060208385031215613b4757613b4661377a565b5b600083013567ffffffffffffffff811115613b6557613b6461377f565b5b613b7185828601613ada565b92509250509250929050565b6000613b88826139bd565b9050919050565b613b9881613b7d565b8114613ba357600080fd5b50565b600081359050613bb581613b8f565b92915050565b600060208284031215613bd157613bd061377a565b5b6000613bdf84828501613ba6565b91505092915050565b600080600060408486031215613c0157613c0061377a565b5b6000613c0f868287016137a5565b935050602084013567ffffffffffffffff811115613c3057613c2f61377f565b5b613c3c86828701613ada565b92509250509250925092565b613c51816139bd565b82525050565b6000602082019050613c6c6000830184613c48565b92915050565b60048110613c7f57600080fd5b50565b600081359050613c9181613c72565b92915050565b613ca0816139bd565b8114613cab57600080fd5b50565b600081359050613cbd81613c97565b92915050565b600080600080600060a08688031215613cdf57613cde61377a565b5b6000613ced88828901613c82565b9550506020613cfe88828901613cae565b9450506040613d0f888289016137a5565b9350506060613d20888289016137a5565b9250506080613d31888289016137a5565b9150509295509295909350565b613d4781613784565b82525050565b7f4e487b7100000000000000000000000000000000000000000000000000000000600052602160045260246000fd5b60048110613d8d57613d8c613d4d565b5b50565b6000819050613d9e82613d7c565b919050565b6000613dae82613d90565b9050919050565b613dbe81613da3565b82525050565b600060e082019050613dd9600083018a613d3e565b8181036020830152613deb8189613942565b9050613dfa6040830188613c48565b613e076060830187613d3e565b613e146080830186613db5565b81810360a0830152613e268185613942565b9050613e3560c0830184613d3e565b98975050505050505050565b600060208284031215613e5757613e5661377a565b5b6000613e6584828501613cae565b91505092915050565b7f5265656e7472616e637947756172643a207265656e7472616e742063616c6c00600082015250565b6000613ea4601f836138ed565b9150613eaf82613e6e565b602082019050919050565b60006020820190508181036000830152613ed381613e97565b9050919050565b7f43616c6c65722063616e6e6f74206265206120736d61727420636f6e7472616360008201527f7400000000000000000000000000000000000000000000000000000000000000602082015250565b6000613f366021836138ed565b9150613f4182613eda565b604082019050919050565b60006020820190508181036000830152613f6581613f29565b9050919050565b6000602082019050613f816000830184613d3e565b92915050565b613f908161386c565b8114613f9b57600080fd5b50565b600081519050613fad81613f87565b92915050565b600060208284031215613fc957613fc861377a565b5b6000613fd784828501613f9e565b91505092915050565b7f60746f6b656e49646020646f6573206e6f742065786973740000000000000000600082015250565b60006140166018836138ed565b915061402182613fe0565b602082019050919050565b6000602082019050818103600083015261404581614009565b9050919050565b60008151905061405b81613c97565b92915050565b6000602082840312156140775761407661377a565b5b60006140858482850161404c565b91505092915050565b7f4e6f7420746865206f776e6572206f6620746869732060746f6b656e49646000600082015250565b60006140c4601f836138ed565b91506140cf8261408e565b602082019050919050565b600060208201905081810360008301526140f3816140b7565b9050919050565b7f4e6f7420617070726f7665642c20796f75206d7573742063616c6c2060746f6b60008201527f656e2e617070726f766528296000000000000000000000000000000000000000602082015250565b6000614156602d836138ed565b9150614161826140fa565b604082019050919050565b6000602082019050818103600083015261418581614149565b9050919050565b7f60756e6c6f636b54696d6560206e6f7420657870697265640000000000000000600082015250565b60006141c26018836138ed565b91506141cd8261418c565b602082019050919050565b600060208201905081810360008301526141f1816141b5565b9050919050565b6000815190506142078161378e565b92915050565b6000602082840312156142235761422261377a565b5b6000614231848285016141f8565b91505092915050565b7f4163636f756e7420686173206e6f2062616c616e636500000000000000000000600082015250565b60006142706016836138ed565b915061427b8261423a565b602082019050919050565b6000602082019050818103600083015261429f81614263565b9050919050565b6000819050919050565b6000819050919050565b60006142d56142d06142cb846142a6565b6142b0565b613784565b9050919050565b6142e5816142ba565b82525050565b60006040820190506143006000830185613d3e565b61430d60208301846142dc565b9392505050565b60008151905061432381613c72565b92915050565b60006020828403121561433f5761433e61377a565b5b600061434d84828501614314565b91505092915050565b60006143618261399d565b9050919050565b61437181614356565b82525050565b600060a08201905061438c6000830188613db5565b6143996020830187613c48565b6143a66040830186614368565b6143b36060830185613d3e565b6143c06080830184613d3e565b9695505050505050565b60006080820190506143df6000830187613d3e565b6143ec6020830186613c48565b6143f96040830185613d3e565b6144066060830184613db5565b95945050505050565b7f4e65772060756e6c6f636b54696d6560206d757374206265203e20746865206560008201527f78697374696e672060756e6c6f636b54696d6560000000000000000000000000602082015250565b600061446b6034836138ed565b91506144768261440f565b604082019050919050565b6000602082019050818103600083015261449a8161445e565b9050919050565b60006040820190506144b66000830185613d3e565b6144c36020830184613d3e565b9392505050565b600060a0820190506144df6000830188613d3e565b6144ec6020830187613c48565b6144f96040830186613d3e565b6145066060830185613db5565b6145136080830184613d3e565b9695505050505050565b7f4f776e61626c653a2063616c6c6572206973206e6f7420746865206f776e6572600082015250565b60006145536020836138ed565b915061455e8261451d565b602082019050919050565b6000602082019050818103600083015261458281614546565b9050919050565b600060408201905061459e6000830185613c48565b6145ab6020830184613d3e565b9392505050565b60006145cd6145c86145c38461399d565b6142b0565b61399d565b9050919050565b60006145df826145b2565b9050919050565b60006145f1826145d4565b9050919050565b614601816145e6565b82525050565b600082825260208201905092915050565b50565b6000614628600083614607565b915061463382614618565b600082019050919050565b600060a0820190506146536000830187613c48565b61466060208301866145f8565b61466d6040830185613d3e565b61467a6060830184613d3e565b818103608083015261468b8161461b565b905095945050505050565b60006060820190506146ab6000830186613c48565b6146b860208301856145f8565b6146c56040830184613d3e565b949350505050565b82818337600083830152505050565b60006146e883856138ed565b93506146f58385846146cd565b6146fe83613931565b840190509392505050565b600060208201905081810360008301526147248184866146dc565b90509392505050565b60006040820190506147426000830186613d3e565b81810360208301526147558184866146dc565b9050949350505050565b7f60746f6b656e5479706560206d75737420726570726573656e7420612073757060008201527f706f7274656420746f6b656e3a203120666f7220455243313135352c2032206660208201527f6f722045524332302c206f72203320666f722045524337323100000000000000604082015250565b60006147e16059836138ed565b91506147ec8261475f565b606082019050919050565b60006020820190508181036000830152614810816147d4565b9050919050565b7f60756e6c6f636b54696d6560206d75737420626520696e20746865206675747560008201527f7265000000000000000000000000000000000000000000000000000000000000602082015250565b60006148736022836138ed565b915061487e82614817565b604082019050919050565b600060208201905081810360008301526148a281614866565b9050919050565b600080fd5b7f4e487b7100000000000000000000000000000000000000000000000000000000600052604160045260246000fd5b6148e682613931565b810181811067ffffffffffffffff82111715614905576149046148ae565b5b80604052505050565b6000614918613770565b905061492482826148dd565b919050565b600067ffffffffffffffff821115614944576149436148ae565b5b61494d82613931565b9050602081019050919050565b600061496d61496884614929565b61490e565b905082815260208101848484011115614989576149886148a9565b5b6149948482856138fe565b509392505050565b600082601f8301126149b1576149b0613acb565b5b81516149c184826020860161495a565b91505092915050565b600080600080600080600060e0888a0312156149e9576149e861377a565b5b60006149f78a828b016141f8565b975050602088015167ffffffffffffffff811115614a1857614a1761377f565b5b614a248a828b0161499c565b9650506040614a358a828b0161404c565b9550506060614a468a828b016141f8565b9450506080614a578a828b01614314565b93505060a088015167ffffffffffffffff811115614a7857614a7761377f565b5b614a848a828b0161499c565b92505060c0614a958a828b016141f8565b91505092959891949750929550565b7f4f776e61626c653a206e6577206f776e657220697320746865207a65726f206160008201527f6464726573730000000000000000000000000000000000000000000000000000602082015250565b6000614b006026836138ed565b9150614b0b82614aa4565b604082019050919050565b60006020820190508181036000830152614b2f81614af3565b9050919050565b7f60616d6f756e7460206d757374206265203e2030000000000000000000000000600082015250565b6000614b6c6014836138ed565b9150614b7782614b36565b602082019050919050565b60006020820190508181036000830152614b9b81614b5f565b9050919050565b7f60616d6f756e7460206d757374206265203c3d20746f74616c20746f6b656e2060008201527f62616c616e636500000000000000000000000000000000000000000000000000602082015250565b6000614bfe6027836138ed565b9150614c0982614ba2565b604082019050919050565b60006020820190508181036000830152614c2d81614bf1565b9050919050565b6000604082019050614c496000830185613c48565b614c566020830184613c48565b9392505050565b7f4e6f7420617070726f7665642c20796f75206d7573742063616c6c2060746f6b60008201527f656e2e736574417070726f76616c466f72416c6c282960000000000000000000602082015250565b6000614cb96037836138ed565b9150614cc482614c5d565b604082019050919050565b60006020820190508181036000830152614ce881614cac565b9050919050565b600060208284031215614d0557614d0461377a565b5b600082015167ffffffffffffffff811115614d2357614d2261377f565b5b614d2f8482850161499c565b91505092915050565b6000606082019050614d4d6000830186614368565b614d5a6020830185613d3e565b8181036040830152614d6c8184613942565b9050949350505050565b600060a082019050614d8b6000830188613d3e565b614d986020830187613c48565b614da560408301866142dc565b614db26060830185613db5565b614dbf6080830184613d3e565b9695505050505050565b7f60746f6b656e496460206e6f74206f776e65642062792063616c6c6572000000600082015250565b6000614dff601d836138ed565b9150614e0a82614dc9565b602082019050919050565b60006020820190508181036000830152614e2e81614df2565b9050919050565b6000819050919050565b6000614e5a614e55614e5084614e35565b6142b0565b613784565b9050919050565b614e6a81614e3f565b82525050565b600060a082019050614e856000830188614e61565b614e926020830187613c48565b614e9f6040830186613d3e565b614eac6060830185613db5565b614eb96080830184613d3e565b9695505050505050565b7f5361666545524332303a204552433230206f7065726174696f6e20646964206e60008201527f6f74207375636365656400000000000000000000000000000000000000000000602082015250565b6000614f1f602a836138ed565b9150614f2a82614ec3565b604082019050919050565b60006020820190508181036000830152614f4e81614f12565b9050919050565b600060c082019050614f6a6000830189613d3e565b614f776020830188613d3e565b614f846040830187613c48565b614f916060830186613d3e565b614f9e6080830185613db5565b614fab60a0830184613d3e565b979650505050505050565b6000606082019050614fcb6000830186613c48565b614fd86020830185613c48565b614fe56040830184613d3e565b949350505050565b7f416464726573733a20696e73756666696369656e742062616c616e636520666f60008201527f722063616c6c0000000000000000000000000000000000000000000000000000602082015250565b60006150496026836138ed565b915061505482614fed565b604082019050919050565b600060208201905081810360008301526150788161503c565b9050919050565b7f416464726573733a2063616c6c20746f206e6f6e2d636f6e7472616374000000600082015250565b60006150b5601d836138ed565b91506150c08261507f565b602082019050919050565b600060208201905081810360008301526150e4816150a8565b9050919050565b600081519050919050565b600081905092915050565b600061510c826150eb565b61511681856150f6565b93506151268185602086016138fe565b80840191505092915050565b600061513e8284615101565b91508190509291505056fe5477696c6967687420537061726b6c6520697320746865206375746573742c20736d6172746573742c20616c6c2061726f756e64206265737420706f6e7921a26469706673582212200df035b7a98ce21e5aad0803d1dcb2c249b1356072d35db4a0175ac4fe362a9164736f6c634300080a003360806040523480156200001157600080fd5b5062000032620000266200003860201b60201c565b6200004060201b60201c565b62000104565b600033905090565b60008060009054906101000a900473ffffffffffffffffffffffffffffffffffffffff169050816000806101000a81548173ffffffffffffffffffffffffffffffffffffffff021916908373ffffffffffffffffffffffffffffffffffffffff1602179055508173ffffffffffffffffffffffffffffffffffffffff168173ffffffffffffffffffffffffffffffffffffffff167f8be0079c531659141344cd1fd0a4f28419497f9722a3daafe3b4186f6b6457e060405160405180910390a35050565b613e7880620001146000396000f3fe60806040526004361061012a5760003560e01c806372abc8b7116100ab578063a07e51991161006f578063a07e5199146103e1578063a574cea41461041e578063b21536e61461045b578063ce88b14514610498578063eafcfb99146104db578063f2fde38b146105045761012a565b806372abc8b7146102c257806376aed2e1146102ff5780638ad913451461033c5780638da5cb5b146103795780639980ec86146103a45761012a565b8063404ff5cd116100f2578063404ff5cd14610226578063460e7da71461024f578063540b6ab11461027857806364e71924146102a1578063715018a6146102ab5761012a565b806301ffc9a71461012f57806314ff5ea31461016c57806317e4c78c146101a957806319511a7a146101d25780632099de41146101fd575b600080fd5b34801561013b57600080fd5b50610156600480360381019061015191906128a7565b61052d565b60405161016391906128ef565b60405180910390f35b34801561017857600080fd5b50610193600480360381019061018e9190612940565b6106df565b6040516101a0919061297c565b60405180910390f35b3480156101b557600080fd5b506101d060048036038101906101cb9190612997565b6106ff565b005b3480156101de57600080fd5b506101e761079a565b6040516101f49190612a70565b60405180910390f35b34801561020957600080fd5b50610224600480360381019061021f9190612b02565b6107ba565b005b34801561023257600080fd5b5061024d60048036038101906102489190612b93565b61092c565b005b34801561025b57600080fd5b5061027660048036038101906102719190612c5e565b610e2b565b005b34801561028457600080fd5b5061029f600480360381019061029a9190612cdc565b610f21565b005b6102a961104b565b005b3480156102b757600080fd5b506102c0611117565b005b3480156102ce57600080fd5b506102e960048036038101906102e49190612940565b61119f565b6040516102f691906128ef565b60405180910390f35b34801561030b57600080fd5b5061032660048036038101906103219190612940565b6111c2565b6040516103339190612d80565b60405180910390f35b34801561034857600080fd5b50610363600480360381019061035e9190612940565b6111ef565b6040516103709190612a70565b60405180910390f35b34801561038557600080fd5b5061038e611297565b60405161039b9190612daa565b60405180910390f35b3480156103b057600080fd5b506103cb60048036038101906103c69190612940565b6112c0565b6040516103d8919061297c565b60405180910390f35b3480156103ed57600080fd5b5061040860048036038101906104039190612940565b6112e0565b6040516104159190612daa565b60405180910390f35b34801561042a57600080fd5b5061044560048036038101906104409190612940565b611320565b6040516104529190612a70565b60405180910390f35b34801561046757600080fd5b50610482600480360381019061047d9190612940565b6113c8565b60405161048f919061297c565b60405180910390f35b3480156104a457600080fd5b506104bf60048036038101906104ba9190612940565b6113e8565b6040516104d29796959493929190612dc5565b60405180910390f35b3480156104e757600080fd5b5061050260048036038101906104fd9190612997565b6115f2565b005b34801561051057600080fd5b5061052b60048036038101906105269190612e42565b61168d565b005b60007f19511a7a000000000000000000000000000000000000000000000000000000007bffffffffffffffffffffffffffffffffffffffffffffffffffffffff1916827bffffffffffffffffffffffffffffffffffffffffffffffffffffffff191614806105f857507f0e083076000000000000000000000000000000000000000000000000000000007bffffffffffffffffffffffffffffffffffffffffffffffffffffffff1916827bffffffffffffffffffffffffffffffffffffffffffffffffffffffff1916145b8061066057507f64e71924000000000000000000000000000000000000000000000000000000007bffffffffffffffffffffffffffffffffffffffffffffffffffffffff1916827bffffffffffffffffffffffffffffffffffffffffffffffffffffffff1916145b806106c857507f329cc957000000000000000000000000000000000000000000000000000000007bffffffffffffffffffffffffffffffffffffffffffffffffffffffff1916827bffffffffffffffffffffffffffffffffffffffffffffffffffffffff1916145b806106d857506106d782611785565b5b9050919050565b600060016000838152602001908152602001600020600301549050919050565b6107076117ef565b73ffffffffffffffffffffffffffffffffffffffff16610725611297565b73ffffffffffffffffffffffffffffffffffffffff161461077b576040517f08c379a000000000000000000000000000000000000000000000000000000000815260040161077290612ebb565b60405180910390fd5b8060016000848152602001908152602001600020600001819055505050565b60606040518060600160405280603f8152602001613dca603f9139905090565b6107c26117ef565b73ffffffffffffffffffffffffffffffffffffffff166107e0611297565b73ffffffffffffffffffffffffffffffffffffffff1614610836576040517f08c379a000000000000000000000000000000000000000000000000000000000815260040161082d90612ebb565b60405180910390fd5b8173ffffffffffffffffffffffffffffffffffffffff1663f242432a3061085b611297565b848673ffffffffffffffffffffffffffffffffffffffff1662fdd58e30886040518363ffffffff1660e01b8152600401610896929190612edb565b602060405180830381865afa1580156108b3573d6000803e3d6000fd5b505050506040513d601f19601f820116820180604052508101906108d79190612f19565b6040518563ffffffff1660e01b81526004016108f69493929190612fdc565b600060405180830381600087803b15801561091057600080fd5b505af1158015610924573d6000803e3d6000fd5b505050505050565b6109346117ef565b73ffffffffffffffffffffffffffffffffffffffff16610952611297565b73ffffffffffffffffffffffffffffffffffffffff16146109a8576040517f08c379a000000000000000000000000000000000000000000000000000000000815260040161099f90612ebb565b60405180910390fd5b81600160038111156109bd576109bc612d09565b5b8160038111156109d0576109cf612d09565b5b1480610a005750600260038111156109eb576109ea612d09565b5b8160038111156109fe576109fd612d09565b5b145b80610a2e5750600380811115610a1957610a18612d09565b5b816003811115610a2c57610a2b612d09565b5b145b610a6d576040517f08c379a0000000000000000000000000000000000000000000000000000000008152600401610a64906130cc565b60405180910390fd5b60008611610ab0576040517f08c379a0000000000000000000000000000000000000000000000000000000008152600401610aa790613138565b60405180910390fd5b600380811115610ac357610ac2612d09565b5b836003811115610ad657610ad5612d09565b5b141580610ae35750600186145b610b22576040517f08c379a0000000000000000000000000000000000000000000000000000000008152600401610b19906131ca565b60405180910390fd5b60026003811115610b3657610b35612d09565b5b836003811115610b4957610b48612d09565b5b1480610b555750600084115b610b94576040517f08c379a0000000000000000000000000000000000000000000000000000000008152600401610b8b9061325c565b60405180910390fd5b428211610bd6576040517f08c379a0000000000000000000000000000000000000000000000000000000008152600401610bcd906132ee565b60405180910390fd5b600060016000898152602001908152602001600020905086868686868560000160008760020160008960030160008b60040160008d60060160008a919050558991906101000a81548160ff02191690836003811115610c3857610c37612d09565b5b021790555088919050558791906101000a81548173ffffffffffffffffffffffffffffffffffffffff021916908373ffffffffffffffffffffffffffffffffffffffff160217905550869190505550505050506000604051806020016040528060008152509050600082600301541115610cdb57610cb982600301546117f7565b604051602001610cc991906133e2565b60405160208183030381529060405290505b610ce882600001546117f7565b610d2b8360020160009054906101000a900473ffffffffffffffffffffffffffffffffffffffff1673ffffffffffffffffffffffffffffffffffffffff166117f7565b82610d3985600601546117f7565b604051602001610d4c9493929190613699565b604051602081830303815290604052826001019080519060200190610d729291906127a7565b50610e08826001018054610d859061373d565b80601f0160208091040260200160405190810160405280929190818152602001828054610db19061373d565b8015610dfe5780601f10610dd357610100808354040283529160200191610dfe565b820191906000526020600020905b815481529060010190602001808311610de157829003601f168201915b5050505050611958565b826005019080519060200190610e1f9291906127a7565b50505050505050505050565b610e336117ef565b73ffffffffffffffffffffffffffffffffffffffff16610e51611297565b73ffffffffffffffffffffffffffffffffffffffff1614610ea7576040517f08c379a0000000000000000000000000000000000000000000000000000000008152600401610e9e90612ebb565b60405180910390fd5b8173ffffffffffffffffffffffffffffffffffffffff166342842e0e30610ecc611297565b846040518463ffffffff1660e01b8152600401610eeb9392919061376f565b600060405180830381600087803b158015610f0557600080fd5b505af1158015610f19573d6000803e3d6000fd5b505050505050565b610f296117ef565b73ffffffffffffffffffffffffffffffffffffffff16610f47611297565b73ffffffffffffffffffffffffffffffffffffffff1614610f9d576040517f08c379a0000000000000000000000000000000000000000000000000000000008152600401610f9490612ebb565b60405180910390fd5b611048610fa8611297565b8273ffffffffffffffffffffffffffffffffffffffff166370a08231306040518263ffffffff1660e01b8152600401610fe19190612daa565b602060405180830381865afa158015610ffe573d6000803e3d6000fd5b505050506040513d601f19601f820116820180604052508101906110229190612f19565b8373ffffffffffffffffffffffffffffffffffffffff16611b119092919063ffffffff16565b50565b6110536117ef565b73ffffffffffffffffffffffffffffffffffffffff16611071611297565b73ffffffffffffffffffffffffffffffffffffffff16146110c7576040517f08c379a00000000000000000000000000000000000000000000000000000000081526004016110be90612ebb565b60405180910390fd5b6110cf611297565b73ffffffffffffffffffffffffffffffffffffffff166108fc479081150290604051600060405180830381858888f19350505050158015611114573d6000803e3d6000fd5b50565b61111f6117ef565b73ffffffffffffffffffffffffffffffffffffffff1661113d611297565b73ffffffffffffffffffffffffffffffffffffffff1614611193576040517f08c379a000000000000000000000000000000000000000000000000000000000815260040161118a90612ebb565b60405180910390fd5b61119d6000611b97565b565b600042600160008481526020019081526020016000206006015411159050919050565b60006001600083815260200190815260200160002060040160009054906101000a900460ff169050919050565b60606001600083815260200190815260200160002060050180546112129061373d565b80601f016020809104026020016040519081016040528092919081815260200182805461123e9061373d565b801561128b5780601f106112605761010080835404028352916020019161128b565b820191906000526020600020905b81548152906001019060200180831161126e57829003601f168201915b50505050509050919050565b60008060009054906101000a900473ffffffffffffffffffffffffffffffffffffffff16905090565b600060016000838152602001908152602001600020600001549050919050565b60006001600083815260200190815260200160002060020160009054906101000a900473ffffffffffffffffffffffffffffffffffffffff169050919050565b60606001600083815260200190815260200160002060010180546113439061373d565b80601f016020809104026020016040519081016040528092919081815260200182805461136f9061373d565b80156113bc5780601f10611391576101008083540402835291602001916113bc565b820191906000526020600020905b81548152906001019060200180831161139f57829003601f168201915b50505050509050919050565b600060016000838152602001908152602001600020600601549050919050565b600060606000806000606060006001600089815260200190815260200160002060000154600160008a8152602001908152602001600020600101600160008b815260200190815260200160002060020160009054906101000a900473ffffffffffffffffffffffffffffffffffffffff16600160008c815260200190815260200160002060030154600160008d815260200190815260200160002060040160009054906101000a900460ff16600160008e8152602001908152602001600020600501600160008f8152602001908152602001600020600601548580546114cd9061373d565b80601f01602080910402602001604051908101604052809291908181526020018280546114f99061373d565b80156115465780601f1061151b57610100808354040283529160200191611546565b820191906000526020600020905b81548152906001019060200180831161152957829003601f168201915b505050505095508180546115599061373d565b80601f01602080910402602001604051908101604052809291908181526020018280546115859061373d565b80156115d25780601f106115a7576101008083540402835291602001916115d2565b820191906000526020600020905b8154815290600101906020018083116115b557829003601f168201915b505050505091509650965096509650965096509650919395979092949650565b6115fa6117ef565b73ffffffffffffffffffffffffffffffffffffffff16611618611297565b73ffffffffffffffffffffffffffffffffffffffff161461166e576040517f08c379a000000000000000000000000000000000000000000000000000000000815260040161166590612ebb565b60405180910390fd5b8060016000848152602001908152602001600020600601819055505050565b6116956117ef565b73ffffffffffffffffffffffffffffffffffffffff166116b3611297565b73ffffffffffffffffffffffffffffffffffffffff1614611709576040517f08c379a000000000000000000000000000000000000000000000000000000000815260040161170090612ebb565b60405180910390fd5b600073ffffffffffffffffffffffffffffffffffffffff168173ffffffffffffffffffffffffffffffffffffffff161415611779576040517f08c379a000000000000000000000000000000000000000000000000000000000815260040161177090613818565b60405180910390fd5b61178281611b97565b50565b60007f01ffc9a7000000000000000000000000000000000000000000000000000000007bffffffffffffffffffffffffffffffffffffffffffffffffffffffff1916827bffffffffffffffffffffffffffffffffffffffffffffffffffffffff1916149050919050565b600033905090565b6060600082141561183f576040518060400160405280600181526020017f30000000000000000000000000000000000000000000000000000000000000008152509050611953565b600082905060005b6000821461187157808061185a90613867565b915050600a8261186a91906138df565b9150611847565b60008167ffffffffffffffff81111561188d5761188c613910565b5b6040519080825280601f01601f1916602001820160405280156118bf5781602001600182028036833780820191505090505b5090505b6000851461194c576001826118d8919061393f565b9150600a856118e79190613973565b60306118f391906139a4565b60f81b818381518110611909576119086139fa565b5b60200101907effffffffffffffffffffffffffffffffffffffffffffffffffffffffffffff1916908160001a905350600a8561194591906138df565b94506118c3565b8093505050505b919050565b60606000829050600061196b8251611c5b565b9050600061199d825160026119809190613a29565b6004855161198e91906139a4565b61199891906139a4565b611c5b565b9050611b07611b026040518060400160405280600281526020017f1220000000000000000000000000000000000000000000000000000000000000815250611afd60026040518060400160405280600181526020017f0a00000000000000000000000000000000000000000000000000000000000000815250866040518060400160405280600381526020017f0802120000000000000000000000000000000000000000000000000000000000815250898b6040518060400160405280600181526020017f18000000000000000000000000000000000000000000000000000000000000008152508c604051602001611a9c9796959493929190613aca565b604051602081830303815290604052604051611ab89190613b2f565b602060405180830381855afa158015611ad5573d6000803e3d6000fd5b5050506040513d601f19601f82011682018060405250810190611af89190613b7c565b611cbb565b611d9a565b611f19565b9350505050919050565b611b928363a9059cbb60e01b8484604051602401611b30929190612edb565b604051602081830303815290604052907bffffffffffffffffffffffffffffffffffffffffffffffffffffffff19166020820180517bffffffffffffffffffffffffffffffffffffffffffffffffffffffff8381831617835250505050612161565b505050565b60008060009054906101000a900473ffffffffffffffffffffffffffffffffffffffff169050816000806101000a81548173ffffffffffffffffffffffffffffffffffffffff021916908373ffffffffffffffffffffffffffffffffffffffff1602179055508173ffffffffffffffffffffffffffffffffffffffff168173ffffffffffffffffffffffffffffffffffffffff167f8be0079c531659141344cd1fd0a4f28419497f9722a3daafe3b4186f6b6457e060405160405180910390a35050565b60606080821015611c7657611c6f82612228565b9050611cb6565b611cb3611c9960808085611c8a9190613973565b611c9491906139a4565b612228565b611cae608085611ca991906138df565b612228565b611d9a565b90505b919050565b60606000602067ffffffffffffffff811115611cda57611cd9613910565b5b6040519080825280601f01601f191660200182016040528015611d0c5781602001600182028036833780820191505090505b50905060005b60208160ff161015611d9057838160ff1660208110611d3457611d336139fa565b5b1a60f81b828260ff1681518110611d4e57611d4d6139fa565b5b60200101907effffffffffffffffffffffffffffffffffffffffffffffffffffffffffffff1916908160001a9053508080611d8890613bb6565b915050611d12565b5080915050919050565b6060600082518451611dac91906139a4565b67ffffffffffffffff811115611dc557611dc4613910565b5b6040519080825280601f01601f191660200182016040528015611df75781602001600182028036833780820191505090505b50905060005b8451811015611e7957848181518110611e1957611e186139fa565b5b602001015160f81c60f81b828281518110611e3757611e366139fa565b5b60200101907effffffffffffffffffffffffffffffffffffffffffffffffffffffffffffff1916908160001a9053508080611e7190613867565b915050611dfd565b5b83518551611e8891906139a4565b811015611f0e5783855182611e9d919061393f565b81518110611eae57611ead6139fa565b5b602001015160f81c60f81b828281518110611ecc57611ecb6139fa565b5b60200101907effffffffffffffffffffffffffffffffffffffffffffffffffffffffffffff1916908160001a9053508080611f0690613867565b915050611e7a565b819250505092915050565b6060600082511415611f7a57600067ffffffffffffffff811115611f4057611f3f613910565b5b6040519080825280601f01601f191660200182016040528015611f725781602001600182028036833780820191505090505b50905061215c565b6000604067ffffffffffffffff811115611f9757611f96613910565b5b604051908082528060200260200182016040528015611fc55781602001602082028036833780820191505090505b509050600081600081518110611fde57611fdd6139fa565b5b602002602001019060ff16908160ff168152505060006001905060005b845181101561213c576000858281518110612019576120186139fa565b5b602001015160f81c60f81b60f81c60ff16905060005b8360ff168110156120c6576101008582815181106120505761204f6139fa565b5b602002602001015160ff166120659190613a29565b8261207091906139a4565b9150603a8261207f9190613973565b858281518110612092576120916139fa565b5b602002602001019060ff16908160ff1681525050603a826120b391906138df565b9150806120bf90613867565b905061202f565b505b600081111561212a57603a816120de9190613973565b848460ff16815181106120f4576120f36139fa565b5b602002602001019060ff16908160ff1681525050828061211390613bb6565b935050603a8161212391906138df565b90506120c8565b508061213590613867565b9050611ffb565b5061215761215261214d848461235c565b61241c565b6124ef565b925050505b919050565b60006121c3826040518060400160405280602081526020017f5361666545524332303a206c6f772d6c6576656c2063616c6c206661696c65648152508573ffffffffffffffffffffffffffffffffffffffff166126019092919063ffffffff16565b905060008151111561222357808060200190518101906121e39190613c0c565b612222576040517f08c379a000000000000000000000000000000000000000000000000000000000815260040161221990613cab565b60405180910390fd5b5b505050565b6060600082141561228857600067ffffffffffffffff81111561224e5761224d613910565b5b6040519080825280601f01601f1916602001820160405280156122805781602001600182028036833780820191505090505b509050612357565b6000610100836122989190613973565b60f81b90506000600167ffffffffffffffff8111156122ba576122b9613910565b5b6040519080825280601f01601f1916602001820160405280156122ec5781602001600182028036833780820191505090505b5090508181600081518110612304576123036139fa565b5b60200101907effffffffffffffffffffffffffffffffffffffffffffffffffffffffffffff1916908160001a90535061235261234c6101008661234791906138df565b612228565b82611d9a565b925050505b919050565b606060008260ff1667ffffffffffffffff81111561237d5761237c613910565b5b6040519080825280602002602001820160405280156123ab5781602001602082028036833780820191505090505b50905060005b8360ff16811015612411578481815181106123cf576123ce6139fa565b5b60200260200101518282815181106123ea576123e96139fa565b5b602002602001019060ff16908160ff1681525050808061240990613867565b9150506123b1565b508091505092915050565b60606000825167ffffffffffffffff81111561243b5761243a613910565b5b6040519080825280602002602001820160405280156124695781602001602082028036833780820191505090505b50905060005b83518110156124e557838160018651612488919061393f565b612492919061393f565b815181106124a3576124a26139fa565b5b60200260200101518282815181106124be576124bd6139fa565b5b602002602001019060ff16908160ff168152505080806124dd90613867565b91505061246f565b5080915050919050565b60606000825167ffffffffffffffff81111561250e5761250d613910565b5b6040519080825280601f01601f1916602001820160405280156125405781602001600182028036833780820191505090505b50905060005b83518110156125f7576040518060600160405280603a8152602001613e09603a913984828151811061257b5761257a6139fa565b5b602002602001015160ff1681518110612597576125966139fa565b5b602001015160f81c60f81b8282815181106125b5576125b46139fa565b5b60200101907effffffffffffffffffffffffffffffffffffffffffffffffffffffffffffff1916908160001a90535080806125ef90613867565b915050612546565b5080915050919050565b60606126108484600085612619565b90509392505050565b60608247101561265e576040517f08c379a000000000000000000000000000000000000000000000000000000000815260040161265590613d3d565b60405180910390fd5b6126678561272d565b6126a6576040517f08c379a000000000000000000000000000000000000000000000000000000000815260040161269d90613da9565b60405180910390fd5b6000808673ffffffffffffffffffffffffffffffffffffffff1685876040516126cf9190613b2f565b60006040518083038185875af1925050503d806000811461270c576040519150601f19603f3d011682016040523d82523d6000602084013e612711565b606091505b5091509150612721828286612740565b92505050949350505050565b600080823b905060008111915050919050565b60608315612750578290506127a0565b6000835111156127635782518084602001fd5b816040517f08c379a00000000000000000000000000000000000000000000000000000000081526004016127979190612a70565b60405180910390fd5b9392505050565b8280546127b39061373d565b90600052602060002090601f0160209004810192826127d5576000855561281c565b82601f106127ee57805160ff191683800117855561281c565b8280016001018555821561281c579182015b8281111561281b578251825591602001919060010190612800565b5b509050612829919061282d565b5090565b5b8082111561284657600081600090555060010161282e565b5090565b600080fd5b60007fffffffff0000000000000000000000000000000000000000000000000000000082169050919050565b6128848161284f565b811461288f57600080fd5b50565b6000813590506128a18161287b565b92915050565b6000602082840312156128bd576128bc61284a565b5b60006128cb84828501612892565b91505092915050565b60008115159050919050565b6128e9816128d4565b82525050565b600060208201905061290460008301846128e0565b92915050565b6000819050919050565b61291d8161290a565b811461292857600080fd5b50565b60008135905061293a81612914565b92915050565b6000602082840312156129565761295561284a565b5b60006129648482850161292b565b91505092915050565b6129768161290a565b82525050565b6000602082019050612991600083018461296d565b92915050565b600080604083850312156129ae576129ad61284a565b5b60006129bc8582860161292b565b92505060206129cd8582860161292b565b9150509250929050565b600081519050919050565b600082825260208201905092915050565b60005b83811015612a115780820151818401526020810190506129f6565b83811115612a20576000848401525b50505050565b6000601f19601f8301169050919050565b6000612a42826129d7565b612a4c81856129e2565b9350612a5c8185602086016129f3565b612a6581612a26565b840191505092915050565b60006020820190508181036000830152612a8a8184612a37565b905092915050565b600073ffffffffffffffffffffffffffffffffffffffff82169050919050565b6000612abd82612a92565b9050919050565b6000612acf82612ab2565b9050919050565b612adf81612ac4565b8114612aea57600080fd5b50565b600081359050612afc81612ad6565b92915050565b60008060408385031215612b1957612b1861284a565b5b6000612b2785828601612aed565b9250506020612b388582860161292b565b9150509250929050565b612b4b81612ab2565b8114612b5657600080fd5b50565b600081359050612b6881612b42565b92915050565b60048110612b7b57600080fd5b50565b600081359050612b8d81612b6e565b92915050565b60008060008060008060c08789031215612bb057612baf61284a565b5b6000612bbe89828a0161292b565b9650506020612bcf89828a0161292b565b9550506040612be089828a01612b59565b9450506060612bf189828a0161292b565b9350506080612c0289828a01612b7e565b92505060a0612c1389828a0161292b565b9150509295509295509295565b6000612c2b82612ab2565b9050919050565b612c3b81612c20565b8114612c4657600080fd5b50565b600081359050612c5881612c32565b92915050565b60008060408385031215612c7557612c7461284a565b5b6000612c8385828601612c49565b9250506020612c948582860161292b565b9150509250929050565b6000612ca982612ab2565b9050919050565b612cb981612c9e565b8114612cc457600080fd5b50565b600081359050612cd681612cb0565b92915050565b600060208284031215612cf257612cf161284a565b5b6000612d0084828501612cc7565b91505092915050565b7f4e487b7100000000000000000000000000000000000000000000000000000000600052602160045260246000fd5b60048110612d4957612d48612d09565b5b50565b6000819050612d5a82612d38565b919050565b6000612d6a82612d4c565b9050919050565b612d7a81612d5f565b82525050565b6000602082019050612d956000830184612d71565b92915050565b612da481612ab2565b82525050565b6000602082019050612dbf6000830184612d9b565b92915050565b600060e082019050612dda600083018a61296d565b8181036020830152612dec8189612a37565b9050612dfb6040830188612d9b565b612e08606083018761296d565b612e156080830186612d71565b81810360a0830152612e278185612a37565b9050612e3660c083018461296d565b98975050505050505050565b600060208284031215612e5857612e5761284a565b5b6000612e6684828501612b59565b91505092915050565b7f4f776e61626c653a2063616c6c6572206973206e6f7420746865206f776e6572600082015250565b6000612ea56020836129e2565b9150612eb082612e6f565b602082019050919050565b60006020820190508181036000830152612ed481612e98565b9050919050565b6000604082019050612ef06000830185612d9b565b612efd602083018461296d565b9392505050565b600081519050612f1381612914565b92915050565b600060208284031215612f2f57612f2e61284a565b5b6000612f3d84828501612f04565b91505092915050565b6000819050919050565b6000612f6b612f66612f6184612a92565b612f46565b612a92565b9050919050565b6000612f7d82612f50565b9050919050565b6000612f8f82612f72565b9050919050565b612f9f81612f84565b82525050565b600082825260208201905092915050565b50565b6000612fc6600083612fa5565b9150612fd182612fb6565b600082019050919050565b600060a082019050612ff16000830187612d9b565b612ffe6020830186612f96565b61300b604083018561296d565b613018606083018461296d565b818103608083015261302981612fb9565b905095945050505050565b7f60746f6b656e5479706560206d75737420726570726573656e7420612073757060008201527f706f7274656420746f6b656e3a203120666f7220455243313135352c2032206660208201527f6f722045524332302c206f72203320666f722045524337323100000000000000604082015250565b60006130b66059836129e2565b91506130c182613034565b606082019050919050565b600060208201905081810360008301526130e5816130a9565b9050919050565b7f60616d6f756e7460206d7573742062652067726561746572207468616e203000600082015250565b6000613122601f836129e2565b915061312d826130ec565b602082019050919050565b6000602082019050818103600083015261315181613115565b9050919050565b7f60616d6f756e7460206d757374206265203120666f722045524337323120746f60008201527f6b656e7300000000000000000000000000000000000000000000000000000000602082015250565b60006131b46024836129e2565b91506131bf82613158565b604082019050919050565b600060208201905081810360008301526131e3816131a7565b9050919050565b7f60746f6b656e496460206d7573742062652073706563696669656420666f722060008201527f455243373231206f72204552433131353520746f6b656e730000000000000000602082015250565b60006132466038836129e2565b9150613251826131ea565b604082019050919050565b6000602082019050818103600083015261327581613239565b9050919050565b7f60756e6c6f636b54696d6560206d75737420626520696e20746865206675747560008201527f7265000000000000000000000000000000000000000000000000000000000000602082015250565b60006132d86022836129e2565b91506132e38261327c565b604082019050919050565b60006020820190508181036000830152613307816132cb565b9050919050565b600081905092915050565b7f22746f6b656e4964223a22000000000000000000000000000000000000000000600082015250565b600061334f600b8361330e565b915061335a82613319565b600b82019050919050565b6000613370826129d7565b61337a818561330e565b935061338a8185602086016129f3565b80840191505092915050565b7f222c000000000000000000000000000000000000000000000000000000000000600082015250565b60006133cc60028361330e565b91506133d782613396565b600282019050919050565b60006133ed82613342565b91506133f98284613365565b9150613404826133bf565b915081905092915050565b7f7b226465736372697074696f6e223a225468697320746f6b656e20656e74697460008201527f6c65732074686520686f6c64657220746f20776974686472617720746865697260208201527f206c6f636b656420746f6b656e287329206166746572207468656972206c6f6360408201527f6b20706572696f6420657870697265732066726f6d20746865204d617265204260608201527f697473204c6f636b65722e222c2265787465726e616c5f75726c223a2268747460808201527f70733a2f2f6d6172652e62697a2f222c22696d616765223a2268747470733a2f60a08201527f2f6d6172652e62697a2f6d617265626974732f69636f6e2d3936302e706e672260c08201527f2c226e616d65223a225c75443833445c75444330455c75323030445c7532363460e08201527f305c75464530465c75443833445c75444431325c75443833455c7544453939226101008201527f2c2270726f70657274696573223a207b22616d6f756e74223a2200000000000061012082015250565b600061359e61013a8361330e565b91506135a98261340f565b61013a82019050919050565b7f222c22746f6b656e436f6e7472616374223a2200000000000000000000000000600082015250565b60006135eb60138361330e565b91506135f6826135b5565b601382019050919050565b7f22756e6c6f636b54696d65223a22000000000000000000000000000000000000600082015250565b6000613637600e8361330e565b915061364282613601565b600e82019050919050565b7f227d7d0000000000000000000000000000000000000000000000000000000000600082015250565b600061368360038361330e565b915061368e8261364d565b600382019050919050565b60006136a482613590565b91506136b08287613365565b91506136bb826135de565b91506136c78286613365565b91506136d2826133bf565b91506136de8285613365565b91506136e98261362a565b91506136f58284613365565b915061370082613676565b915081905095945050505050565b7f4e487b7100000000000000000000000000000000000000000000000000000000600052602260045260246000fd5b6000600282049050600182168061375557607f821691505b602082108114156137695761376861370e565b5b50919050565b60006060820190506137846000830186612d9b565b6137916020830185612f96565b61379e604083018461296d565b949350505050565b7f4f776e61626c653a206e6577206f776e657220697320746865207a65726f206160008201527f6464726573730000000000000000000000000000000000000000000000000000602082015250565b60006138026026836129e2565b915061380d826137a6565b604082019050919050565b60006020820190508181036000830152613831816137f5565b9050919050565b7f4e487b7100000000000000000000000000000000000000000000000000000000600052601160045260246000fd5b60006138728261290a565b91507fffffffffffffffffffffffffffffffffffffffffffffffffffffffffffffffff8214156138a5576138a4613838565b5b600182019050919050565b7f4e487b7100000000000000000000000000000000000000000000000000000000600052601260045260246000fd5b60006138ea8261290a565b91506138f58361290a565b925082613905576139046138b0565b5b828204905092915050565b7f4e487b7100000000000000000000000000000000000000000000000000000000600052604160045260246000fd5b600061394a8261290a565b91506139558361290a565b92508282101561396857613967613838565b5b828203905092915050565b600061397e8261290a565b91506139898361290a565b925082613999576139986138b0565b5b828206905092915050565b60006139af8261290a565b91506139ba8361290a565b9250827fffffffffffffffffffffffffffffffffffffffffffffffffffffffffffffffff038211156139ef576139ee613838565b5b828201905092915050565b7f4e487b7100000000000000000000000000000000000000000000000000000000600052603260045260246000fd5b6000613a348261290a565b9150613a3f8361290a565b9250817fffffffffffffffffffffffffffffffffffffffffffffffffffffffffffffffff0483118215151615613a7857613a77613838565b5b828202905092915050565b600081519050919050565b600081905092915050565b6000613aa482613a83565b613aae8185613a8e565b9350613abe8185602086016129f3565b80840191505092915050565b6000613ad6828a613a99565b9150613ae28289613a99565b9150613aee8288613a99565b9150613afa8287613a99565b9150613b068286613a99565b9150613b128285613a99565b9150613b1e8284613a99565b915081905098975050505050505050565b6000613b3b8284613a99565b915081905092915050565b6000819050919050565b613b5981613b46565b8114613b6457600080fd5b50565b600081519050613b7681613b50565b92915050565b600060208284031215613b9257613b9161284a565b5b6000613ba084828501613b67565b91505092915050565b600060ff82169050919050565b6000613bc182613ba9565b915060ff821415613bd557613bd4613838565b5b600182019050919050565b613be9816128d4565b8114613bf457600080fd5b50565b600081519050613c0681613be0565b92915050565b600060208284031215613c2257613c2161284a565b5b6000613c3084828501613bf7565b91505092915050565b7f5361666545524332303a204552433230206f7065726174696f6e20646964206e60008201527f6f74207375636365656400000000000000000000000000000000000000000000602082015250565b6000613c95602a836129e2565b9150613ca082613c39565b604082019050919050565b60006020820190508181036000830152613cc481613c88565b9050919050565b7f416464726573733a20696e73756666696369656e742062616c616e636520666f60008201527f722063616c6c0000000000000000000000000000000000000000000000000000602082015250565b6000613d276026836129e2565b9150613d3282613ccb565b604082019050919050565b60006020820190508181036000830152613d5681613d1a565b9050919050565b7f416464726573733a2063616c6c20746f206e6f6e2d636f6e7472616374000000600082015250565b6000613d93601d836129e2565b9150613d9e82613d5d565b602082019050919050565b60006020820190508181036000830152613dc281613d86565b905091905056fe5477696c6967687420537061726b6c6520697320746865206375746573742c20736d6172746573742c20616c6c2061726f756e64206265737420706f6e792131323334353637383941424344454647484a4b4c4d4e505152535455565758595a6162636465666768696a6b6d6e6f707172737475767778797aa2646970667358221220257a3bb2c6393875232bb59d3fddeaa262a00c26c962fa77b9fc328b363f654d64736f6c634300080a003360806040523480156200001157600080fd5b5060405162004f6438038062004f648339818101604052810190620000379190620003c8565b8282620000596200004d620000af60201b60201c565b620000b760201b60201c565b8160019080519060200190620000719291906200017b565b5080600290805190602001906200008a9291906200017b565b5050508060089080519060200190620000a59291906200017b565b50505050620004e6565b600033905090565b60008060009054906101000a900473ffffffffffffffffffffffffffffffffffffffff169050816000806101000a81548173ffffffffffffffffffffffffffffffffffffffff021916908373ffffffffffffffffffffffffffffffffffffffff1602179055508173ffffffffffffffffffffffffffffffffffffffff168173ffffffffffffffffffffffffffffffffffffffff167f8be0079c531659141344cd1fd0a4f28419497f9722a3daafe3b4186f6b6457e060405160405180910390a35050565b8280546200018990620004b0565b90600052602060002090601f016020900481019282620001ad5760008555620001f9565b82601f10620001c857805160ff1916838001178555620001f9565b82800160010185558215620001f9579182015b82811115620001f8578251825591602001919060010190620001db565b5b5090506200020891906200020c565b5090565b5b80821115620002275760008160009055506001016200020d565b5090565b6000604051905090565b600080fd5b600080fd5b600080fd5b600080fd5b6000601f19601f8301169050919050565b7f4e487b7100000000000000000000000000000000000000000000000000000000600052604160045260246000fd5b620002948262000249565b810181811067ffffffffffffffff82111715620002b657620002b56200025a565b5b80604052505050565b6000620002cb6200022b565b9050620002d9828262000289565b919050565b600067ffffffffffffffff821115620002fc57620002fb6200025a565b5b620003078262000249565b9050602081019050919050565b60005b838110156200033457808201518184015260208101905062000317565b8381111562000344576000848401525b50505050565b6000620003616200035b84620002de565b620002bf565b90508281526020810184848401111562000380576200037f62000244565b5b6200038d84828562000314565b509392505050565b600082601f830112620003ad57620003ac6200023f565b5b8151620003bf8482602086016200034a565b91505092915050565b600080600060608486031215620003e457620003e362000235565b5b600084015167ffffffffffffffff8111156200040557620004046200023a565b5b620004138682870162000395565b935050602084015167ffffffffffffffff8111156200043757620004366200023a565b5b620004458682870162000395565b925050604084015167ffffffffffffffff8111156200046957620004686200023a565b5b620004778682870162000395565b9150509250925092565b7f4e487b7100000000000000000000000000000000000000000000000000000000600052602260045260246000fd5b60006002820490506001821680620004c957607f821691505b60208210811415620004e057620004df62000481565b5b50919050565b614a6e80620004f66000396000f3fe6080604052600436106101b75760003560e01c806358ee7173116100ec57806395d89b411161008a578063c87b56dd11610064578063c87b56dd146105d1578063d1a015201461060e578063e985e9c514610637578063f2fde38b14610674576101b7565b806395d89b4114610554578063a22cb4651461057f578063b88d4fde146105a8576101b7565b806370a08231116100c657806370a0823114610498578063715018a6146104d55780638553c3e9146104ec5780638da5cb5b14610529576101b7565b806358ee7173146104285780636352211e1461045157806364e719241461048e576101b7565b806342842e0e11610159578063460e7da711610133578063460e7da714610384578063478d8d60146103ad5780634a3b889a146103d6578063540b6ab1146103ff576101b7565b806342842e0e1461030757806342966c68146103305780634538309914610359576101b7565b8063095ea7b311610195578063095ea7b31461026157806319511a7a1461028a5780632099de41146102b557806323b872dd146102de576101b7565b806301ffc9a7146101bc57806306fdde03146101f9578063081812fc14610224575b600080fd5b3480156101c857600080fd5b506101e360048036038101906101de9190612fbe565b61069d565b6040516101f09190613006565b60405180910390f35b34801561020557600080fd5b5061020e61091f565b60405161021b91906130ba565b60405180910390f35b34801561023057600080fd5b5061024b60048036038101906102469190613112565b6109b1565b6040516102589190613180565b60405180910390f35b34801561026d57600080fd5b50610288600480360381019061028391906131c7565b610a36565b005b34801561029657600080fd5b5061029f610b4e565b6040516102ac91906130ba565b60405180910390f35b3480156102c157600080fd5b506102dc60048036038101906102d79190613245565b610b6e565b005b3480156102ea57600080fd5b5061030560048036038101906103009190613285565b610ce0565b005b34801561031357600080fd5b5061032e60048036038101906103299190613285565b610d40565b005b34801561033c57600080fd5b5061035760048036038101906103529190613112565b610d60565b005b34801561036557600080fd5b5061036e610dbc565b60405161037b91906132e7565b60405180910390f35b34801561039057600080fd5b506103ab60048036038101906103a69190613340565b610e53565b005b3480156103b957600080fd5b506103d460048036038101906103cf91906134f3565b610f49565b005b3480156103e257600080fd5b506103fd60048036038101906103f891906135c2565b610fde565b005b34801561040b57600080fd5b506104266004803603810190610421919061364d565b611070565b005b34801561043457600080fd5b5061044f600480360381019061044a919061367a565b61119a565b005b34801561045d57600080fd5b5061047860048036038101906104739190613112565b611269565b6040516104859190613180565b60405180910390f35b61049661131b565b005b3480156104a457600080fd5b506104bf60048036038101906104ba91906136da565b6113e7565b6040516104cc91906132e7565b60405180910390f35b3480156104e157600080fd5b506104ea61149f565b005b3480156104f857600080fd5b50610513600480360381019061050e9190613112565b611527565b6040516105209190613006565b60405180910390f35b34801561053557600080fd5b5061053e6115b5565b60405161054b9190613180565b60405180910390f35b34801561056057600080fd5b506105696115de565b60405161057691906130ba565b60405180910390f35b34801561058b57600080fd5b506105a660048036038101906105a19190613733565b611670565b005b3480156105b457600080fd5b506105cf60048036038101906105ca9190613814565b6117f1565b005b3480156105dd57600080fd5b506105f860048036038101906105f39190613112565b611853565b60405161060591906130ba565b60405180910390f35b34801561061a57600080fd5b5061063560048036038101906106309190613112565b6119a5565b005b34801561064357600080fd5b5061065e60048036038101906106599190613897565b611a2d565b60405161066b9190613006565b60405180910390f35b34801561068057600080fd5b5061069b600480360381019061069691906136da565b611ac1565b005b60007f42966c68000000000000000000000000000000000000000000000000000000007bffffffffffffffffffffffffffffffffffffffffffffffffffffffff1916827bffffffffffffffffffffffffffffffffffffffffffffffffffffffff1916148061076857507f19511a7a000000000000000000000000000000000000000000000000000000007bffffffffffffffffffffffffffffffffffffffffffffffffffffffff1916827bffffffffffffffffffffffffffffffffffffffffffffffffffffffff1916145b806107d057507f0e083076000000000000000000000000000000000000000000000000000000007bffffffffffffffffffffffffffffffffffffffffffffffffffffffff1916827bffffffffffffffffffffffffffffffffffffffffffffffffffffffff1916145b8061083857507f64e71924000000000000000000000000000000000000000000000000000000007bffffffffffffffffffffffffffffffffffffffffffffffffffffffff1916827bffffffffffffffffffffffffffffffffffffffffffffffffffffffff1916145b806108a057507f329cc957000000000000000000000000000000000000000000000000000000007bffffffffffffffffffffffffffffffffffffffffffffffffffffffff1916827bffffffffffffffffffffffffffffffffffffffffffffffffffffffff1916145b8061090857507fc87b56dd000000000000000000000000000000000000000000000000000000007bffffffffffffffffffffffffffffffffffffffffffffffffffffffff1916827bffffffffffffffffffffffffffffffffffffffffffffffffffffffff1916145b80610918575061091782611bb9565b5b9050919050565b60606001805461092e90613906565b80601f016020809104026020016040519081016040528092919081815260200182805461095a90613906565b80156109a75780601f1061097c576101008083540402835291602001916109a7565b820191906000526020600020905b81548152906001019060200180831161098a57829003601f168201915b5050505050905090565b60006109bc82611c9b565b6109fb576040517f08c379a00000000000000000000000000000000000000000000000000000000081526004016109f2906139aa565b60405180910390fd5b6005600083815260200190815260200160002060009054906101000a900473ffffffffffffffffffffffffffffffffffffffff169050919050565b6000610a4182611269565b90508073ffffffffffffffffffffffffffffffffffffffff168373ffffffffffffffffffffffffffffffffffffffff161415610ab2576040517f08c379a0000000000000000000000000000000000000000000000000000000008152600401610aa990613a3c565b60405180910390fd5b8073ffffffffffffffffffffffffffffffffffffffff16610ad1611d07565b73ffffffffffffffffffffffffffffffffffffffff161480610b005750610aff81610afa611d07565b611a2d565b5b610b3f576040517f08c379a0000000000000000000000000000000000000000000000000000000008152600401610b3690613ace565b60405180910390fd5b610b498383611d0f565b505050565b60606040518060600160405280603f81526020016149fa603f9139905090565b610b76611d07565b73ffffffffffffffffffffffffffffffffffffffff16610b946115b5565b73ffffffffffffffffffffffffffffffffffffffff1614610bea576040517f08c379a0000000000000000000000000000000000000000000000000000000008152600401610be190613b3a565b60405180910390fd5b8173ffffffffffffffffffffffffffffffffffffffff1663f242432a30610c0f6115b5565b848673ffffffffffffffffffffffffffffffffffffffff1662fdd58e30886040518363ffffffff1660e01b8152600401610c4a929190613b5a565b602060405180830381865afa158015610c67573d6000803e3d6000fd5b505050506040513d601f19601f82011682018060405250810190610c8b9190613b98565b6040518563ffffffff1660e01b8152600401610caa9493929190613c5b565b600060405180830381600087803b158015610cc457600080fd5b505af1158015610cd8573d6000803e3d6000fd5b505050505050565b610cf1610ceb611d07565b82611dc8565b610d30576040517f08c379a0000000000000000000000000000000000000000000000000000000008152600401610d2790613d25565b60405180910390fd5b610d3b838383611ea6565b505050565b610d5b838383604051806020016040528060008152506117f1565b505050565b610d71610d6b611d07565b82611dc8565b610db0576040517f08c379a0000000000000000000000000000000000000000000000000000000008152600401610da790613d91565b60405180910390fd5b610db981612102565b50565b6000610dc6611d07565b73ffffffffffffffffffffffffffffffffffffffff16610de46115b5565b73ffffffffffffffffffffffffffffffffffffffff1614610e3a576040517f08c379a0000000000000000000000000000000000000000000000000000000008152600401610e3190613b3a565b60405180910390fd5b610e446009612155565b9050610e506009612163565b90565b610e5b611d07565b73ffffffffffffffffffffffffffffffffffffffff16610e796115b5565b73ffffffffffffffffffffffffffffffffffffffff1614610ecf576040517f08c379a0000000000000000000000000000000000000000000000000000000008152600401610ec690613b3a565b60405180910390fd5b8173ffffffffffffffffffffffffffffffffffffffff166342842e0e30610ef46115b5565b846040518463ffffffff1660e01b8152600401610f1393929190613db1565b600060405180830381600087803b158015610f2d57600080fd5b505af1158015610f41573d6000803e3d6000fd5b505050505050565b610f51611d07565b73ffffffffffffffffffffffffffffffffffffffff16610f6f6115b5565b73ffffffffffffffffffffffffffffffffffffffff1614610fc5576040517f08c379a0000000000000000000000000000000000000000000000000000000008152600401610fbc90613b3a565b60405180910390fd5b610fcf8383612179565b610fd98282612197565b505050565b610fe6611d07565b73ffffffffffffffffffffffffffffffffffffffff166110046115b5565b73ffffffffffffffffffffffffffffffffffffffff161461105a576040517f08c379a000000000000000000000000000000000000000000000000000000000815260040161105190613b3a565b60405180910390fd5b81816008919061106b929190612de9565b505050565b611078611d07565b73ffffffffffffffffffffffffffffffffffffffff166110966115b5565b73ffffffffffffffffffffffffffffffffffffffff16146110ec576040517f08c379a00000000000000000000000000000000000000000000000000000000081526004016110e390613b3a565b60405180910390fd5b6111976110f76115b5565b8273ffffffffffffffffffffffffffffffffffffffff166370a08231306040518263ffffffff1660e01b81526004016111309190613180565b602060405180830381865afa15801561114d573d6000803e3d6000fd5b505050506040513d601f19601f820116820180604052508101906111719190613b98565b8373ffffffffffffffffffffffffffffffffffffffff1661220b9092919063ffffffff16565b50565b6111a2611d07565b73ffffffffffffffffffffffffffffffffffffffff166111c06115b5565b73ffffffffffffffffffffffffffffffffffffffff1614611216576040517f08c379a000000000000000000000000000000000000000000000000000000000815260040161120d90613b3a565b60405180910390fd5b6112648383838080601f016020809104026020016040519081016040528093929190818152602001838380828437600081840152601f19601f82011690508083019250505050505050612197565b505050565b6000806003600084815260200190815260200160002060009054906101000a900473ffffffffffffffffffffffffffffffffffffffff169050600073ffffffffffffffffffffffffffffffffffffffff168173ffffffffffffffffffffffffffffffffffffffff161415611312576040517f08c379a000000000000000000000000000000000000000000000000000000000815260040161130990613e5a565b60405180910390fd5b80915050919050565b611323611d07565b73ffffffffffffffffffffffffffffffffffffffff166113416115b5565b73ffffffffffffffffffffffffffffffffffffffff1614611397576040517f08c379a000000000000000000000000000000000000000000000000000000000815260040161138e90613b3a565b60405180910390fd5b61139f6115b5565b73ffffffffffffffffffffffffffffffffffffffff166108fc479081150290604051600060405180830381858888f193505050501580156113e4573d6000803e3d6000fd5b50565b60008073ffffffffffffffffffffffffffffffffffffffff168273ffffffffffffffffffffffffffffffffffffffff161415611458576040517f08c379a000000000000000000000000000000000000000000000000000000000815260040161144f90613eec565b60405180910390fd5b600460008373ffffffffffffffffffffffffffffffffffffffff1673ffffffffffffffffffffffffffffffffffffffff168152602001908152602001600020549050919050565b6114a7611d07565b73ffffffffffffffffffffffffffffffffffffffff166114c56115b5565b73ffffffffffffffffffffffffffffffffffffffff161461151b576040517f08c379a000000000000000000000000000000000000000000000000000000000815260040161151290613b3a565b60405180910390fd5b6115256000612291565b565b6000611531611d07565b73ffffffffffffffffffffffffffffffffffffffff1661154f6115b5565b73ffffffffffffffffffffffffffffffffffffffff16146115a5576040517f08c379a000000000000000000000000000000000000000000000000000000000815260040161159c90613b3a565b60405180910390fd5b6115ae82611c9b565b9050919050565b60008060009054906101000a900473ffffffffffffffffffffffffffffffffffffffff16905090565b6060600280546115ed90613906565b80601f016020809104026020016040519081016040528092919081815260200182805461161990613906565b80156116665780601f1061163b57610100808354040283529160200191611666565b820191906000526020600020905b81548152906001019060200180831161164957829003601f168201915b5050505050905090565b611678611d07565b73ffffffffffffffffffffffffffffffffffffffff168273ffffffffffffffffffffffffffffffffffffffff1614156116e6576040517f08c379a00000000000000000000000000000000000000000000000000000000081526004016116dd90613f58565b60405180910390fd5b80600660006116f3611d07565b73ffffffffffffffffffffffffffffffffffffffff1673ffffffffffffffffffffffffffffffffffffffff16815260200190815260200160002060008473ffffffffffffffffffffffffffffffffffffffff1673ffffffffffffffffffffffffffffffffffffffff16815260200190815260200160002060006101000a81548160ff0219169083151502179055508173ffffffffffffffffffffffffffffffffffffffff166117a0611d07565b73ffffffffffffffffffffffffffffffffffffffff167f17307eab39ab6107e8899845ad3d59bd9653f200f220920489ca2b5937696c31836040516117e59190613006565b60405180910390a35050565b6118026117fc611d07565b83611dc8565b611841576040517f08c379a000000000000000000000000000000000000000000000000000000000815260040161183890613d25565b60405180910390fd5b61184d84848484612355565b50505050565b606061185e82611c9b565b61189d576040517f08c379a000000000000000000000000000000000000000000000000000000000815260040161189490613fea565b60405180910390fd5b60006007600084815260200190815260200160002080546118bd90613906565b80601f01602080910402602001604051908101604052809291908181526020018280546118e990613906565b80156119365780601f1061190b57610100808354040283529160200191611936565b820191906000526020600020905b81548152906001019060200180831161191957829003601f168201915b5050505050905060006119476123b1565b905060008151141561195d5781925050506119a0565b60008251111561199257808260405160200161197a929190614046565b604051602081830303815290604052925050506119a0565b61199b84612443565b925050505b919050565b6119ad611d07565b73ffffffffffffffffffffffffffffffffffffffff166119cb6115b5565b73ffffffffffffffffffffffffffffffffffffffff1614611a21576040517f08c379a0000000000000000000000000000000000000000000000000000000008152600401611a1890613b3a565b60405180910390fd5b611a2a81612102565b50565b6000600660008473ffffffffffffffffffffffffffffffffffffffff1673ffffffffffffffffffffffffffffffffffffffff16815260200190815260200160002060008373ffffffffffffffffffffffffffffffffffffffff1673ffffffffffffffffffffffffffffffffffffffff16815260200190815260200160002060009054906101000a900460ff16905092915050565b611ac9611d07565b73ffffffffffffffffffffffffffffffffffffffff16611ae76115b5565b73ffffffffffffffffffffffffffffffffffffffff1614611b3d576040517f08c379a0000000000000000000000000000000000000000000000000000000008152600401611b3490613b3a565b60405180910390fd5b600073ffffffffffffffffffffffffffffffffffffffff168173ffffffffffffffffffffffffffffffffffffffff161415611bad576040517f08c379a0000000000000000000000000000000000000000000000000000000008152600401611ba4906140dc565b60405180910390fd5b611bb681612291565b50565b60007f80ac58cd000000000000000000000000000000000000000000000000000000007bffffffffffffffffffffffffffffffffffffffffffffffffffffffff1916827bffffffffffffffffffffffffffffffffffffffffffffffffffffffff19161480611c8457507f5b5e139f000000000000000000000000000000000000000000000000000000007bffffffffffffffffffffffffffffffffffffffffffffffffffffffff1916827bffffffffffffffffffffffffffffffffffffffffffffffffffffffff1916145b80611c945750611c93826124ea565b5b9050919050565b60008073ffffffffffffffffffffffffffffffffffffffff166003600084815260200190815260200160002060009054906101000a900473ffffffffffffffffffffffffffffffffffffffff1673ffffffffffffffffffffffffffffffffffffffff1614159050919050565b600033905090565b816005600083815260200190815260200160002060006101000a81548173ffffffffffffffffffffffffffffffffffffffff021916908373ffffffffffffffffffffffffffffffffffffffff160217905550808273ffffffffffffffffffffffffffffffffffffffff16611d8283611269565b73ffffffffffffffffffffffffffffffffffffffff167f8c5be1e5ebec7d5bd14f71427d1e84f3dd0314c0f7b2291e5b200ac8c7c3b92560405160405180910390a45050565b6000611dd382611c9b565b611e12576040517f08c379a0000000000000000000000000000000000000000000000000000000008152600401611e099061416e565b60405180910390fd5b6000611e1d83611269565b90508073ffffffffffffffffffffffffffffffffffffffff168473ffffffffffffffffffffffffffffffffffffffff161480611e8c57508373ffffffffffffffffffffffffffffffffffffffff16611e74846109b1565b73ffffffffffffffffffffffffffffffffffffffff16145b80611e9d5750611e9c8185611a2d565b5b91505092915050565b8273ffffffffffffffffffffffffffffffffffffffff16611ec682611269565b73ffffffffffffffffffffffffffffffffffffffff1614611f1c576040517f08c379a0000000000000000000000000000000000000000000000000000000008152600401611f1390614200565b60405180910390fd5b600073ffffffffffffffffffffffffffffffffffffffff168273ffffffffffffffffffffffffffffffffffffffff161415611f8c576040517f08c379a0000000000000000000000000000000000000000000000000000000008152600401611f8390614292565b60405180910390fd5b611f97838383612554565b611fa2600082611d0f565b6001600460008573ffffffffffffffffffffffffffffffffffffffff1673ffffffffffffffffffffffffffffffffffffffff1681526020019081526020016000206000828254611ff291906142e1565b925050819055506001600460008473ffffffffffffffffffffffffffffffffffffffff1673ffffffffffffffffffffffffffffffffffffffff16815260200190815260200160002060008282546120499190614315565b92505081905550816003600083815260200190815260200160002060006101000a81548173ffffffffffffffffffffffffffffffffffffffff021916908373ffffffffffffffffffffffffffffffffffffffff160217905550808273ffffffffffffffffffffffffffffffffffffffff168473ffffffffffffffffffffffffffffffffffffffff167fddf252ad1be2c89b69c2b068fc378daa952ba7f163c4a11628f55a4df523b3ef60405160405180910390a4505050565b61210b81612559565b600060076000838152602001908152602001600020805461212b90613906565b905014612152576007600082815260200190815260200160002060006121519190612e6f565b5b50565b600081600001549050919050565b6001816000016000828254019250508190555050565b61219382826040518060200160405280600081525061266a565b5050565b6121a082611c9b565b6121df576040517f08c379a00000000000000000000000000000000000000000000000000000000081526004016121d6906143dd565b60405180910390fd5b80600760008481526020019081526020016000209080519060200190612206929190612eaf565b505050565b61228c8363a9059cbb60e01b848460405160240161222a929190613b5a565b604051602081830303815290604052907bffffffffffffffffffffffffffffffffffffffffffffffffffffffff19166020820180517bffffffffffffffffffffffffffffffffffffffffffffffffffffffff83818316178352505050506126c5565b505050565b60008060009054906101000a900473ffffffffffffffffffffffffffffffffffffffff169050816000806101000a81548173ffffffffffffffffffffffffffffffffffffffff021916908373ffffffffffffffffffffffffffffffffffffffff1602179055508173ffffffffffffffffffffffffffffffffffffffff168173ffffffffffffffffffffffffffffffffffffffff167f8be0079c531659141344cd1fd0a4f28419497f9722a3daafe3b4186f6b6457e060405160405180910390a35050565b612360848484611ea6565b61236c8484848461278c565b6123ab576040517f08c379a00000000000000000000000000000000000000000000000000000000081526004016123a29061446f565b60405180910390fd5b50505050565b6060600880546123c090613906565b80601f01602080910402602001604051908101604052809291908181526020018280546123ec90613906565b80156124395780601f1061240e57610100808354040283529160200191612439565b820191906000526020600020905b81548152906001019060200180831161241c57829003601f168201915b5050505050905090565b606061244e82611c9b565b61248d576040517f08c379a000000000000000000000000000000000000000000000000000000000815260040161248490614501565b60405180910390fd5b60006124976123b1565b905060008151116124b757604051806020016040528060008152506124e2565b806124c184612914565b6040516020016124d2929190614046565b6040516020818303038152906040525b915050919050565b60007f01ffc9a7000000000000000000000000000000000000000000000000000000007bffffffffffffffffffffffffffffffffffffffffffffffffffffffff1916827bffffffffffffffffffffffffffffffffffffffffffffffffffffffff1916149050919050565b505050565b600061256482611269565b905061257281600084612554565b61257d600083611d0f565b6001600460008373ffffffffffffffffffffffffffffffffffffffff1673ffffffffffffffffffffffffffffffffffffffff16815260200190815260200160002060008282546125cd91906142e1565b925050819055506003600083815260200190815260200160002060006101000a81549073ffffffffffffffffffffffffffffffffffffffff021916905581600073ffffffffffffffffffffffffffffffffffffffff168273ffffffffffffffffffffffffffffffffffffffff167fddf252ad1be2c89b69c2b068fc378daa952ba7f163c4a11628f55a4df523b3ef60405160405180910390a45050565b6126748383612a75565b612681600084848461278c565b6126c0576040517f08c379a00000000000000000000000000000000000000000000000000000000081526004016126b79061446f565b60405180910390fd5b505050565b6000612727826040518060400160405280602081526020017f5361666545524332303a206c6f772d6c6576656c2063616c6c206661696c65648152508573ffffffffffffffffffffffffffffffffffffffff16612c439092919063ffffffff16565b905060008151111561278757808060200190518101906127479190614536565b612786576040517f08c379a000000000000000000000000000000000000000000000000000000000815260040161277d906145d5565b60405180910390fd5b5b505050565b60006127ad8473ffffffffffffffffffffffffffffffffffffffff16612c5b565b15612907578373ffffffffffffffffffffffffffffffffffffffff1663150b7a026127d6611d07565b8786866040518563ffffffff1660e01b81526004016127f89493929190614639565b6020604051808303816000875af192505050801561283457506040513d601f19601f82011682018060405250810190612831919061469a565b60015b6128b7573d8060008114612864576040519150601f19603f3d011682016040523d82523d6000602084013e612869565b606091505b506000815114156128af576040517f08c379a00000000000000000000000000000000000000000000000000000000081526004016128a69061446f565b60405180910390fd5b805181602001fd5b63150b7a0260e01b7bffffffffffffffffffffffffffffffffffffffffffffffffffffffff1916817bffffffffffffffffffffffffffffffffffffffffffffffffffffffff19161491505061290c565b600190505b949350505050565b6060600082141561295c576040518060400160405280600181526020017f30000000000000000000000000000000000000000000000000000000000000008152509050612a70565b600082905060005b6000821461298e578080612977906146c7565b915050600a82612987919061473f565b9150612964565b60008167ffffffffffffffff8111156129aa576129a96133c8565b5b6040519080825280601f01601f1916602001820160405280156129dc5781602001600182028036833780820191505090505b5090505b60008514612a69576001826129f591906142e1565b9150600a85612a049190614770565b6030612a109190614315565b60f81b818381518110612a2657612a256147a1565b5b60200101907effffffffffffffffffffffffffffffffffffffffffffffffffffffffffffff1916908160001a905350600a85612a62919061473f565b94506129e0565b8093505050505b919050565b600073ffffffffffffffffffffffffffffffffffffffff168273ffffffffffffffffffffffffffffffffffffffff161415612ae5576040517f08c379a0000000000000000000000000000000000000000000000000000000008152600401612adc9061481c565b60405180910390fd5b612aee81611c9b565b15612b2e576040517f08c379a0000000000000000000000000000000000000000000000000000000008152600401612b2590614888565b60405180910390fd5b612b3a60008383612554565b6001600460008473ffffffffffffffffffffffffffffffffffffffff1673ffffffffffffffffffffffffffffffffffffffff1681526020019081526020016000206000828254612b8a9190614315565b92505081905550816003600083815260200190815260200160002060006101000a81548173ffffffffffffffffffffffffffffffffffffffff021916908373ffffffffffffffffffffffffffffffffffffffff160217905550808273ffffffffffffffffffffffffffffffffffffffff16600073ffffffffffffffffffffffffffffffffffffffff167fddf252ad1be2c89b69c2b068fc378daa952ba7f163c4a11628f55a4df523b3ef60405160405180910390a45050565b6060612c528484600085612c6e565b90509392505050565b600080823b905060008111915050919050565b606082471015612cb3576040517f08c379a0000000000000000000000000000000000000000000000000000000008152600401612caa9061491a565b60405180910390fd5b612cbc85612c5b565b612cfb576040517f08c379a0000000000000000000000000000000000000000000000000000000008152600401612cf290614986565b60405180910390fd5b6000808673ffffffffffffffffffffffffffffffffffffffff168587604051612d2491906149e2565b60006040518083038185875af1925050503d8060008114612d61576040519150601f19603f3d011682016040523d82523d6000602084013e612d66565b606091505b5091509150612d76828286612d82565b92505050949350505050565b60608315612d9257829050612de2565b600083511115612da55782518084602001fd5b816040517f08c379a0000000000000000000000000000000000000000000000000000000008152600401612dd991906130ba565b60405180910390fd5b9392505050565b828054612df590613906565b90600052602060002090601f016020900481019282612e175760008555612e5e565b82601f10612e3057803560ff1916838001178555612e5e565b82800160010185558215612e5e579182015b82811115612e5d578235825591602001919060010190612e42565b5b509050612e6b9190612f35565b5090565b508054612e7b90613906565b6000825580601f10612e8d5750612eac565b601f016020900490600052602060002090810190612eab9190612f35565b5b50565b828054612ebb90613906565b90600052602060002090601f016020900481019282612edd5760008555612f24565b82601f10612ef657805160ff1916838001178555612f24565b82800160010185558215612f24579182015b82811115612f23578251825591602001919060010190612f08565b5b509050612f319190612f35565b5090565b5b80821115612f4e576000816000905550600101612f36565b5090565b6000604051905090565b600080fd5b600080fd5b60007fffffffff0000000000000000000000000000000000000000000000000000000082169050919050565b612f9b81612f66565b8114612fa657600080fd5b50565b600081359050612fb881612f92565b92915050565b600060208284031215612fd457612fd3612f5c565b5b6000612fe284828501612fa9565b91505092915050565b60008115159050919050565b61300081612feb565b82525050565b600060208201905061301b6000830184612ff7565b92915050565b600081519050919050565b600082825260208201905092915050565b60005b8381101561305b578082015181840152602081019050613040565b8381111561306a576000848401525b50505050565b6000601f19601f8301169050919050565b600061308c82613021565b613096818561302c565b93506130a681856020860161303d565b6130af81613070565b840191505092915050565b600060208201905081810360008301526130d48184613081565b905092915050565b6000819050919050565b6130ef816130dc565b81146130fa57600080fd5b50565b60008135905061310c816130e6565b92915050565b60006020828403121561312857613127612f5c565b5b6000613136848285016130fd565b91505092915050565b600073ffffffffffffffffffffffffffffffffffffffff82169050919050565b600061316a8261313f565b9050919050565b61317a8161315f565b82525050565b60006020820190506131956000830184613171565b92915050565b6131a48161315f565b81146131af57600080fd5b50565b6000813590506131c18161319b565b92915050565b600080604083850312156131de576131dd612f5c565b5b60006131ec858286016131b2565b92505060206131fd858286016130fd565b9150509250929050565b60006132128261315f565b9050919050565b61322281613207565b811461322d57600080fd5b50565b60008135905061323f81613219565b92915050565b6000806040838503121561325c5761325b612f5c565b5b600061326a85828601613230565b925050602061327b858286016130fd565b9150509250929050565b60008060006060848603121561329e5761329d612f5c565b5b60006132ac868287016131b2565b93505060206132bd868287016131b2565b92505060406132ce868287016130fd565b9150509250925092565b6132e1816130dc565b82525050565b60006020820190506132fc60008301846132d8565b92915050565b600061330d8261315f565b9050919050565b61331d81613302565b811461332857600080fd5b50565b60008135905061333a81613314565b92915050565b6000806040838503121561335757613356612f5c565b5b60006133658582860161332b565b9250506020613376858286016130fd565b9150509250929050565b600061338b8261313f565b9050919050565b61339b81613380565b81146133a657600080fd5b50565b6000813590506133b881613392565b92915050565b600080fd5b600080fd5b7f4e487b7100000000000000000000000000000000000000000000000000000000600052604160045260246000fd5b61340082613070565b810181811067ffffffffffffffff8211171561341f5761341e6133c8565b5b80604052505050565b6000613432612f52565b905061343e82826133f7565b919050565b600067ffffffffffffffff82111561345e5761345d6133c8565b5b61346782613070565b9050602081019050919050565b82818337600083830152505050565b600061349661349184613443565b613428565b9050828152602081018484840111156134b2576134b16133c3565b5b6134bd848285613474565b509392505050565b600082601f8301126134da576134d96133be565b5b81356134ea848260208601613483565b91505092915050565b60008060006060848603121561350c5761350b612f5c565b5b600061351a868287016133a9565b935050602061352b868287016130fd565b925050604084013567ffffffffffffffff81111561354c5761354b612f61565b5b613558868287016134c5565b9150509250925092565b600080fd5b600080fd5b60008083601f840112613582576135816133be565b5b8235905067ffffffffffffffff81111561359f5761359e613562565b5b6020830191508360018202830111156135bb576135ba613567565b5b9250929050565b600080602083850312156135d9576135d8612f5c565b5b600083013567ffffffffffffffff8111156135f7576135f6612f61565b5b6136038582860161356c565b92509250509250929050565b600061361a8261315f565b9050919050565b61362a8161360f565b811461363557600080fd5b50565b60008135905061364781613621565b92915050565b60006020828403121561366357613662612f5c565b5b600061367184828501613638565b91505092915050565b60008060006040848603121561369357613692612f5c565b5b60006136a1868287016130fd565b935050602084013567ffffffffffffffff8111156136c2576136c1612f61565b5b6136ce8682870161356c565b92509250509250925092565b6000602082840312156136f0576136ef612f5c565b5b60006136fe848285016131b2565b91505092915050565b61371081612feb565b811461371b57600080fd5b50565b60008135905061372d81613707565b92915050565b6000806040838503121561374a57613749612f5c565b5b6000613758858286016131b2565b92505060206137698582860161371e565b9150509250929050565b600067ffffffffffffffff82111561378e5761378d6133c8565b5b61379782613070565b9050602081019050919050565b60006137b76137b284613773565b613428565b9050828152602081018484840111156137d3576137d26133c3565b5b6137de848285613474565b509392505050565b600082601f8301126137fb576137fa6133be565b5b813561380b8482602086016137a4565b91505092915050565b6000806000806080858703121561382e5761382d612f5c565b5b600061383c878288016131b2565b945050602061384d878288016131b2565b935050604061385e878288016130fd565b925050606085013567ffffffffffffffff81111561387f5761387e612f61565b5b61388b878288016137e6565b91505092959194509250565b600080604083850312156138ae576138ad612f5c565b5b60006138bc858286016131b2565b92505060206138cd858286016131b2565b9150509250929050565b7f4e487b7100000000000000000000000000000000000000000000000000000000600052602260045260246000fd5b6000600282049050600182168061391e57607f821691505b60208210811415613932576139316138d7565b5b50919050565b7f4552433732313a20617070726f76656420717565727920666f72206e6f6e657860008201527f697374656e7420746f6b656e0000000000000000000000000000000000000000602082015250565b6000613994602c8361302c565b915061399f82613938565b604082019050919050565b600060208201905081810360008301526139c381613987565b9050919050565b7f4552433732313a20617070726f76616c20746f2063757272656e74206f776e6560008201527f7200000000000000000000000000000000000000000000000000000000000000602082015250565b6000613a2660218361302c565b9150613a31826139ca565b604082019050919050565b60006020820190508181036000830152613a5581613a19565b9050919050565b7f4552433732313a20617070726f76652063616c6c6572206973206e6f74206f7760008201527f6e6572206e6f7220617070726f76656420666f7220616c6c0000000000000000602082015250565b6000613ab860388361302c565b9150613ac382613a5c565b604082019050919050565b60006020820190508181036000830152613ae781613aab565b9050919050565b7f4f776e61626c653a2063616c6c6572206973206e6f7420746865206f776e6572600082015250565b6000613b2460208361302c565b9150613b2f82613aee565b602082019050919050565b60006020820190508181036000830152613b5381613b17565b9050919050565b6000604082019050613b6f6000830185613171565b613b7c60208301846132d8565b9392505050565b600081519050613b92816130e6565b92915050565b600060208284031215613bae57613bad612f5c565b5b6000613bbc84828501613b83565b91505092915050565b6000819050919050565b6000613bea613be5613be08461313f565b613bc5565b61313f565b9050919050565b6000613bfc82613bcf565b9050919050565b6000613c0e82613bf1565b9050919050565b613c1e81613c03565b82525050565b600082825260208201905092915050565b50565b6000613c45600083613c24565b9150613c5082613c35565b600082019050919050565b600060a082019050613c706000830187613171565b613c7d6020830186613c15565b613c8a60408301856132d8565b613c9760608301846132d8565b8181036080830152613ca881613c38565b905095945050505050565b7f4552433732313a207472616e736665722063616c6c6572206973206e6f74206f60008201527f776e6572206e6f7220617070726f766564000000000000000000000000000000602082015250565b6000613d0f60318361302c565b9150613d1a82613cb3565b604082019050919050565b60006020820190508181036000830152613d3e81613d02565b9050919050565b7f4e6f7420617070726f766564206f72206f776e65720000000000000000000000600082015250565b6000613d7b60158361302c565b9150613d8682613d45565b602082019050919050565b60006020820190508181036000830152613daa81613d6e565b9050919050565b6000606082019050613dc66000830186613171565b613dd36020830185613c15565b613de060408301846132d8565b949350505050565b7f4552433732313a206f776e657220717565727920666f72206e6f6e657869737460008201527f656e7420746f6b656e0000000000000000000000000000000000000000000000602082015250565b6000613e4460298361302c565b9150613e4f82613de8565b604082019050919050565b60006020820190508181036000830152613e7381613e37565b9050919050565b7f4552433732313a2062616c616e636520717565727920666f7220746865207a6560008201527f726f206164647265737300000000000000000000000000000000000000000000602082015250565b6000613ed6602a8361302c565b9150613ee182613e7a565b604082019050919050565b60006020820190508181036000830152613f0581613ec9565b9050919050565b7f4552433732313a20617070726f766520746f2063616c6c657200000000000000600082015250565b6000613f4260198361302c565b9150613f4d82613f0c565b602082019050919050565b60006020820190508181036000830152613f7181613f35565b9050919050565b7f45524337323155524953746f726167653a2055524920717565727920666f722060008201527f6e6f6e6578697374656e7420746f6b656e000000000000000000000000000000602082015250565b6000613fd460318361302c565b9150613fdf82613f78565b604082019050919050565b6000602082019050818103600083015261400381613fc7565b9050919050565b600081905092915050565b600061402082613021565b61402a818561400a565b935061403a81856020860161303d565b80840191505092915050565b60006140528285614015565b915061405e8284614015565b91508190509392505050565b7f4f776e61626c653a206e6577206f776e657220697320746865207a65726f206160008201527f6464726573730000000000000000000000000000000000000000000000000000602082015250565b60006140c660268361302c565b91506140d18261406a565b604082019050919050565b600060208201905081810360008301526140f5816140b9565b9050919050565b7f4552433732313a206f70657261746f7220717565727920666f72206e6f6e657860008201527f697374656e7420746f6b656e0000000000000000000000000000000000000000602082015250565b6000614158602c8361302c565b9150614163826140fc565b604082019050919050565b600060208201905081810360008301526141878161414b565b9050919050565b7f4552433732313a207472616e73666572206f6620746f6b656e2074686174206960008201527f73206e6f74206f776e0000000000000000000000000000000000000000000000602082015250565b60006141ea60298361302c565b91506141f58261418e565b604082019050919050565b60006020820190508181036000830152614219816141dd565b9050919050565b7f4552433732313a207472616e7366657220746f20746865207a65726f2061646460008201527f7265737300000000000000000000000000000000000000000000000000000000602082015250565b600061427c60248361302c565b915061428782614220565b604082019050919050565b600060208201905081810360008301526142ab8161426f565b9050919050565b7f4e487b7100000000000000000000000000000000000000000000000000000000600052601160045260246000fd5b60006142ec826130dc565b91506142f7836130dc565b92508282101561430a576143096142b2565b5b828203905092915050565b6000614320826130dc565b915061432b836130dc565b9250827fffffffffffffffffffffffffffffffffffffffffffffffffffffffffffffffff038211156143605761435f6142b2565b5b828201905092915050565b7f45524337323155524953746f726167653a2055524920736574206f66206e6f6e60008201527f6578697374656e7420746f6b656e000000000000000000000000000000000000602082015250565b60006143c7602e8361302c565b91506143d28261436b565b604082019050919050565b600060208201905081810360008301526143f6816143ba565b9050919050565b7f4552433732313a207472616e7366657220746f206e6f6e20455243373231526560008201527f63656976657220696d706c656d656e7465720000000000000000000000000000602082015250565b600061445960328361302c565b9150614464826143fd565b604082019050919050565b600060208201905081810360008301526144888161444c565b9050919050565b7f4552433732314d657461646174613a2055524920717565727920666f72206e6f60008201527f6e6578697374656e7420746f6b656e0000000000000000000000000000000000602082015250565b60006144eb602f8361302c565b91506144f68261448f565b604082019050919050565b6000602082019050818103600083015261451a816144de565b9050919050565b60008151905061453081613707565b92915050565b60006020828403121561454c5761454b612f5c565b5b600061455a84828501614521565b91505092915050565b7f5361666545524332303a204552433230206f7065726174696f6e20646964206e60008201527f6f74207375636365656400000000000000000000000000000000000000000000602082015250565b60006145bf602a8361302c565b91506145ca82614563565b604082019050919050565b600060208201905081810360008301526145ee816145b2565b9050919050565b600081519050919050565b600061460b826145f5565b6146158185613c24565b935061462581856020860161303d565b61462e81613070565b840191505092915050565b600060808201905061464e6000830187613171565b61465b6020830186613171565b61466860408301856132d8565b818103606083015261467a8184614600565b905095945050505050565b60008151905061469481612f92565b92915050565b6000602082840312156146b0576146af612f5c565b5b60006146be84828501614685565b91505092915050565b60006146d2826130dc565b91507fffffffffffffffffffffffffffffffffffffffffffffffffffffffffffffffff821415614705576147046142b2565b5b600182019050919050565b7f4e487b7100000000000000000000000000000000000000000000000000000000600052601260045260246000fd5b600061474a826130dc565b9150614755836130dc565b92508261476557614764614710565b5b828204905092915050565b600061477b826130dc565b9150614786836130dc565b92508261479657614795614710565b5b828206905092915050565b7f4e487b7100000000000000000000000000000000000000000000000000000000600052603260045260246000fd5b7f4552433732313a206d696e7420746f20746865207a65726f2061646472657373600082015250565b600061480660208361302c565b9150614811826147d0565b602082019050919050565b60006020820190508181036000830152614835816147f9565b9050919050565b7f4552433732313a20746f6b656e20616c7265616479206d696e74656400000000600082015250565b6000614872601c8361302c565b915061487d8261483c565b602082019050919050565b600060208201905081810360008301526148a181614865565b9050919050565b7f416464726573733a20696e73756666696369656e742062616c616e636520666f60008201527f722063616c6c0000000000000000000000000000000000000000000000000000602082015250565b600061490460268361302c565b915061490f826148a8565b604082019050919050565b60006020820190508181036000830152614933816148f7565b9050919050565b7f416464726573733a2063616c6c20746f206e6f6e2d636f6e7472616374000000600082015250565b6000614970601d8361302c565b915061497b8261493a565b602082019050919050565b6000602082019050818103600083015261499f81614963565b9050919050565b600081905092915050565b60006149bc826145f5565b6149c681856149a6565b93506149d681856020860161303d565b80840191505092915050565b60006149ee82846149b1565b91508190509291505056fe5477696c6967687420537061726b6c6520697320746865206375746573742c20736d6172746573742c20616c6c2061726f756e64206265737420706f6e7921a2646970667358221220b87bf18125a46c1a6ff3af35274f6d226fb1eecdfb64f72bcce17aa8e9f19f0464736f6c634300080a0033608060405234801561001057600080fd5b5061002d61002261003260201b60201c565b61003a60201b60201c565b6100fe565b600033905090565b60008060009054906101000a900473ffffffffffffffffffffffffffffffffffffffff169050816000806101000a81548173ffffffffffffffffffffffffffffffffffffffff021916908373ffffffffffffffffffffffffffffffffffffffff1602179055508173ffffffffffffffffffffffffffffffffffffffff168173ffffffffffffffffffffffffffffffffffffffff167f8be0079c531659141344cd1fd0a4f28419497f9722a3daafe3b4186f6b6457e060405160405180910390a35050565b611bf58061010d6000396000f3fe6080604052600436106100915760003560e01c806383dcd1841161005957806383dcd1841461015c5780638da5cb5b14610185578063bc197c81146101b0578063f23a6e61146101ed578063f2fde38b1461022a57610091565b806301ffc9a714610096578063150b7a02146100d357806319511a7a1461011057806364e719241461013b578063715018a614610145575b600080fd5b3480156100a257600080fd5b506100bd60048036038101906100b89190610f00565b610253565b6040516100ca9190610f48565b60405180910390f35b3480156100df57600080fd5b506100fa60048036038101906100f5919061113d565b610405565b60405161010791906111cf565b60405180910390f35b34801561011c57600080fd5b50610125610419565b6040516101329190611272565b60405180910390f35b610143610439565b005b34801561015157600080fd5b5061015a610505565b005b34801561016857600080fd5b50610183600480360381019061017e91906112f7565b61058d565b005b34801561019157600080fd5b5061019a61078b565b6040516101a79190611381565b60405180910390f35b3480156101bc57600080fd5b506101d760048036038101906101d29190611464565b6107b4565b6040516101e491906111cf565b60405180910390f35b3480156101f957600080fd5b50610214600480360381019061020f9190611533565b6107c9565b60405161022191906111cf565b60405180910390f35b34801561023657600080fd5b50610251600480360381019061024c91906115ca565b6107de565b005b60007f150b7a02000000000000000000000000000000000000000000000000000000007bffffffffffffffffffffffffffffffffffffffffffffffffffffffff1916827bffffffffffffffffffffffffffffffffffffffffffffffffffffffff1916148061031e57507f19511a7a000000000000000000000000000000000000000000000000000000007bffffffffffffffffffffffffffffffffffffffffffffffffffffffff1916827bffffffffffffffffffffffffffffffffffffffffffffffffffffffff1916145b8061038657507f0e083076000000000000000000000000000000000000000000000000000000007bffffffffffffffffffffffffffffffffffffffffffffffffffffffff1916827bffffffffffffffffffffffffffffffffffffffffffffffffffffffff1916145b806103ee57507f64e71924000000000000000000000000000000000000000000000000000000007bffffffffffffffffffffffffffffffffffffffffffffffffffffffff1916827bffffffffffffffffffffffffffffffffffffffffffffffffffffffff1916145b806103fe57506103fd826108d6565b5b9050919050565b600063150b7a0260e01b9050949350505050565b60606040518060600160405280603f8152602001611b81603f9139905090565b610441610950565b73ffffffffffffffffffffffffffffffffffffffff1661045f61078b565b73ffffffffffffffffffffffffffffffffffffffff16146104b5576040517f08c379a00000000000000000000000000000000000000000000000000000000081526004016104ac90611643565b60405180910390fd5b6104bd61078b565b73ffffffffffffffffffffffffffffffffffffffff166108fc479081150290604051600060405180830381858888f19350505050158015610502573d6000803e3d6000fd5b50565b61050d610950565b73ffffffffffffffffffffffffffffffffffffffff1661052b61078b565b73ffffffffffffffffffffffffffffffffffffffff1614610581576040517f08c379a000000000000000000000000000000000000000000000000000000000815260040161057890611643565b60405180910390fd5b61058b6000610958565b565b610595610950565b73ffffffffffffffffffffffffffffffffffffffff166105b361078b565b73ffffffffffffffffffffffffffffffffffffffff1614610609576040517f08c379a000000000000000000000000000000000000000000000000000000000815260040161060090611643565b60405180910390fd5b846001600381111561061e5761061d611663565b5b81600381111561063157610630611663565b5b148061066157506002600381111561064c5761064b611663565b5b81600381111561065f5761065e611663565b5b145b8061068f575060038081111561067a57610679611663565b5b81600381111561068d5761068c611663565b5b145b6106ce576040517f08c379a00000000000000000000000000000000000000000000000000000000081526004016106c59061172a565b60405180910390fd5b600160038111156106e2576106e1611663565b5b8660038111156106f5576106f4611663565b5b141561070c5761070785858585610a1c565b610783565b600260038111156107205761071f611663565b5b86600381111561073357610732611663565b5b141561074957610744858584610a93565b610782565b60038081111561075c5761075b611663565b5b86600381111561076f5761076e611663565b5b141561078157610780858585610ac3565b5b5b5b505050505050565b60008060009054906101000a900473ffffffffffffffffffffffffffffffffffffffff16905090565b600063bc197c8160e01b905095945050505050565b600063f23a6e6160e01b905095945050505050565b6107e6610950565b73ffffffffffffffffffffffffffffffffffffffff1661080461078b565b73ffffffffffffffffffffffffffffffffffffffff161461085a576040517f08c379a000000000000000000000000000000000000000000000000000000000815260040161085190611643565b60405180910390fd5b600073ffffffffffffffffffffffffffffffffffffffff168173ffffffffffffffffffffffffffffffffffffffff1614156108ca576040517f08c379a00000000000000000000000000000000000000000000000000000000081526004016108c1906117bc565b60405180910390fd5b6108d381610958565b50565b60007f4e2312e0000000000000000000000000000000000000000000000000000000007bffffffffffffffffffffffffffffffffffffffffffffffffffffffff1916827bffffffffffffffffffffffffffffffffffffffffffffffffffffffff19161480610949575061094882610b37565b5b9050919050565b600033905090565b60008060009054906101000a900473ffffffffffffffffffffffffffffffffffffffff169050816000806101000a81548173ffffffffffffffffffffffffffffffffffffffff021916908373ffffffffffffffffffffffffffffffffffffffff1602179055508173ffffffffffffffffffffffffffffffffffffffff168173ffffffffffffffffffffffffffffffffffffffff167f8be0079c531659141344cd1fd0a4f28419497f9722a3daafe3b4186f6b6457e060405160405180910390a35050565b8373ffffffffffffffffffffffffffffffffffffffff1663f242432a308585856040518563ffffffff1660e01b8152600401610a5b9493929190611881565b600060405180830381600087803b158015610a7557600080fd5b505af1158015610a89573d6000803e3d6000fd5b5050505050505050565b610abe82828573ffffffffffffffffffffffffffffffffffffffff16610ba19092919063ffffffff16565b505050565b8273ffffffffffffffffffffffffffffffffffffffff166342842e0e3084846040518463ffffffff1660e01b8152600401610b00939291906118d9565b600060405180830381600087803b158015610b1a57600080fd5b505af1158015610b2e573d6000803e3d6000fd5b50505050505050565b60007f01ffc9a7000000000000000000000000000000000000000000000000000000007bffffffffffffffffffffffffffffffffffffffffffffffffffffffff1916827bffffffffffffffffffffffffffffffffffffffffffffffffffffffff1916149050919050565b610c228363a9059cbb60e01b8484604051602401610bc0929190611910565b604051602081830303815290604052907bffffffffffffffffffffffffffffffffffffffffffffffffffffffff19166020820180517bffffffffffffffffffffffffffffffffffffffffffffffffffffffff8381831617835250505050610c27565b505050565b6000610c89826040518060400160405280602081526020017f5361666545524332303a206c6f772d6c6576656c2063616c6c206661696c65648152508573ffffffffffffffffffffffffffffffffffffffff16610cee9092919063ffffffff16565b9050600081511115610ce95780806020019051810190610ca99190611965565b610ce8576040517f08c379a0000000000000000000000000000000000000000000000000000000008152600401610cdf90611a04565b60405180910390fd5b5b505050565b6060610cfd8484600085610d06565b90509392505050565b606082471015610d4b576040517f08c379a0000000000000000000000000000000000000000000000000000000008152600401610d4290611a96565b60405180910390fd5b610d5485610e1a565b610d93576040517f08c379a0000000000000000000000000000000000000000000000000000000008152600401610d8a90611b02565b60405180910390fd5b6000808673ffffffffffffffffffffffffffffffffffffffff168587604051610dbc9190611b69565b60006040518083038185875af1925050503d8060008114610df9576040519150601f19603f3d011682016040523d82523d6000602084013e610dfe565b606091505b5091509150610e0e828286610e2d565b92505050949350505050565b600080823b905060008111915050919050565b60608315610e3d57829050610e8d565b600083511115610e505782518084602001fd5b816040517f08c379a0000000000000000000000000000000000000000000000000000000008152600401610e849190611272565b60405180910390fd5b9392505050565b6000604051905090565b600080fd5b600080fd5b60007fffffffff0000000000000000000000000000000000000000000000000000000082169050919050565b610edd81610ea8565b8114610ee857600080fd5b50565b600081359050610efa81610ed4565b92915050565b600060208284031215610f1657610f15610e9e565b5b6000610f2484828501610eeb565b91505092915050565b60008115159050919050565b610f4281610f2d565b82525050565b6000602082019050610f5d6000830184610f39565b92915050565b600073ffffffffffffffffffffffffffffffffffffffff82169050919050565b6000610f8e82610f63565b9050919050565b610f9e81610f83565b8114610fa957600080fd5b50565b600081359050610fbb81610f95565b92915050565b6000819050919050565b610fd481610fc1565b8114610fdf57600080fd5b50565b600081359050610ff181610fcb565b92915050565b600080fd5b600080fd5b6000601f19601f8301169050919050565b7f4e487b7100000000000000000000000000000000000000000000000000000000600052604160045260246000fd5b61104a82611001565b810181811067ffffffffffffffff8211171561106957611068611012565b5b80604052505050565b600061107c610e94565b90506110888282611041565b919050565b600067ffffffffffffffff8211156110a8576110a7611012565b5b6110b182611001565b9050602081019050919050565b82818337600083830152505050565b60006110e06110db8461108d565b611072565b9050828152602081018484840111156110fc576110fb610ffc565b5b6111078482856110be565b509392505050565b600082601f83011261112457611123610ff7565b5b81356111348482602086016110cd565b91505092915050565b6000806000806080858703121561115757611156610e9e565b5b600061116587828801610fac565b945050602061117687828801610fac565b935050604061118787828801610fe2565b925050606085013567ffffffffffffffff8111156111a8576111a7610ea3565b5b6111b48782880161110f565b91505092959194509250565b6111c981610ea8565b82525050565b60006020820190506111e460008301846111c0565b92915050565b600081519050919050565b600082825260208201905092915050565b60005b83811015611224578082015181840152602081019050611209565b83811115611233576000848401525b50505050565b6000611244826111ea565b61124e81856111f5565b935061125e818560208601611206565b61126781611001565b840191505092915050565b6000602082019050818103600083015261128c8184611239565b905092915050565b600481106112a157600080fd5b50565b6000813590506112b381611294565b92915050565b60006112c482610f63565b9050919050565b6112d4816112b9565b81146112df57600080fd5b50565b6000813590506112f1816112cb565b92915050565b600080600080600060a0868803121561131357611312610e9e565b5b6000611321888289016112a4565b955050602061133288828901610fac565b9450506040611343888289016112e2565b935050606061135488828901610fe2565b925050608061136588828901610fe2565b9150509295509295909350565b61137b81610f83565b82525050565b60006020820190506113966000830184611372565b92915050565b600067ffffffffffffffff8211156113b7576113b6611012565b5b602082029050602081019050919050565b600080fd5b60006113e06113db8461139c565b611072565b90508083825260208201905060208402830185811115611403576114026113c8565b5b835b8181101561142c57806114188882610fe2565b845260208401935050602081019050611405565b5050509392505050565b600082601f83011261144b5761144a610ff7565b5b813561145b8482602086016113cd565b91505092915050565b600080600080600060a086880312156114805761147f610e9e565b5b600061148e88828901610fac565b955050602061149f88828901610fac565b945050604086013567ffffffffffffffff8111156114c0576114bf610ea3565b5b6114cc88828901611436565b935050606086013567ffffffffffffffff8111156114ed576114ec610ea3565b5b6114f988828901611436565b925050608086013567ffffffffffffffff81111561151a57611519610ea3565b5b6115268882890161110f565b9150509295509295909350565b600080600080600060a0868803121561154f5761154e610e9e565b5b600061155d88828901610fac565b955050602061156e88828901610fac565b945050604061157f88828901610fe2565b935050606061159088828901610fe2565b925050608086013567ffffffffffffffff8111156115b1576115b0610ea3565b5b6115bd8882890161110f565b9150509295509295909350565b6000602082840312156115e0576115df610e9e565b5b60006115ee84828501610fac565b91505092915050565b7f4f776e61626c653a2063616c6c6572206973206e6f7420746865206f776e6572600082015250565b600061162d6020836111f5565b9150611638826115f7565b602082019050919050565b6000602082019050818103600083015261165c81611620565b9050919050565b7f4e487b7100000000000000000000000000000000000000000000000000000000600052602160045260246000fd5b7f60746f6b656e5479706560206d75737420726570726573656e7420612073757060008201527f706f7274656420746f6b656e3a203120666f7220455243313135352c2032206660208201527f6f722045524332302c206f72203320666f722045524337323100000000000000604082015250565b60006117146059836111f5565b915061171f82611692565b606082019050919050565b6000602082019050818103600083015261174381611707565b9050919050565b7f4f776e61626c653a206e6577206f776e657220697320746865207a65726f206160008201527f6464726573730000000000000000000000000000000000000000000000000000602082015250565b60006117a66026836111f5565b91506117b18261174a565b604082019050919050565b600060208201905081810360008301526117d581611799565b9050919050565b6000819050919050565b60006118016117fc6117f784610f63565b6117dc565b610f63565b9050919050565b6000611813826117e6565b9050919050565b600061182582611808565b9050919050565b6118358161181a565b82525050565b61184481610fc1565b82525050565b600082825260208201905092915050565b50565b600061186b60008361184a565b91506118768261185b565b600082019050919050565b600060a0820190506118966000830187611372565b6118a3602083018661182c565b6118b0604083018561183b565b6118bd606083018461183b565b81810360808301526118ce8161185e565b905095945050505050565b60006060820190506118ee6000830186611372565b6118fb602083018561182c565b611908604083018461183b565b949350505050565b60006040820190506119256000830185611372565b611932602083018461183b565b9392505050565b61194281610f2d565b811461194d57600080fd5b50565b60008151905061195f81611939565b92915050565b60006020828403121561197b5761197a610e9e565b5b600061198984828501611950565b91505092915050565b7f5361666545524332303a204552433230206f7065726174696f6e20646964206e60008201527f6f74207375636365656400000000000000000000000000000000000000000000602082015250565b60006119ee602a836111f5565b91506119f982611992565b604082019050919050565b60006020820190508181036000830152611a1d816119e1565b9050919050565b7f416464726573733a20696e73756666696369656e742062616c616e636520666f60008201527f722063616c6c0000000000000000000000000000000000000000000000000000602082015250565b6000611a806026836111f5565b9150611a8b82611a24565b604082019050919050565b60006020820190508181036000830152611aaf81611a73565b9050919050565b7f416464726573733a2063616c6c20746f206e6f6e2d636f6e7472616374000000600082015250565b6000611aec601d836111f5565b9150611af782611ab6565b602082019050919050565b60006020820190508181036000830152611b1b81611adf565b9050919050565b600081519050919050565b600081905092915050565b6000611b4382611b22565b611b4d8185611b2d565b9350611b5d818560208601611206565b80840191505092915050565b6000611b758284611b38565b91508190509291505056fe5477696c6967687420537061726b6c6520697320746865206375746573742c20736d6172746573742c20616c6c2061726f756e64206265737420706f6e7921a2646970667358221220932b10ec0def2570b7e149ff47957e051dd5897884d7aa33a4cca95d38798bf364736f6c634300080a0033",
  "linkReferences": {},
  "deployedLinkReferences": {}
}