{
  "_format": "hh-sol-artifact-1",
  "contractName": "MarebitsLocker",
  "sourceName": "contracts/MarebitsLocker.sol",
  "abi": [
    {
      "inputs": [
        {
          "internalType": "string",
          "name": "name",
          "type": "string"
        },
        {
          "internalType": "string",
          "name": "symbol",
          "type": "string"
        },
        {
          "internalType": "string",
          "name": "baseURI",
          "type": "string"
        }
      ],
      "stateMutability": "nonpayable",
      "type": "constructor"
    },
    {
      "anonymous": false,
      "inputs": [
        {
          "indexed": true,
          "internalType": "address",
          "name": "previousOwner",
          "type": "address"
        },
        {
          "indexed": true,
          "internalType": "address",
          "name": "newOwner",
          "type": "address"
        }
      ],
      "name": "OwnershipTransferred",
      "type": "event"
    },
    {
      "anonymous": false,
      "inputs": [
        {
          "indexed": true,
          "internalType": "uint256",
          "name": "accountId",
          "type": "uint256"
        },
        {
          "indexed": true,
          "internalType": "address",
          "name": "owner",
          "type": "address"
        },
        {
          "indexed": false,
          "internalType": "uint256",
          "name": "amount",
          "type": "uint256"
        },
        {
          "indexed": false,
          "internalType": "address",
          "name": "tokenContract",
          "type": "address"
        },
        {
          "indexed": false,
          "internalType": "uint256",
          "name": "tokenId",
          "type": "uint256"
        },
        {
          "indexed": false,
          "internalType": "enum ITokenTypeable.TokenType",
          "name": "tokenType",
          "type": "uint8"
        },
        {
          "indexed": false,
          "internalType": "uint256",
          "name": "unlockTime",
          "type": "uint256"
        }
      ],
      "name": "TokensLocked",
      "type": "event"
    },
    {
      "anonymous": false,
      "inputs": [
        {
          "indexed": true,
          "internalType": "uint256",
          "name": "accountId",
          "type": "uint256"
        },
        {
          "indexed": true,
          "internalType": "address",
          "name": "owner",
          "type": "address"
        },
        {
          "indexed": false,
          "internalType": "uint256",
          "name": "amount",
          "type": "uint256"
        },
        {
          "indexed": false,
          "internalType": "address",
          "name": "tokenContract",
          "type": "address"
        },
        {
          "indexed": false,
          "internalType": "uint256",
          "name": "tokenId",
          "type": "uint256"
        },
        {
          "indexed": false,
          "internalType": "enum ITokenTypeable.TokenType",
          "name": "tokenType",
          "type": "uint8"
        }
      ],
      "name": "TokensRedeemed",
      "type": "event"
    },
    {
      "inputs": [],
      "name": "__recoverEther",
      "outputs": [],
      "stateMutability": "payable",
      "type": "function"
    },
    {
      "inputs": [
        {
          "internalType": "enum ITokenTypeable.TokenType",
          "name": "tokenType",
          "type": "uint8"
        },
        {
          "internalType": "address",
          "name": "tokenContract",
          "type": "address"
        },
        {
          "internalType": "uint256",
          "name": "tokenId",
          "type": "uint256"
        }
      ],
      "name": "__recoverTokens",
      "outputs": [],
      "stateMutability": "nonpayable",
      "type": "function"
    },
    {
      "inputs": [
        {
          "internalType": "string",
          "name": "baseURI",
          "type": "string"
        }
      ],
      "name": "__setBaseURI",
      "outputs": [],
      "stateMutability": "nonpayable",
      "type": "function"
    },
    {
      "inputs": [
        {
          "internalType": "uint256",
          "name": "tokenId",
          "type": "uint256"
        },
        {
          "internalType": "string",
          "name": "tokenUri",
          "type": "string"
        }
      ],
      "name": "__setTokenURI",
      "outputs": [],
      "stateMutability": "nonpayable",
      "type": "function"
    },
    {
      "inputs": [],
      "name": "bestPony",
      "outputs": [
        {
          "internalType": "string",
          "name": "",
          "type": "string"
        }
      ],
      "stateMutability": "pure",
      "type": "function"
    },
    {
      "inputs": [
        {
          "internalType": "uint256",
          "name": "accountId",
          "type": "uint256"
        },
        {
          "internalType": "uint256",
          "name": "unlockTime",
          "type": "uint256"
        }
      ],
      "name": "extendLock",
      "outputs": [],
      "stateMutability": "nonpayable",
      "type": "function"
    },
    {
      "inputs": [
        {
          "internalType": "uint256",
          "name": "accountId",
          "type": "uint256"
        }
      ],
      "name": "getAccount",
      "outputs": [
        {
          "internalType": "uint256",
          "name": "",
          "type": "uint256"
        },
        {
          "internalType": "string",
          "name": "",
          "type": "string"
        },
        {
          "internalType": "address",
          "name": "",
          "type": "address"
        },
        {
          "internalType": "uint256",
          "name": "",
          "type": "uint256"
        },
        {
          "internalType": "enum ITokenTypeable.TokenType",
          "name": "",
          "type": "uint8"
        },
        {
          "internalType": "string",
          "name": "",
          "type": "string"
        },
        {
          "internalType": "uint256",
          "name": "",
          "type": "uint256"
        }
      ],
      "stateMutability": "view",
      "type": "function"
    },
    {
      "inputs": [
        {
          "internalType": "enum ITokenTypeable.TokenType",
          "name": "tokenType",
          "type": "uint8"
        },
        {
          "internalType": "address",
          "name": "tokenContract",
          "type": "address"
        },
        {
          "internalType": "uint256",
          "name": "tokenId",
          "type": "uint256"
        },
        {
          "internalType": "uint256",
          "name": "amount",
          "type": "uint256"
        },
        {
          "internalType": "uint256",
          "name": "unlockTime",
          "type": "uint256"
        }
      ],
      "name": "lockTokens",
      "outputs": [
        {
          "internalType": "uint256",
          "name": "",
          "type": "uint256"
        }
      ],
      "stateMutability": "nonpayable",
      "type": "function"
    },
    {
      "inputs": [],
      "name": "owner",
      "outputs": [
        {
          "internalType": "address",
          "name": "",
          "type": "address"
        }
      ],
      "stateMutability": "view",
      "type": "function"
    },
    {
      "inputs": [
        {
          "internalType": "uint256",
          "name": "accountId",
          "type": "uint256"
        }
      ],
      "name": "redeemToken",
      "outputs": [],
      "stateMutability": "nonpayable",
      "type": "function"
    },
    {
      "inputs": [],
      "name": "renounceOwnership",
      "outputs": [],
      "stateMutability": "nonpayable",
      "type": "function"
    },
    {
      "inputs": [
        {
          "internalType": "bytes4",
          "name": "interfaceId",
          "type": "bytes4"
        }
      ],
      "name": "supportsInterface",
      "outputs": [
        {
          "internalType": "bool",
          "name": "",
          "type": "bool"
        }
      ],
      "stateMutability": "view",
      "type": "function"
    },
    {
      "inputs": [
        {
          "internalType": "address",
          "name": "newOwner",
          "type": "address"
        }
      ],
      "name": "transferOwnership",
      "outputs": [],
      "stateMutability": "nonpayable",
      "type": "function"
    }
  ],
  "bytecode": "0x60806040523480156200001157600080fd5b506040516200fe893803806200fe8983398181016040528101906200003791906200044f565b620000576200004b620001bc60201b60201c565b620001c460201b60201c565b600180819055506040516200006c9062000288565b604051809103906000f08015801562000089573d6000803e3d6000fd5b50600260006101000a81548173ffffffffffffffffffffffffffffffffffffffff021916908373ffffffffffffffffffffffffffffffffffffffff160217905550828282604051620000db9062000296565b620000e99392919062000565565b604051809103906000f08015801562000106573d6000803e3d6000fd5b50600360006101000a81548173ffffffffffffffffffffffffffffffffffffffff021916908373ffffffffffffffffffffffffffffffffffffffff1602179055506040516200015590620002a4565b604051809103906000f08015801562000172573d6000803e3d6000fd5b50600460006101000a81548173ffffffffffffffffffffffffffffffffffffffff021916908373ffffffffffffffffffffffffffffffffffffffff160217905550505050620005b7565b600033905090565b60008060009054906101000a900473ffffffffffffffffffffffffffffffffffffffff169050816000806101000a81548173ffffffffffffffffffffffffffffffffffffffff021916908373ffffffffffffffffffffffffffffffffffffffff1602179055508173ffffffffffffffffffffffffffffffffffffffff168173ffffffffffffffffffffffffffffffffffffffff167f8be0079c531659141344cd1fd0a4f28419497f9722a3daafe3b4186f6b6457e060405160405180910390a35050565b613cb7806200587583390190565b614dd9806200952c83390190565b611b84806200e30583390190565b6000604051905090565b600080fd5b600080fd5b600080fd5b600080fd5b6000601f19601f8301169050919050565b7f4e487b7100000000000000000000000000000000000000000000000000000000600052604160045260246000fd5b6200031b82620002d0565b810181811067ffffffffffffffff821117156200033d576200033c620002e1565b5b80604052505050565b600062000352620002b2565b905062000360828262000310565b919050565b600067ffffffffffffffff821115620003835762000382620002e1565b5b6200038e82620002d0565b9050602081019050919050565b60005b83811015620003bb5780820151818401526020810190506200039e565b83811115620003cb576000848401525b50505050565b6000620003e8620003e28462000365565b62000346565b905082815260208101848484011115620004075762000406620002cb565b5b620004148482856200039b565b509392505050565b600082601f830112620004345762000433620002c6565b5b815162000446848260208601620003d1565b91505092915050565b6000806000606084860312156200046b576200046a620002bc565b5b600084015167ffffffffffffffff8111156200048c576200048b620002c1565b5b6200049a868287016200041c565b935050602084015167ffffffffffffffff811115620004be57620004bd620002c1565b5b620004cc868287016200041c565b925050604084015167ffffffffffffffff811115620004f057620004ef620002c1565b5b620004fe868287016200041c565b9150509250925092565b600081519050919050565b600082825260208201905092915050565b6000620005318262000508565b6200053d818562000513565b93506200054f8185602086016200039b565b6200055a81620002d0565b840191505092915050565b6000606082019050818103600083015262000581818662000524565b9050818103602083015262000597818562000524565b90508181036040830152620005ad818462000524565b9050949350505050565b6152ae80620005c76000396000f3fe6080604052600436106100c25760003560e01c806358ee71731161007f5780638da5cb5b116100595780638da5cb5b1461021d578063a7688b5c14610248578063ce88b14514610285578063f2fde38b146102c8576100c2565b806358ee7173146101d357806364e71924146101fc578063715018a614610206576100c2565b8063013054c2146100c757806301ffc9a7146100f0578063070d66bf1461012d57806319511a7a146101565780631c3eeaac146101815780634a3b889a146101aa575b600080fd5b3480156100d357600080fd5b506100ee60048036038101906100e9919061393b565b6102f1565b005b3480156100fc57600080fd5b50610117600480360381019061011291906139c0565b610f49565b6040516101249190613a08565b60405180910390f35b34801561013957600080fd5b50610154600480360381019061014f9190613a23565b611163565b005b34801561016257600080fd5b5061016b6117ee565b6040516101789190613afc565b60405180910390f35b34801561018d57600080fd5b506101a860048036038101906101a39190613ba1565b61180e565b005b3480156101b657600080fd5b506101d160048036038101906101cc9190613c59565b6119bc565b005b3480156101df57600080fd5b506101fa60048036038101906101f59190613ca6565b611acb565b005b610204611bdd565b005b34801561021257600080fd5b5061021b611de9565b005b34801561022957600080fd5b50610232611e71565b60405161023f9190613d15565b60405180910390f35b34801561025457600080fd5b5061026f600480360381019061026a9190613d30565b611e9a565b60405161027c9190613dba565b60405180910390f35b34801561029157600080fd5b506102ac60048036038101906102a7919061393b565b61212a565b6040516102bf9796959493929190613e4c565b60405180910390f35b3480156102d457600080fd5b506102ef60048036038101906102ea9190613ec9565b6121f1565b005b60026001541415610337576040517f08c379a000000000000000000000000000000000000000000000000000000000815260040161032e90613f42565b60405180910390fd5b600260018190555061036561034a6122e9565b73ffffffffffffffffffffffffffffffffffffffff166122f1565b156103a5576040517f08c379a000000000000000000000000000000000000000000000000000000000815260040161039c90613fd4565b60405180910390fd5b600360009054906101000a900473ffffffffffffffffffffffffffffffffffffffff1673ffffffffffffffffffffffffffffffffffffffff16638553c3e9826040518263ffffffff1660e01b81526004016104009190613dba565b602060405180830381865afa15801561041d573d6000803e3d6000fd5b505050506040513d601f19601f820116820180604052508101906104419190614020565b610480576040517f08c379a0000000000000000000000000000000000000000000000000000000008152600401610477906140bf565b60405180910390fd5b6104886122e9565b73ffffffffffffffffffffffffffffffffffffffff16600360009054906101000a900473ffffffffffffffffffffffffffffffffffffffff1673ffffffffffffffffffffffffffffffffffffffff16636352211e836040518263ffffffff1660e01b81526004016104f99190613dba565b602060405180830381865afa158015610516573d6000803e3d6000fd5b505050506040513d601f19601f8201168201806040525081019061053a91906140f4565b73ffffffffffffffffffffffffffffffffffffffff1614610590576040517f08c379a000000000000000000000000000000000000000000000000000000000815260040161058790614193565b60405180910390fd5b3073ffffffffffffffffffffffffffffffffffffffff16600360009054906101000a900473ffffffffffffffffffffffffffffffffffffffff1673ffffffffffffffffffffffffffffffffffffffff1663081812fc836040518263ffffffff1660e01b81526004016106029190613dba565b602060405180830381865afa15801561061f573d6000803e3d6000fd5b505050506040513d601f19601f8201168201806040525081019061064391906140f4565b73ffffffffffffffffffffffffffffffffffffffff1614610699576040517f08c379a000000000000000000000000000000000000000000000000000000000815260040161069090614225565b60405180910390fd5b600260009054906101000a900473ffffffffffffffffffffffffffffffffffffffff1673ffffffffffffffffffffffffffffffffffffffff166372abc8b7826040518263ffffffff1660e01b81526004016106f49190613dba565b602060405180830381865afa158015610711573d6000803e3d6000fd5b505050506040513d601f19601f820116820180604052508101906107359190614020565b610774576040517f08c379a000000000000000000000000000000000000000000000000000000000815260040161076b90614291565b60405180910390fd5b6000600260009054906101000a900473ffffffffffffffffffffffffffffffffffffffff1673ffffffffffffffffffffffffffffffffffffffff16639980ec86836040518263ffffffff1660e01b81526004016107d19190613dba565b602060405180830381865afa1580156107ee573d6000803e3d6000fd5b505050506040513d601f19601f8201168201806040525081019061081291906142c6565b11610852576040517f08c379a00000000000000000000000000000000000000000000000000000000081526004016108499061433f565b60405180910390fd5b600260009054906101000a900473ffffffffffffffffffffffffffffffffffffffff1673ffffffffffffffffffffffffffffffffffffffff166317e4c78c8260006040518363ffffffff1660e01b81526004016108b09291906143a4565b600060405180830381600087803b1580156108ca57600080fd5b505af11580156108de573d6000803e3d6000fd5b50505050600360009054906101000a900473ffffffffffffffffffffffffffffffffffffffff1673ffffffffffffffffffffffffffffffffffffffff1663d1a01520826040518263ffffffff1660e01b815260040161093d9190613dba565b600060405180830381600087803b15801561095757600080fd5b505af115801561096b573d6000803e3d6000fd5b50505050600460009054906101000a900473ffffffffffffffffffffffffffffffffffffffff1673ffffffffffffffffffffffffffffffffffffffff1663a6e943ff600260009054906101000a900473ffffffffffffffffffffffffffffffffffffffff1673ffffffffffffffffffffffffffffffffffffffff166376aed2e1846040518263ffffffff1660e01b8152600401610a089190613dba565b602060405180830381865afa158015610a25573d6000803e3d6000fd5b505050506040513d601f19601f82011682018060405250810190610a4991906143e2565b600260009054906101000a900473ffffffffffffffffffffffffffffffffffffffff1673ffffffffffffffffffffffffffffffffffffffff1663a07e5199856040518263ffffffff1660e01b8152600401610aa49190613dba565b602060405180830381865afa158015610ac1573d6000803e3d6000fd5b505050506040513d601f19601f82011682018060405250810190610ae591906140f4565b610aed6122e9565b600260009054906101000a900473ffffffffffffffffffffffffffffffffffffffff1673ffffffffffffffffffffffffffffffffffffffff166314ff5ea3876040518263ffffffff1660e01b8152600401610b489190613dba565b602060405180830381865afa158015610b65573d6000803e3d6000fd5b505050506040513d601f19601f82011682018060405250810190610b8991906142c6565b600260009054906101000a900473ffffffffffffffffffffffffffffffffffffffff1673ffffffffffffffffffffffffffffffffffffffff16639980ec86886040518263ffffffff1660e01b8152600401610be49190613dba565b602060405180830381865afa158015610c01573d6000803e3d6000fd5b505050506040513d601f19601f82011682018060405250810190610c2591906142c6565b6040518663ffffffff1660e01b8152600401610c45959493929190614430565b600060405180830381600087803b158015610c5f57600080fd5b505af1158015610c73573d6000803e3d6000fd5b50505050610c7f6122e9565b73ffffffffffffffffffffffffffffffffffffffff16817f362ee327523b324da9696eece77c1716bbd5677a2839b1148716bdfd4a8b8176600260009054906101000a900473ffffffffffffffffffffffffffffffffffffffff1673ffffffffffffffffffffffffffffffffffffffff16639980ec86856040518263ffffffff1660e01b8152600401610d129190613dba565b602060405180830381865afa158015610d2f573d6000803e3d6000fd5b505050506040513d601f19601f82011682018060405250810190610d5391906142c6565b600260009054906101000a900473ffffffffffffffffffffffffffffffffffffffff1673ffffffffffffffffffffffffffffffffffffffff1663a07e5199866040518263ffffffff1660e01b8152600401610dae9190613dba565b602060405180830381865afa158015610dcb573d6000803e3d6000fd5b505050506040513d601f19601f82011682018060405250810190610def91906140f4565b600260009054906101000a900473ffffffffffffffffffffffffffffffffffffffff1673ffffffffffffffffffffffffffffffffffffffff166314ff5ea3876040518263ffffffff1660e01b8152600401610e4a9190613dba565b602060405180830381865afa158015610e67573d6000803e3d6000fd5b505050506040513d601f19601f82011682018060405250810190610e8b91906142c6565b600260009054906101000a900473ffffffffffffffffffffffffffffffffffffffff1673ffffffffffffffffffffffffffffffffffffffff166376aed2e1886040518263ffffffff1660e01b8152600401610ee69190613dba565b602060405180830381865afa158015610f03573d6000803e3d6000fd5b505050506040513d601f19601f82011682018060405250810190610f2791906143e2565b604051610f379493929190614483565b60405180910390a36001808190555050565b60007f19511a7a000000000000000000000000000000000000000000000000000000007bffffffffffffffffffffffffffffffffffffffffffffffffffffffff1916827bffffffffffffffffffffffffffffffffffffffffffffffffffffffff1916148061101457507f0e083076000000000000000000000000000000000000000000000000000000007bffffffffffffffffffffffffffffffffffffffffffffffffffffffff1916827bffffffffffffffffffffffffffffffffffffffffffffffffffffffff1916145b8061107c57507f64e71924000000000000000000000000000000000000000000000000000000007bffffffffffffffffffffffffffffffffffffffffffffffffffffffff1916827bffffffffffffffffffffffffffffffffffffffffffffffffffffffff1916145b806110e457507f1c3eeaac000000000000000000000000000000000000000000000000000000007bffffffffffffffffffffffffffffffffffffffffffffffffffffffff1916827bffffffffffffffffffffffffffffffffffffffffffffffffffffffff1916145b8061114c57507f6fdd0864000000000000000000000000000000000000000000000000000000007bffffffffffffffffffffffffffffffffffffffffffffffffffffffff1916827bffffffffffffffffffffffffffffffffffffffffffffffffffffffff1916145b8061115c575061115b82612304565b5b9050919050565b61118961116e6122e9565b73ffffffffffffffffffffffffffffffffffffffff166122f1565b156111c9576040517f08c379a00000000000000000000000000000000000000000000000000000000081526004016111c090613fd4565b60405180910390fd5b600360009054906101000a900473ffffffffffffffffffffffffffffffffffffffff1673ffffffffffffffffffffffffffffffffffffffff16638553c3e9836040518263ffffffff1660e01b81526004016112249190613dba565b602060405180830381865afa158015611241573d6000803e3d6000fd5b505050506040513d601f19601f820116820180604052508101906112659190614020565b6112a4576040517f08c379a000000000000000000000000000000000000000000000000000000000815260040161129b906140bf565b60405180910390fd5b6112ac6122e9565b73ffffffffffffffffffffffffffffffffffffffff16600360009054906101000a900473ffffffffffffffffffffffffffffffffffffffff1673ffffffffffffffffffffffffffffffffffffffff16636352211e846040518263ffffffff1660e01b815260040161131d9190613dba565b602060405180830381865afa15801561133a573d6000803e3d6000fd5b505050506040513d601f19601f8201168201806040525081019061135e91906140f4565b73ffffffffffffffffffffffffffffffffffffffff16146113b4576040517f08c379a00000000000000000000000000000000000000000000000000000000081526004016113ab90614193565b60405180910390fd5b600260009054906101000a900473ffffffffffffffffffffffffffffffffffffffff1673ffffffffffffffffffffffffffffffffffffffff1663b21536e6836040518263ffffffff1660e01b815260040161140f9190613dba565b602060405180830381865afa15801561142c573d6000803e3d6000fd5b505050506040513d601f19601f8201168201806040525081019061145091906142c6565b8111611491576040517f08c379a00000000000000000000000000000000000000000000000000000000081526004016114889061453a565b60405180910390fd5b600260009054906101000a900473ffffffffffffffffffffffffffffffffffffffff1673ffffffffffffffffffffffffffffffffffffffff1663eafcfb9983836040518363ffffffff1660e01b81526004016114ee92919061455a565b600060405180830381600087803b15801561150857600080fd5b505af115801561151c573d6000803e3d6000fd5b505050506115286122e9565b73ffffffffffffffffffffffffffffffffffffffff16827f7b2dffcb79001644d1437f723fadb7a701393cae02c2501b25423fc37bb424be600260009054906101000a900473ffffffffffffffffffffffffffffffffffffffff1673ffffffffffffffffffffffffffffffffffffffff16639980ec86866040518263ffffffff1660e01b81526004016115bb9190613dba565b602060405180830381865afa1580156115d8573d6000803e3d6000fd5b505050506040513d601f19601f820116820180604052508101906115fc91906142c6565b600260009054906101000a900473ffffffffffffffffffffffffffffffffffffffff1673ffffffffffffffffffffffffffffffffffffffff1663a07e5199876040518263ffffffff1660e01b81526004016116579190613dba565b602060405180830381865afa158015611674573d6000803e3d6000fd5b505050506040513d601f19601f8201168201806040525081019061169891906140f4565b600260009054906101000a900473ffffffffffffffffffffffffffffffffffffffff1673ffffffffffffffffffffffffffffffffffffffff166314ff5ea3886040518263ffffffff1660e01b81526004016116f39190613dba565b602060405180830381865afa158015611710573d6000803e3d6000fd5b505050506040513d601f19601f8201168201806040525081019061173491906142c6565b600260009054906101000a900473ffffffffffffffffffffffffffffffffffffffff1673ffffffffffffffffffffffffffffffffffffffff166376aed2e1896040518263ffffffff1660e01b815260040161178f9190613dba565b602060405180830381865afa1580156117ac573d6000803e3d6000fd5b505050506040513d601f19601f820116820180604052508101906117d091906143e2565b876040516117e2959493929190614583565b60405180910390a35050565b60606040518060600160405280603f815260200161523a603f9139905090565b6118166122e9565b73ffffffffffffffffffffffffffffffffffffffff16611834611e71565b73ffffffffffffffffffffffffffffffffffffffff161461188a576040517f08c379a000000000000000000000000000000000000000000000000000000000815260040161188190614622565b60405180910390fd5b600260009054906101000a900473ffffffffffffffffffffffffffffffffffffffff1673ffffffffffffffffffffffffffffffffffffffff16631c3eeaac8484846040518463ffffffff1660e01b81526004016118e993929190614642565b600060405180830381600087803b15801561190357600080fd5b505af1158015611917573d6000803e3d6000fd5b50505050600360009054906101000a900473ffffffffffffffffffffffffffffffffffffffff1673ffffffffffffffffffffffffffffffffffffffff16631c3eeaac8484846040518463ffffffff1660e01b815260040161197a93929190614642565b600060405180830381600087803b15801561199457600080fd5b505af11580156119a8573d6000803e3d6000fd5b505050506119b783838361236e565b505050565b6119c46122e9565b73ffffffffffffffffffffffffffffffffffffffff166119e2611e71565b73ffffffffffffffffffffffffffffffffffffffff1614611a38576040517f08c379a0000000000000000000000000000000000000000000000000000000008152600401611a2f90614622565b60405180910390fd5b600360009054906101000a900473ffffffffffffffffffffffffffffffffffffffff1673ffffffffffffffffffffffffffffffffffffffff16634a3b889a83836040518363ffffffff1660e01b8152600401611a959291906146b5565b600060405180830381600087803b158015611aaf57600080fd5b505af1158015611ac3573d6000803e3d6000fd5b505050505050565b611ad36122e9565b73ffffffffffffffffffffffffffffffffffffffff16611af1611e71565b73ffffffffffffffffffffffffffffffffffffffff1614611b47576040517f08c379a0000000000000000000000000000000000000000000000000000000008152600401611b3e90614622565b60405180910390fd5b600360009054906101000a900473ffffffffffffffffffffffffffffffffffffffff1673ffffffffffffffffffffffffffffffffffffffff166358ee71738484846040518463ffffffff1660e01b8152600401611ba6939291906146d9565b600060405180830381600087803b158015611bc057600080fd5b505af1158015611bd4573d6000803e3d6000fd5b50505050505050565b611be56122e9565b73ffffffffffffffffffffffffffffffffffffffff16611c03611e71565b73ffffffffffffffffffffffffffffffffffffffff1614611c59576040517f08c379a0000000000000000000000000000000000000000000000000000000008152600401611c5090614622565b60405180910390fd5b600260009054906101000a900473ffffffffffffffffffffffffffffffffffffffff1673ffffffffffffffffffffffffffffffffffffffff166364e719246040518163ffffffff1660e01b8152600401600060405180830381600087803b158015611cc357600080fd5b505af1158015611cd7573d6000803e3d6000fd5b50505050600360009054906101000a900473ffffffffffffffffffffffffffffffffffffffff1673ffffffffffffffffffffffffffffffffffffffff166364e719246040518163ffffffff1660e01b8152600401600060405180830381600087803b158015611d4557600080fd5b505af1158015611d59573d6000803e3d6000fd5b50505050600460009054906101000a900473ffffffffffffffffffffffffffffffffffffffff1673ffffffffffffffffffffffffffffffffffffffff166364e719246040518163ffffffff1660e01b8152600401600060405180830381600087803b158015611dc757600080fd5b505af1158015611ddb573d6000803e3d6000fd5b50505050611de761249f565b565b611df16122e9565b73ffffffffffffffffffffffffffffffffffffffff16611e0f611e71565b73ffffffffffffffffffffffffffffffffffffffff1614611e65576040517f08c379a0000000000000000000000000000000000000000000000000000000008152600401611e5c90614622565b60405180910390fd5b611e6f600061256b565b565b60008060009054906101000a900473ffffffffffffffffffffffffffffffffffffffff16905090565b600060026001541415611ee2576040517f08c379a0000000000000000000000000000000000000000000000000000000008152600401611ed990613f42565b60405180910390fd5b6002600181905550611f10611ef56122e9565b73ffffffffffffffffffffffffffffffffffffffff166122f1565b15611f50576040517f08c379a0000000000000000000000000000000000000000000000000000000008152600401611f4790613fd4565b60405180910390fd5b8560016003811115611f6557611f64613dd5565b5b816003811115611f7857611f77613dd5565b5b1480611fa8575060026003811115611f9357611f92613dd5565b5b816003811115611fa657611fa5613dd5565b5b145b80611fd65750600380811115611fc157611fc0613dd5565b5b816003811115611fd457611fd3613dd5565b5b145b612015576040517f08c379a000000000000000000000000000000000000000000000000000000000815260040161200c906147a3565b60405180910390fd5b428311612057576040517f08c379a000000000000000000000000000000000000000000000000000000000815260040161204e90614835565b60405180910390fd5b6001600381111561206b5761206a613dd5565b5b87600381111561207e5761207d613dd5565b5b1415612097576120908686868661262f565b9150612119565b600260038111156120ab576120aa613dd5565b5b8760038111156120be576120bd613dd5565b5b14156120d6576120cf868585612a42565b9150612119565b6003808111156120e9576120e8613dd5565b5b8760038111156120fc576120fb613dd5565b5b14156121145761210d868685612e14565b9150612119565b600091505b506001808190555095945050505050565b60006060600080600060606000600260009054906101000a900473ffffffffffffffffffffffffffffffffffffffff1673ffffffffffffffffffffffffffffffffffffffff1663ce88b145896040518263ffffffff1660e01b81526004016121929190613dba565b600060405180830381865afa1580156121af573d6000803e3d6000fd5b505050506040513d6000823e3d601f19601f820116820180604052508101906121d89190614976565b9650965096509650965096509650919395979092949650565b6121f96122e9565b73ffffffffffffffffffffffffffffffffffffffff16612217611e71565b73ffffffffffffffffffffffffffffffffffffffff161461226d576040517f08c379a000000000000000000000000000000000000000000000000000000000815260040161226490614622565b60405180910390fd5b600073ffffffffffffffffffffffffffffffffffffffff168173ffffffffffffffffffffffffffffffffffffffff1614156122dd576040517f08c379a00000000000000000000000000000000000000000000000000000000081526004016122d490614ac2565b60405180910390fd5b6122e68161256b565b50565b600033905090565b600080823b905060008111915050919050565b60007f01ffc9a7000000000000000000000000000000000000000000000000000000007bffffffffffffffffffffffffffffffffffffffffffffffffffffffff1916827bffffffffffffffffffffffffffffffffffffffffffffffffffffffff1916149050919050565b6123766122e9565b73ffffffffffffffffffffffffffffffffffffffff16612394611e71565b73ffffffffffffffffffffffffffffffffffffffff16146123ea576040517f08c379a00000000000000000000000000000000000000000000000000000000081526004016123e190614622565b60405180910390fd5b600160038111156123fe576123fd613dd5565b5b83600381111561241157612410613dd5565b5b1415612426576124218282613233565b61249a565b6002600381111561243a57612439613dd5565b5b83600381111561244d5761244c613dd5565b5b14156124615761245c82613329565b612499565b60038081111561247457612473613dd5565b5b83600381111561248757612486613dd5565b5b14156124985761249782826133d7565b5b5b5b505050565b6124a76122e9565b73ffffffffffffffffffffffffffffffffffffffff166124c5611e71565b73ffffffffffffffffffffffffffffffffffffffff161461251b576040517f08c379a000000000000000000000000000000000000000000000000000000000815260040161251290614622565b60405180910390fd5b612523611e71565b73ffffffffffffffffffffffffffffffffffffffff166108fc479081150290604051600060405180830381858888f19350505050158015612568573d6000803e3d6000fd5b50565b60008060009054906101000a900473ffffffffffffffffffffffffffffffffffffffff169050816000806101000a81548173ffffffffffffffffffffffffffffffffffffffff021916908373ffffffffffffffffffffffffffffffffffffffff1602179055508173ffffffffffffffffffffffffffffffffffffffff168173ffffffffffffffffffffffffffffffffffffffff167f8be0079c531659141344cd1fd0a4f28419497f9722a3daafe3b4186f6b6457e060405160405180910390a35050565b6000808311612673576040517f08c379a000000000000000000000000000000000000000000000000000000000815260040161266a90614b2e565b60405180910390fd5b828573ffffffffffffffffffffffffffffffffffffffff1662fdd58e6126976122e9565b876040518363ffffffff1660e01b81526004016126b5929190614b4e565b602060405180830381865afa1580156126d2573d6000803e3d6000fd5b505050506040513d601f19601f820116820180604052508101906126f691906142c6565b1015612737576040517f08c379a000000000000000000000000000000000000000000000000000000000815260040161272e90614be9565b60405180910390fd5b8473ffffffffffffffffffffffffffffffffffffffff1663e985e9c561275b6122e9565b306040518363ffffffff1660e01b8152600401612779929190614c09565b602060405180830381865afa158015612796573d6000803e3d6000fd5b505050506040513d601f19601f820116820180604052508101906127ba9190614020565b6127f9576040517f08c379a00000000000000000000000000000000000000000000000000000000081526004016127f090614ca4565b60405180910390fd5b612807838686600186613451565b90508473ffffffffffffffffffffffffffffffffffffffff1663f242432a61282d6122e9565b600460009054906101000a900473ffffffffffffffffffffffffffffffffffffffff1687876040518563ffffffff1660e01b81526004016128719493929190614d50565b600060405180830381600087803b15801561288b57600080fd5b505af115801561289f573d6000803e3d6000fd5b50505050600360009054906101000a900473ffffffffffffffffffffffffffffffffffffffff1673ffffffffffffffffffffffffffffffffffffffff1663478d8d606128e96122e9565b83600260009054906101000a900473ffffffffffffffffffffffffffffffffffffffff1673ffffffffffffffffffffffffffffffffffffffff16638ad91345866040518263ffffffff1660e01b81526004016129459190613dba565b600060405180830381865afa158015612962573d6000803e3d6000fd5b505050506040513d6000823e3d601f19601f8201168201806040525081019061298b9190614da8565b6040518463ffffffff1660e01b81526004016129a993929190614df1565b600060405180830381600087803b1580156129c357600080fd5b505af11580156129d7573d6000803e3d6000fd5b505050506129e36122e9565b73ffffffffffffffffffffffffffffffffffffffff16817f7b2dffcb79001644d1437f723fadb7a701393cae02c2501b25423fc37bb424be858888600188604051612a32959493929190614583565b60405180910390a3949350505050565b6000808311612a86576040517f08c379a0000000000000000000000000000000000000000000000000000000008152600401612a7d90614b2e565b60405180910390fd5b828473ffffffffffffffffffffffffffffffffffffffff166370a08231612aab6122e9565b6040518263ffffffff1660e01b8152600401612ac79190613d15565b602060405180830381865afa158015612ae4573d6000803e3d6000fd5b505050506040513d601f19601f82011682018060405250810190612b0891906142c6565b1015612b49576040517f08c379a0000000000000000000000000000000000000000000000000000000008152600401612b4090614be9565b60405180910390fd5b828473ffffffffffffffffffffffffffffffffffffffff1663dd62ed3e612b6e6122e9565b306040518363ffffffff1660e01b8152600401612b8c929190614c09565b602060405180830381865afa158015612ba9573d6000803e3d6000fd5b505050506040513d601f19601f82011682018060405250810190612bcd91906142c6565b1015612c0e576040517f08c379a0000000000000000000000000000000000000000000000000000000008152600401612c0590614225565b60405180910390fd5b612c1d83856000600286613451565b9050612c75612c2a6122e9565b600460009054906101000a900473ffffffffffffffffffffffffffffffffffffffff16858773ffffffffffffffffffffffffffffffffffffffff16613588909392919063ffffffff16565b600360009054906101000a900473ffffffffffffffffffffffffffffffffffffffff1673ffffffffffffffffffffffffffffffffffffffff1663478d8d60612cbb6122e9565b83600260009054906101000a900473ffffffffffffffffffffffffffffffffffffffff1673ffffffffffffffffffffffffffffffffffffffff16638ad91345866040518263ffffffff1660e01b8152600401612d179190613dba565b600060405180830381865afa158015612d34573d6000803e3d6000fd5b505050506040513d6000823e3d601f19601f82011682018060405250810190612d5d9190614da8565b6040518463ffffffff1660e01b8152600401612d7b93929190614df1565b600060405180830381600087803b158015612d9557600080fd5b505af1158015612da9573d6000803e3d6000fd5b50505050612db56122e9565b73ffffffffffffffffffffffffffffffffffffffff16817f7b2dffcb79001644d1437f723fadb7a701393cae02c2501b25423fc37bb424be85876000600288604051612e05959493929190614e2f565b60405180910390a39392505050565b6000612e1e6122e9565b73ffffffffffffffffffffffffffffffffffffffff168473ffffffffffffffffffffffffffffffffffffffff16636352211e856040518263ffffffff1660e01b8152600401612e6d9190613dba565b602060405180830381865afa158015612e8a573d6000803e3d6000fd5b505050506040513d601f19601f82011682018060405250810190612eae91906140f4565b73ffffffffffffffffffffffffffffffffffffffff1614612f04576040517f08c379a0000000000000000000000000000000000000000000000000000000008152600401612efb90614ece565b60405180910390fd5b3073ffffffffffffffffffffffffffffffffffffffff168473ffffffffffffffffffffffffffffffffffffffff1663081812fc856040518263ffffffff1660e01b8152600401612f549190613dba565b602060405180830381865afa158015612f71573d6000803e3d6000fd5b505050506040513d601f19601f82011682018060405250810190612f9591906140f4565b73ffffffffffffffffffffffffffffffffffffffff1614612feb576040517f08c379a0000000000000000000000000000000000000000000000000000000008152600401612fe290614225565b60405180910390fd5b612ffa60018585600386613451565b90508373ffffffffffffffffffffffffffffffffffffffff166342842e0e6130206122e9565b600460009054906101000a900473ffffffffffffffffffffffffffffffffffffffff16866040518463ffffffff1660e01b815260040161306293929190614eee565b600060405180830381600087803b15801561307c57600080fd5b505af1158015613090573d6000803e3d6000fd5b50505050600360009054906101000a900473ffffffffffffffffffffffffffffffffffffffff1673ffffffffffffffffffffffffffffffffffffffff1663478d8d606130da6122e9565b83600260009054906101000a900473ffffffffffffffffffffffffffffffffffffffff1673ffffffffffffffffffffffffffffffffffffffff16638ad91345866040518263ffffffff1660e01b81526004016131369190613dba565b600060405180830381865afa158015613153573d6000803e3d6000fd5b505050506040513d6000823e3d601f19601f8201168201806040525081019061317c9190614da8565b6040518463ffffffff1660e01b815260040161319a93929190614df1565b600060405180830381600087803b1580156131b457600080fd5b505af11580156131c8573d6000803e3d6000fd5b505050506131d46122e9565b73ffffffffffffffffffffffffffffffffffffffff16817f7b2dffcb79001644d1437f723fadb7a701393cae02c2501b25423fc37bb424be60018787600388604051613224959493929190614f60565b60405180910390a39392505050565b8173ffffffffffffffffffffffffffffffffffffffff1663f242432a30613258611e71565b848673ffffffffffffffffffffffffffffffffffffffff1662fdd58e30886040518363ffffffff1660e01b8152600401613293929190614b4e565b602060405180830381865afa1580156132b0573d6000803e3d6000fd5b505050506040513d601f19601f820116820180604052508101906132d491906142c6565b6040518563ffffffff1660e01b81526004016132f39493929190614d50565b600060405180830381600087803b15801561330d57600080fd5b505af1158015613321573d6000803e3d6000fd5b505050505050565b6133d4613334611e71565b8273ffffffffffffffffffffffffffffffffffffffff166370a08231306040518263ffffffff1660e01b815260040161336d9190613d15565b602060405180830381865afa15801561338a573d6000803e3d6000fd5b505050506040513d601f19601f820116820180604052508101906133ae91906142c6565b8373ffffffffffffffffffffffffffffffffffffffff166136119092919063ffffffff16565b50565b8173ffffffffffffffffffffffffffffffffffffffff166342842e0e306133fc611e71565b846040518463ffffffff1660e01b815260040161341b93929190614eee565b600060405180830381600087803b15801561343557600080fd5b505af1158015613449573d6000803e3d6000fd5b505050505050565b6000600360009054906101000a900473ffffffffffffffffffffffffffffffffffffffff1673ffffffffffffffffffffffffffffffffffffffff1663453830996040518163ffffffff1660e01b81526004016020604051808303816000875af11580156134c2573d6000803e3d6000fd5b505050506040513d601f19601f820116820180604052508101906134e691906142c6565b9050600260009054906101000a900473ffffffffffffffffffffffffffffffffffffffff1673ffffffffffffffffffffffffffffffffffffffff1663404ff5cd8288888888886040518763ffffffff1660e01b815260040161354d96959493929190614fb3565b600060405180830381600087803b15801561356757600080fd5b505af115801561357b573d6000803e3d6000fd5b5050505095945050505050565b61360b846323b872dd60e01b8585856040516024016135a993929190615014565b604051602081830303815290604052907bffffffffffffffffffffffffffffffffffffffffffffffffffffffff19166020820180517bffffffffffffffffffffffffffffffffffffffffffffffffffffffff8381831617835250505050613697565b50505050565b6136928363a9059cbb60e01b8484604051602401613630929190614b4e565b604051602081830303815290604052907bffffffffffffffffffffffffffffffffffffffffffffffffffffffff19166020820180517bffffffffffffffffffffffffffffffffffffffffffffffffffffffff8381831617835250505050613697565b505050565b60006136f9826040518060400160405280602081526020017f5361666545524332303a206c6f772d6c6576656c2063616c6c206661696c65648152508573ffffffffffffffffffffffffffffffffffffffff1661375e9092919063ffffffff16565b905060008151111561375957808060200190518101906137199190614020565b613758576040517f08c379a000000000000000000000000000000000000000000000000000000000815260040161374f906150bd565b60405180910390fd5b5b505050565b606061376d8484600085613776565b90509392505050565b6060824710156137bb576040517f08c379a00000000000000000000000000000000000000000000000000000000081526004016137b29061514f565b60405180910390fd5b6137c4856122f1565b613803576040517f08c379a00000000000000000000000000000000000000000000000000000000081526004016137fa906151bb565b60405180910390fd5b6000808673ffffffffffffffffffffffffffffffffffffffff16858760405161382c9190615222565b60006040518083038185875af1925050503d8060008114613869576040519150601f19603f3d011682016040523d82523d6000602084013e61386e565b606091505b509150915061387e82828661388a565b92505050949350505050565b6060831561389a578290506138ea565b6000835111156138ad5782518084602001fd5b816040517f08c379a00000000000000000000000000000000000000000000000000000000081526004016138e19190613afc565b60405180910390fd5b9392505050565b6000604051905090565b600080fd5b600080fd5b6000819050919050565b61391881613905565b811461392357600080fd5b50565b6000813590506139358161390f565b92915050565b600060208284031215613951576139506138fb565b5b600061395f84828501613926565b91505092915050565b60007fffffffff0000000000000000000000000000000000000000000000000000000082169050919050565b61399d81613968565b81146139a857600080fd5b50565b6000813590506139ba81613994565b92915050565b6000602082840312156139d6576139d56138fb565b5b60006139e4848285016139ab565b91505092915050565b60008115159050919050565b613a02816139ed565b82525050565b6000602082019050613a1d60008301846139f9565b92915050565b60008060408385031215613a3a57613a396138fb565b5b6000613a4885828601613926565b9250506020613a5985828601613926565b9150509250929050565b600081519050919050565b600082825260208201905092915050565b60005b83811015613a9d578082015181840152602081019050613a82565b83811115613aac576000848401525b50505050565b6000601f19601f8301169050919050565b6000613ace82613a63565b613ad88185613a6e565b9350613ae8818560208601613a7f565b613af181613ab2565b840191505092915050565b60006020820190508181036000830152613b168184613ac3565b905092915050565b60048110613b2b57600080fd5b50565b600081359050613b3d81613b1e565b92915050565b600073ffffffffffffffffffffffffffffffffffffffff82169050919050565b6000613b6e82613b43565b9050919050565b613b7e81613b63565b8114613b8957600080fd5b50565b600081359050613b9b81613b75565b92915050565b600080600060608486031215613bba57613bb96138fb565b5b6000613bc886828701613b2e565b9350506020613bd986828701613b8c565b9250506040613bea86828701613926565b9150509250925092565b600080fd5b600080fd5b600080fd5b60008083601f840112613c1957613c18613bf4565b5b8235905067ffffffffffffffff811115613c3657613c35613bf9565b5b602083019150836001820283011115613c5257613c51613bfe565b5b9250929050565b60008060208385031215613c7057613c6f6138fb565b5b600083013567ffffffffffffffff811115613c8e57613c8d613900565b5b613c9a85828601613c03565b92509250509250929050565b600080600060408486031215613cbf57613cbe6138fb565b5b6000613ccd86828701613926565b935050602084013567ffffffffffffffff811115613cee57613ced613900565b5b613cfa86828701613c03565b92509250509250925092565b613d0f81613b63565b82525050565b6000602082019050613d2a6000830184613d06565b92915050565b600080600080600060a08688031215613d4c57613d4b6138fb565b5b6000613d5a88828901613b2e565b9550506020613d6b88828901613b8c565b9450506040613d7c88828901613926565b9350506060613d8d88828901613926565b9250506080613d9e88828901613926565b9150509295509295909350565b613db481613905565b82525050565b6000602082019050613dcf6000830184613dab565b92915050565b7f4e487b7100000000000000000000000000000000000000000000000000000000600052602160045260246000fd5b60048110613e1557613e14613dd5565b5b50565b6000819050613e2682613e04565b919050565b6000613e3682613e18565b9050919050565b613e4681613e2b565b82525050565b600060e082019050613e61600083018a613dab565b8181036020830152613e738189613ac3565b9050613e826040830188613d06565b613e8f6060830187613dab565b613e9c6080830186613e3d565b81810360a0830152613eae8185613ac3565b9050613ebd60c0830184613dab565b98975050505050505050565b600060208284031215613edf57613ede6138fb565b5b6000613eed84828501613b8c565b91505092915050565b7f5265656e7472616e637947756172643a207265656e7472616e742063616c6c00600082015250565b6000613f2c601f83613a6e565b9150613f3782613ef6565b602082019050919050565b60006020820190508181036000830152613f5b81613f1f565b9050919050565b7f43616c6c65722063616e6e6f74206265206120736d61727420636f6e7472616360008201527f7400000000000000000000000000000000000000000000000000000000000000602082015250565b6000613fbe602183613a6e565b9150613fc982613f62565b604082019050919050565b60006020820190508181036000830152613fed81613fb1565b9050919050565b613ffd816139ed565b811461400857600080fd5b50565b60008151905061401a81613ff4565b92915050565b600060208284031215614036576140356138fb565b5b60006140448482850161400b565b91505092915050565b7f546f6b656e20666f7220606163636f756e7449646020646f6573206e6f74206560008201527f7869737400000000000000000000000000000000000000000000000000000000602082015250565b60006140a9602483613a6e565b91506140b48261404d565b604082019050919050565b600060208201905081810360008301526140d88161409c565b9050919050565b6000815190506140ee81613b75565b92915050565b60006020828403121561410a576141096138fb565b5b6000614118848285016140df565b91505092915050565b7f4e6f7420746865206f776e6572206f66207468697320606163636f756e74496460008201527f6000000000000000000000000000000000000000000000000000000000000000602082015250565b600061417d602183613a6e565b915061418882614121565b604082019050919050565b600060208201905081810360008301526141ac81614170565b9050919050565b7f4e6f7420617070726f7665642c20796f75206d7573742063616c6c2060746f6b60008201527f656e2e617070726f766528296000000000000000000000000000000000000000602082015250565b600061420f602d83613a6e565b915061421a826141b3565b604082019050919050565b6000602082019050818103600083015261423e81614202565b9050919050565b7f60756e6c6f636b54696d6560206e6f7420657870697265640000000000000000600082015250565b600061427b601883613a6e565b915061428682614245565b602082019050919050565b600060208201905081810360008301526142aa8161426e565b9050919050565b6000815190506142c08161390f565b92915050565b6000602082840312156142dc576142db6138fb565b5b60006142ea848285016142b1565b91505092915050565b7f4163636f756e7420686173206e6f2062616c616e636500000000000000000000600082015250565b6000614329601683613a6e565b9150614334826142f3565b602082019050919050565b600060208201905081810360008301526143588161431c565b9050919050565b6000819050919050565b6000819050919050565b600061438e6143896143848461435f565b614369565b613905565b9050919050565b61439e81614373565b82525050565b60006040820190506143b96000830185613dab565b6143c66020830184614395565b9392505050565b6000815190506143dc81613b1e565b92915050565b6000602082840312156143f8576143f76138fb565b5b6000614406848285016143cd565b91505092915050565b600061441a82613b43565b9050919050565b61442a8161440f565b82525050565b600060a0820190506144456000830188613e3d565b6144526020830187613d06565b61445f6040830186614421565b61446c6060830185613dab565b6144796080830184613dab565b9695505050505050565b60006080820190506144986000830187613dab565b6144a56020830186613d06565b6144b26040830185613dab565b6144bf6060830184613e3d565b95945050505050565b7f4e65772060756e6c6f636b54696d6560206d757374206265203e20746865206560008201527f78697374696e672060756e6c6f636b54696d6560000000000000000000000000602082015250565b6000614524603483613a6e565b915061452f826144c8565b604082019050919050565b6000602082019050818103600083015261455381614517565b9050919050565b600060408201905061456f6000830185613dab565b61457c6020830184613dab565b9392505050565b600060a0820190506145986000830188613dab565b6145a56020830187613d06565b6145b26040830186613dab565b6145bf6060830185613e3d565b6145cc6080830184613dab565b9695505050505050565b7f4f776e61626c653a2063616c6c6572206973206e6f7420746865206f776e6572600082015250565b600061460c602083613a6e565b9150614617826145d6565b602082019050919050565b6000602082019050818103600083015261463b816145ff565b9050919050565b60006060820190506146576000830186613e3d565b6146646020830185613d06565b6146716040830184613dab565b949350505050565b82818337600083830152505050565b60006146948385613a6e565b93506146a1838584614679565b6146aa83613ab2565b840190509392505050565b600060208201905081810360008301526146d0818486614688565b90509392505050565b60006040820190506146ee6000830186613dab565b8181036020830152614701818486614688565b9050949350505050565b7f60746f6b656e5479706560206d75737420726570726573656e7420612073757060008201527f706f7274656420746f6b656e3a203120666f7220455243313135352c2032206660208201527f6f722045524332302c206f72203320666f722045524337323100000000000000604082015250565b600061478d605983613a6e565b91506147988261470b565b606082019050919050565b600060208201905081810360008301526147bc81614780565b9050919050565b7f60756e6c6f636b54696d6560206d75737420626520696e20746865206675747560008201527f7265000000000000000000000000000000000000000000000000000000000000602082015250565b600061481f602283613a6e565b915061482a826147c3565b604082019050919050565b6000602082019050818103600083015261484e81614812565b9050919050565b600080fd5b7f4e487b7100000000000000000000000000000000000000000000000000000000600052604160045260246000fd5b61489282613ab2565b810181811067ffffffffffffffff821117156148b1576148b061485a565b5b80604052505050565b60006148c46138f1565b90506148d08282614889565b919050565b600067ffffffffffffffff8211156148f0576148ef61485a565b5b6148f982613ab2565b9050602081019050919050565b6000614919614914846148d5565b6148ba565b90508281526020810184848401111561493557614934614855565b5b614940848285613a7f565b509392505050565b600082601f83011261495d5761495c613bf4565b5b815161496d848260208601614906565b91505092915050565b600080600080600080600060e0888a031215614995576149946138fb565b5b60006149a38a828b016142b1565b975050602088015167ffffffffffffffff8111156149c4576149c3613900565b5b6149d08a828b01614948565b96505060406149e18a828b016140df565b95505060606149f28a828b016142b1565b9450506080614a038a828b016143cd565b93505060a088015167ffffffffffffffff811115614a2457614a23613900565b5b614a308a828b01614948565b92505060c0614a418a828b016142b1565b91505092959891949750929550565b7f4f776e61626c653a206e6577206f776e657220697320746865207a65726f206160008201527f6464726573730000000000000000000000000000000000000000000000000000602082015250565b6000614aac602683613a6e565b9150614ab782614a50565b604082019050919050565b60006020820190508181036000830152614adb81614a9f565b9050919050565b7f60616d6f756e7460206d757374206265203e2030000000000000000000000000600082015250565b6000614b18601483613a6e565b9150614b2382614ae2565b602082019050919050565b60006020820190508181036000830152614b4781614b0b565b9050919050565b6000604082019050614b636000830185613d06565b614b706020830184613dab565b9392505050565b7f60616d6f756e7460206d757374206265203c3d20746f74616c20746f6b656e2060008201527f62616c616e636500000000000000000000000000000000000000000000000000602082015250565b6000614bd3602783613a6e565b9150614bde82614b77565b604082019050919050565b60006020820190508181036000830152614c0281614bc6565b9050919050565b6000604082019050614c1e6000830185613d06565b614c2b6020830184613d06565b9392505050565b7f4e6f7420617070726f7665642c20796f75206d7573742063616c6c2060746f6b60008201527f656e2e736574417070726f76616c466f72416c6c282960000000000000000000602082015250565b6000614c8e603783613a6e565b9150614c9982614c32565b604082019050919050565b60006020820190508181036000830152614cbd81614c81565b9050919050565b6000614cdf614cda614cd584613b43565b614369565b613b43565b9050919050565b6000614cf182614cc4565b9050919050565b6000614d0382614ce6565b9050919050565b614d1381614cf8565b82525050565b600082825260208201905092915050565b50565b6000614d3a600083614d19565b9150614d4582614d2a565b600082019050919050565b600060a082019050614d656000830187613d06565b614d726020830186614d0a565b614d7f6040830185613dab565b614d8c6060830184613dab565b8181036080830152614d9d81614d2d565b905095945050505050565b600060208284031215614dbe57614dbd6138fb565b5b600082015167ffffffffffffffff811115614ddc57614ddb613900565b5b614de884828501614948565b91505092915050565b6000606082019050614e066000830186614421565b614e136020830185613dab565b8181036040830152614e258184613ac3565b9050949350505050565b600060a082019050614e446000830188613dab565b614e516020830187613d06565b614e5e6040830186614395565b614e6b6060830185613e3d565b614e786080830184613dab565b9695505050505050565b7f60746f6b656e496460206e6f74206f776e65642062792063616c6c6572000000600082015250565b6000614eb8601d83613a6e565b9150614ec382614e82565b602082019050919050565b60006020820190508181036000830152614ee781614eab565b9050919050565b6000606082019050614f036000830186613d06565b614f106020830185614d0a565b614f1d6040830184613dab565b949350505050565b6000819050919050565b6000614f4a614f45614f4084614f25565b614369565b613905565b9050919050565b614f5a81614f2f565b82525050565b600060a082019050614f756000830188614f51565b614f826020830187613d06565b614f8f6040830186613dab565b614f9c6060830185613e3d565b614fa96080830184613dab565b9695505050505050565b600060c082019050614fc86000830189613dab565b614fd56020830188613dab565b614fe26040830187613d06565b614fef6060830186613dab565b614ffc6080830185613e3d565b61500960a0830184613dab565b979650505050505050565b60006060820190506150296000830186613d06565b6150366020830185613d06565b6150436040830184613dab565b949350505050565b7f5361666545524332303a204552433230206f7065726174696f6e20646964206e60008201527f6f74207375636365656400000000000000000000000000000000000000000000602082015250565b60006150a7602a83613a6e565b91506150b28261504b565b604082019050919050565b600060208201905081810360008301526150d68161509a565b9050919050565b7f416464726573733a20696e73756666696369656e742062616c616e636520666f60008201527f722063616c6c0000000000000000000000000000000000000000000000000000602082015250565b6000615139602683613a6e565b9150615144826150dd565b604082019050919050565b600060208201905081810360008301526151688161512c565b9050919050565b7f416464726573733a2063616c6c20746f206e6f6e2d636f6e7472616374000000600082015250565b60006151a5601d83613a6e565b91506151b08261516f565b602082019050919050565b600060208201905081810360008301526151d481615198565b9050919050565b600081519050919050565b600081905092915050565b60006151fc826151db565b61520681856151e6565b9350615216818560208601613a7f565b80840191505092915050565b600061522e82846151f1565b91508190509291505056fe5477696c6967687420537061726b6c6520697320746865206375746573742c20736d6172746573742c20616c6c2061726f756e64206265737420706f6e7921a26469706673582212202670c4846ed857243eab4e56932a3c6e96bb6a5ad37559b42b556523d661241c64736f6c634300080a003360806040523480156200001157600080fd5b5062000032620000266200003860201b60201c565b6200004060201b60201c565b62000104565b600033905090565b60008060009054906101000a900473ffffffffffffffffffffffffffffffffffffffff169050816000806101000a81548173ffffffffffffffffffffffffffffffffffffffff021916908373ffffffffffffffffffffffffffffffffffffffff1602179055508173ffffffffffffffffffffffffffffffffffffffff168173ffffffffffffffffffffffffffffffffffffffff167f8be0079c531659141344cd1fd0a4f28419497f9722a3daafe3b4186f6b6457e060405160405180910390a35050565b613ba380620001146000396000f3fe6080604052600436106101145760003560e01c806376aed2e1116100a0578063a574cea411610064578063a574cea4146103b6578063b21536e6146103f3578063ce88b14514610430578063eafcfb9914610473578063f2fde38b1461049c57610114565b806376aed2e1146102975780638ad91345146102d45780638da5cb5b146103115780639980ec861461033c578063a07e51991461037957610114565b80631c3eeaac116100e75780631c3eeaac146101e7578063404ff5cd1461021057806364e7192414610239578063715018a61461024357806372abc8b71461025a57610114565b806301ffc9a71461011957806314ff5ea31461015657806317e4c78c1461019357806319511a7a146101bc575b600080fd5b34801561012557600080fd5b50610140600480360381019061013b919061279e565b6104c5565b60405161014d91906127e6565b60405180910390f35b34801561016257600080fd5b5061017d60048036038101906101789190612837565b6106df565b60405161018a9190612873565b60405180910390f35b34801561019f57600080fd5b506101ba60048036038101906101b5919061288e565b6106ff565b005b3480156101c857600080fd5b506101d161079a565b6040516101de9190612967565b60405180910390f35b3480156101f357600080fd5b5061020e60048036038101906102099190612a0c565b6107ba565b005b34801561021c57600080fd5b5061023760048036038101906102329190612a5f565b6108eb565b005b610241610d24565b005b34801561024f57600080fd5b50610258610df0565b005b34801561026657600080fd5b50610281600480360381019061027c9190612837565b610e78565b60405161028e91906127e6565b60405180910390f35b3480156102a357600080fd5b506102be60048036038101906102b99190612837565b610e9b565b6040516102cb9190612b63565b60405180910390f35b3480156102e057600080fd5b506102fb60048036038101906102f69190612837565b610ec8565b6040516103089190612967565b60405180910390f35b34801561031d57600080fd5b50610326610f70565b6040516103339190612b8d565b60405180910390f35b34801561034857600080fd5b50610363600480360381019061035e9190612837565b610f99565b6040516103709190612873565b60405180910390f35b34801561038557600080fd5b506103a0600480360381019061039b9190612837565b610fb9565b6040516103ad9190612b8d565b60405180910390f35b3480156103c257600080fd5b506103dd60048036038101906103d89190612837565b610ff9565b6040516103ea9190612967565b60405180910390f35b3480156103ff57600080fd5b5061041a60048036038101906104159190612837565b6110a1565b6040516104279190612873565b60405180910390f35b34801561043c57600080fd5b5061045760048036038101906104529190612837565b6110c1565b60405161046a9796959493929190612ba8565b60405180910390f35b34801561047f57600080fd5b5061049a6004803603810190610495919061288e565b6112cb565b005b3480156104a857600080fd5b506104c360048036038101906104be9190612c25565b611366565b005b60007f19511a7a000000000000000000000000000000000000000000000000000000007bffffffffffffffffffffffffffffffffffffffffffffffffffffffff1916827bffffffffffffffffffffffffffffffffffffffffffffffffffffffff1916148061059057507f0e083076000000000000000000000000000000000000000000000000000000007bffffffffffffffffffffffffffffffffffffffffffffffffffffffff1916827bffffffffffffffffffffffffffffffffffffffffffffffffffffffff1916145b806105f857507f64e71924000000000000000000000000000000000000000000000000000000007bffffffffffffffffffffffffffffffffffffffffffffffffffffffff1916827bffffffffffffffffffffffffffffffffffffffffffffffffffffffff1916145b8061066057507f1c3eeaac000000000000000000000000000000000000000000000000000000007bffffffffffffffffffffffffffffffffffffffffffffffffffffffff1916827bffffffffffffffffffffffffffffffffffffffffffffffffffffffff1916145b806106c857507f7a34a3a8000000000000000000000000000000000000000000000000000000007bffffffffffffffffffffffffffffffffffffffffffffffffffffffff1916827bffffffffffffffffffffffffffffffffffffffffffffffffffffffff1916145b806106d857506106d78261145e565b5b9050919050565b600060016000838152602001908152602001600020600301549050919050565b6107076114c8565b73ffffffffffffffffffffffffffffffffffffffff16610725610f70565b73ffffffffffffffffffffffffffffffffffffffff161461077b576040517f08c379a000000000000000000000000000000000000000000000000000000000815260040161077290612c9e565b60405180910390fd5b8060016000848152602001908152602001600020600001819055505050565b60606040518060600160405280603f8152602001613af5603f9139905090565b6107c26114c8565b73ffffffffffffffffffffffffffffffffffffffff166107e0610f70565b73ffffffffffffffffffffffffffffffffffffffff1614610836576040517f08c379a000000000000000000000000000000000000000000000000000000000815260040161082d90612c9e565b60405180910390fd5b6001600381111561084a57610849612aec565b5b83600381111561085d5761085c612aec565b5b14156108725761086d82826114d0565b6108e6565b6002600381111561088657610885612aec565b5b83600381111561089957610898612aec565b5b14156108ad576108a8826115c6565b6108e5565b6003808111156108c0576108bf612aec565b5b8360038111156108d3576108d2612aec565b5b14156108e4576108e38282611674565b5b5b5b505050565b6108f36114c8565b73ffffffffffffffffffffffffffffffffffffffff16610911610f70565b73ffffffffffffffffffffffffffffffffffffffff1614610967576040517f08c379a000000000000000000000000000000000000000000000000000000000815260040161095e90612c9e565b60405180910390fd5b600085116109aa576040517f08c379a00000000000000000000000000000000000000000000000000000000081526004016109a190612d0a565b60405180910390fd5b6003808111156109bd576109bc612aec565b5b8260038111156109d0576109cf612aec565b5b1415806109dd5750600185145b610a1c576040517f08c379a0000000000000000000000000000000000000000000000000000000008152600401610a1390612d9c565b60405180910390fd5b60026003811115610a3057610a2f612aec565b5b826003811115610a4357610a42612aec565b5b1480610a4f5750600083115b610a8e576040517f08c379a0000000000000000000000000000000000000000000000000000000008152600401610a8590612e2e565b60405180910390fd5b428111610ad0576040517f08c379a0000000000000000000000000000000000000000000000000000000008152600401610ac790612ec0565b60405180910390fd5b600060016000888152602001908152602001600020905085858585858560000160008760020160008960030160008b60040160008d60060160008a919050558991906101000a81548160ff02191690836003811115610b3257610b31612aec565b5b021790555088919050558791906101000a81548173ffffffffffffffffffffffffffffffffffffffff021916908373ffffffffffffffffffffffffffffffffffffffff160217905550869190505550505050506000604051806020016040528060008152509050600082600301541115610bd557610bb382600301546116ee565b604051602001610bc39190612fb4565b60405160208183030381529060405290505b610be282600001546116ee565b610c258360020160009054906101000a900473ffffffffffffffffffffffffffffffffffffffff1673ffffffffffffffffffffffffffffffffffffffff166116ee565b82610c3385600601546116ee565b604051602001610c46949392919061326b565b604051602081830303815290604052826001019080519060200190610c6c92919061269e565b50610d02826001018054610c7f9061330f565b80601f0160208091040260200160405190810160405280929190818152602001828054610cab9061330f565b8015610cf85780601f10610ccd57610100808354040283529160200191610cf8565b820191906000526020600020905b815481529060010190602001808311610cdb57829003601f168201915b505050505061184f565b826005019080519060200190610d1992919061269e565b505050505050505050565b610d2c6114c8565b73ffffffffffffffffffffffffffffffffffffffff16610d4a610f70565b73ffffffffffffffffffffffffffffffffffffffff1614610da0576040517f08c379a0000000000000000000000000000000000000000000000000000000008152600401610d9790612c9e565b60405180910390fd5b610da8610f70565b73ffffffffffffffffffffffffffffffffffffffff166108fc479081150290604051600060405180830381858888f19350505050158015610ded573d6000803e3d6000fd5b50565b610df86114c8565b73ffffffffffffffffffffffffffffffffffffffff16610e16610f70565b73ffffffffffffffffffffffffffffffffffffffff1614610e6c576040517f08c379a0000000000000000000000000000000000000000000000000000000008152600401610e6390612c9e565b60405180910390fd5b610e766000611a08565b565b600042600160008481526020019081526020016000206006015411159050919050565b60006001600083815260200190815260200160002060040160009054906101000a900460ff169050919050565b6060600160008381526020019081526020016000206005018054610eeb9061330f565b80601f0160208091040260200160405190810160405280929190818152602001828054610f179061330f565b8015610f645780601f10610f3957610100808354040283529160200191610f64565b820191906000526020600020905b815481529060010190602001808311610f4757829003601f168201915b50505050509050919050565b60008060009054906101000a900473ffffffffffffffffffffffffffffffffffffffff16905090565b600060016000838152602001908152602001600020600001549050919050565b60006001600083815260200190815260200160002060020160009054906101000a900473ffffffffffffffffffffffffffffffffffffffff169050919050565b606060016000838152602001908152602001600020600101805461101c9061330f565b80601f01602080910402602001604051908101604052809291908181526020018280546110489061330f565b80156110955780601f1061106a57610100808354040283529160200191611095565b820191906000526020600020905b81548152906001019060200180831161107857829003601f168201915b50505050509050919050565b600060016000838152602001908152602001600020600601549050919050565b600060606000806000606060006001600089815260200190815260200160002060000154600160008a8152602001908152602001600020600101600160008b815260200190815260200160002060020160009054906101000a900473ffffffffffffffffffffffffffffffffffffffff16600160008c815260200190815260200160002060030154600160008d815260200190815260200160002060040160009054906101000a900460ff16600160008e8152602001908152602001600020600501600160008f8152602001908152602001600020600601548580546111a69061330f565b80601f01602080910402602001604051908101604052809291908181526020018280546111d29061330f565b801561121f5780601f106111f45761010080835404028352916020019161121f565b820191906000526020600020905b81548152906001019060200180831161120257829003601f168201915b505050505095508180546112329061330f565b80601f016020809104026020016040519081016040528092919081815260200182805461125e9061330f565b80156112ab5780601f10611280576101008083540402835291602001916112ab565b820191906000526020600020905b81548152906001019060200180831161128e57829003601f168201915b505050505091509650965096509650965096509650919395979092949650565b6112d36114c8565b73ffffffffffffffffffffffffffffffffffffffff166112f1610f70565b73ffffffffffffffffffffffffffffffffffffffff1614611347576040517f08c379a000000000000000000000000000000000000000000000000000000000815260040161133e90612c9e565b60405180910390fd5b8060016000848152602001908152602001600020600601819055505050565b61136e6114c8565b73ffffffffffffffffffffffffffffffffffffffff1661138c610f70565b73ffffffffffffffffffffffffffffffffffffffff16146113e2576040517f08c379a00000000000000000000000000000000000000000000000000000000081526004016113d990612c9e565b60405180910390fd5b600073ffffffffffffffffffffffffffffffffffffffff168173ffffffffffffffffffffffffffffffffffffffff161415611452576040517f08c379a0000000000000000000000000000000000000000000000000000000008152600401611449906133b3565b60405180910390fd5b61145b81611a08565b50565b60007f01ffc9a7000000000000000000000000000000000000000000000000000000007bffffffffffffffffffffffffffffffffffffffffffffffffffffffff1916827bffffffffffffffffffffffffffffffffffffffffffffffffffffffff1916149050919050565b600033905090565b8173ffffffffffffffffffffffffffffffffffffffff1663f242432a306114f5610f70565b848673ffffffffffffffffffffffffffffffffffffffff1662fdd58e30886040518363ffffffff1660e01b81526004016115309291906133d3565b602060405180830381865afa15801561154d573d6000803e3d6000fd5b505050506040513d601f19601f820116820180604052508101906115719190613411565b6040518563ffffffff1660e01b815260040161159094939291906134d4565b600060405180830381600087803b1580156115aa57600080fd5b505af11580156115be573d6000803e3d6000fd5b505050505050565b6116716115d1610f70565b8273ffffffffffffffffffffffffffffffffffffffff166370a08231306040518263ffffffff1660e01b815260040161160a9190612b8d565b602060405180830381865afa158015611627573d6000803e3d6000fd5b505050506040513d601f19601f8201168201806040525081019061164b9190613411565b8373ffffffffffffffffffffffffffffffffffffffff16611acc9092919063ffffffff16565b50565b8173ffffffffffffffffffffffffffffffffffffffff166342842e0e30611699610f70565b846040518463ffffffff1660e01b81526004016116b89392919061352c565b600060405180830381600087803b1580156116d257600080fd5b505af11580156116e6573d6000803e3d6000fd5b505050505050565b60606000821415611736576040518060400160405280600181526020017f3000000000000000000000000000000000000000000000000000000000000000815250905061184a565b600082905060005b6000821461176857808061175190613592565b915050600a82611761919061360a565b915061173e565b60008167ffffffffffffffff8111156117845761178361363b565b5b6040519080825280601f01601f1916602001820160405280156117b65781602001600182028036833780820191505090505b5090505b60008514611843576001826117cf919061366a565b9150600a856117de919061369e565b60306117ea91906136cf565b60f81b818381518110611800576117ff613725565b5b60200101907effffffffffffffffffffffffffffffffffffffffffffffffffffffffffffff1916908160001a905350600a8561183c919061360a565b94506117ba565b8093505050505b919050565b6060600082905060006118628251611b52565b90506000611894825160026118779190613754565b6004855161188591906136cf565b61188f91906136cf565b611b52565b90506119fe6119f96040518060400160405280600281526020017f12200000000000000000000000000000000000000000000000000000000000008152506119f460026040518060400160405280600181526020017f0a00000000000000000000000000000000000000000000000000000000000000815250866040518060400160405280600381526020017f0802120000000000000000000000000000000000000000000000000000000000815250898b6040518060400160405280600181526020017f18000000000000000000000000000000000000000000000000000000000000008152508c60405160200161199397969594939291906137f5565b6040516020818303038152906040526040516119af919061385a565b602060405180830381855afa1580156119cc573d6000803e3d6000fd5b5050506040513d601f19601f820116820180604052508101906119ef91906138a7565b611bb2565b611c91565b611e10565b9350505050919050565b60008060009054906101000a900473ffffffffffffffffffffffffffffffffffffffff169050816000806101000a81548173ffffffffffffffffffffffffffffffffffffffff021916908373ffffffffffffffffffffffffffffffffffffffff1602179055508173ffffffffffffffffffffffffffffffffffffffff168173ffffffffffffffffffffffffffffffffffffffff167f8be0079c531659141344cd1fd0a4f28419497f9722a3daafe3b4186f6b6457e060405160405180910390a35050565b611b4d8363a9059cbb60e01b8484604051602401611aeb9291906133d3565b604051602081830303815290604052907bffffffffffffffffffffffffffffffffffffffffffffffffffffffff19166020820180517bffffffffffffffffffffffffffffffffffffffffffffffffffffffff8381831617835250505050612058565b505050565b60606080821015611b6d57611b668261211f565b9050611bad565b611baa611b9060808085611b81919061369e565b611b8b91906136cf565b61211f565b611ba5608085611ba0919061360a565b61211f565b611c91565b90505b919050565b60606000602067ffffffffffffffff811115611bd157611bd061363b565b5b6040519080825280601f01601f191660200182016040528015611c035781602001600182028036833780820191505090505b50905060005b60208160ff161015611c8757838160ff1660208110611c2b57611c2a613725565b5b1a60f81b828260ff1681518110611c4557611c44613725565b5b60200101907effffffffffffffffffffffffffffffffffffffffffffffffffffffffffffff1916908160001a9053508080611c7f906138e1565b915050611c09565b5080915050919050565b6060600082518451611ca391906136cf565b67ffffffffffffffff811115611cbc57611cbb61363b565b5b6040519080825280601f01601f191660200182016040528015611cee5781602001600182028036833780820191505090505b50905060005b8451811015611d7057848181518110611d1057611d0f613725565b5b602001015160f81c60f81b828281518110611d2e57611d2d613725565b5b60200101907effffffffffffffffffffffffffffffffffffffffffffffffffffffffffffff1916908160001a9053508080611d6890613592565b915050611cf4565b5b83518551611d7f91906136cf565b811015611e055783855182611d94919061366a565b81518110611da557611da4613725565b5b602001015160f81c60f81b828281518110611dc357611dc2613725565b5b60200101907effffffffffffffffffffffffffffffffffffffffffffffffffffffffffffff1916908160001a9053508080611dfd90613592565b915050611d71565b819250505092915050565b6060600082511415611e7157600067ffffffffffffffff811115611e3757611e3661363b565b5b6040519080825280601f01601f191660200182016040528015611e695781602001600182028036833780820191505090505b509050612053565b6000604067ffffffffffffffff811115611e8e57611e8d61363b565b5b604051908082528060200260200182016040528015611ebc5781602001602082028036833780820191505090505b509050600081600081518110611ed557611ed4613725565b5b602002602001019060ff16908160ff168152505060006001905060005b8451811015612033576000858281518110611f1057611f0f613725565b5b602001015160f81c60f81b60f81c60ff16905060005b8360ff16811015611fbd57610100858281518110611f4757611f46613725565b5b602002602001015160ff16611f5c9190613754565b82611f6791906136cf565b9150603a82611f76919061369e565b858281518110611f8957611f88613725565b5b602002602001019060ff16908160ff1681525050603a82611faa919061360a565b915080611fb690613592565b9050611f26565b505b600081111561202157603a81611fd5919061369e565b848460ff1681518110611feb57611fea613725565b5b602002602001019060ff16908160ff1681525050828061200a906138e1565b935050603a8161201a919061360a565b9050611fbf565b508061202c90613592565b9050611ef2565b5061204e6120496120448484612253565b612313565b6123e6565b925050505b919050565b60006120ba826040518060400160405280602081526020017f5361666545524332303a206c6f772d6c6576656c2063616c6c206661696c65648152508573ffffffffffffffffffffffffffffffffffffffff166124f89092919063ffffffff16565b905060008151111561211a57808060200190518101906120da9190613937565b612119576040517f08c379a0000000000000000000000000000000000000000000000000000000008152600401612110906139d6565b60405180910390fd5b5b505050565b6060600082141561217f57600067ffffffffffffffff8111156121455761214461363b565b5b6040519080825280601f01601f1916602001820160405280156121775781602001600182028036833780820191505090505b50905061224e565b60006101008361218f919061369e565b60f81b90506000600167ffffffffffffffff8111156121b1576121b061363b565b5b6040519080825280601f01601f1916602001820160405280156121e35781602001600182028036833780820191505090505b50905081816000815181106121fb576121fa613725565b5b60200101907effffffffffffffffffffffffffffffffffffffffffffffffffffffffffffff1916908160001a9053506122496122436101008661223e919061360a565b61211f565b82611c91565b925050505b919050565b606060008260ff1667ffffffffffffffff8111156122745761227361363b565b5b6040519080825280602002602001820160405280156122a25781602001602082028036833780820191505090505b50905060005b8360ff16811015612308578481815181106122c6576122c5613725565b5b60200260200101518282815181106122e1576122e0613725565b5b602002602001019060ff16908160ff1681525050808061230090613592565b9150506122a8565b508091505092915050565b60606000825167ffffffffffffffff8111156123325761233161363b565b5b6040519080825280602002602001820160405280156123605781602001602082028036833780820191505090505b50905060005b83518110156123dc5783816001865161237f919061366a565b612389919061366a565b8151811061239a57612399613725565b5b60200260200101518282815181106123b5576123b4613725565b5b602002602001019060ff16908160ff168152505080806123d490613592565b915050612366565b5080915050919050565b60606000825167ffffffffffffffff8111156124055761240461363b565b5b6040519080825280601f01601f1916602001820160405280156124375781602001600182028036833780820191505090505b50905060005b83518110156124ee576040518060600160405280603a8152602001613b34603a913984828151811061247257612471613725565b5b602002602001015160ff168151811061248e5761248d613725565b5b602001015160f81c60f81b8282815181106124ac576124ab613725565b5b60200101907effffffffffffffffffffffffffffffffffffffffffffffffffffffffffffff1916908160001a90535080806124e690613592565b91505061243d565b5080915050919050565b60606125078484600085612510565b90509392505050565b606082471015612555576040517f08c379a000000000000000000000000000000000000000000000000000000000815260040161254c90613a68565b60405180910390fd5b61255e85612624565b61259d576040517f08c379a000000000000000000000000000000000000000000000000000000000815260040161259490613ad4565b60405180910390fd5b6000808673ffffffffffffffffffffffffffffffffffffffff1685876040516125c6919061385a565b60006040518083038185875af1925050503d8060008114612603576040519150601f19603f3d011682016040523d82523d6000602084013e612608565b606091505b5091509150612618828286612637565b92505050949350505050565b600080823b905060008111915050919050565b6060831561264757829050612697565b60008351111561265a5782518084602001fd5b816040517f08c379a000000000000000000000000000000000000000000000000000000000815260040161268e9190612967565b60405180910390fd5b9392505050565b8280546126aa9061330f565b90600052602060002090601f0160209004810192826126cc5760008555612713565b82601f106126e557805160ff1916838001178555612713565b82800160010185558215612713579182015b828111156127125782518255916020019190600101906126f7565b5b5090506127209190612724565b5090565b5b8082111561273d576000816000905550600101612725565b5090565b600080fd5b60007fffffffff0000000000000000000000000000000000000000000000000000000082169050919050565b61277b81612746565b811461278657600080fd5b50565b60008135905061279881612772565b92915050565b6000602082840312156127b4576127b3612741565b5b60006127c284828501612789565b91505092915050565b60008115159050919050565b6127e0816127cb565b82525050565b60006020820190506127fb60008301846127d7565b92915050565b6000819050919050565b61281481612801565b811461281f57600080fd5b50565b6000813590506128318161280b565b92915050565b60006020828403121561284d5761284c612741565b5b600061285b84828501612822565b91505092915050565b61286d81612801565b82525050565b60006020820190506128886000830184612864565b92915050565b600080604083850312156128a5576128a4612741565b5b60006128b385828601612822565b92505060206128c485828601612822565b9150509250929050565b600081519050919050565b600082825260208201905092915050565b60005b838110156129085780820151818401526020810190506128ed565b83811115612917576000848401525b50505050565b6000601f19601f8301169050919050565b6000612939826128ce565b61294381856128d9565b93506129538185602086016128ea565b61295c8161291d565b840191505092915050565b60006020820190508181036000830152612981818461292e565b905092915050565b6004811061299657600080fd5b50565b6000813590506129a881612989565b92915050565b600073ffffffffffffffffffffffffffffffffffffffff82169050919050565b60006129d9826129ae565b9050919050565b6129e9816129ce565b81146129f457600080fd5b50565b600081359050612a06816129e0565b92915050565b600080600060608486031215612a2557612a24612741565b5b6000612a3386828701612999565b9350506020612a44868287016129f7565b9250506040612a5586828701612822565b9150509250925092565b60008060008060008060c08789031215612a7c57612a7b612741565b5b6000612a8a89828a01612822565b9650506020612a9b89828a01612822565b9550506040612aac89828a016129f7565b9450506060612abd89828a01612822565b9350506080612ace89828a01612999565b92505060a0612adf89828a01612822565b9150509295509295509295565b7f4e487b7100000000000000000000000000000000000000000000000000000000600052602160045260246000fd5b60048110612b2c57612b2b612aec565b5b50565b6000819050612b3d82612b1b565b919050565b6000612b4d82612b2f565b9050919050565b612b5d81612b42565b82525050565b6000602082019050612b786000830184612b54565b92915050565b612b87816129ce565b82525050565b6000602082019050612ba26000830184612b7e565b92915050565b600060e082019050612bbd600083018a612864565b8181036020830152612bcf818961292e565b9050612bde6040830188612b7e565b612beb6060830187612864565b612bf86080830186612b54565b81810360a0830152612c0a818561292e565b9050612c1960c0830184612864565b98975050505050505050565b600060208284031215612c3b57612c3a612741565b5b6000612c49848285016129f7565b91505092915050565b7f4f776e61626c653a2063616c6c6572206973206e6f7420746865206f776e6572600082015250565b6000612c886020836128d9565b9150612c9382612c52565b602082019050919050565b60006020820190508181036000830152612cb781612c7b565b9050919050565b7f60616d6f756e7460206d7573742062652067726561746572207468616e203000600082015250565b6000612cf4601f836128d9565b9150612cff82612cbe565b602082019050919050565b60006020820190508181036000830152612d2381612ce7565b9050919050565b7f60616d6f756e7460206d757374206265203120666f722045524337323120746f60008201527f6b656e7300000000000000000000000000000000000000000000000000000000602082015250565b6000612d866024836128d9565b9150612d9182612d2a565b604082019050919050565b60006020820190508181036000830152612db581612d79565b9050919050565b7f60746f6b656e496460206d7573742062652073706563696669656420666f722060008201527f455243373231206f72204552433131353520746f6b656e730000000000000000602082015250565b6000612e186038836128d9565b9150612e2382612dbc565b604082019050919050565b60006020820190508181036000830152612e4781612e0b565b9050919050565b7f60756e6c6f636b54696d6560206d75737420626520696e20746865206675747560008201527f7265000000000000000000000000000000000000000000000000000000000000602082015250565b6000612eaa6022836128d9565b9150612eb582612e4e565b604082019050919050565b60006020820190508181036000830152612ed981612e9d565b9050919050565b600081905092915050565b7f22746f6b656e4964223a22000000000000000000000000000000000000000000600082015250565b6000612f21600b83612ee0565b9150612f2c82612eeb565b600b82019050919050565b6000612f42826128ce565b612f4c8185612ee0565b9350612f5c8185602086016128ea565b80840191505092915050565b7f222c000000000000000000000000000000000000000000000000000000000000600082015250565b6000612f9e600283612ee0565b9150612fa982612f68565b600282019050919050565b6000612fbf82612f14565b9150612fcb8284612f37565b9150612fd682612f91565b915081905092915050565b7f7b226465736372697074696f6e223a225468697320746f6b656e20656e74697460008201527f6c65732074686520686f6c64657220746f20776974686472617720746865697260208201527f206c6f636b656420746f6b656e287329206166746572207468656972206c6f6360408201527f6b20706572696f6420657870697265732066726f6d20746865204d617265204260608201527f697473204c6f636b65722e222c2265787465726e616c5f75726c223a2268747460808201527f70733a2f2f6d6172652e62697a2f222c22696d616765223a2268747470733a2f60a08201527f2f6d6172652e62697a2f6d617265626974732f69636f6e2d3936302e706e672260c08201527f2c226e616d65223a225c75443833445c75444330455c75323030445c7532363460e08201527f305c75464530465c75443833445c75444431325c75443833455c7544453939226101008201527f2c2270726f70657274696573223a207b22616d6f756e74223a2200000000000061012082015250565b600061317061013a83612ee0565b915061317b82612fe1565b61013a82019050919050565b7f222c22746f6b656e436f6e7472616374223a2200000000000000000000000000600082015250565b60006131bd601383612ee0565b91506131c882613187565b601382019050919050565b7f22756e6c6f636b54696d65223a22000000000000000000000000000000000000600082015250565b6000613209600e83612ee0565b9150613214826131d3565b600e82019050919050565b7f227d7d0000000000000000000000000000000000000000000000000000000000600082015250565b6000613255600383612ee0565b91506132608261321f565b600382019050919050565b600061327682613162565b91506132828287612f37565b915061328d826131b0565b91506132998286612f37565b91506132a482612f91565b91506132b08285612f37565b91506132bb826131fc565b91506132c78284612f37565b91506132d282613248565b915081905095945050505050565b7f4e487b7100000000000000000000000000000000000000000000000000000000600052602260045260246000fd5b6000600282049050600182168061332757607f821691505b6020821081141561333b5761333a6132e0565b5b50919050565b7f4f776e61626c653a206e6577206f776e657220697320746865207a65726f206160008201527f6464726573730000000000000000000000000000000000000000000000000000602082015250565b600061339d6026836128d9565b91506133a882613341565b604082019050919050565b600060208201905081810360008301526133cc81613390565b9050919050565b60006040820190506133e86000830185612b7e565b6133f56020830184612864565b9392505050565b60008151905061340b8161280b565b92915050565b60006020828403121561342757613426612741565b5b6000613435848285016133fc565b91505092915050565b6000819050919050565b600061346361345e613459846129ae565b61343e565b6129ae565b9050919050565b600061347582613448565b9050919050565b60006134878261346a565b9050919050565b6134978161347c565b82525050565b600082825260208201905092915050565b50565b60006134be60008361349d565b91506134c9826134ae565b600082019050919050565b600060a0820190506134e96000830187612b7e565b6134f6602083018661348e565b6135036040830185612864565b6135106060830184612864565b8181036080830152613521816134b1565b905095945050505050565b60006060820190506135416000830186612b7e565b61354e602083018561348e565b61355b6040830184612864565b949350505050565b7f4e487b7100000000000000000000000000000000000000000000000000000000600052601160045260246000fd5b600061359d82612801565b91507fffffffffffffffffffffffffffffffffffffffffffffffffffffffffffffffff8214156135d0576135cf613563565b5b600182019050919050565b7f4e487b7100000000000000000000000000000000000000000000000000000000600052601260045260246000fd5b600061361582612801565b915061362083612801565b9250826136305761362f6135db565b5b828204905092915050565b7f4e487b7100000000000000000000000000000000000000000000000000000000600052604160045260246000fd5b600061367582612801565b915061368083612801565b92508282101561369357613692613563565b5b828203905092915050565b60006136a982612801565b91506136b483612801565b9250826136c4576136c36135db565b5b828206905092915050565b60006136da82612801565b91506136e583612801565b9250827fffffffffffffffffffffffffffffffffffffffffffffffffffffffffffffffff0382111561371a57613719613563565b5b828201905092915050565b7f4e487b7100000000000000000000000000000000000000000000000000000000600052603260045260246000fd5b600061375f82612801565b915061376a83612801565b9250817fffffffffffffffffffffffffffffffffffffffffffffffffffffffffffffffff04831182151516156137a3576137a2613563565b5b828202905092915050565b600081519050919050565b600081905092915050565b60006137cf826137ae565b6137d981856137b9565b93506137e98185602086016128ea565b80840191505092915050565b6000613801828a6137c4565b915061380d82896137c4565b915061381982886137c4565b915061382582876137c4565b915061383182866137c4565b915061383d82856137c4565b915061384982846137c4565b915081905098975050505050505050565b600061386682846137c4565b915081905092915050565b6000819050919050565b61388481613871565b811461388f57600080fd5b50565b6000815190506138a18161387b565b92915050565b6000602082840312156138bd576138bc612741565b5b60006138cb84828501613892565b91505092915050565b600060ff82169050919050565b60006138ec826138d4565b915060ff821415613900576138ff613563565b5b600182019050919050565b613914816127cb565b811461391f57600080fd5b50565b6000815190506139318161390b565b92915050565b60006020828403121561394d5761394c612741565b5b600061395b84828501613922565b91505092915050565b7f5361666545524332303a204552433230206f7065726174696f6e20646964206e60008201527f6f74207375636365656400000000000000000000000000000000000000000000602082015250565b60006139c0602a836128d9565b91506139cb82613964565b604082019050919050565b600060208201905081810360008301526139ef816139b3565b9050919050565b7f416464726573733a20696e73756666696369656e742062616c616e636520666f60008201527f722063616c6c0000000000000000000000000000000000000000000000000000602082015250565b6000613a526026836128d9565b9150613a5d826139f6565b604082019050919050565b60006020820190508181036000830152613a8181613a45565b9050919050565b7f416464726573733a2063616c6c20746f206e6f6e2d636f6e7472616374000000600082015250565b6000613abe601d836128d9565b9150613ac982613a88565b602082019050919050565b60006020820190508181036000830152613aed81613ab1565b905091905056fe5477696c6967687420537061726b6c6520697320746865206375746573742c20736d6172746573742c20616c6c2061726f756e64206265737420706f6e792131323334353637383941424344454647484a4b4c4d4e505152535455565758595a6162636465666768696a6b6d6e6f707172737475767778797aa26469706673582212203a6cb84ff3d609c40b400140fbf2101a690e6ffecdcfd691111ab36aced949c664736f6c634300080a003360806040523480156200001157600080fd5b5060405162004dd938038062004dd98339818101604052810190620000379190620003c8565b8282620000596200004d620000af60201b60201c565b620000b760201b60201c565b8160019080519060200190620000719291906200017b565b5080600290805190602001906200008a9291906200017b565b5050508060089080519060200190620000a59291906200017b565b50505050620004e6565b600033905090565b60008060009054906101000a900473ffffffffffffffffffffffffffffffffffffffff169050816000806101000a81548173ffffffffffffffffffffffffffffffffffffffff021916908373ffffffffffffffffffffffffffffffffffffffff1602179055508173ffffffffffffffffffffffffffffffffffffffff168173ffffffffffffffffffffffffffffffffffffffff167f8be0079c531659141344cd1fd0a4f28419497f9722a3daafe3b4186f6b6457e060405160405180910390a35050565b8280546200018990620004b0565b90600052602060002090601f016020900481019282620001ad5760008555620001f9565b82601f10620001c857805160ff1916838001178555620001f9565b82800160010185558215620001f9579182015b82811115620001f8578251825591602001919060010190620001db565b5b5090506200020891906200020c565b5090565b5b80821115620002275760008160009055506001016200020d565b5090565b6000604051905090565b600080fd5b600080fd5b600080fd5b600080fd5b6000601f19601f8301169050919050565b7f4e487b7100000000000000000000000000000000000000000000000000000000600052604160045260246000fd5b620002948262000249565b810181811067ffffffffffffffff82111715620002b657620002b56200025a565b5b80604052505050565b6000620002cb6200022b565b9050620002d9828262000289565b919050565b600067ffffffffffffffff821115620002fc57620002fb6200025a565b5b620003078262000249565b9050602081019050919050565b60005b838110156200033457808201518184015260208101905062000317565b8381111562000344576000848401525b50505050565b6000620003616200035b84620002de565b620002bf565b90508281526020810184848401111562000380576200037f62000244565b5b6200038d84828562000314565b509392505050565b600082601f830112620003ad57620003ac6200023f565b5b8151620003bf8482602086016200034a565b91505092915050565b600080600060608486031215620003e457620003e362000235565b5b600084015167ffffffffffffffff8111156200040557620004046200023a565b5b620004138682870162000395565b935050602084015167ffffffffffffffff8111156200043757620004366200023a565b5b620004458682870162000395565b925050604084015167ffffffffffffffff8111156200046957620004686200023a565b5b620004778682870162000395565b9150509250925092565b7f4e487b7100000000000000000000000000000000000000000000000000000000600052602260045260246000fd5b60006002820490506001821680620004c957607f821691505b60208210811415620004e057620004df62000481565b5b50919050565b6148e380620004f66000396000f3fe6080604052600436106101815760003560e01c80636352211e116100d157806395d89b411161008a578063c87b56dd11610064578063c87b56dd14610549578063d1a0152014610586578063e985e9c5146105af578063f2fde38b146105ec57610181565b806395d89b41146104cc578063a22cb465146104f7578063b88d4fde1461052057610181565b80636352211e146103c957806364e719241461040657806370a0823114610410578063715018a61461044d5780638553c3e9146104645780638da5cb5b146104a157610181565b806323b872dd1161013e57806345383099116101185780634538309914610323578063478d8d601461034e5780634a3b889a1461037757806358ee7173146103a057610181565b806323b872dd146102a857806342842e0e146102d157806342966c68146102fa57610181565b806301ffc9a71461018657806306fdde03146101c3578063081812fc146101ee578063095ea7b31461022b57806319511a7a146102545780631c3eeaac1461027f575b600080fd5b34801561019257600080fd5b506101ad60048036038101906101a89190612ef3565b610615565b6040516101ba9190612f3b565b60405180910390f35b3480156101cf57600080fd5b506101d8610897565b6040516101e59190612fef565b60405180910390f35b3480156101fa57600080fd5b5061021560048036038101906102109190613047565b610929565b60405161022291906130b5565b60405180910390f35b34801561023757600080fd5b50610252600480360381019061024d91906130fc565b6109ae565b005b34801561026057600080fd5b50610269610ac6565b6040516102769190612fef565b60405180910390f35b34801561028b57600080fd5b506102a660048036038101906102a19190613161565b610ae6565b005b3480156102b457600080fd5b506102cf60048036038101906102ca91906131b4565b610c17565b005b3480156102dd57600080fd5b506102f860048036038101906102f391906131b4565b610c77565b005b34801561030657600080fd5b50610321600480360381019061031c9190613047565b610c97565b005b34801561032f57600080fd5b50610338610cf3565b6040516103459190613216565b60405180910390f35b34801561035a57600080fd5b50610375600480360381019061037091906133a4565b610d8a565b005b34801561038357600080fd5b5061039e60048036038101906103999190613473565b610e1f565b005b3480156103ac57600080fd5b506103c760048036038101906103c291906134c0565b610eb1565b005b3480156103d557600080fd5b506103f060048036038101906103eb9190613047565b610f80565b6040516103fd91906130b5565b60405180910390f35b61040e611032565b005b34801561041c57600080fd5b5061043760048036038101906104329190613520565b6110fe565b6040516104449190613216565b60405180910390f35b34801561045957600080fd5b506104626111b6565b005b34801561047057600080fd5b5061048b60048036038101906104869190613047565b61123e565b6040516104989190612f3b565b60405180910390f35b3480156104ad57600080fd5b506104b66112cc565b6040516104c391906130b5565b60405180910390f35b3480156104d857600080fd5b506104e16112f5565b6040516104ee9190612fef565b60405180910390f35b34801561050357600080fd5b5061051e60048036038101906105199190613579565b611387565b005b34801561052c57600080fd5b506105476004803603810190610542919061365a565b611508565b005b34801561055557600080fd5b50610570600480360381019061056b9190613047565b61156a565b60405161057d9190612fef565b60405180910390f35b34801561059257600080fd5b506105ad60048036038101906105a89190613047565b6116bc565b005b3480156105bb57600080fd5b506105d660048036038101906105d191906136dd565b611744565b6040516105e39190612f3b565b60405180910390f35b3480156105f857600080fd5b50610613600480360381019061060e9190613520565b6117d8565b005b60007f19511a7a000000000000000000000000000000000000000000000000000000007bffffffffffffffffffffffffffffffffffffffffffffffffffffffff1916827bffffffffffffffffffffffffffffffffffffffffffffffffffffffff191614806106e057507f0e083076000000000000000000000000000000000000000000000000000000007bffffffffffffffffffffffffffffffffffffffffffffffffffffffff1916827bffffffffffffffffffffffffffffffffffffffffffffffffffffffff1916145b8061074857507f64e71924000000000000000000000000000000000000000000000000000000007bffffffffffffffffffffffffffffffffffffffffffffffffffffffff1916827bffffffffffffffffffffffffffffffffffffffffffffffffffffffff1916145b806107b057507f1c3eeaac000000000000000000000000000000000000000000000000000000007bffffffffffffffffffffffffffffffffffffffffffffffffffffffff1916827bffffffffffffffffffffffffffffffffffffffffffffffffffffffff1916145b8061081857507fc87b56dd000000000000000000000000000000000000000000000000000000007bffffffffffffffffffffffffffffffffffffffffffffffffffffffff1916827bffffffffffffffffffffffffffffffffffffffffffffffffffffffff1916145b8061088057507f42966c68000000000000000000000000000000000000000000000000000000007bffffffffffffffffffffffffffffffffffffffffffffffffffffffff1916827bffffffffffffffffffffffffffffffffffffffffffffffffffffffff1916145b80610890575061088f826118d0565b5b9050919050565b6060600180546108a69061374c565b80601f01602080910402602001604051908101604052809291908181526020018280546108d29061374c565b801561091f5780601f106108f45761010080835404028352916020019161091f565b820191906000526020600020905b81548152906001019060200180831161090257829003601f168201915b5050505050905090565b6000610934826119b2565b610973576040517f08c379a000000000000000000000000000000000000000000000000000000000815260040161096a906137f0565b60405180910390fd5b6005600083815260200190815260200160002060009054906101000a900473ffffffffffffffffffffffffffffffffffffffff169050919050565b60006109b982610f80565b90508073ffffffffffffffffffffffffffffffffffffffff168373ffffffffffffffffffffffffffffffffffffffff161415610a2a576040517f08c379a0000000000000000000000000000000000000000000000000000000008152600401610a2190613882565b60405180910390fd5b8073ffffffffffffffffffffffffffffffffffffffff16610a49611a1e565b73ffffffffffffffffffffffffffffffffffffffff161480610a785750610a7781610a72611a1e565b611744565b5b610ab7576040517f08c379a0000000000000000000000000000000000000000000000000000000008152600401610aae90613914565b60405180910390fd5b610ac18383611a26565b505050565b60606040518060600160405280603f815260200161486f603f9139905090565b610aee611a1e565b73ffffffffffffffffffffffffffffffffffffffff16610b0c6112cc565b73ffffffffffffffffffffffffffffffffffffffff1614610b62576040517f08c379a0000000000000000000000000000000000000000000000000000000008152600401610b5990613980565b60405180910390fd5b60016003811115610b7657610b756139a0565b5b836003811115610b8957610b886139a0565b5b1415610b9e57610b998282611adf565b610c12565b60026003811115610bb257610bb16139a0565b5b836003811115610bc557610bc46139a0565b5b1415610bd957610bd482611bd5565b610c11565b600380811115610bec57610beb6139a0565b5b836003811115610bff57610bfe6139a0565b5b1415610c1057610c0f8282611c83565b5b5b5b505050565b610c28610c22611a1e565b82611cfd565b610c67576040517f08c379a0000000000000000000000000000000000000000000000000000000008152600401610c5e90613a41565b60405180910390fd5b610c72838383611ddb565b505050565b610c9283838360405180602001604052806000815250611508565b505050565b610ca8610ca2611a1e565b82611cfd565b610ce7576040517f08c379a0000000000000000000000000000000000000000000000000000000008152600401610cde90613aad565b60405180910390fd5b610cf081612037565b50565b6000610cfd611a1e565b73ffffffffffffffffffffffffffffffffffffffff16610d1b6112cc565b73ffffffffffffffffffffffffffffffffffffffff1614610d71576040517f08c379a0000000000000000000000000000000000000000000000000000000008152600401610d6890613980565b60405180910390fd5b610d7b600961208a565b9050610d876009612098565b90565b610d92611a1e565b73ffffffffffffffffffffffffffffffffffffffff16610db06112cc565b73ffffffffffffffffffffffffffffffffffffffff1614610e06576040517f08c379a0000000000000000000000000000000000000000000000000000000008152600401610dfd90613980565b60405180910390fd5b610e1083836120ae565b610e1a82826120cc565b505050565b610e27611a1e565b73ffffffffffffffffffffffffffffffffffffffff16610e456112cc565b73ffffffffffffffffffffffffffffffffffffffff1614610e9b576040517f08c379a0000000000000000000000000000000000000000000000000000000008152600401610e9290613980565b60405180910390fd5b818160089190610eac929190612d1e565b505050565b610eb9611a1e565b73ffffffffffffffffffffffffffffffffffffffff16610ed76112cc565b73ffffffffffffffffffffffffffffffffffffffff1614610f2d576040517f08c379a0000000000000000000000000000000000000000000000000000000008152600401610f2490613980565b60405180910390fd5b610f7b8383838080601f016020809104026020016040519081016040528093929190818152602001838380828437600081840152601f19601f820116905080830192505050505050506120cc565b505050565b6000806003600084815260200190815260200160002060009054906101000a900473ffffffffffffffffffffffffffffffffffffffff169050600073ffffffffffffffffffffffffffffffffffffffff168173ffffffffffffffffffffffffffffffffffffffff161415611029576040517f08c379a000000000000000000000000000000000000000000000000000000000815260040161102090613b3f565b60405180910390fd5b80915050919050565b61103a611a1e565b73ffffffffffffffffffffffffffffffffffffffff166110586112cc565b73ffffffffffffffffffffffffffffffffffffffff16146110ae576040517f08c379a00000000000000000000000000000000000000000000000000000000081526004016110a590613980565b60405180910390fd5b6110b66112cc565b73ffffffffffffffffffffffffffffffffffffffff166108fc479081150290604051600060405180830381858888f193505050501580156110fb573d6000803e3d6000fd5b50565b60008073ffffffffffffffffffffffffffffffffffffffff168273ffffffffffffffffffffffffffffffffffffffff16141561116f576040517f08c379a000000000000000000000000000000000000000000000000000000000815260040161116690613bd1565b60405180910390fd5b600460008373ffffffffffffffffffffffffffffffffffffffff1673ffffffffffffffffffffffffffffffffffffffff168152602001908152602001600020549050919050565b6111be611a1e565b73ffffffffffffffffffffffffffffffffffffffff166111dc6112cc565b73ffffffffffffffffffffffffffffffffffffffff1614611232576040517f08c379a000000000000000000000000000000000000000000000000000000000815260040161122990613980565b60405180910390fd5b61123c6000612140565b565b6000611248611a1e565b73ffffffffffffffffffffffffffffffffffffffff166112666112cc565b73ffffffffffffffffffffffffffffffffffffffff16146112bc576040517f08c379a00000000000000000000000000000000000000000000000000000000081526004016112b390613980565b60405180910390fd5b6112c5826119b2565b9050919050565b60008060009054906101000a900473ffffffffffffffffffffffffffffffffffffffff16905090565b6060600280546113049061374c565b80601f01602080910402602001604051908101604052809291908181526020018280546113309061374c565b801561137d5780601f106113525761010080835404028352916020019161137d565b820191906000526020600020905b81548152906001019060200180831161136057829003601f168201915b5050505050905090565b61138f611a1e565b73ffffffffffffffffffffffffffffffffffffffff168273ffffffffffffffffffffffffffffffffffffffff1614156113fd576040517f08c379a00000000000000000000000000000000000000000000000000000000081526004016113f490613c3d565b60405180910390fd5b806006600061140a611a1e565b73ffffffffffffffffffffffffffffffffffffffff1673ffffffffffffffffffffffffffffffffffffffff16815260200190815260200160002060008473ffffffffffffffffffffffffffffffffffffffff1673ffffffffffffffffffffffffffffffffffffffff16815260200190815260200160002060006101000a81548160ff0219169083151502179055508173ffffffffffffffffffffffffffffffffffffffff166114b7611a1e565b73ffffffffffffffffffffffffffffffffffffffff167f17307eab39ab6107e8899845ad3d59bd9653f200f220920489ca2b5937696c31836040516114fc9190612f3b565b60405180910390a35050565b611519611513611a1e565b83611cfd565b611558576040517f08c379a000000000000000000000000000000000000000000000000000000000815260040161154f90613a41565b60405180910390fd5b61156484848484612204565b50505050565b6060611575826119b2565b6115b4576040517f08c379a00000000000000000000000000000000000000000000000000000000081526004016115ab90613ccf565b60405180910390fd5b60006007600084815260200190815260200160002080546115d49061374c565b80601f01602080910402602001604051908101604052809291908181526020018280546116009061374c565b801561164d5780601f106116225761010080835404028352916020019161164d565b820191906000526020600020905b81548152906001019060200180831161163057829003601f168201915b50505050509050600061165e612260565b90506000815114156116745781925050506116b7565b6000825111156116a9578082604051602001611691929190613d2b565b604051602081830303815290604052925050506116b7565b6116b2846122f2565b925050505b919050565b6116c4611a1e565b73ffffffffffffffffffffffffffffffffffffffff166116e26112cc565b73ffffffffffffffffffffffffffffffffffffffff1614611738576040517f08c379a000000000000000000000000000000000000000000000000000000000815260040161172f90613980565b60405180910390fd5b61174181612037565b50565b6000600660008473ffffffffffffffffffffffffffffffffffffffff1673ffffffffffffffffffffffffffffffffffffffff16815260200190815260200160002060008373ffffffffffffffffffffffffffffffffffffffff1673ffffffffffffffffffffffffffffffffffffffff16815260200190815260200160002060009054906101000a900460ff16905092915050565b6117e0611a1e565b73ffffffffffffffffffffffffffffffffffffffff166117fe6112cc565b73ffffffffffffffffffffffffffffffffffffffff1614611854576040517f08c379a000000000000000000000000000000000000000000000000000000000815260040161184b90613980565b60405180910390fd5b600073ffffffffffffffffffffffffffffffffffffffff168173ffffffffffffffffffffffffffffffffffffffff1614156118c4576040517f08c379a00000000000000000000000000000000000000000000000000000000081526004016118bb90613dc1565b60405180910390fd5b6118cd81612140565b50565b60007f80ac58cd000000000000000000000000000000000000000000000000000000007bffffffffffffffffffffffffffffffffffffffffffffffffffffffff1916827bffffffffffffffffffffffffffffffffffffffffffffffffffffffff1916148061199b57507f5b5e139f000000000000000000000000000000000000000000000000000000007bffffffffffffffffffffffffffffffffffffffffffffffffffffffff1916827bffffffffffffffffffffffffffffffffffffffffffffffffffffffff1916145b806119ab57506119aa82612399565b5b9050919050565b60008073ffffffffffffffffffffffffffffffffffffffff166003600084815260200190815260200160002060009054906101000a900473ffffffffffffffffffffffffffffffffffffffff1673ffffffffffffffffffffffffffffffffffffffff1614159050919050565b600033905090565b816005600083815260200190815260200160002060006101000a81548173ffffffffffffffffffffffffffffffffffffffff021916908373ffffffffffffffffffffffffffffffffffffffff160217905550808273ffffffffffffffffffffffffffffffffffffffff16611a9983610f80565b73ffffffffffffffffffffffffffffffffffffffff167f8c5be1e5ebec7d5bd14f71427d1e84f3dd0314c0f7b2291e5b200ac8c7c3b92560405160405180910390a45050565b8173ffffffffffffffffffffffffffffffffffffffff1663f242432a30611b046112cc565b848673ffffffffffffffffffffffffffffffffffffffff1662fdd58e30886040518363ffffffff1660e01b8152600401611b3f929190613de1565b602060405180830381865afa158015611b5c573d6000803e3d6000fd5b505050506040513d601f19601f82011682018060405250810190611b809190613e1f565b6040518563ffffffff1660e01b8152600401611b9f9493929190613ee2565b600060405180830381600087803b158015611bb957600080fd5b505af1158015611bcd573d6000803e3d6000fd5b505050505050565b611c80611be06112cc565b8273ffffffffffffffffffffffffffffffffffffffff166370a08231306040518263ffffffff1660e01b8152600401611c1991906130b5565b602060405180830381865afa158015611c36573d6000803e3d6000fd5b505050506040513d601f19601f82011682018060405250810190611c5a9190613e1f565b8373ffffffffffffffffffffffffffffffffffffffff166124039092919063ffffffff16565b50565b8173ffffffffffffffffffffffffffffffffffffffff166342842e0e30611ca86112cc565b846040518463ffffffff1660e01b8152600401611cc793929190613f3a565b600060405180830381600087803b158015611ce157600080fd5b505af1158015611cf5573d6000803e3d6000fd5b505050505050565b6000611d08826119b2565b611d47576040517f08c379a0000000000000000000000000000000000000000000000000000000008152600401611d3e90613fe3565b60405180910390fd5b6000611d5283610f80565b90508073ffffffffffffffffffffffffffffffffffffffff168473ffffffffffffffffffffffffffffffffffffffff161480611dc157508373ffffffffffffffffffffffffffffffffffffffff16611da984610929565b73ffffffffffffffffffffffffffffffffffffffff16145b80611dd25750611dd18185611744565b5b91505092915050565b8273ffffffffffffffffffffffffffffffffffffffff16611dfb82610f80565b73ffffffffffffffffffffffffffffffffffffffff1614611e51576040517f08c379a0000000000000000000000000000000000000000000000000000000008152600401611e4890614075565b60405180910390fd5b600073ffffffffffffffffffffffffffffffffffffffff168273ffffffffffffffffffffffffffffffffffffffff161415611ec1576040517f08c379a0000000000000000000000000000000000000000000000000000000008152600401611eb890614107565b60405180910390fd5b611ecc838383612489565b611ed7600082611a26565b6001600460008573ffffffffffffffffffffffffffffffffffffffff1673ffffffffffffffffffffffffffffffffffffffff1681526020019081526020016000206000828254611f279190614156565b925050819055506001600460008473ffffffffffffffffffffffffffffffffffffffff1673ffffffffffffffffffffffffffffffffffffffff1681526020019081526020016000206000828254611f7e919061418a565b92505081905550816003600083815260200190815260200160002060006101000a81548173ffffffffffffffffffffffffffffffffffffffff021916908373ffffffffffffffffffffffffffffffffffffffff160217905550808273ffffffffffffffffffffffffffffffffffffffff168473ffffffffffffffffffffffffffffffffffffffff167fddf252ad1be2c89b69c2b068fc378daa952ba7f163c4a11628f55a4df523b3ef60405160405180910390a4505050565b6120408161248e565b60006007600083815260200190815260200160002080546120609061374c565b905014612087576007600082815260200190815260200160002060006120869190612da4565b5b50565b600081600001549050919050565b6001816000016000828254019250508190555050565b6120c882826040518060200160405280600081525061259f565b5050565b6120d5826119b2565b612114576040517f08c379a000000000000000000000000000000000000000000000000000000000815260040161210b90614252565b60405180910390fd5b8060076000848152602001908152602001600020908051906020019061213b929190612de4565b505050565b60008060009054906101000a900473ffffffffffffffffffffffffffffffffffffffff169050816000806101000a81548173ffffffffffffffffffffffffffffffffffffffff021916908373ffffffffffffffffffffffffffffffffffffffff1602179055508173ffffffffffffffffffffffffffffffffffffffff168173ffffffffffffffffffffffffffffffffffffffff167f8be0079c531659141344cd1fd0a4f28419497f9722a3daafe3b4186f6b6457e060405160405180910390a35050565b61220f848484611ddb565b61221b848484846125fa565b61225a576040517f08c379a0000000000000000000000000000000000000000000000000000000008152600401612251906142e4565b60405180910390fd5b50505050565b60606008805461226f9061374c565b80601f016020809104026020016040519081016040528092919081815260200182805461229b9061374c565b80156122e85780601f106122bd576101008083540402835291602001916122e8565b820191906000526020600020905b8154815290600101906020018083116122cb57829003601f168201915b5050505050905090565b60606122fd826119b2565b61233c576040517f08c379a000000000000000000000000000000000000000000000000000000000815260040161233390614376565b60405180910390fd5b6000612346612260565b905060008151116123665760405180602001604052806000815250612391565b8061237084612782565b604051602001612381929190613d2b565b6040516020818303038152906040525b915050919050565b60007f01ffc9a7000000000000000000000000000000000000000000000000000000007bffffffffffffffffffffffffffffffffffffffffffffffffffffffff1916827bffffffffffffffffffffffffffffffffffffffffffffffffffffffff1916149050919050565b6124848363a9059cbb60e01b8484604051602401612422929190613de1565b604051602081830303815290604052907bffffffffffffffffffffffffffffffffffffffffffffffffffffffff19166020820180517bffffffffffffffffffffffffffffffffffffffffffffffffffffffff83818316178352505050506128e3565b505050565b505050565b600061249982610f80565b90506124a781600084612489565b6124b2600083611a26565b6001600460008373ffffffffffffffffffffffffffffffffffffffff1673ffffffffffffffffffffffffffffffffffffffff16815260200190815260200160002060008282546125029190614156565b925050819055506003600083815260200190815260200160002060006101000a81549073ffffffffffffffffffffffffffffffffffffffff021916905581600073ffffffffffffffffffffffffffffffffffffffff168273ffffffffffffffffffffffffffffffffffffffff167fddf252ad1be2c89b69c2b068fc378daa952ba7f163c4a11628f55a4df523b3ef60405160405180910390a45050565b6125a983836129aa565b6125b660008484846125fa565b6125f5576040517f08c379a00000000000000000000000000000000000000000000000000000000081526004016125ec906142e4565b60405180910390fd5b505050565b600061261b8473ffffffffffffffffffffffffffffffffffffffff16612b78565b15612775578373ffffffffffffffffffffffffffffffffffffffff1663150b7a02612644611a1e565b8786866040518563ffffffff1660e01b815260040161266694939291906143da565b6020604051808303816000875af19250505080156126a257506040513d601f19601f8201168201806040525081019061269f919061443b565b60015b612725573d80600081146126d2576040519150601f19603f3d011682016040523d82523d6000602084013e6126d7565b606091505b5060008151141561271d576040517f08c379a0000000000000000000000000000000000000000000000000000000008152600401612714906142e4565b60405180910390fd5b805181602001fd5b63150b7a0260e01b7bffffffffffffffffffffffffffffffffffffffffffffffffffffffff1916817bffffffffffffffffffffffffffffffffffffffffffffffffffffffff19161491505061277a565b600190505b949350505050565b606060008214156127ca576040518060400160405280600181526020017f300000000000000000000000000000000000000000000000000000000000000081525090506128de565b600082905060005b600082146127fc5780806127e590614468565b915050600a826127f591906144e0565b91506127d2565b60008167ffffffffffffffff81111561281857612817613279565b5b6040519080825280601f01601f19166020018201604052801561284a5781602001600182028036833780820191505090505b5090505b600085146128d7576001826128639190614156565b9150600a856128729190614511565b603061287e919061418a565b60f81b81838151811061289457612893614542565b5b60200101907effffffffffffffffffffffffffffffffffffffffffffffffffffffffffffff1916908160001a905350600a856128d091906144e0565b945061284e565b8093505050505b919050565b6000612945826040518060400160405280602081526020017f5361666545524332303a206c6f772d6c6576656c2063616c6c206661696c65648152508573ffffffffffffffffffffffffffffffffffffffff16612b8b9092919063ffffffff16565b90506000815111156129a557808060200190518101906129659190614586565b6129a4576040517f08c379a000000000000000000000000000000000000000000000000000000000815260040161299b90614625565b60405180910390fd5b5b505050565b600073ffffffffffffffffffffffffffffffffffffffff168273ffffffffffffffffffffffffffffffffffffffff161415612a1a576040517f08c379a0000000000000000000000000000000000000000000000000000000008152600401612a1190614691565b60405180910390fd5b612a23816119b2565b15612a63576040517f08c379a0000000000000000000000000000000000000000000000000000000008152600401612a5a906146fd565b60405180910390fd5b612a6f60008383612489565b6001600460008473ffffffffffffffffffffffffffffffffffffffff1673ffffffffffffffffffffffffffffffffffffffff1681526020019081526020016000206000828254612abf919061418a565b92505081905550816003600083815260200190815260200160002060006101000a81548173ffffffffffffffffffffffffffffffffffffffff021916908373ffffffffffffffffffffffffffffffffffffffff160217905550808273ffffffffffffffffffffffffffffffffffffffff16600073ffffffffffffffffffffffffffffffffffffffff167fddf252ad1be2c89b69c2b068fc378daa952ba7f163c4a11628f55a4df523b3ef60405160405180910390a45050565b600080823b905060008111915050919050565b6060612b9a8484600085612ba3565b90509392505050565b606082471015612be8576040517f08c379a0000000000000000000000000000000000000000000000000000000008152600401612bdf9061478f565b60405180910390fd5b612bf185612b78565b612c30576040517f08c379a0000000000000000000000000000000000000000000000000000000008152600401612c27906147fb565b60405180910390fd5b6000808673ffffffffffffffffffffffffffffffffffffffff168587604051612c599190614857565b60006040518083038185875af1925050503d8060008114612c96576040519150601f19603f3d011682016040523d82523d6000602084013e612c9b565b606091505b5091509150612cab828286612cb7565b92505050949350505050565b60608315612cc757829050612d17565b600083511115612cda5782518084602001fd5b816040517f08c379a0000000000000000000000000000000000000000000000000000000008152600401612d0e9190612fef565b60405180910390fd5b9392505050565b828054612d2a9061374c565b90600052602060002090601f016020900481019282612d4c5760008555612d93565b82601f10612d6557803560ff1916838001178555612d93565b82800160010185558215612d93579182015b82811115612d92578235825591602001919060010190612d77565b5b509050612da09190612e6a565b5090565b508054612db09061374c565b6000825580601f10612dc25750612de1565b601f016020900490600052602060002090810190612de09190612e6a565b5b50565b828054612df09061374c565b90600052602060002090601f016020900481019282612e125760008555612e59565b82601f10612e2b57805160ff1916838001178555612e59565b82800160010185558215612e59579182015b82811115612e58578251825591602001919060010190612e3d565b5b509050612e669190612e6a565b5090565b5b80821115612e83576000816000905550600101612e6b565b5090565b6000604051905090565b600080fd5b600080fd5b60007fffffffff0000000000000000000000000000000000000000000000000000000082169050919050565b612ed081612e9b565b8114612edb57600080fd5b50565b600081359050612eed81612ec7565b92915050565b600060208284031215612f0957612f08612e91565b5b6000612f1784828501612ede565b91505092915050565b60008115159050919050565b612f3581612f20565b82525050565b6000602082019050612f506000830184612f2c565b92915050565b600081519050919050565b600082825260208201905092915050565b60005b83811015612f90578082015181840152602081019050612f75565b83811115612f9f576000848401525b50505050565b6000601f19601f8301169050919050565b6000612fc182612f56565b612fcb8185612f61565b9350612fdb818560208601612f72565b612fe481612fa5565b840191505092915050565b600060208201905081810360008301526130098184612fb6565b905092915050565b6000819050919050565b61302481613011565b811461302f57600080fd5b50565b6000813590506130418161301b565b92915050565b60006020828403121561305d5761305c612e91565b5b600061306b84828501613032565b91505092915050565b600073ffffffffffffffffffffffffffffffffffffffff82169050919050565b600061309f82613074565b9050919050565b6130af81613094565b82525050565b60006020820190506130ca60008301846130a6565b92915050565b6130d981613094565b81146130e457600080fd5b50565b6000813590506130f6816130d0565b92915050565b6000806040838503121561311357613112612e91565b5b6000613121858286016130e7565b925050602061313285828601613032565b9150509250929050565b6004811061314957600080fd5b50565b60008135905061315b8161313c565b92915050565b60008060006060848603121561317a57613179612e91565b5b60006131888682870161314c565b9350506020613199868287016130e7565b92505060406131aa86828701613032565b9150509250925092565b6000806000606084860312156131cd576131cc612e91565b5b60006131db868287016130e7565b93505060206131ec868287016130e7565b92505060406131fd86828701613032565b9150509250925092565b61321081613011565b82525050565b600060208201905061322b6000830184613207565b92915050565b600061323c82613074565b9050919050565b61324c81613231565b811461325757600080fd5b50565b60008135905061326981613243565b92915050565b600080fd5b600080fd5b7f4e487b7100000000000000000000000000000000000000000000000000000000600052604160045260246000fd5b6132b182612fa5565b810181811067ffffffffffffffff821117156132d0576132cf613279565b5b80604052505050565b60006132e3612e87565b90506132ef82826132a8565b919050565b600067ffffffffffffffff82111561330f5761330e613279565b5b61331882612fa5565b9050602081019050919050565b82818337600083830152505050565b6000613347613342846132f4565b6132d9565b90508281526020810184848401111561336357613362613274565b5b61336e848285613325565b509392505050565b600082601f83011261338b5761338a61326f565b5b813561339b848260208601613334565b91505092915050565b6000806000606084860312156133bd576133bc612e91565b5b60006133cb8682870161325a565b93505060206133dc86828701613032565b925050604084013567ffffffffffffffff8111156133fd576133fc612e96565b5b61340986828701613376565b9150509250925092565b600080fd5b600080fd5b60008083601f8401126134335761343261326f565b5b8235905067ffffffffffffffff8111156134505761344f613413565b5b60208301915083600182028301111561346c5761346b613418565b5b9250929050565b6000806020838503121561348a57613489612e91565b5b600083013567ffffffffffffffff8111156134a8576134a7612e96565b5b6134b48582860161341d565b92509250509250929050565b6000806000604084860312156134d9576134d8612e91565b5b60006134e786828701613032565b935050602084013567ffffffffffffffff81111561350857613507612e96565b5b6135148682870161341d565b92509250509250925092565b60006020828403121561353657613535612e91565b5b6000613544848285016130e7565b91505092915050565b61355681612f20565b811461356157600080fd5b50565b6000813590506135738161354d565b92915050565b600080604083850312156135905761358f612e91565b5b600061359e858286016130e7565b92505060206135af85828601613564565b9150509250929050565b600067ffffffffffffffff8211156135d4576135d3613279565b5b6135dd82612fa5565b9050602081019050919050565b60006135fd6135f8846135b9565b6132d9565b90508281526020810184848401111561361957613618613274565b5b613624848285613325565b509392505050565b600082601f8301126136415761364061326f565b5b81356136518482602086016135ea565b91505092915050565b6000806000806080858703121561367457613673612e91565b5b6000613682878288016130e7565b9450506020613693878288016130e7565b93505060406136a487828801613032565b925050606085013567ffffffffffffffff8111156136c5576136c4612e96565b5b6136d18782880161362c565b91505092959194509250565b600080604083850312156136f4576136f3612e91565b5b6000613702858286016130e7565b9250506020613713858286016130e7565b9150509250929050565b7f4e487b7100000000000000000000000000000000000000000000000000000000600052602260045260246000fd5b6000600282049050600182168061376457607f821691505b602082108114156137785761377761371d565b5b50919050565b7f4552433732313a20617070726f76656420717565727920666f72206e6f6e657860008201527f697374656e7420746f6b656e0000000000000000000000000000000000000000602082015250565b60006137da602c83612f61565b91506137e58261377e565b604082019050919050565b60006020820190508181036000830152613809816137cd565b9050919050565b7f4552433732313a20617070726f76616c20746f2063757272656e74206f776e6560008201527f7200000000000000000000000000000000000000000000000000000000000000602082015250565b600061386c602183612f61565b915061387782613810565b604082019050919050565b6000602082019050818103600083015261389b8161385f565b9050919050565b7f4552433732313a20617070726f76652063616c6c6572206973206e6f74206f7760008201527f6e6572206e6f7220617070726f76656420666f7220616c6c0000000000000000602082015250565b60006138fe603883612f61565b9150613909826138a2565b604082019050919050565b6000602082019050818103600083015261392d816138f1565b9050919050565b7f4f776e61626c653a2063616c6c6572206973206e6f7420746865206f776e6572600082015250565b600061396a602083612f61565b915061397582613934565b602082019050919050565b600060208201905081810360008301526139998161395d565b9050919050565b7f4e487b7100000000000000000000000000000000000000000000000000000000600052602160045260246000fd5b7f4552433732313a207472616e736665722063616c6c6572206973206e6f74206f60008201527f776e6572206e6f7220617070726f766564000000000000000000000000000000602082015250565b6000613a2b603183612f61565b9150613a36826139cf565b604082019050919050565b60006020820190508181036000830152613a5a81613a1e565b9050919050565b7f4e6f7420617070726f766564206f72206f776e65720000000000000000000000600082015250565b6000613a97601583612f61565b9150613aa282613a61565b602082019050919050565b60006020820190508181036000830152613ac681613a8a565b9050919050565b7f4552433732313a206f776e657220717565727920666f72206e6f6e657869737460008201527f656e7420746f6b656e0000000000000000000000000000000000000000000000602082015250565b6000613b29602983612f61565b9150613b3482613acd565b604082019050919050565b60006020820190508181036000830152613b5881613b1c565b9050919050565b7f4552433732313a2062616c616e636520717565727920666f7220746865207a6560008201527f726f206164647265737300000000000000000000000000000000000000000000602082015250565b6000613bbb602a83612f61565b9150613bc682613b5f565b604082019050919050565b60006020820190508181036000830152613bea81613bae565b9050919050565b7f4552433732313a20617070726f766520746f2063616c6c657200000000000000600082015250565b6000613c27601983612f61565b9150613c3282613bf1565b602082019050919050565b60006020820190508181036000830152613c5681613c1a565b9050919050565b7f45524337323155524953746f726167653a2055524920717565727920666f722060008201527f6e6f6e6578697374656e7420746f6b656e000000000000000000000000000000602082015250565b6000613cb9603183612f61565b9150613cc482613c5d565b604082019050919050565b60006020820190508181036000830152613ce881613cac565b9050919050565b600081905092915050565b6000613d0582612f56565b613d0f8185613cef565b9350613d1f818560208601612f72565b80840191505092915050565b6000613d378285613cfa565b9150613d438284613cfa565b91508190509392505050565b7f4f776e61626c653a206e6577206f776e657220697320746865207a65726f206160008201527f6464726573730000000000000000000000000000000000000000000000000000602082015250565b6000613dab602683612f61565b9150613db682613d4f565b604082019050919050565b60006020820190508181036000830152613dda81613d9e565b9050919050565b6000604082019050613df660008301856130a6565b613e036020830184613207565b9392505050565b600081519050613e198161301b565b92915050565b600060208284031215613e3557613e34612e91565b5b6000613e4384828501613e0a565b91505092915050565b6000819050919050565b6000613e71613e6c613e6784613074565b613e4c565b613074565b9050919050565b6000613e8382613e56565b9050919050565b6000613e9582613e78565b9050919050565b613ea581613e8a565b82525050565b600082825260208201905092915050565b50565b6000613ecc600083613eab565b9150613ed782613ebc565b600082019050919050565b600060a082019050613ef760008301876130a6565b613f046020830186613e9c565b613f116040830185613207565b613f1e6060830184613207565b8181036080830152613f2f81613ebf565b905095945050505050565b6000606082019050613f4f60008301866130a6565b613f5c6020830185613e9c565b613f696040830184613207565b949350505050565b7f4552433732313a206f70657261746f7220717565727920666f72206e6f6e657860008201527f697374656e7420746f6b656e0000000000000000000000000000000000000000602082015250565b6000613fcd602c83612f61565b9150613fd882613f71565b604082019050919050565b60006020820190508181036000830152613ffc81613fc0565b9050919050565b7f4552433732313a207472616e73666572206f6620746f6b656e2074686174206960008201527f73206e6f74206f776e0000000000000000000000000000000000000000000000602082015250565b600061405f602983612f61565b915061406a82614003565b604082019050919050565b6000602082019050818103600083015261408e81614052565b9050919050565b7f4552433732313a207472616e7366657220746f20746865207a65726f2061646460008201527f7265737300000000000000000000000000000000000000000000000000000000602082015250565b60006140f1602483612f61565b91506140fc82614095565b604082019050919050565b60006020820190508181036000830152614120816140e4565b9050919050565b7f4e487b7100000000000000000000000000000000000000000000000000000000600052601160045260246000fd5b600061416182613011565b915061416c83613011565b92508282101561417f5761417e614127565b5b828203905092915050565b600061419582613011565b91506141a083613011565b9250827fffffffffffffffffffffffffffffffffffffffffffffffffffffffffffffffff038211156141d5576141d4614127565b5b828201905092915050565b7f45524337323155524953746f726167653a2055524920736574206f66206e6f6e60008201527f6578697374656e7420746f6b656e000000000000000000000000000000000000602082015250565b600061423c602e83612f61565b9150614247826141e0565b604082019050919050565b6000602082019050818103600083015261426b8161422f565b9050919050565b7f4552433732313a207472616e7366657220746f206e6f6e20455243373231526560008201527f63656976657220696d706c656d656e7465720000000000000000000000000000602082015250565b60006142ce603283612f61565b91506142d982614272565b604082019050919050565b600060208201905081810360008301526142fd816142c1565b9050919050565b7f4552433732314d657461646174613a2055524920717565727920666f72206e6f60008201527f6e6578697374656e7420746f6b656e0000000000000000000000000000000000602082015250565b6000614360602f83612f61565b915061436b82614304565b604082019050919050565b6000602082019050818103600083015261438f81614353565b9050919050565b600081519050919050565b60006143ac82614396565b6143b68185613eab565b93506143c6818560208601612f72565b6143cf81612fa5565b840191505092915050565b60006080820190506143ef60008301876130a6565b6143fc60208301866130a6565b6144096040830185613207565b818103606083015261441b81846143a1565b905095945050505050565b60008151905061443581612ec7565b92915050565b60006020828403121561445157614450612e91565b5b600061445f84828501614426565b91505092915050565b600061447382613011565b91507fffffffffffffffffffffffffffffffffffffffffffffffffffffffffffffffff8214156144a6576144a5614127565b5b600182019050919050565b7f4e487b7100000000000000000000000000000000000000000000000000000000600052601260045260246000fd5b60006144eb82613011565b91506144f683613011565b925082614506576145056144b1565b5b828204905092915050565b600061451c82613011565b915061452783613011565b925082614537576145366144b1565b5b828206905092915050565b7f4e487b7100000000000000000000000000000000000000000000000000000000600052603260045260246000fd5b6000815190506145808161354d565b92915050565b60006020828403121561459c5761459b612e91565b5b60006145aa84828501614571565b91505092915050565b7f5361666545524332303a204552433230206f7065726174696f6e20646964206e60008201527f6f74207375636365656400000000000000000000000000000000000000000000602082015250565b600061460f602a83612f61565b915061461a826145b3565b604082019050919050565b6000602082019050818103600083015261463e81614602565b9050919050565b7f4552433732313a206d696e7420746f20746865207a65726f2061646472657373600082015250565b600061467b602083612f61565b915061468682614645565b602082019050919050565b600060208201905081810360008301526146aa8161466e565b9050919050565b7f4552433732313a20746f6b656e20616c7265616479206d696e74656400000000600082015250565b60006146e7601c83612f61565b91506146f2826146b1565b602082019050919050565b60006020820190508181036000830152614716816146da565b9050919050565b7f416464726573733a20696e73756666696369656e742062616c616e636520666f60008201527f722063616c6c0000000000000000000000000000000000000000000000000000602082015250565b6000614779602683612f61565b91506147848261471d565b604082019050919050565b600060208201905081810360008301526147a88161476c565b9050919050565b7f416464726573733a2063616c6c20746f206e6f6e2d636f6e7472616374000000600082015250565b60006147e5601d83612f61565b91506147f0826147af565b602082019050919050565b60006020820190508181036000830152614814816147d8565b9050919050565b600081905092915050565b600061483182614396565b61483b818561481b565b935061484b818560208601612f72565b80840191505092915050565b60006148638284614826565b91508190509291505056fe5477696c6967687420537061726b6c6520697320746865206375746573742c20736d6172746573742c20616c6c2061726f756e64206265737420706f6e7921a26469706673582212200bee46c2b004f5274749bfde69704676672e31748a21fc579944a26c5e295bf864736f6c634300080a0033608060405234801561001057600080fd5b5061002d61002261003260201b60201c565b61003a60201b60201c565b6100fe565b600033905090565b60008060009054906101000a900473ffffffffffffffffffffffffffffffffffffffff169050816000806101000a81548173ffffffffffffffffffffffffffffffffffffffff021916908373ffffffffffffffffffffffffffffffffffffffff1602179055508173ffffffffffffffffffffffffffffffffffffffff168173ffffffffffffffffffffffffffffffffffffffff167f8be0079c531659141344cd1fd0a4f28419497f9722a3daafe3b4186f6b6457e060405160405180910390a35050565b611a778061010d6000396000f3fe6080604052600436106100915760003560e01c80638da5cb5b116100595780638da5cb5b1461015c578063a6e943ff14610187578063bc197c81146101b0578063f23a6e61146101ed578063f2fde38b1461022a57610091565b806301ffc9a714610096578063150b7a02146100d357806319511a7a1461011057806364e719241461013b578063715018a614610145575b600080fd5b3480156100a257600080fd5b506100bd60048036038101906100b89190610e3a565b610253565b6040516100ca9190610e82565b60405180910390f35b3480156100df57600080fd5b506100fa60048036038101906100f59190611077565b610405565b6040516101079190611109565b60405180910390f35b34801561011c57600080fd5b50610125610419565b60405161013291906111ac565b60405180910390f35b610143610439565b005b34801561015157600080fd5b5061015a610505565b005b34801561016857600080fd5b5061017161058d565b60405161017e91906111dd565b60405180910390f35b34801561019357600080fd5b506101ae60048036038101906101a9919061125b565b6105b6565b005b3480156101bc57600080fd5b506101d760048036038101906101d2919061139e565b6106ee565b6040516101e49190611109565b60405180910390f35b3480156101f957600080fd5b50610214600480360381019061020f919061146d565b610703565b6040516102219190611109565b60405180910390f35b34801561023657600080fd5b50610251600480360381019061024c9190611504565b610718565b005b60007f150b7a02000000000000000000000000000000000000000000000000000000007bffffffffffffffffffffffffffffffffffffffffffffffffffffffff1916827bffffffffffffffffffffffffffffffffffffffffffffffffffffffff1916148061031e57507f19511a7a000000000000000000000000000000000000000000000000000000007bffffffffffffffffffffffffffffffffffffffffffffffffffffffff1916827bffffffffffffffffffffffffffffffffffffffffffffffffffffffff1916145b8061038657507f0e083076000000000000000000000000000000000000000000000000000000007bffffffffffffffffffffffffffffffffffffffffffffffffffffffff1916827bffffffffffffffffffffffffffffffffffffffffffffffffffffffff1916145b806103ee57507f64e71924000000000000000000000000000000000000000000000000000000007bffffffffffffffffffffffffffffffffffffffffffffffffffffffff1916827bffffffffffffffffffffffffffffffffffffffffffffffffffffffff1916145b806103fe57506103fd82610810565b5b9050919050565b600063150b7a0260e01b9050949350505050565b60606040518060600160405280603f8152602001611a03603f9139905090565b61044161088a565b73ffffffffffffffffffffffffffffffffffffffff1661045f61058d565b73ffffffffffffffffffffffffffffffffffffffff16146104b5576040517f08c379a00000000000000000000000000000000000000000000000000000000081526004016104ac9061157d565b60405180910390fd5b6104bd61058d565b73ffffffffffffffffffffffffffffffffffffffff166108fc479081150290604051600060405180830381858888f19350505050158015610502573d6000803e3d6000fd5b50565b61050d61088a565b73ffffffffffffffffffffffffffffffffffffffff1661052b61058d565b73ffffffffffffffffffffffffffffffffffffffff1614610581576040517f08c379a00000000000000000000000000000000000000000000000000000000081526004016105789061157d565b60405180910390fd5b61058b6000610892565b565b60008060009054906101000a900473ffffffffffffffffffffffffffffffffffffffff16905090565b6105be61088a565b73ffffffffffffffffffffffffffffffffffffffff166105dc61058d565b73ffffffffffffffffffffffffffffffffffffffff1614610632576040517f08c379a00000000000000000000000000000000000000000000000000000000081526004016106299061157d565b60405180910390fd5b600160038111156106465761064561159d565b5b8560038111156106595761065861159d565b5b14156106705761066b84848484610956565b6106e7565b600260038111156106845761068361159d565b5b8560038111156106975761069661159d565b5b14156106ad576106a88484836109cd565b6106e6565b6003808111156106c0576106bf61159d565b5b8560038111156106d3576106d261159d565b5b14156106e5576106e48484846109fd565b5b5b5b5050505050565b600063bc197c8160e01b905095945050505050565b600063f23a6e6160e01b905095945050505050565b61072061088a565b73ffffffffffffffffffffffffffffffffffffffff1661073e61058d565b73ffffffffffffffffffffffffffffffffffffffff1614610794576040517f08c379a000000000000000000000000000000000000000000000000000000000815260040161078b9061157d565b60405180910390fd5b600073ffffffffffffffffffffffffffffffffffffffff168173ffffffffffffffffffffffffffffffffffffffff161415610804576040517f08c379a00000000000000000000000000000000000000000000000000000000081526004016107fb9061163e565b60405180910390fd5b61080d81610892565b50565b60007f4e2312e0000000000000000000000000000000000000000000000000000000007bffffffffffffffffffffffffffffffffffffffffffffffffffffffff1916827bffffffffffffffffffffffffffffffffffffffffffffffffffffffff19161480610883575061088282610a71565b5b9050919050565b600033905090565b60008060009054906101000a900473ffffffffffffffffffffffffffffffffffffffff169050816000806101000a81548173ffffffffffffffffffffffffffffffffffffffff021916908373ffffffffffffffffffffffffffffffffffffffff1602179055508173ffffffffffffffffffffffffffffffffffffffff168173ffffffffffffffffffffffffffffffffffffffff167f8be0079c531659141344cd1fd0a4f28419497f9722a3daafe3b4186f6b6457e060405160405180910390a35050565b8373ffffffffffffffffffffffffffffffffffffffff1663f242432a308585856040518563ffffffff1660e01b81526004016109959493929190611703565b600060405180830381600087803b1580156109af57600080fd5b505af11580156109c3573d6000803e3d6000fd5b5050505050505050565b6109f882828573ffffffffffffffffffffffffffffffffffffffff16610adb9092919063ffffffff16565b505050565b8273ffffffffffffffffffffffffffffffffffffffff166342842e0e3084846040518463ffffffff1660e01b8152600401610a3a9392919061175b565b600060405180830381600087803b158015610a5457600080fd5b505af1158015610a68573d6000803e3d6000fd5b50505050505050565b60007f01ffc9a7000000000000000000000000000000000000000000000000000000007bffffffffffffffffffffffffffffffffffffffffffffffffffffffff1916827bffffffffffffffffffffffffffffffffffffffffffffffffffffffff1916149050919050565b610b5c8363a9059cbb60e01b8484604051602401610afa929190611792565b604051602081830303815290604052907bffffffffffffffffffffffffffffffffffffffffffffffffffffffff19166020820180517bffffffffffffffffffffffffffffffffffffffffffffffffffffffff8381831617835250505050610b61565b505050565b6000610bc3826040518060400160405280602081526020017f5361666545524332303a206c6f772d6c6576656c2063616c6c206661696c65648152508573ffffffffffffffffffffffffffffffffffffffff16610c289092919063ffffffff16565b9050600081511115610c235780806020019051810190610be391906117e7565b610c22576040517f08c379a0000000000000000000000000000000000000000000000000000000008152600401610c1990611886565b60405180910390fd5b5b505050565b6060610c378484600085610c40565b90509392505050565b606082471015610c85576040517f08c379a0000000000000000000000000000000000000000000000000000000008152600401610c7c90611918565b60405180910390fd5b610c8e85610d54565b610ccd576040517f08c379a0000000000000000000000000000000000000000000000000000000008152600401610cc490611984565b60405180910390fd5b6000808673ffffffffffffffffffffffffffffffffffffffff168587604051610cf691906119eb565b60006040518083038185875af1925050503d8060008114610d33576040519150601f19603f3d011682016040523d82523d6000602084013e610d38565b606091505b5091509150610d48828286610d67565b92505050949350505050565b600080823b905060008111915050919050565b60608315610d7757829050610dc7565b600083511115610d8a5782518084602001fd5b816040517f08c379a0000000000000000000000000000000000000000000000000000000008152600401610dbe91906111ac565b60405180910390fd5b9392505050565b6000604051905090565b600080fd5b600080fd5b60007fffffffff0000000000000000000000000000000000000000000000000000000082169050919050565b610e1781610de2565b8114610e2257600080fd5b50565b600081359050610e3481610e0e565b92915050565b600060208284031215610e5057610e4f610dd8565b5b6000610e5e84828501610e25565b91505092915050565b60008115159050919050565b610e7c81610e67565b82525050565b6000602082019050610e976000830184610e73565b92915050565b600073ffffffffffffffffffffffffffffffffffffffff82169050919050565b6000610ec882610e9d565b9050919050565b610ed881610ebd565b8114610ee357600080fd5b50565b600081359050610ef581610ecf565b92915050565b6000819050919050565b610f0e81610efb565b8114610f1957600080fd5b50565b600081359050610f2b81610f05565b92915050565b600080fd5b600080fd5b6000601f19601f8301169050919050565b7f4e487b7100000000000000000000000000000000000000000000000000000000600052604160045260246000fd5b610f8482610f3b565b810181811067ffffffffffffffff82111715610fa357610fa2610f4c565b5b80604052505050565b6000610fb6610dce565b9050610fc28282610f7b565b919050565b600067ffffffffffffffff821115610fe257610fe1610f4c565b5b610feb82610f3b565b9050602081019050919050565b82818337600083830152505050565b600061101a61101584610fc7565b610fac565b90508281526020810184848401111561103657611035610f36565b5b611041848285610ff8565b509392505050565b600082601f83011261105e5761105d610f31565b5b813561106e848260208601611007565b91505092915050565b6000806000806080858703121561109157611090610dd8565b5b600061109f87828801610ee6565b94505060206110b087828801610ee6565b93505060406110c187828801610f1c565b925050606085013567ffffffffffffffff8111156110e2576110e1610ddd565b5b6110ee87828801611049565b91505092959194509250565b61110381610de2565b82525050565b600060208201905061111e60008301846110fa565b92915050565b600081519050919050565b600082825260208201905092915050565b60005b8381101561115e578082015181840152602081019050611143565b8381111561116d576000848401525b50505050565b600061117e82611124565b611188818561112f565b9350611198818560208601611140565b6111a181610f3b565b840191505092915050565b600060208201905081810360008301526111c68184611173565b905092915050565b6111d781610ebd565b82525050565b60006020820190506111f260008301846111ce565b92915050565b6004811061120557600080fd5b50565b600081359050611217816111f8565b92915050565b600061122882610e9d565b9050919050565b6112388161121d565b811461124357600080fd5b50565b6000813590506112558161122f565b92915050565b600080600080600060a0868803121561127757611276610dd8565b5b600061128588828901611208565b955050602061129688828901610ee6565b94505060406112a788828901611246565b93505060606112b888828901610f1c565b92505060806112c988828901610f1c565b9150509295509295909350565b600067ffffffffffffffff8211156112f1576112f0610f4c565b5b602082029050602081019050919050565b600080fd5b600061131a611315846112d6565b610fac565b9050808382526020820190506020840283018581111561133d5761133c611302565b5b835b8181101561136657806113528882610f1c565b84526020840193505060208101905061133f565b5050509392505050565b600082601f83011261138557611384610f31565b5b8135611395848260208601611307565b91505092915050565b600080600080600060a086880312156113ba576113b9610dd8565b5b60006113c888828901610ee6565b95505060206113d988828901610ee6565b945050604086013567ffffffffffffffff8111156113fa576113f9610ddd565b5b61140688828901611370565b935050606086013567ffffffffffffffff81111561142757611426610ddd565b5b61143388828901611370565b925050608086013567ffffffffffffffff81111561145457611453610ddd565b5b61146088828901611049565b9150509295509295909350565b600080600080600060a0868803121561148957611488610dd8565b5b600061149788828901610ee6565b95505060206114a888828901610ee6565b94505060406114b988828901610f1c565b93505060606114ca88828901610f1c565b925050608086013567ffffffffffffffff8111156114eb576114ea610ddd565b5b6114f788828901611049565b9150509295509295909350565b60006020828403121561151a57611519610dd8565b5b600061152884828501610ee6565b91505092915050565b7f4f776e61626c653a2063616c6c6572206973206e6f7420746865206f776e6572600082015250565b600061156760208361112f565b915061157282611531565b602082019050919050565b600060208201905081810360008301526115968161155a565b9050919050565b7f4e487b7100000000000000000000000000000000000000000000000000000000600052602160045260246000fd5b7f4f776e61626c653a206e6577206f776e657220697320746865207a65726f206160008201527f6464726573730000000000000000000000000000000000000000000000000000602082015250565b600061162860268361112f565b9150611633826115cc565b604082019050919050565b600060208201905081810360008301526116578161161b565b9050919050565b6000819050919050565b600061168361167e61167984610e9d565b61165e565b610e9d565b9050919050565b600061169582611668565b9050919050565b60006116a78261168a565b9050919050565b6116b78161169c565b82525050565b6116c681610efb565b82525050565b600082825260208201905092915050565b50565b60006116ed6000836116cc565b91506116f8826116dd565b600082019050919050565b600060a08201905061171860008301876111ce565b61172560208301866116ae565b61173260408301856116bd565b61173f60608301846116bd565b8181036080830152611750816116e0565b905095945050505050565b600060608201905061177060008301866111ce565b61177d60208301856116ae565b61178a60408301846116bd565b949350505050565b60006040820190506117a760008301856111ce565b6117b460208301846116bd565b9392505050565b6117c481610e67565b81146117cf57600080fd5b50565b6000815190506117e1816117bb565b92915050565b6000602082840312156117fd576117fc610dd8565b5b600061180b848285016117d2565b91505092915050565b7f5361666545524332303a204552433230206f7065726174696f6e20646964206e60008201527f6f74207375636365656400000000000000000000000000000000000000000000602082015250565b6000611870602a8361112f565b915061187b82611814565b604082019050919050565b6000602082019050818103600083015261189f81611863565b9050919050565b7f416464726573733a20696e73756666696369656e742062616c616e636520666f60008201527f722063616c6c0000000000000000000000000000000000000000000000000000602082015250565b600061190260268361112f565b915061190d826118a6565b604082019050919050565b60006020820190508181036000830152611931816118f5565b9050919050565b7f416464726573733a2063616c6c20746f206e6f6e2d636f6e7472616374000000600082015250565b600061196e601d8361112f565b915061197982611938565b602082019050919050565b6000602082019050818103600083015261199d81611961565b9050919050565b600081519050919050565b600081905092915050565b60006119c5826119a4565b6119cf81856119af565b93506119df818560208601611140565b80840191505092915050565b60006119f782846119ba565b91508190509291505056fe5477696c6967687420537061726b6c6520697320746865206375746573742c20736d6172746573742c20616c6c2061726f756e64206265737420706f6e7921a2646970667358221220c15f0ddb6b5bf65424abe1abfa74c70b2a1c5caae388f85938a85301ef81001164736f6c634300080a0033",
  "linkReferences": {},
  "deployedLinkReferences": {}
}