{
  "_format": "hh-sol-artifact-1",
  "contractName": "MarebitsLockerAccount",
  "sourceName": "contracts/MarebitsLockerAccount.sol",
  "abi": [
    {
      "anonymous": false,
      "inputs": [
        {
          "indexed": true,
          "internalType": "address",
          "name": "previousOwner",
          "type": "address"
        },
        {
          "indexed": true,
          "internalType": "address",
          "name": "newOwner",
          "type": "address"
        }
      ],
      "name": "OwnershipTransferred",
      "type": "event"
    },
    {
      "inputs": [
        {
          "internalType": "uint256",
          "name": "accountId",
          "type": "uint256"
        },
        {
          "internalType": "uint256",
          "name": "amount",
          "type": "uint256"
        },
        {
          "internalType": "address",
          "name": "tokenContract",
          "type": "address"
        },
        {
          "internalType": "uint256",
          "name": "tokenId",
          "type": "uint256"
        },
        {
          "internalType": "enum ITokenTypeable.TokenType",
          "name": "tokenType",
          "type": "uint8"
        },
        {
          "internalType": "uint256",
          "name": "unlockTime",
          "type": "uint256"
        }
      ],
      "name": "__createAccount",
      "outputs": [],
      "stateMutability": "nonpayable",
      "type": "function"
    },
    {
      "inputs": [],
      "name": "__recoverEther",
      "outputs": [],
      "stateMutability": "payable",
      "type": "function"
    },
    {
      "inputs": [
        {
          "internalType": "enum ITokenTypeable.TokenType",
          "name": "tokenType",
          "type": "uint8"
        },
        {
          "internalType": "address",
          "name": "tokenContract",
          "type": "address"
        },
        {
          "internalType": "uint256",
          "name": "tokenId",
          "type": "uint256"
        }
      ],
      "name": "__recoverTokens",
      "outputs": [],
      "stateMutability": "nonpayable",
      "type": "function"
    },
    {
      "inputs": [
        {
          "internalType": "uint256",
          "name": "accountId",
          "type": "uint256"
        },
        {
          "internalType": "uint256",
          "name": "amount",
          "type": "uint256"
        }
      ],
      "name": "__setAmount",
      "outputs": [],
      "stateMutability": "nonpayable",
      "type": "function"
    },
    {
      "inputs": [
        {
          "internalType": "uint256",
          "name": "accountId",
          "type": "uint256"
        },
        {
          "internalType": "uint256",
          "name": "unlockTime",
          "type": "uint256"
        }
      ],
      "name": "__setUnlockTime",
      "outputs": [],
      "stateMutability": "nonpayable",
      "type": "function"
    },
    {
      "inputs": [],
      "name": "bestPony",
      "outputs": [
        {
          "internalType": "string",
          "name": "",
          "type": "string"
        }
      ],
      "stateMutability": "pure",
      "type": "function"
    },
    {
      "inputs": [
        {
          "internalType": "uint256",
          "name": "accountId",
          "type": "uint256"
        }
      ],
      "name": "getAccount",
      "outputs": [
        {
          "internalType": "uint256",
          "name": "",
          "type": "uint256"
        },
        {
          "internalType": "string",
          "name": "",
          "type": "string"
        },
        {
          "internalType": "address",
          "name": "",
          "type": "address"
        },
        {
          "internalType": "uint256",
          "name": "",
          "type": "uint256"
        },
        {
          "internalType": "enum ITokenTypeable.TokenType",
          "name": "",
          "type": "uint8"
        },
        {
          "internalType": "string",
          "name": "",
          "type": "string"
        },
        {
          "internalType": "uint256",
          "name": "",
          "type": "uint256"
        }
      ],
      "stateMutability": "view",
      "type": "function"
    },
    {
      "inputs": [
        {
          "internalType": "uint256",
          "name": "accountId",
          "type": "uint256"
        }
      ],
      "name": "getAmount",
      "outputs": [
        {
          "internalType": "uint256",
          "name": "",
          "type": "uint256"
        }
      ],
      "stateMutability": "view",
      "type": "function"
    },
    {
      "inputs": [
        {
          "internalType": "uint256",
          "name": "accountId",
          "type": "uint256"
        }
      ],
      "name": "getMetadata",
      "outputs": [
        {
          "internalType": "string",
          "name": "",
          "type": "string"
        }
      ],
      "stateMutability": "view",
      "type": "function"
    },
    {
      "inputs": [
        {
          "internalType": "uint256",
          "name": "accountId",
          "type": "uint256"
        }
      ],
      "name": "getTokenContract",
      "outputs": [
        {
          "internalType": "address",
          "name": "",
          "type": "address"
        }
      ],
      "stateMutability": "view",
      "type": "function"
    },
    {
      "inputs": [
        {
          "internalType": "uint256",
          "name": "accountId",
          "type": "uint256"
        }
      ],
      "name": "getTokenId",
      "outputs": [
        {
          "internalType": "uint256",
          "name": "",
          "type": "uint256"
        }
      ],
      "stateMutability": "view",
      "type": "function"
    },
    {
      "inputs": [
        {
          "internalType": "uint256",
          "name": "accountId",
          "type": "uint256"
        }
      ],
      "name": "getTokenType",
      "outputs": [
        {
          "internalType": "enum ITokenTypeable.TokenType",
          "name": "",
          "type": "uint8"
        }
      ],
      "stateMutability": "view",
      "type": "function"
    },
    {
      "inputs": [
        {
          "internalType": "uint256",
          "name": "accountId",
          "type": "uint256"
        }
      ],
      "name": "getTokenUri",
      "outputs": [
        {
          "internalType": "string",
          "name": "",
          "type": "string"
        }
      ],
      "stateMutability": "view",
      "type": "function"
    },
    {
      "inputs": [
        {
          "internalType": "uint256",
          "name": "accountId",
          "type": "uint256"
        }
      ],
      "name": "getUnlockTime",
      "outputs": [
        {
          "internalType": "uint256",
          "name": "",
          "type": "uint256"
        }
      ],
      "stateMutability": "view",
      "type": "function"
    },
    {
      "inputs": [
        {
          "internalType": "uint256",
          "name": "accountId",
          "type": "uint256"
        }
      ],
      "name": "isUnlocked",
      "outputs": [
        {
          "internalType": "bool",
          "name": "",
          "type": "bool"
        }
      ],
      "stateMutability": "view",
      "type": "function"
    },
    {
      "inputs": [],
      "name": "owner",
      "outputs": [
        {
          "internalType": "address",
          "name": "",
          "type": "address"
        }
      ],
      "stateMutability": "view",
      "type": "function"
    },
    {
      "inputs": [],
      "name": "renounceOwnership",
      "outputs": [],
      "stateMutability": "nonpayable",
      "type": "function"
    },
    {
      "inputs": [
        {
          "internalType": "bytes4",
          "name": "interfaceId",
          "type": "bytes4"
        }
      ],
      "name": "supportsInterface",
      "outputs": [
        {
          "internalType": "bool",
          "name": "",
          "type": "bool"
        }
      ],
      "stateMutability": "view",
      "type": "function"
    },
    {
      "inputs": [
        {
          "internalType": "address",
          "name": "newOwner",
          "type": "address"
        }
      ],
      "name": "transferOwnership",
      "outputs": [],
      "stateMutability": "nonpayable",
      "type": "function"
    }
  ],
  "bytecode": "0x60806040523480156200001157600080fd5b5062000032620000266200003860201b60201c565b6200004060201b60201c565b62000104565b600033905090565b60008060009054906101000a900473ffffffffffffffffffffffffffffffffffffffff169050816000806101000a81548173ffffffffffffffffffffffffffffffffffffffff021916908373ffffffffffffffffffffffffffffffffffffffff1602179055508173ffffffffffffffffffffffffffffffffffffffff168173ffffffffffffffffffffffffffffffffffffffff167f8be0079c531659141344cd1fd0a4f28419497f9722a3daafe3b4186f6b6457e060405160405180910390a35050565b613ba380620001146000396000f3fe6080604052600436106101145760003560e01c806376aed2e1116100a0578063a574cea411610064578063a574cea4146103b6578063b21536e6146103f3578063ce88b14514610430578063eafcfb9914610473578063f2fde38b1461049c57610114565b806376aed2e1146102975780638ad91345146102d45780638da5cb5b146103115780639980ec861461033c578063a07e51991461037957610114565b80631c3eeaac116100e75780631c3eeaac146101e7578063404ff5cd1461021057806364e7192414610239578063715018a61461024357806372abc8b71461025a57610114565b806301ffc9a71461011957806314ff5ea31461015657806317e4c78c1461019357806319511a7a146101bc575b600080fd5b34801561012557600080fd5b50610140600480360381019061013b919061279e565b6104c5565b60405161014d91906127e6565b60405180910390f35b34801561016257600080fd5b5061017d60048036038101906101789190612837565b6106df565b60405161018a9190612873565b60405180910390f35b34801561019f57600080fd5b506101ba60048036038101906101b5919061288e565b6106ff565b005b3480156101c857600080fd5b506101d161079a565b6040516101de9190612967565b60405180910390f35b3480156101f357600080fd5b5061020e60048036038101906102099190612a0c565b6107ba565b005b34801561021c57600080fd5b5061023760048036038101906102329190612a5f565b6108eb565b005b610241610d24565b005b34801561024f57600080fd5b50610258610df0565b005b34801561026657600080fd5b50610281600480360381019061027c9190612837565b610e78565b60405161028e91906127e6565b60405180910390f35b3480156102a357600080fd5b506102be60048036038101906102b99190612837565b610e9b565b6040516102cb9190612b63565b60405180910390f35b3480156102e057600080fd5b506102fb60048036038101906102f69190612837565b610ec8565b6040516103089190612967565b60405180910390f35b34801561031d57600080fd5b50610326610f70565b6040516103339190612b8d565b60405180910390f35b34801561034857600080fd5b50610363600480360381019061035e9190612837565b610f99565b6040516103709190612873565b60405180910390f35b34801561038557600080fd5b506103a0600480360381019061039b9190612837565b610fb9565b6040516103ad9190612b8d565b60405180910390f35b3480156103c257600080fd5b506103dd60048036038101906103d89190612837565b610ff9565b6040516103ea9190612967565b60405180910390f35b3480156103ff57600080fd5b5061041a60048036038101906104159190612837565b6110a1565b6040516104279190612873565b60405180910390f35b34801561043c57600080fd5b5061045760048036038101906104529190612837565b6110c1565b60405161046a9796959493929190612ba8565b60405180910390f35b34801561047f57600080fd5b5061049a6004803603810190610495919061288e565b6112cb565b005b3480156104a857600080fd5b506104c360048036038101906104be9190612c25565b611366565b005b60007f19511a7a000000000000000000000000000000000000000000000000000000007bffffffffffffffffffffffffffffffffffffffffffffffffffffffff1916827bffffffffffffffffffffffffffffffffffffffffffffffffffffffff1916148061059057507f0e083076000000000000000000000000000000000000000000000000000000007bffffffffffffffffffffffffffffffffffffffffffffffffffffffff1916827bffffffffffffffffffffffffffffffffffffffffffffffffffffffff1916145b806105f857507f64e71924000000000000000000000000000000000000000000000000000000007bffffffffffffffffffffffffffffffffffffffffffffffffffffffff1916827bffffffffffffffffffffffffffffffffffffffffffffffffffffffff1916145b8061066057507f1c3eeaac000000000000000000000000000000000000000000000000000000007bffffffffffffffffffffffffffffffffffffffffffffffffffffffff1916827bffffffffffffffffffffffffffffffffffffffffffffffffffffffff1916145b806106c857507f7a34a3a8000000000000000000000000000000000000000000000000000000007bffffffffffffffffffffffffffffffffffffffffffffffffffffffff1916827bffffffffffffffffffffffffffffffffffffffffffffffffffffffff1916145b806106d857506106d78261145e565b5b9050919050565b600060016000838152602001908152602001600020600301549050919050565b6107076114c8565b73ffffffffffffffffffffffffffffffffffffffff16610725610f70565b73ffffffffffffffffffffffffffffffffffffffff161461077b576040517f08c379a000000000000000000000000000000000000000000000000000000000815260040161077290612c9e565b60405180910390fd5b8060016000848152602001908152602001600020600001819055505050565b60606040518060600160405280603f8152602001613af5603f9139905090565b6107c26114c8565b73ffffffffffffffffffffffffffffffffffffffff166107e0610f70565b73ffffffffffffffffffffffffffffffffffffffff1614610836576040517f08c379a000000000000000000000000000000000000000000000000000000000815260040161082d90612c9e565b60405180910390fd5b6001600381111561084a57610849612aec565b5b83600381111561085d5761085c612aec565b5b14156108725761086d82826114d0565b6108e6565b6002600381111561088657610885612aec565b5b83600381111561089957610898612aec565b5b14156108ad576108a8826115c6565b6108e5565b6003808111156108c0576108bf612aec565b5b8360038111156108d3576108d2612aec565b5b14156108e4576108e38282611674565b5b5b5b505050565b6108f36114c8565b73ffffffffffffffffffffffffffffffffffffffff16610911610f70565b73ffffffffffffffffffffffffffffffffffffffff1614610967576040517f08c379a000000000000000000000000000000000000000000000000000000000815260040161095e90612c9e565b60405180910390fd5b600085116109aa576040517f08c379a00000000000000000000000000000000000000000000000000000000081526004016109a190612d0a565b60405180910390fd5b6003808111156109bd576109bc612aec565b5b8260038111156109d0576109cf612aec565b5b1415806109dd5750600185145b610a1c576040517f08c379a0000000000000000000000000000000000000000000000000000000008152600401610a1390612d9c565b60405180910390fd5b60026003811115610a3057610a2f612aec565b5b826003811115610a4357610a42612aec565b5b1480610a4f5750600083115b610a8e576040517f08c379a0000000000000000000000000000000000000000000000000000000008152600401610a8590612e2e565b60405180910390fd5b428111610ad0576040517f08c379a0000000000000000000000000000000000000000000000000000000008152600401610ac790612ec0565b60405180910390fd5b600060016000888152602001908152602001600020905085858585858560000160008760020160008960030160008b60040160008d60060160008a919050558991906101000a81548160ff02191690836003811115610b3257610b31612aec565b5b021790555088919050558791906101000a81548173ffffffffffffffffffffffffffffffffffffffff021916908373ffffffffffffffffffffffffffffffffffffffff160217905550869190505550505050506000604051806020016040528060008152509050600082600301541115610bd557610bb382600301546116ee565b604051602001610bc39190612fb4565b60405160208183030381529060405290505b610be282600001546116ee565b610c258360020160009054906101000a900473ffffffffffffffffffffffffffffffffffffffff1673ffffffffffffffffffffffffffffffffffffffff166116ee565b82610c3385600601546116ee565b604051602001610c46949392919061326b565b604051602081830303815290604052826001019080519060200190610c6c92919061269e565b50610d02826001018054610c7f9061330f565b80601f0160208091040260200160405190810160405280929190818152602001828054610cab9061330f565b8015610cf85780601f10610ccd57610100808354040283529160200191610cf8565b820191906000526020600020905b815481529060010190602001808311610cdb57829003601f168201915b505050505061184f565b826005019080519060200190610d1992919061269e565b505050505050505050565b610d2c6114c8565b73ffffffffffffffffffffffffffffffffffffffff16610d4a610f70565b73ffffffffffffffffffffffffffffffffffffffff1614610da0576040517f08c379a0000000000000000000000000000000000000000000000000000000008152600401610d9790612c9e565b60405180910390fd5b610da8610f70565b73ffffffffffffffffffffffffffffffffffffffff166108fc479081150290604051600060405180830381858888f19350505050158015610ded573d6000803e3d6000fd5b50565b610df86114c8565b73ffffffffffffffffffffffffffffffffffffffff16610e16610f70565b73ffffffffffffffffffffffffffffffffffffffff1614610e6c576040517f08c379a0000000000000000000000000000000000000000000000000000000008152600401610e6390612c9e565b60405180910390fd5b610e766000611a08565b565b600042600160008481526020019081526020016000206006015411159050919050565b60006001600083815260200190815260200160002060040160009054906101000a900460ff169050919050565b6060600160008381526020019081526020016000206005018054610eeb9061330f565b80601f0160208091040260200160405190810160405280929190818152602001828054610f179061330f565b8015610f645780601f10610f3957610100808354040283529160200191610f64565b820191906000526020600020905b815481529060010190602001808311610f4757829003601f168201915b50505050509050919050565b60008060009054906101000a900473ffffffffffffffffffffffffffffffffffffffff16905090565b600060016000838152602001908152602001600020600001549050919050565b60006001600083815260200190815260200160002060020160009054906101000a900473ffffffffffffffffffffffffffffffffffffffff169050919050565b606060016000838152602001908152602001600020600101805461101c9061330f565b80601f01602080910402602001604051908101604052809291908181526020018280546110489061330f565b80156110955780601f1061106a57610100808354040283529160200191611095565b820191906000526020600020905b81548152906001019060200180831161107857829003601f168201915b50505050509050919050565b600060016000838152602001908152602001600020600601549050919050565b600060606000806000606060006001600089815260200190815260200160002060000154600160008a8152602001908152602001600020600101600160008b815260200190815260200160002060020160009054906101000a900473ffffffffffffffffffffffffffffffffffffffff16600160008c815260200190815260200160002060030154600160008d815260200190815260200160002060040160009054906101000a900460ff16600160008e8152602001908152602001600020600501600160008f8152602001908152602001600020600601548580546111a69061330f565b80601f01602080910402602001604051908101604052809291908181526020018280546111d29061330f565b801561121f5780601f106111f45761010080835404028352916020019161121f565b820191906000526020600020905b81548152906001019060200180831161120257829003601f168201915b505050505095508180546112329061330f565b80601f016020809104026020016040519081016040528092919081815260200182805461125e9061330f565b80156112ab5780601f10611280576101008083540402835291602001916112ab565b820191906000526020600020905b81548152906001019060200180831161128e57829003601f168201915b505050505091509650965096509650965096509650919395979092949650565b6112d36114c8565b73ffffffffffffffffffffffffffffffffffffffff166112f1610f70565b73ffffffffffffffffffffffffffffffffffffffff1614611347576040517f08c379a000000000000000000000000000000000000000000000000000000000815260040161133e90612c9e565b60405180910390fd5b8060016000848152602001908152602001600020600601819055505050565b61136e6114c8565b73ffffffffffffffffffffffffffffffffffffffff1661138c610f70565b73ffffffffffffffffffffffffffffffffffffffff16146113e2576040517f08c379a00000000000000000000000000000000000000000000000000000000081526004016113d990612c9e565b60405180910390fd5b600073ffffffffffffffffffffffffffffffffffffffff168173ffffffffffffffffffffffffffffffffffffffff161415611452576040517f08c379a0000000000000000000000000000000000000000000000000000000008152600401611449906133b3565b60405180910390fd5b61145b81611a08565b50565b60007f01ffc9a7000000000000000000000000000000000000000000000000000000007bffffffffffffffffffffffffffffffffffffffffffffffffffffffff1916827bffffffffffffffffffffffffffffffffffffffffffffffffffffffff1916149050919050565b600033905090565b8173ffffffffffffffffffffffffffffffffffffffff1663f242432a306114f5610f70565b848673ffffffffffffffffffffffffffffffffffffffff1662fdd58e30886040518363ffffffff1660e01b81526004016115309291906133d3565b602060405180830381865afa15801561154d573d6000803e3d6000fd5b505050506040513d601f19601f820116820180604052508101906115719190613411565b6040518563ffffffff1660e01b815260040161159094939291906134d4565b600060405180830381600087803b1580156115aa57600080fd5b505af11580156115be573d6000803e3d6000fd5b505050505050565b6116716115d1610f70565b8273ffffffffffffffffffffffffffffffffffffffff166370a08231306040518263ffffffff1660e01b815260040161160a9190612b8d565b602060405180830381865afa158015611627573d6000803e3d6000fd5b505050506040513d601f19601f8201168201806040525081019061164b9190613411565b8373ffffffffffffffffffffffffffffffffffffffff16611acc9092919063ffffffff16565b50565b8173ffffffffffffffffffffffffffffffffffffffff166342842e0e30611699610f70565b846040518463ffffffff1660e01b81526004016116b89392919061352c565b600060405180830381600087803b1580156116d257600080fd5b505af11580156116e6573d6000803e3d6000fd5b505050505050565b60606000821415611736576040518060400160405280600181526020017f3000000000000000000000000000000000000000000000000000000000000000815250905061184a565b600082905060005b6000821461176857808061175190613592565b915050600a82611761919061360a565b915061173e565b60008167ffffffffffffffff8111156117845761178361363b565b5b6040519080825280601f01601f1916602001820160405280156117b65781602001600182028036833780820191505090505b5090505b60008514611843576001826117cf919061366a565b9150600a856117de919061369e565b60306117ea91906136cf565b60f81b818381518110611800576117ff613725565b5b60200101907effffffffffffffffffffffffffffffffffffffffffffffffffffffffffffff1916908160001a905350600a8561183c919061360a565b94506117ba565b8093505050505b919050565b6060600082905060006118628251611b52565b90506000611894825160026118779190613754565b6004855161188591906136cf565b61188f91906136cf565b611b52565b90506119fe6119f96040518060400160405280600281526020017f12200000000000000000000000000000000000000000000000000000000000008152506119f460026040518060400160405280600181526020017f0a00000000000000000000000000000000000000000000000000000000000000815250866040518060400160405280600381526020017f0802120000000000000000000000000000000000000000000000000000000000815250898b6040518060400160405280600181526020017f18000000000000000000000000000000000000000000000000000000000000008152508c60405160200161199397969594939291906137f5565b6040516020818303038152906040526040516119af919061385a565b602060405180830381855afa1580156119cc573d6000803e3d6000fd5b5050506040513d601f19601f820116820180604052508101906119ef91906138a7565b611bb2565b611c91565b611e10565b9350505050919050565b60008060009054906101000a900473ffffffffffffffffffffffffffffffffffffffff169050816000806101000a81548173ffffffffffffffffffffffffffffffffffffffff021916908373ffffffffffffffffffffffffffffffffffffffff1602179055508173ffffffffffffffffffffffffffffffffffffffff168173ffffffffffffffffffffffffffffffffffffffff167f8be0079c531659141344cd1fd0a4f28419497f9722a3daafe3b4186f6b6457e060405160405180910390a35050565b611b4d8363a9059cbb60e01b8484604051602401611aeb9291906133d3565b604051602081830303815290604052907bffffffffffffffffffffffffffffffffffffffffffffffffffffffff19166020820180517bffffffffffffffffffffffffffffffffffffffffffffffffffffffff8381831617835250505050612058565b505050565b60606080821015611b6d57611b668261211f565b9050611bad565b611baa611b9060808085611b81919061369e565b611b8b91906136cf565b61211f565b611ba5608085611ba0919061360a565b61211f565b611c91565b90505b919050565b60606000602067ffffffffffffffff811115611bd157611bd061363b565b5b6040519080825280601f01601f191660200182016040528015611c035781602001600182028036833780820191505090505b50905060005b60208160ff161015611c8757838160ff1660208110611c2b57611c2a613725565b5b1a60f81b828260ff1681518110611c4557611c44613725565b5b60200101907effffffffffffffffffffffffffffffffffffffffffffffffffffffffffffff1916908160001a9053508080611c7f906138e1565b915050611c09565b5080915050919050565b6060600082518451611ca391906136cf565b67ffffffffffffffff811115611cbc57611cbb61363b565b5b6040519080825280601f01601f191660200182016040528015611cee5781602001600182028036833780820191505090505b50905060005b8451811015611d7057848181518110611d1057611d0f613725565b5b602001015160f81c60f81b828281518110611d2e57611d2d613725565b5b60200101907effffffffffffffffffffffffffffffffffffffffffffffffffffffffffffff1916908160001a9053508080611d6890613592565b915050611cf4565b5b83518551611d7f91906136cf565b811015611e055783855182611d94919061366a565b81518110611da557611da4613725565b5b602001015160f81c60f81b828281518110611dc357611dc2613725565b5b60200101907effffffffffffffffffffffffffffffffffffffffffffffffffffffffffffff1916908160001a9053508080611dfd90613592565b915050611d71565b819250505092915050565b6060600082511415611e7157600067ffffffffffffffff811115611e3757611e3661363b565b5b6040519080825280601f01601f191660200182016040528015611e695781602001600182028036833780820191505090505b509050612053565b6000604067ffffffffffffffff811115611e8e57611e8d61363b565b5b604051908082528060200260200182016040528015611ebc5781602001602082028036833780820191505090505b509050600081600081518110611ed557611ed4613725565b5b602002602001019060ff16908160ff168152505060006001905060005b8451811015612033576000858281518110611f1057611f0f613725565b5b602001015160f81c60f81b60f81c60ff16905060005b8360ff16811015611fbd57610100858281518110611f4757611f46613725565b5b602002602001015160ff16611f5c9190613754565b82611f6791906136cf565b9150603a82611f76919061369e565b858281518110611f8957611f88613725565b5b602002602001019060ff16908160ff1681525050603a82611faa919061360a565b915080611fb690613592565b9050611f26565b505b600081111561202157603a81611fd5919061369e565b848460ff1681518110611feb57611fea613725565b5b602002602001019060ff16908160ff1681525050828061200a906138e1565b935050603a8161201a919061360a565b9050611fbf565b508061202c90613592565b9050611ef2565b5061204e6120496120448484612253565b612313565b6123e6565b925050505b919050565b60006120ba826040518060400160405280602081526020017f5361666545524332303a206c6f772d6c6576656c2063616c6c206661696c65648152508573ffffffffffffffffffffffffffffffffffffffff166124f89092919063ffffffff16565b905060008151111561211a57808060200190518101906120da9190613937565b612119576040517f08c379a0000000000000000000000000000000000000000000000000000000008152600401612110906139d6565b60405180910390fd5b5b505050565b6060600082141561217f57600067ffffffffffffffff8111156121455761214461363b565b5b6040519080825280601f01601f1916602001820160405280156121775781602001600182028036833780820191505090505b50905061224e565b60006101008361218f919061369e565b60f81b90506000600167ffffffffffffffff8111156121b1576121b061363b565b5b6040519080825280601f01601f1916602001820160405280156121e35781602001600182028036833780820191505090505b50905081816000815181106121fb576121fa613725565b5b60200101907effffffffffffffffffffffffffffffffffffffffffffffffffffffffffffff1916908160001a9053506122496122436101008661223e919061360a565b61211f565b82611c91565b925050505b919050565b606060008260ff1667ffffffffffffffff8111156122745761227361363b565b5b6040519080825280602002602001820160405280156122a25781602001602082028036833780820191505090505b50905060005b8360ff16811015612308578481815181106122c6576122c5613725565b5b60200260200101518282815181106122e1576122e0613725565b5b602002602001019060ff16908160ff1681525050808061230090613592565b9150506122a8565b508091505092915050565b60606000825167ffffffffffffffff8111156123325761233161363b565b5b6040519080825280602002602001820160405280156123605781602001602082028036833780820191505090505b50905060005b83518110156123dc5783816001865161237f919061366a565b612389919061366a565b8151811061239a57612399613725565b5b60200260200101518282815181106123b5576123b4613725565b5b602002602001019060ff16908160ff168152505080806123d490613592565b915050612366565b5080915050919050565b60606000825167ffffffffffffffff8111156124055761240461363b565b5b6040519080825280601f01601f1916602001820160405280156124375781602001600182028036833780820191505090505b50905060005b83518110156124ee576040518060600160405280603a8152602001613b34603a913984828151811061247257612471613725565b5b602002602001015160ff168151811061248e5761248d613725565b5b602001015160f81c60f81b8282815181106124ac576124ab613725565b5b60200101907effffffffffffffffffffffffffffffffffffffffffffffffffffffffffffff1916908160001a90535080806124e690613592565b91505061243d565b5080915050919050565b60606125078484600085612510565b90509392505050565b606082471015612555576040517f08c379a000000000000000000000000000000000000000000000000000000000815260040161254c90613a68565b60405180910390fd5b61255e85612624565b61259d576040517f08c379a000000000000000000000000000000000000000000000000000000000815260040161259490613ad4565b60405180910390fd5b6000808673ffffffffffffffffffffffffffffffffffffffff1685876040516125c6919061385a565b60006040518083038185875af1925050503d8060008114612603576040519150601f19603f3d011682016040523d82523d6000602084013e612608565b606091505b5091509150612618828286612637565b92505050949350505050565b600080823b905060008111915050919050565b6060831561264757829050612697565b60008351111561265a5782518084602001fd5b816040517f08c379a000000000000000000000000000000000000000000000000000000000815260040161268e9190612967565b60405180910390fd5b9392505050565b8280546126aa9061330f565b90600052602060002090601f0160209004810192826126cc5760008555612713565b82601f106126e557805160ff1916838001178555612713565b82800160010185558215612713579182015b828111156127125782518255916020019190600101906126f7565b5b5090506127209190612724565b5090565b5b8082111561273d576000816000905550600101612725565b5090565b600080fd5b60007fffffffff0000000000000000000000000000000000000000000000000000000082169050919050565b61277b81612746565b811461278657600080fd5b50565b60008135905061279881612772565b92915050565b6000602082840312156127b4576127b3612741565b5b60006127c284828501612789565b91505092915050565b60008115159050919050565b6127e0816127cb565b82525050565b60006020820190506127fb60008301846127d7565b92915050565b6000819050919050565b61281481612801565b811461281f57600080fd5b50565b6000813590506128318161280b565b92915050565b60006020828403121561284d5761284c612741565b5b600061285b84828501612822565b91505092915050565b61286d81612801565b82525050565b60006020820190506128886000830184612864565b92915050565b600080604083850312156128a5576128a4612741565b5b60006128b385828601612822565b92505060206128c485828601612822565b9150509250929050565b600081519050919050565b600082825260208201905092915050565b60005b838110156129085780820151818401526020810190506128ed565b83811115612917576000848401525b50505050565b6000601f19601f8301169050919050565b6000612939826128ce565b61294381856128d9565b93506129538185602086016128ea565b61295c8161291d565b840191505092915050565b60006020820190508181036000830152612981818461292e565b905092915050565b6004811061299657600080fd5b50565b6000813590506129a881612989565b92915050565b600073ffffffffffffffffffffffffffffffffffffffff82169050919050565b60006129d9826129ae565b9050919050565b6129e9816129ce565b81146129f457600080fd5b50565b600081359050612a06816129e0565b92915050565b600080600060608486031215612a2557612a24612741565b5b6000612a3386828701612999565b9350506020612a44868287016129f7565b9250506040612a5586828701612822565b9150509250925092565b60008060008060008060c08789031215612a7c57612a7b612741565b5b6000612a8a89828a01612822565b9650506020612a9b89828a01612822565b9550506040612aac89828a016129f7565b9450506060612abd89828a01612822565b9350506080612ace89828a01612999565b92505060a0612adf89828a01612822565b9150509295509295509295565b7f4e487b7100000000000000000000000000000000000000000000000000000000600052602160045260246000fd5b60048110612b2c57612b2b612aec565b5b50565b6000819050612b3d82612b1b565b919050565b6000612b4d82612b2f565b9050919050565b612b5d81612b42565b82525050565b6000602082019050612b786000830184612b54565b92915050565b612b87816129ce565b82525050565b6000602082019050612ba26000830184612b7e565b92915050565b600060e082019050612bbd600083018a612864565b8181036020830152612bcf818961292e565b9050612bde6040830188612b7e565b612beb6060830187612864565b612bf86080830186612b54565b81810360a0830152612c0a818561292e565b9050612c1960c0830184612864565b98975050505050505050565b600060208284031215612c3b57612c3a612741565b5b6000612c49848285016129f7565b91505092915050565b7f4f776e61626c653a2063616c6c6572206973206e6f7420746865206f776e6572600082015250565b6000612c886020836128d9565b9150612c9382612c52565b602082019050919050565b60006020820190508181036000830152612cb781612c7b565b9050919050565b7f60616d6f756e7460206d7573742062652067726561746572207468616e203000600082015250565b6000612cf4601f836128d9565b9150612cff82612cbe565b602082019050919050565b60006020820190508181036000830152612d2381612ce7565b9050919050565b7f60616d6f756e7460206d757374206265203120666f722045524337323120746f60008201527f6b656e7300000000000000000000000000000000000000000000000000000000602082015250565b6000612d866024836128d9565b9150612d9182612d2a565b604082019050919050565b60006020820190508181036000830152612db581612d79565b9050919050565b7f60746f6b656e496460206d7573742062652073706563696669656420666f722060008201527f455243373231206f72204552433131353520746f6b656e730000000000000000602082015250565b6000612e186038836128d9565b9150612e2382612dbc565b604082019050919050565b60006020820190508181036000830152612e4781612e0b565b9050919050565b7f60756e6c6f636b54696d6560206d75737420626520696e20746865206675747560008201527f7265000000000000000000000000000000000000000000000000000000000000602082015250565b6000612eaa6022836128d9565b9150612eb582612e4e565b604082019050919050565b60006020820190508181036000830152612ed981612e9d565b9050919050565b600081905092915050565b7f22746f6b656e4964223a22000000000000000000000000000000000000000000600082015250565b6000612f21600b83612ee0565b9150612f2c82612eeb565b600b82019050919050565b6000612f42826128ce565b612f4c8185612ee0565b9350612f5c8185602086016128ea565b80840191505092915050565b7f222c000000000000000000000000000000000000000000000000000000000000600082015250565b6000612f9e600283612ee0565b9150612fa982612f68565b600282019050919050565b6000612fbf82612f14565b9150612fcb8284612f37565b9150612fd682612f91565b915081905092915050565b7f7b226465736372697074696f6e223a225468697320746f6b656e20656e74697460008201527f6c65732074686520686f6c64657220746f20776974686472617720746865697260208201527f206c6f636b656420746f6b656e287329206166746572207468656972206c6f6360408201527f6b20706572696f6420657870697265732066726f6d20746865204d617265204260608201527f697473204c6f636b65722e222c2265787465726e616c5f75726c223a2268747460808201527f70733a2f2f6d6172652e62697a2f222c22696d616765223a2268747470733a2f60a08201527f2f6d6172652e62697a2f6d617265626974732f69636f6e2d3936302e706e672260c08201527f2c226e616d65223a225c75443833445c75444330455c75323030445c7532363460e08201527f305c75464530465c75443833445c75444431325c75443833455c7544453939226101008201527f2c2270726f70657274696573223a207b22616d6f756e74223a2200000000000061012082015250565b600061317061013a83612ee0565b915061317b82612fe1565b61013a82019050919050565b7f222c22746f6b656e436f6e7472616374223a2200000000000000000000000000600082015250565b60006131bd601383612ee0565b91506131c882613187565b601382019050919050565b7f22756e6c6f636b54696d65223a22000000000000000000000000000000000000600082015250565b6000613209600e83612ee0565b9150613214826131d3565b600e82019050919050565b7f227d7d0000000000000000000000000000000000000000000000000000000000600082015250565b6000613255600383612ee0565b91506132608261321f565b600382019050919050565b600061327682613162565b91506132828287612f37565b915061328d826131b0565b91506132998286612f37565b91506132a482612f91565b91506132b08285612f37565b91506132bb826131fc565b91506132c78284612f37565b91506132d282613248565b915081905095945050505050565b7f4e487b7100000000000000000000000000000000000000000000000000000000600052602260045260246000fd5b6000600282049050600182168061332757607f821691505b6020821081141561333b5761333a6132e0565b5b50919050565b7f4f776e61626c653a206e6577206f776e657220697320746865207a65726f206160008201527f6464726573730000000000000000000000000000000000000000000000000000602082015250565b600061339d6026836128d9565b91506133a882613341565b604082019050919050565b600060208201905081810360008301526133cc81613390565b9050919050565b60006040820190506133e86000830185612b7e565b6133f56020830184612864565b9392505050565b60008151905061340b8161280b565b92915050565b60006020828403121561342757613426612741565b5b6000613435848285016133fc565b91505092915050565b6000819050919050565b600061346361345e613459846129ae565b61343e565b6129ae565b9050919050565b600061347582613448565b9050919050565b60006134878261346a565b9050919050565b6134978161347c565b82525050565b600082825260208201905092915050565b50565b60006134be60008361349d565b91506134c9826134ae565b600082019050919050565b600060a0820190506134e96000830187612b7e565b6134f6602083018661348e565b6135036040830185612864565b6135106060830184612864565b8181036080830152613521816134b1565b905095945050505050565b60006060820190506135416000830186612b7e565b61354e602083018561348e565b61355b6040830184612864565b949350505050565b7f4e487b7100000000000000000000000000000000000000000000000000000000600052601160045260246000fd5b600061359d82612801565b91507fffffffffffffffffffffffffffffffffffffffffffffffffffffffffffffffff8214156135d0576135cf613563565b5b600182019050919050565b7f4e487b7100000000000000000000000000000000000000000000000000000000600052601260045260246000fd5b600061361582612801565b915061362083612801565b9250826136305761362f6135db565b5b828204905092915050565b7f4e487b7100000000000000000000000000000000000000000000000000000000600052604160045260246000fd5b600061367582612801565b915061368083612801565b92508282101561369357613692613563565b5b828203905092915050565b60006136a982612801565b91506136b483612801565b9250826136c4576136c36135db565b5b828206905092915050565b60006136da82612801565b91506136e583612801565b9250827fffffffffffffffffffffffffffffffffffffffffffffffffffffffffffffffff0382111561371a57613719613563565b5b828201905092915050565b7f4e487b7100000000000000000000000000000000000000000000000000000000600052603260045260246000fd5b600061375f82612801565b915061376a83612801565b9250817fffffffffffffffffffffffffffffffffffffffffffffffffffffffffffffffff04831182151516156137a3576137a2613563565b5b828202905092915050565b600081519050919050565b600081905092915050565b60006137cf826137ae565b6137d981856137b9565b93506137e98185602086016128ea565b80840191505092915050565b6000613801828a6137c4565b915061380d82896137c4565b915061381982886137c4565b915061382582876137c4565b915061383182866137c4565b915061383d82856137c4565b915061384982846137c4565b915081905098975050505050505050565b600061386682846137c4565b915081905092915050565b6000819050919050565b61388481613871565b811461388f57600080fd5b50565b6000815190506138a18161387b565b92915050565b6000602082840312156138bd576138bc612741565b5b60006138cb84828501613892565b91505092915050565b600060ff82169050919050565b60006138ec826138d4565b915060ff821415613900576138ff613563565b5b600182019050919050565b613914816127cb565b811461391f57600080fd5b50565b6000815190506139318161390b565b92915050565b60006020828403121561394d5761394c612741565b5b600061395b84828501613922565b91505092915050565b7f5361666545524332303a204552433230206f7065726174696f6e20646964206e60008201527f6f74207375636365656400000000000000000000000000000000000000000000602082015250565b60006139c0602a836128d9565b91506139cb82613964565b604082019050919050565b600060208201905081810360008301526139ef816139b3565b9050919050565b7f416464726573733a20696e73756666696369656e742062616c616e636520666f60008201527f722063616c6c0000000000000000000000000000000000000000000000000000602082015250565b6000613a526026836128d9565b9150613a5d826139f6565b604082019050919050565b60006020820190508181036000830152613a8181613a45565b9050919050565b7f416464726573733a2063616c6c20746f206e6f6e2d636f6e7472616374000000600082015250565b6000613abe601d836128d9565b9150613ac982613a88565b602082019050919050565b60006020820190508181036000830152613aed81613ab1565b905091905056fe5477696c6967687420537061726b6c6520697320746865206375746573742c20736d6172746573742c20616c6c2061726f756e64206265737420706f6e792131323334353637383941424344454647484a4b4c4d4e505152535455565758595a6162636465666768696a6b6d6e6f707172737475767778797aa26469706673582212203a6cb84ff3d609c40b400140fbf2101a690e6ffecdcfd691111ab36aced949c664736f6c634300080a0033",
  "linkReferences": {},
  "deployedLinkReferences": {}
}