{
  "_format": "hh-sol-artifact-1",
  "contractName": "MarebitsLockerAccount",
  "sourceName": "contracts/MarebitsLockerAccount.sol",
  "abi": [
    {
      "anonymous": false,
      "inputs": [
        {
          "indexed": true,
          "internalType": "address",
          "name": "previousOwner",
          "type": "address"
        },
        {
          "indexed": true,
          "internalType": "address",
          "name": "newOwner",
          "type": "address"
        }
      ],
      "name": "OwnershipTransferred",
      "type": "event"
    },
    {
      "inputs": [
        {
          "internalType": "uint256",
          "name": "accountId",
          "type": "uint256"
        },
        {
          "internalType": "uint256",
          "name": "amount",
          "type": "uint256"
        },
        {
          "internalType": "address",
          "name": "tokenContract",
          "type": "address"
        },
        {
          "internalType": "uint256",
          "name": "tokenId",
          "type": "uint256"
        },
        {
          "internalType": "enum ITokenTypeable.TokenType",
          "name": "tokenType",
          "type": "uint8"
        },
        {
          "internalType": "uint256",
          "name": "unlockTime",
          "type": "uint256"
        }
      ],
      "name": "__createAccount",
      "outputs": [],
      "stateMutability": "nonpayable",
      "type": "function"
    },
    {
      "inputs": [],
      "name": "__recoverEther",
      "outputs": [],
      "stateMutability": "payable",
      "type": "function"
    },
    {
      "inputs": [
        {
          "internalType": "enum ITokenTypeable.TokenType",
          "name": "tokenType",
          "type": "uint8"
        },
        {
          "internalType": "address",
          "name": "tokenContract",
          "type": "address"
        },
        {
          "internalType": "uint256",
          "name": "tokenId",
          "type": "uint256"
        }
      ],
      "name": "__recoverTokens",
      "outputs": [],
      "stateMutability": "nonpayable",
      "type": "function"
    },
    {
      "inputs": [
        {
          "internalType": "uint256",
          "name": "accountId",
          "type": "uint256"
        },
        {
          "internalType": "uint256",
          "name": "amount",
          "type": "uint256"
        }
      ],
      "name": "__setAmount",
      "outputs": [],
      "stateMutability": "nonpayable",
      "type": "function"
    },
    {
      "inputs": [
        {
          "internalType": "uint256",
          "name": "accountId",
          "type": "uint256"
        },
        {
          "internalType": "uint256",
          "name": "unlockTime",
          "type": "uint256"
        }
      ],
      "name": "__setUnlockTime",
      "outputs": [],
      "stateMutability": "nonpayable",
      "type": "function"
    },
    {
      "inputs": [],
      "name": "bestPony",
      "outputs": [
        {
          "internalType": "string",
          "name": "",
          "type": "string"
        }
      ],
      "stateMutability": "pure",
      "type": "function"
    },
    {
      "inputs": [
        {
          "internalType": "uint256",
          "name": "accountId",
          "type": "uint256"
        }
      ],
      "name": "getAccount",
      "outputs": [
        {
          "components": [
            {
              "internalType": "uint256",
              "name": "amount",
              "type": "uint256"
            },
            {
              "internalType": "string",
              "name": "metadata",
              "type": "string"
            },
            {
              "internalType": "address",
              "name": "tokenContract",
              "type": "address"
            },
            {
              "internalType": "uint256",
              "name": "tokenId",
              "type": "uint256"
            },
            {
              "internalType": "enum ITokenTypeable.TokenType",
              "name": "tokenType",
              "type": "uint8"
            },
            {
              "internalType": "string",
              "name": "tokenUri",
              "type": "string"
            },
            {
              "internalType": "uint256",
              "name": "unlockTime",
              "type": "uint256"
            }
          ],
          "internalType": "struct IMarebitsLockerAccount.Account",
          "name": "",
          "type": "tuple"
        }
      ],
      "stateMutability": "view",
      "type": "function"
    },
    {
      "inputs": [
        {
          "internalType": "uint256",
          "name": "accountId",
          "type": "uint256"
        }
      ],
      "name": "getAmount",
      "outputs": [
        {
          "internalType": "uint256",
          "name": "",
          "type": "uint256"
        }
      ],
      "stateMutability": "view",
      "type": "function"
    },
    {
      "inputs": [
        {
          "internalType": "uint256",
          "name": "accountId",
          "type": "uint256"
        }
      ],
      "name": "getMetadata",
      "outputs": [
        {
          "internalType": "string",
          "name": "",
          "type": "string"
        }
      ],
      "stateMutability": "view",
      "type": "function"
    },
    {
      "inputs": [
        {
          "internalType": "uint256",
          "name": "accountId",
          "type": "uint256"
        }
      ],
      "name": "getTokenContract",
      "outputs": [
        {
          "internalType": "address",
          "name": "",
          "type": "address"
        }
      ],
      "stateMutability": "view",
      "type": "function"
    },
    {
      "inputs": [
        {
          "internalType": "uint256",
          "name": "accountId",
          "type": "uint256"
        }
      ],
      "name": "getTokenId",
      "outputs": [
        {
          "internalType": "uint256",
          "name": "",
          "type": "uint256"
        }
      ],
      "stateMutability": "view",
      "type": "function"
    },
    {
      "inputs": [
        {
          "internalType": "uint256",
          "name": "accountId",
          "type": "uint256"
        }
      ],
      "name": "getTokenType",
      "outputs": [
        {
          "internalType": "enum ITokenTypeable.TokenType",
          "name": "",
          "type": "uint8"
        }
      ],
      "stateMutability": "view",
      "type": "function"
    },
    {
      "inputs": [
        {
          "internalType": "uint256",
          "name": "accountId",
          "type": "uint256"
        }
      ],
      "name": "getTokenUri",
      "outputs": [
        {
          "internalType": "string",
          "name": "",
          "type": "string"
        }
      ],
      "stateMutability": "view",
      "type": "function"
    },
    {
      "inputs": [
        {
          "internalType": "uint256",
          "name": "accountId",
          "type": "uint256"
        }
      ],
      "name": "getUnlockTime",
      "outputs": [
        {
          "internalType": "uint256",
          "name": "",
          "type": "uint256"
        }
      ],
      "stateMutability": "view",
      "type": "function"
    },
    {
      "inputs": [
        {
          "internalType": "uint256",
          "name": "accountId",
          "type": "uint256"
        }
      ],
      "name": "isUnlocked",
      "outputs": [
        {
          "internalType": "bool",
          "name": "",
          "type": "bool"
        }
      ],
      "stateMutability": "view",
      "type": "function"
    },
    {
      "inputs": [],
      "name": "owner",
      "outputs": [
        {
          "internalType": "address",
          "name": "",
          "type": "address"
        }
      ],
      "stateMutability": "view",
      "type": "function"
    },
    {
      "inputs": [],
      "name": "renounceOwnership",
      "outputs": [],
      "stateMutability": "nonpayable",
      "type": "function"
    },
    {
      "inputs": [
        {
          "internalType": "bytes4",
          "name": "interfaceId",
          "type": "bytes4"
        }
      ],
      "name": "supportsInterface",
      "outputs": [
        {
          "internalType": "bool",
          "name": "",
          "type": "bool"
        }
      ],
      "stateMutability": "view",
      "type": "function"
    },
    {
      "inputs": [
        {
          "internalType": "address",
          "name": "newOwner",
          "type": "address"
        }
      ],
      "name": "transferOwnership",
      "outputs": [],
      "stateMutability": "nonpayable",
      "type": "function"
    }
  ],
  "bytecode": "0x60806040523480156200001157600080fd5b5062000032620000266200003860201b60201c565b6200004060201b60201c565b62000104565b600033905090565b60008060009054906101000a900473ffffffffffffffffffffffffffffffffffffffff169050816000806101000a81548173ffffffffffffffffffffffffffffffffffffffff021916908373ffffffffffffffffffffffffffffffffffffffff1602179055508173ffffffffffffffffffffffffffffffffffffffff168173ffffffffffffffffffffffffffffffffffffffff167f8be0079c531659141344cd1fd0a4f28419497f9722a3daafe3b4186f6b6457e060405160405180910390a35050565b613cb780620001146000396000f3fe6080604052600436106101145760003560e01c806376aed2e1116100a0578063a574cea411610064578063a574cea4146103b6578063b21536e6146103f3578063ce88b14514610430578063eafcfb991461046d578063f2fde38b1461049657610114565b806376aed2e1146102975780638ad91345146102d45780638da5cb5b146103115780639980ec861461033c578063a07e51991461037957610114565b80631c3eeaac116100e75780631c3eeaac146101e7578063404ff5cd1461021057806364e7192414610239578063715018a61461024357806372abc8b71461025a57610114565b806301ffc9a71461011957806314ff5ea31461015657806317e4c78c1461019357806319511a7a146101bc575b600080fd5b34801561012557600080fd5b50610140600480360381019061013b91906127f3565b6104bf565b60405161014d919061283b565b60405180910390f35b34801561016257600080fd5b5061017d6004803603810190610178919061288c565b6106d9565b60405161018a91906128c8565b60405180910390f35b34801561019f57600080fd5b506101ba60048036038101906101b591906128e3565b6106f9565b005b3480156101c857600080fd5b506101d1610794565b6040516101de91906129bc565b60405180910390f35b3480156101f357600080fd5b5061020e60048036038101906102099190612a61565b6107b4565b005b34801561021c57600080fd5b5061023760048036038101906102329190612ab4565b6108e5565b005b610241610d1e565b005b34801561024f57600080fd5b50610258610dea565b005b34801561026657600080fd5b50610281600480360381019061027c919061288c565b610e72565b60405161028e919061283b565b60405180910390f35b3480156102a357600080fd5b506102be60048036038101906102b9919061288c565b610e95565b6040516102cb9190612bb8565b60405180910390f35b3480156102e057600080fd5b506102fb60048036038101906102f6919061288c565b610ec2565b60405161030891906129bc565b60405180910390f35b34801561031d57600080fd5b50610326610f6a565b6040516103339190612be2565b60405180910390f35b34801561034857600080fd5b50610363600480360381019061035e919061288c565b610f93565b60405161037091906128c8565b60405180910390f35b34801561038557600080fd5b506103a0600480360381019061039b919061288c565b610fb3565b6040516103ad9190612be2565b60405180910390f35b3480156103c257600080fd5b506103dd60048036038101906103d8919061288c565b610ff3565b6040516103ea91906129bc565b60405180910390f35b3480156103ff57600080fd5b5061041a6004803603810190610415919061288c565b61109b565b60405161042791906128c8565b60405180910390f35b34801561043c57600080fd5b506104576004803603810190610452919061288c565b6110bb565b6040516104649190612d17565b60405180910390f35b34801561047957600080fd5b50610494600480360381019061048f91906128e3565b6112bb565b005b3480156104a257600080fd5b506104bd60048036038101906104b89190612d39565b611356565b005b60007f19511a7a000000000000000000000000000000000000000000000000000000007bffffffffffffffffffffffffffffffffffffffffffffffffffffffff1916827bffffffffffffffffffffffffffffffffffffffffffffffffffffffff1916148061058a57507f0e083076000000000000000000000000000000000000000000000000000000007bffffffffffffffffffffffffffffffffffffffffffffffffffffffff1916827bffffffffffffffffffffffffffffffffffffffffffffffffffffffff1916145b806105f257507f64e71924000000000000000000000000000000000000000000000000000000007bffffffffffffffffffffffffffffffffffffffffffffffffffffffff1916827bffffffffffffffffffffffffffffffffffffffffffffffffffffffff1916145b8061065a57507f1c3eeaac000000000000000000000000000000000000000000000000000000007bffffffffffffffffffffffffffffffffffffffffffffffffffffffff1916827bffffffffffffffffffffffffffffffffffffffffffffffffffffffff1916145b806106c257507f7a34a3a8000000000000000000000000000000000000000000000000000000007bffffffffffffffffffffffffffffffffffffffffffffffffffffffff1916827bffffffffffffffffffffffffffffffffffffffffffffffffffffffff1916145b806106d257506106d18261144e565b5b9050919050565b600060016000838152602001908152602001600020600301549050919050565b6107016114b8565b73ffffffffffffffffffffffffffffffffffffffff1661071f610f6a565b73ffffffffffffffffffffffffffffffffffffffff1614610775576040517f08c379a000000000000000000000000000000000000000000000000000000000815260040161076c90612db2565b60405180910390fd5b8060016000848152602001908152602001600020600001819055505050565b60606040518060600160405280603f8152602001613c09603f9139905090565b6107bc6114b8565b73ffffffffffffffffffffffffffffffffffffffff166107da610f6a565b73ffffffffffffffffffffffffffffffffffffffff1614610830576040517f08c379a000000000000000000000000000000000000000000000000000000000815260040161082790612db2565b60405180910390fd5b6001600381111561084457610843612b41565b5b83600381111561085757610856612b41565b5b141561086c5761086782826114c0565b6108e0565b600260038111156108805761087f612b41565b5b83600381111561089357610892612b41565b5b14156108a7576108a2826115b6565b6108df565b6003808111156108ba576108b9612b41565b5b8360038111156108cd576108cc612b41565b5b14156108de576108dd8282611664565b5b5b5b505050565b6108ed6114b8565b73ffffffffffffffffffffffffffffffffffffffff1661090b610f6a565b73ffffffffffffffffffffffffffffffffffffffff1614610961576040517f08c379a000000000000000000000000000000000000000000000000000000000815260040161095890612db2565b60405180910390fd5b600085116109a4576040517f08c379a000000000000000000000000000000000000000000000000000000000815260040161099b90612e1e565b60405180910390fd5b6003808111156109b7576109b6612b41565b5b8260038111156109ca576109c9612b41565b5b1415806109d75750600185145b610a16576040517f08c379a0000000000000000000000000000000000000000000000000000000008152600401610a0d90612eb0565b60405180910390fd5b60026003811115610a2a57610a29612b41565b5b826003811115610a3d57610a3c612b41565b5b1480610a495750600083115b610a88576040517f08c379a0000000000000000000000000000000000000000000000000000000008152600401610a7f90612f42565b60405180910390fd5b428111610aca576040517f08c379a0000000000000000000000000000000000000000000000000000000008152600401610ac190612fd4565b60405180910390fd5b600060016000888152602001908152602001600020905085858585858560000160008760020160008960030160008b60040160008d60060160008a919050558991906101000a81548160ff02191690836003811115610b2c57610b2b612b41565b5b021790555088919050558791906101000a81548173ffffffffffffffffffffffffffffffffffffffff021916908373ffffffffffffffffffffffffffffffffffffffff160217905550869190505550505050506000604051806020016040528060008152509050600082600301541115610bcf57610bad82600301546116de565b604051602001610bbd91906130c8565b60405160208183030381529060405290505b610bdc82600001546116de565b610c1f8360020160009054906101000a900473ffffffffffffffffffffffffffffffffffffffff1673ffffffffffffffffffffffffffffffffffffffff166116de565b82610c2d85600601546116de565b604051602001610c40949392919061337f565b604051602081830303815290604052826001019080519060200190610c6692919061268e565b50610cfc826001018054610c7990613423565b80601f0160208091040260200160405190810160405280929190818152602001828054610ca590613423565b8015610cf25780601f10610cc757610100808354040283529160200191610cf2565b820191906000526020600020905b815481529060010190602001808311610cd557829003601f168201915b505050505061183f565b826005019080519060200190610d1392919061268e565b505050505050505050565b610d266114b8565b73ffffffffffffffffffffffffffffffffffffffff16610d44610f6a565b73ffffffffffffffffffffffffffffffffffffffff1614610d9a576040517f08c379a0000000000000000000000000000000000000000000000000000000008152600401610d9190612db2565b60405180910390fd5b610da2610f6a565b73ffffffffffffffffffffffffffffffffffffffff166108fc479081150290604051600060405180830381858888f19350505050158015610de7573d6000803e3d6000fd5b50565b610df26114b8565b73ffffffffffffffffffffffffffffffffffffffff16610e10610f6a565b73ffffffffffffffffffffffffffffffffffffffff1614610e66576040517f08c379a0000000000000000000000000000000000000000000000000000000008152600401610e5d90612db2565b60405180910390fd5b610e7060006119f8565b565b600042600160008481526020019081526020016000206006015411159050919050565b60006001600083815260200190815260200160002060040160009054906101000a900460ff169050919050565b6060600160008381526020019081526020016000206005018054610ee590613423565b80601f0160208091040260200160405190810160405280929190818152602001828054610f1190613423565b8015610f5e5780601f10610f3357610100808354040283529160200191610f5e565b820191906000526020600020905b815481529060010190602001808311610f4157829003601f168201915b50505050509050919050565b60008060009054906101000a900473ffffffffffffffffffffffffffffffffffffffff16905090565b600060016000838152602001908152602001600020600001549050919050565b60006001600083815260200190815260200160002060020160009054906101000a900473ffffffffffffffffffffffffffffffffffffffff169050919050565b606060016000838152602001908152602001600020600101805461101690613423565b80601f016020809104026020016040519081016040528092919081815260200182805461104290613423565b801561108f5780601f106110645761010080835404028352916020019161108f565b820191906000526020600020905b81548152906001019060200180831161107257829003601f168201915b50505050509050919050565b600060016000838152602001908152602001600020600601549050919050565b6110c3612714565b600160008381526020019081526020016000206040518060e0016040529081600082015481526020016001820180546110fb90613423565b80601f016020809104026020016040519081016040528092919081815260200182805461112790613423565b80156111745780601f1061114957610100808354040283529160200191611174565b820191906000526020600020905b81548152906001019060200180831161115757829003601f168201915b505050505081526020016002820160009054906101000a900473ffffffffffffffffffffffffffffffffffffffff1673ffffffffffffffffffffffffffffffffffffffff1673ffffffffffffffffffffffffffffffffffffffff168152602001600382015481526020016004820160009054906101000a900460ff16600381111561120257611201612b41565b5b600381111561121457611213612b41565b5b815260200160058201805461122890613423565b80601f016020809104026020016040519081016040528092919081815260200182805461125490613423565b80156112a15780601f10611276576101008083540402835291602001916112a1565b820191906000526020600020905b81548152906001019060200180831161128457829003601f168201915b505050505081526020016006820154815250509050919050565b6112c36114b8565b73ffffffffffffffffffffffffffffffffffffffff166112e1610f6a565b73ffffffffffffffffffffffffffffffffffffffff1614611337576040517f08c379a000000000000000000000000000000000000000000000000000000000815260040161132e90612db2565b60405180910390fd5b8060016000848152602001908152602001600020600601819055505050565b61135e6114b8565b73ffffffffffffffffffffffffffffffffffffffff1661137c610f6a565b73ffffffffffffffffffffffffffffffffffffffff16146113d2576040517f08c379a00000000000000000000000000000000000000000000000000000000081526004016113c990612db2565b60405180910390fd5b600073ffffffffffffffffffffffffffffffffffffffff168173ffffffffffffffffffffffffffffffffffffffff161415611442576040517f08c379a0000000000000000000000000000000000000000000000000000000008152600401611439906134c7565b60405180910390fd5b61144b816119f8565b50565b60007f01ffc9a7000000000000000000000000000000000000000000000000000000007bffffffffffffffffffffffffffffffffffffffffffffffffffffffff1916827bffffffffffffffffffffffffffffffffffffffffffffffffffffffff1916149050919050565b600033905090565b8173ffffffffffffffffffffffffffffffffffffffff1663f242432a306114e5610f6a565b848673ffffffffffffffffffffffffffffffffffffffff1662fdd58e30886040518363ffffffff1660e01b81526004016115209291906134e7565b602060405180830381865afa15801561153d573d6000803e3d6000fd5b505050506040513d601f19601f820116820180604052508101906115619190613525565b6040518563ffffffff1660e01b815260040161158094939291906135e8565b600060405180830381600087803b15801561159a57600080fd5b505af11580156115ae573d6000803e3d6000fd5b505050505050565b6116616115c1610f6a565b8273ffffffffffffffffffffffffffffffffffffffff166370a08231306040518263ffffffff1660e01b81526004016115fa9190612be2565b602060405180830381865afa158015611617573d6000803e3d6000fd5b505050506040513d601f19601f8201168201806040525081019061163b9190613525565b8373ffffffffffffffffffffffffffffffffffffffff16611abc9092919063ffffffff16565b50565b8173ffffffffffffffffffffffffffffffffffffffff166342842e0e30611689610f6a565b846040518463ffffffff1660e01b81526004016116a893929190613640565b600060405180830381600087803b1580156116c257600080fd5b505af11580156116d6573d6000803e3d6000fd5b505050505050565b60606000821415611726576040518060400160405280600181526020017f3000000000000000000000000000000000000000000000000000000000000000815250905061183a565b600082905060005b60008214611758578080611741906136a6565b915050600a82611751919061371e565b915061172e565b60008167ffffffffffffffff8111156117745761177361374f565b5b6040519080825280601f01601f1916602001820160405280156117a65781602001600182028036833780820191505090505b5090505b60008514611833576001826117bf919061377e565b9150600a856117ce91906137b2565b60306117da91906137e3565b60f81b8183815181106117f0576117ef613839565b5b60200101907effffffffffffffffffffffffffffffffffffffffffffffffffffffffffffff1916908160001a905350600a8561182c919061371e565b94506117aa565b8093505050505b919050565b6060600082905060006118528251611b42565b90506000611884825160026118679190613868565b6004855161187591906137e3565b61187f91906137e3565b611b42565b90506119ee6119e96040518060400160405280600281526020017f12200000000000000000000000000000000000000000000000000000000000008152506119e460026040518060400160405280600181526020017f0a00000000000000000000000000000000000000000000000000000000000000815250866040518060400160405280600381526020017f0802120000000000000000000000000000000000000000000000000000000000815250898b6040518060400160405280600181526020017f18000000000000000000000000000000000000000000000000000000000000008152508c6040516020016119839796959493929190613909565b60405160208183030381529060405260405161199f919061396e565b602060405180830381855afa1580156119bc573d6000803e3d6000fd5b5050506040513d601f19601f820116820180604052508101906119df91906139bb565b611ba2565b611c81565b611e00565b9350505050919050565b60008060009054906101000a900473ffffffffffffffffffffffffffffffffffffffff169050816000806101000a81548173ffffffffffffffffffffffffffffffffffffffff021916908373ffffffffffffffffffffffffffffffffffffffff1602179055508173ffffffffffffffffffffffffffffffffffffffff168173ffffffffffffffffffffffffffffffffffffffff167f8be0079c531659141344cd1fd0a4f28419497f9722a3daafe3b4186f6b6457e060405160405180910390a35050565b611b3d8363a9059cbb60e01b8484604051602401611adb9291906134e7565b604051602081830303815290604052907bffffffffffffffffffffffffffffffffffffffffffffffffffffffff19166020820180517bffffffffffffffffffffffffffffffffffffffffffffffffffffffff8381831617835250505050612048565b505050565b60606080821015611b5d57611b568261210f565b9050611b9d565b611b9a611b8060808085611b7191906137b2565b611b7b91906137e3565b61210f565b611b95608085611b90919061371e565b61210f565b611c81565b90505b919050565b60606000602067ffffffffffffffff811115611bc157611bc061374f565b5b6040519080825280601f01601f191660200182016040528015611bf35781602001600182028036833780820191505090505b50905060005b60208160ff161015611c7757838160ff1660208110611c1b57611c1a613839565b5b1a60f81b828260ff1681518110611c3557611c34613839565b5b60200101907effffffffffffffffffffffffffffffffffffffffffffffffffffffffffffff1916908160001a9053508080611c6f906139f5565b915050611bf9565b5080915050919050565b6060600082518451611c9391906137e3565b67ffffffffffffffff811115611cac57611cab61374f565b5b6040519080825280601f01601f191660200182016040528015611cde5781602001600182028036833780820191505090505b50905060005b8451811015611d6057848181518110611d0057611cff613839565b5b602001015160f81c60f81b828281518110611d1e57611d1d613839565b5b60200101907effffffffffffffffffffffffffffffffffffffffffffffffffffffffffffff1916908160001a9053508080611d58906136a6565b915050611ce4565b5b83518551611d6f91906137e3565b811015611df55783855182611d84919061377e565b81518110611d9557611d94613839565b5b602001015160f81c60f81b828281518110611db357611db2613839565b5b60200101907effffffffffffffffffffffffffffffffffffffffffffffffffffffffffffff1916908160001a9053508080611ded906136a6565b915050611d61565b819250505092915050565b6060600082511415611e6157600067ffffffffffffffff811115611e2757611e2661374f565b5b6040519080825280601f01601f191660200182016040528015611e595781602001600182028036833780820191505090505b509050612043565b6000604067ffffffffffffffff811115611e7e57611e7d61374f565b5b604051908082528060200260200182016040528015611eac5781602001602082028036833780820191505090505b509050600081600081518110611ec557611ec4613839565b5b602002602001019060ff16908160ff168152505060006001905060005b8451811015612023576000858281518110611f0057611eff613839565b5b602001015160f81c60f81b60f81c60ff16905060005b8360ff16811015611fad57610100858281518110611f3757611f36613839565b5b602002602001015160ff16611f4c9190613868565b82611f5791906137e3565b9150603a82611f6691906137b2565b858281518110611f7957611f78613839565b5b602002602001019060ff16908160ff1681525050603a82611f9a919061371e565b915080611fa6906136a6565b9050611f16565b505b600081111561201157603a81611fc591906137b2565b848460ff1681518110611fdb57611fda613839565b5b602002602001019060ff16908160ff16815250508280611ffa906139f5565b935050603a8161200a919061371e565b9050611faf565b508061201c906136a6565b9050611ee2565b5061203e6120396120348484612243565b612303565b6123d6565b925050505b919050565b60006120aa826040518060400160405280602081526020017f5361666545524332303a206c6f772d6c6576656c2063616c6c206661696c65648152508573ffffffffffffffffffffffffffffffffffffffff166124e89092919063ffffffff16565b905060008151111561210a57808060200190518101906120ca9190613a4b565b612109576040517f08c379a000000000000000000000000000000000000000000000000000000000815260040161210090613aea565b60405180910390fd5b5b505050565b6060600082141561216f57600067ffffffffffffffff8111156121355761213461374f565b5b6040519080825280601f01601f1916602001820160405280156121675781602001600182028036833780820191505090505b50905061223e565b60006101008361217f91906137b2565b60f81b90506000600167ffffffffffffffff8111156121a1576121a061374f565b5b6040519080825280601f01601f1916602001820160405280156121d35781602001600182028036833780820191505090505b50905081816000815181106121eb576121ea613839565b5b60200101907effffffffffffffffffffffffffffffffffffffffffffffffffffffffffffff1916908160001a9053506122396122336101008661222e919061371e565b61210f565b82611c81565b925050505b919050565b606060008260ff1667ffffffffffffffff8111156122645761226361374f565b5b6040519080825280602002602001820160405280156122925781602001602082028036833780820191505090505b50905060005b8360ff168110156122f8578481815181106122b6576122b5613839565b5b60200260200101518282815181106122d1576122d0613839565b5b602002602001019060ff16908160ff168152505080806122f0906136a6565b915050612298565b508091505092915050565b60606000825167ffffffffffffffff8111156123225761232161374f565b5b6040519080825280602002602001820160405280156123505781602001602082028036833780820191505090505b50905060005b83518110156123cc5783816001865161236f919061377e565b612379919061377e565b8151811061238a57612389613839565b5b60200260200101518282815181106123a5576123a4613839565b5b602002602001019060ff16908160ff168152505080806123c4906136a6565b915050612356565b5080915050919050565b60606000825167ffffffffffffffff8111156123f5576123f461374f565b5b6040519080825280601f01601f1916602001820160405280156124275781602001600182028036833780820191505090505b50905060005b83518110156124de576040518060600160405280603a8152602001613c48603a913984828151811061246257612461613839565b5b602002602001015160ff168151811061247e5761247d613839565b5b602001015160f81c60f81b82828151811061249c5761249b613839565b5b60200101907effffffffffffffffffffffffffffffffffffffffffffffffffffffffffffff1916908160001a90535080806124d6906136a6565b91505061242d565b5080915050919050565b60606124f78484600085612500565b90509392505050565b606082471015612545576040517f08c379a000000000000000000000000000000000000000000000000000000000815260040161253c90613b7c565b60405180910390fd5b61254e85612614565b61258d576040517f08c379a000000000000000000000000000000000000000000000000000000000815260040161258490613be8565b60405180910390fd5b6000808673ffffffffffffffffffffffffffffffffffffffff1685876040516125b6919061396e565b60006040518083038185875af1925050503d80600081146125f3576040519150601f19603f3d011682016040523d82523d6000602084013e6125f8565b606091505b5091509150612608828286612627565b92505050949350505050565b600080823b905060008111915050919050565b6060831561263757829050612687565b60008351111561264a5782518084602001fd5b816040517f08c379a000000000000000000000000000000000000000000000000000000000815260040161267e91906129bc565b60405180910390fd5b9392505050565b82805461269a90613423565b90600052602060002090601f0160209004810192826126bc5760008555612703565b82601f106126d557805160ff1916838001178555612703565b82800160010185558215612703579182015b828111156127025782518255916020019190600101906126e7565b5b5090506127109190612779565b5090565b6040518060e001604052806000815260200160608152602001600073ffffffffffffffffffffffffffffffffffffffff168152602001600081526020016000600381111561276557612764612b41565b5b815260200160608152602001600081525090565b5b8082111561279257600081600090555060010161277a565b5090565b600080fd5b60007fffffffff0000000000000000000000000000000000000000000000000000000082169050919050565b6127d08161279b565b81146127db57600080fd5b50565b6000813590506127ed816127c7565b92915050565b60006020828403121561280957612808612796565b5b6000612817848285016127de565b91505092915050565b60008115159050919050565b61283581612820565b82525050565b6000602082019050612850600083018461282c565b92915050565b6000819050919050565b61286981612856565b811461287457600080fd5b50565b60008135905061288681612860565b92915050565b6000602082840312156128a2576128a1612796565b5b60006128b084828501612877565b91505092915050565b6128c281612856565b82525050565b60006020820190506128dd60008301846128b9565b92915050565b600080604083850312156128fa576128f9612796565b5b600061290885828601612877565b925050602061291985828601612877565b9150509250929050565b600081519050919050565b600082825260208201905092915050565b60005b8381101561295d578082015181840152602081019050612942565b8381111561296c576000848401525b50505050565b6000601f19601f8301169050919050565b600061298e82612923565b612998818561292e565b93506129a881856020860161293f565b6129b181612972565b840191505092915050565b600060208201905081810360008301526129d68184612983565b905092915050565b600481106129eb57600080fd5b50565b6000813590506129fd816129de565b92915050565b600073ffffffffffffffffffffffffffffffffffffffff82169050919050565b6000612a2e82612a03565b9050919050565b612a3e81612a23565b8114612a4957600080fd5b50565b600081359050612a5b81612a35565b92915050565b600080600060608486031215612a7a57612a79612796565b5b6000612a88868287016129ee565b9350506020612a9986828701612a4c565b9250506040612aaa86828701612877565b9150509250925092565b60008060008060008060c08789031215612ad157612ad0612796565b5b6000612adf89828a01612877565b9650506020612af089828a01612877565b9550506040612b0189828a01612a4c565b9450506060612b1289828a01612877565b9350506080612b2389828a016129ee565b92505060a0612b3489828a01612877565b9150509295509295509295565b7f4e487b7100000000000000000000000000000000000000000000000000000000600052602160045260246000fd5b60048110612b8157612b80612b41565b5b50565b6000819050612b9282612b70565b919050565b6000612ba282612b84565b9050919050565b612bb281612b97565b82525050565b6000602082019050612bcd6000830184612ba9565b92915050565b612bdc81612a23565b82525050565b6000602082019050612bf76000830184612bd3565b92915050565b612c0681612856565b82525050565b600082825260208201905092915050565b6000612c2882612923565b612c328185612c0c565b9350612c4281856020860161293f565b612c4b81612972565b840191505092915050565b612c5f81612a23565b82525050565b612c6e81612b97565b82525050565b600060e083016000830151612c8c6000860182612bfd565b5060208301518482036020860152612ca48282612c1d565b9150506040830151612cb96040860182612c56565b506060830151612ccc6060860182612bfd565b506080830151612cdf6080860182612c65565b5060a083015184820360a0860152612cf78282612c1d565b91505060c0830151612d0c60c0860182612bfd565b508091505092915050565b60006020820190508181036000830152612d318184612c74565b905092915050565b600060208284031215612d4f57612d4e612796565b5b6000612d5d84828501612a4c565b91505092915050565b7f4f776e61626c653a2063616c6c6572206973206e6f7420746865206f776e6572600082015250565b6000612d9c60208361292e565b9150612da782612d66565b602082019050919050565b60006020820190508181036000830152612dcb81612d8f565b9050919050565b7f60616d6f756e7460206d7573742062652067726561746572207468616e203000600082015250565b6000612e08601f8361292e565b9150612e1382612dd2565b602082019050919050565b60006020820190508181036000830152612e3781612dfb565b9050919050565b7f60616d6f756e7460206d757374206265203120666f722045524337323120746f60008201527f6b656e7300000000000000000000000000000000000000000000000000000000602082015250565b6000612e9a60248361292e565b9150612ea582612e3e565b604082019050919050565b60006020820190508181036000830152612ec981612e8d565b9050919050565b7f60746f6b656e496460206d7573742062652073706563696669656420666f722060008201527f455243373231206f72204552433131353520746f6b656e730000000000000000602082015250565b6000612f2c60388361292e565b9150612f3782612ed0565b604082019050919050565b60006020820190508181036000830152612f5b81612f1f565b9050919050565b7f60756e6c6f636b54696d6560206d75737420626520696e20746865206675747560008201527f7265000000000000000000000000000000000000000000000000000000000000602082015250565b6000612fbe60228361292e565b9150612fc982612f62565b604082019050919050565b60006020820190508181036000830152612fed81612fb1565b9050919050565b600081905092915050565b7f22746f6b656e4964223a22000000000000000000000000000000000000000000600082015250565b6000613035600b83612ff4565b915061304082612fff565b600b82019050919050565b600061305682612923565b6130608185612ff4565b935061307081856020860161293f565b80840191505092915050565b7f222c000000000000000000000000000000000000000000000000000000000000600082015250565b60006130b2600283612ff4565b91506130bd8261307c565b600282019050919050565b60006130d382613028565b91506130df828461304b565b91506130ea826130a5565b915081905092915050565b7f7b226465736372697074696f6e223a225468697320746f6b656e20656e74697460008201527f6c65732074686520686f6c64657220746f20776974686472617720746865697260208201527f206c6f636b656420746f6b656e287329206166746572207468656972206c6f6360408201527f6b20706572696f6420657870697265732066726f6d20746865204d617265204260608201527f697473204c6f636b65722e222c2265787465726e616c5f75726c223a2268747460808201527f70733a2f2f6d6172652e62697a2f222c22696d616765223a2268747470733a2f60a08201527f2f6d6172652e62697a2f6d617265626974732f69636f6e2d3936302e706e672260c08201527f2c226e616d65223a225c75443833445c75444330455c75323030445c7532363460e08201527f305c75464530465c75443833445c75444431325c75443833455c7544453939226101008201527f2c2270726f70657274696573223a207b22616d6f756e74223a2200000000000061012082015250565b600061328461013a83612ff4565b915061328f826130f5565b61013a82019050919050565b7f222c22746f6b656e436f6e7472616374223a2200000000000000000000000000600082015250565b60006132d1601383612ff4565b91506132dc8261329b565b601382019050919050565b7f22756e6c6f636b54696d65223a22000000000000000000000000000000000000600082015250565b600061331d600e83612ff4565b9150613328826132e7565b600e82019050919050565b7f227d7d0000000000000000000000000000000000000000000000000000000000600082015250565b6000613369600383612ff4565b915061337482613333565b600382019050919050565b600061338a82613276565b9150613396828761304b565b91506133a1826132c4565b91506133ad828661304b565b91506133b8826130a5565b91506133c4828561304b565b91506133cf82613310565b91506133db828461304b565b91506133e68261335c565b915081905095945050505050565b7f4e487b7100000000000000000000000000000000000000000000000000000000600052602260045260246000fd5b6000600282049050600182168061343b57607f821691505b6020821081141561344f5761344e6133f4565b5b50919050565b7f4f776e61626c653a206e6577206f776e657220697320746865207a65726f206160008201527f6464726573730000000000000000000000000000000000000000000000000000602082015250565b60006134b160268361292e565b91506134bc82613455565b604082019050919050565b600060208201905081810360008301526134e0816134a4565b9050919050565b60006040820190506134fc6000830185612bd3565b61350960208301846128b9565b9392505050565b60008151905061351f81612860565b92915050565b60006020828403121561353b5761353a612796565b5b600061354984828501613510565b91505092915050565b6000819050919050565b600061357761357261356d84612a03565b613552565b612a03565b9050919050565b60006135898261355c565b9050919050565b600061359b8261357e565b9050919050565b6135ab81613590565b82525050565b600082825260208201905092915050565b50565b60006135d26000836135b1565b91506135dd826135c2565b600082019050919050565b600060a0820190506135fd6000830187612bd3565b61360a60208301866135a2565b61361760408301856128b9565b61362460608301846128b9565b8181036080830152613635816135c5565b905095945050505050565b60006060820190506136556000830186612bd3565b61366260208301856135a2565b61366f60408301846128b9565b949350505050565b7f4e487b7100000000000000000000000000000000000000000000000000000000600052601160045260246000fd5b60006136b182612856565b91507fffffffffffffffffffffffffffffffffffffffffffffffffffffffffffffffff8214156136e4576136e3613677565b5b600182019050919050565b7f4e487b7100000000000000000000000000000000000000000000000000000000600052601260045260246000fd5b600061372982612856565b915061373483612856565b925082613744576137436136ef565b5b828204905092915050565b7f4e487b7100000000000000000000000000000000000000000000000000000000600052604160045260246000fd5b600061378982612856565b915061379483612856565b9250828210156137a7576137a6613677565b5b828203905092915050565b60006137bd82612856565b91506137c883612856565b9250826137d8576137d76136ef565b5b828206905092915050565b60006137ee82612856565b91506137f983612856565b9250827fffffffffffffffffffffffffffffffffffffffffffffffffffffffffffffffff0382111561382e5761382d613677565b5b828201905092915050565b7f4e487b7100000000000000000000000000000000000000000000000000000000600052603260045260246000fd5b600061387382612856565b915061387e83612856565b9250817fffffffffffffffffffffffffffffffffffffffffffffffffffffffffffffffff04831182151516156138b7576138b6613677565b5b828202905092915050565b600081519050919050565b600081905092915050565b60006138e3826138c2565b6138ed81856138cd565b93506138fd81856020860161293f565b80840191505092915050565b6000613915828a6138d8565b915061392182896138d8565b915061392d82886138d8565b915061393982876138d8565b915061394582866138d8565b915061395182856138d8565b915061395d82846138d8565b915081905098975050505050505050565b600061397a82846138d8565b915081905092915050565b6000819050919050565b61399881613985565b81146139a357600080fd5b50565b6000815190506139b58161398f565b92915050565b6000602082840312156139d1576139d0612796565b5b60006139df848285016139a6565b91505092915050565b600060ff82169050919050565b6000613a00826139e8565b915060ff821415613a1457613a13613677565b5b600182019050919050565b613a2881612820565b8114613a3357600080fd5b50565b600081519050613a4581613a1f565b92915050565b600060208284031215613a6157613a60612796565b5b6000613a6f84828501613a36565b91505092915050565b7f5361666545524332303a204552433230206f7065726174696f6e20646964206e60008201527f6f74207375636365656400000000000000000000000000000000000000000000602082015250565b6000613ad4602a8361292e565b9150613adf82613a78565b604082019050919050565b60006020820190508181036000830152613b0381613ac7565b9050919050565b7f416464726573733a20696e73756666696369656e742062616c616e636520666f60008201527f722063616c6c0000000000000000000000000000000000000000000000000000602082015250565b6000613b6660268361292e565b9150613b7182613b0a565b604082019050919050565b60006020820190508181036000830152613b9581613b59565b9050919050565b7f416464726573733a2063616c6c20746f206e6f6e2d636f6e7472616374000000600082015250565b6000613bd2601d8361292e565b9150613bdd82613b9c565b602082019050919050565b60006020820190508181036000830152613c0181613bc5565b905091905056fe5477696c6967687420537061726b6c6520697320746865206375746573742c20736d6172746573742c20616c6c2061726f756e64206265737420706f6e792131323334353637383941424344454647484a4b4c4d4e505152535455565758595a6162636465666768696a6b6d6e6f707172737475767778797aa2646970667358221220e1231820a746c45a48b9314a94e22d0b4666f8076ce3cd72031320dd8178a8ea64736f6c634300080a0033",
  "linkReferences": {},
  "deployedLinkReferences": {}
}