{
  "_format": "hh-sol-artifact-1",
  "contractName": "MarebitsLockerAccount",
  "sourceName": "contracts/MarebitsLockerAccount.sol",
  "abi": [
    {
      "anonymous": false,
      "inputs": [
        {
          "indexed": true,
          "internalType": "address",
          "name": "previousOwner",
          "type": "address"
        },
        {
          "indexed": true,
          "internalType": "address",
          "name": "newOwner",
          "type": "address"
        }
      ],
      "name": "OwnershipTransferred",
      "type": "event"
    },
    {
      "inputs": [
        {
          "internalType": "uint256",
          "name": "accountId",
          "type": "uint256"
        },
        {
          "internalType": "uint256",
          "name": "amount",
          "type": "uint256"
        },
        {
          "internalType": "address",
          "name": "tokenContract",
          "type": "address"
        },
        {
          "internalType": "uint256",
          "name": "tokenId",
          "type": "uint256"
        },
        {
          "internalType": "enum ITokenTypeable.TokenType",
          "name": "tokenType",
          "type": "uint8"
        },
        {
          "internalType": "uint256",
          "name": "unlockTime",
          "type": "uint256"
        }
      ],
      "name": "__createAccount",
      "outputs": [],
      "stateMutability": "nonpayable",
      "type": "function"
    },
    {
      "inputs": [],
      "name": "__recoverEther",
      "outputs": [],
      "stateMutability": "payable",
      "type": "function"
    },
    {
      "inputs": [
        {
          "internalType": "enum ITokenTypeable.TokenType",
          "name": "tokenType",
          "type": "uint8"
        },
        {
          "internalType": "address",
          "name": "tokenContract",
          "type": "address"
        },
        {
          "internalType": "uint256",
          "name": "tokenId",
          "type": "uint256"
        }
      ],
      "name": "__recoverTokens",
      "outputs": [],
      "stateMutability": "nonpayable",
      "type": "function"
    },
    {
      "inputs": [
        {
          "internalType": "uint256",
          "name": "accountId",
          "type": "uint256"
        },
        {
          "internalType": "uint256",
          "name": "amount",
          "type": "uint256"
        }
      ],
      "name": "__setAmount",
      "outputs": [],
      "stateMutability": "nonpayable",
      "type": "function"
    },
    {
      "inputs": [
        {
          "internalType": "uint256",
          "name": "accountId",
          "type": "uint256"
        },
        {
          "internalType": "uint256",
          "name": "unlockTime",
          "type": "uint256"
        }
      ],
      "name": "__setUnlockTime",
      "outputs": [],
      "stateMutability": "nonpayable",
      "type": "function"
    },
    {
      "inputs": [],
      "name": "bestPony",
      "outputs": [
        {
          "internalType": "string",
          "name": "",
          "type": "string"
        }
      ],
      "stateMutability": "pure",
      "type": "function"
    },
    {
      "inputs": [
        {
          "internalType": "uint256",
          "name": "accountId",
          "type": "uint256"
        }
      ],
      "name": "getAccount",
      "outputs": [
        {
          "components": [
            {
              "internalType": "uint256",
              "name": "amount",
              "type": "uint256"
            },
            {
              "internalType": "string",
              "name": "metadata",
              "type": "string"
            },
            {
              "internalType": "address",
              "name": "tokenContract",
              "type": "address"
            },
            {
              "internalType": "uint256",
              "name": "tokenId",
              "type": "uint256"
            },
            {
              "internalType": "enum ITokenTypeable.TokenType",
              "name": "tokenType",
              "type": "uint8"
            },
            {
              "internalType": "string",
              "name": "tokenUri",
              "type": "string"
            },
            {
              "internalType": "uint256",
              "name": "unlockTime",
              "type": "uint256"
            }
          ],
          "internalType": "struct IMarebitsLockerAccount.Account",
          "name": "",
          "type": "tuple"
        }
      ],
      "stateMutability": "view",
      "type": "function"
    },
    {
      "inputs": [
        {
          "internalType": "uint256",
          "name": "accountId",
          "type": "uint256"
        }
      ],
      "name": "getAmount",
      "outputs": [
        {
          "internalType": "uint256",
          "name": "",
          "type": "uint256"
        }
      ],
      "stateMutability": "view",
      "type": "function"
    },
    {
      "inputs": [
        {
          "internalType": "uint256",
          "name": "accountId",
          "type": "uint256"
        }
      ],
      "name": "getMetadata",
      "outputs": [
        {
          "internalType": "string",
          "name": "",
          "type": "string"
        }
      ],
      "stateMutability": "view",
      "type": "function"
    },
    {
      "inputs": [
        {
          "internalType": "uint256",
          "name": "accountId",
          "type": "uint256"
        }
      ],
      "name": "getTokenContract",
      "outputs": [
        {
          "internalType": "address",
          "name": "",
          "type": "address"
        }
      ],
      "stateMutability": "view",
      "type": "function"
    },
    {
      "inputs": [
        {
          "internalType": "uint256",
          "name": "accountId",
          "type": "uint256"
        }
      ],
      "name": "getTokenId",
      "outputs": [
        {
          "internalType": "uint256",
          "name": "",
          "type": "uint256"
        }
      ],
      "stateMutability": "view",
      "type": "function"
    },
    {
      "inputs": [
        {
          "internalType": "uint256",
          "name": "accountId",
          "type": "uint256"
        }
      ],
      "name": "getTokenType",
      "outputs": [
        {
          "internalType": "enum ITokenTypeable.TokenType",
          "name": "",
          "type": "uint8"
        }
      ],
      "stateMutability": "view",
      "type": "function"
    },
    {
      "inputs": [
        {
          "internalType": "uint256",
          "name": "accountId",
          "type": "uint256"
        }
      ],
      "name": "getTokenUri",
      "outputs": [
        {
          "internalType": "string",
          "name": "",
          "type": "string"
        }
      ],
      "stateMutability": "view",
      "type": "function"
    },
    {
      "inputs": [
        {
          "internalType": "uint256",
          "name": "accountId",
          "type": "uint256"
        }
      ],
      "name": "getUnlockTime",
      "outputs": [
        {
          "internalType": "uint256",
          "name": "",
          "type": "uint256"
        }
      ],
      "stateMutability": "view",
      "type": "function"
    },
    {
      "inputs": [
        {
          "internalType": "uint256",
          "name": "accountId",
          "type": "uint256"
        }
      ],
      "name": "hasAccount",
      "outputs": [
        {
          "internalType": "bool",
          "name": "",
          "type": "bool"
        }
      ],
      "stateMutability": "view",
      "type": "function"
    },
    {
      "inputs": [
        {
          "internalType": "uint256",
          "name": "accountId",
          "type": "uint256"
        }
      ],
      "name": "isUnlocked",
      "outputs": [
        {
          "internalType": "bool",
          "name": "",
          "type": "bool"
        }
      ],
      "stateMutability": "view",
      "type": "function"
    },
    {
      "inputs": [],
      "name": "owner",
      "outputs": [
        {
          "internalType": "address",
          "name": "",
          "type": "address"
        }
      ],
      "stateMutability": "view",
      "type": "function"
    },
    {
      "inputs": [],
      "name": "renounceOwnership",
      "outputs": [],
      "stateMutability": "nonpayable",
      "type": "function"
    },
    {
      "inputs": [
        {
          "internalType": "bytes4",
          "name": "interfaceId",
          "type": "bytes4"
        }
      ],
      "name": "supportsInterface",
      "outputs": [
        {
          "internalType": "bool",
          "name": "",
          "type": "bool"
        }
      ],
      "stateMutability": "view",
      "type": "function"
    },
    {
      "inputs": [
        {
          "internalType": "address",
          "name": "newOwner",
          "type": "address"
        }
      ],
      "name": "transferOwnership",
      "outputs": [],
      "stateMutability": "nonpayable",
      "type": "function"
    }
  ],
  "bytecode": "0x60806040523480156200001157600080fd5b5062000032620000266200003860201b60201c565b6200004060201b60201c565b62000104565b600033905090565b60008060009054906101000a900473ffffffffffffffffffffffffffffffffffffffff169050816000806101000a81548173ffffffffffffffffffffffffffffffffffffffff021916908373ffffffffffffffffffffffffffffffffffffffff1602179055508173ffffffffffffffffffffffffffffffffffffffff168173ffffffffffffffffffffffffffffffffffffffff167f8be0079c531659141344cd1fd0a4f28419497f9722a3daafe3b4186f6b6457e060405160405180910390a35050565b61461180620001146000396000f3fe60806040526004361061011f5760003560e01c806376aed2e1116100a0578063a574cea411610064578063a574cea4146103fe578063b21536e61461043b578063ce88b14514610478578063eafcfb99146104b5578063f2fde38b146104de5761011f565b806376aed2e1146102df5780638ad913451461031c5780638da5cb5b146103595780639980ec8614610384578063a07e5199146103c15761011f565b80631c3eeaac116100e75780631c3eeaac1461022f578063404ff5cd1461025857806364e7192414610281578063715018a61461028b57806372abc8b7146102a25761011f565b806301ffc9a7146101245780630e115af91461016157806314ff5ea31461019e57806317e4c78c146101db57806319511a7a14610204575b600080fd5b34801561013057600080fd5b5061014b6004803603810190610146919061307d565b610507565b60405161015891906130c5565b60405180910390f35b34801561016d57600080fd5b5061018860048036038101906101839190613116565b610721565b60405161019591906130c5565b60405180910390f35b3480156101aa57600080fd5b506101c560048036038101906101c09190613116565b610775565b6040516101d29190613152565b60405180910390f35b3480156101e757600080fd5b5061020260048036038101906101fd919061316d565b610822565b005b34801561021057600080fd5b50610219610965565b6040516102269190613246565b60405180910390f35b34801561023b57600080fd5b50610256600480360381019061025191906132eb565b610985565b005b34801561026457600080fd5b5061027f600480360381019061027a919061333e565b610ab6565b005b610289610d62565b005b34801561029757600080fd5b506102a0610e2e565b005b3480156102ae57600080fd5b506102c960048036038101906102c49190613116565b610eb6565b6040516102d691906130c5565b60405180910390f35b3480156102eb57600080fd5b5061030660048036038101906103019190613116565b610f66565b6040516103139190613442565b60405180910390f35b34801561032857600080fd5b50610343600480360381019061033e9190613116565b611020565b6040516103509190613246565b60405180910390f35b34801561036557600080fd5b5061036e611155565b60405161037b919061346c565b60405180910390f35b34801561039057600080fd5b506103ab60048036038101906103a69190613116565b61117e565b6040516103b89190613152565b60405180910390f35b3480156103cd57600080fd5b506103e860048036038101906103e39190613116565b61122b565b6040516103f5919061346c565b60405180910390f35b34801561040a57600080fd5b5061042560048036038101906104209190613116565b6112f8565b6040516104329190613246565b60405180910390f35b34801561044757600080fd5b50610462600480360381019061045d9190613116565b61142d565b60405161046f9190613152565b60405180910390f35b34801561048457600080fd5b5061049f600480360381019061049a9190613116565b6114da565b6040516104ac91906135a1565b60405180910390f35b3480156104c157600080fd5b506104dc60048036038101906104d7919061316d565b611767565b005b3480156104ea57600080fd5b50610505600480360381019061050091906135c3565b6118aa565b005b60007f19511a7a000000000000000000000000000000000000000000000000000000007bffffffffffffffffffffffffffffffffffffffffffffffffffffffff1916827bffffffffffffffffffffffffffffffffffffffffffffffffffffffff191614806105d257507f0e083076000000000000000000000000000000000000000000000000000000007bffffffffffffffffffffffffffffffffffffffffffffffffffffffff1916827bffffffffffffffffffffffffffffffffffffffffffffffffffffffff1916145b8061063a57507f64e71924000000000000000000000000000000000000000000000000000000007bffffffffffffffffffffffffffffffffffffffffffffffffffffffff1916827bffffffffffffffffffffffffffffffffffffffffffffffffffffffff1916145b806106a257507f1c3eeaac000000000000000000000000000000000000000000000000000000007bffffffffffffffffffffffffffffffffffffffffffffffffffffffff1916827bffffffffffffffffffffffffffffffffffffffffffffffffffffffff1916145b8061070a57507f7425f951000000000000000000000000000000000000000000000000000000007bffffffffffffffffffffffffffffffffffffffffffffffffffffffff1916827bffffffffffffffffffffffffffffffffffffffffffffffffffffffff1916145b8061071a5750610719826119a2565b5b9050919050565b6000806003811115610736576107356133cb565b5b6001600084815260200190815260200160002060040160009054906101000a900460ff16600381111561076c5761076b6133cb565b5b14159050919050565b6000816000600381111561078c5761078b6133cb565b5b6001600083815260200190815260200160002060040160009054906101000a900460ff1660038111156107c2576107c16133cb565b5b1415610803576040517f08c379a00000000000000000000000000000000000000000000000000000000081526004016107fa9061363c565b60405180910390fd5b6001600084815260200190815260200160002060030154915050919050565b61082a611a0c565b73ffffffffffffffffffffffffffffffffffffffff16610848611155565b73ffffffffffffffffffffffffffffffffffffffff161461089e576040517f08c379a0000000000000000000000000000000000000000000000000000000008152600401610895906136a8565b60405180910390fd5b81600060038111156108b3576108b26133cb565b5b6001600083815260200190815260200160002060040160009054906101000a900460ff1660038111156108e9576108e86133cb565b5b141561092a576040517f08c379a00000000000000000000000000000000000000000000000000000000081526004016109219061363c565b60405180910390fd5b81600160008581526020019081526020016000206000018190555061096060016000858152602001908152602001600020611a14565b505050565b60606040518060600160405280603f8152602001614563603f9139905090565b61098d611a0c565b73ffffffffffffffffffffffffffffffffffffffff166109ab611155565b73ffffffffffffffffffffffffffffffffffffffff1614610a01576040517f08c379a00000000000000000000000000000000000000000000000000000000081526004016109f8906136a8565b60405180910390fd5b60016003811115610a1557610a146133cb565b5b836003811115610a2857610a276133cb565b5b1415610a3d57610a388282611d4a565b610ab1565b60026003811115610a5157610a506133cb565b5b836003811115610a6457610a636133cb565b5b1415610a7857610a7382611e40565b610ab0565b600380811115610a8b57610a8a6133cb565b5b836003811115610a9e57610a9d6133cb565b5b1415610aaf57610aae8282611eee565b5b5b5b505050565b610abe611a0c565b73ffffffffffffffffffffffffffffffffffffffff16610adc611155565b73ffffffffffffffffffffffffffffffffffffffff1614610b32576040517f08c379a0000000000000000000000000000000000000000000000000000000008152600401610b29906136a8565b60405180910390fd5b60008511610b75576040517f08c379a0000000000000000000000000000000000000000000000000000000008152600401610b6c90613714565b60405180910390fd5b600380811115610b8857610b876133cb565b5b826003811115610b9b57610b9a6133cb565b5b141580610ba85750600185145b610be7576040517f08c379a0000000000000000000000000000000000000000000000000000000008152600401610bde906137a6565b60405180910390fd5b60026003811115610bfb57610bfa6133cb565b5b826003811115610c0e57610c0d6133cb565b5b1480610c1a5750600083115b610c59576040517f08c379a0000000000000000000000000000000000000000000000000000000008152600401610c5090613838565b60405180910390fd5b428111610c9b576040517f08c379a0000000000000000000000000000000000000000000000000000000008152600401610c92906138ca565b60405180910390fd5b600060016000888152602001908152602001600020905085858585858560000160008760020160008960030160008b60040160008d60060160008a919050558991906101000a81548160ff02191690836003811115610cfd57610cfc6133cb565b5b021790555088919050558791906101000a81548173ffffffffffffffffffffffffffffffffffffffff021916908373ffffffffffffffffffffffffffffffffffffffff16021790555086919050555050505050610d5981611a14565b50505050505050565b610d6a611a0c565b73ffffffffffffffffffffffffffffffffffffffff16610d88611155565b73ffffffffffffffffffffffffffffffffffffffff1614610dde576040517f08c379a0000000000000000000000000000000000000000000000000000000008152600401610dd5906136a8565b60405180910390fd5b610de6611155565b73ffffffffffffffffffffffffffffffffffffffff166108fc479081150290604051600060405180830381858888f19350505050158015610e2b573d6000803e3d6000fd5b50565b610e36611a0c565b73ffffffffffffffffffffffffffffffffffffffff16610e54611155565b73ffffffffffffffffffffffffffffffffffffffff1614610eaa576040517f08c379a0000000000000000000000000000000000000000000000000000000008152600401610ea1906136a8565b60405180910390fd5b610eb46000611f68565b565b60008160006003811115610ecd57610ecc6133cb565b5b6001600083815260200190815260200160002060040160009054906101000a900460ff166003811115610f0357610f026133cb565b5b1415610f44576040517f08c379a0000000000000000000000000000000000000000000000000000000008152600401610f3b9061363c565b60405180910390fd5b4260016000858152602001908152602001600020600601541115915050919050565b60008160006003811115610f7d57610f7c6133cb565b5b6001600083815260200190815260200160002060040160009054906101000a900460ff166003811115610fb357610fb26133cb565b5b1415610ff4576040517f08c379a0000000000000000000000000000000000000000000000000000000008152600401610feb9061363c565b60405180910390fd5b6001600084815260200190815260200160002060040160009054906101000a900460ff16915050919050565b60608160006003811115611037576110366133cb565b5b6001600083815260200190815260200160002060040160009054906101000a900460ff16600381111561106d5761106c6133cb565b5b14156110ae576040517f08c379a00000000000000000000000000000000000000000000000000000000081526004016110a59061363c565b60405180910390fd5b6001600084815260200190815260200160002060050180546110cf90613919565b80601f01602080910402602001604051908101604052809291908181526020018280546110fb90613919565b80156111485780601f1061111d57610100808354040283529160200191611148565b820191906000526020600020905b81548152906001019060200180831161112b57829003601f168201915b5050505050915050919050565b60008060009054906101000a900473ffffffffffffffffffffffffffffffffffffffff16905090565b60008160006003811115611195576111946133cb565b5b6001600083815260200190815260200160002060040160009054906101000a900460ff1660038111156111cb576111ca6133cb565b5b141561120c576040517f08c379a00000000000000000000000000000000000000000000000000000000081526004016112039061363c565b60405180910390fd5b6001600084815260200190815260200160002060000154915050919050565b60008160006003811115611242576112416133cb565b5b6001600083815260200190815260200160002060040160009054906101000a900460ff166003811115611278576112776133cb565b5b14156112b9576040517f08c379a00000000000000000000000000000000000000000000000000000000081526004016112b09061363c565b60405180910390fd5b6001600084815260200190815260200160002060020160009054906101000a900473ffffffffffffffffffffffffffffffffffffffff16915050919050565b6060816000600381111561130f5761130e6133cb565b5b6001600083815260200190815260200160002060040160009054906101000a900460ff166003811115611345576113446133cb565b5b1415611386576040517f08c379a000000000000000000000000000000000000000000000000000000000815260040161137d9061363c565b60405180910390fd5b6001600084815260200190815260200160002060010180546113a790613919565b80601f01602080910402602001604051908101604052809291908181526020018280546113d390613919565b80156114205780601f106113f557610100808354040283529160200191611420565b820191906000526020600020905b81548152906001019060200180831161140357829003601f168201915b5050505050915050919050565b60008160006003811115611444576114436133cb565b5b6001600083815260200190815260200160002060040160009054906101000a900460ff16600381111561147a576114796133cb565b5b14156114bb576040517f08c379a00000000000000000000000000000000000000000000000000000000081526004016114b29061363c565b60405180910390fd5b6001600084815260200190815260200160002060060154915050919050565b6114e2612f18565b81600060038111156114f7576114f66133cb565b5b6001600083815260200190815260200160002060040160009054906101000a900460ff16600381111561152d5761152c6133cb565b5b141561156e576040517f08c379a00000000000000000000000000000000000000000000000000000000081526004016115659061363c565b60405180910390fd5b600160008481526020019081526020016000206040518060e0016040529081600082015481526020016001820180546115a690613919565b80601f01602080910402602001604051908101604052809291908181526020018280546115d290613919565b801561161f5780601f106115f45761010080835404028352916020019161161f565b820191906000526020600020905b81548152906001019060200180831161160257829003601f168201915b505050505081526020016002820160009054906101000a900473ffffffffffffffffffffffffffffffffffffffff1673ffffffffffffffffffffffffffffffffffffffff1673ffffffffffffffffffffffffffffffffffffffff168152602001600382015481526020016004820160009054906101000a900460ff1660038111156116ad576116ac6133cb565b5b60038111156116bf576116be6133cb565b5b81526020016005820180546116d390613919565b80601f01602080910402602001604051908101604052809291908181526020018280546116ff90613919565b801561174c5780601f106117215761010080835404028352916020019161174c565b820191906000526020600020905b81548152906001019060200180831161172f57829003601f168201915b50505050508152602001600682015481525050915050919050565b61176f611a0c565b73ffffffffffffffffffffffffffffffffffffffff1661178d611155565b73ffffffffffffffffffffffffffffffffffffffff16146117e3576040517f08c379a00000000000000000000000000000000000000000000000000000000081526004016117da906136a8565b60405180910390fd5b81600060038111156117f8576117f76133cb565b5b6001600083815260200190815260200160002060040160009054906101000a900460ff16600381111561182e5761182d6133cb565b5b141561186f576040517f08c379a00000000000000000000000000000000000000000000000000000000081526004016118669061363c565b60405180910390fd5b8160016000858152602001908152602001600020600601819055506118a560016000858152602001908152602001600020611a14565b505050565b6118b2611a0c565b73ffffffffffffffffffffffffffffffffffffffff166118d0611155565b73ffffffffffffffffffffffffffffffffffffffff1614611926576040517f08c379a000000000000000000000000000000000000000000000000000000000815260040161191d906136a8565b60405180910390fd5b600073ffffffffffffffffffffffffffffffffffffffff168173ffffffffffffffffffffffffffffffffffffffff161415611996576040517f08c379a000000000000000000000000000000000000000000000000000000000815260040161198d906139bd565b60405180910390fd5b61199f81611f68565b50565b60007f01ffc9a7000000000000000000000000000000000000000000000000000000007bffffffffffffffffffffffffffffffffffffffffffffffffffffffff1916827bffffffffffffffffffffffffffffffffffffffffffffffffffffffff1916149050919050565b600033905090565b611a21816000015461202c565b611a648260020160009054906101000a900473ffffffffffffffffffffffffffffffffffffffff1673ffffffffffffffffffffffffffffffffffffffff1661202c565b60016003811115611a7857611a776133cb565b5b8360040160009054906101000a900460ff166003811115611a9c57611a9b6133cb565b5b14611bcd5760026003811115611ab557611ab46133cb565b5b8360040160009054906101000a900460ff166003811115611ad957611ad86133cb565b5b14611b9157600380811115611af157611af06133cb565b5b8360040160009054906101000a900460ff166003811115611b1557611b146133cb565b5b14611b55576040518060400160405280600781526020017f554e4b4e4f574e00000000000000000000000000000000000000000000000000815250611b8c565b6040518060400160405280600681526020017f45524337323100000000000000000000000000000000000000000000000000008152505b611bc8565b6040518060400160405280600581526020017f45524332300000000000000000000000000000000000000000000000000000008152505b611c04565b6040518060400160405280600781526020017f45524331313535000000000000000000000000000000000000000000000000008152505b6000846003015411611c255760405180602001604052806000815250611c52565b611c32846003015461202c565b604051602001611c429190613ab1565b6040516020818303038152906040525b611c5f856006015461202c565b604051602001611c73959493929190613db4565b604051602081830303815290604052816001019080519060200190611c99929190612f7d565b50611d2f816001018054611cac90613919565b80601f0160208091040260200160405190810160405280929190818152602001828054611cd890613919565b8015611d255780601f10611cfa57610100808354040283529160200191611d25565b820191906000526020600020905b815481529060010190602001808311611d0857829003601f168201915b505050505061218d565b816005019080519060200190611d46929190612f7d565b5050565b8173ffffffffffffffffffffffffffffffffffffffff1663f242432a30611d6f611155565b848673ffffffffffffffffffffffffffffffffffffffff1662fdd58e30886040518363ffffffff1660e01b8152600401611daa929190613e41565b602060405180830381865afa158015611dc7573d6000803e3d6000fd5b505050506040513d601f19601f82011682018060405250810190611deb9190613e7f565b6040518563ffffffff1660e01b8152600401611e0a9493929190613f42565b600060405180830381600087803b158015611e2457600080fd5b505af1158015611e38573d6000803e3d6000fd5b505050505050565b611eeb611e4b611155565b8273ffffffffffffffffffffffffffffffffffffffff166370a08231306040518263ffffffff1660e01b8152600401611e84919061346c565b602060405180830381865afa158015611ea1573d6000803e3d6000fd5b505050506040513d601f19601f82011682018060405250810190611ec59190613e7f565b8373ffffffffffffffffffffffffffffffffffffffff166123469092919063ffffffff16565b50565b8173ffffffffffffffffffffffffffffffffffffffff166342842e0e30611f13611155565b846040518463ffffffff1660e01b8152600401611f3293929190613f9a565b600060405180830381600087803b158015611f4c57600080fd5b505af1158015611f60573d6000803e3d6000fd5b505050505050565b60008060009054906101000a900473ffffffffffffffffffffffffffffffffffffffff169050816000806101000a81548173ffffffffffffffffffffffffffffffffffffffff021916908373ffffffffffffffffffffffffffffffffffffffff1602179055508173ffffffffffffffffffffffffffffffffffffffff168173ffffffffffffffffffffffffffffffffffffffff167f8be0079c531659141344cd1fd0a4f28419497f9722a3daafe3b4186f6b6457e060405160405180910390a35050565b60606000821415612074576040518060400160405280600181526020017f30000000000000000000000000000000000000000000000000000000000000008152509050612188565b600082905060005b600082146120a657808061208f90614000565b915050600a8261209f9190614078565b915061207c565b60008167ffffffffffffffff8111156120c2576120c16140a9565b5b6040519080825280601f01601f1916602001820160405280156120f45781602001600182028036833780820191505090505b5090505b600085146121815760018261210d91906140d8565b9150600a8561211c919061410c565b6030612128919061413d565b60f81b81838151811061213e5761213d614193565b5b60200101907effffffffffffffffffffffffffffffffffffffffffffffffffffffffffffff1916908160001a905350600a8561217a9190614078565b94506120f8565b8093505050505b919050565b6060600082905060006121a082516123cc565b905060006121d2825160026121b591906141c2565b600485516121c3919061413d565b6121cd919061413d565b6123cc565b905061233c6123376040518060400160405280600281526020017f122000000000000000000000000000000000000000000000000000000000000081525061233260026040518060400160405280600181526020017f0a00000000000000000000000000000000000000000000000000000000000000815250866040518060400160405280600381526020017f0802120000000000000000000000000000000000000000000000000000000000815250898b6040518060400160405280600181526020017f18000000000000000000000000000000000000000000000000000000000000008152508c6040516020016122d19796959493929190614263565b6040516020818303038152906040526040516122ed91906142c8565b602060405180830381855afa15801561230a573d6000803e3d6000fd5b5050506040513d601f19601f8201168201806040525081019061232d9190614315565b61242c565b61250b565b61268a565b9350505050919050565b6123c78363a9059cbb60e01b8484604051602401612365929190613e41565b604051602081830303815290604052907bffffffffffffffffffffffffffffffffffffffffffffffffffffffff19166020820180517bffffffffffffffffffffffffffffffffffffffffffffffffffffffff83818316178352505050506128d2565b505050565b606060808210156123e7576123e082612999565b9050612427565b61242461240a608080856123fb919061410c565b612405919061413d565b612999565b61241f60808561241a9190614078565b612999565b61250b565b90505b919050565b60606000602067ffffffffffffffff81111561244b5761244a6140a9565b5b6040519080825280601f01601f19166020018201604052801561247d5781602001600182028036833780820191505090505b50905060005b60208160ff16101561250157838160ff16602081106124a5576124a4614193565b5b1a60f81b828260ff16815181106124bf576124be614193565b5b60200101907effffffffffffffffffffffffffffffffffffffffffffffffffffffffffffff1916908160001a90535080806124f99061434f565b915050612483565b5080915050919050565b606060008251845161251d919061413d565b67ffffffffffffffff811115612536576125356140a9565b5b6040519080825280601f01601f1916602001820160405280156125685781602001600182028036833780820191505090505b50905060005b84518110156125ea5784818151811061258a57612589614193565b5b602001015160f81c60f81b8282815181106125a8576125a7614193565b5b60200101907effffffffffffffffffffffffffffffffffffffffffffffffffffffffffffff1916908160001a90535080806125e290614000565b91505061256e565b5b835185516125f9919061413d565b81101561267f578385518261260e91906140d8565b8151811061261f5761261e614193565b5b602001015160f81c60f81b82828151811061263d5761263c614193565b5b60200101907effffffffffffffffffffffffffffffffffffffffffffffffffffffffffffff1916908160001a905350808061267790614000565b9150506125eb565b819250505092915050565b60606000825114156126eb57600067ffffffffffffffff8111156126b1576126b06140a9565b5b6040519080825280601f01601f1916602001820160405280156126e35781602001600182028036833780820191505090505b5090506128cd565b6000604067ffffffffffffffff811115612708576127076140a9565b5b6040519080825280602002602001820160405280156127365781602001602082028036833780820191505090505b50905060008160008151811061274f5761274e614193565b5b602002602001019060ff16908160ff168152505060006001905060005b84518110156128ad57600085828151811061278a57612789614193565b5b602001015160f81c60f81b60f81c60ff16905060005b8360ff16811015612837576101008582815181106127c1576127c0614193565b5b602002602001015160ff166127d691906141c2565b826127e1919061413d565b9150603a826127f0919061410c565b85828151811061280357612802614193565b5b602002602001019060ff16908160ff1681525050603a826128249190614078565b91508061283090614000565b90506127a0565b505b600081111561289b57603a8161284f919061410c565b848460ff168151811061286557612864614193565b5b602002602001019060ff16908160ff168152505082806128849061434f565b935050603a816128949190614078565b9050612839565b50806128a690614000565b905061276c565b506128c86128c36128be8484612acd565b612b8d565b612c60565b925050505b919050565b6000612934826040518060400160405280602081526020017f5361666545524332303a206c6f772d6c6576656c2063616c6c206661696c65648152508573ffffffffffffffffffffffffffffffffffffffff16612d729092919063ffffffff16565b9050600081511115612994578080602001905181019061295491906143a5565b612993576040517f08c379a000000000000000000000000000000000000000000000000000000000815260040161298a90614444565b60405180910390fd5b5b505050565b606060008214156129f957600067ffffffffffffffff8111156129bf576129be6140a9565b5b6040519080825280601f01601f1916602001820160405280156129f15781602001600182028036833780820191505090505b509050612ac8565b600061010083612a09919061410c565b60f81b90506000600167ffffffffffffffff811115612a2b57612a2a6140a9565b5b6040519080825280601f01601f191660200182016040528015612a5d5781602001600182028036833780820191505090505b5090508181600081518110612a7557612a74614193565b5b60200101907effffffffffffffffffffffffffffffffffffffffffffffffffffffffffffff1916908160001a905350612ac3612abd61010086612ab89190614078565b612999565b8261250b565b925050505b919050565b606060008260ff1667ffffffffffffffff811115612aee57612aed6140a9565b5b604051908082528060200260200182016040528015612b1c5781602001602082028036833780820191505090505b50905060005b8360ff16811015612b8257848181518110612b4057612b3f614193565b5b6020026020010151828281518110612b5b57612b5a614193565b5b602002602001019060ff16908160ff16815250508080612b7a90614000565b915050612b22565b508091505092915050565b60606000825167ffffffffffffffff811115612bac57612bab6140a9565b5b604051908082528060200260200182016040528015612bda5781602001602082028036833780820191505090505b50905060005b8351811015612c5657838160018651612bf991906140d8565b612c0391906140d8565b81518110612c1457612c13614193565b5b6020026020010151828281518110612c2f57612c2e614193565b5b602002602001019060ff16908160ff16815250508080612c4e90614000565b915050612be0565b5080915050919050565b60606000825167ffffffffffffffff811115612c7f57612c7e6140a9565b5b6040519080825280601f01601f191660200182016040528015612cb15781602001600182028036833780820191505090505b50905060005b8351811015612d68576040518060600160405280603a81526020016145a2603a9139848281518110612cec57612ceb614193565b5b602002602001015160ff1681518110612d0857612d07614193565b5b602001015160f81c60f81b828281518110612d2657612d25614193565b5b60200101907effffffffffffffffffffffffffffffffffffffffffffffffffffffffffffff1916908160001a9053508080612d6090614000565b915050612cb7565b5080915050919050565b6060612d818484600085612d8a565b90509392505050565b606082471015612dcf576040517f08c379a0000000000000000000000000000000000000000000000000000000008152600401612dc6906144d6565b60405180910390fd5b612dd885612e9e565b612e17576040517f08c379a0000000000000000000000000000000000000000000000000000000008152600401612e0e90614542565b60405180910390fd5b6000808673ffffffffffffffffffffffffffffffffffffffff168587604051612e4091906142c8565b60006040518083038185875af1925050503d8060008114612e7d576040519150601f19603f3d011682016040523d82523d6000602084013e612e82565b606091505b5091509150612e92828286612eb1565b92505050949350505050565b600080823b905060008111915050919050565b60608315612ec157829050612f11565b600083511115612ed45782518084602001fd5b816040517f08c379a0000000000000000000000000000000000000000000000000000000008152600401612f089190613246565b60405180910390fd5b9392505050565b6040518060e001604052806000815260200160608152602001600073ffffffffffffffffffffffffffffffffffffffff1681526020016000815260200160006003811115612f6957612f686133cb565b5b815260200160608152602001600081525090565b828054612f8990613919565b90600052602060002090601f016020900481019282612fab5760008555612ff2565b82601f10612fc457805160ff1916838001178555612ff2565b82800160010185558215612ff2579182015b82811115612ff1578251825591602001919060010190612fd6565b5b509050612fff9190613003565b5090565b5b8082111561301c576000816000905550600101613004565b5090565b600080fd5b60007fffffffff0000000000000000000000000000000000000000000000000000000082169050919050565b61305a81613025565b811461306557600080fd5b50565b60008135905061307781613051565b92915050565b60006020828403121561309357613092613020565b5b60006130a184828501613068565b91505092915050565b60008115159050919050565b6130bf816130aa565b82525050565b60006020820190506130da60008301846130b6565b92915050565b6000819050919050565b6130f3816130e0565b81146130fe57600080fd5b50565b600081359050613110816130ea565b92915050565b60006020828403121561312c5761312b613020565b5b600061313a84828501613101565b91505092915050565b61314c816130e0565b82525050565b60006020820190506131676000830184613143565b92915050565b6000806040838503121561318457613183613020565b5b600061319285828601613101565b92505060206131a385828601613101565b9150509250929050565b600081519050919050565b600082825260208201905092915050565b60005b838110156131e75780820151818401526020810190506131cc565b838111156131f6576000848401525b50505050565b6000601f19601f8301169050919050565b6000613218826131ad565b61322281856131b8565b93506132328185602086016131c9565b61323b816131fc565b840191505092915050565b60006020820190508181036000830152613260818461320d565b905092915050565b6004811061327557600080fd5b50565b60008135905061328781613268565b92915050565b600073ffffffffffffffffffffffffffffffffffffffff82169050919050565b60006132b88261328d565b9050919050565b6132c8816132ad565b81146132d357600080fd5b50565b6000813590506132e5816132bf565b92915050565b60008060006060848603121561330457613303613020565b5b600061331286828701613278565b9350506020613323868287016132d6565b925050604061333486828701613101565b9150509250925092565b60008060008060008060c0878903121561335b5761335a613020565b5b600061336989828a01613101565b965050602061337a89828a01613101565b955050604061338b89828a016132d6565b945050606061339c89828a01613101565b93505060806133ad89828a01613278565b92505060a06133be89828a01613101565b9150509295509295509295565b7f4e487b7100000000000000000000000000000000000000000000000000000000600052602160045260246000fd5b6004811061340b5761340a6133cb565b5b50565b600081905061341c826133fa565b919050565b600061342c8261340e565b9050919050565b61343c81613421565b82525050565b60006020820190506134576000830184613433565b92915050565b613466816132ad565b82525050565b6000602082019050613481600083018461345d565b92915050565b613490816130e0565b82525050565b600082825260208201905092915050565b60006134b2826131ad565b6134bc8185613496565b93506134cc8185602086016131c9565b6134d5816131fc565b840191505092915050565b6134e9816132ad565b82525050565b6134f881613421565b82525050565b600060e0830160008301516135166000860182613487565b506020830151848203602086015261352e82826134a7565b915050604083015161354360408601826134e0565b5060608301516135566060860182613487565b50608083015161356960808601826134ef565b5060a083015184820360a086015261358182826134a7565b91505060c083015161359660c0860182613487565b508091505092915050565b600060208201905081810360008301526135bb81846134fe565b905092915050565b6000602082840312156135d9576135d8613020565b5b60006135e7848285016132d6565b91505092915050565b7f606163636f756e7449646020646f6573206e6f74206578697374000000000000600082015250565b6000613626601a836131b8565b9150613631826135f0565b602082019050919050565b6000602082019050818103600083015261365581613619565b9050919050565b7f4f776e61626c653a2063616c6c6572206973206e6f7420746865206f776e6572600082015250565b60006136926020836131b8565b915061369d8261365c565b602082019050919050565b600060208201905081810360008301526136c181613685565b9050919050565b7f60616d6f756e7460206d7573742062652067726561746572207468616e203000600082015250565b60006136fe601f836131b8565b9150613709826136c8565b602082019050919050565b6000602082019050818103600083015261372d816136f1565b9050919050565b7f60616d6f756e7460206d757374206265203120666f722045524337323120746f60008201527f6b656e7300000000000000000000000000000000000000000000000000000000602082015250565b60006137906024836131b8565b915061379b82613734565b604082019050919050565b600060208201905081810360008301526137bf81613783565b9050919050565b7f60746f6b656e496460206d7573742062652073706563696669656420666f722060008201527f455243373231206f72204552433131353520746f6b656e730000000000000000602082015250565b60006138226038836131b8565b915061382d826137c6565b604082019050919050565b6000602082019050818103600083015261385181613815565b9050919050565b7f60756e6c6f636b54696d6560206d75737420626520696e20746865206675747560008201527f7265000000000000000000000000000000000000000000000000000000000000602082015250565b60006138b46022836131b8565b91506138bf82613858565b604082019050919050565b600060208201905081810360008301526138e3816138a7565b9050919050565b7f4e487b7100000000000000000000000000000000000000000000000000000000600052602260045260246000fd5b6000600282049050600182168061393157607f821691505b60208210811415613945576139446138ea565b5b50919050565b7f4f776e61626c653a206e6577206f776e657220697320746865207a65726f206160008201527f6464726573730000000000000000000000000000000000000000000000000000602082015250565b60006139a76026836131b8565b91506139b28261394b565b604082019050919050565b600060208201905081810360008301526139d68161399a565b9050919050565b600081905092915050565b7f22746f6b656e4964223a22000000000000000000000000000000000000000000600082015250565b6000613a1e600b836139dd565b9150613a29826139e8565b600b82019050919050565b6000613a3f826131ad565b613a4981856139dd565b9350613a598185602086016131c9565b80840191505092915050565b7f222c000000000000000000000000000000000000000000000000000000000000600082015250565b6000613a9b6002836139dd565b9150613aa682613a65565b600282019050919050565b6000613abc82613a11565b9150613ac88284613a34565b9150613ad382613a8e565b915081905092915050565b7f7b226465736372697074696f6e223a225468697320746f6b656e20656e74697460008201527f6c65732074686520686f6c64657220746f20776974686472617720746865697260208201527f206c6f636b656420746f6b656e287329206166746572207468656972206c6f6360408201527f6b20706572696f6420657870697265732066726f6d20746865204d617265204260608201527f697473204c6f636b65722e222c2265787465726e616c5f75726c223a2268747460808201527f70733a2f2f6d6172652e62697a2f222c22696d616765223a2268747470733a2f60a08201527f2f6d6172652e62697a2f6d617265626974732f69636f6e2d3936302e706e672260c08201527f2c226e616d65223a225c75443833445c75444330455c75323030445c7532363460e08201527f305c75464530465c75443833445c75444431325c75443833455c7544453939226101008201527f2c2270726f70657274696573223a207b22616d6f756e74223a2200000000000061012082015250565b6000613c6d61013a836139dd565b9150613c7882613ade565b61013a82019050919050565b7f222c22746f6b656e436f6e7472616374223a2200000000000000000000000000600082015250565b6000613cba6013836139dd565b9150613cc582613c84565b601382019050919050565b7f222c22746f6b656e54797065223a220000000000000000000000000000000000600082015250565b6000613d06600f836139dd565b9150613d1182613cd0565b600f82019050919050565b7f22756e6c6f636b54696d65223a22000000000000000000000000000000000000600082015250565b6000613d52600e836139dd565b9150613d5d82613d1c565b600e82019050919050565b7f227d7d0000000000000000000000000000000000000000000000000000000000600082015250565b6000613d9e6003836139dd565b9150613da982613d68565b600382019050919050565b6000613dbf82613c5f565b9150613dcb8288613a34565b9150613dd682613cad565b9150613de28287613a34565b9150613ded82613cf9565b9150613df98286613a34565b9150613e0482613a8e565b9150613e108285613a34565b9150613e1b82613d45565b9150613e278284613a34565b9150613e3282613d91565b91508190509695505050505050565b6000604082019050613e56600083018561345d565b613e636020830184613143565b9392505050565b600081519050613e79816130ea565b92915050565b600060208284031215613e9557613e94613020565b5b6000613ea384828501613e6a565b91505092915050565b6000819050919050565b6000613ed1613ecc613ec78461328d565b613eac565b61328d565b9050919050565b6000613ee382613eb6565b9050919050565b6000613ef582613ed8565b9050919050565b613f0581613eea565b82525050565b600082825260208201905092915050565b50565b6000613f2c600083613f0b565b9150613f3782613f1c565b600082019050919050565b600060a082019050613f57600083018761345d565b613f646020830186613efc565b613f716040830185613143565b613f7e6060830184613143565b8181036080830152613f8f81613f1f565b905095945050505050565b6000606082019050613faf600083018661345d565b613fbc6020830185613efc565b613fc96040830184613143565b949350505050565b7f4e487b7100000000000000000000000000000000000000000000000000000000600052601160045260246000fd5b600061400b826130e0565b91507fffffffffffffffffffffffffffffffffffffffffffffffffffffffffffffffff82141561403e5761403d613fd1565b5b600182019050919050565b7f4e487b7100000000000000000000000000000000000000000000000000000000600052601260045260246000fd5b6000614083826130e0565b915061408e836130e0565b92508261409e5761409d614049565b5b828204905092915050565b7f4e487b7100000000000000000000000000000000000000000000000000000000600052604160045260246000fd5b60006140e3826130e0565b91506140ee836130e0565b92508282101561410157614100613fd1565b5b828203905092915050565b6000614117826130e0565b9150614122836130e0565b92508261413257614131614049565b5b828206905092915050565b6000614148826130e0565b9150614153836130e0565b9250827fffffffffffffffffffffffffffffffffffffffffffffffffffffffffffffffff0382111561418857614187613fd1565b5b828201905092915050565b7f4e487b7100000000000000000000000000000000000000000000000000000000600052603260045260246000fd5b60006141cd826130e0565b91506141d8836130e0565b9250817fffffffffffffffffffffffffffffffffffffffffffffffffffffffffffffffff048311821515161561421157614210613fd1565b5b828202905092915050565b600081519050919050565b600081905092915050565b600061423d8261421c565b6142478185614227565b93506142578185602086016131c9565b80840191505092915050565b600061426f828a614232565b915061427b8289614232565b91506142878288614232565b91506142938287614232565b915061429f8286614232565b91506142ab8285614232565b91506142b78284614232565b915081905098975050505050505050565b60006142d48284614232565b915081905092915050565b6000819050919050565b6142f2816142df565b81146142fd57600080fd5b50565b60008151905061430f816142e9565b92915050565b60006020828403121561432b5761432a613020565b5b600061433984828501614300565b91505092915050565b600060ff82169050919050565b600061435a82614342565b915060ff82141561436e5761436d613fd1565b5b600182019050919050565b614382816130aa565b811461438d57600080fd5b50565b60008151905061439f81614379565b92915050565b6000602082840312156143bb576143ba613020565b5b60006143c984828501614390565b91505092915050565b7f5361666545524332303a204552433230206f7065726174696f6e20646964206e60008201527f6f74207375636365656400000000000000000000000000000000000000000000602082015250565b600061442e602a836131b8565b9150614439826143d2565b604082019050919050565b6000602082019050818103600083015261445d81614421565b9050919050565b7f416464726573733a20696e73756666696369656e742062616c616e636520666f60008201527f722063616c6c0000000000000000000000000000000000000000000000000000602082015250565b60006144c06026836131b8565b91506144cb82614464565b604082019050919050565b600060208201905081810360008301526144ef816144b3565b9050919050565b7f416464726573733a2063616c6c20746f206e6f6e2d636f6e7472616374000000600082015250565b600061452c601d836131b8565b9150614537826144f6565b602082019050919050565b6000602082019050818103600083015261455b8161451f565b905091905056fe5477696c6967687420537061726b6c6520697320746865206375746573742c20736d6172746573742c20616c6c2061726f756e64206265737420706f6e792131323334353637383941424344454647484a4b4c4d4e505152535455565758595a6162636465666768696a6b6d6e6f707172737475767778797aa2646970667358221220b269560875361dfe3b4fffb74abe235c4aef63d30475475c01cbe789bf5397d164736f6c634300080a0033",
  "linkReferences": {},
  "deployedLinkReferences": {}
}