{
  "_format": "hh-sol-artifact-1",
  "contractName": "MarebitsLockerAccount",
  "sourceName": "contracts/MarebitsLockerAccount.sol",
  "abi": [
    {
      "anonymous": false,
      "inputs": [
        {
          "indexed": true,
          "internalType": "address",
          "name": "previousOwner",
          "type": "address"
        },
        {
          "indexed": true,
          "internalType": "address",
          "name": "newOwner",
          "type": "address"
        }
      ],
      "name": "OwnershipTransferred",
      "type": "event"
    },
    {
      "inputs": [
        {
          "internalType": "uint256",
          "name": "accountId",
          "type": "uint256"
        },
        {
          "internalType": "uint256",
          "name": "amount",
          "type": "uint256"
        },
        {
          "internalType": "address",
          "name": "tokenContract",
          "type": "address"
        },
        {
          "internalType": "uint256",
          "name": "tokenId",
          "type": "uint256"
        },
        {
          "internalType": "enum TokenTypeable.TokenType",
          "name": "tokenType",
          "type": "uint8"
        },
        {
          "internalType": "uint256",
          "name": "unlockTime",
          "type": "uint256"
        }
      ],
      "name": "__createAccount",
      "outputs": [],
      "stateMutability": "nonpayable",
      "type": "function"
    },
    {
      "inputs": [
        {
          "internalType": "contract IERC1155",
          "name": "token",
          "type": "address"
        },
        {
          "internalType": "uint256",
          "name": "tokenId",
          "type": "uint256"
        }
      ],
      "name": "__recoverERC1155",
      "outputs": [],
      "stateMutability": "nonpayable",
      "type": "function"
    },
    {
      "inputs": [
        {
          "internalType": "contract IERC20",
          "name": "token",
          "type": "address"
        }
      ],
      "name": "__recoverERC20",
      "outputs": [],
      "stateMutability": "nonpayable",
      "type": "function"
    },
    {
      "inputs": [
        {
          "internalType": "contract IERC721",
          "name": "token",
          "type": "address"
        },
        {
          "internalType": "uint256",
          "name": "tokenId",
          "type": "uint256"
        }
      ],
      "name": "__recoverERC721",
      "outputs": [],
      "stateMutability": "nonpayable",
      "type": "function"
    },
    {
      "inputs": [],
      "name": "__recoverEther",
      "outputs": [],
      "stateMutability": "payable",
      "type": "function"
    },
    {
      "inputs": [
        {
          "internalType": "uint256",
          "name": "accountId",
          "type": "uint256"
        },
        {
          "internalType": "uint256",
          "name": "amount",
          "type": "uint256"
        }
      ],
      "name": "__setAmount",
      "outputs": [],
      "stateMutability": "nonpayable",
      "type": "function"
    },
    {
      "inputs": [
        {
          "internalType": "uint256",
          "name": "accountId",
          "type": "uint256"
        },
        {
          "internalType": "uint256",
          "name": "unlockTime",
          "type": "uint256"
        }
      ],
      "name": "__setUnlockTime",
      "outputs": [],
      "stateMutability": "nonpayable",
      "type": "function"
    },
    {
      "inputs": [],
      "name": "bestPony",
      "outputs": [
        {
          "internalType": "string",
          "name": "",
          "type": "string"
        }
      ],
      "stateMutability": "pure",
      "type": "function"
    },
    {
      "inputs": [
        {
          "internalType": "uint256",
          "name": "accountId",
          "type": "uint256"
        }
      ],
      "name": "getAccount",
      "outputs": [
        {
          "internalType": "uint256",
          "name": "",
          "type": "uint256"
        },
        {
          "internalType": "string",
          "name": "",
          "type": "string"
        },
        {
          "internalType": "address",
          "name": "",
          "type": "address"
        },
        {
          "internalType": "uint256",
          "name": "",
          "type": "uint256"
        },
        {
          "internalType": "enum TokenTypeable.TokenType",
          "name": "",
          "type": "uint8"
        },
        {
          "internalType": "string",
          "name": "",
          "type": "string"
        },
        {
          "internalType": "uint256",
          "name": "",
          "type": "uint256"
        }
      ],
      "stateMutability": "view",
      "type": "function"
    },
    {
      "inputs": [
        {
          "internalType": "uint256",
          "name": "accountId",
          "type": "uint256"
        }
      ],
      "name": "getAmount",
      "outputs": [
        {
          "internalType": "uint256",
          "name": "",
          "type": "uint256"
        }
      ],
      "stateMutability": "view",
      "type": "function"
    },
    {
      "inputs": [
        {
          "internalType": "uint256",
          "name": "accountId",
          "type": "uint256"
        }
      ],
      "name": "getMetadata",
      "outputs": [
        {
          "internalType": "string",
          "name": "",
          "type": "string"
        }
      ],
      "stateMutability": "view",
      "type": "function"
    },
    {
      "inputs": [
        {
          "internalType": "uint256",
          "name": "accountId",
          "type": "uint256"
        }
      ],
      "name": "getTokenContract",
      "outputs": [
        {
          "internalType": "address",
          "name": "",
          "type": "address"
        }
      ],
      "stateMutability": "view",
      "type": "function"
    },
    {
      "inputs": [
        {
          "internalType": "uint256",
          "name": "accountId",
          "type": "uint256"
        }
      ],
      "name": "getTokenId",
      "outputs": [
        {
          "internalType": "uint256",
          "name": "",
          "type": "uint256"
        }
      ],
      "stateMutability": "view",
      "type": "function"
    },
    {
      "inputs": [
        {
          "internalType": "uint256",
          "name": "accountId",
          "type": "uint256"
        }
      ],
      "name": "getTokenType",
      "outputs": [
        {
          "internalType": "enum TokenTypeable.TokenType",
          "name": "",
          "type": "uint8"
        }
      ],
      "stateMutability": "view",
      "type": "function"
    },
    {
      "inputs": [
        {
          "internalType": "uint256",
          "name": "accountId",
          "type": "uint256"
        }
      ],
      "name": "getTokenUri",
      "outputs": [
        {
          "internalType": "string",
          "name": "",
          "type": "string"
        }
      ],
      "stateMutability": "view",
      "type": "function"
    },
    {
      "inputs": [
        {
          "internalType": "uint256",
          "name": "accountId",
          "type": "uint256"
        }
      ],
      "name": "getUnlockTime",
      "outputs": [
        {
          "internalType": "uint256",
          "name": "",
          "type": "uint256"
        }
      ],
      "stateMutability": "view",
      "type": "function"
    },
    {
      "inputs": [
        {
          "internalType": "uint256",
          "name": "accountId",
          "type": "uint256"
        }
      ],
      "name": "isUnlocked",
      "outputs": [
        {
          "internalType": "bool",
          "name": "",
          "type": "bool"
        }
      ],
      "stateMutability": "view",
      "type": "function"
    },
    {
      "inputs": [],
      "name": "owner",
      "outputs": [
        {
          "internalType": "address",
          "name": "",
          "type": "address"
        }
      ],
      "stateMutability": "view",
      "type": "function"
    },
    {
      "inputs": [],
      "name": "renounceOwnership",
      "outputs": [],
      "stateMutability": "nonpayable",
      "type": "function"
    },
    {
      "inputs": [
        {
          "internalType": "bytes4",
          "name": "interfaceId",
          "type": "bytes4"
        }
      ],
      "name": "supportsInterface",
      "outputs": [
        {
          "internalType": "bool",
          "name": "",
          "type": "bool"
        }
      ],
      "stateMutability": "view",
      "type": "function"
    },
    {
      "inputs": [
        {
          "internalType": "address",
          "name": "newOwner",
          "type": "address"
        }
      ],
      "name": "transferOwnership",
      "outputs": [],
      "stateMutability": "nonpayable",
      "type": "function"
    }
  ],
  "bytecode": "0x60806040523480156200001157600080fd5b5062000032620000266200003860201b60201c565b6200004060201b60201c565b62000104565b600033905090565b60008060009054906101000a900473ffffffffffffffffffffffffffffffffffffffff169050816000806101000a81548173ffffffffffffffffffffffffffffffffffffffff021916908373ffffffffffffffffffffffffffffffffffffffff1602179055508173ffffffffffffffffffffffffffffffffffffffff168173ffffffffffffffffffffffffffffffffffffffff167f8be0079c531659141344cd1fd0a4f28419497f9722a3daafe3b4186f6b6457e060405160405180910390a35050565b613e7880620001146000396000f3fe60806040526004361061012a5760003560e01c806372abc8b7116100ab578063a07e51991161006f578063a07e5199146103e1578063a574cea41461041e578063b21536e61461045b578063ce88b14514610498578063eafcfb99146104db578063f2fde38b146105045761012a565b806372abc8b7146102c257806376aed2e1146102ff5780638ad913451461033c5780638da5cb5b146103795780639980ec86146103a45761012a565b8063404ff5cd116100f2578063404ff5cd14610226578063460e7da71461024f578063540b6ab11461027857806364e71924146102a1578063715018a6146102ab5761012a565b806301ffc9a71461012f57806314ff5ea31461016c57806317e4c78c146101a957806319511a7a146101d25780632099de41146101fd575b600080fd5b34801561013b57600080fd5b50610156600480360381019061015191906128a7565b61052d565b60405161016391906128ef565b60405180910390f35b34801561017857600080fd5b50610193600480360381019061018e9190612940565b6106df565b6040516101a0919061297c565b60405180910390f35b3480156101b557600080fd5b506101d060048036038101906101cb9190612997565b6106ff565b005b3480156101de57600080fd5b506101e761079a565b6040516101f49190612a70565b60405180910390f35b34801561020957600080fd5b50610224600480360381019061021f9190612b02565b6107ba565b005b34801561023257600080fd5b5061024d60048036038101906102489190612b93565b61092c565b005b34801561025b57600080fd5b5061027660048036038101906102719190612c5e565b610e2b565b005b34801561028457600080fd5b5061029f600480360381019061029a9190612cdc565b610f21565b005b6102a961104b565b005b3480156102b757600080fd5b506102c0611117565b005b3480156102ce57600080fd5b506102e960048036038101906102e49190612940565b61119f565b6040516102f691906128ef565b60405180910390f35b34801561030b57600080fd5b5061032660048036038101906103219190612940565b6111c2565b6040516103339190612d80565b60405180910390f35b34801561034857600080fd5b50610363600480360381019061035e9190612940565b6111ef565b6040516103709190612a70565b60405180910390f35b34801561038557600080fd5b5061038e611297565b60405161039b9190612daa565b60405180910390f35b3480156103b057600080fd5b506103cb60048036038101906103c69190612940565b6112c0565b6040516103d8919061297c565b60405180910390f35b3480156103ed57600080fd5b5061040860048036038101906104039190612940565b6112e0565b6040516104159190612daa565b60405180910390f35b34801561042a57600080fd5b5061044560048036038101906104409190612940565b611320565b6040516104529190612a70565b60405180910390f35b34801561046757600080fd5b50610482600480360381019061047d9190612940565b6113c8565b60405161048f919061297c565b60405180910390f35b3480156104a457600080fd5b506104bf60048036038101906104ba9190612940565b6113e8565b6040516104d29796959493929190612dc5565b60405180910390f35b3480156104e757600080fd5b5061050260048036038101906104fd9190612997565b6115f2565b005b34801561051057600080fd5b5061052b60048036038101906105269190612e42565b61168d565b005b60007f19511a7a000000000000000000000000000000000000000000000000000000007bffffffffffffffffffffffffffffffffffffffffffffffffffffffff1916827bffffffffffffffffffffffffffffffffffffffffffffffffffffffff191614806105f857507f0e083076000000000000000000000000000000000000000000000000000000007bffffffffffffffffffffffffffffffffffffffffffffffffffffffff1916827bffffffffffffffffffffffffffffffffffffffffffffffffffffffff1916145b8061066057507f64e71924000000000000000000000000000000000000000000000000000000007bffffffffffffffffffffffffffffffffffffffffffffffffffffffff1916827bffffffffffffffffffffffffffffffffffffffffffffffffffffffff1916145b806106c857507f329cc957000000000000000000000000000000000000000000000000000000007bffffffffffffffffffffffffffffffffffffffffffffffffffffffff1916827bffffffffffffffffffffffffffffffffffffffffffffffffffffffff1916145b806106d857506106d782611785565b5b9050919050565b600060016000838152602001908152602001600020600301549050919050565b6107076117ef565b73ffffffffffffffffffffffffffffffffffffffff16610725611297565b73ffffffffffffffffffffffffffffffffffffffff161461077b576040517f08c379a000000000000000000000000000000000000000000000000000000000815260040161077290612ebb565b60405180910390fd5b8060016000848152602001908152602001600020600001819055505050565b60606040518060600160405280603f8152602001613dca603f9139905090565b6107c26117ef565b73ffffffffffffffffffffffffffffffffffffffff166107e0611297565b73ffffffffffffffffffffffffffffffffffffffff1614610836576040517f08c379a000000000000000000000000000000000000000000000000000000000815260040161082d90612ebb565b60405180910390fd5b8173ffffffffffffffffffffffffffffffffffffffff1663f242432a3061085b611297565b848673ffffffffffffffffffffffffffffffffffffffff1662fdd58e30886040518363ffffffff1660e01b8152600401610896929190612edb565b602060405180830381865afa1580156108b3573d6000803e3d6000fd5b505050506040513d601f19601f820116820180604052508101906108d79190612f19565b6040518563ffffffff1660e01b81526004016108f69493929190612fdc565b600060405180830381600087803b15801561091057600080fd5b505af1158015610924573d6000803e3d6000fd5b505050505050565b6109346117ef565b73ffffffffffffffffffffffffffffffffffffffff16610952611297565b73ffffffffffffffffffffffffffffffffffffffff16146109a8576040517f08c379a000000000000000000000000000000000000000000000000000000000815260040161099f90612ebb565b60405180910390fd5b81600160038111156109bd576109bc612d09565b5b8160038111156109d0576109cf612d09565b5b1480610a005750600260038111156109eb576109ea612d09565b5b8160038111156109fe576109fd612d09565b5b145b80610a2e5750600380811115610a1957610a18612d09565b5b816003811115610a2c57610a2b612d09565b5b145b610a6d576040517f08c379a0000000000000000000000000000000000000000000000000000000008152600401610a64906130cc565b60405180910390fd5b60008611610ab0576040517f08c379a0000000000000000000000000000000000000000000000000000000008152600401610aa790613138565b60405180910390fd5b600380811115610ac357610ac2612d09565b5b836003811115610ad657610ad5612d09565b5b141580610ae35750600186145b610b22576040517f08c379a0000000000000000000000000000000000000000000000000000000008152600401610b19906131ca565b60405180910390fd5b60026003811115610b3657610b35612d09565b5b836003811115610b4957610b48612d09565b5b1480610b555750600084115b610b94576040517f08c379a0000000000000000000000000000000000000000000000000000000008152600401610b8b9061325c565b60405180910390fd5b428211610bd6576040517f08c379a0000000000000000000000000000000000000000000000000000000008152600401610bcd906132ee565b60405180910390fd5b600060016000898152602001908152602001600020905086868686868560000160008760020160008960030160008b60040160008d60060160008a919050558991906101000a81548160ff02191690836003811115610c3857610c37612d09565b5b021790555088919050558791906101000a81548173ffffffffffffffffffffffffffffffffffffffff021916908373ffffffffffffffffffffffffffffffffffffffff160217905550869190505550505050506000604051806020016040528060008152509050600082600301541115610cdb57610cb982600301546117f7565b604051602001610cc991906133e2565b60405160208183030381529060405290505b610ce882600001546117f7565b610d2b8360020160009054906101000a900473ffffffffffffffffffffffffffffffffffffffff1673ffffffffffffffffffffffffffffffffffffffff166117f7565b82610d3985600601546117f7565b604051602001610d4c9493929190613699565b604051602081830303815290604052826001019080519060200190610d729291906127a7565b50610e08826001018054610d859061373d565b80601f0160208091040260200160405190810160405280929190818152602001828054610db19061373d565b8015610dfe5780601f10610dd357610100808354040283529160200191610dfe565b820191906000526020600020905b815481529060010190602001808311610de157829003601f168201915b5050505050611958565b826005019080519060200190610e1f9291906127a7565b50505050505050505050565b610e336117ef565b73ffffffffffffffffffffffffffffffffffffffff16610e51611297565b73ffffffffffffffffffffffffffffffffffffffff1614610ea7576040517f08c379a0000000000000000000000000000000000000000000000000000000008152600401610e9e90612ebb565b60405180910390fd5b8173ffffffffffffffffffffffffffffffffffffffff166342842e0e30610ecc611297565b846040518463ffffffff1660e01b8152600401610eeb9392919061376f565b600060405180830381600087803b158015610f0557600080fd5b505af1158015610f19573d6000803e3d6000fd5b505050505050565b610f296117ef565b73ffffffffffffffffffffffffffffffffffffffff16610f47611297565b73ffffffffffffffffffffffffffffffffffffffff1614610f9d576040517f08c379a0000000000000000000000000000000000000000000000000000000008152600401610f9490612ebb565b60405180910390fd5b611048610fa8611297565b8273ffffffffffffffffffffffffffffffffffffffff166370a08231306040518263ffffffff1660e01b8152600401610fe19190612daa565b602060405180830381865afa158015610ffe573d6000803e3d6000fd5b505050506040513d601f19601f820116820180604052508101906110229190612f19565b8373ffffffffffffffffffffffffffffffffffffffff16611b119092919063ffffffff16565b50565b6110536117ef565b73ffffffffffffffffffffffffffffffffffffffff16611071611297565b73ffffffffffffffffffffffffffffffffffffffff16146110c7576040517f08c379a00000000000000000000000000000000000000000000000000000000081526004016110be90612ebb565b60405180910390fd5b6110cf611297565b73ffffffffffffffffffffffffffffffffffffffff166108fc479081150290604051600060405180830381858888f19350505050158015611114573d6000803e3d6000fd5b50565b61111f6117ef565b73ffffffffffffffffffffffffffffffffffffffff1661113d611297565b73ffffffffffffffffffffffffffffffffffffffff1614611193576040517f08c379a000000000000000000000000000000000000000000000000000000000815260040161118a90612ebb565b60405180910390fd5b61119d6000611b97565b565b600042600160008481526020019081526020016000206006015411159050919050565b60006001600083815260200190815260200160002060040160009054906101000a900460ff169050919050565b60606001600083815260200190815260200160002060050180546112129061373d565b80601f016020809104026020016040519081016040528092919081815260200182805461123e9061373d565b801561128b5780601f106112605761010080835404028352916020019161128b565b820191906000526020600020905b81548152906001019060200180831161126e57829003601f168201915b50505050509050919050565b60008060009054906101000a900473ffffffffffffffffffffffffffffffffffffffff16905090565b600060016000838152602001908152602001600020600001549050919050565b60006001600083815260200190815260200160002060020160009054906101000a900473ffffffffffffffffffffffffffffffffffffffff169050919050565b60606001600083815260200190815260200160002060010180546113439061373d565b80601f016020809104026020016040519081016040528092919081815260200182805461136f9061373d565b80156113bc5780601f10611391576101008083540402835291602001916113bc565b820191906000526020600020905b81548152906001019060200180831161139f57829003601f168201915b50505050509050919050565b600060016000838152602001908152602001600020600601549050919050565b600060606000806000606060006001600089815260200190815260200160002060000154600160008a8152602001908152602001600020600101600160008b815260200190815260200160002060020160009054906101000a900473ffffffffffffffffffffffffffffffffffffffff16600160008c815260200190815260200160002060030154600160008d815260200190815260200160002060040160009054906101000a900460ff16600160008e8152602001908152602001600020600501600160008f8152602001908152602001600020600601548580546114cd9061373d565b80601f01602080910402602001604051908101604052809291908181526020018280546114f99061373d565b80156115465780601f1061151b57610100808354040283529160200191611546565b820191906000526020600020905b81548152906001019060200180831161152957829003601f168201915b505050505095508180546115599061373d565b80601f01602080910402602001604051908101604052809291908181526020018280546115859061373d565b80156115d25780601f106115a7576101008083540402835291602001916115d2565b820191906000526020600020905b8154815290600101906020018083116115b557829003601f168201915b505050505091509650965096509650965096509650919395979092949650565b6115fa6117ef565b73ffffffffffffffffffffffffffffffffffffffff16611618611297565b73ffffffffffffffffffffffffffffffffffffffff161461166e576040517f08c379a000000000000000000000000000000000000000000000000000000000815260040161166590612ebb565b60405180910390fd5b8060016000848152602001908152602001600020600601819055505050565b6116956117ef565b73ffffffffffffffffffffffffffffffffffffffff166116b3611297565b73ffffffffffffffffffffffffffffffffffffffff1614611709576040517f08c379a000000000000000000000000000000000000000000000000000000000815260040161170090612ebb565b60405180910390fd5b600073ffffffffffffffffffffffffffffffffffffffff168173ffffffffffffffffffffffffffffffffffffffff161415611779576040517f08c379a000000000000000000000000000000000000000000000000000000000815260040161177090613818565b60405180910390fd5b61178281611b97565b50565b60007f01ffc9a7000000000000000000000000000000000000000000000000000000007bffffffffffffffffffffffffffffffffffffffffffffffffffffffff1916827bffffffffffffffffffffffffffffffffffffffffffffffffffffffff1916149050919050565b600033905090565b6060600082141561183f576040518060400160405280600181526020017f30000000000000000000000000000000000000000000000000000000000000008152509050611953565b600082905060005b6000821461187157808061185a90613867565b915050600a8261186a91906138df565b9150611847565b60008167ffffffffffffffff81111561188d5761188c613910565b5b6040519080825280601f01601f1916602001820160405280156118bf5781602001600182028036833780820191505090505b5090505b6000851461194c576001826118d8919061393f565b9150600a856118e79190613973565b60306118f391906139a4565b60f81b818381518110611909576119086139fa565b5b60200101907effffffffffffffffffffffffffffffffffffffffffffffffffffffffffffff1916908160001a905350600a8561194591906138df565b94506118c3565b8093505050505b919050565b60606000829050600061196b8251611c5b565b9050600061199d825160026119809190613a29565b6004855161198e91906139a4565b61199891906139a4565b611c5b565b9050611b07611b026040518060400160405280600281526020017f1220000000000000000000000000000000000000000000000000000000000000815250611afd60026040518060400160405280600181526020017f0a00000000000000000000000000000000000000000000000000000000000000815250866040518060400160405280600381526020017f0802120000000000000000000000000000000000000000000000000000000000815250898b6040518060400160405280600181526020017f18000000000000000000000000000000000000000000000000000000000000008152508c604051602001611a9c9796959493929190613aca565b604051602081830303815290604052604051611ab89190613b2f565b602060405180830381855afa158015611ad5573d6000803e3d6000fd5b5050506040513d601f19601f82011682018060405250810190611af89190613b7c565b611cbb565b611d9a565b611f19565b9350505050919050565b611b928363a9059cbb60e01b8484604051602401611b30929190612edb565b604051602081830303815290604052907bffffffffffffffffffffffffffffffffffffffffffffffffffffffff19166020820180517bffffffffffffffffffffffffffffffffffffffffffffffffffffffff8381831617835250505050612161565b505050565b60008060009054906101000a900473ffffffffffffffffffffffffffffffffffffffff169050816000806101000a81548173ffffffffffffffffffffffffffffffffffffffff021916908373ffffffffffffffffffffffffffffffffffffffff1602179055508173ffffffffffffffffffffffffffffffffffffffff168173ffffffffffffffffffffffffffffffffffffffff167f8be0079c531659141344cd1fd0a4f28419497f9722a3daafe3b4186f6b6457e060405160405180910390a35050565b60606080821015611c7657611c6f82612228565b9050611cb6565b611cb3611c9960808085611c8a9190613973565b611c9491906139a4565b612228565b611cae608085611ca991906138df565b612228565b611d9a565b90505b919050565b60606000602067ffffffffffffffff811115611cda57611cd9613910565b5b6040519080825280601f01601f191660200182016040528015611d0c5781602001600182028036833780820191505090505b50905060005b60208160ff161015611d9057838160ff1660208110611d3457611d336139fa565b5b1a60f81b828260ff1681518110611d4e57611d4d6139fa565b5b60200101907effffffffffffffffffffffffffffffffffffffffffffffffffffffffffffff1916908160001a9053508080611d8890613bb6565b915050611d12565b5080915050919050565b6060600082518451611dac91906139a4565b67ffffffffffffffff811115611dc557611dc4613910565b5b6040519080825280601f01601f191660200182016040528015611df75781602001600182028036833780820191505090505b50905060005b8451811015611e7957848181518110611e1957611e186139fa565b5b602001015160f81c60f81b828281518110611e3757611e366139fa565b5b60200101907effffffffffffffffffffffffffffffffffffffffffffffffffffffffffffff1916908160001a9053508080611e7190613867565b915050611dfd565b5b83518551611e8891906139a4565b811015611f0e5783855182611e9d919061393f565b81518110611eae57611ead6139fa565b5b602001015160f81c60f81b828281518110611ecc57611ecb6139fa565b5b60200101907effffffffffffffffffffffffffffffffffffffffffffffffffffffffffffff1916908160001a9053508080611f0690613867565b915050611e7a565b819250505092915050565b6060600082511415611f7a57600067ffffffffffffffff811115611f4057611f3f613910565b5b6040519080825280601f01601f191660200182016040528015611f725781602001600182028036833780820191505090505b50905061215c565b6000604067ffffffffffffffff811115611f9757611f96613910565b5b604051908082528060200260200182016040528015611fc55781602001602082028036833780820191505090505b509050600081600081518110611fde57611fdd6139fa565b5b602002602001019060ff16908160ff168152505060006001905060005b845181101561213c576000858281518110612019576120186139fa565b5b602001015160f81c60f81b60f81c60ff16905060005b8360ff168110156120c6576101008582815181106120505761204f6139fa565b5b602002602001015160ff166120659190613a29565b8261207091906139a4565b9150603a8261207f9190613973565b858281518110612092576120916139fa565b5b602002602001019060ff16908160ff1681525050603a826120b391906138df565b9150806120bf90613867565b905061202f565b505b600081111561212a57603a816120de9190613973565b848460ff16815181106120f4576120f36139fa565b5b602002602001019060ff16908160ff1681525050828061211390613bb6565b935050603a8161212391906138df565b90506120c8565b508061213590613867565b9050611ffb565b5061215761215261214d848461235c565b61241c565b6124ef565b925050505b919050565b60006121c3826040518060400160405280602081526020017f5361666545524332303a206c6f772d6c6576656c2063616c6c206661696c65648152508573ffffffffffffffffffffffffffffffffffffffff166126019092919063ffffffff16565b905060008151111561222357808060200190518101906121e39190613c0c565b612222576040517f08c379a000000000000000000000000000000000000000000000000000000000815260040161221990613cab565b60405180910390fd5b5b505050565b6060600082141561228857600067ffffffffffffffff81111561224e5761224d613910565b5b6040519080825280601f01601f1916602001820160405280156122805781602001600182028036833780820191505090505b509050612357565b6000610100836122989190613973565b60f81b90506000600167ffffffffffffffff8111156122ba576122b9613910565b5b6040519080825280601f01601f1916602001820160405280156122ec5781602001600182028036833780820191505090505b5090508181600081518110612304576123036139fa565b5b60200101907effffffffffffffffffffffffffffffffffffffffffffffffffffffffffffff1916908160001a90535061235261234c6101008661234791906138df565b612228565b82611d9a565b925050505b919050565b606060008260ff1667ffffffffffffffff81111561237d5761237c613910565b5b6040519080825280602002602001820160405280156123ab5781602001602082028036833780820191505090505b50905060005b8360ff16811015612411578481815181106123cf576123ce6139fa565b5b60200260200101518282815181106123ea576123e96139fa565b5b602002602001019060ff16908160ff1681525050808061240990613867565b9150506123b1565b508091505092915050565b60606000825167ffffffffffffffff81111561243b5761243a613910565b5b6040519080825280602002602001820160405280156124695781602001602082028036833780820191505090505b50905060005b83518110156124e557838160018651612488919061393f565b612492919061393f565b815181106124a3576124a26139fa565b5b60200260200101518282815181106124be576124bd6139fa565b5b602002602001019060ff16908160ff168152505080806124dd90613867565b91505061246f565b5080915050919050565b60606000825167ffffffffffffffff81111561250e5761250d613910565b5b6040519080825280601f01601f1916602001820160405280156125405781602001600182028036833780820191505090505b50905060005b83518110156125f7576040518060600160405280603a8152602001613e09603a913984828151811061257b5761257a6139fa565b5b602002602001015160ff1681518110612597576125966139fa565b5b602001015160f81c60f81b8282815181106125b5576125b46139fa565b5b60200101907effffffffffffffffffffffffffffffffffffffffffffffffffffffffffffff1916908160001a90535080806125ef90613867565b915050612546565b5080915050919050565b60606126108484600085612619565b90509392505050565b60608247101561265e576040517f08c379a000000000000000000000000000000000000000000000000000000000815260040161265590613d3d565b60405180910390fd5b6126678561272d565b6126a6576040517f08c379a000000000000000000000000000000000000000000000000000000000815260040161269d90613da9565b60405180910390fd5b6000808673ffffffffffffffffffffffffffffffffffffffff1685876040516126cf9190613b2f565b60006040518083038185875af1925050503d806000811461270c576040519150601f19603f3d011682016040523d82523d6000602084013e612711565b606091505b5091509150612721828286612740565b92505050949350505050565b600080823b905060008111915050919050565b60608315612750578290506127a0565b6000835111156127635782518084602001fd5b816040517f08c379a00000000000000000000000000000000000000000000000000000000081526004016127979190612a70565b60405180910390fd5b9392505050565b8280546127b39061373d565b90600052602060002090601f0160209004810192826127d5576000855561281c565b82601f106127ee57805160ff191683800117855561281c565b8280016001018555821561281c579182015b8281111561281b578251825591602001919060010190612800565b5b509050612829919061282d565b5090565b5b8082111561284657600081600090555060010161282e565b5090565b600080fd5b60007fffffffff0000000000000000000000000000000000000000000000000000000082169050919050565b6128848161284f565b811461288f57600080fd5b50565b6000813590506128a18161287b565b92915050565b6000602082840312156128bd576128bc61284a565b5b60006128cb84828501612892565b91505092915050565b60008115159050919050565b6128e9816128d4565b82525050565b600060208201905061290460008301846128e0565b92915050565b6000819050919050565b61291d8161290a565b811461292857600080fd5b50565b60008135905061293a81612914565b92915050565b6000602082840312156129565761295561284a565b5b60006129648482850161292b565b91505092915050565b6129768161290a565b82525050565b6000602082019050612991600083018461296d565b92915050565b600080604083850312156129ae576129ad61284a565b5b60006129bc8582860161292b565b92505060206129cd8582860161292b565b9150509250929050565b600081519050919050565b600082825260208201905092915050565b60005b83811015612a115780820151818401526020810190506129f6565b83811115612a20576000848401525b50505050565b6000601f19601f8301169050919050565b6000612a42826129d7565b612a4c81856129e2565b9350612a5c8185602086016129f3565b612a6581612a26565b840191505092915050565b60006020820190508181036000830152612a8a8184612a37565b905092915050565b600073ffffffffffffffffffffffffffffffffffffffff82169050919050565b6000612abd82612a92565b9050919050565b6000612acf82612ab2565b9050919050565b612adf81612ac4565b8114612aea57600080fd5b50565b600081359050612afc81612ad6565b92915050565b60008060408385031215612b1957612b1861284a565b5b6000612b2785828601612aed565b9250506020612b388582860161292b565b9150509250929050565b612b4b81612ab2565b8114612b5657600080fd5b50565b600081359050612b6881612b42565b92915050565b60048110612b7b57600080fd5b50565b600081359050612b8d81612b6e565b92915050565b60008060008060008060c08789031215612bb057612baf61284a565b5b6000612bbe89828a0161292b565b9650506020612bcf89828a0161292b565b9550506040612be089828a01612b59565b9450506060612bf189828a0161292b565b9350506080612c0289828a01612b7e565b92505060a0612c1389828a0161292b565b9150509295509295509295565b6000612c2b82612ab2565b9050919050565b612c3b81612c20565b8114612c4657600080fd5b50565b600081359050612c5881612c32565b92915050565b60008060408385031215612c7557612c7461284a565b5b6000612c8385828601612c49565b9250506020612c948582860161292b565b9150509250929050565b6000612ca982612ab2565b9050919050565b612cb981612c9e565b8114612cc457600080fd5b50565b600081359050612cd681612cb0565b92915050565b600060208284031215612cf257612cf161284a565b5b6000612d0084828501612cc7565b91505092915050565b7f4e487b7100000000000000000000000000000000000000000000000000000000600052602160045260246000fd5b60048110612d4957612d48612d09565b5b50565b6000819050612d5a82612d38565b919050565b6000612d6a82612d4c565b9050919050565b612d7a81612d5f565b82525050565b6000602082019050612d956000830184612d71565b92915050565b612da481612ab2565b82525050565b6000602082019050612dbf6000830184612d9b565b92915050565b600060e082019050612dda600083018a61296d565b8181036020830152612dec8189612a37565b9050612dfb6040830188612d9b565b612e08606083018761296d565b612e156080830186612d71565b81810360a0830152612e278185612a37565b9050612e3660c083018461296d565b98975050505050505050565b600060208284031215612e5857612e5761284a565b5b6000612e6684828501612b59565b91505092915050565b7f4f776e61626c653a2063616c6c6572206973206e6f7420746865206f776e6572600082015250565b6000612ea56020836129e2565b9150612eb082612e6f565b602082019050919050565b60006020820190508181036000830152612ed481612e98565b9050919050565b6000604082019050612ef06000830185612d9b565b612efd602083018461296d565b9392505050565b600081519050612f1381612914565b92915050565b600060208284031215612f2f57612f2e61284a565b5b6000612f3d84828501612f04565b91505092915050565b6000819050919050565b6000612f6b612f66612f6184612a92565b612f46565b612a92565b9050919050565b6000612f7d82612f50565b9050919050565b6000612f8f82612f72565b9050919050565b612f9f81612f84565b82525050565b600082825260208201905092915050565b50565b6000612fc6600083612fa5565b9150612fd182612fb6565b600082019050919050565b600060a082019050612ff16000830187612d9b565b612ffe6020830186612f96565b61300b604083018561296d565b613018606083018461296d565b818103608083015261302981612fb9565b905095945050505050565b7f60746f6b656e5479706560206d75737420726570726573656e7420612073757060008201527f706f7274656420746f6b656e3a203120666f7220455243313135352c2032206660208201527f6f722045524332302c206f72203320666f722045524337323100000000000000604082015250565b60006130b66059836129e2565b91506130c182613034565b606082019050919050565b600060208201905081810360008301526130e5816130a9565b9050919050565b7f60616d6f756e7460206d7573742062652067726561746572207468616e203000600082015250565b6000613122601f836129e2565b915061312d826130ec565b602082019050919050565b6000602082019050818103600083015261315181613115565b9050919050565b7f60616d6f756e7460206d757374206265203120666f722045524337323120746f60008201527f6b656e7300000000000000000000000000000000000000000000000000000000602082015250565b60006131b46024836129e2565b91506131bf82613158565b604082019050919050565b600060208201905081810360008301526131e3816131a7565b9050919050565b7f60746f6b656e496460206d7573742062652073706563696669656420666f722060008201527f455243373231206f72204552433131353520746f6b656e730000000000000000602082015250565b60006132466038836129e2565b9150613251826131ea565b604082019050919050565b6000602082019050818103600083015261327581613239565b9050919050565b7f60756e6c6f636b54696d6560206d75737420626520696e20746865206675747560008201527f7265000000000000000000000000000000000000000000000000000000000000602082015250565b60006132d86022836129e2565b91506132e38261327c565b604082019050919050565b60006020820190508181036000830152613307816132cb565b9050919050565b600081905092915050565b7f22746f6b656e4964223a22000000000000000000000000000000000000000000600082015250565b600061334f600b8361330e565b915061335a82613319565b600b82019050919050565b6000613370826129d7565b61337a818561330e565b935061338a8185602086016129f3565b80840191505092915050565b7f222c000000000000000000000000000000000000000000000000000000000000600082015250565b60006133cc60028361330e565b91506133d782613396565b600282019050919050565b60006133ed82613342565b91506133f98284613365565b9150613404826133bf565b915081905092915050565b7f7b226465736372697074696f6e223a225468697320746f6b656e20656e74697460008201527f6c65732074686520686f6c64657220746f20776974686472617720746865697260208201527f206c6f636b656420746f6b656e287329206166746572207468656972206c6f6360408201527f6b20706572696f6420657870697265732066726f6d20746865204d617265204260608201527f697473204c6f636b65722e222c2265787465726e616c5f75726c223a2268747460808201527f70733a2f2f6d6172652e62697a2f222c22696d616765223a2268747470733a2f60a08201527f2f6d6172652e62697a2f6d617265626974732f69636f6e2d3936302e706e672260c08201527f2c226e616d65223a225c75443833445c75444330455c75323030445c7532363460e08201527f305c75464530465c75443833445c75444431325c75443833455c7544453939226101008201527f2c2270726f70657274696573223a207b22616d6f756e74223a2200000000000061012082015250565b600061359e61013a8361330e565b91506135a98261340f565b61013a82019050919050565b7f222c22746f6b656e436f6e7472616374223a2200000000000000000000000000600082015250565b60006135eb60138361330e565b91506135f6826135b5565b601382019050919050565b7f22756e6c6f636b54696d65223a22000000000000000000000000000000000000600082015250565b6000613637600e8361330e565b915061364282613601565b600e82019050919050565b7f227d7d0000000000000000000000000000000000000000000000000000000000600082015250565b600061368360038361330e565b915061368e8261364d565b600382019050919050565b60006136a482613590565b91506136b08287613365565b91506136bb826135de565b91506136c78286613365565b91506136d2826133bf565b91506136de8285613365565b91506136e98261362a565b91506136f58284613365565b915061370082613676565b915081905095945050505050565b7f4e487b7100000000000000000000000000000000000000000000000000000000600052602260045260246000fd5b6000600282049050600182168061375557607f821691505b602082108114156137695761376861370e565b5b50919050565b60006060820190506137846000830186612d9b565b6137916020830185612f96565b61379e604083018461296d565b949350505050565b7f4f776e61626c653a206e6577206f776e657220697320746865207a65726f206160008201527f6464726573730000000000000000000000000000000000000000000000000000602082015250565b60006138026026836129e2565b915061380d826137a6565b604082019050919050565b60006020820190508181036000830152613831816137f5565b9050919050565b7f4e487b7100000000000000000000000000000000000000000000000000000000600052601160045260246000fd5b60006138728261290a565b91507fffffffffffffffffffffffffffffffffffffffffffffffffffffffffffffffff8214156138a5576138a4613838565b5b600182019050919050565b7f4e487b7100000000000000000000000000000000000000000000000000000000600052601260045260246000fd5b60006138ea8261290a565b91506138f58361290a565b925082613905576139046138b0565b5b828204905092915050565b7f4e487b7100000000000000000000000000000000000000000000000000000000600052604160045260246000fd5b600061394a8261290a565b91506139558361290a565b92508282101561396857613967613838565b5b828203905092915050565b600061397e8261290a565b91506139898361290a565b925082613999576139986138b0565b5b828206905092915050565b60006139af8261290a565b91506139ba8361290a565b9250827fffffffffffffffffffffffffffffffffffffffffffffffffffffffffffffffff038211156139ef576139ee613838565b5b828201905092915050565b7f4e487b7100000000000000000000000000000000000000000000000000000000600052603260045260246000fd5b6000613a348261290a565b9150613a3f8361290a565b9250817fffffffffffffffffffffffffffffffffffffffffffffffffffffffffffffffff0483118215151615613a7857613a77613838565b5b828202905092915050565b600081519050919050565b600081905092915050565b6000613aa482613a83565b613aae8185613a8e565b9350613abe8185602086016129f3565b80840191505092915050565b6000613ad6828a613a99565b9150613ae28289613a99565b9150613aee8288613a99565b9150613afa8287613a99565b9150613b068286613a99565b9150613b128285613a99565b9150613b1e8284613a99565b915081905098975050505050505050565b6000613b3b8284613a99565b915081905092915050565b6000819050919050565b613b5981613b46565b8114613b6457600080fd5b50565b600081519050613b7681613b50565b92915050565b600060208284031215613b9257613b9161284a565b5b6000613ba084828501613b67565b91505092915050565b600060ff82169050919050565b6000613bc182613ba9565b915060ff821415613bd557613bd4613838565b5b600182019050919050565b613be9816128d4565b8114613bf457600080fd5b50565b600081519050613c0681613be0565b92915050565b600060208284031215613c2257613c2161284a565b5b6000613c3084828501613bf7565b91505092915050565b7f5361666545524332303a204552433230206f7065726174696f6e20646964206e60008201527f6f74207375636365656400000000000000000000000000000000000000000000602082015250565b6000613c95602a836129e2565b9150613ca082613c39565b604082019050919050565b60006020820190508181036000830152613cc481613c88565b9050919050565b7f416464726573733a20696e73756666696369656e742062616c616e636520666f60008201527f722063616c6c0000000000000000000000000000000000000000000000000000602082015250565b6000613d276026836129e2565b9150613d3282613ccb565b604082019050919050565b60006020820190508181036000830152613d5681613d1a565b9050919050565b7f416464726573733a2063616c6c20746f206e6f6e2d636f6e7472616374000000600082015250565b6000613d93601d836129e2565b9150613d9e82613d5d565b602082019050919050565b60006020820190508181036000830152613dc281613d86565b905091905056fe5477696c6967687420537061726b6c6520697320746865206375746573742c20736d6172746573742c20616c6c2061726f756e64206265737420706f6e792131323334353637383941424344454647484a4b4c4d4e505152535455565758595a6162636465666768696a6b6d6e6f707172737475767778797aa2646970667358221220257a3bb2c6393875232bb59d3fddeaa262a00c26c962fa77b9fc328b363f654d64736f6c634300080a0033",
  "linkReferences": {},
  "deployedLinkReferences": {}
}