{
  "_format": "hh-sol-artifact-1",
  "contractName": "MarebitsVault",
  "sourceName": "contracts/MarebitsVault.sol",
  "abi": [
    {
      "anonymous": false,
      "inputs": [
        {
          "indexed": true,
          "internalType": "address",
          "name": "previousOwner",
          "type": "address"
        },
        {
          "indexed": true,
          "internalType": "address",
          "name": "newOwner",
          "type": "address"
        }
      ],
      "name": "OwnershipTransferred",
      "type": "event"
    },
    {
      "inputs": [],
      "name": "__recoverEther",
      "outputs": [],
      "stateMutability": "payable",
      "type": "function"
    },
    {
      "inputs": [],
      "name": "bestPony",
      "outputs": [
        {
          "internalType": "string",
          "name": "",
          "type": "string"
        }
      ],
      "stateMutability": "pure",
      "type": "function"
    },
    {
      "inputs": [
        {
          "internalType": "address",
          "name": "",
          "type": "address"
        },
        {
          "internalType": "address",
          "name": "",
          "type": "address"
        },
        {
          "internalType": "uint256[]",
          "name": "",
          "type": "uint256[]"
        },
        {
          "internalType": "uint256[]",
          "name": "",
          "type": "uint256[]"
        },
        {
          "internalType": "bytes",
          "name": "",
          "type": "bytes"
        }
      ],
      "name": "onERC1155BatchReceived",
      "outputs": [
        {
          "internalType": "bytes4",
          "name": "",
          "type": "bytes4"
        }
      ],
      "stateMutability": "nonpayable",
      "type": "function"
    },
    {
      "inputs": [
        {
          "internalType": "address",
          "name": "",
          "type": "address"
        },
        {
          "internalType": "address",
          "name": "",
          "type": "address"
        },
        {
          "internalType": "uint256",
          "name": "",
          "type": "uint256"
        },
        {
          "internalType": "uint256",
          "name": "",
          "type": "uint256"
        },
        {
          "internalType": "bytes",
          "name": "",
          "type": "bytes"
        }
      ],
      "name": "onERC1155Received",
      "outputs": [
        {
          "internalType": "bytes4",
          "name": "",
          "type": "bytes4"
        }
      ],
      "stateMutability": "nonpayable",
      "type": "function"
    },
    {
      "inputs": [
        {
          "internalType": "address",
          "name": "",
          "type": "address"
        },
        {
          "internalType": "address",
          "name": "",
          "type": "address"
        },
        {
          "internalType": "uint256",
          "name": "",
          "type": "uint256"
        },
        {
          "internalType": "bytes",
          "name": "",
          "type": "bytes"
        }
      ],
      "name": "onERC721Received",
      "outputs": [
        {
          "internalType": "bytes4",
          "name": "",
          "type": "bytes4"
        }
      ],
      "stateMutability": "nonpayable",
      "type": "function"
    },
    {
      "inputs": [],
      "name": "owner",
      "outputs": [
        {
          "internalType": "address",
          "name": "",
          "type": "address"
        }
      ],
      "stateMutability": "view",
      "type": "function"
    },
    {
      "inputs": [],
      "name": "renounceOwnership",
      "outputs": [],
      "stateMutability": "nonpayable",
      "type": "function"
    },
    {
      "inputs": [
        {
          "internalType": "bytes4",
          "name": "interfaceId",
          "type": "bytes4"
        }
      ],
      "name": "supportsInterface",
      "outputs": [
        {
          "internalType": "bool",
          "name": "",
          "type": "bool"
        }
      ],
      "stateMutability": "view",
      "type": "function"
    },
    {
      "inputs": [
        {
          "internalType": "enum TokenTypeable.TokenType",
          "name": "tokenType",
          "type": "uint8"
        },
        {
          "internalType": "address",
          "name": "tokenContract",
          "type": "address"
        },
        {
          "internalType": "address payable",
          "name": "to",
          "type": "address"
        },
        {
          "internalType": "uint256",
          "name": "tokenId",
          "type": "uint256"
        },
        {
          "internalType": "uint256",
          "name": "amount",
          "type": "uint256"
        }
      ],
      "name": "transfer",
      "outputs": [],
      "stateMutability": "nonpayable",
      "type": "function"
    },
    {
      "inputs": [
        {
          "internalType": "address",
          "name": "newOwner",
          "type": "address"
        }
      ],
      "name": "transferOwnership",
      "outputs": [],
      "stateMutability": "nonpayable",
      "type": "function"
    }
  ],
  "bytecode": "0x608060405234801561001057600080fd5b5061002d61002261003260201b60201c565b61003a60201b60201c565b6100fe565b600033905090565b60008060009054906101000a900473ffffffffffffffffffffffffffffffffffffffff169050816000806101000a81548173ffffffffffffffffffffffffffffffffffffffff021916908373ffffffffffffffffffffffffffffffffffffffff1602179055508173ffffffffffffffffffffffffffffffffffffffff168173ffffffffffffffffffffffffffffffffffffffff167f8be0079c531659141344cd1fd0a4f28419497f9722a3daafe3b4186f6b6457e060405160405180910390a35050565b611bf58061010d6000396000f3fe6080604052600436106100915760003560e01c806383dcd1841161005957806383dcd1841461015c5780638da5cb5b14610185578063bc197c81146101b0578063f23a6e61146101ed578063f2fde38b1461022a57610091565b806301ffc9a714610096578063150b7a02146100d357806319511a7a1461011057806364e719241461013b578063715018a614610145575b600080fd5b3480156100a257600080fd5b506100bd60048036038101906100b89190610f00565b610253565b6040516100ca9190610f48565b60405180910390f35b3480156100df57600080fd5b506100fa60048036038101906100f5919061113d565b610405565b60405161010791906111cf565b60405180910390f35b34801561011c57600080fd5b50610125610419565b6040516101329190611272565b60405180910390f35b610143610439565b005b34801561015157600080fd5b5061015a610505565b005b34801561016857600080fd5b50610183600480360381019061017e91906112f7565b61058d565b005b34801561019157600080fd5b5061019a61078b565b6040516101a79190611381565b60405180910390f35b3480156101bc57600080fd5b506101d760048036038101906101d29190611464565b6107b4565b6040516101e491906111cf565b60405180910390f35b3480156101f957600080fd5b50610214600480360381019061020f9190611533565b6107c9565b60405161022191906111cf565b60405180910390f35b34801561023657600080fd5b50610251600480360381019061024c91906115ca565b6107de565b005b60007f150b7a02000000000000000000000000000000000000000000000000000000007bffffffffffffffffffffffffffffffffffffffffffffffffffffffff1916827bffffffffffffffffffffffffffffffffffffffffffffffffffffffff1916148061031e57507f19511a7a000000000000000000000000000000000000000000000000000000007bffffffffffffffffffffffffffffffffffffffffffffffffffffffff1916827bffffffffffffffffffffffffffffffffffffffffffffffffffffffff1916145b8061038657507f0e083076000000000000000000000000000000000000000000000000000000007bffffffffffffffffffffffffffffffffffffffffffffffffffffffff1916827bffffffffffffffffffffffffffffffffffffffffffffffffffffffff1916145b806103ee57507f64e71924000000000000000000000000000000000000000000000000000000007bffffffffffffffffffffffffffffffffffffffffffffffffffffffff1916827bffffffffffffffffffffffffffffffffffffffffffffffffffffffff1916145b806103fe57506103fd826108d6565b5b9050919050565b600063150b7a0260e01b9050949350505050565b60606040518060600160405280603f8152602001611b81603f9139905090565b610441610950565b73ffffffffffffffffffffffffffffffffffffffff1661045f61078b565b73ffffffffffffffffffffffffffffffffffffffff16146104b5576040517f08c379a00000000000000000000000000000000000000000000000000000000081526004016104ac90611643565b60405180910390fd5b6104bd61078b565b73ffffffffffffffffffffffffffffffffffffffff166108fc479081150290604051600060405180830381858888f19350505050158015610502573d6000803e3d6000fd5b50565b61050d610950565b73ffffffffffffffffffffffffffffffffffffffff1661052b61078b565b73ffffffffffffffffffffffffffffffffffffffff1614610581576040517f08c379a000000000000000000000000000000000000000000000000000000000815260040161057890611643565b60405180910390fd5b61058b6000610958565b565b610595610950565b73ffffffffffffffffffffffffffffffffffffffff166105b361078b565b73ffffffffffffffffffffffffffffffffffffffff1614610609576040517f08c379a000000000000000000000000000000000000000000000000000000000815260040161060090611643565b60405180910390fd5b846001600381111561061e5761061d611663565b5b81600381111561063157610630611663565b5b148061066157506002600381111561064c5761064b611663565b5b81600381111561065f5761065e611663565b5b145b8061068f575060038081111561067a57610679611663565b5b81600381111561068d5761068c611663565b5b145b6106ce576040517f08c379a00000000000000000000000000000000000000000000000000000000081526004016106c59061172a565b60405180910390fd5b600160038111156106e2576106e1611663565b5b8660038111156106f5576106f4611663565b5b141561070c5761070785858585610a1c565b610783565b600260038111156107205761071f611663565b5b86600381111561073357610732611663565b5b141561074957610744858584610a93565b610782565b60038081111561075c5761075b611663565b5b86600381111561076f5761076e611663565b5b141561078157610780858585610ac3565b5b5b5b505050505050565b60008060009054906101000a900473ffffffffffffffffffffffffffffffffffffffff16905090565b600063bc197c8160e01b905095945050505050565b600063f23a6e6160e01b905095945050505050565b6107e6610950565b73ffffffffffffffffffffffffffffffffffffffff1661080461078b565b73ffffffffffffffffffffffffffffffffffffffff161461085a576040517f08c379a000000000000000000000000000000000000000000000000000000000815260040161085190611643565b60405180910390fd5b600073ffffffffffffffffffffffffffffffffffffffff168173ffffffffffffffffffffffffffffffffffffffff1614156108ca576040517f08c379a00000000000000000000000000000000000000000000000000000000081526004016108c1906117bc565b60405180910390fd5b6108d381610958565b50565b60007f4e2312e0000000000000000000000000000000000000000000000000000000007bffffffffffffffffffffffffffffffffffffffffffffffffffffffff1916827bffffffffffffffffffffffffffffffffffffffffffffffffffffffff19161480610949575061094882610b37565b5b9050919050565b600033905090565b60008060009054906101000a900473ffffffffffffffffffffffffffffffffffffffff169050816000806101000a81548173ffffffffffffffffffffffffffffffffffffffff021916908373ffffffffffffffffffffffffffffffffffffffff1602179055508173ffffffffffffffffffffffffffffffffffffffff168173ffffffffffffffffffffffffffffffffffffffff167f8be0079c531659141344cd1fd0a4f28419497f9722a3daafe3b4186f6b6457e060405160405180910390a35050565b8373ffffffffffffffffffffffffffffffffffffffff1663f242432a308585856040518563ffffffff1660e01b8152600401610a5b9493929190611881565b600060405180830381600087803b158015610a7557600080fd5b505af1158015610a89573d6000803e3d6000fd5b5050505050505050565b610abe82828573ffffffffffffffffffffffffffffffffffffffff16610ba19092919063ffffffff16565b505050565b8273ffffffffffffffffffffffffffffffffffffffff166342842e0e3084846040518463ffffffff1660e01b8152600401610b00939291906118d9565b600060405180830381600087803b158015610b1a57600080fd5b505af1158015610b2e573d6000803e3d6000fd5b50505050505050565b60007f01ffc9a7000000000000000000000000000000000000000000000000000000007bffffffffffffffffffffffffffffffffffffffffffffffffffffffff1916827bffffffffffffffffffffffffffffffffffffffffffffffffffffffff1916149050919050565b610c228363a9059cbb60e01b8484604051602401610bc0929190611910565b604051602081830303815290604052907bffffffffffffffffffffffffffffffffffffffffffffffffffffffff19166020820180517bffffffffffffffffffffffffffffffffffffffffffffffffffffffff8381831617835250505050610c27565b505050565b6000610c89826040518060400160405280602081526020017f5361666545524332303a206c6f772d6c6576656c2063616c6c206661696c65648152508573ffffffffffffffffffffffffffffffffffffffff16610cee9092919063ffffffff16565b9050600081511115610ce95780806020019051810190610ca99190611965565b610ce8576040517f08c379a0000000000000000000000000000000000000000000000000000000008152600401610cdf90611a04565b60405180910390fd5b5b505050565b6060610cfd8484600085610d06565b90509392505050565b606082471015610d4b576040517f08c379a0000000000000000000000000000000000000000000000000000000008152600401610d4290611a96565b60405180910390fd5b610d5485610e1a565b610d93576040517f08c379a0000000000000000000000000000000000000000000000000000000008152600401610d8a90611b02565b60405180910390fd5b6000808673ffffffffffffffffffffffffffffffffffffffff168587604051610dbc9190611b69565b60006040518083038185875af1925050503d8060008114610df9576040519150601f19603f3d011682016040523d82523d6000602084013e610dfe565b606091505b5091509150610e0e828286610e2d565b92505050949350505050565b600080823b905060008111915050919050565b60608315610e3d57829050610e8d565b600083511115610e505782518084602001fd5b816040517f08c379a0000000000000000000000000000000000000000000000000000000008152600401610e849190611272565b60405180910390fd5b9392505050565b6000604051905090565b600080fd5b600080fd5b60007fffffffff0000000000000000000000000000000000000000000000000000000082169050919050565b610edd81610ea8565b8114610ee857600080fd5b50565b600081359050610efa81610ed4565b92915050565b600060208284031215610f1657610f15610e9e565b5b6000610f2484828501610eeb565b91505092915050565b60008115159050919050565b610f4281610f2d565b82525050565b6000602082019050610f5d6000830184610f39565b92915050565b600073ffffffffffffffffffffffffffffffffffffffff82169050919050565b6000610f8e82610f63565b9050919050565b610f9e81610f83565b8114610fa957600080fd5b50565b600081359050610fbb81610f95565b92915050565b6000819050919050565b610fd481610fc1565b8114610fdf57600080fd5b50565b600081359050610ff181610fcb565b92915050565b600080fd5b600080fd5b6000601f19601f8301169050919050565b7f4e487b7100000000000000000000000000000000000000000000000000000000600052604160045260246000fd5b61104a82611001565b810181811067ffffffffffffffff8211171561106957611068611012565b5b80604052505050565b600061107c610e94565b90506110888282611041565b919050565b600067ffffffffffffffff8211156110a8576110a7611012565b5b6110b182611001565b9050602081019050919050565b82818337600083830152505050565b60006110e06110db8461108d565b611072565b9050828152602081018484840111156110fc576110fb610ffc565b5b6111078482856110be565b509392505050565b600082601f83011261112457611123610ff7565b5b81356111348482602086016110cd565b91505092915050565b6000806000806080858703121561115757611156610e9e565b5b600061116587828801610fac565b945050602061117687828801610fac565b935050604061118787828801610fe2565b925050606085013567ffffffffffffffff8111156111a8576111a7610ea3565b5b6111b48782880161110f565b91505092959194509250565b6111c981610ea8565b82525050565b60006020820190506111e460008301846111c0565b92915050565b600081519050919050565b600082825260208201905092915050565b60005b83811015611224578082015181840152602081019050611209565b83811115611233576000848401525b50505050565b6000611244826111ea565b61124e81856111f5565b935061125e818560208601611206565b61126781611001565b840191505092915050565b6000602082019050818103600083015261128c8184611239565b905092915050565b600481106112a157600080fd5b50565b6000813590506112b381611294565b92915050565b60006112c482610f63565b9050919050565b6112d4816112b9565b81146112df57600080fd5b50565b6000813590506112f1816112cb565b92915050565b600080600080600060a0868803121561131357611312610e9e565b5b6000611321888289016112a4565b955050602061133288828901610fac565b9450506040611343888289016112e2565b935050606061135488828901610fe2565b925050608061136588828901610fe2565b9150509295509295909350565b61137b81610f83565b82525050565b60006020820190506113966000830184611372565b92915050565b600067ffffffffffffffff8211156113b7576113b6611012565b5b602082029050602081019050919050565b600080fd5b60006113e06113db8461139c565b611072565b90508083825260208201905060208402830185811115611403576114026113c8565b5b835b8181101561142c57806114188882610fe2565b845260208401935050602081019050611405565b5050509392505050565b600082601f83011261144b5761144a610ff7565b5b813561145b8482602086016113cd565b91505092915050565b600080600080600060a086880312156114805761147f610e9e565b5b600061148e88828901610fac565b955050602061149f88828901610fac565b945050604086013567ffffffffffffffff8111156114c0576114bf610ea3565b5b6114cc88828901611436565b935050606086013567ffffffffffffffff8111156114ed576114ec610ea3565b5b6114f988828901611436565b925050608086013567ffffffffffffffff81111561151a57611519610ea3565b5b6115268882890161110f565b9150509295509295909350565b600080600080600060a0868803121561154f5761154e610e9e565b5b600061155d88828901610fac565b955050602061156e88828901610fac565b945050604061157f88828901610fe2565b935050606061159088828901610fe2565b925050608086013567ffffffffffffffff8111156115b1576115b0610ea3565b5b6115bd8882890161110f565b9150509295509295909350565b6000602082840312156115e0576115df610e9e565b5b60006115ee84828501610fac565b91505092915050565b7f4f776e61626c653a2063616c6c6572206973206e6f7420746865206f776e6572600082015250565b600061162d6020836111f5565b9150611638826115f7565b602082019050919050565b6000602082019050818103600083015261165c81611620565b9050919050565b7f4e487b7100000000000000000000000000000000000000000000000000000000600052602160045260246000fd5b7f60746f6b656e5479706560206d75737420726570726573656e7420612073757060008201527f706f7274656420746f6b656e3a203120666f7220455243313135352c2032206660208201527f6f722045524332302c206f72203320666f722045524337323100000000000000604082015250565b60006117146059836111f5565b915061171f82611692565b606082019050919050565b6000602082019050818103600083015261174381611707565b9050919050565b7f4f776e61626c653a206e6577206f776e657220697320746865207a65726f206160008201527f6464726573730000000000000000000000000000000000000000000000000000602082015250565b60006117a66026836111f5565b91506117b18261174a565b604082019050919050565b600060208201905081810360008301526117d581611799565b9050919050565b6000819050919050565b60006118016117fc6117f784610f63565b6117dc565b610f63565b9050919050565b6000611813826117e6565b9050919050565b600061182582611808565b9050919050565b6118358161181a565b82525050565b61184481610fc1565b82525050565b600082825260208201905092915050565b50565b600061186b60008361184a565b91506118768261185b565b600082019050919050565b600060a0820190506118966000830187611372565b6118a3602083018661182c565b6118b0604083018561183b565b6118bd606083018461183b565b81810360808301526118ce8161185e565b905095945050505050565b60006060820190506118ee6000830186611372565b6118fb602083018561182c565b611908604083018461183b565b949350505050565b60006040820190506119256000830185611372565b611932602083018461183b565b9392505050565b61194281610f2d565b811461194d57600080fd5b50565b60008151905061195f81611939565b92915050565b60006020828403121561197b5761197a610e9e565b5b600061198984828501611950565b91505092915050565b7f5361666545524332303a204552433230206f7065726174696f6e20646964206e60008201527f6f74207375636365656400000000000000000000000000000000000000000000602082015250565b60006119ee602a836111f5565b91506119f982611992565b604082019050919050565b60006020820190508181036000830152611a1d816119e1565b9050919050565b7f416464726573733a20696e73756666696369656e742062616c616e636520666f60008201527f722063616c6c0000000000000000000000000000000000000000000000000000602082015250565b6000611a806026836111f5565b9150611a8b82611a24565b604082019050919050565b60006020820190508181036000830152611aaf81611a73565b9050919050565b7f416464726573733a2063616c6c20746f206e6f6e2d636f6e7472616374000000600082015250565b6000611aec601d836111f5565b9150611af782611ab6565b602082019050919050565b60006020820190508181036000830152611b1b81611adf565b9050919050565b600081519050919050565b600081905092915050565b6000611b4382611b22565b611b4d8185611b2d565b9350611b5d818560208601611206565b80840191505092915050565b6000611b758284611b38565b91508190509291505056fe5477696c6967687420537061726b6c6520697320746865206375746573742c20736d6172746573742c20616c6c2061726f756e64206265737420706f6e7921a2646970667358221220932b10ec0def2570b7e149ff47957e051dd5897884d7aa33a4cca95d38798bf364736f6c634300080a0033",
  "linkReferences": {},
  "deployedLinkReferences": {}
}