{
  "_format": "hh-sol-artifact-1",
  "contractName": "MarebitsVault",
  "sourceName": "contracts/MarebitsVault.sol",
  "abi": [
    {
      "anonymous": false,
      "inputs": [
        {
          "indexed": true,
          "internalType": "address",
          "name": "previousOwner",
          "type": "address"
        },
        {
          "indexed": true,
          "internalType": "address",
          "name": "newOwner",
          "type": "address"
        }
      ],
      "name": "OwnershipTransferred",
      "type": "event"
    },
    {
      "inputs": [],
      "name": "__recoverEther",
      "outputs": [],
      "stateMutability": "payable",
      "type": "function"
    },
    {
      "inputs": [
        {
          "internalType": "enum ITokenTypeable.TokenType",
          "name": "tokenType",
          "type": "uint8"
        },
        {
          "internalType": "address",
          "name": "tokenContract",
          "type": "address"
        },
        {
          "internalType": "address payable",
          "name": "to",
          "type": "address"
        },
        {
          "internalType": "uint256",
          "name": "tokenId",
          "type": "uint256"
        },
        {
          "internalType": "uint256",
          "name": "amount",
          "type": "uint256"
        }
      ],
      "name": "__transfer",
      "outputs": [],
      "stateMutability": "nonpayable",
      "type": "function"
    },
    {
      "inputs": [],
      "name": "bestPony",
      "outputs": [
        {
          "internalType": "string",
          "name": "",
          "type": "string"
        }
      ],
      "stateMutability": "pure",
      "type": "function"
    },
    {
      "inputs": [
        {
          "internalType": "address",
          "name": "",
          "type": "address"
        },
        {
          "internalType": "address",
          "name": "",
          "type": "address"
        },
        {
          "internalType": "uint256[]",
          "name": "",
          "type": "uint256[]"
        },
        {
          "internalType": "uint256[]",
          "name": "",
          "type": "uint256[]"
        },
        {
          "internalType": "bytes",
          "name": "",
          "type": "bytes"
        }
      ],
      "name": "onERC1155BatchReceived",
      "outputs": [
        {
          "internalType": "bytes4",
          "name": "",
          "type": "bytes4"
        }
      ],
      "stateMutability": "nonpayable",
      "type": "function"
    },
    {
      "inputs": [
        {
          "internalType": "address",
          "name": "",
          "type": "address"
        },
        {
          "internalType": "address",
          "name": "",
          "type": "address"
        },
        {
          "internalType": "uint256",
          "name": "",
          "type": "uint256"
        },
        {
          "internalType": "uint256",
          "name": "",
          "type": "uint256"
        },
        {
          "internalType": "bytes",
          "name": "",
          "type": "bytes"
        }
      ],
      "name": "onERC1155Received",
      "outputs": [
        {
          "internalType": "bytes4",
          "name": "",
          "type": "bytes4"
        }
      ],
      "stateMutability": "nonpayable",
      "type": "function"
    },
    {
      "inputs": [
        {
          "internalType": "address",
          "name": "",
          "type": "address"
        },
        {
          "internalType": "address",
          "name": "",
          "type": "address"
        },
        {
          "internalType": "uint256",
          "name": "",
          "type": "uint256"
        },
        {
          "internalType": "bytes",
          "name": "",
          "type": "bytes"
        }
      ],
      "name": "onERC721Received",
      "outputs": [
        {
          "internalType": "bytes4",
          "name": "",
          "type": "bytes4"
        }
      ],
      "stateMutability": "nonpayable",
      "type": "function"
    },
    {
      "inputs": [],
      "name": "owner",
      "outputs": [
        {
          "internalType": "address",
          "name": "",
          "type": "address"
        }
      ],
      "stateMutability": "view",
      "type": "function"
    },
    {
      "inputs": [],
      "name": "renounceOwnership",
      "outputs": [],
      "stateMutability": "nonpayable",
      "type": "function"
    },
    {
      "inputs": [
        {
          "internalType": "bytes4",
          "name": "interfaceId",
          "type": "bytes4"
        }
      ],
      "name": "supportsInterface",
      "outputs": [
        {
          "internalType": "bool",
          "name": "",
          "type": "bool"
        }
      ],
      "stateMutability": "view",
      "type": "function"
    },
    {
      "inputs": [
        {
          "internalType": "address",
          "name": "newOwner",
          "type": "address"
        }
      ],
      "name": "transferOwnership",
      "outputs": [],
      "stateMutability": "nonpayable",
      "type": "function"
    }
  ],
  "bytecode": "0x608060405234801561001057600080fd5b5061002d61002261003260201b60201c565b61003a60201b60201c565b6100fe565b600033905090565b60008060009054906101000a900473ffffffffffffffffffffffffffffffffffffffff169050816000806101000a81548173ffffffffffffffffffffffffffffffffffffffff021916908373ffffffffffffffffffffffffffffffffffffffff1602179055508173ffffffffffffffffffffffffffffffffffffffff168173ffffffffffffffffffffffffffffffffffffffff167f8be0079c531659141344cd1fd0a4f28419497f9722a3daafe3b4186f6b6457e060405160405180910390a35050565b611a778061010d6000396000f3fe6080604052600436106100915760003560e01c80638da5cb5b116100595780638da5cb5b1461015c578063a6e943ff14610187578063bc197c81146101b0578063f23a6e61146101ed578063f2fde38b1461022a57610091565b806301ffc9a714610096578063150b7a02146100d357806319511a7a1461011057806364e719241461013b578063715018a614610145575b600080fd5b3480156100a257600080fd5b506100bd60048036038101906100b89190610e3a565b610253565b6040516100ca9190610e82565b60405180910390f35b3480156100df57600080fd5b506100fa60048036038101906100f59190611077565b610405565b6040516101079190611109565b60405180910390f35b34801561011c57600080fd5b50610125610419565b60405161013291906111ac565b60405180910390f35b610143610439565b005b34801561015157600080fd5b5061015a610505565b005b34801561016857600080fd5b5061017161058d565b60405161017e91906111dd565b60405180910390f35b34801561019357600080fd5b506101ae60048036038101906101a9919061125b565b6105b6565b005b3480156101bc57600080fd5b506101d760048036038101906101d2919061139e565b6106ee565b6040516101e49190611109565b60405180910390f35b3480156101f957600080fd5b50610214600480360381019061020f919061146d565b610703565b6040516102219190611109565b60405180910390f35b34801561023657600080fd5b50610251600480360381019061024c9190611504565b610718565b005b60007f150b7a02000000000000000000000000000000000000000000000000000000007bffffffffffffffffffffffffffffffffffffffffffffffffffffffff1916827bffffffffffffffffffffffffffffffffffffffffffffffffffffffff1916148061031e57507f19511a7a000000000000000000000000000000000000000000000000000000007bffffffffffffffffffffffffffffffffffffffffffffffffffffffff1916827bffffffffffffffffffffffffffffffffffffffffffffffffffffffff1916145b8061038657507f0e083076000000000000000000000000000000000000000000000000000000007bffffffffffffffffffffffffffffffffffffffffffffffffffffffff1916827bffffffffffffffffffffffffffffffffffffffffffffffffffffffff1916145b806103ee57507f64e71924000000000000000000000000000000000000000000000000000000007bffffffffffffffffffffffffffffffffffffffffffffffffffffffff1916827bffffffffffffffffffffffffffffffffffffffffffffffffffffffff1916145b806103fe57506103fd82610810565b5b9050919050565b600063150b7a0260e01b9050949350505050565b60606040518060600160405280603f8152602001611a03603f9139905090565b61044161088a565b73ffffffffffffffffffffffffffffffffffffffff1661045f61058d565b73ffffffffffffffffffffffffffffffffffffffff16146104b5576040517f08c379a00000000000000000000000000000000000000000000000000000000081526004016104ac9061157d565b60405180910390fd5b6104bd61058d565b73ffffffffffffffffffffffffffffffffffffffff166108fc479081150290604051600060405180830381858888f19350505050158015610502573d6000803e3d6000fd5b50565b61050d61088a565b73ffffffffffffffffffffffffffffffffffffffff1661052b61058d565b73ffffffffffffffffffffffffffffffffffffffff1614610581576040517f08c379a00000000000000000000000000000000000000000000000000000000081526004016105789061157d565b60405180910390fd5b61058b6000610892565b565b60008060009054906101000a900473ffffffffffffffffffffffffffffffffffffffff16905090565b6105be61088a565b73ffffffffffffffffffffffffffffffffffffffff166105dc61058d565b73ffffffffffffffffffffffffffffffffffffffff1614610632576040517f08c379a00000000000000000000000000000000000000000000000000000000081526004016106299061157d565b60405180910390fd5b600160038111156106465761064561159d565b5b8560038111156106595761065861159d565b5b14156106705761066b84848484610956565b6106e7565b600260038111156106845761068361159d565b5b8560038111156106975761069661159d565b5b14156106ad576106a88484836109cd565b6106e6565b6003808111156106c0576106bf61159d565b5b8560038111156106d3576106d261159d565b5b14156106e5576106e48484846109fd565b5b5b5b5050505050565b600063bc197c8160e01b905095945050505050565b600063f23a6e6160e01b905095945050505050565b61072061088a565b73ffffffffffffffffffffffffffffffffffffffff1661073e61058d565b73ffffffffffffffffffffffffffffffffffffffff1614610794576040517f08c379a000000000000000000000000000000000000000000000000000000000815260040161078b9061157d565b60405180910390fd5b600073ffffffffffffffffffffffffffffffffffffffff168173ffffffffffffffffffffffffffffffffffffffff161415610804576040517f08c379a00000000000000000000000000000000000000000000000000000000081526004016107fb9061163e565b60405180910390fd5b61080d81610892565b50565b60007f4e2312e0000000000000000000000000000000000000000000000000000000007bffffffffffffffffffffffffffffffffffffffffffffffffffffffff1916827bffffffffffffffffffffffffffffffffffffffffffffffffffffffff19161480610883575061088282610a71565b5b9050919050565b600033905090565b60008060009054906101000a900473ffffffffffffffffffffffffffffffffffffffff169050816000806101000a81548173ffffffffffffffffffffffffffffffffffffffff021916908373ffffffffffffffffffffffffffffffffffffffff1602179055508173ffffffffffffffffffffffffffffffffffffffff168173ffffffffffffffffffffffffffffffffffffffff167f8be0079c531659141344cd1fd0a4f28419497f9722a3daafe3b4186f6b6457e060405160405180910390a35050565b8373ffffffffffffffffffffffffffffffffffffffff1663f242432a308585856040518563ffffffff1660e01b81526004016109959493929190611703565b600060405180830381600087803b1580156109af57600080fd5b505af11580156109c3573d6000803e3d6000fd5b5050505050505050565b6109f882828573ffffffffffffffffffffffffffffffffffffffff16610adb9092919063ffffffff16565b505050565b8273ffffffffffffffffffffffffffffffffffffffff166342842e0e3084846040518463ffffffff1660e01b8152600401610a3a9392919061175b565b600060405180830381600087803b158015610a5457600080fd5b505af1158015610a68573d6000803e3d6000fd5b50505050505050565b60007f01ffc9a7000000000000000000000000000000000000000000000000000000007bffffffffffffffffffffffffffffffffffffffffffffffffffffffff1916827bffffffffffffffffffffffffffffffffffffffffffffffffffffffff1916149050919050565b610b5c8363a9059cbb60e01b8484604051602401610afa929190611792565b604051602081830303815290604052907bffffffffffffffffffffffffffffffffffffffffffffffffffffffff19166020820180517bffffffffffffffffffffffffffffffffffffffffffffffffffffffff8381831617835250505050610b61565b505050565b6000610bc3826040518060400160405280602081526020017f5361666545524332303a206c6f772d6c6576656c2063616c6c206661696c65648152508573ffffffffffffffffffffffffffffffffffffffff16610c289092919063ffffffff16565b9050600081511115610c235780806020019051810190610be391906117e7565b610c22576040517f08c379a0000000000000000000000000000000000000000000000000000000008152600401610c1990611886565b60405180910390fd5b5b505050565b6060610c378484600085610c40565b90509392505050565b606082471015610c85576040517f08c379a0000000000000000000000000000000000000000000000000000000008152600401610c7c90611918565b60405180910390fd5b610c8e85610d54565b610ccd576040517f08c379a0000000000000000000000000000000000000000000000000000000008152600401610cc490611984565b60405180910390fd5b6000808673ffffffffffffffffffffffffffffffffffffffff168587604051610cf691906119eb565b60006040518083038185875af1925050503d8060008114610d33576040519150601f19603f3d011682016040523d82523d6000602084013e610d38565b606091505b5091509150610d48828286610d67565b92505050949350505050565b600080823b905060008111915050919050565b60608315610d7757829050610dc7565b600083511115610d8a5782518084602001fd5b816040517f08c379a0000000000000000000000000000000000000000000000000000000008152600401610dbe91906111ac565b60405180910390fd5b9392505050565b6000604051905090565b600080fd5b600080fd5b60007fffffffff0000000000000000000000000000000000000000000000000000000082169050919050565b610e1781610de2565b8114610e2257600080fd5b50565b600081359050610e3481610e0e565b92915050565b600060208284031215610e5057610e4f610dd8565b5b6000610e5e84828501610e25565b91505092915050565b60008115159050919050565b610e7c81610e67565b82525050565b6000602082019050610e976000830184610e73565b92915050565b600073ffffffffffffffffffffffffffffffffffffffff82169050919050565b6000610ec882610e9d565b9050919050565b610ed881610ebd565b8114610ee357600080fd5b50565b600081359050610ef581610ecf565b92915050565b6000819050919050565b610f0e81610efb565b8114610f1957600080fd5b50565b600081359050610f2b81610f05565b92915050565b600080fd5b600080fd5b6000601f19601f8301169050919050565b7f4e487b7100000000000000000000000000000000000000000000000000000000600052604160045260246000fd5b610f8482610f3b565b810181811067ffffffffffffffff82111715610fa357610fa2610f4c565b5b80604052505050565b6000610fb6610dce565b9050610fc28282610f7b565b919050565b600067ffffffffffffffff821115610fe257610fe1610f4c565b5b610feb82610f3b565b9050602081019050919050565b82818337600083830152505050565b600061101a61101584610fc7565b610fac565b90508281526020810184848401111561103657611035610f36565b5b611041848285610ff8565b509392505050565b600082601f83011261105e5761105d610f31565b5b813561106e848260208601611007565b91505092915050565b6000806000806080858703121561109157611090610dd8565b5b600061109f87828801610ee6565b94505060206110b087828801610ee6565b93505060406110c187828801610f1c565b925050606085013567ffffffffffffffff8111156110e2576110e1610ddd565b5b6110ee87828801611049565b91505092959194509250565b61110381610de2565b82525050565b600060208201905061111e60008301846110fa565b92915050565b600081519050919050565b600082825260208201905092915050565b60005b8381101561115e578082015181840152602081019050611143565b8381111561116d576000848401525b50505050565b600061117e82611124565b611188818561112f565b9350611198818560208601611140565b6111a181610f3b565b840191505092915050565b600060208201905081810360008301526111c68184611173565b905092915050565b6111d781610ebd565b82525050565b60006020820190506111f260008301846111ce565b92915050565b6004811061120557600080fd5b50565b600081359050611217816111f8565b92915050565b600061122882610e9d565b9050919050565b6112388161121d565b811461124357600080fd5b50565b6000813590506112558161122f565b92915050565b600080600080600060a0868803121561127757611276610dd8565b5b600061128588828901611208565b955050602061129688828901610ee6565b94505060406112a788828901611246565b93505060606112b888828901610f1c565b92505060806112c988828901610f1c565b9150509295509295909350565b600067ffffffffffffffff8211156112f1576112f0610f4c565b5b602082029050602081019050919050565b600080fd5b600061131a611315846112d6565b610fac565b9050808382526020820190506020840283018581111561133d5761133c611302565b5b835b8181101561136657806113528882610f1c565b84526020840193505060208101905061133f565b5050509392505050565b600082601f83011261138557611384610f31565b5b8135611395848260208601611307565b91505092915050565b600080600080600060a086880312156113ba576113b9610dd8565b5b60006113c888828901610ee6565b95505060206113d988828901610ee6565b945050604086013567ffffffffffffffff8111156113fa576113f9610ddd565b5b61140688828901611370565b935050606086013567ffffffffffffffff81111561142757611426610ddd565b5b61143388828901611370565b925050608086013567ffffffffffffffff81111561145457611453610ddd565b5b61146088828901611049565b9150509295509295909350565b600080600080600060a0868803121561148957611488610dd8565b5b600061149788828901610ee6565b95505060206114a888828901610ee6565b94505060406114b988828901610f1c565b93505060606114ca88828901610f1c565b925050608086013567ffffffffffffffff8111156114eb576114ea610ddd565b5b6114f788828901611049565b9150509295509295909350565b60006020828403121561151a57611519610dd8565b5b600061152884828501610ee6565b91505092915050565b7f4f776e61626c653a2063616c6c6572206973206e6f7420746865206f776e6572600082015250565b600061156760208361112f565b915061157282611531565b602082019050919050565b600060208201905081810360008301526115968161155a565b9050919050565b7f4e487b7100000000000000000000000000000000000000000000000000000000600052602160045260246000fd5b7f4f776e61626c653a206e6577206f776e657220697320746865207a65726f206160008201527f6464726573730000000000000000000000000000000000000000000000000000602082015250565b600061162860268361112f565b9150611633826115cc565b604082019050919050565b600060208201905081810360008301526116578161161b565b9050919050565b6000819050919050565b600061168361167e61167984610e9d565b61165e565b610e9d565b9050919050565b600061169582611668565b9050919050565b60006116a78261168a565b9050919050565b6116b78161169c565b82525050565b6116c681610efb565b82525050565b600082825260208201905092915050565b50565b60006116ed6000836116cc565b91506116f8826116dd565b600082019050919050565b600060a08201905061171860008301876111ce565b61172560208301866116ae565b61173260408301856116bd565b61173f60608301846116bd565b8181036080830152611750816116e0565b905095945050505050565b600060608201905061177060008301866111ce565b61177d60208301856116ae565b61178a60408301846116bd565b949350505050565b60006040820190506117a760008301856111ce565b6117b460208301846116bd565b9392505050565b6117c481610e67565b81146117cf57600080fd5b50565b6000815190506117e1816117bb565b92915050565b6000602082840312156117fd576117fc610dd8565b5b600061180b848285016117d2565b91505092915050565b7f5361666545524332303a204552433230206f7065726174696f6e20646964206e60008201527f6f74207375636365656400000000000000000000000000000000000000000000602082015250565b6000611870602a8361112f565b915061187b82611814565b604082019050919050565b6000602082019050818103600083015261189f81611863565b9050919050565b7f416464726573733a20696e73756666696369656e742062616c616e636520666f60008201527f722063616c6c0000000000000000000000000000000000000000000000000000602082015250565b600061190260268361112f565b915061190d826118a6565b604082019050919050565b60006020820190508181036000830152611931816118f5565b9050919050565b7f416464726573733a2063616c6c20746f206e6f6e2d636f6e7472616374000000600082015250565b600061196e601d8361112f565b915061197982611938565b602082019050919050565b6000602082019050818103600083015261199d81611961565b9050919050565b600081519050919050565b600081905092915050565b60006119c5826119a4565b6119cf81856119af565b93506119df818560208601611140565b80840191505092915050565b60006119f782846119ba565b91508190509291505056fe5477696c6967687420537061726b6c6520697320746865206375746573742c20736d6172746573742c20616c6c2061726f756e64206265737420706f6e7921a26469706673582212202f35cdd67d7413c50760a843df653982d24b09e4982da90d62a8acba62f03fe964736f6c634300080a0033",
  "linkReferences": {},
  "deployedLinkReferences": {}
}